:100F48004C75783A002E0048553A0054453A00004E
:030F580000000096
:100E38000328A58126032BA582270F19000000008F
:100E480000000000000000000000000108000F0979
:0F0E58000000000000000000000000000000008B
:100F20004389207598507587808F8D8F8BD2ACD276
:040F3000AFD28E228C
:060E68008B418A42894320
:100E6E00E4FFEFC39D5018AB41AA42A9438F827590
:0F0E7E0083001208F6F5993099FDC2990F80E3B1
:010E8D002242
:100A5800782F7C007D007BFF7A0F79577E007F041A
:100A68001208D0E4F53FF5407FFA120F20120F3438
:100A78007B007A0079287D03120E687F0A7E0012B7
:100A88000ECFE51864026003020B22FEE51E781003
:100A9800C333CE33CED8F9FDAC067E00E51D7818F9
:100AA800C333CE33CED8F9FFEE4CFCEF4DFDE51F36
:100AB8004CFEEDFFEF4520FFE48F3E8E3DF53CF503
:100AC8003B7BFF7A0F79487D017F02120E8EE47B13
:100AD80064FAF9F8AF3EAE3DAD3CAC3B1209C6AB8B
:100AE80007AA067545037D057F02120EED7BFF7A86
:100AF8000F794D7D087F02120E8EE47B64FAF9F8B7
:100B0800AF3EAE3DAD3CAC3B1209C67545027D0912
:100B18007F02120EEDB281E4F5187FF47E01120E09
:100B2800CF7B007A00792B7D03120E687F0A7E0046
:100B3800120ECFE51864016003020C0FE523FEE5F1
:100B480024FFE48F368E35F534F5337BFF7A0F7941
:100B58004F7D017F01120E8EE47B64FAF9F8AF36FF
:100B6800AE35AD34AC331209C6AB07AA06754502DB
:100B78007D047F01120EED7BFF7A0F794D7D067F94
:100B880001120E8EE47B64FAF9F8AF36AE35AD3457
:100B9800AC331209C67545027D077F01120EEDE5DB
:100BA8001DFEE51EFFE48F3A8E39F538F5377BFFD9
:100BB8007A0F79537D097F01120E8EE47B64FAF96E
:100BC800F8AF3AAE39AD38AC371209C6AB07AA064A
:100BD8007545027D0C7F01120EED7BFF7A0F794D72
:100BE8007D0E7F01120E8EE47B64FAF9F8AF3AAEFF
:100BF80039AD38AC371209C67545027D0F7F011231
:100C08000EEDB280E4F5187FF47E01120ECF020AD1
:010C18007863
:03002300020C19B3
:100C1900C0E0C0F0C083C082C0D075D000C000C0A1
:0D0C290001C002C003C004C005C006C00722
:100C3600752E00309877AF08050874092FF8A69925
:100C4600C298E509645A6003750800E508B402090C
:100C5600E50A645A6003750800E508D39403404D1D
:100C6600E50C2405FFE433FEE5086F7001EE703DE8
:100C7600E50B24EB601D24D07030E518702C781934
:100C86007C00FDFB7A007909FE7F0F1208D07518EB
:100C9600018017E518701378197C00FDFB7A00793E
:0D0CA60009FE7F091208D0751802750800BC
:100CB300D007D006D005D004D003D002D001D00095
:0B0CC300D0D0D082D083D0F0D0E0323F
:060F5B00C2838FA0D282C8
:080F61007F027EEFDEFEDFFCE3
:010F69002265
:0A0F7500C284120F5BC282020F61FA
:100EB100CFCDCFCECCCE1209357C007D0A120935BB
:040EC100ED2430FFED
:0A0EC500D284120F5BC282020F619B
:100F0A00AE07BE0104ED148006BE0209ED243F447B
:060F1A0080FF120F75229A
:100F34007F38120F757F0C120F757F06120F757FA5
:040F440001020F7522
:0A0F7F00AC03120F0AAF04020EC506
:060E8E008B418A428943FA
:100E9400120F0AE4FDAB41AA42A9438D8275830077
:0C0EA4001208F6FF6006120EC50D80E972
:010EB000221F
:0C0E05007F0AEA24FFFDE434FFFC7E00BD
:080E11008E468F478C488D4985
:100E19007F017E00E4FBEBC39549E5486480F874E3
:0E0E29008098500AAC46AD471209230B80E8B2
:010E37002298
:040EED008A438B4465
:100EF100120F0AAA45EAD39400400D120E05AC4325
:080F0100AD44120EB11A80ED9F
:010F090022C5
:100D5A00120F0AC3EA64809480400B7F2B120EC5DF
:100D6A008A4F8B50800E7F2D120EC5C3E49BF5501F
:100D7A00E49AF54FAA4EEAD39400400D120E05AC40
:090D8A004FAD50120EB11A80EDBC
:010D9300223D
:040D94008A538B549F
:100D9800120F0AAA55EAD3940040297F10120E07B1
:100DA800AC53AD54CFCDCFCECCCE120935EF540FC6
:100DB800FEC3940AEE5004243080022437FF120E3A
:040DC800C51A80D1F7
:010DCC002204
:040DCD008A588B595C
:100DD100120F0AAA5AEAD394004028EA24FFFDE43C
:100DE10034FFFC7F027E00120E11AC58AD59CFCDFD
:100DF100CFCECCCE120935EF54012430FF120EC5EF
:030E01001A80D282
:010E040022CB
:0B0F6A00EF1FAC0670011E4C70F62259
:100ECF00D3EF9400EE940040147D6E7C00ED1D7006
:0D0EDF00011CED4C70F7EF1F70E61E80E364
:010EEC0022E3
:03000000020CCE21
:0C0CCE00787FE4F6D8FD75815A020D1500
:10080000E709F608DFFA8046E709F208DFFA803EDA
:1008100088828C83E709F0A3DFFA8032E309F608C7
:10082000DFFA8078E309F208DFFA807088828C832F
:10083000E309F0A3DFFA806489828A83E0A3F608E3
:10084000DFFA805889828A83E0A3F208DFFA804CBD
:1008500080D280FA80C680D4806980F28033801094
:1008600080A680EA809A80A880DA80E280CA8033FD
:1008700089828A83ECFAE493A3C8C582C8CCC58375
:10088000CCF0A3C8C582C8CCC583CCDFE9DEE78045
:100890000D89828A83E493A3F608DFF9ECFAA9F0C4
:1008A000EDFB2289828A83ECFAE0A3C8C582C8CC1A
:1008B000C583CCF0A3C8C582C8CCC583CCDFEADE33
:1008C000E880DB89828A83E493A3F208DFF980CC95
:1008D00088F0EF60010E4E60C388F0ED2402B4048E
:1008E0000050B9F582EB2402B4040050AF23234535
:0608F00082239008507302
:1008F600BB010CE58229F582E5833AF583E02250B7
:1009060006E92582F8E622BBFE06E92582F8E22200
:0D091600E58229F582E5833AF583E493221A
:10092300EF8DF0A4A8F0CF8CF0A428CE8DF0A42EE8
:02093300FE22A2
:10093500BC000BBE0029EF8DF084FFADF022E4CCA6
:10094500F875F008EF2FFFEE33FEEC33FCEE9DEC6F
:10095500984005FCEE9DFE0FD5F0E9E4CEFD22EDB5
:10096500F8F5F0EE8420D21CFEADF075F008EF2FFF
:10097500FFED33FD4007985006D5F0F222C398FDF0
:050985000FD5F0EA228D
:10098A0075F008758200EF2FFFEE33FECD33CDCC24
:10099A0033CCC58233C5829BED9AEC99E5829840A7
:1009AA000CF582EE9BFEED9AFDEC99FC0FD5F0D684
:1009BA00E4CEFBE4CDFAE4CCF9A88222B800C1B9AE
:1009CA000059BA002DEC8BF084CFCECDFCE5F0CBEC
:1009DA00F97818EF2FFFEE33FEED33FDEC33FCEB25
:1009EA0033FB10D703994004EB99FB0FD8E5E4F9E0
:1009FA00FA227818EF2FFFEE33FEED33FDEC33FCCD
:100A0A00C933C910D7059BE99A4007EC9BFCE99AC0
:100A1A00F90FD8E0E4C9FAE4CCFB2275F010EF2F05
:100A2A00FFEE33FEED33FDCC33CCC833C810D70705
:100A3A009BEC9AE899400AED9BFDEC9AFCE899F840
:0E0A4A000FD5F0DAE4CDFBE4CCFAE4C8F922D3
:100CDA00020A58E493A3F8E493A34003F68001F2CE
:100CEA0008DFF48029E493A3F85407240CC8C3331B
:100CFA00C4540F4420C8834004F456800146F6DFEA
:100D0A00E4800B0102040810204080900E38E47E33
:100D1A00019360BCA3FF543F30E509541FFEE493DE
:100D2A00A360010ECF54C025E060A840B8E493A3A5
:100D3A00FAE493A3F8E493A3C8C582C8CAC583CAD0
:100D4A00F0A3C8C582C8CAC583CADFE9DEE780BE88
:010E6700008A
:00000001FF
