:020000040800F2
:10000000401F0020C902000875370008C1290008F8
:1000100071370008092200080148000800000000AC
:100020000000000000000000000000004D44000837
:100030007D25000800000000DD4200086145000841
:10004000E3020008E3020008E3020008E3020008FC
:10005000E3020008E3020008E3020008E3020008EC
:10006000E3020008E3020008E3020008E3020008DC
:10007000E3020008E3020008E3020008E3020008CC
:10008000E3020008E3020008E3020008E3020008BC
:10009000E3020008E3020008E3020008E3020008AC
:1000A000E3020008E3020008E3020008E30200089C
:1000B000E3020008E3020008E3020008E30200088C
:1000C000E3020008E3020008E3020008E30200087C
:1000D000E3020008C5450008E1450008E302000806
:1000E000E3020008E3020008E3020008E30200085C
:1000F000E3020008E3020008E3020008E30200084C
:10010000E3020008E3020008E3020008E30200083B
:10011000E3020008E3020008E3020008E30200082B
:10012000E3020008E3020008E3020008E30200081B
:1001300000F002F800F0B8F80AA090E8000C824441
:100140008344AAF10107DA4501D100F0ADF8AFF21E
:10015000090EBAE80F0013F0010F18BFFB1A43F0A5
:100160000103184740AF000060AF000010F8013BEA
:100170000A4413F0030408BF10F8014B1D1108BF17
:1001800010F8015B641E05D010F8016B641E01F8C5
:10019000016BF9D1002D15D010F8014B03F00C03C1
:1001A0000C2BA1EB04040ABF10F8013BA4EB831451
:1001B000A4EB032405F1010314F8016B5B1E01F8A5
:1001C000016BF9D5914238BF10F8013BD1D370478C
:1001D0000023002400250026103A28BF78C1FBD850
:1001E000520728BF30C148BF0B6070476E2900F02E
:1001F0000185702900F0E781662906F09A87652954
:1002000006F09787672906F094876129AFF300808D
:1002100003681B0A28BF41F08001692900F058815A
:10022000642900F05581752900F052816F2900F092
:10023000FD87782900F0B381E92900F09787E42948
:1002400000F09487F52900F09187EF2900F0FA87F4
:10025000F82900F0B2810368DB0928BF41F0800172
:10026000632900F01887732900F01D87E32901F046
:10027000DD80F32901F0E280002070471FB59DE882
:10028000030000F00BFC01F023F804000020002123
:1002900006F07AF8401C60600020002106F08AF821
:1002A000E0601FBD10B510BD01F0B2F91146FFF7B7
:1002B000E5FF04F04BFD01F0DEF903B4FFF7F2FFB8
:1002C00003BC01F04FFA0000094880470948004785
:1002D000FEE7FEE7FEE7FEE7FEE7FEE7FEE7FEE7F6
:1002E000FEE7FEE704480549054A064B7047000053
:1002F0006545000831010008400B0020401F002028
:10030000400F0020400F002070B5064600F0A6FB0D
:10031000056806F10B0020F00704B4429CBF0020E2
:1003200070BD2B466A68BAB11068A04210D304F1C0
:10033000080188423CBF5068586007D351681019C3
:1003400041601168091B016058601460101D70BD88
:1003500013465268002AE7D12146284600F08AFB5E
:100360000028DED170BD70B50446051F00F076FB95
:100370000068002C14BF446870BD002C18BFAC424C
:100380003CBF20466468F8D301680A18AA4218BF27
:10039000456003D12A680546114401602868411967
:1003A000A1421CBF6C6070BD61686960216808442F
:1003B000286070BD10B5044600F048FB0068005D81
:1003C000C00602D504F1200010BD204610BD00007B
:1003D0007CB51D4616460C00009001D02044401EFE
:1003E000074B7B442A4669460190304600F029FEBF
:1003F00005461CB10020694600F036FE28467CBD4B
:100400008D0C00000FB41CB5084B06AA7B4469464E
:100410000090059800F015FE04460020694600F0A3
:1004200023FE20461CBC5DF814FB0000590C0000A4
:1004300070B5044685690068C10601D5302600E024
:100440002026C00707D070BDD4E90121304690476F
:10045000206A401C20626D1EF6D570BD70B5044642
:1004600085690078C00707D170BDD4E9012120203B
:100470009047206A401C20626D1EF6D570BD70B595
:100480000C460546012A05D02878800600D5EA6981
:10049000002302E0012305E05B1C934202D2E05CF2
:1004A0000028F9D1A869E618C01AA861286A18447A
:1004B00028622846FFF7BCFF04E0D5E9012114F8C3
:1004C000010B9047B442F8D32846FFF7C7FF70BD31
:1004D0002DE9F0410646002410687529314616A51D
:1004E00010D000F01CFB002802DA404213A507E000
:1004F00031688A0701D512A502E0490704D511A584
:10050000012401E000F014FB00210A2206F1240777
:1005100009E0B0FBF2FCB0FBF2F302FB1C00303050
:1005200078541846491C0028F3D123462A46304601
:10053000BDE8F04100F005BB000000002D00000008
:100540002B00000020000000F0B40D4601880905D2
:1005500002D5214C7C4402E01F4C7C440E34002127
:1005600000F1240608E002F00F071209E75D42EAF5
:1005700003721B097754491C52EA0307F3D102782E
:100580000023120704D5702D06D009B102231134BF
:100590002246F0BC00F0D5BA01231034F8E770B55C
:1005A00004460D462146106800F0C2FA024629466C
:1005B0002046BDE870400023C6E7D21D22F00703A5
:1005C000D3E90023C0E70368126843F02003036007
:1005D0000823C3610023B7E7D9A900002DE9F05F24
:1005E000894604464FF0000ADFF874B1FB44C0F8B6
:1005F00020A02046E1688847002874D0252806D02E
:10060000D4E901219047206A401C2062F1E70026CE
:100610005F462046E16888472028054607DB312DE4
:1006200005D2781910F8200C08B10643F1E7B0079D
:1006300001D526F00406C4F81CA00027C4F818A0B1
:100640002A2D09D0284604F05FFA38B304EB870856
:10065000303DC8F8185019E059F8041B204604EB47
:1006600087029161E1688847012F054618D1E0694A
:10067000002820DA26F020061DE0D8F8180000EB4C
:10068000800005EB40003038C8F818002046E168CB
:100690008847054604F038FA0028EED1012F0AD029
:1006A0002E2D08D12046E16888477F1C0546022F81
:1006B00046F02006C4DBA069002803DA404246F079
:1006C0000106A061F00701D026F010066C2D0BD0BA
:1006D000682D09D04C2D39D06A2D35D0742D35D0E8
:1006E0007A2D33D016E038E0E1682F46204688475F
:1006F000B842054609D16C2F26D04FF48060E168DE
:10070000064320468847054604E06C2F1AD04FF474
:10071000807006430DB3A5F14100192802D8203599
:1007200046F400664A462946204626604E46FFF7B4
:100730005DFD80B101280BD0F61D26F0070000F109
:10074000080956E74020E4E78020D8E70020D6E7F4
:1007500006F104094DE7284652E7206ABDE8F09FFC
:1007600069A9000070B5064600F07CF904680546EA
:1007700030460A22002100F06FFD2C6070BD401E43
:10078000CAB210F8011F8A4202D00029F9D1002014
:10079000704710B5431E13F8014F002CFBD105E044
:1007A00011F8014B002C03F8014B03D0521EF7D275
:1007B0000021197010BD30B505460B462A4613F8C6
:1007C000014B12F8010B08B1A042F8D01CB100286F
:1007D00002D06D1CF1E7284630BD10B5431C02E085
:1007E00010F8011B71B18107FAD14FF0013202C834
:1007F0008C1A8C4314EAC211F9D0C01A0A0603D02D
:10080000C01E10BDC01A10BD0A0401D0801E10BD4C
:100810000902FCD0401E10BD40EA010370B59B07E1
:100820002ED14FF00136042A2AD308C810C99D1BC7
:100830009D43121F15EAC61517D0D8B2E1B2401A6F
:1008400050EA056110D198B2A1B2401A50EA0541B0
:100850000AD123F07F4024F07F41401A50EA05215D
:1008600002D1180EA0EB146070BDA342DBD018BA01
:1008700021BA884201D9012070BD4FF0FF3070BD10
:100880000AB9002070BD10F8013B11F8014B63B1AB
:10089000A3420AD1521E08D010F8013B11F8014BB7
:1008A0001BB1A34201D1521EEDD1181B70BD421ED7
:1008B00012F8013F002BFBD111F8013B002B02F88D
:1008C000013BF9D17047032A40F2308010F0030C4D
:1008D00000F0158011F8013BBCF1020F624498BF93
:1008E00011F801CB00F8013B38BF11F8013BA2F130
:1008F000040298BF00F801CB38BF00F8013B11F0AB
:10090000030300F02580083AC0F0088051F8043B4A
:10091000083A51F804CBA0E80810F5E7121D5CBFB7
:1009200051F8043B40F8043BAFF30080D20724BFEA
:1009300011F8013B11F801CB48BF11F8012B24BF7E
:1009400000F8013B00F801CB48BF00F8012B7047CD
:1009500010B5203AC0F00B80B1E81850203AA0E85A
:100960001850B1E81850A0E81850BFF4F5AF5FEA8E
:10097000027C24BFB1E81850A0E8185044BF18C941
:1009800018C0BDE810405FEA827C24BF51F8043BE8
:1009900040F8043B08BF7047D20728BF31F8023B3C
:1009A00048BF11F8012B28BF20F8023B48BF00F8D0
:1009B000012B70474FF000020429C0F0128010F0A4
:1009C000030C00F01B80CCF1040CBCF1020F18BF2B
:1009D00000F8012BA8BF20F8022BA1EB0C0100F0BE
:1009E0000DB85FEAC17C24BF00F8012B00F8012B91
:1009F00048BF00F8012B70474FF0000200B51346C6
:100A000094469646203922BFA0E80C50A0E80C502E
:100A1000B1F12001BFF4F7AF090728BFA0E80C50DF
:100A200048BF0CC05DF804EB890028BF40F8042BD8
:100A300008BF704748BF20F8022B11F0804F18BF45
:100A400000F8012B704770477047704710B500F0F1
:100A50003FFC001D10BD00BF315900000048704729
:100A6000E40A002000487047DC0A00207047704705
:100A70007047704738B504460A4600206946AFF310
:100A80000080002808BF38BD02460099204600F0CB
:100A900023FC012038BD012000F0B2BDF8B5AFF352
:100AA0000080054600200C46102000BF0646A8190D
:100AB000A0420DD9324669460020AFF300800700FE
:100AC00008BF00F09DFD0098A04218BF0546C4195C
:100AD000FFF7C4FF05600746F01D20F00700461928
:100AE000284600F00AF8B44208BFF8BDA21B314600
:100AF0003868BDE8F84000F0EFBB00210160C0E9B4
:100B0000011070471020704710B5FFF7ABFF006869
:100B100010BD10B50446FFF7A5FF046010BD0968BD
:100B20004A0501D540B27047C905FCD500B27047EF
:100B300009684A0501D5C0B27047C905FCD580B225
:100B400070472DE9F0470D4699469246044600F15C
:100B500024080168880604D5E06921F010012160AD
:100B600000E00120A84201DD471B00E00027A16949
:100B70007A1902EB0900081AA0612078C00602D495
:100B80002046FFF755FC002608E0D4E901211AF8B9
:100B900006009047206A401C761C20624E45F4DB1C
:100BA0002078C0060AD52046FFF742FC06E0D4E9CB
:100BB000012130209047206A401C2062381EA7F196
:100BC0000107F4DC07E0D4E9012118F8050090479B
:100BD000206A401C2062281EA5F10105F3DC204696
:100BE000FFF73CFC2078000602D50220BDE8F08724
:100BF0000120FBE711680268006A530501D50870FF
:100C00000AE0D30501D5088006E0130603D5C21714
:100C1000C1E9000200E008600120704770472DE93B
:100C2000FF4F0C461E464FF0FF378BB0D2E9000154
:100C3000DDF860800A908A46C1F30A5505B93D4641
:100C4000002108464FF00000BAF1000F00F4400008
:100C500005DA00EB80004FF4400101EA50004FEA52
:100C60009059B9F1010F00DDB9460A9850EA4A00DF
:100C70000ED044F61050A5F2FF3545432F14B8F1BD
:100C8000000F1ED07542291E1EDDC9F100021CE0B6
:100C9000B8F1010F4FF0000001D0302103E0F24322
:100CA00005E02154401CB042FBDB3046002200210D
:100CB00021540B99C1F80880C1E900200FB0BDE8AC
:100CC000F08FBD1B6D1CDEE74A4600DA694206A8BC
:100CD00000F008FC06AB93E8070003AB83E80700CD
:100CE00050460A9900F064FD8DE80700A0F5005019
:100CF0001F3800900398002D09DD42F21F014A467B
:100D0000084403A90390684600F0C3FF08E0A0F57B
:100D100000504A461F3803A90390684600F0CDFFF3
:100D20008DE807000004000C03D04FF0FF304108AD
:100D300000E01046B8F1000F03D0002200921546E3
:100D40001EE0751E05D400F0E1FA303262556D1ECA
:100D5000F9D5B3460122084302D000227F1C04E0EB
:100D60002078302801D100227F1E002A099786D0E2
:100D70001DE0112D07DA00F0C9FA303262556D1C02
:100D800050EA0102F5D1084302D00098C8B10EE044
:100D90000021681E05E0235C625C63542254401EFF
:100DA000491C8142F7DBAB46A81B401E099000207E
:100DB00004F80B000B98099AC0F80880C0E9002BD2
:100DC0007CE711264FF0000859E72DE9F04F8846DF
:100DD0000446D21D22F0070191B0D1E90001CDE90E
:100DE0000A0103F008FE02460B98C00F01D02D2027
:100DF00007E02068810701D52B2002E0202101EACD
:100E0000C000032A099001D0072A05DB03464146AA
:100E1000204600F0C1FA0BE12078800601D5E06998
:100E200000E00620B8F1650F814606D0B8F1660FE4
:100E300018D0B8F1670F70D131E00020B9F1110F6F
:100E4000009001DB112301E009F101030AAA01A9C5
:100E50000CA8FFF7E4FEDDE90C70002609F101059E
:100E6000834647E001204B4600904FF000470AAA16
:100E700001A90CA8FFF7D3FEDDE90DB00C995D4682
:100E8000002610B909F101000D18B9EB050003D4D3
:100E9000C0F1FF3609F10105A5EB09002BE0B9F11E
:100EA000010F01DA4FF001090020B9F1110F009094
:100EB000484601DD112300E003460AAA01A90CA857
:100EC000FFF7ADFEDDE90C704D4600268346207825
:100ED00000070AD4AB4500DA5D4601A8012D04DD08
:100EE000411911F8011C302907D04F4502DA17F1DA
:100EF000040F04DA012082460FE06D1EEEE7002F9A
:100F000002DCED1B3E4403E0781CA84200DD7D1CA2
:100F1000B81B00F1010A4FF000472078000703D406
:100F2000AA4501DB4FF0FF3A0021B7F1004F0DF168
:100F300043088DF8431024D002202B23002F01DA20
:100F40007F422D230A21021EA0F1010000DC5FB1C7
:100F500097FBF1FC97FBF1F201FB1C7C17460CF1AF
:100F6000300C08F801CDEEE7A8F1010003702188EC
:100F7000090501D5452100E06521A0F1010800F82F
:100F8000011C09980FA9A1EB0807FF1D00B1012062
:100F9000411901EBEA70A1693844081A401EA061AA
:100FA0002078C00602D42046FFF742FA099828B1FB
:100FB000D4E901219047206A401C20622078C006B5
:100FC00022D52046FFF734FA1EE0002E04DBB3459D
:100FD00002DD01A8805D00E03020D4E901219047C6
:100FE000206A401C2062761CAAF101005FEA000A18
:100FF0000AD100F06DF9C0680168405CD4E90121B4
:101000009047206A401C2062281EA5F10105DCDC07
:1010100007E0D4E9012118F8010B9047206A401C31
:101020002062381EA7F10107F3DC2046FFF716FA0D
:10103000032011B043E6000001694A1C02610878F0
:10104000704700B58FB0CDE9013100210591054908
:101050007944CDE9031011466846FFF7BFFA0FB097
:1010600000BD0000E5FFFFFF0A6802F8010B0A60FF
:101070007047D1E900239A4202D2531C0B601070D2
:10108000704710B5436913B1AFF3008001E0FFF77B
:10109000F6F9012010BD127800F124010A70002237
:1010A0004A700122EDE711684FF0FF32E9E70000D6
:1010B0002DE9FF5F15468A460446DFF8AC80F84408
:1010C0000027D8E900103E46CDE9001010E03AF8BC
:1010D00016106A4602A800F073FA411C07D0217866
:1010E000890603D5E269391891420DD80744761C68
:1010F0002078800602D5E069B84205DDAE42E6DB25
:101100003AF816000028E2D1A069C01BA061204671
:10111000FFF78EF9D8E90010CDE90010002017E0A4
:101120003AF818106A4602A800F04AFAB0F1FF3FF8
:1011300081460BD000250DF1080B05E0D4E9012113
:101140001BF8050090476D1C4D45F7D308F10100D1
:10115000B0428046E4DB206A384420622046FFF734
:101160007DF9BDE8FF9F0000369F00002DE9F041AA
:101170008046D21D22F007020025D2E90002F5299F
:1011800015A614D0011E72F1000106DA0023D0EB7F
:10119000030063EB020211A608E0D8F800108B07E9
:1011A00001D50FA602E0490701D50EA6012511467B
:1011B000002408F1240704E000F0A8F830323A5582
:1011C000641C50EA0102F7D12B46324621464046C4
:1011D000BDE8F041FFF7B5BC000000002D000000A5
:1011E0002B0000002000000030B4002100F1240496
:1011F00008E002F00705D208303542EA4372DB0806
:101200006554491C52EA0305F3D10468002310A277
:10121000250708D504F020040C4304D0C469012339
:101220000CA2641EC46130BCFFF78BBC10B5044631
:1012300021461068FFF77CFC02462046BDE81040BE
:101240000023D1E7D21D22F00701D1E90023CBE72B
:1012500000000000300000002DE9F04791460F46E5
:1012600080460446002614F8015B2DB1FFF7EEFB23
:101270000068405DC007F6D12B2D02D02D2D18D06F
:10128000641E4A463946204600F0DCF827B139682A
:10129000A14201D1C7F800804FF0020471050BD5BF
:1012A0004042002803DDFFF7DDFB0460A007BDE836
:1012B000F08746F48066E4E70028F8DAFFF7D2FB0F
:1012C00004606FF00040F2E700487047DC0A00203D
:1012D00000487047FC0A0020034640688C460028FE
:1012E00018BF88423CBF03464068F8D318681844CA
:1012F000884207D00CF1030020F00700001D411ABE
:10130000521A0146081D0A60FFF72DB830B5B0F13A
:101310000A024FEA900E71F100034EEA817EB0EBB3
:101320000E0061EB91014FEA101E4EEA017E10EBB8
:101330000E0041EB11114FEA102E4EEA016E10EB38
:101340000E0041EB11214FEA104E4EEA014E10EB18
:101350000E0041EB1141401841F100014FEAD0006D
:1013600040EA41704FEAD10110EB80054FEA810459
:1013700044EA907444EB01046D1944EB0404521BDD
:10138000A3414FF0000348BF0A3200D530BD401CD6
:1013900041F1000130BD00002DE9F0411F46044637
:1013A00003260168072A01F4006004DB08B116A5D2
:1013B00005E016A503E008B115A500E015A521F08C
:1013C00010002060A069C01EA0610FB1401EA06186
:1013D0002046FFF72DF84FB1D4E901213846904758
:1013E000206A401C2062C01C206206E0206AFAE7E6
:1013F000D4E9012115F8010B9047761EF8D220465A
:10140000FFF72CF8BDE8F0814E414E006E616E0092
:10141000494E4600696E660010B5436913B1AFF3DB
:10142000008001E0FFF744FE012010BD128800F1AA
:10143000240182840022C2840122EDE711684FF06A
:10144000FF32E9E72DE9F05F824615468B4600271B
:101450000AF10104B9460078302801D09DB113E0AB
:1014600014F8010B0127782803D0582801D045B182
:101470000AE00DB1102D07D1002714F8010B10253B
:1014800002E0082500E00A250026B0460EE005FB34
:10149000080005FB06F101271FFA80F801EB104652
:1014A000B6F5803F00D3B94614F8010B294600F089
:1014B000D4F80028EBDABBF1000F05D00FB1641EA1
:1014C00000E05446CBF80040B9F1000F06D0FFF71A
:1014D000C9FA02210160C81EBDE8F09F48EA064033
:1014E000FAE700002DE9F047814616468AB03348F6
:1014F00078440DC88DE80D0030487844801C03AC5A
:101500000DC884E80D0041F69B300844372190FB5C
:10151000F1F290FBF1F5A5F1800501FB12041B3CF3
:1015200002D56442012000E00020DFF890A0804650
:101530000027FA44AAF1BE0A0DE0E00709D03246BE
:10154000684607EB47010AEB810100F0B6FB8DE826
:10155000070064107F1C002CEFD1184F7F44AC3F74
:1015600018E0E80714D007EB04100DF1180A90E812
:101570000E008AE80E00C068F04201D19819089068
:10158000324606A903A800F098FB03AB83E80700E6
:101590006D10641C002DE4D132466946B8F1000F8D
:1015A00003A802D000F075FB01E000F086FBC9E95A
:1015B0000001C9F808200AB0BDE8F087909B000040
:1015C00070B516460C460546FFF740FA036893F8D7
:1015D0000101012806D0FF2C0FD8185D68B1012049
:1015E0002C7070BDD3F807013246214603F2071371
:1015F00003442846BDE8704018474FF0FF3070BDE7
:1016000010B500F047F8BDE8104000F03DB8704755
:101610007546FFF759FEAE4605006946534620F071
:101620000700854618B020B5FEF75CFEBDE82040F7
:101630004FF000064FF000074FF000084FF0000B8E
:1016400021F00701AC46ACE8C009ACE8C009ACE841
:10165000C009ACE8C0098D4670473A2800D230383E
:1016600020F02002412A01D3A2F13700884201D3A1
:101670004FF0FF30704710B50446AFF300802046AE
:10168000BDE81040FEF719BE002801D000F06AB88E
:101690007047000010B5012805D0002103A000F01C
:1016A00067F8012010BD09A1F8E70000534947522F
:1016B000544D454D3A204F7574206F662068656122
:1016C00070206D656D6F7279000000003A204865EA
:1016D0006170206D656D6F727920636F72727570C5
:1016E000746564004FF0013C50F8042B51F8043B42
:1016F0009A4221D1A2EB0C03934313EACC1317D1E6
:1017000050F8042B51F8043B9A4215D1A2EB0C037C
:10171000934313EACC130BD150F8042B51F8043B3C
:101720009A4209D1A2EB0C03934313EACC13DBD00A
:101730004FF00000704700BFD01A01BAB1FA81F132
:1017400001F0180122FA01F0CB40C1F12001DBB217
:10175000C0B2C01A2CFA01F3D11A914311EAC31195
:10176000E6D1704701491820ABBEFEE72600020013
:1017700070B505460C460A2000E06D1C00F011F81B
:1017800035B128780028F8D102E0641C00F009F88F
:1017900014B120780028F8D1BDE870400A20AFF3DA
:1017A000008008B569468DF800000320ABBE08BD77
:1017B0005FEA400C08BF91F0000F4FEA8C234FEA1C
:1017C000C12243EA51514FEA1C5018BF00F5F040C6
:1017D0004FEA300018BF41F000415FEA6C5C00F056
:1017E0002980BCF1FF3F08BF40F080407047130CD8
:1017F00006BF12044FF0100C4FF0000C130E04BF84
:1018000012020CF1080C130F04BF12010CF1040CAE
:10181000930F04BF92000CF1020CD30F04BF5200CF
:101820000CF1010C11464FF00002A0F11F00A0EBDB
:101830000C00704711F0004F08BF704731F00041B5
:101840003FF4D5AF0B0C06BF09044FF0100C4FF05E
:10185000000C0B0E04BF09020CF1080C0B0F04BFA7
:1018600009010CF1040C8B0F04BF89000CF1020C70
:10187000CB0F04BF49000CF1010CCCF12003A0EB0D
:101880000C0022FA03F302FA0CF241EA030100F120
:101890000100704720F07F4C80EA030023F07F476F
:1018A000ACEB070303F57C5300F0004003F1FF03AA
:1018B0002DE980494FEA154B09B44FEA144325EA54
:1018C0000B4E24EA03480FF2042606EB13274908BF
:1018D0003E785FEA320203FB0667C7F5000707FBA5
:1018E00006F64FEA54374FEAD64606F1020607FBE2
:1018F000066CCCF1005C4FEA1C472CEA074C07FB56
:1019000006F40CFB06F504EB15464FEA961634BFB9
:1019100000204FF000404FEAD13706FB07FC4FEAAA
:101920001C4C0CFB0BF7D21B03FB0CF761EB070104
:101930000CFB0EF7B0EB074072EB17420CFB08F7FD
:1019400034BFA2EB0742B2EB074261EB17414FEA0B
:101950000C444FEA910706FB07FC4FEA1C4C0CFBBA
:101960000BF7B0EBC74072EB573203FB0CF734BFF9
:10197000A2EBC742B2EBC74261EB57310CFB0EF74B
:10198000B0EBC70072EB57720CFB08F734BFA2EB49
:10199000C702B2EBC70261EB5771039F4FEA816147
:1019A00041EA921104EBCC044FEAD1374FEA82624C
:1019B00006FB07FC42EA90124FEA80604FEA1C4C9B
:1019C0000CFB0BF7D21B03FB0CF761EB07010CFBC5
:1019D0000EF7B0EB074072EB17420CFB08F734BF71
:1019E000A2EB0742B2EB074261EB17414FEA8C557D
:1019F0004FEA910704EB9C2406FB07FC4FEA1C4CC2
:101A00000CFB0BF7B0EBC74072EB573203FB0CF744
:101A100034BFA2EBC742B2EBC74261EB57310CFBBC
:101A20000EF7B0EBC70072EB57720CFB08F734BF30
:101A3000A2EBC702B2EBC70261EB577115EB4C2565
:101A40004FEA816141EA92114FEA82624FEAD1374F
:101A500042EA901206FB07FC44F100044FEA806062
:101A60004FEA1C4C0CFB0BF7D21B03FB0CF761EB92
:101A700007010CFB0EF7B0EB074072EB17420CFBB3
:101A800008F734BFA2EB0742B2EB074261EB174104
:101A900015EB1C154FEA813141EA92414FEA82323F
:101AA00042EA90424FEA80304FEA0C7644F100045B
:101AB00048EA03434EEA0B484FF0000EB2EB080C25
:101AC00071EB030724BF624639464EEB0E0E4FF012
:101AD000000B0018524149414BEB0B0BB2EB080CC9
:101AE00071EB03077BF1000B24BF624639464EEBD6
:101AF0000E0E4FF0000B0018524149414BEB0B0BFF
:101B0000B2EB080C71EB03077BF1000B24BF6246BC
:101B100039464EEB0E0E51EA020718BF46F0010699
:101B200016EB0E7655F1000254F1000103D5BDE825
:101B30008901BDE80088BDE88901BDE80048B61903
:101B4000524141EB0101A3F10103704780807F7E88
:101B50007D7C7B7A79787776767574737271717023
:101B60006F6E6E6D6C6C6B6A6A69686867666665D5
:101B70006464636362616160605F5F5E5E5D5D5C63
:101B80005C5B5B5A5A5959585857575656555555D4
:101B90005454535352525251515050504F4F4F4E34
:101BA0004E4D4D4D4C4C4C4B4B4B4A4A4A49494982
:101BB00048484847474747464646454545444444C4
:101BC000444343434342424242414141002B26D4D5
:101BD000770021D01CB54FEA370703B44FF010004F
:101BE0004FF010014FF000000FBCBDE810400BF1AA
:101BF000010BBBF1010F08BF5FEA170722BF12F10B
:101C0000010211F101014FF0004143F1000300F026
:101C1000004043EA00007047F9D35708DAE746EA84
:101C2000064613F1400F4FEA16461FDD13F1200F51
:101C3000DFBF16430A46002120335B42C8D0C3F100
:101C4000200746EA064602FA07F74FEA164646EA32
:101C50000706C3F1200722FA03F201FA07F721FA77
:101C600003F14FF0000342EA0702B1E746EA020639
:101C700046EA06464FEA164646EA0106BCBF46EA71
:101C80000646360C4FF000034FF000024FF0000103
:101C90009EE72DE9C048934630B491E8380007C864
:101CA00031EA400C48BF34EA430C03D5FFF7F2FD9C
:101CB000FFF78CFFF0BCBDE800882DE9C0489346D3
:101CC00030B491E8380007C810F0804F08BF13F017
:101CD000804F03D100F005F8FFF778FFF0BCBDE8B6
:101CE000008820F07F4780EA030023F07F4C07EB59
:101CF0000C03A3F57C5300F00040A3F1FE0392F027
:101D0000000F00F0B38095F0000F00F077802DE910
:101D100001494FEA11404FEA144621EA004800FB0E
:101D200006FC24EA064708FB06F607FB08F800FB5A
:101D300007F718EB06484CEB164C4FEA124B18EB22
:101D400007484FEA15464CEB174022EA0B4E0BFBB7
:101D500006FC25EA06470EFB06F607FB0EFE0BFB0C
:101D600007F71EEB064E4CEB164C4FF000061EEB31
:101D7000074E4CEB174B18EB0B0840F1000018EB2B
:101D80000E0B58EB000840F100008F1A4FF00001D5
:101D90003CBFC943661B14BFB5EB040C00213CBF1C
:101DA000C943F61B4FEA17444EEA8E0E27EA044554
:101DB0004FEA1C4704FB07622CEA074C05FB07F7B8
:101DC0000CFB05F604FB0CFC16EB074642EB174236
:101DD00016EB0C4642EB1C421BEB060658EB0202CC
:101DE000414146EA9E0601D5BDE80189B619524136
:101DF00041EB0101A3F10103BDE801894FEA14455C
:101E00004FEA114724EA054621EA074C05FB07F48F
:101E100006FB07F70CFB06F105FB0CFC11EB074179
:101E200044EB17444FEA124711EB0C4144EB1C44BE
:101E300022EA074C05FB07F206FB07F70CFB06F648
:101E400005FB0CFC16EB074642EB174216EB0C4663
:101E500042EB1C456A1854F1000148BF7047B6199F
:101E6000524141EB0101A3F10103704795F0000FCE
:101E700037D04FEA11424FEA144721EA024624EADA
:101E8000074C02FB07F106FB07F70CFB06F402FB0D
:101E90000CFC14EB074441EB17414FEA154714EBD8
:101EA0000C4441EB1C4125EA074C02FB07F506FBFD
:101EB00007F70CFB06F602FB0CFC16EB074645EB9E
:101EC000174516EB0C4645EB1C42121951F1000167
:101ED00048BF7047B619524141EB0101A3F101031C
:101EE00070474FEA14454FEA114724EA054621EAB4
:101EF000074C05FB07F106FB07F70CFB06F24FF05A
:101F0000000605FB0CFC12EB074241EB174112EBFC
:101F10000C4251EB1C4148BF7047921841EB010144
:101F2000A3F10103704721B1826842F0010282608F
:101F300003E0826822F001028260704721B182686A
:101F400042F48072826003E0826822F480728260D0
:101F50007047014600208A6802F004020AB101209D
:101F600000E000207047014600208A6802F0080265
:101F70000AB1012000E000207047000030B50246A1
:101F80000020002350680F4C20400D790C6844EA73
:101F900005242043506090680B4C2040D1E9025446
:101FA0002C434D7944EA450420439060D06A20F4E4
:101FB00070000C7C641EE4B2234340EA0350D062FC
:101FC00030BD0000FFFEF0FFFDF7F1FFF0B5044665
:101FD0000D4600200021092D11DDE068A5F10A065B
:101FE00006EB4607072606FA07F18843A5F10A061D
:101FF00006EB460603FA06F10843E0600CE02069B0
:1020000005EB4507072606FA07F1884305EB450669
:1020100003FA06F108432061072A0FDA606B561EA7
:1020200006EB86071F2606FA07F18843561E06EBC5
:10203000860605FA06F10843606322E00D2A0FDAEE
:10204000206BD61F06EB86071F2606FA07F188438A
:10205000D61F06EB860605FA06F10843206310E05A
:10206000E06AA2F10D0606EB86071F2606FA07F1C5
:102070008843A2F10D0606EB860605FA06F1084331
:10208000E062F0BD816841F008018160704721B1D4
:10209000826842F4A002826003E0826822F4A00217
:1020A00082607047816841F00401816070470000E0
:1020B00008B50121042002F04FF90121082002F0A7
:1020C0004BF93020ADF8000000208DF80300694680
:1020D000054800F0E1FB0220ADF800006946034826
:1020E00000F0DAFB08BD000000080140000C0140D0
:1020F00010B5FFF7DDFF00F001F810BD00B591B09D
:102100000121084602F0F8F80121480202F024F902
:102110003A4800F06FF93A4806903A480790002094
:1021200008901E20099000200A9080200B9040000B
:102130000C9080000D9020200E90C0010F90002088
:10214000109006A92D4800F0FBF901212B4800F062
:1021500045F90020019001208DF808008DF8090054
:102160004FF4602003900020049003208DF81400A9
:1021700001A923484C38FFF701FF4FF4004002F05B
:10218000AFF80523012204211D484C38FFF71EFF3C
:102190000523022219461A484C38FFF717FF05237A
:1021A0000322092116484C38FFF710FF012114487B
:1021B0004C38FFF7C3FE012111484C38FFF7B3FE3E
:1021C0000F484C38FFF75EFF00BF0D484C38FFF753
:1021D000CAFE0028F9D10A484C38FFF763FF00BF58
:1021E00007484C38FFF7B5FE0028F9D10121044813
:1021F0004C38FFF74CFF11B000BD00000800024052
:102200004C240140E409002000BFFEE708B501218D
:10221000042002F0A1F82020ADF8000010208DF875
:10222000030003208DF802006946024800F034FBE9
:1022300008BD00000008014010B5002415480068E2
:1022400020F00F00134908600846006840F00800BD
:10225000086004E0601CC4B2012002F051FD0E4889
:10226000006808B1642CF5DB642C01DB012010BD93
:10227000002404E0601CC4B2012002F041FD0648C5
:10228000006808B9642CF5DB642C01DB0120EEE763
:102290000020ECE7000C01400081214208B501213B
:1022A000082002F059F80120ADF8000010208DF848
:1022B000030003208DF802006946064800F0ECFA9E
:1022C0000121044800F075FB00F068F8FFF7B4FF47
:1022D00008BD0000000C014010B5002404E0601CA3
:1022E000C4B2012002F00CFD0D48006808B1642C56
:1022F000F5DB002404E0601CC4B2012002F000FD04
:102300000748006808B9642CF5DB282002F0F8FCC7
:102310000348006808B1012010BD0020FCE7000060
:102320000081214270B50024002506E06006040EFD
:10233000FFF7D2FF0443681CC5B2082DF6DB204628
:1023400070BD7CB505460E4600F028F8FFF774FF17
:10235000F8B9002405E0FFF7E5FF0DF80400601C64
:10236000C4B2052CF7DB9DF800009DF8011008446D
:102370009DF8021008449DF8031008449DF80410CD
:10238000884208D19DF8000030709DF80200287046
:1023900001E001207CBD0020FCE7000010B50C48E6
:1023A000006820F00F000A4908600846006840F005
:1023B00003000860002007490860142002F07AFC3E
:1023C00001200549C1F880011E2002F099FC10BDD2
:1023D000000C0140808121420080214221B102682D
:1023E00042F00102026004E002684FF6FE731A40F8
:1023F0000260704701684FF6FE72114001600021D3
:10240000016041608160C1604B49884208D14A49FE
:102410000839496841F00F01474A083A51608AE09B
:1024200045491431884208D143490839496841F087
:10243000F001414A083A51607DE03F492831884225
:1024400008D13D490839496841F470613A4A083A6F
:10245000516070E038493C31884208D1364908392A
:10246000496841F47041344A083A516063E03249A6
:102470005031884208D130490839496841F4702107
:102480002D4A083A516056E02B496431884208D100
:1024900029490839496841F47001274A083A5160CE
:1024A00049E025497831884208D1234908394968EB
:1024B00041F07061204A083A51603CE01F4988426F
:1024C00006D1011F096841F00F01021F116032E0BF
:1024D0001A491431884208D11849091F096841F086
:1024E000F001164A121F116025E014492831884274
:1024F00008D11249091F096841F470610F4A121F7F
:10250000116018E00D493C31884208D10B49091F80
:10251000096841F47041094A121F11600BE0074934
:102520005031884207D10549091F096841F47021DB
:10253000024A121F1160704708000240080402405E
:1025400010B50022026847F6F0739A430C6A8B6854
:1025500023430C6923434C6923438C692343CC698F
:1025600023434C6A23438C6A23431A430260CB689B
:1025700043600B6883604B68C36010BD7047000008
:1025800010B580210348FEF715FA002002490880A3
:1025900010BD00005C0A0020D009002070B505467F
:1025A000002400BF00F05EF980B90DA10E48FEF7CF
:1025B00002F9044654B13A212046FEF7E0F80446F9
:1025C00014B1641C204670BD0020FCE7052002F019
:1025D00071FB281EA5F101018DB2E3D100BFF2E726
:1025E0004950442C000000005C0A002008B501217D
:1025F000082001F0B1FE10208DF803004002ADF874
:10260000000003208DF802006946334800F044F9C9
:1026100000224FF40051304800F0CDF9FA2002F0CA
:1026200049FB012251032C4800F0C5F94FF4FA7020
:1026300002F040FBFFF7A4FF28A12A4802F090F91E
:1026400003E04FF4FA7002F035FB27A127A000F059
:10265000BBF80028F5D127A1224802F081F903E058
:102660004FF4FA7002F026FB1FA125A000F0ACF891
:102670000028F5D126A11B4802F072F903E04FF4BF
:10268000FA7002F017FB18A125A000F09DF80028B1
:10269000F5D127A1134802F063F903E04FF4FA7073
:1026A00002F008FB25A127A000F08EF80028F5D144
:1026B0002EA10C4802F054F903E04FF4FA7002F036
:1026C000F9FA2EA12FA000F07FF80028F5D138A14B
:1026D000044802F045F908BD000C0140312E2041AC
:1026E000540D0A00003801404F4B000041540D0AC0
:1026F00000000000322E2043574D4F44450D0A0084
:1027000041542B43574D4F44453D310D0A000000C5
:10271000332E2041542B4357444843500D0A0000A8
:1027200041542B4357444843503D312C310D0A004E
:10273000342E2043574A41500D0A0000474F542081
:102740004950000041542B43574A41503D226D658A
:102750005F636F6D7075746572222C22323936306A
:10276000343933343235220D0A000000352E20432F
:10277000495053544152540D0A000000434F4E4EED
:102780004543540041542B43495053544152543D06
:1027900022544350222C223138332E3233302E34FF
:1027A000302E3339222C363030320D0A0000000032
:1027B000362E204553503832363620496E69742003
:1027C0004F4B0D0A000000002DE9F04104460D4674
:1027D000C8262046FEF701F887B23A4621460D4842
:1027E00002F0E2F80FE000F03DF848B929460A4847
:1027F000FDF7E1FF20B1FFF7C3FE0020BDE8F08147
:102800000A2002F057FA301EA6F10101CEB2EAD139
:102810000120F3E7004400405C0A002030B589B095
:1028200004460D46FFF7ACFE2A4608A101A8FDF7B5
:10283000E9FD0AA101A8FFF7C7FF20B92A462146F2
:10284000074802F0B1F809B030BD000041542B43F5
:10285000495053454E443D25640D0A003E0000009A
:10286000004400400A48008808B901207047084821
:10287000008808490988884203D10020044908805B
:10288000F4E703480088034908800120EEE70000D0
:10289000D0090020D20900202DE9F0410246002590
:1028A0000026002000230024002791F803C00CF02C
:1028B0000F0591F803C00CF0100CBCF1000F03D011
:1028C00091F802C04CEA050591F800C0BCF1000F78
:1028D00031D0146800202BE04FF0010C0CFA00F30B
:1028E000B1F800C00CEA03069E4220D183004FF0ED
:1028F0000F0C0CFA03F7BC4305FA03FC4CEA040482
:1029000091F803C0BCF1280F06D14FF0010C0CFA6E
:1029100000FCC2F814C00AE091F803C0BCF1480FF3
:1029200005D14FF0010C0CFA00FCC2F810C0401C9D
:102930000828D1D31460B1F800C0BCF1FF0F34DD1A
:10294000546800202EE000F1080C4FF0010808FA4E
:102950000CF3B1F800C00CEA03069E4221D18300BB
:102960004FF00F0C0CFA03F7BC4305FA03FC4CEADA
:10297000040491F803C0BCF1280F05D100F1080C44
:1029800008FA0CF8C2F8148091F803C0BCF1480FA3
:1029900007D100F1080C4FF0010808FA0CF8C2F852
:1029A0001080401C0828CED35460BDE8F0814161FE
:1029B0007047016170470AB1016100E041617047F1
:1029C00000BFFEE770B5024600240025002300206A
:1029D000958A138B1B0445EA030626F07F4404EA1C
:1029E00001068E4201D1012000E0002070BD21B11E
:1029F000028842F00102028004E002884FF6FE7372
:102A00001A4002807047000000B585B001214805DA
:102A100001F082FC0121082001F09EFCC020ADF8ED
:102A2000000003208DF802001C208DF80300694689
:102A30001148FFF731FF114800F024F80020ADF8ED
:102A400008004BF6FF70ADF80A003020ADF80C001E
:102A50004FF48060ADF80E000001ADF8100008489A
:102A6000019001210548FFF7C2FF01A9034800F0CA
:102A70005BF805B000BD0000000C014000540040B0
:102A8000801A060010B504460B48844209D1012182
:102A9000480501F051FC00214FF4001001F04CFCFE
:102AA00008E00121880501F047FC00214FF4800077
:102AB00001F042FC10BD00000054004021B102882A
:102AC00042F48072028004E002884FF6FF631A40ED
:102AD0000280704721B1028842F40072028004E053
:102AE00002884FF6FF531A40028070470CB5024629
:102AF000002000230193009300920B0F019321F01B
:102B00007F41019B1BB1009B1433009303E0090C30
:102B1000009B18330093009B1B680B400BB10120F6
:102B200000E000200CBD00002DE9F04385B0044614
:102B30000D460026B1460427DFF8CC80A6884FF664
:102B4000C0700640684601F017FCDDF808802F4889
:102B5000B8FBF0F01FFA80F946EA0906A680208843
:102B60004FF6FE71084020800026294928688842D7
:102B70000CD828684000B8FBF0F087B2042F00DAC8
:102B800004273E4309F10100208427E0E8884BF642
:102B9000FF71884206D1286800EB4000B8FBF0F0D6
:102BA00087B209E0286800EBC00101EB0010B8FB18
:102BB000F0F087B247F48047C7F30B0008B947F03D
:102BC000010747F4004006434FF4967009FB00F0FC
:102BD0004FF47A7190FBF1F0401C2084A68320888A
:102BE00040F00100208026884FF6F5300640A88886
:102BF0006989084306432680A889298908432081DA
:102C000005B0BDE8F083000000127A0040420F00DA
:102C1000A086010012B141F0010102E04FF6FE73FF
:102C200019400182704701827047000070B5044668
:102C30000D4600BF4FF400311C48FFF757FF002836
:102C4000F8D101211948FFF739FF00BF184917488B
:102C5000FFF7B8FE0028F9D0002278211348FFF7CB
:102C6000D9FF00BF13491148FFF7ACFE0028F9D087
:102C700021460E48FFF7D7FF00BF0E49891C0B48BD
:102C8000FFF7A0FE0028F8D029460848FFF7CBFF41
:102C900000BF0849891C0548FFF794FE0028F8D0BA
:102CA00001210248FFF716FF70BD000000540040EC
:102CB000010003008200070010B50446207B0128B4
:102CC00002D12068FDF74FFB002020606060A0600B
:102CD000207310BD0246002301230DE002F07F00A7
:102CE0000870D2092AB1087840F080000870491CA9
:102CF00001E0184670475B1C042BEFDD4FF0FF30FE
:102D0000F8E770B504460E460025206898B9012002
:102D100020733046FDF7F8FA20602068E0B100200B
:102D20006060A66003E00020216848556D1CA06823
:102D3000A842F8D810E00220207303E000202168A8
:102D400048556D1CA068A842F8D800206060A068B3
:102D5000B04201D20020206070BD00002DE9FF5F6D
:102D600007460D4690463846FDF737FD86B22846A1
:102D7000FDF733FD1FFA80FA4FF00009F01DFDF753
:102D8000C3FA04461CB9012004B0BDE8F09FF11D50
:102D90002046FDF70FFE12A0016821608088A08008
:102DA000324639462046FDF7F4FC2846FDF715FD6E
:102DB00083460120002100915B462A46CDE90208A6
:102DC000019121460A2000F05FF910B94FF0000987
:102DD00001E04FF001092046FDF7C5FA4846D3E768
:102DE00024637273702F00002DE9FF4F83B0824679
:102DF0008B469146159C0025002002900F270190DC
:102E00004846FDF7EAFC0FFA80F8B9F1000F03D14C
:102E1000012007B0BDE8F08F08F10200384487B206
:102E2000109808B145F00205129878B145F00405F4
:102E30001298FDF7D2FCC0B202901398FDF7CDFCBA
:102E400001460298001D0844384487B2119820B109
:102E5000012804D0022808D104E000BF07E045F0B3
:102E60000C0504E045F0140501E00220D1E700BFA5
:102E7000149808B145F02405BAF1000F02D0BBF157
:102E8000000F01D10320C4E745F0C0055046FDF70F
:102E9000A4FC06465846FDF7A0FC3044001D38440B
:102EA00087B239462046FFF72CFF206808B9042076
:102EB000AFE739462068FDF77DFD10216268501CA0
:102EC000606020688154D4E90023D118781FFFF78F
:102ED00001FF00B201900198002804DA2046FFF7B4
:102EE000EBFE052095E761680198084460600021C9
:102EF0006268501C60602068815404216268501C24
:102F00006060206881544D216268501C60602068B8
:102F1000815451216268501C6060206881545421A2
:102F20006268501C6060206881546268501C606058
:102F30002068815404216268501C606020688154BC
:102F40006168481C6060206845540698010A626800
:102F5000501C6060206881540698C1B26268501CA1
:102F6000606020688154C8F307216268501C60606B
:102F7000206881546268501C6060206800F80280FC
:102F8000D4E90012881842464946FDF702FC606801
:102F90004044606005F00400B8B30026139808B9F7
:102FA00038A013901298FDF718FC86B2310A6268B7
:102FB000501C6060206881546268501C606020680A
:102FC0008654D4E90012881832461299FDF7E1FBC5
:102FD0006068304460601398FDF7FFFB86B2310AE9
:102FE0006268501C6060206881546268501C606098
:102FF00020688654D4E90012881832461399FDF7E8
:10300000C8FB60683044606000BF05F08000C8B154
:103010005046FDF7E2FB86B2310A6268501C6060E0
:10302000206881546268501C606020688654D4E92E
:103030000012881832465146FDF7ABFB60683044F9
:10304000606000BF05F04000C8B15846FDF7C5FB01
:1030500086B2310A6268501C6060206881546268E0
:10306000501C606020688654D4E9001288183246EB
:103070005946FDF78EFB60683044606000BF002059
:10308000C7E60000000000002DE9FF4F83B0834633
:1030900017469946139C00250026002002900190B7
:1030A0008046BBF1000F03D1012007B0BDE8F08FCF
:1030B00000260AE00498805D232803D00498805DF0
:1030C0002B2801D10220F0E7761C0498805D0028AF
:1030D000F0D148F03008119808B148F0010806EB2B
:1030E0000900851C109820B1012804D002280AD1BB
:1030F00005E000BF09E048F00208AD1C05E048F01B
:103100000408AD1C01E00320CFE700BF8FB338787F
:10311000022821D14FF0000A00BF50460AF1010AEF
:10312000385C7D28F9D1AAF1030A0AF10700029060
:103130000298A9EB000AE81CA0EB0A012046FFF761
:10314000E0FD206808B90420AFE7EA1CA2EB0A0101
:103150002068FDF72FFC19E0691D2046FFF7D1FD1F
:10316000206808B90420A0E7691D2068FDF722FC4B
:103170000CE0FFE7691D2046FFF7C3FD206808B992
:10318000042092E7691D2068FDF714FC6168481C63
:103190006060206800F80180D4E9000281182846A8
:1031A000FFF798FD01900198002804DA2046FFF708
:1031B00083FD052079E76168019808446060C6F3E3
:1031C00007216268501C6060206881546268501C4E
:1031D000606020688654D4E9001288183246049949
:1031E000FDF7D7FA606830446060109860B14FEA2C
:1031F0001B216268501C6060206881546268501C0A
:103200006060206800F802B0C7B1387802280BD19E
:10321000D4E9001288183946029AFDF754FB616818
:1032200002980844606009E0D4E9001288184A4610
:103230003946FDF748FB606848446060002034E789
:1032400070B505460C4604212046FFF75AFD20685C
:1032500008B9012070BD40216268501C6060206880
:10326000815402216268501C6060206881542912D8
:103270006268501C6060206881546268501C606005
:10328000206885540020E5E770B505460C4604210A
:103290002046FFF736FD206808B9012070BD502197
:1032A0006268501C60602068815402216268501C72
:1032B00060602068815429126268501C6060206838
:1032C00081546268501C6060206885540020E5E7E6
:1032D0002DE9FF4107460D4690461E460A9C0120F7
:1032E0000021CDE90001EB1C0A460FA1CDE9020443
:1032F0000A20FFF7C9FE88B96168481C6060206831
:103300004654C5F307216268501C606020688154F0
:103310006268501C60602068855403E0012004B09E
:10332000BDE8F0810020FAE7246470002DE9FF5F1A
:103330008046174699460E9C0026B246B3460025A5
:10334000B8F1000F03D1012004B0BDE8F09F0BE0FD
:1033500057F8250008B90220F6E757F82500FDF7D1
:103360003CFA0644681CC5B24D45F1DB09EB490047
:10337000801C00EB060A0AF105012046FFF7C1FC9C
:10338000206808B90320DFE782216268501C606072
:1033900020688154D4E9000281185046FFF79AFC56
:1033A0000FFA80FBBBF1000F04DA2046FFF784FC24
:1033B0000420C9E76068584460604FEA18216268D9
:1033C000501C6060206881546268501C60602068F6
:1033D00000F80280002524E057F82500FDF7FDF9EC
:1033E0000646C6F307216268501C6060206881545D
:1033F0006268501C606020688654D4E90023D018AD
:1034000057F825103246FDF7C4F960683044606013
:103410000198C1B26268501C606020688154681CC9
:10342000C5B24D45D8DB00208EE7F0B504460D4609
:103430002646012300201060002114E0775C07F08D
:103440007F07106807FB03001060705C00F08000CD
:1034500008B9481CF0BDDB01B3F5001F02D36FF0C3
:103460000100F7E7491CA942E8DB4FF0FF30F1E724
:103470002DE9F84380460C4615461E462F2108F1DB
:103480000600FDF77CF907460020009017B90120DF
:10349000BDE8F8837F1C6A46042108F10100FFF7AC
:1034A000C4FF2520FCF730FF2060206808B9022007
:1034B000EEE725212068FDF77DFA242239462068B1
:1034C000FDF701FA243700982C3830803188481CE9
:1034D000FCF71AFF2860286820B92068FCF743FF32
:1034E0000320D5E73288511C2868FDF763FA32883B
:1034F00039462868FDF7E7F90020C9E70146487812
:10350000022801D001207047887810B188780128FE
:1035100001D1C878F7E7FF20F5E700002DE9FC5F4F
:1035200081460D4614461E46DDE90C8B99F80000D5
:1035300000F00F0A002001900AF008000090CAF382
:1035400041008BF8000001AA042109F10100FFF7F6
:103550006CFF4844471C0198022802D30AF001007E
:1035600010B1FF20BDE8FC9F7878397840EA01204F
:1035700020802088801C0199884201D9FF20F1E732
:1035800054A1B81CFDF717F908B10F20EAE79BF822
:10359000000020B101283DD0022877D13BE00098FF
:1035A00008B1FF20DEE72188481CFCF7ADFE28604B
:1035B000286808B9FF20D5E72288511C2868FDF744
:1035C000F9F92288B91C2868FDF77DF90198801E59
:1035D0002188401AA8F80000B8F80010481CFCF731
:1035E00093FE3060306820B92868FCF7BCFEFF20ED
:1035F000B8E7B8F80020511C3068FDF7DBF9B8F8DF
:103600000020B4F800C0BB1C0CEB03013068FDF7D0
:103610005AF94FE000BF2088801C0199884201D9E7
:10362000FF209FE72088C01C395C2088801C385C04
:1036300041EA00210E9801800E9808B9FF2091E719
:103640002188481CFCF760FE2860286808B9FF2024
:1036500088E72288511C2868FDF7ACF92288B91C3C
:103660002868FDF730F90198001F2188401AA8F852
:103670000000B8F80010481CFCF746FE30603068C7
:1036800028B92868FCF76FFEFF206BE710E0B8F858
:103690000020511C3068FDF78DF9B8F80020B4F80F
:1036A00000C03B1D0CEB03013068FDF70CF901E095
:1036B000FF2057E700BF2B212846FDF760F820B90F
:1036C00023212846FDF75BF808B1FF204AE70020D8
:1036D00048E70000246372657100000001464878E5
:1036E000022801D001207047887820B9C8780A28BC
:1036F00001D10020F7E70120F5E70000F8B5044606
:10370000FF2720780511012D01DB0E2D01DD384644
:10371000F8BD032D24D1002000906A460421601CCE
:10372000FFF783FE2044461C0098022803D320782C
:1037300000F0010008B1FF20EAE77078317840EA34
:103740000120801C0099884201D9FF20E0E706A1F2
:10375000B01CFDF730F808B10F2700E0032700E0A8
:103760002F463846D4E700002463726571000000DC
:1037700000BFFEE77047000070B5002100230F2254
:10378000C47804B3154C246804F4E064C4F5E06420
:10379000210AC1F10403CA40447804FA03F1847891
:1037A0001440214309010E4C0678A155047804F019
:1037B0001F050124AC4005786D11AD0005F1E02531
:1037C000C5F8004109E0047804F01F050124AC406D
:1037D000044D0678761145F8264070BD0CED00E0EA
:1037E00000E400E080E100E002490143024A116088
:1037F000704700000000FA050CED00E010B5002055
:1038000000F001F810BD70B50646002415E004F183
:10381000B001C8B201F0E1F8002001F0DEF810209C
:1038200001F0DBF8002504E0304601F0DDF8681C0B
:10383000C5B2802DF8DB601CC4B2082CE7DB70BD7C
:1038400010B5FFF7E1F8642001F034FAAE2001F082
:10385000C4F8202001F0C1F8102001F0BEF8B0201B
:1038600001F0BBF8C82001F0B8F8002001F0B5F86D
:10387000102001F0B2F8402001F0AFF8812001F0F3
:10388000ACF8FF2001F0A9F8A12001F0A6F8A620CD
:1038900001F0A3F8A82001F0A0F83F2001F09DF866
:1038A000A42001F09AF8D32001F097F8002001F04D
:1038B00094F8D52001F091F8F02001F08EF8D9208D
:1038C00001F08BF8222001F088F8DA2001F085F869
:1038D000122001F082F8DB2001F07FF8202001F0B7
:1038E0007CF88D2001F079F8142001F076F8AF20F3
:1038F00001F073F8FFF782FF10BD70B504460D4666
:1039000005F1B001C8B201F068F8102141EA1410C5
:1039100001F063F804F00F0141F0010001F05DF8DF
:1039200070BD00002DE9F04180460E461746002488
:103930007D0131464046FFF7E0FF00BF06E00D493C
:10394000485D01F051F86D1C601CC4B2102CF6DB10
:10395000701CC1B24046FFF7D0FF002406E00549C5
:10396000485D01F041F86D1C601CC4B2102CF6DB00
:10397000BDE8F081380000202DE9F0470646894671
:1039800017469A464FF0000800240025BAF1010FAF
:1039900003D0BAF1020F5ED125E020E0785D203837
:1039A00000F0FF087E2E04DD002609F1010000F082
:1039B000FF0949463046FFF7A0FF002409E008EB65
:1039C0004801264A02EB4101085D01F00DF8601C38
:1039D000C4B2062CF3DBB01DC6B2681CC5B2785D5C
:1039E0000028DBD137E032E0785D203800F0FF08B6
:1039F000782E04DD002609F1010000F0FF09494698
:103A00003046FFF77AFF002407E004EB0811144A60
:103A1000505C00F0E9FF601CC4B2082CF5DB09F132
:103A20000100C1B23046FFF768FF002408E004EB54
:103A3000081108310A4A505C00F0D6FF601CC4B27D
:103A4000082CF4DB06F10800C6B2681CC5B2785D2C
:103A50000028C9D100BF00BFBDE8F0872C72000864
:103A60005474000830B58BB000200790089009907E
:103A70000A90012530A033A334A236A1009041481A
:103A800000F06EFF07A8002102910391CDE9041018
:103A900000912B0228A201912AA12CA0FFF7A4F9E2
:103AA000002842D1089A91B20798FEF7B7FEFA2093
:103AB000FEF774FD0446002C33D02046FFF71EFEAF
:103AC00002282ED12046FFF719FD062823D2DFE871
:103AD00000F003090E13181D2BA12A4800F040FF27
:103AE00000251DE02DA1274800F03AFF18E032A183
:103AF000244800F035FF13E038A1224800F030FFE1
:103B00000EE03EA11F4800F02BFF09E044A11D4834
:103B100000F026FF04E04DA11A4800F021FF00BF8D
:103B200000BF07A8FFF7C8F803E04FA1154800F051
:103B300017FF28460BB030BD3130363431333334C3
:103B400039300000313233343536000035383833FF
:103B5000383400004F6E654E65745F4465764C697D
:103B60006E6B0D0A50524F49443A2025732C09417F
:103B70005549463A2025732C0944455649443A256F
:103B8000730D0A0000380140546970733A09C1ACE2
:103B9000BDD3B3C9B9A60D0A000000005741524E6B
:103BA0003A09C1ACBDD3CAA7B0DCA3BAD0ADD2E943
:103BB000B4EDCEF30D0A00005741524E3A09C1ACA4
:103BC000BDD3CAA7B0DCA3BAB7C7B7A8B5C4636CE6
:103BD00069656E7469640D0A000000005741524E19
:103BE0003A09C1ACBDD3CAA7B0DCA3BAB7FECEF1C7
:103BF000C6F7CAA7B0DC0D0A000000005741524EBC
:103C00003A09C1ACBDD3CAA7B0DCA3BAD3C3BBA722
:103C1000C3FBBBF2C3DCC2EBB4EDCEF30D0A000074
:103C20005741524E3A09C1ACBDD3CAA7B0DCA3BAC2
:103C3000B7C7B7A8C1B4BDD328B1C8C8E7746F6B04
:103C4000656EB7C7B7A8290D0A0000004552523A61
:103C500009C1ACBDD3CAA7B0DCA3BACEB4D6AAB44E
:103C6000EDCEF30D0A0000005741524E3A094D5176
:103C700054545F5061636B6574436F6E6E6563741B
:103C8000204661696C65640D0A00000010B588B0BB
:103C9000044620216846FCF7AFFE45A0008820803E
:103CA00020216846FCF7A8FE4248027842A16846F7
:103CB000FCF7A8FB69462046FCF7F9FD2021684681
:103CC000FCF79AFE4048027840A16846FCF79AFB50
:103CD00069462046FCF7EBFD20216846FCF78CFE88
:103CE0003E4802783EA16846FCF78CFB69462046B8
:103CF000FCF7DDFD20216846FCF77EFE3C4802789B
:103D00003CA16846FCF77EFB69462046FCF7CFFDE8
:103D100020216846FCF770FE3A4802883AA16846BE
:103D2000FCF770FB69462046FCF7C1FD2021684680
:103D3000FCF762FE3748027837A16846FCF762FB61
:103D400069462046FCF7B3FD20216846FCF754FE87
:103D50003448027834A16846FCF754FB6946204693
:103D6000FCF7A5FD20216846FCF746FE31480278A5
:103D700031A16846FCF746FB69462046FCF797FDF3
:103D800020216846FCF738FE2D4802782DA16846B0
:103D9000FCF738FB69462046FCF789FD2BA120463D
:103DA000FCF785FD2046FCF718FDC0B208B010BD39
:103DB0007B0000000200002074656D706572617404
:103DC0007572653A25642C000500002068756D69E0
:103DD000646974793A25642C000000001400002006
:103DE0004C69676874696E673A25642C00000000AE
:103DF000160000206169725F7175616C6974793AAF
:103E000025642C002000002074755F68753A2564D5
:103E10002C0000000000002074685F74656D3A2576
:103E2000642C00000100002074685F73693A256407
:103E30002C0000000300002066616E3A25642C000F
:103E400004000020736875693A2564007D00000055
:103E50002DE9F04790B0824600200C900D900E9016
:103E60000F900B900A90099008900026079000256B
:103E7000002481465046FFF741FC0646032E27D01A
:103E8000042E7CD00F2E7BD108AB0BAA0AA950467A
:103E9000FFF7EEFA0546D5B9BDF82000009075A1F0
:103EA0007D48DDE90A2300F05BFD0CAADDE90A018B
:103EB000FEF754FF58B979A1774800F051FD0D9AEB
:103EC00091B20C98FEF7AAFC0CA8FEF7F5FE9DE057
:103ED000784807A908AA0BABCDE90021029009AAEE
:103EE0000AA95046FFF71AFB0546002D7ED1BDF802
:103EF00020000B99CDE90010BDF824306EA1664872
:103F00000A9A00F02DFD0B9800F052FE074627B9E3
:103F100078A1614800F024FD38E07EA1384600F029
:103F200027FED0F81480B8F1000F05D001207A499F
:103F3000087002F061F904E000207749087002F08F
:103F40004DF976A1384600F013FED0F81480B8F190
:103F5000000F05D001207349087002F093F904E0C6
:103F600000207049087002F07FF96FA1384600F018
:103F7000FFFD007D6E4908706EA1384601E039E012
:103F800041E000F0F5FD007D6C490870384600F016
:103F9000C3FD9DF81C00012802D0022827D112E0A1
:103FA0000CA944480088FFF74BF958B964A13A4876
:103FB00000F0D6FC0D9A91B20C98FEF72FFC0CA8DD
:103FC000FEF77AFE14E00CA93A480088FFF75CF986
:103FD00058B961A1304800F0C3FC0D9A91B20C9819
:103FE000FEF71CFC0CA8FEF767FE01E001E000BF35
:103FF00000BF0BE05046FFF771FB18B95CA12648E3
:1040000000F0AEFC02E04FF0FF3500BF00BFFEF74E
:10401000B7FA681C10B910B0BDE8F0877D210B9885
:10402000FCF7ADFB0446C4B1681CB0B1641C06E0EB
:1040300014F8012B484609F1010904A90A54207813
:10404000302802DB20783928F2DD002004A901F8AD
:10405000090004A8FCF786FB81460F2E01D0032E31
:1040600005D10A98FCF77FF90B98FCF77CF900BFA3
:10407000D1E70000636D6469643A2025732C2072D7
:1040800065713A2025732C207265715F6C656E3AFC
:104090002025640D0A000000003801405469707347
:1040A0003A0953656E6420436D64526573700D0A5E
:1040B00000000000D4090020746F7069633A202565
:1040C000732C20746F7069635F6C656E3A20256491
:1040D0002C207061796C6F61643A2025732C2070FC
:1040E00061796C6F61645F6C656E3A2025640D0ABE
:1040F000000000006A736F6E207061636B20696E50
:10410000746F20636A736F6E206572726F722E2EE9
:104110002E0D0A0066616E00030000207368756949
:10412000000000000400002074685F74656D0000EA
:104130000000002074685F73690000000100002027
:10414000546970733A0953656E64205075626C69E6
:10415000736841636B0D0A00546970733A095365C3
:104160006E64205075626C6973685265630D0A0055
:10417000546970733A094D515454205075626C69FA
:1041800073682053656E64204F4B0D0A00000000D9
:1041900030B5A5B0002021902290239024900024D7
:1041A00000251BA1224800F0DBFB802101A8FCF7C1
:1041B00023FC01A8FFF76AFD0446002C26D021A8A5
:1041C00003230022214600901AA0FFF781F8C8B906
:1041D00008E001A8415D229A501C22902198815448
:1041E000681C05B2A542F4DB229A91B22198FEF731
:1041F00015FB13A10E48229A00F0B2FB21A8FEF78E
:104200005BFD03E012A10A4800F0AAFB25B030BD17
:10421000546970733A094F6E654E65745F53656EED
:1042200064446174612D4D5154540D0A0000000026
:104230000038014031303634313333343930000006
:1042400053656E642025642042797465730D0A00FD
:104250005741524E3A094544505F4E657742756664
:10426000666572204661696C65640D0A0000000095
:1042700070B586B004460D460026002002900390DB
:104280000490059007E054F826200DA1124800F094
:1042900067FB701CC6B2AE42F5DB02A82B46224675
:1042A000022100901420FFF741F838B9039A91B227
:1042B0000298FEF7B3FA02A8FEF7FEFC06B070BD46
:1042C00053756273637269626520546F7069633AF3
:1042D0002025730D0A0000000038014070470000DF
:1042E00001460020034A506820F4404008435060D3
:1042F000704700000010024029B1064A526902438B
:10430000044B5A6104E0034A52698243014B5A61EB
:10431000704700000010024029B1064AD2690243EA
:10432000044BDA6104E0034AD2698243014BDA614B
:10433000704700000010024029B1064A126902438A
:10434000044B1A6104E0034A12698243014B1A616B
:10435000704700000010024029B1064A92690243EA
:10436000044B9A6104E0034A92698243014B9A61CB
:10437000704700000010024030B5002100220024E8
:1043800000232D4D6D6805F00C0121B1042905D0E5
:10439000082923D105E0294D056022E0274D05605D
:1043A0001FE0254D6D6805F47012234D6D6805F40E
:1043B0008034022505EB92421CB9214D554305601E
:1043C0000BE01D4D6D6805F400351DB11C4D5543C6
:1043D000056002E0194D5543056002E0174D056088
:1043E00000BF00BF144D6D6805F0F0010909154DBF
:1043F0006B5C0568DD4045600F4D6D6805F4E0615C
:10440000090A104D6B5C4568DD4085600A4D6D689A
:1044100005F46051C90A0B4D6B5C4568DD40C56011
:10442000054D6D6805F44041890B074D6B5CC5680F
:10443000B5FBF3F5056130BD0010024000127A00B3
:1044400000093D00BC090020CC090020704710B5D0
:1044500000F002F810BD00000CB5002001900090A3
:104460003348006840F480303149086000BF30486C
:10447000006800F4003000900198401C0190009802
:1044800018B90198B0F5A06FF1D12948006800F47F
:10449000003010B10120009001E000200090009851
:1044A000012843D12348006840F0100021490860EA
:1044B0000846006820F0030008600846006840F0E5
:1044C000020008601A484068194948600846406878
:1044D00048600846406840F480604860084640688C
:1044E00020F47C1048600846406840F4E8104860BA
:1044F0000846006840F08070086000BF0C48006803
:1045000000F000700028F9D00948406820F003004E
:10451000074948600846406840F00200486000BF14
:104520000348406800F00C000828F9D10CBD0000D9
:104530000010024000200240042808D14FF0E02182
:10454000096941F004014FF0E022116107E04FF0EA
:10455000E021096921F004014FF0E0221161704768
:104560007047000010B51348006840F00100114981
:10457000086008464068104908400E4948600846EF
:1045800000680E4908400B4908600846006820F49E
:10459000802008600846406820F4FE0048604FF420
:1045A0001F008860FFF753FF4FF000600449086068
:1045B00010BD0000001002400000FFF8FFFFF6FEF3
:1045C00008ED00E010B540F22551044800F058F81D
:1045D00018B12021014800F031F810BD0038014029
:1045E00010B540F22551114800F04AF8E8B11048E2
:1045F0000088802802D300200D4908800B48001D48
:104600000088C1B20A4802880088401C084B188004
:104610000848815418460088401E0649085C06492F
:1046200008802021014800F009F810BD0044004036
:10463000D00900205C0A00200438014001F4007217
:10464000B2F5007F00D100BFCA430280704721B19C
:10465000828942F40052828104E082894DF6FF7320
:104660001A408281704702460020B1F5007F00D1D8
:1046700000BF13880B400BB1012000E00020704701
:1046800070B50246002400230025002040F66A167B
:10469000B14200D100BFC1F3421501F01F03012652
:1046A00006FA03F3012D02D19689334006E0022D6C
:1046B00002D1168A334001E0968A33400C1201265B
:1046C00006FA04F41688344013B10CB1012000E05E
:1046D000002070BDF0B50346002400260025002010
:1046E00040F66A17B94200D100BF1846C1F3421420
:1046F00001F01F06012707FA06F5012C01D10C3045
:1047000004E0022C01D1103000E014301AB1076827
:104710002F43076002E00768AF430760F0BD000069
:104720002DE9F04786B005460E460024A24600BF9C
:10473000A1460027B08900B100BF2F462C8A4CF655
:10474000FF700440F08804432C82AC894EF6F310CD
:104750000440B08831890843718908430443AC811F
:10476000AC8A4FF6FF400440B0890443AC8201A8F4
:10477000FFF702FE1F48874202D1DDF810A001E0DA
:10478000DDF80CA0A88900F4004040B10AEBCA0093
:1047900000EB0A1031684900B0FBF1F807E00AEBC2
:1047A000CA0000EB0A1031688900B0FBF1F8642000
:1047B000B8FBF0F004012009642101FB1089A889ED
:1047C00000F4004040B1322000EBC900B0FBF1F032
:1047D00000F00700044308E0322000EB09106421D8
:1047E000B0FBF1F000F00F0004432C8106B0BDE8EF
:1047F000F087000000380140C1F308028280704752
:1048000000BFFEE710B586B0044601210420FFF783
:10481000A3FD01218803FFF79FFD18208DF81700E5
:104820004FF40070ADF8140003208DF8160005A9B0
:104830001E48FEF731F804208DF817000002ADF88D
:10484000140003208DF8160005A91848FEF724F877
:1048500001940020ADF810000C20ADF80E000020EF
:10486000ADF80C00ADF80A00ADF8080001A9104839
:10487000FFF756FF01210E48FFF7E9FE012240F243
:1048800025510B48FFF726FF25208DF80000012059
:104890008DF8030000208DF8010002208DF8020041
:1048A0006846FEF769FF06B010BD00000008014031
:1048B0000038014010B586B0044601210420FFF7FE
:1048C0004BFD01214804FFF727FD18208DF8170044
:1048D0000420ADF8140003208DF8160005A91E4829
:1048E000FDF7DAFF04208DF817000820ADF814005A
:1048F00003208DF8160005A91748FDF7CDFF019498
:104900000020ADF810000C20ADF80E000020ADF82E
:104910000C00ADF80A00ADF8080001A90F48FFF738
:10492000FFFE01210D48FFF792FE012240F22551C2
:104930000A48FFF7CFFE26208DF8000001208DF8F1
:10494000030000208DF801008DF802006846FEF794
:1049500013FF06B010BD00000008014000440040F5
:104960000FB430B5CBB0054601AC50A800904FF461
:10497000947101A8009B4F9AFBF72AFD002000903C
:104980000BE014F8011B2846FFF736FF00BF40215B
:104990002846FFF768FE0028F9D020780028F0D1DB
:1049A0004BB030BC5DF814FB2DE9F04107460C46D6
:1049B000154600260DE014F8011B3846FFF71CFFD2
:1049C00000BF40213846FFF74EFE0028F9D0701C8A
:1049D00086B2AE42EFDBBDE8F08110B50446214659
:1049E0000020FEF723F910BD10B5044621464020F3
:1049F000FEF71CF910BD490050EAC12018BF042081
:104A00004A0D18BF40F0010040F2FF72B2EB515F57
:104A100008BF40F00200012808BF052070472DE9BB
:104A2000F0414F1E00EBC7010446D1E900011546D5
:104A30001E4637F006020DD02A46334601F0DAFF53
:104A40007F1E04EBC703D3E9002301F0FBFC37F022
:104A50000602F1D1022F25D0042F13D0062F18BF44
:104A6000BDE8F0812A46334601F0C4FFD4E90A23A9
:104A700001F0E8FC2A46334601F0BCFFD4E90823E4
:104A800001F0E0FC2A46334601F0B4FFD4E90623E6
:104A900001F0D8FC2A46334601F0ACFFD4E90423E8
:104AA00001F0D0FC2A46334601F0A4FFD4E90223EA
:104AB00001F0C8FC2A46334601F09CFFD4E90023EC
:104AC000BDE8F04101F0BEBC00221346104601498A
:104AD00001F074BD0000F03F01F0B4BC00221346A9
:104AE0001046114601F06ABD40F2013200204FF03D
:104AF000E04102F052BB0000024A0020110702F020
:104B00004CBB000001FDFFFF30380A2801D2012014
:104B1000704700207047000070B5044622E0256809
:104B2000A08900F4807020B9A06810B1A068FFF7D8
:104B3000F3FFA08900F4807028B9206918B10B49EF
:104B4000206909688847A08900F4007028B9206AA4
:104B500018B10649206A0968884720460349096850
:104B600088472C46002CDAD170BD0000E0090020F7
:104B700070B505460E46AC6800E024682CB131469D
:104B8000206A00F04FF80028F7D1204670BD0000E1
:104B900010B5282005490968884704461CB128211A
:104BA0002046FBF729FF204610BD0000DC0900204D
:104BB00010B5044600221146204600F001F810BD51
:104BC0002DE9F04780460D4616460024FFF7E0FF2A
:104BD00007460020124908600FB9BDE8F08740463B
:104BE00001F0A3FB81464946384600F0ADFD04467E
:104BF00024B93846FFF790FF0020EEE766B1204663
:104C000001F093FB0446207830B13846FFF784FF6B
:104C1000034804600020E0E705B12C603846DCE77B
:104C2000D809002070B504460D462CB9AC4201D01D
:104C3000012070BD0020FCE70DB90120F9E705E077
:104C4000207808B90020F4E7641C6D1C2078FBF77D
:104C5000B1FB06462878FBF7ADFB8642F0D0207802
:104C6000FBF7A8FB06462878FBF7A4FB301AE0E721
:104C700010B56FF00400FFF75FFC0A4800680A49AE
:104C8000B0FBF1F0094908700846007800EB4001DC
:104C9000C1EBC0104FF6FF7101EAC0000449088063
:104CA00010BD00002400002000127A00B809002086
:104CB000BA0900200146114A12884A434FF0E02306
:104CC0005A6100229A611A46126942F001021A6181
:104CD00000BF4FF0E022106900F001021AB100F4A9
:104CE0008032002AF5D04FF0E022126922F0010252
:104CF0004FF0E0231A6100229A617047BA09002040
:104D00000146114A12784A434FF0E0235A610022CB
:104D10009A611A46126942F001021A6100BF4FF00F
:104D2000E022106900F001021AB100F48032002A7A
:104D3000F5D04FF0E022126922F001024FF0E0239B
:104D40001A6100229A617047B80900200EB500244C
:104D5000A146B648006802904FF4A060FEF744FDFB
:104D6000FFF786FF4FF4E130FFF74CFD4FF4E130E1
:104D7000FFF7A0FDFEF764FDFDF790FAFDF7B8F927
:104D8000FDF744FAFDF732FC03E04FF4FA70FFF749
:104D900091FFFEF767FE0028F7D1012102A8FFF777
:104DA00067FA01F037FA1420A14908701E20A149C2
:104DB000087001F075FA38E19F49A048FDF7C1FA83
:104DC000B8B99E4802789EA19E48FBF71BFB9A4803
:104DD00002789DA19E48FBF715FB0223994A00210A
:104DE0002020FEF7C9FD0223994A19462020FEF72C
:104DF000C3FD00209749088097490880974908809B
:104E00009749088027E0934801880088401C914A10
:104E10001080944830F811008F49098808448E4961
:104E20000880104601880088401C10808D4830F8AA
:104E300011008A4909880844884908801046018879
:104E40000088401C1080874830F811008449098888
:104E50000844834908807F4800881E28D3DB7E49A8
:104E600009880A2291FBF2F1C1F58051642201FB0D
:104E700002F0C11700EB1151C1F307317A4A1170EA
:104E8000764800880A2190FBF1FB584602F0EEF8C4
:104E9000824602F0BFF807464FF06632734B01F0CE
:104EA000A9FD054601F09CFA714908606C4800882C
:104EB0000A2190FBF1F0C0F580506E4908806C48E3
:104EC000006802F0A7F805466B4A6C4B01F056FDEE
:104ED0001CD26748006802F09DF80746684A694B93
:104EE00001F06CFB054601F0F1FC674908800846BB
:104EF000008801F02FFD0746644A654B01F07AFDFA
:104F0000054601F0E3FC634908701CE0584800685E
:104F100002F080F80546584A584B01F091FF0746C9
:104F20005D4A5E4B01F04AFB824600225C4B01F079
:104F300061FDCDE9000101F0C9FC56490870084641
:104F40000078093008704848027856A15748FBF7A6
:104F500059FA434800880A2190FBF1F0C0F58055CA
:104F60002A4650A15248FBF74DFA4A48027851A10F
:104F70005248FBF747FA02234C4A04212020FEF74F
:104F8000FBFC02234A4A04216020FEF7F5FC0223C1
:104F90004A4A06214020FEF7EFFC00202E490880F7
:104FA0002E4908802E490880244800782149097834
:104FB000884205DD01F020F901204149087004E034
:104FC00001F00CF900203E4908702A480088184971
:104FD0000978884205DD01F055F90120394908704A
:104FE00004E001F041F9002036490870601C84B2E9
:104FF000322C04DB0024FFF7CBF8FDF7C1FA0020C8
:10500000FDF7CCFA8146B9F1000F0ED009480278BD
:105010002DA13148FFF7A4FC054802782FA12E48A6
:10502000FFF79EFC4846FEF713FFC5E6287200080E
:1050300001000020000000200500002002000020E8
:105040003A256400200A00203A25642525524800AC
:105050002A0A00201E000020060000200800002070
:105060000A000020E40900201400002066664A3F80
:105070001800002020000020CDCCCCCCCCCCEC3FC4
:10508000FCA9F1D24D62503F0C000020FA7E6ABCB0
:105090007493883F160000209A9999999999B93F7D
:1050A000000059403A25642525000000340A0020FC
:1050B0003E0A00203A25642020200000480A0020F3
:1050C000030000200400002074685F74656D203DBB
:1050D0002025640D0A0000000038014074685F73E9
:1050E00069203D202564200D0A0000002DE9F047CD
:1050F00005460C4620785B2804D026480460002032
:10510000BDE8F0870520E860601C01F00EF9044658
:1051100020785D2801D1601CF2E7FFF739FD0646D3
:10512000A860A86808B90020EAE7204601F0FDF869
:1051300080464146304600F007FB074601F0F5F88F
:1051400004460CB90020DBE717E0FFF721FD071E3E
:1051500000D1D5E737607E603E46601C01F0E5F87F
:1051600081464946304600F0EFFA804601F0DDF80E
:1051700004460CB90020C3E700BF20782C28E4D0F7
:1051800020785D2801D1601CBAE702480460002045
:10519000B6E70000D8090020014600220878302830
:1051A00006DB0878392803DC08783038024415E03B
:1051B0000878412806DB0878462803DC0878373869
:1051C00002440BE00878612806DB0878662803DCD7
:1051D00008785738024401E0002070471201491C4A
:1051E0000878302806DB0878392803DC087830385E
:1051F000024415E00878412806DB0878462803DCDD
:105200000878373802440BE00878612806DB087814
:10521000662803DC08785738024401E00020DCE708
:105220001201491C0878302806DB0878392803DC8D
:1052300008783038024415E00878412806DB087801
:10524000462803DC0878373802440BE008786128E8
:1052500006DB0878662803DC08785738024401E04A
:105260000020BAE71201491C0878302806DB0878CC
:10527000392803DC08783038024415E008784128E2
:1052800006DB0878462803DC0878373802440BE050
:105290000878612806DB0878662803DC0878573828
:1052A000024401E0002098E7104696E72DE9F04F10
:1052B0008BB083468A460020044605460026674F89
:1052C0000021884689460990012008909AF800003C
:1052D0002D2802D1624F0AF1010A9AF80000302805
:1052E00001D10AF1010A9AF80000312822DB9AF86C
:1052F000000039281EDC00BF1AF8011BA1F13000A4
:1053000001F011FB0022574BCDE90601204629464A
:1053100001F070FBCDE90401DDE9062301F092F80C
:1053200004460D469AF80000302803DB9AF8000086
:105330003928E1DD9AF800002E2830D19AF80100D2
:1053400030282CDB9AF80100392828DC0AF1010A00
:1053500000BF1AF8011BA1F1300001F0E4FA0022AD
:10536000404BCDE906012046294601F043FBCDE93B
:105370000401DDE9062301F065F804460D4600222C
:10538000364B4046494601F05BFD804689469AF817
:105390000000302803DB9AF800003928D9DD9AF89C
:1053A0000000652803D09AF80000452823D10AF1AF
:1053B000010A9AF800002B2802D10AF1010A08E03C
:1053C0009AF800002D2804D14FF0FF3008900AF120
:1053D000010A08E01AF8010B3038099901EB810144
:1053E00000EB410009909AF80000302803DB9AF89E
:1053F00000003928EEDDDDE9082101FB02F001F0B3
:1054000092FA42464B46CDE9000101F01BF80246F4
:105410000B46CDE902010020124900F0F3F92246C3
:105420002B46CDE906013046394601F0E3FACDE9D5
:105430000401DDE9062301F0DDFA04460D46CBE95F
:1054400006452046294601F011FACBF81400032046
:10545000CBF80C0050460BB0BDE8F08F0000F03FD9
:105460000000F0BF000024402DE9F04706460C463E
:1054700020787B2804D0404804600020BDE8F087F5
:105480000620F060601C00F050FF044620787D2864
:1054900001D1601CF2E7FFF77BFB0546B060B06806
:1054A00008B90020EAE7204600F03FFF8046414669
:1054B000284600F063F8074600F037FF04460CB9B1
:1054C0000020DBE7286928620020286120783A283C
:1054D00003D0294804600020D0E7601C00F025FFBD
:1054E00080464146284600F02FF9074600F01DFF90
:1054F00004460CB90020C1E731E0FFF749FB071E65
:1055000000D1BBE72F607D603D46601C00F00DFFC1
:1055100081464946284600F031F8804600F005FFF4
:1055200004460CB90020A9E72869286200202861F8
:1055300020783A2803D01048046000209EE7601CC1
:1055400000F0F3FE81464946284600F0FDF880460B
:1055500000F0EBFE04460CB900208FE700BF207876
:105560002C28CAD020787D2801D1601C86E702480B
:105570000460002082E70000D80900202DE9F05FD8
:105580008346884608F10104002798F80000222885
:1055900005D06A48C0F800800020BDE8F09F04E014
:1055A00014F8011B5C2900D1641C2078222804D047
:1055B000207810B1781C071EF2D1781C6049096868
:1055C00088478146B9F1000F01D10020E5E708F1D5
:1055D00001044D469EE020785C2804D014F8010BAD
:1055E00005F8010B96E0641C2078722818D006DCC0
:1055F000622809D066280BD06E287DD10CE0742873
:1056000012D07528F9D113E0082005F8010B7FE0CE
:105610000C2005F8010B7BE00A2005F8010B77E070
:105620000D2005F8010B73E0092005F8010B6FE070
:10563000601CFFF7B1FD0646241DB6F55C4F02D392
:10564000B6F5604F00D306B962E0B6F5584F1CD3EB
:10565000B6F55C4F19D260785C2802D1A078752825
:1056600000D055E0E01CFFF797FD8246A41DBAF577
:105670005C4F02D3BAF5604F00D349E0C6F309018D
:10568000504661F39F2000F580360427802E01D21A
:10569000012708E0B6F5006F01D2022703E0B6F556
:1056A000803F00D203273D44012F20D0022F15D088
:1056B000032F0AD0042F24D106F0BF0040F0800150
:1056C000681E05460170B60900BF06F0BF0040F035
:1056D0008001681E05460170B60900BF06F0BF00D4
:1056E00040F08001681E05460170B60900BF1548EC
:1056F000C05D3043C1B200E006E0681E054601709F
:1057000000BF00BF3D4403E0207805F8010B00BF57
:1057100000BF641C2078222803D0207800287FF462
:105720005AAF002028702078222800D1641CCBF8C2
:1057300010900420CBF80C0020462EE7D80900205A
:10574000DC0900202AAF000870B505460C460CB9EC
:10575000002070BD042224A12046FBF75DF818B993
:105760000220E860201DF4E7052221A12046FBF776
:1057700053F818B90020E860601DEAE704221EA172
:105780002046FBF749F820B90120E8606861201D38
:10579000DFE72078222804D121462846FFF7EEFED5
:1057A000D7E720782D2805D02078302807DB20780F
:1057B000392804DC21462846FFF778FDC9E7207820
:1057C0005B2804D121462846FFF790FCC1E72078EA
:1057D0007B2804D121462846FFF746FEB9E7084852
:1057E00004600020B5E700006E756C6C00000000DE
:1057F00066616C73650000007472756500000000DE
:10580000D80900202DE9F04D1D460C4698B01746EA
:1058100021F0004123F00043002814BF4FF0010C99
:105820004FF0000C0CEB440CFE4A0CEB02064FEA66
:10583000620C66452BD33E0018BF012606EB4506D9
:105840001644F94A964222D3F84A53EA070C02D08A
:10585000944205D148B918B000201146BDE8F08D3A
:10586000002808BF4FF0000C01D04FF0010C0CEBEA
:10587000440212F5001F0AD8002F14BF4FF0010C8C
:105880004FF0000C0CEB450212F5001F07D918B0C1
:105890003A462B462146BDE8F04DFFF71DB90022E0
:1058A000DFF88CA3002CB8BF534526DADFF884C399
:1058B0006345A8BF022220DADFF870C39C451CDCD8
:1058C000DFF874C30CEB235CBCF1140F08DDCCF1E2
:1058D000340627FA06FC0CFA06F6BE420DD108E0A3
:1058E0005FB9CCF1140623FA06FC0CFA06F69E42C8
:1058F00003D10CF00102C2F1020251EA000C19D1ED
:10590000002D17DA002C18BF022A01D0012A07D077
:105910000220FBF7FEF818B0BDE8F04DFFF7D4B851
:105920000220FBF7F6F8FFF7CFF818B081F000413E
:10593000BDE8F08DB7F1000C6CD1534525D104F1D1
:10594000804212F5801201BF00280020B74918B02C
:1059500008BFBDE8F08DB548884207DC002DA1BF27
:105960006046294618B0BDE8F08D07E0281E05DA2C
:1059700080F0004118B06046BDE8F08DAF49794431
:10598000D1E9000118B0BDE8F08DDFF8A0C2634591
:1059900025D1002D1FDA19B1514512D1D8B909E02E
:1059A000002840F0EC82A24A214618B062F31E01A2
:1059B000BDE8F08D0020214618B060F31E01BDE85F
:1059C000F08D08DA18B02346BDE8F04D02460020FD
:1059D000614600F0F3BD18B02146BDE8F08D514599
:1059E00018DAB5F1804F0DD0A5F1005CBCF1FF5C79
:1059F00010D1B4F1000C0DDB18B06146BDE8F04DDC
:105A000000F09CBC234618B00246BDE8F04D194694
:105A100000F0F0BF060024F0004C3BD1D9B1514555
:105A200033D1002C06DD002DA1BF0020514618B057
:105A3000BDE8F08D002C01DD002D1BDB002C13DAFE
:105A4000002D11DB012A4FF0000014BF78497C497A
:105A500018B0BDE8F08D022A18BF002C0AD0012A28
:105A600008D1002C06DA0AE0002CB8BF002D11DAAC
:105A7000012A04D0002018B00146BDE8F08D18B00E
:105A800000204FF00041BDE8F08DA1F14050B0F191
:105A90007F601AD0012000EBE47050EA020421D0AC
:105AA000624C521E4FF0000B104304BF4FF0000B2E
:105AB000644C654883427CDD644A654893421FDD3F
:105AC000884217DB002D25DB37E0002C00DA4AB1D5
:105AD000022A0CBF01204FF0FF3018B0BDE8F04D96
