:020000040800F2
:1000000000FD0120C1010008DB7C0008293E00083A
:10001000D97C0008C90E00086991000800000000A2
:10002000000000000000000000000000718A0008CD
:100030006511000800000000758700088D8A00081F
:10004000DB010008DB010008DB010008DB01000820
:10005000DB010008DB01000885140008DB01000853
:100060009314000899140008DB010008DB01000864
:10007000A9100008DB010008DB010008DB01000813
:10008000DB010008DB010008DB010008DB010008E0
:10009000DB010008DB010008DB010008DB010008D0
:1000A000DB010008458B0008DB010008DB010008CC
:1000B000DB010008DB010008DB010008DB010008B0
:1000C000DB010008DB010008DB010008DB010008A0
:1000D000DB010008DB010008DB0100088590000857
:1000E0008B140008DB010008DB010008DB010008BD
:1000F000DB010008DB010008DB010008DB01000870
:10010000DB010008DB010008DB010008DB0100085F
:10011000DB010008DB010008DB010008DB0100084F
:10012000B5100008DB010008DB010008DB01000856
:10013000DB010008DB010008DB010008DB0100082F
:10014000DB010008DB010008DB010008DB0100081F
:10015000DB010008DB010008DB010008DB0100080F
:10016000DB010008DB010008DB010008DB010008FF
:10017000DB010008DB010008DB01000800000000D3
:10018000DB010008DB010008DB010008DB010008DF
:10019000DB010008DB010008DB010008DB010008CF
:1001A000DB010008DB010008DB010008DFF80CD0F0
:1001B00000F04EFC00480047B9AD000800FD0120EA
:1001C0000648804706480047FEE7FEE7FEE7FEE7F1
:1001D000FEE7FEE7FEE7FEE7FEE7FEE7358B0008F9
:1001E000AD0100082DE9F05F0546002092469B46D0
:1001F00088460646814640241BE02846414647463D
:10020000224600F008FB53465A46C01A914110D3CB
:1002100011461846224600F0EFFA2D1A67EB010846
:100220004F4622460120002100F0E6FA17EB0009B4
:100230004E41201EA4F10104DFDC484631462A4627
:100240004346BDE8F09FA0F14101192900D82030B4
:10025000704740EA01039B0703D009E008C9121F59
:1002600008C0042AFAD203E011F8013B00F8013B70
:10027000521EF9D27047D2B201E000F8012B491E9C
:10028000FBD270470022F6E710B513460A46044633
:100290001946FFF7F0FF204610BD30B505462A4647
:1002A0000B4612F8010B13F8014B08B1A042F8D02D
:1002B0001CB1002802D06D1CF1E7284630BDCAB23F
:1002C000401E10F8011F8A4202D00029F9D10020F7
:1002D0007047421C10F8011B0029FBD1801A70479F
:1002E00010B5044600E0401C0378002BFBD100E071
:1002F000401C521E04D311F8013B0370002BF7D1B0
:1003000000210170204610BD034611F8012B00F8B2
:10031000012B002AF9D11846704730B50546002058
:10032000034600E05B1C934205D2EC5CC85C201ADB
:1003300001D1002CF6D130BD70B5064608F09AFF09
:10034000046805460A220021304600F086FA2C6037
:1003500070BD2DE9FE4F804681EA0300C00F0C46B8
:10036000009021F0004123F00045B8EB0200A941C4
:1003700005D24046214690461C460B46024623F0D5
:100380000040104347D0270DC7F30A00C3F30A51BA
:100390000290401A019040286BDAC3F3130040F436
:1003A000801B0098924620B10023D2EB030A63EB36
:1003B0000B0B01985946C0F14002504600F01CFA60
:1003C00006460D4650465946019A00F034FA10EBA5
:1003D00008006141002487EA115284EAE7731A4356
:1003E00040D0009A62B3019A012A4FEA075215DC05
:1003F000001B61EB02014FF0004202EA0752CDE917
:100400000042001C41F5801132462B4600F0A3FA51
:1004100003B0BDE8F08F40462146F9E7001B61EBD1
:100420000201001C41F5801300185B412018A2F561
:10043000001747EB030140EAD570B6196D4111E092
:100440006D084FEA360645EAC0754FEA0752001BB1
:1004500061EB0201001C41F5801149084FEA3000B0
:100460000019514132462B4603B0BDE8F04F00F071
:1004700063BA0098012240000023D0EB020263EB34
:10048000E073009821464FEAE074B8EB000061EB9E
:100490000401E9E783F000435BE781F0004158E79E
:1004A0002DE9FE4F81EA030404F0004421F00041ED
:1004B00000944FF0000B23F0004350EA01045ED09B
:1004C00052EA03045BD0C3F30A54C1F30A552C4427
:1004D000A4F2F3340194A0FB0254C1F3130141F4DC
:1004E0008011C3F3130343F4801301FB024400FBA8
:1004F000034E840A970A44EA815447EA8357A4FBCF
:10050000076802958D0A05FB07854FEA932C04FBCB
:100510000C542705029D4FEA065847EA1637B5EBFB
:1005200008056EEB070C870E920E47EA811742EA28
:100530008312A7FB0201B6EB0B0164EB00042B0D49
:1005400043EA0C335E1844EB1C50DA465146E7FB95
:100550000201C5F313044FEA0B3343EA14534FEA85
:100560000432019C43EA0603A4F10C040294009CAB
:10057000CDE900B400F0EFF903B0BDE8F08F002042
:100580000146F9E72DE9F04D81EA030404F0004B40
:1005900021F0004514464FF0000A23F0004150EAD4
:1005A000050220D054EA01021DD0C5F30A570246C5
:1005B000C5F31303C1F31300C1F30A5640F48015C9
:1005C00043F48013A7EB0608101BD64608F2FD384B
:1005D00073EB050002D308F1010801E092185B41BA
:1005E000B8F1000F03DA00200146BDE8F08D0020CD
:1005F0004FF48011064684460EE0171B73EB050787
:1006000005D3121B63EB050306434CEA010C4908B2
:100610004FEA300092185B4150EA0107EDD152EAEF
:10062000030012D082EA040083EA0501084305D0E2
:10063000101BAB4106D20122002306E000224FF03E
:10064000004302E06FF0010253101AEB06004CEB7E
:10065000085110EB0A0041EB0B01BDE8F04D00F032
:100660006BB90EB5C10F80EAE0700844CA070021DB
:1006700040F233438DE80E000A460B4600F06BF95A
:1006800003B000BD0EB540F2334102910021CDE927
:1006900000110A460B4600F05EF903B000BD70B5CC
:1006A000C1F30A5201F000450024C1F3130140F2E6
:1006B000FF3341F480119A4201DA002070BD40F20C
:1006C00033439A42A2F2334203DC524200F0A3F8D1
:1006D00000E090402C43F1D0404270BDC1F30A527B
:1006E00010B5C1F3130140F2FF3341F480119A4277
:1006F00001DA002010BD40F233439A42A2F23342A5
:1007000003DC524200F087F810BD904010BD00F0AD
:10071000004230F000400AD0C10D01F56071C0F315
:10072000160042EA0151C2084007114370470020F9
:100730000146704730B5041E71F1000404DB4FF030
:100740000044404264EB0101141E73F1000405DB18
:100750001C464FF00043524263EB04038B4208BF38
:10076000824230BD30B5041E71F1000404DB4FF04D
:100770000044404264EB0101141E73F1000405DBE8
:100780001C464FF00043524263EB0403994208BFFA
:10079000904230BD01F0004330B421F0004150EAF6
:1007A000010206D00A0DA2F56072C1F31301002AFE
:1007B00002DC30BC00207047440F44EAC104C10091
:1007C000E01830BC00EBC25000F07FB830B50B46EB
:1007D000014600202022012409E021FA02F59D4271
:1007E00005D303FA02F5491B04FA02F52844151E45
:1007F000A2F10102F1DC30BD202A04DB203A00FA2C
:1008000002F1002070479140C2F1200320FA03F367
:10081000194390407047202A04DB203A21FA02F065
:100820000021704721FA02F3D040C2F1200291402A
:10083000084319467047202A06DBCB17203A41FAB5
:1008400002F043EAE07306E041FA02F3D040C2F15D
:10085000200291400843194670472DE9F047914620
:100860000F4680460446002614F8015B2DB100F0C7
:1008700001F90068405DC007F6D12B2D02D02D2D67
:1008800018D0641E4A463946204600F0F7F827B1D2
:100890003968A14201D1C7F8008071054FF0020408
:1008A0000BD54042002803DD08F0E4FC0460A007FB
:1008B000BDE8F08746F48066E4E70028F8DA08F03F
:1008C000D9FC04606FF00040F2E70029A8BF704730
:1008D000401C490008BF20F00100704710B4B0FA76
:1008E00080FC00FA0CF050EA010404BF10BC704711
:1008F00049B1CCF1200421FA04F411FA0CF118BF2B
:10090000012121430843A3EB0C01CB1D4FEA0061F9
:100910004FEA102042BF002010BC704700EBC350CC
:1009200010440029A4BF10BC7047401C490008BFF8
:1009300020F0010010BC704710B5141E73F10004C4
:1009400008DA401C41F1000192185B411A4301D1C1
:1009500020F0010010BD2DE9F04D92469B4611B1EB
:10096000B1FA81F202E0B0FA80F220329046FFF74D
:1009700043FF04460F4640EA0A0041EA0B01534692
:100980005A46084313D0114653EA010019D0C8F162
:1009900040025046FFF73FFF05460E465046594677
:1009A0004246FFF729FF084305D0012004E0204616
:1009B0003946BDE8F08D0020054346EAE0762C4339
:1009C00037430A986305E40AA0EB08000022FD0AF9
:1009D00044EA47540A3002D500200146E9E7010500
:1009E00010196941DDE9084500196941BDE8F04D7C
:1009F000A2E770B521F0004303430CD0C1F30A55C0
:100A00000024D5EB040564EB0403D617AD1AB341FB
:100A100002DB0020014670BD201841EB025170BD81
:100A2000C1F30A52C1F3130140F2FF3341F48011C4
:100A30009A4202DA00200146704740F233439A425C
:100A4000A2F2334202DC5242FFF7E5BEFFF7D4BE0A
:100A5000064C074D06E0E06840F0010394E807000B
:100A600098471034AC42F6D3FFF7A4FBFC0F010803
:100A70001C10010800487047F40F01082DE9F05FD1
:100A800082460078002715468B460AF10104B946D4
:100A9000302801D09DB113E014F8010B012778280C
:100AA00003D0582801D045B10AE00DB1102D07D16F
:100AB0000027102514F8010B02E0082500E00A25A4
:100AC0000026B0460EE005FB080005FB06F10127F5
:100AD00001EB10461FFA80F8B6F5803F00D3B94607
:100AE00014F8010B294600F069F80028EBDABBF195
:100AF000000F05D00FB1641E00E05446CBF8004053
:100B0000B9F1000F06D008F0B5FB02210160C81E44
:100B1000BDE8F09F48EA0640FAE72DE9F04D0023D2
:100B20001A461B1A8A4103DB00200146BDE8F08DFE
:100B3000C1F30A52C1F3130141F480154FF0000BC9
:100B4000D10702D100186D41521E0027044640F221
:100B5000FF11384601EB620A3E46804602460020FD
:100B60004FF48011FFF757FEC2197141BB1846EBD5
:100B70000100B4EB030C75EB000C04D3E41A65EB35
:100B8000000517460E46241908F101006D41804604
:100B90003428E3DDF91946EB0600091BA84103D20E
:100BA0004FF0FF32134601E0002213461BEB070013
:100BB00046EB0A51BDE8F04DFFF7BEBE3A2800D221
:100BC000303820F02002412A01D3A2F137008842B8
:100BD00001D34FF0FF30704710B50146806B026CB7
:100BE00012F0500F05D0026CD20626D500F054FE4C
:100BF00010BD016C41F40071016401688A6812F053
:100C0000405F17D1027EAAB9CA6A12F4700F02D0EF
:100C10008A6852050ED44A6822F020024A60016CAC
:100C200021F480710164016CC90403D4016C41F0AA
:100C30000101016400F02EFE10BD806BC26CBDE8A6
:100C400010400846104710B5806B40210164416C8C
:100C500041F00401416400F01FFE10BD10B5806B2F
:100C600000F019FE10BD0000464910B54A6822F494
:100C700040324A604A6843681A434A6001684A68D9
:100C800022F480724A6001684A68036942EA0322DA
:100C90004A6001684A6822F040724A6001684A6806
:100CA00083681A434A6001688A6822F400628A6095
:100CB00001688A68C3681A438A60816A6FF070624B
:100CC000D14201688A6822F070628A6001688A688D
:100CD0000CD0836A1A438A6001688A6822F0405205
:100CE0008A6001688A68C36A1A4301E022F04052B0
:100CF0008A6001688A6822F002028A6001688A6854
:100D0000037E42EA43028A6090F8201000290168BD
:100D10004A680FD042F400624A6001684A6822F4CF
:100D200060424A6001684A68174C436A04EB4333E7
:100D30001A4301E022F400624A600168CA6A22F4A0
:100D40007002CA620168CA6A838B104C04EB0353B9
:100D50001A43CA6201688A6822F400728A600168D4
:100D60008A6890F8303042EA43228A6001688A68D3
:100D700022F480628A6001688A68406942EA8020C1
:100D8000886010BD0023014000E0FFFF0000F0FF7D
:100D900008B54FF0FF30002300901A46A021074805
:100DA00001F01EFC20B106A008F018FA012008BDD1
:100DB00008A008F013FA002008BD0000F00400208D
:100DC0004154323443303220B2BBB4E6D4DA0D0A97
:100DD000000000004154323443303220B4E6D4DA0B
:100DE0000D0A00000EB5FF238DE80E000246012318
:100DF000A121044801F08AFC002801D04FF0FF3007
:100E00000EBD0000F00400202DE9FE4F074615003E
:100E10000E464FF0FF3B4DD007F00700C0F108042D
:100E2000FF20A5420BDC0091CDE9012001233A46C9
:100E3000A021244801F066FDE0BB0A203EE0CDE998
:100E400000648146029001233A46A0211D4801F02A
:100E500059FD78BB381900F0FF08281B85B23444CF
:100E6000052001F009F8EF0800264FF0080A15E008
:100E7000CDE9004A01234246A0211248CDF808904E
:100E800001F040FDB0B9052000F0F6FF083D08F183
:100E90000800083400F0FF08ADB2761CBE42E7DB64
:100EA00075B18DE8300201234246A021054801F0CA
:100EB00029FD10B15846BDE8FE8F052000F0DCFF8B
:100EC0000020F8E7F0040020FEE770B50C46054668
:100ED00007F0AEFC20EA04012846BDE8704008F0A7
:100EE00059B9000070B516480024016821F08051FE
:100EF0000160016821F000510160124D04E0641CA2
:100F0000E4B2012009F0C8FED5F8380210B1642C13
:100F1000F5D30DE0642C0BD2002404E0641CE4B291
:100F2000012009F0B9FED5F8380218B1642C04D3B9
:100F3000012070BD642CF1D3FAE7002070BD0000E1
:100F4000001802400000434210B500F08FF8BDE8E1
:100F50001040FFF7C7BF000070B50024104D04E03B
:100F6000641CE4B2012009F097FED5F8380208B1FC
:100F7000642CF5D3002404E0641CE4B2012009F0E1
:100F80008BFED5F8380208B9642CF5D3282009F077
:100F900083FED5F83802002800D0012070BD000083
:100FA0000000434270B5002004464006050EFFF7DE
:100FB000D3FF641C2843E4B2082CF6D370BD0000B4
:100FC000F0B50D462DED048B83B0064600F04EF8CB
:100FD000FFF788FF20B1012003B0BDEC048BF0BD0A
:100FE00000246F46FFF7DEFF3855641CE4B2052C81
:100FF000F8D39DF800109DF801009DF802209DF89F
:10100000033001441A4411449DF80420914227D131
:10101000FFF738FB9FED139B53EC192BFFF7B2FA48
:1010200041EC180B9DF80000FFF72CFB53EC182B3C
:10103000FFF78FF9C6E900019DF80300FFF722FBD7
:1010400053EC192BFFF79EFA41EC180B9DF80200A8
:10105000FFF718FB53EC182BFFF77BF9C5E90001EC
:101060000020B9E700000000000024400C4810B543
:10107000016821F040510160016841F08051016038
:10108000084C0020C4F8B802142004F52E7400F0B7
:10109000F3FE01202060BDE810401E2009F0FCBDD9
:1010A0000018024000004342014800F073BD0000F8
:1010B00078060020014800F06DBD00000C040020FF
:1010C00001681823CAB2103AB2FBF3F2054B6FF372
:1010D0000901032A9B5CC36500D9091D8165084687
:1010E0007047000034C7000810B5014600208B6926
:1010F0008A6A4FF0C07453B1B3F5005F15D072B176
:10110000012A0CD0022A0AD0032A09D104E01AB11C
:10111000012A06D0022A03D1C96AC90100D50120DB
:1011200010BDC96AA142FAD010BD002AF7D0012A29
:10113000F2D0022AF3D0032AF3D010BD30B50468F0
:10114000256825F480252560046863608368402B4A
:10115000036803D099600068C26030BD9A6000687F
:10116000C16030BD7047000010B54FF48061034886
:10117000FFF788F802490020088010BDD80600203B
:101180007200002010B5044609A10B48FFF785F84E
:1011900030B13A21FFF793F8002800D0401C10BD71
:1011A000052000F069FE2046641EA4B2ECD210BDFA
:1011B0004950442C00000000D806002010B5FFF76D
:1011C000D3FF4FF4FA7402E0204600F055FE23A14D
:1011D00023A000F09FF80028F6D102E0204600F09E
:1011E0004BFE1EA120A000F095F80028F6D102E0E9
:1011F000204600F041FE19A11BA000F08BF800284A
:10120000F6D102E0204600F037FE14A11AA000F04B
:1012100081F80028F6D102E0204600F02DFE1AA148
:101220001BA000F077F80028F6D102E0204600F07D
:1012300023FE0AA120A000F06DF80028F6D102E0FC
:10124000204600F019FE20A121A000F063F800283C
:10125000F6D1BDE8104029A007F0C0BF4F4B0000F9
:1012600041540D0A0000000041542B43574D4F4498
:10127000453D310D0A00000041542B43574448437B
:10128000503D312C310D0A00474F54204950000089
:1012900041542B43574A41503D226D795F636F6D36
:1012A0007075746572222C223239363034393334F9
:1012B0003235220D0A00000041542B4349504D5550
:1012C000583D300D0A000000434F4E4E4543540038
:1012D00041542B43495053544152543D225443509E
:1012E000222C223139322E3136382E3133372E31FD
:1012F000222C313838330D0A00000000372E2045EB
:1013000053503832363620496E6974204F4B0D0ADF
:101310000000000070B505461D480E461D4C0178C2
:1013200029B1022906D0002003290AD003E029466A
:1013300019A00CE00120002108430AD0207810B148
:1013400007E00121F8E701202070294615A007F0E9
:1013500045FF2846FEF7BDFF82B22946164807F032
:1013600005FFC72531461548FEF797FF38B1FFF74F
:10137000FBFE207808B100202070002070BD0A20FC
:1013800000F07AFD6D1EEDB2ECD2012070BD0000C0
:101390000000002038000020C5E4D6C325730D0AE4
:1013A00000000000B5C8B4FDD6D8D0C2C5E4D6C38D
:1013B00025730D0A0000000000480040D8060020F8
:1013C00030B589B00C460546FFF7CEFE224613A184
:1013D000684607F013FF694614A007F0FFFE16A148
:1013E0006846FFF797FF78B1144C2078012809D19F
:1013F00013A007F0F3FEFFF7B7FE0220207016A03F
:1014000007F0ECFE09B030BD29461AA007F0E6FE51
:10141000224629461A4807F0A9FEF3E741542B4318
:10142000495053454E443D25640D0A00636D6442A6
:1014300075663D25730D0A003E0000000000002087
:1014400077696669B6CFBFAAC1ACBDD32CD7BCB192
:10145000B8D6D8C1AC0D0A00BDF8C8EB6E65745F94
:10146000636F6E6E656374203D32C4A3CABD0D0AFE
:101470000000000064617461203D2025730D0A00A6
:1014800000480040012000F07DBD4FF4005000F006
:1014900079BD042000F076BD082000F073BD72B65F
:1014A000FEE7000030B5B3F5804F05D06FF0704116
:1014B00040F82210002030BD8C690B688D682343F2
:1014C0004C688989240144EA0524234343EA014105
:1014D00050F82230014C23401943E9E70000F0CFD7
:1014E00030B50A6850F8223023F0010340F822306A
:1014F0008C68082C28D000234A68184D2243CC68F9
:101500001C430B6922431A434B691A43CB691A43A4
:101510000B6A1A434B6A1A438B6A1A43CB6A1A4303
:101520000B6B1A438B6913434A6B1A43CB6B134300
:101530000A6850F82240AC431C4340F822404A6BF2
:10154000B2F5801F02D007E04023D5E7096819B142
:10155000016841F480110160002030BD7FFF1F0051
:1015600070B5D1E9003443EA04138C688D892402F4
:1015700044EA054423430D8A114C00EB820204EB3C
:1015800005552B430D7D660106EB05652B438D69E3
:101590002B43556805F040452B4353600268D20247
:1015A0000BD54268098A22F4700204EB0151114301
:1015B000426822F470020A434260002070BD0000BD
:1015C0000000F0FFF0B5D1E907354C6A0A68C2B1F6
:1015D00002682B4322F4F842144323430360D1E909
:1015E00001231A43D1E9033423431A434B69896920
:1015F0001A430A4341686FF30E010A434260002018
:10160000F0BDD1E901263243D1E903673E433243BD
:101610004E69896932430A431A432A4301682243C7
:101620006FF30E010A430260E9E7426943F6FE7375
:101630009A4342EA410141610020704770B5144667
:101640000546D1E9000210438A686FF01F03C9689C
:1016500003EB421242EA4121084329696FF3150165
:101660000843286100F0C2FD064609E0601C07D06F
:1016700024B100F0BBFD801BA04201D9032070BD46
:10168000A8698006F2D4002070BD0000F0B56FF0AC
:101690000F058C8A2E014FEA054ECB682F034FF0C1
:1016A0007F4C0EEB04540AB31A03A2F580528368F0
:1016B00022431D4C23401A438260D1E9002305EBED
:1016C0000313521E1A438B6806EB03231A430B8A3B
:1016D000097E07EB03431A430CEB01610A43C1681F
:1016E00001F070410A43C2600020F0BDD1E9002E34
:1016F00005EB0E15521E2A438D6806EB05252A437D
:101700000A4D05EB03331A430B8A097E07EB0343AB
:101710001A4322430CEB01610A43816801F07041D6
:101720000A438260E0E70000FF0F0FFF00F0FFFFB9
:1017300078B50024009490F83C20012A19D00122A9
:1017400080F83C200A6807230568092A13D9EE6847
:101750000A3A02EB420293409E43EE600B788A689D
:101760000A3B03EB43039A400368DD682A43DA60CF
:1017700010E0022078BD2E6902EB420293409E43A6
:101780002E610B788A6803EB43039A4003681D6956
:101790002A431A614A681F23072A13D205686E6B11
:1017A000521E02EB820293409E436E630A8893B2FC
:1017B0000A79521E02EB820293400268556B2B435A
:1017C000536327E005680D2A12D22E6BD21F02EB5D
:1017D000820293409E432E630B790A88DB1F92B2EC
:1017E00003EB83039A4003681D6B2A431A6311E0DD
:1017F000EE6A0D3A02EB820293409E43EE620B7951
:101800000A880D3B92B203EB83039A400368DD6ABA
:101810002A43DA621B4B0568194A9D420AD10D68BA
:10182000122D07D1556825F400055560556845F41B
:101830008005556005689D421DD1134D0B68AB4274
:1018400001D0112B17D1536823F4800353605368E0
:1018500043F4000353600968A9420CD10B490C4AB8
:101860000968B1FBF2F101EB8101490000E0491E7A
:1018700000910029FBD180F83C40002078BD000099
:1018800000230140002001401200001058000020F9
:1018900040420F0070477047704770B504004FF02A
:1018A000000503D0206C002610B107E0012070BDB8
:1018B000204600F01DF8666484F83C60206CC00689
:1018C00010D4206C20F4885040F0020020642046A0
:1018D000FFF7CAF96664206C20F0020040F00100B6
:1018E000206400E0012584F83C60284670BD0000BB
:1018F00070B586B0064614216846FEF7C3FC1D4944
:101900003068884234D11C480025016841F4807158
:101910000160006800F48070059017481438016871
:1019200041F0010101600068694600F00100059086
:10193000F02000900320CDE90105104800F02EFBB7
:10194000104C0F48C4E900050015A560C4E9035018
:10195000800060618000A0618011C4E90705204615
:10196000656200F0E7F908B1FFF799FDB463A6637B
:1019700006B070BD00200140443802400000024023
:10198000106402400C040020F8B5044600200E4606
:10199000009094F83C10012907D0012184F83C10F4
:1019A00021688B68DB0702D011E00220F8BD8B684C
:1019B00043F001038B604049404B0968B1FBF3F1F0
:1019C00001EB410100E0491E00910029FBD1216893
:1019D0008B68DB0503D58B6823F480738B602168EB
:1019E0008B68DB075DD0236C40F20165AB4343F4A9
:1019F000807323644968490505D5216C21F40051A1
:101A000041F480512164216CC90404D5616C21F03A
:101A10000601616400E0606484F83C00A16B294821
:101A2000274DC863A16B28480864A16B2748C86488
:101A300021686FF0220008602068416841F08061F1
:101A400041602068816841F480718160216813469B
:101A500032464C31A06B00F0D7F968681C49C006CB
:101A6000206806D0884224D1816811F0405F13D0ED
:101A70001FE08842F8D0174A904203D1D1F80423DE
:101A8000D206F1D0144A904213D1D1F8041301F0D8
:101A90001F011029E8D30CE0816841F0804181608A
:101AA00007E0206C40F010002064606C40F0010002
:101AB00060640020F8BD00005800002040420F0084
:101AC00000230140D90B00085D0C0008470C0008FA
:101AD0000020014000210140002201402DE9F04199
:101AE0000446876D00F082FB064694F83500002519
:101AF000022806D08020606584F834500120BDE8BB
:101B0000F0812068016821F01601016020684169B8
:101B100021F080014161206C08B9A06C20B12068DF
:101B2000016821F0080101602068016821F00101CD
:101B300001600CE000F05AFB801B052807D920202B
:101B40006065032084F8350084F83450D7E72068B6
:101B50000068C007EED194F85C103F208840B86060
:101B6000012084F8350084F834500020C7E790F84D
:101B70003510022903D080214165012070470521DD
:101B800080F835100068016821F001010160002033
:101B9000704700002DE9F84304464FF00009CDF8E6
:101BA000009063484FF41651A56D0068B0FBF1F743
:101BB0002E6894F85C10082000FA01F131420FD031
:101BC00021680A6852070BD50A6822F004020A60ED
:101BD00094F85C108840A860606D40F0010060657A
:101BE00094F85C104FF0010808FA01F0304208D078
:101BF00021684969090604D5A860606D40F00200BB
:101C0000606594F85C1004208840304208D0216858
:101C10000968890704D5A860606D40F0040060651C
:101C200094F85C1010208840304218D02168096870
:101C3000090714D5A86020680168490304D5006825
:101C4000000308D5A16C07E00168C90503D4016849
:101C500021F008010160216C09B12046884794F801
:101C60005C1020208840304231D021680968C906C4
:101C70002DD5A86094F8350005282068016806D0A5
:101C8000490347D5006800031DD4616C1CE021F0B6
:101C9000160101602068416921F080014161206CDA
:101CA00008B9A06C20B12068016821F0080101602A
:101CB00094F85C103F208840A86084F8358084F850
:101CC0003490216D1FE0E16B09B120468847606DBB
:101CD00000282BD0606DC00714D0052084F8350093
:101CE0002068016821F0010101600098401C00900B
:101CF000B84203D820680068C007F6D184F8358060
:101D000084F83490E16C002910D001B02046BDE881
:101D1000F04308470168C905D5D4016821F01001D6
:101D2000016084F8358084F83490CCE7BDE8F8830E
:101D3000580000202DE9F041044600F057FA06460D
:101D40005CB1022084F83500002584F83450206806
:101D5000016821F0010101600DE00120BDE8F08182
:101D600000F044FA801B052805D920206065032077
:101D700084F83500F2E720680068C007F0D12268D7
:101D8000116820480140D4E901031843D4E903361F
:101D90003343184363691843A3691843E36918433D
:101DA000236A18430843616A042903D1D4E90B1359
:101DB00019430843106020684069666A20F00701F3
:101DC00030460E43012704280CD1A06A0643E06A7E
:101DD00040B12046FFF788F920B14020606584F8C3
:101DE0003570BAE7206846612046FFF769F994F834
:101DF0005C203F2191408160656584F8357000204A
:101E0000ACE700003F8010F02DE9F0410446866DFC
:101E100090F83400002501280DD0012084F834000A
:101E200094F835700020012F07D084F83400022583
:101E30002846BDE8F0810220FBE7022784F83570D0
:101E400060652046FFF77AF994F85C103F208840DF
:101E5000B0602068016841F016010160206C20B17B
:101E60002068016841F0080101602068016841F0C4
:101E700001010160DCE7000070B5044600F0B6F92E
:101E80000546601C02D004480078044400F0AEF916
:101E9000401BA042FAD370BD4C000020F0B587B0C3
:101EA00014216846FEF7EEF925480168002944D15F
:101EB0000121016023480024016841F00101016013
:101EC0000068022500F0010005904FF63F00CDE9C3
:101ED000000502AA03260C2782E8D00069461A48AA
:101EE00000F05CF80D20CDE9000502AA694682E801
:101EF000D000164800F052F848F23710CDE900053E
:101F000002AA694682E8D000114800F047F84FF66F
:101F10008370CDE9000502AA694682E8D0000D4829
:101F200000F03CF84EF2B370CDE9000502AA694614
:101F300082E8D000084800F031F807B0F0BD00009A
:101F40003C000020383802400014024000080240E3
:101F50000018024000100240000C024010B5084C6E
:101F60000128217802D0B0F5005F08D1084608F0BA
:101F700087FD207808B1002000E00120207010BD0E
:101F800088000020044910B50A68024202D00860A7
:101F9000FFF7E4FF10BD0000143C01402DE9F84FAD
:101FA000DFF8F8A10022012403254FF00F090AF100
:101FB000040BAAF1040E00BF0B6804FA02F63340CA
:101FC000B34270D10F7907F00307012F01D0022F20
:101FD00016D187684FEA420805FA08FC27EA0C0781
:101FE000D1F80CC00CFA08FC4CEA070CC0F808C089
:101FF0004768B7430E79C6F3001696403E434660E5
:102000000E79F643B6070AD0C7684FEA420C05FAC4
:102010000CF6B7438E6806FA0CF63E43C6600E799E
:1020200006F00306022E10D1D60800EB8608D8F879
:10203000206057074FEAD76C09FA0CF7BE430F69C7
:1020400007FA0CF73743C8F8207006684FEA420CCD
:1020500005FA0CF7BE430F7907F0030707FA0CF7F0
:10206000374307604E6816F4403F1CD04C4E37682B
:1020700047F480473760366822F0030706F480464D
:102080000096484E07EB060CDCF8086897073F0FF0
:1020900009FA07F826EA0806DFF80C81404503D163
:1020A0004FF0000841E072E0DFF80081404502D1C6
:1020B0004FF0010839E0DFF8F880404502D14FF0D9
:1020C000020832E0DFF8EC80404502D14FF003080F
:1020D0002BE0DFF8E480404502D14FF0040824E013
:1020E000DFF8D880404502D14FF005081DE0DFF849
:1020F000D080404502D14FF0060816E0DFF8C480DA
:10210000404502D14FF007080FE0DFF8BC804045A2
:1021100002D14FF0080808E0DFF8B080404502D156
:102120004FF0090801E04FF00A0808FA07F848EAFA
:102130000608CCF80888DAF800605746D1F804C0E1
:102140009E435FEACC2C00D51E433E60DBF8006066
:102150005F46D1F804C09E435FEA8C2C00D51E4335
:102160003E60DEF800607746D1F804C09E435FEA27
:102170008C3C00D51E433E60084F083F3E68D1F8B6
:1021800004C09E435FEACC3C00D51E433E60521C17
:10219000102AFFF411AFBDE8F88F0000083C0140A1
:1021A0004438024000300140000002400004024078
:1021B00000080240000C02400010024000140240DF
:1021C00000180240001C024000200240002402408F
:1021D000426921EA02030A4043EA024181617047F1
:1021E0000AB1816170470904FBE70000014880687B
:1021F000704700004C00002090F83D20202A01D0BC
:1022000002207047242280F83D200268136823F0E2
:10221000010313600268536A23F0100353620268DB
:10222000536A0B43536201680A6842F001020A6074
:10223000202180F83D100020704790F83D20202A92
:1022400001D002207047242280F83D2002681368E4
:1022500023F00103136003685A6A22F00F020A4355
:1022600091B2596201680A6842F001020A602021B5
:1022700080F83D100020704770B5040025D094F818
:102280003D00002520B984F83C50204600F0D2FBE8
:10229000242084F83D002068016821F001010160DC
:1022A0002068016841F4004101602068016821F460
:1022B0000041016000F092FD4D4A6168914201D8F1
:1022C0004C4900E04C49884201D2012070BD4B4985
:1022D0002368B0FBF1F15E6826F03F060E435E60B6
:1022E0006368934206D94FF4967359434FF47A7357
:1022F000B1FBF3F12368491C1E6A26F03F06314307
:1023000019626168914210D84900401EB0FBF1F299
:10231000521CC2F30B02042A01D2042022E0B0FBBB
:10232000F1F0401CC0F30B001CE0A268F2B301EB1B
:10233000C10303EB0116431EB3FBF6F35B1C43F42E
:1023400080431B0549D092B301EBC10202EB01119E
:10235000401EB0FBF1F0401CC0F30B0040F4804085
:1023600040F400402168CA694CF6FF739A43104359
:10237000C861D4E9071001432068026822F0C00256
:1023800011430160D4E9030101432068826848F2E7
:10239000FF339A4311438160D4E905010843216862
:1023A000CA6822F0FF021043C86001E00EE016E0A8
:1023B0002068016841F0010101602564202084F853
:1023C0003D00256384F83E50002070BD01EB4106BE
:1023D000431EB3FBF6F35B1CB3E70120C2E701EB3E
:1023E0004101401EB0FBF1F0401CC0F30B00B7E709
:1023F000A086010080841E0000093D0040420F00BD
:102400002DE9F84F1F4690468A460446DDF828908D
:10241000FFF7ECFE054694F83D00202875D11923FE
:1024200001226C492046009501F0D2FE0028F5D12A
:1024300094F83C00012868D0012084F83C00206812
:102440000168C90703D1016841F0010101602068FA
:10245000016821F400610160222084F83D00102011
:1024600084F83E0000262664C4F824806785608DC9
:1024700020855948E0622B464A465146204601F0E5
:10248000EBFC002878D1208D544F68B1012814D07E
:1024900002282068016816D041F48061016020683C
:1024A00041698069009087E02068416981690091F5
:1024B000016841F4007101607EE02068016821F448
:1024C00080610160F0E721F48061016020680168AB
:1024D00041F40061E2E7032848D801280AD0022825
:1024E00014D04B46002239462046009501F070FE7C
:1024F000D8BB27E02A464946204601F0E8FEA0BBAB
:1025000020680069616A08704DE061E04B46002276
:1025100039462046009501F05BFE30BB206801681B
:1025200041F40071016020680069616A0870606AA6
:10253000401C6062218D491E2185618D491E618587
:1025400021682EE02068016821F480610160206824
:102550000069616A0870606A401C6062208D401EDC
:102560002085608D401E6085D0E705E02A464946FB
:10257000204601F0ACFE10B10120BDE8F88F2068C4
:102580000069616A0870606A401C6062218D491EA2
:102590002185618D491E618521684A69D2435207B0
:1025A0000AD409690170606A401C6062208D401E77
:1025B0002085608D401E6085208D00288BD12020D5
:1025C00084F83D0084F83E6084F83C600020D4E745
:1025D0000220D2E7020010000000FFFF040001000B
:1025E0002DE9F84F1F4690468A460446DDF82890AC
:1025F000FFF7FCFD054694F83D0020287FD1192304
:10260000012240492046009501F0E2FD002876D1E4
:1026100094F83C00012872D0012084F83C00206826
:102620000168C90703D1016841F001010160206818
:10263000016821F400610160212084F83D00102030
:1026400084F83E0000262664C4F824806785608DE7
:1026500020852D48E0622B464A465146204601F02F
:1026600071FC90B9206841698069009036E02A4683
:102670004946204601F05EFE50B1206C042804D18A
:102680002068016841F4007101600120BDE8F88F05
:10269000606A216800780861606A401C6062618D30
:1026A000491E6185218D491E89B2218522685369A1
:1026B000DB435B070BD451B100781061606A401CAA
:1026C0006062608D401E6085208D401E20852A46F8
:1026D0004946204601F056FD0028CED1208D002825
:1026E000C5D154F83D0B016841F400710160202010
:1026F00004F81E09E67766770020C7E7FFE70220A7
:10270000C4E70000020010000000FFFF2DE9FF4FAA
:1027100083B09A46DDE9119793460446DDF8408080
:10272000FFF764FD054694F83D00202870D1192379
:10273000012271492046009501F04AFD0028F5D19B
:1027400094F83C00012863D0012084F83C00206804
:102750000168C90703D1016841F0010101602068E7
:10276000016821F400610160222084F83D004020CE
:1027700084F83E0000262664C4F82480A4F82A9039
:10278000608D20855D48E062CDE9007553465A466C
:102790002046049901F024FC00287CD1208DD0B182
:1027A000012821D00228206824D041698069009046
:1027B000208D032869D801282BD0514902283B4697
:1027C0004FF00002009559D08846204601F000FDE8
:1027D000002860D13CE0206841698169009101686E
:1027E00041F40071016077E02068016821F48061A4
:1027F0000160F0E7016821F48061016020680168F0
:1028000041F400610160206841698069009063E0E3
:102810006FE02A463946204601F059FD98BB2068F2
:102820000069616A08704EE02068016841F4007137
:10283000016020680069616A0870606A401C60621B
:10284000218D491E2185618D491E6185216838E0F1
:102850002068016821F48061016020680069616A74
:102860000870606A401C6062208D401E2085608D6B
:10287000401E60853B46002241460095204601F0FF
:10288000A7FC00B9D0E706E0FFE72A463946204614
:1028900001F01DFD18B1012007B0BDE8F08F2068E0
:1028A0000069616A0870606A401C6062218D491E7F
:1028B0002185618D491E618521684A69D24352078D
:1028C0000AD409690170606A401C6062208D401E54
:1028D0002085608D401E6085208D00287FF468AFC4
:1028E000202084F83D0084F83E6084F83C6000209D
:1028F000D2E70220D0E70000020010000000FFFF36
:10290000040001002DE9FF4F83B09A46DDE91197DD
:1029100093460446DDF84080FFF768FC054694F8CE
:102920003D0020287FD119230122404920460095EF
:1029300001F04EFC002876D194F83C00012872D0BA
:10294000012084F83C0020680168C90703D10168B0
:1029500041F0010101602068016821F4006101601B
:10296000212084F83D00402084F83E0000262664A3
:10297000C4F82480A4F82A90608D20852C48E06259
:10298000CDE9007553465A462046049901F0A6FB4E
:1029900070B930E02A463946204601F0CBFC58B1E8
:1029A000206C042804D12068016841F400710160A2
:1029B000012007B0BDE8F08F606A216800780861E7
:1029C000606A401C6062218D491E89B22185628D3A
:1029D000521E628522685369DB435B070BD469B1E1
:1029E00000781061606A401C6062208D401E208566
:1029F000608D401E6085208D0028CBD12A46394647
:102A0000204601F0BFFB0028CAD154F83D0B0168F5
:102A100041F400710160202004F81E09E677667712
:102A20000020C6E7FFE70220C3E700000200100015
:102A30000000FFFF10B586B0044614216846FDF77C
:102A400021FC13492068884220D1124800210268E5
:102A500042F080020260006800F0800005903020A3
:102A600000901220CDE9010103200390042004907E
:102A700069460948FFF792FA06481030016841F4A8
:102A800080010160006800F48000059006B010BD70
:102A90000058004030380240001C024070B504006D
:102AA00011D021684CF6CC400860216845F25550A1
:102AB0000860D4E9000141602168A0688860FFF7E0
:102AC00095FB05460DE0012070BD00BFFFF78EFBB2
:102AD000401B312805D92068C068800701D0032039
:102AE00070BD2068C0688007F0D121684AF6AA202E
:102AF0000860002070BD00684AF6AA21016000202D
:102B00007047000002488168027811448160704774
:102B10004C0000200B4810B5016841F400710160C1
:102B2000016841F480610160016841F480710160D5
:102B3000032000F06FF80F2000F006F800F024F8F2
:102B4000002010BD003C024070B50D4D04464FF40E
:102B50007A712878B1FBF0F00A490968B1FBF0F00E
:102B600000F01FFD48B9102C07D200222146501E4C
:102B700000F030F800206C6070BD012070BD0000D6
:102B80004C000020580000200A4808B5016841F4B4
:102B900080410160006800F4804000900548001FFB
:102BA000016841F080510160006800F080500090A1
:102BB00008BD000044380240002809DB00F01F0275
:102BC000012191404009800000F1E020C0F800118F
:102BD00070470000F0B40E4B1B680C46C3F3022391
:102BE000C3F10705042D00D90425191D072901D2B9
:102BF000002300E0DB1E012606FA05F1491E2140F4
:102C000099409E40761E16403143F0BC06F022BB30
:102C10000CED00E0064900F0070208684FF6FF03DC
:102C2000184040EA0220034A104308607047000041
:102C30000CED00E00000FA052DE9F84317480168A3
:102C400041F0805101600068154F00F0805001266E
:102C500000903E64FFF7CAFA05464FF47A78114CAB
:102C600005E000BFFFF7C2FA401B40450DD8606881
:102C7000C003F7D57E64FFF7B9FA0546464607E07C
:102C8000FFF7B4FA401BB04202D90320BDE8F88335
:102C900060688003F4D50020F8E700004038024067
:102CA00000000E42007000402DE9F0470E4605007E
:102CB00065D0DFF81481D8F80000F7B200F00F00FB
:102CC000B04207D288F80070D8F8000000F00F007A
:102CD000B04254D128683D4C810712D5400703D536
:102CE000206840F4E05020602878000703D5206871
:102CF00040F4604020602068A96820F0F00008439C
:102D000020602878C0072DD030496868083901282C
:102D100012D0022813D0032811D00968890700298E
:102D20002DDA216821F0030101432160FFF75EFAEB
:102D3000814641F2883A0EE009688903EFE70968A5
:102D40008901ECE7FFF752FAA0EB0901514502D9DE
:102D50000320BDE8F0872068696800F00C00B0EB44
:102D6000810FEFD1D8F80010404601F00F01B142B9
:102D700007D90770006800F00F00B04201D00120B1
:102D8000E7E72878400705D52068E96820F4E05097
:102D9000084320602878000706D52068296920F4B8
:102DA000604040EAC100206000F038F82168084A1D
:102DB000C1F30311515CC840064908600648006829
:102DC000FFF7C2FE0020C4E7003C02400838024082
:102DD0003CC7000858000020500000200448054966
:102DE00000680968044AC1F38221515CC8407047F9
:102DF00058000020083802404CC700080448054924
:102E000000680968044AC1F34231515CC840704708
:102E100058000020083802404CC70008154810B57B
:102E2000006810F00C02144813D01449042A0FD083
:102E3000082A0ED10F4C241F2268236802F03F029B
:102E40005B0207D52068C0F38810A0FB010106E0F3
:102E5000084610BD2168C1F38811A1FB00010023C1
:102E6000FDF7C0F92168C1F30141491C4900B0FBDD
:102E7000F1F010BD083802400024F40040787D01D4
:102E80002DE9F84F04006ED02078DFF84C93C0078E
:102E9000A9F104054AD009F104000168C1F38101D8
:102EA000012908D00068C0F3810002280AD1D9F8AE
:102EB0000000400206D52868800337D560680028E6
:102EC000E1D033E06068B0F5803F10D0B0F5A02FBE
:102ED000286810D020F480302860286820F48020F2
:102EE00028606068A8B1FFF781F906460DE0286800
:102EF00040F48030F4E740F480202860F7E700BF1A
:102F0000FFF774F9801B642873D828688003F7D50D
:102F10000CE0FFF76BF9064605E000BFFFF766F926
:102F2000801B6428F0D828688003F7D42078DFF865
:102F3000AC8280074FF0000A3ED5A748001D01680B
:102F400011F00C0F08D00068C0F3810002280BD1EB
:102F5000D9F80000400207D42868800716D5E06839
:102F6000012800D112E033E1E068B8B10120C8F8CF
:102F70000000FFF73BF9064605E000BFFFF736F912
:102F8000801B0228C0D828688007F7D528682169E7
:102F900020F0F80040EAC10028600DE0C8F800A069
:102FA000FFF724F9064604E0FFF720F9801B02280A
:102FB0001FD828688007F7D42078000722D5864FCD
:102FC00087486169703771B101210160FFF70EF91F
:102FD000064604E0FFF70AF9801B022809D8386882
:102FE0008007F7D50EE0C0F800A0FFF7FFF806460F
:102FF00005E082E0FFF7FAF8801B02287DD83868E8
:103000008007F7D42078400768D5DFF8CCB10027D7
:103010000BF13C0BDBF80000C0000BD4DBF8001018
:1030200041F08051CBF80010DBF80000012700F0E0
:10303000805000906B4E3068C00510D4306840F46A
:1030400080703060FFF7D2F8009005E0FFF7CEF80F
:103050000099401A022850D83068C005F6D55E4E57
:10306000A0686C3601280FD00528306810D020F0F9
:1030700001003060306820F004003060A068B8B112
:10308000FFF7B4F800900FE0306840F00100F4E77B
:1030900040F004003060F7E7FFF7A8F80099411A04
:1030A00041F28830814266D830688007F4D50EE05E
:1030B000FFF79CF8009007E0FFF798F80099411A95
:1030C00041F28830814256D830688007F4D42FB15D
:1030D000DBF8001021F08051CBF80010A069C8B3D4
:1030E0003D49091D0968C1F3810102294AD002281E
:1030F000504607D0C8F8600000E03CE0FFF776F8E3
:1031000004463BE04746C8F86000FFF76FF8064604
:1031100005E000BFFFF76AF8801B02282BD828685B
:103120008001F7D4D4E907010843A16A2E4A49086F
:1031300002EB0141626A41EA8211084394F82C10C3
:1031400040EA0161C9F8001001203866FFF74EF827
:10315000044606E03EE000BFFFF748F8001B0228E7
:1031600009D828688001F7D534E000BFFFF73EF8A2
:10317000001B022802D90320BDE8F88F28688001CF
:10318000F4D427E00128F7D0D9F80000E26900F470
:10319000800191421CD1226A00F03F01914217D177
:1031A00047F6C071626A0140B1EB821F10D1A26A7A
:1031B0004FF0FF3300F4403103EB5202B1EB024F0A
:1031C00006D194F82C1000F07060B0EB016F01D0C4
:1031D0000120D1E70020CFE7043802400000474239
:1031E000800E4742007000400000FFFF70B50D46A2
:1031F000040003D094F82C0010B107E0012070BD4A
:10320000002084F82D00204600F011F8022084F8F8
:103210002C00211D2068FEF7D5F9D4E900022946CB
:10322000FEF734FA012084F82C00002070BDFEF770
:1032300035BE10B5044690F82C00022804D094F84E
:103240002C00012801D0012010BD022084F82C00A0
:103250002068FEF7EAF9012084F82C00002010BD58
:1032600070B5044690F82C000D46022804D00128C1
:1032700003D0052801D0012070BD022084F82C0065
:103280002068FEF7DBF92868022805D05FF001000E
:1032900084F82C00002070BD0520F9E770B504000B
:1032A00009D0606A002540B125616561A56294F886
:1032B000510040B10CE0012070BD6068B0F5827F24
:1032C000F4D0E561F2E784F85050204600F044F86D
:1032D000022084F851002068016821F0400101605B
:1032E000A088218900F4827001F404410843A18977
:1032F00001F400610843217C01F002010843217DB3
:1033000001F001010843218B01F400710843217F82
:1033100001F03801084394F8201001F080010843BF
:10332000218D01F40051084321680860A06904213F
:1033300001EA104094F8241001F0100108432168BC
:1033400048602068C16921F40061C16165650120A0
:1033500084F85100002070BD10B586B004461421D9
:103360006846FCF78FFF14492068884221D1134832
:103370000021026842F480420260006800F480404C
:1033800005900E481038026842F0020202600068A0
:1033900000F0020005904FF4604000900220CDE95B
:1033A0000101032003900520049069460448FEF7BC
:1033B000F5FD06B010BD0000003800404038024066
:1033C000000402402DE9F84F044690F85000002711
:1033D0001D461646894601280DD04FF0010B84F892
:1033E00050B0FEF703FF804694F85100BA4601281A
:1033F00004D0022793E00220BDE8F88FB9F1000F56
:1034000073D0002E71D0032084F85100C4F854A06A
:10341000C4F83090A686E686C4F838A0A4F83CA08C
:10342000A4F83EA0C4F844A0C4F840A0A068B0F539
:10343000004F09D12068016821F040010160206837
:10344000016841F48041016020680168490603D4A5
:10345000016841F040010160E068B0F5006F60680C
:1034600003D030B3012E24D041E008B1012E1CD18D
:10347000206B21680088C86006E0206881688907A1
:1034800009D5216B0988C160206B801C2063E08E08
:10349000401EE08609E0FEF7A9FEA0EB0800A84266
:1034A00002D3681C01D031E07DB3E08E0028E4D166
:1034B00020E0206B21680078087306E020688168AE
:1034C000890709D5216B09780173206B401C2063A3
:1034D000E08E401EE0860AE0FEF788FEA0EB0800C2
:1034E000A84203D3681C02D010E017E06DB1E08E53
:1034F0000028E3D142462946204605F031FA08B1BA
:1035000020206065A06818B106E0FFE7032706E009
:103510002068C16880680090606D00B1012784F860
:1035200051B084F850A0384666E770B515460E468F
:10353000040003D094F8490010B107E0012070BDE9
:10354000002084F84800204600F01DF804F108012E
:103550002068FDF7C5FF3146A2682068FEF700F835
:10356000D4E901022946236BFDF79CFF2168A0687E
:1035700051F8202042F0010241F82020012084F877
:103580004900002070BDFEF789BC4FF0E0210428FF
:10359000086903D020F004000861704740F004007F
:1035A000FAE710B5401EB0F1807F01D3012010BDB5
:1035B0004FF0E02460610F21601705F04BFE002002
:1035C000A06107202061002010BD704770470000F7
:1035D00070B590F83C20012A32D0012480F83C409C
:1035E000022280F83D2003685A689D6822F0700628
:1035F0000A6832435A60134B02689A4214D0B2F1FF
:10360000804F11D0104B9A420ED0104B9A420BD0E3
:103610000F4B9A4208D00F4B9A4205D00E4B9A425C
:1036200002D00E4B9A4204D1496825F08003194319
:10363000916080F83D40002180F83C10084670BD44
:10364000022070BD0000014000040040000800405E
:10365000000C004000040140004001400018004000
:1036600010B5040003D094F83D0010B107E001202C
:1036700010BD002084F83C00204600F01FF8022016
:1036800084F83D00211D206805F082FA012084F8AD
:10369000460084F83E0084F83F0084F8400084F837
:1036A000410084F8420084F8430084F8440084F820
:1036B000450084F83D00002010BD000008B50068FA
:1036C0000B49884212D10B48016841F001010160A9
:1036D0000068002200F00100009002211920FFF78D
:1036E00079FABDE808401920FFF766BA08BD000066
:1036F000000001404438024090F83D10012901D0FB
:1037000001207047022180F83D100168CA6842F02C
:103710000102CA6000681149884214D0B0F1804F9C
:1037200011D00F4988420ED00E4988420BD00E4965
:10373000884208D00D49884205D00D49884202D000
:103740000C49884204D1816801F00701062903D0A1
:10375000016841F001010160002070470000014054
:103760000004004000080040000C0040000401403C
:10377000004001400018004070B5044690F83C003D
:103780000025012817D0012684F83C60022084F827
:103790003D002068826822F0770222F47F42826036
:1037A0000868502838D00DDC20284FD005DC90B3B5
:1037B000102811D14AE0022070BD302846D04028A0
:1037C0000AD13BE060282FD070280DD0B0F5805F83
:1037D00003D0B0F5005F12D0012584F83D600020D1
:1037E00084F83C00284670BDCB68D1E901212068EF
:1037F00005F032FA2068816841F0770109E0CB6872
:10380000D1E90121206805F027FA2068816841F498
:1038100080418160E1E719E0CA684968206805F0E5
:103820002DFA5021206806E0CA684968206805F032
:1038300036FA6021206805F019FACEE7CA684968AF
:10384000206805F01BFA40212068F4E72268014651
:103850001046F0E7704770B50446006801694FF004
:103860000005C943890715D4C168C943890711D424
:10387000E91E0161012020772068806980072046C9
:1038800002D0FFF7E7FF04E000F098F8204600F0D0
:1038900096F8257720680169C943490717D4C1689C
:1038A000C943490713D46FF0040101610220207756
:1038B0002068806910F4407F204602D0FFF7CAFFDD
:1038C00004E000F07BF8204600F079F825772068C6
:1038D0000169C943090716D4C168C943090712D44D
:1038E0006FF008010161042020772068C06980071B
:1038F000204602D0FFF7AEFF04E000F05FF820465C
:1039000000F05DF8257720680169C943C90617D41E
:10391000C168C943C90613D46FF0100101610820C2
:1039200020772068C06910F4407F204602D0FFF75E
:1039300091FF04E000F042F8204600F040F82577BF
:1039400020680169C943C90708D1C168C943C907CB
:1039500004D1891E0161204600F032F82068016917
:10396000C943090609D4C168C943090605D46FF0E3
:10397000800101612046FFF728FE20680169C943E4
:10398000490609D4C168C943490605D46FF040010E
:103990000161204600F015F820680169C9438906D5
:1039A0000BD4C168C943890607D46FF020010161B7
:1039B0002046BDE87040FFF709BE70BD70477047F4
:1039C00070477047704710B504460068406994F826
:1039D0003D10C0F3C010212911D180B120681430EE
:1039E00050E8001F21F0800140E80012002AF5D1C4
:1039F000606B08B1FEF772F8204605F004FA206803
:103A0000406994F83E10C0F38010222911D180B192
:103A10002068143050E8001F21F0400140E80012F7
:103A2000002AF5D1A06B08B1FEF758F8204605F042
:103A3000C3F9002010BD7047F8B501680446086856
:103A4000CA684B6910F00F0F4FF0000559D003F012
:103A5000010602F49077374365D0C10705D0D10540
:103A600003D5216C41F001012164410705D5D90737
:103A700003D0216C41F002012164810705D5D907EB
:103A800003D0216C41F004012164010707D502F045
:103A90002001314303D0216C41F008012164216CE5
:103AA00000293AD0800604D5900602D5204605F0BC
:103AB000B8F920684069216CC0F38010090700D470
:103AC00060B3204605F078F920684069400621D5AA
:103AD0002068143050E8001F21F0400140E8001237
:103AE000002AF5D1A06BA8B16C490165A06BFEF767
:103AF0003EF8002811D0A06B016D01B0BDE8F04088
:103B0000084783060FD593060DD52046BDE8F8403B
:103B100005F087B92046FFF78EFFF8BD2046FFF776
:103B20008AFF2564F8BD266B2023012E79D1C606B5
:103B300077D5D60675D5086848680090486940066C
:103B400040D5A16B086840680004000CEAD0A28D43
:103B50008242E7D9E085C869B0F5807F2DD0206822
:103B60000C3050E8001F21F4807140E80012002A58
:103B7000F5D12068143050E8001F21F0010140E821
:103B80000012002AF5D12068143050E8001F21F0FF
:103B9000400140E80012002AF5D184F83E30256348
:103BA00020680C3050E8001F21F0100140E800129E
:103BB000002AF5D1A06BFDF791FFA08DE18D401A91
:103BC00081B229E0A08DE18D401A81B2E08D0028FC
:103BD000A8D00029A6D020680C3050E8002F22F48D
:103BE000907240E80026002EF5D12068143050E88D
:103BF000002F22F0010240E80026002EF5D184F8C3
:103C00003E30256320680C3050E8002F22F010026F
:103C100040E80023002BF5D12046FFF7D3FEF8BD86
:103C2000FFE705062BD5150629D594F83D00212878
:103C3000F5D1A068B0F5805F01D12069B0B1206AEC
:103C4000411C2162216800784860E08C401E00041D
:103C5000000CE084E3D12068C16821F08001C160DC
:103C60002068C16841F04001C160D8E7206A00883F
:103C7000C0F308004860206A801C2062E5E7400627
:103C8000CDD55006CBD5CA68204622F04002CA6086
:103C900084F83D3000F0C7F8C1E70000C38C00088D
:103CA00070B5040004D094F83D00002510B106E082
:103CB000012070BD84F83C50204600F023F82420F9
:103CC00084F83D002068C16821F40051C16020469D
:103CD00005F008F92068016921F49041016120682C
:103CE000416921F02A0141612068C16841F4005115
:103CF000C1602564202084F83D0084F83E00002047
:103D000070BD0000F0B587B0064614216846FCF788
:103D1000B9FA324F306800253149022203230724C3
:103D2000B8421CD12E481430066846F010060660D2
:103D3000006800F010000590086840F0010008607D
:103D40000868694600F00100059058028DE82500DA
:103D5000CDE903342348FEF721F907B0F0BD224F27
:103D6000B842FAD11E481030076847F48027076030
:103D7000006800F480200590086840F002000860A8
:103D80000868694600F0020005904FF440608DE835
:103D90002500CDE903341548FEF700F9154C144809
:103DA00020604FF00060C4E901054014C4E90350ED
:103DB0006561A561E561256220466562FDF7BAFF90
:103DC00008B1FDF76CFBB463002211462720A663FF
:103DD000FEF700FF2720FEF7EFFEBEE700100140D0
:103DE0003038024000000240004800400004024019
:103DF000286002407806002090F83E30202B0ED13B
:103E000059B152B190F83C30012B08D0012380F811
:103E10003C300023036305F0EBB80120704702201B
:103E20007047704770477047FEE701684A69D243A0
:103E300052050FD46FF480624A61002140F8301FB0
:103E4000202242738173026942F00402026101730D
:103E500001207047002070472DE9F84F0446C06AE2
:103E60001E4693460D4621680A6842F480620A6045
:103E7000082807D0012805D010F5803F02D0206B1C
:103E8000112804D12068016841F4807101604FF06D
:103E900001195B46002249462046009600F098F939
:103EA0004FF4007840B120680068C00501D5C4F81F
:103EB00040800320BDE8F88F2069DFF884A0B0F5CA
:103EC000804F0FD00620216800EAD51747F0F00098
:103ED000086133465A460AF10601204600F0ACF963
:103EE00058BB03E0E8B240F001001CE02168E8B2F2
:103EF000086133465A465146204600F09DF9E0B924
:103F00002068416981690091016841F48071016014
:103F10005B46002249462046009600F059F90028E9
:103F2000C1D147F0F1002168086133465A46514635
:103F3000204600F081F90028BCD00120BAE700003B
:103F400002000100F8B50446C06A1E460D46174639
:103F5000082807D0012805D010F5803F02D0206B3B
:103F6000122804D12068016841F480710160134671
:103F700000224FF001112046009600F029F940B1CF
:103F800020680068C00502D54FF40070206403204B
:103F9000F8BD2069B0F5804F0ED00620216800EAF8
:103FA000D51040F0F000086133463A460B492046F0
:103FB00000F042F978B902E005F0FE0000E0E8B256
:103FC00021680861054933463A46891F204600F0BA
:103FD00033F90028DCD00120F8BD00000800010002
:103FE0002DE9F84F0446006889460B9D0168984604
:103FF000174641F4806101602068016841F48071D6
:10400000016000954FF0011B0022594620460A9B93
:1040100000F0DEF84FF4007A40B120680068C00577
:1040200001D5C4F840A00320BDE8F88F216809F04D
:10403000FE0008612B46284920460A9A00F0FCF849
:10404000F0BB20684169806900902A4620460A99A1
:1040500000F070F940B1206C04283AD12068016862
:1040600041F40071016034E0FEB2B8F1010F09D0F3
:104070002168380A08612A4620460A9900F05AF950
:104080000028E8D1206806612A4620460A9900F0F7
:1040900051F90028DFD12068016841F48071016086
:1040A00000950022594620460A9B00F091F800280E
:1040B000B3D1216809F0FF0040F00100086100E081
:1040C00007E02B46044920460A9A00F0B5F800287C
:1040D000AAD00120A8E70000020001002DE9F84362
:1040E000044600680D46DDE90897016898461646C3
:1040F00041F4807101604B4600224FF001112046CF
:10410000009700F065F848B120680068C00502D546
:104110004FF4007020640320BDE8F883216805F0A7
:10412000FE0008613B464A461549204600F084F8E7
:1041300088B920684169806900903A46494620461E
:1041400000F0F8F848B1206C042804D12068016818
:1041500041F4007101600120DEE7F5B2B8F1010F12
:1041600009D02168300A08613A464946204600F0E5
:10417000E1F80028E7D1206805610020CCE70000C5
:104180000200010070B516460D4604460DE02046BB
:10419000FFF74BFE08B1012070BD681C05D0FEF78B
:1041A00025F8801BA84207D835B120684069C04374
:1041B0004007ECD4002070BD002044F8300F2021CF
:1041C0006173A073216941F0200121612073E2E74E
:1041D0002DE9F0471E4690460D460446C1F30747B9
:1041E000DDF8209008E0701C06D0FDF7FFFFA0EB83
:1041F0000900B0420FD876B12068012F18D080692D
:1042000025EA00000004000C14D000214145EAD04A
:104210000020BDE8F087002044F8300F20216173B2
:10422000A073216941F02001216120730120F0E792
:104230004069E5E70121E9E72DE9F0479A46914613
:104240000E46044600254FF02008C1F3074725E03D
:1042500020684069C043400514D42068016841F4D7
:104260000071016021686FF480604861256384F803
:104270003D8084F83E50206C40F00400206484F8B7
:104280003C501FE0B9F1FF3F08D0FDF7AFFFA0EBB6
:104290000A0149450CD8B9F1000F09D02068012F57
:1042A00013D0806926EA00000004000C0BD0CFE791
:1042B00044F8305F84F80D80A573206940F0200039
:1042C000206125730120BDE8F0874069EAE72DE908
:1042D000F041002590460E460446202717E040692D
:1042E000C043C0060CD454F8301B6FF01000486176
:1042F00044F810596777A577206A2062257717E080
:10430000FDF774FFA0EB0800B04208D83EB120686A
:104310004169C9434906E2D40020BDE8F08144F870
:10432000305F6773A573206940F02000206125731A
:104330000120F2E770B516460D4604460DE0204612
:10434000FFF773FD08B1012070BD681C05D0FDF7B3
:104350004DFF801BA84207D835B120684069C04393
:104360000006ECD4002070BD002044F8300F20215E
:104370006173A073216941F0200121612073E2E79C
:1043800070B51A4886B00024016841F0010101604F
:10439000016801F001010591016841F0040101602B
:1043A000016801F004010591016841F0800101609C
:1043B0000068012500F0800000950590032602208A
:1043C0000396CDE9014069460948FDF7E7FD68031A
:1043D0008DE8710069460748FDF7E0FD0C2000906C
:1043E00069460548FDF7DAFD06B070BD3038024079
:1043F0000000024000080240001C024070B50A495B
:104400000646002408884D8821464543204602F090
:10441000C7FB02F0FBFCB0B2044901E00880641C59
:10442000AC42FBD370BD0000280B002000000860E8
:104430002DE9F04F33492C240A4688712A259288A9
:104440002B2645F2105B4FF4305E4FF448774FF067
:10445000F00949F2413A4FF4A07845F2103C4FF48C
:10446000F07358B1A1F80080A1F80290524501D034
:10447000624529D10C814D818E8139E0A1F80090EF
:10448000A1F80280524501D0624508D10C814D81CE
:104490008E81624531D1A1F800804B802DE05A45D4
:1044A00008D1A1F808E04FF4285048814FF42C506F
:1044B000888106E0A2F5C85063381ED10C814E8178
:1044C0008D810B804F8018E05A4508D1A1F808E093
:1044D0004FF4285048814FF42C50888106E0A2F513
:1044E000C850633804D10C814D818E810F804B8080
:1044F000624502D10B80A1F80280BDE8F04F002098
:1045000002F072BA280B00202DE9F041354C90469C
:104510000D460246060AA18820462F0A4089A1F5C9
:104520001343413B0CD0A1F5A643103B08D0A1F5A5
:10453000AA43103B10D0A1F5C853633B25D048E0F7
:1045400002F058FC304602F049FCD0B202F046FCC2
:10455000A08902F04FFC36E002F04CFC304602F03D
:104560003DFC6089401C80B202F044FCD0B202F0F5
:1045700035FCA08902F03EFC384602F02FFCA089F1
:10458000401C80B202F036FC20E0A17919B92188E4
:10459000891A491E8AB202F02DFC160A304602F032
:1045A0001DFCD0B202F01AFC304602F017FCD0B26B
:1045B00002F014FCA08902F01DFC384602F00EFC4B
:1045C000E8B202F00BFC384602F008FCE8B202F058
:1045D00005FC054920890880891CA1F80080BDE8F8
:1045E000F0810000280B0020FEFF07602DE9F04F4E
:1045F000FF4895B00025016841F0020101600068A4
:104600004FF0010900F0020000902020CDE91009D0
:104610000320CDE9129010A9F648FDF7BFFCF6483B
:104620004FF02044F5490460C0E901151021C56030
:10463000C0E9045185610902C561C0E909518900D9
:10464000C0E90B5189014563C0E90E510F20462195
:10465000CDE902050491CDE90A50CDE9085009AA37
:1046600002A9E5480F95FEF760FF3220FDF704FC34
:10467000D32002F0BFFB02F085F9DF4A5032908070
:1046800002F080F9908002F07DF94FF6FF7B0BEA93
:104690000020908002F076F9918849F2413A08436F
:1046A000908045F2103645F2105541F6631750459B
:1046B00048D0D42002F09EFB02F064F9908002F012
:1046C00061F9908002F05EF90BEA0020D8469080F4
:1046D00002F058F9918808439080B04232D04FF4EC
:1046E0005A4002F087FB02F04DF990804FF45B4096
:1046F00002F080FB02F046F908EA002090804FF4B7
:104700005C4002F077FB02F03DF99188084390800D
:10471000B0F5004F7ED0A84214D0A12002F06AFB71
:1047200002F030F9908002F02DF908EA0020908024
:1047300002F028F991880843A0F5AE4190806139D4
:1047400000D1978090469188ADA004F047FDB8F85D
:10475000040050457ED1CF2002F04CFB002002F037
:104760003DFBC12002F03AFB302002F037FBED2088
:1047700002F040FB642002F031FB032002F02EFB2C
:10478000122002F02BFB812002F028FBE82002F02F
:1047900031FB852002F022FB102002F01FFB7A2063
:1047A00002F01CFBCB2002F025FB392002F016FBA7
:1047B0002C2002F013FB002002F010FB342002F04A
:1047C0000DFB022002F00AFBF72002F013FB202071
:1047D00002F004FBEA2002F00DFB002002F0FEFADA
:1047E000002002F0FBFAC02002F004FB1B2002F0C4
:1047F000F5FAC12002F0FEFA012002F0EFFAC5201E
:1048000002F0F8FA302002F0E9FA302002F0E6FA7D
:10481000C72000E0B7E002F0EDFAB72002F0DEFAC0
:10482000362002F0E7FA482002F0D8FA3A2002F0E7
:10483000E1FA552002F0D2FAB12002F0DBFA0020B2
:1048400002F0CCFA1A2002F0C9FAB62002F0D2FA2D
:104850000A2000E099E002F0C1FAA22002F0BEFABC
:10486000F22002F0C7FA002002F0B8FA262002F087
:10487000C1FA012002F0B2FAE02002F0BBFA0F20E8
:1048800002F0ACFA2A2002F0A9FA282002F0A6FAD7
:10489000082002F0A3FA0E2002F0A0FA082002F08D
:1048A0009DFA542002F09AFAA92002F097FA4320C8
:1048B00002F094FA0A2002F091FA0F2002F08EFA28
:1048C000002002F08BFA002002F088FA002002F0AB
:1048D00085FA002002F082FAE12002F08BFA002033
:1048E00002F07CFA152002F079FA172002F076FA2D
:1048F000072002F073FA112002F070FA062002F08D
:104900006DFA2B2002F06AFA562002F067FA3C207A
:1049100002F064FA052002F061FA102002F05EFA5B
:104920000F2002F05BFA3F2002F058FA3F2002F01D
:1049300055FA0F2002F052FA2B2002F05BFA002009
:1049400002F04CFA002002F049FA012002F046FA87
:104950003F2002F043FA2A2002F04CFA002002F035
:104960003DFA002002F03AFA002002F037FAEF2078
:1049700002F034FA112002F03DFA7820FDF77CFABB
:10498000292001F011BF9580DCE6B0427ED1ED20F8
:1049900002F030FA012002F021FAFE2002F01EFAA5
:1049A000EE2002F027FADE2002F018FA212002F0B1
:1049B00015FAF12002F01EFA012002F00FFADF20B2
:1049C00002F018FA102002F009FAC42002F012FADC
:1049D0008F2002F003FAC62002F00CFA002002F049
:1049E000FDF9E22002F0FAF9E22002F0F7F90FE017
:1049F0003038024000040240D80A0020040100A020
:104A0000204C43442049443A25780D0A0000000018
:104A1000E22002F0E3F9BF2002F0ECF9AA2002F054
:104A2000DDF9B02002F0E6F90D2002F0D7F9002000
:104A300002F0D4F90D2002F0D1F9002002F0CEF9F5
:104A4000112002F0CBF9002002F0C8F9192002F081
:104A5000C5F9002002F0C2F9212002F0BFF90020C0
:104A600002F0BCF92D2002F0B9F9002002F0B6F9ED
:104A70003D2002F0B3F9002002F0B0F95D2002F011
:104A8000ADF9002002F0AAF95D2000E0FEE302F09B
:104A9000A5F9002002F0A2F9B12002F0ABF98020C4
:104AA00002F09CF9002002F099F98B2002F096F9AF
:104AB000002002F093F9962002F090F9002002F015
:104AC0008DF9B22002F096F9002002F087F900205B
:104AD00002F084F9022002F081F9002002F07EF950
:104AE000032002F07BF9002002F078F9B32002F0F5
:104AF00081F9002002F072F9002002F06FF9002025
:104B000002F06CF9002002F069F9002002F066F969
:104B1000002002F063F9002002F060F9002002F0AA
:104B20005DF9002002F05AF9002002F057F9002048
:104B300002F054F9002002F051F9002002F04EF981
:104B4000002002F04BF9002002F048F9002002F0AA
:104B500045F9002002F042F9002002F03FF9002060
:104B600002F03CF9002002F039F9002002F036F999
:104B7000002002F033F9002002F030F9002002F0AA
:104B80002DF9B42002F036F98B2002F027F900202D
:104B900002F024F9962002F021F9002002F01EF91B
:104BA000A12002F01BF9002002F018F9B52002F054
:104BB00021F9022002F012F9002002F00FF903207F
:104BC00002F00CF9002002F009F9042002F006F9C5
:104BD000002002F003F9B62002F00CF9002002F0E8
:104BE000FDF8002002F0FAF8B72002F003F90020E7
:104BF00002F0F4F8002002F0F1F83F2002F0EEF8A5
:104C0000002002F0EBF85E2002F0E8F8002002F04D
:104C1000E5F8642002F0E2F8002002F0DFF88C20D2
:104C200002F0DCF8002002F0D9F8AC2002F0D6F84F
:104C3000002002F0D3F8DC2002F0D0F8002002F0CF
:104C4000CDF8702002F0CAF8002002F0C7F89020DA
:104C500002F0C4F8002002F0C1F8EB2002F0BEF828
:104C6000002002F0BBF8DC2002F0B8F8002002F0CF
:104C7000B5F8B82002F0BEF8002002F0AFF800202E
:104C800002F0ACF8002002F0A9F8002002F0A6F82B
:104C9000002002F0A3F8002002F0A0F8002002F0AB
:104CA0009DF8002002F09AF8BA2002F0A3F8242020
:104CB00002F094F8002002F091F8002002F08EF843
:104CC000002002F08BF8C12002F094F8202002F0BE
:104CD00085F8002002F082F8542002F07FF80020CE
:104CE00002F07CF8FF2002F079F8002002F076F85C
:104CF000C22002F07FF80A2002F070F8002002F0D3
:104D00006DF8042002F06AF8002002F067F8C32072
:104D100002F070F83C2002F061F8002002F05EF82A
:104D20003A2002F05BF8002002F058F8392002F037
:104D300055F8002002F052F8372002F04FF800201A
:104D400002F04CF83C2002F049F8002002F046F84E
:104D5000362002F043F8002002F040F8322002F042
:104D60003DF8002002F03AF82F2002F037F800203A
:104D700002F034F82C2002F031F8002002F02EF876
:104D8000292002F02BF8002002F028F8262002F05B
:104D900025F8002002F022F8242002F01FF800205D
:104DA00002F01CF8242002F019F8002002F016F896
:104DB000232002F013F8002002F010F83C2002F04B
:104DC0000DF8002002F00AF8362002F007F8002063
:104DD00002F004F8322002F001F8002001F0FEFF9A
:104DE0002F2001F0FBFF002001F0F8FF2C2001F044
:104DF000F5FF002001F0F2FF292001F0EFFF002075
:104E000001F0ECFF262001F0E9FF002001F0E6FFB1
:104E1000242001F0E3FF002001F0E0FF242001F056
:104E2000DDFF002001F0DAFF232001F0D7FF002092
:104E300001F0D4FFC42001F0DDFF622001F0CEFFBD
:104E4000002001F0CBFF052001F0C8FF002001F099
:104E5000C5FF842001F0C2FF002001F0BFFFF02059
:104E600001F0BCFF002001F0B9FF182001F0B6FFEF
:104E7000002001F0B3FFA42001F0B0FF002001F0FA
:104E8000ADFF182001F0AAFF002001F0A7FF50207D
:104E900001F0A4FF002001F0A1FF0C2001F09EFF13
:104EA000002001F09BFF172001F098FF002001F087
:104EB00095FF952001F092FF002001F08FFFF32075
:104EC00001F08CFF002001F089FFE62001F086FF51
:104ED000002001F083FFC52001F08CFF322001F09B
:104EE0007DFF002001F07AFF442001F077FF0020D1
:104EF00001F074FF652001F071FF002001F06EFFEA
:104F0000762001F06BFF002001F068FF882001F09F
:104F100065FF002001F062FFC62001F06BFF20203A
:104F200001F05CFF002001F059FF172001F056FF4F
:104F3000002001F053FF012001F050FF002001F09C
:104F40004DFFC72001F056FF002001F047FF002071
:104F500001F044FF002001F041FF002001F03EFF7E
:104F6000C82001F047FF002001F038FF002001F0C9
:104F700035FF002001F032FF002001F02FFFC92093
:104F800001F038FF002001F029FF002001F026FF8A
:104F9000002001F023FF002001F020FF002001F09D
:104FA0001DFF002001F01AFF002001F017FF002074
:104FB00001F014FF002001F011FF002001F00EFFAE
:104FC000002001F00BFF002001F008FF002001F09D
:104FD00005FF002001F002FF002001F0FFFE00208D
:104FE00001F0FCFEE02001F005FF162001F0F6FEC6
:104FF000002001F0F3FE1C2001F0F0FE002001F083
:10500000EDFE212001F0EAFE002001F0E7FE36204F
:1050100001F0E4FE002001F0E1FE462001F0DEFE9A
:10502000002001F0DBFE522001F0D8FE002001F04C
:10503000D5FE642001F0D2FE002001F0CFFE7A20E0
:1050400001F0CCFE002001F0C9FE8B2001F0C6FE6D
:10505000002001F0C3FE992001F0C0FE002001F005
:10506000BDFEA82001F0BAFE002001F0B7FEB92075
:1050700001F0B4FE002001F0B1FEC42001F0AEFE4C
:10508000002001F0ABFECA2001F0A8FE002001F0D4
:10509000A5FED22001F0A2FE002001F09FFED92043
:1050A00001F09CFE002001F099FEE02001F096FE48
:1050B000002001F093FEF32001F090FE002001F0AB
:1050C0008DFEE12001F096FE162001F087FE002003
:1050D00001F084FE1C2001F081FE002001F07EFE24
:1050E000222001F07BFE002001F078FE362001F046
:1050F00075FE002001F072FE452001F06FFE0020D9
:1051000001F06CFE522001F069FE002001F066FE05
:10511000642001F063FE002001F060FE7A2001F0BF
:105120005DFE002001F05AFE8B2001F057FE0020AA
:1051300001F054FE992001F051FE002001F04EFED6
:10514000A82001F04BFE002001F048FEB92001F03C
:1051500045FE002001F042FEC42001F03FFE002089
:1051600001F03CFECA2001F039FE002001F036FEBD
:10517000D22001F033FE002001F030FED82001F0F3
:105180002DFE002001F02AFEE02001F027FE002085
:1051900001F024FEF32001F021FE002001F01EFEAC
:1051A000E22001F027FE052001F018FE002001F0AA
:1051B00015FE0B2001F012FE002001F00FFE1B2057
:1051C00001F00CFE002001F009FE342001F006FE83
:1051D000002001F003FE442001F000FE002001F059
:1051E000FDFD4F2001F0FAFD002001F0F7FD6120E8
:1051F00001F0F4FD002001F0F1FD792001F0EEFD59
:10520000002001F0EBFD882001F0E8FD002001F016
:10521000E5FD972001F0E2FD002001F0DFFDA62072
:1052200001F0DCFD002001F0D9FDB72001F0D6FD32
:10523000002001F0D3FDC22001F0D0FD002001F0DC
:10524000CDFDC72001F0CAFD002001F0C7FDD1202F
:1052500001F0C4FD002001F0C1FDD62001F0BEFD2B
:10526000002001F0BBFDDD2001F0B8FD002001F0C1
:10527000B5FDF32001F0B2FD002001F0AFFDE32009
:1052800001F0B8FD052001F0A9FD00E00AE30020CF
:1052900001F0A4FD0A2001F0A1FD002001F09EFD17
:1052A0001C2001F09BFD002001F098FD332001F04F
:1052B00095FD002001F092FD442001F08FFD0020BB
:1052C00001F08CFD502001F089FD002001F086FDE9
:1052D000622001F083FD002001F080FD782001F0C4
:1052E0007DFD002001F07AFD882001F077FD00208F
:1052F00001F074FD972001F071FD002001F06EFDBA
:10530000A62001F06BFD002001F068FDB72001F040
:1053100065FD002001F062FDC22001F05FFD00206C
:1053200001F05CFDC72001F059FD002001F056FDA1
:10533000D12001F053FD002001F050FDD52001F0F7
:105340004DFD002001F04AFDDD2001F047FD002069
:1053500001F044FDF32001F041FD002001F03EFD8D
:10536000E42001F047FD012001F038FD002001F0AC
:1053700035FD012001F032FD002001F02FFD02205B
:1053800001F02CFD002001F029FD2A2001F026FD6E
:10539000002001F023FD3C2001F020FD002001F061
:1053A0001DFD4B2001F01AFD002001F017FD5D20CE
:1053B00001F014FD002001F011FD742001F00EFD3C
:1053C000002001F00BFD842001F008FD002001F019
:1053D00005FD932001F002FD002001F0FFFCA2205A
:1053E00001F0FCFC002001F0F9FCB32001F0F6FC18
:1053F000002001F0F3FCBE2001F0F0FC002001F0E1
:10540000EDFCC42001F0EAFC002001F0E7FCCD2017
:1054100001F0E4FC002001F0E1FCD32001F0DEFC0F
:10542000002001F0DBFCDD2001F0D8FC002001F0C1
:10543000D5FCF32001F0D2FC002001F0CFFCE520E8
:1054400001F0D8FC002001F0C9FC002001F0C6FCEE
:10545000002001F0C3FC002001F0C0FC022001F09C
:10546000BDFC002001F0BAFC292001F0B7FC0020AF
:1054700001F0B4FC3C2001F0B1FC002001F0AEFCD6
:105480004B2001F0ABFC002001F0A8FC5D2001F0F6
:10549000A5FC002001F0A2FC742001F09FFC00207C
:1054A00001F09CFC842001F099FC002001F096FCA6
:1054B000932001F093FC002001F090FCA22001F069
:1054C0008DFC002001F08AFCB32001F087FC002055
:1054D00001F084FCBE2001F081FC002001F07EFC84
:1054E000C42001F07BFC002001F078FCCD2001F00D
:1054F00075FC002001F072FCD32001F06FFC00204D
:1055000001F06CFCDC2001F069FC002001F066FC7D
:10551000F32001F063FC002001F060FCE62001F0C4
:1055200069FC112001F05AFC002001F057FC3420E6
:1055300001F054FC002001F051FC562001F04EFC1B
:10554000002001F04BFC762001F048FC002001F027
:1055500045FC772001F042FC002001F03FFC662072
:1055600001F03CFC002001F039FC882001F036FC01
:10557000002001F033FC992001F030FC002001F004
:105580002DFCBB2001F02AFC002001F027FC992013
:1055900001F024FC002001F021FC662001F01EFC3B
:1055A000002001F01BFC552001F018FC002001F048
:1055B00015FC552001F012FC002001F00FFC4520E5
:1055C00001F00CFC002001F009FC432001F006FC76
:1055D000002001F003FC442001F000FC002001F059
:1055E000FDFBE72001F006FC322001F0F7FB002074
:1055F00001F0F4FB552001F0F1FB002001F0EEFB7F
:10560000762001F0EBFB002001F0E8FB662001F0C2
:10561000E5FB002001F0E2FB672001F0DFFB00204A
:1056200001F0DCFB672001F0D9FB002001F0D6FB84
:10563000872001F0D3FB002001F0D0FB992001F07E
:10564000CDFB002001F0CAFBBB2001F0C7FB00200E
:1056500001F0C4FB992001F0C1FB002001F0BEFB6A
:10566000772001F0BBFB002001F0B8FB442001F0E3
:10567000B5FB002001F0B2FB562001F0AFFB00208B
:1056800001F0ACFB232001F0A9FB002001F0A6FBF8
:10569000332001F0A3FB002001F0A0FB452001F026
:1056A0009DFB002001F09AFBE82001F0A3FB002005
:1056B00001F094FB002001F091FB992001F08EFB9A
:1056C000002001F08BFB872001F088FB002001F017
:1056D00085FB882001F082FB002001F07FFB772012
:1056E00001F07CFB002001F079FB662001F076FBE5
:1056F000002001F073FB882001F070FB002001F016
:105700006DFBAA2001F06AFB002001F067FBBB20C3
:1057100001F064FB002001F061FB992001F05EFBC9
:10572000002001F05BFB662001F058FB002001F037
:1057300055FB552001F052FB002001F04FFB552096
:1057400001F04CFB002001F049FB442001F046FB36
:10575000002001F043FB442001F040FB002001F059
:105760003DFB552001F03AFB002001F037FBE9201A
:1057700001F040FBAA2001F031FB002001F02EFBDC
:10578000002001F02BFB002001F028FB002001F09D
:1057900031FBAA2001F022FBCF2001F02BFB0020DF
:1057A00001F01CFB002001F019FB002001F016FBAA
:1057B000002001F013FB002001F010FB002001F09D
:1057C0000DFB002001F00AFB002001F007FB002088
:1057D00001F004FB002001F001FB002001F0FEFAC3
:1057E000002001F0FBFA002001F0F8FA002001F09F
:1057F000F5FA002001F0F2FA002001F0EFFA0020A3
:1058000001F0ECFAF02001F0F5FA002001F0E6FAE0
:10581000502001F0E3FA002001F0E0FA002001F04E
:10582000DDFA002001F0DAFAF32001F0E3FA0020BB
:1058300001F0D4FAF92001F0DDFA062001F0CEFAE9
:10584000102001F0CBFA292001F0C8FA002001F065
:10585000C5FA3A2001F0CEFA552001F0BFFA112026
:1058600001F0C8FA6420FCF707FB292001F0C2FA16
:10587000352001F0BFFA002001F0B0FA512001F00C
:10588000B9FAFF2001F0AAFA532001F0B3FA2C2054
:1058900001F0A4FA552001F0ADFA822001F09EFA41
:1058A0002C20FDE3A8427CD14FF4704355211846CB
:1058B00001F0B6FAAA214FF2010001F0B1FA52212B
:1058C0004FF2020001F0ACFA08214FF2030001F0A0
:1058D000A7FA01214FF2040001F0A2FA0D214FF4C2
:1058E000304001F09DFA0D214BF2010001F098FAD1
:1058F0000D214BF2020001F093FA34214FF43640AF
:1059000001F08EFA34214BF2016001F089FA342162
:105910004BF2026001F084FA0D214FF4314001F0A6
:105920007FFA0D214BF2011001F07AFA0D214BF2B2
:10593000021001F075FA34214FF4374001F070FA8B
:1059400034214BF2017001F06BFA34214BF20270FA
:1059500001F066FA00214FF4324001F061FA0021B3
:105960004BF2012001F05CFA00214BF2022001F021
:1059700057FA24214FF4384001F052FA24214BF613
:10598000010001F04DFA24214BF6020001F048FA23
:1059900001214FF43F4001F043FA0F214FF433400F
:1059A00000E0FCE301F03CFA0F214BF2013001F082
:1059B00037FA0F214BF2023001F032FA34214FF462
:1059C000394001F02DFA34214BF6011001F028FA8C
:1059D00034214BF6021001F023FA08214FF4354030
:1059E00001F01EFA08214BF2015001F019FA0821CA
:1059F0004BF2025001F014FA03214FF4424001F03F
:105A00000FFA24214FF43A4001F00AFA24214BF610
:105A1000012001F005FA24214BF6022001F000FAE2
:105A200000214FF43C4001F0FBF978214BF6014096
:105A300001F0F6F900214BF6024001F0F1F90021E6
:105A40004FF43D4001F0ECF978214BF6015001F0A4
:105A5000E7F900214BF6025001F0E2F900214FF482
:105A60003E4001F0DDF964214BF6016001F0D8F908
:105A700000214FF4514001F0D3F933214DF20110D0
:105A800001F0CEF900214DF2021001F0C9F93421E4
:105A90004DF2031001F0C4F900214DF2041001F0A1
:105AA000BFF93A214DF2051001F0BAF900214DF28B
:105AB000061001F0B5F94A214DF2071001F0B0F9D6
:105AC00000214DF2081001F0ABF95C214DF20910F4
:105AD00001F0A6F900214DF20A1001F0A1F981218F
