:020000040800F2
:10000000D8400020C1020008372D00084D23000809
:10001000352D0008A11D00087D4C000800000000DF
:10002000000000000000000000000000953C0008F7
:100030004521000800000000053B0008BD40000805
:10004000DB020008DB020008DB020008DB0200081C
:10005000DB020008DB020008DB020008DB0200080C
:10006000DB020008DB020008DB020008DB020008FC
:10007000DB020008DB020008DB020008DB020008EC
:10008000DB020008DB020008DB020008DB020008DC
:10009000DB020008DB020008DB020008DB020008CC
:1000A000DB020008DB020008DB020008DB020008BC
:1000B00099410008F544000861450008DB0200088A
:1000C000DB020008DB020008DB020008DB0200089C
:1000D000DB020008DB020008B1490008DB0200086F
:1000E000DB020008DB020008DB020008DB0200087C
:1000F000DB020008DB020008DB020008DB0200086C
:10010000DB020008DB020008DB020008DB0200085B
:10011000DB020008DB020008DB020008DB0200084B
:10012000DB020008DB020008DB020008DB0200083B
:1001300000F002F800F0B4F80AA090E8000C824445
:100140008344AAF10107DA4501D100F0A9F8AFF222
:10015000090EBAE80F0013F0010F18BFFB1A43F0A5
:10016000010318472CA700004CA7000010F8013B22
:100170000A4413F0030408BF10F8014B1D1108BF17
:1001800010F8015B641E05D010F8016B641E01F8C5
:10019000016BF9D1002D15D010F8014B03F00C03C1
:1001A0000C2BA1EB04040ABF10F8013BA4EB831451
:1001B000A4EB032405F1010314F8016B5B1E01F8A5
:1001C000016BF9D5914238BF10F8013BD1D370478C
:1001D0000023002400250026103A28BF78C1FBD850
:1001E000520728BF30C148BF0B6070476E2900F02E
:1001F0005C83702900F0B584662906F026846529A1
:1002000006F02384672906F020846129AFF300807B
:1002100003681B0A28BF41F08001692900F0C480EF
:10022000642900F0C180752900F0BE806F2900F0BC
:100230004384782900F08184E92900F0DD83E429F2
:1002400000F0DA83F52900F0D783EF2900F040842D
:10025000F82900F080840368DB0928BF41F08001A1
:10026000632900F05E83732900F06383E32900F0C3
:100270001187F32900F01687002070471FB500F0A2
:1002800063FF04000020002105F098FE401C606020
:100290000020002105F07CFEE0601FBD10B510BD00
:1002A00000F024FF1146FFF7E9FF05F055F900F0D3
:1002B000FDFF03B4FFF7F2FF03BC05F04AF90000AD
:1002C0000948804709480047FEE7FEE7FEE7FEE7EA
:1002D000FEE7FEE7FEE7FEE7FEE7FEE70448054926
:1002E000054A064B70470000C14000083101000874
:1002F000D83A0020D8400020D83C0020D83C00202C
:10030000704700001CB50C46064B7B4469460090C4
:10031000204600F0E4FA04460020694600F0F2FAB4
:1003200020461CBDF70500000FB41CB5084B06AAFB
:100330007B4469460090059800F0D1FA04460020FD
:10034000694600F0DFFA20461CBC5DF814FB000093
:10035000D105000070B50C460546012A05D0287865
:10036000800600D5EA69002302E0012305E05B1C5A
:10037000934202D2E05C0028F9D1A869E618C01ABD
:10038000A861286A18442862284600F0FCF904E0B5
:10039000D5E9012114F8010B9047B442F8D328465F
:1003A00000F007FA70BD00002DE9F0410646002478
:1003B00010687529314616A510D000F00BFA0028F8
:1003C00002DA404213A507E031688A0701D512A579
:1003D00002E0490704D511A5012401E000F003FA69
:1003E00000210A2206F1240709E0B0FBF2FCB0FB71
:1003F000F2F302FB1C00303078541846491C0028E8
:10040000F3D123462A463046BDE8F04100F0F4B966
:10041000000000002D0000002B0000002000000064
:100420002DE9F05F894604464FF0000ADFF874B109
:10043000FB44C0F820A02046E1688847002874D01B
:10044000252806D0D4E901219047206A401C20626B
:10045000F1E700265F462046E168884720280546E8
:1004600007DB312D05D2781910F8200C08B10643AE
:10047000F1E7B00701D526F00406C4F81CA0002758
:10048000C4F818A02A2D09D0284605F05BF838B327
:1004900004EB8708303DC8F8185019E059F8041BE0
:1004A000204604EB87029161E1688847012F0546E9
:1004B00018D1E069002820DA26F020061DE0D8F8DF
:1004C000180000EB800005EB40003038C8F8180039
:1004D0002046E1688847054605F034F80028EED14B
:1004E000012F0AD02E2D08D12046E16888477F1CB5
:1004F0000546022F46F02006C4DBA069002803DA77
:10050000404246F00106A061F00701D026F0100637
:100510006C2D0BD0682D09D04C2D39D06A2D35D0DB
:10052000742D35D07A2D33D016E038E0E1682F46AF
:1005300020468847B842054609D16C2F26D04FF493
:100540008060E168064320468847054604E06C2F3A
:100550001AD04FF4807006430DB3A5F1410019285D
:1005600002D8203546F400664A46294620462660D1
:100570004E46FFF73BFE80B101280BD0F61D26F05A
:10058000070000F1080956E74020E4E78020D8E79B
:100590000020D6E706F104094DE7284652E7206A15
:1005A000BDE8F09F18A3000030B505460B462A466B
:1005B00013F8014B12F8010B08B1A042F8D01CB19E
:1005C000002802D06D1CF1E7284630BD40EA010347
:1005D00010B59B070FD1042A0DD310C808C9121FEC
:1005E0009C42F8D020BA19BA884201D9012010BD26
:1005F0004FF0FF3010BD1AB1D30703D0521C07E0F3
:10060000002010BD10F8013B11F8014B1B1B07D156
:1006100010F8013B11F8014B1B1B01D1921EF1D1C7
:10062000184610BD10B5431C02E010F8011B71B153
:100630008107FAD14FF0013202C88C1A8C4314EAB8
:10064000C211F9D0C01A0A0603D0C01E10BDC01ACC
:1006500010BD0A0401D0801E10BD0902FCD0401E4E
:1006600010BD032A40F2308010F0030C00F015801A
:1006700011F8013BBCF1020F624498BF11F801CBA5
:1006800000F8013B38BF11F8013BA2F1040298BF0A
:1006900000F801CB38BF00F8013B11F0030300F074
:1006A0006B82083AC0F0088051F8043B083A51F8D0
:1006B00004CBA0E80810F5E7121D5CBF51F8043B1D
:1006C00040F8043BAFF30080D20724BF11F8013B90
:1006D00011F801CB48BF11F8012B24BF00F8013BF2
:1006E00000F801CB48BF00F8012B70474FF0000223
:1006F0000429C0F0128010F0030C00F01B80CCF134
:10070000040CBCF1020F18BF00F8012BA8BF20F8A1
:10071000022BA1EB0C0100F00DB85FEAC17C24BFF5
:1007200000F8012B00F8012B48BF00F8012B70479F
:100730004FF0000200B5134694469646203922BF7A
:10074000A0E80C50A0E80C50B1F12001BFF4F7AFC5
:10075000090728BFA0E80C5048BF0CC05DF804EBA7
:10076000890028BF40F8042B08BF704748BF20F815
:10077000022B11F0804F18BF00F8012B7047704713
:1007800070477047704770B5044685690068C106B8
:1007900001D5302600E02026C00707D070BDD4E97F
:1007A000012130469047206A401C20626D1EF6D51C
:1007B00070BD70B5044685690078C00707D170BD6B
:1007C000D4E9012120209047206A401C20626D1E40
:1007D000F6D570BD09684A0501D540B27047C90514
:1007E000FCD500B2704709684A0501D5C0B2704710
:1007F000C905FCD580B270472DE9F0470D469946F2
:100800009246044600F124080168880604D5E06990
:1008100021F01001216000E00120A84201DD471B0A
:1008200000E00027A1697A1902EB0900081AA0610B
:100830002078C00602D42046FFF7A5FF002608E076
:10084000D4E901211AF806009047206A401C761C62
:1008500020624E45F4DB2078C0060AD52046FFF71B
:1008600092FF06E0D4E9012130209047206A401C25
:100870002062381EA7F10107F4DC07E0D4E901216A
:1008800018F805009047206A401C2062281EA5F138
:100890000105F3DC2046FFF78CFF2078000602D527
:1008A0000220BDE8F0870120FBE711680268006ABA
:1008B000530501D508700AE0D30501D5088006E08C
:1008C000130603D5C217C1E9000200E00860012049
:1008D0007047000001694A1C02610878704700B542
:1008E0008FB0CDE901310021059105497944CDE969
:1008F000031011466846FFF793FD0FB000BD0000DE
:10090000E5FFFFFF0A6802F8010B0A60704710B5A7
:10091000436913B1AFF3008001E0FFF71BFD012035
:1009200010BD127800F124010A7000224A700122E1
:10093000EDE711684FF0FF32E9E700002DE9FF5FB6
:1009400015468A460446DFF8AC80F8440027D8E90B
:1009500000103E46CDE9001010E03AF816106A4645
:1009600002A800F0A3FB411C07D02178890603D51B
:10097000E269391891420DD80744761C2078800628
:1009800002D5E069B84205DDAE42E6DB3AF8160072
:100990000028E2D1A069C01BA0612046FFF7F3FE4A
:1009A000D8E90010CDE90010002017E03AF818103F
:1009B0006A4602A800F07AFBB0F1FF3F81460BD0F7
:1009C00000250DF1080B05E0D4E901211BF8050015
:1009D00090476D1C4D45F7D308F10100B0428046A9
:1009E000E4DB206A384420622046FFF7E2FEBDE8DF
:1009F000FF9F0000129E00002DE9F0418046D21DAD
:100A000022F007020025D2E90002F52915A614D02C
:100A1000011E72F1000106DA0023D0EB030063EB44
:100A2000020211A608E0D8F800108B0701D50FA626
:100A300002E0490701D50EA601251146002408F160
:100A4000240704E000F0CAF830323A55641C50EA3A
:100A50000102F7D12B46324621464046BDE8F0411F
:100A6000FFF7CABE000000002D0000002B000000B0
:100A70002000000030B4002100F1240408E002F05E
:100A80000705D208303542EA4372DB086554491C39
:100A900052EA0305F3D10468002310A2250708D504
:100AA00004F020040C4304D0C46901230CA2641E8A
:100AB000C46130BCFFF7A0BE10B5044621461068E3
:100AC000FFF791FE02462046BDE810400023D1E723
:100AD000D21D22F00701D1E90023CBE7000000007E
:100AE00030000000F0B40D460188090502D5214C04
:100AF0007C4402E01F4C7C440E34002100F12406AB
:100B000008E002F00F071209E75D42EA03721B09D1
:100B10007754491C52EA0307F3D1027800231207E5
:100B200004D5702D06D009B1022311342246F0BC41
:100B3000FFF762BE01231034F8E770B504460D4696
:100B400021461068FFF74FFE024629462046BDE8C1
:100B500070400023C6E7D21D22F00703D3E900232B
:100B6000C0E70368126843F0200303600823C361F1
:100B70000023B7E7749C000010B5203AC0F00B804A
:100B8000B1E81850203AA0E81850B1E81850A0E891
:100B90001850BFF4F5AF5FEA027C24BFB1E81850EB
:100BA000A0E8185044BF18C918C0BDE810405FEA5B
:100BB000827C24BF51F8043B40F8043B08BF7047D7
:100BC000D20728BF31F8023B48BF11F8012B28BFDC
:100BD00020F8023B48BF00F8012B704730B5B0F158
:100BE0000A024FEA900E71F100034EEA817EB0EBEB
:100BF0000E0061EB91014FEA101E4EEA017E10EBF0
:100C00000E0041EB11114FEA102E4EEA016E10EB6F
:100C10000E0041EB11214FEA104E4EEA014E10EB4F
:100C20000E0041EB1141401841F100014FEAD000A4
:100C300040EA41704FEAD10110EB80054FEA810490
:100C400044EA907444EB01046D1944EB0404521B14
:100C5000A3414FF0000348BF0A3200D530BD401C0D
:100C600041F1000130BD70472DE9FF4F0C461E4693
:100C70004FF0FF378BB0D2E90001DDF860800A90B9
:100C80008A46C1F30A5505B93D46002108464FF092
:100C90000000BAF1000F00F4400005DA00EB80001C
:100CA0004FF4400101EA50004FEA9059B9F1010FA9
:100CB00000DDB9460A9850EA4A000ED044F61050BA
:100CC000A5F2FF3545432F14B8F1000F1ED0754231
:100CD000291E1EDDC9F100021CE0B8F1010F4FF022
:100CE000000001D0302103E0F24305E02154401C14
:100CF000B042FBDB30460022002121540B99C1F8A1
:100D00000880C1E900200FB0BDE8F08FBD1B6D1C4D
:100D1000DEE74A4600DA694206A800F059FA06AB57
:100D200093E8070003AB83E8070050460A9900F0F8
:100D30000BFB8DE80700A0F500501F3800900398CA
:100D4000002D09DD42F21F014A46084403A9039021
:100D5000684600F06AFD08E0A0F500504A461F38DA
:100D600003A90390684600F074FD8DE807000004B5
:100D7000000C03D04FF0FF30410800E01046B8F1FE
:100D8000000F03D00022009215461EE0751E05D408
:100D9000FFF724FF303262556D1EF9D5B3460122AC
:100DA000084302D000227F1C04E02078302801D1C3
:100DB00000227F1E002A099786D01DE0112D07DA38
:100DC000FFF70CFF303262556D1C50EA0102F5D17D
:100DD000084302D00098C8B10EE00021681E05E06B
:100DE000235C625C63542254401E491C8142F7DB41
:100DF000AB46A81B401E0990002004F80B000B987E
:100E0000099AC0F80880C0E9002B7CE711264FF052
:100E1000000859E72DE9F04F88460446D21D22F01C
:100E2000070191B0D1E90001CDE90A0104F076FB98
:100E300002460B98C00F01D02D2007E020688107E3
:100E400001D52B2002E0202101EAC000032A0990ED
:100E500001D0072A05DB03464146204600F078F919
:100E60000BE12078800601D5E06900E00620B8F1AA
:100E7000650F814606D0B8F1660F18D0B8F1670F3C
:100E800070D131E00020B9F1110F009001DB112386
:100E900001E009F101030AAA01A90CA8FFF7E4FE89
:100EA000DDE90C70002609F10105834647E00120C9
:100EB0004B4600904FF000470AAA01A90CA8FFF783
:100EC000D3FEDDE90DB00C995D46002610B909F19D
:100ED00001000D18B9EB050003D4C0F1FF3609F18C
:100EE0000105A5EB09002BE0B9F1010F01DA4FF084
:100EF00001090020B9F1110F0090484601DD1123CE
:100F000000E003460AAA01A90CA8FFF7ADFEDDE93F
:100F10000C704D4600268346207800070AD4AB4566
:100F200000DA5D4601A8012D04DD411911F8011C0C
:100F3000302907D04F4502DA17F1040F04DA0120F7
:100F400082460FE06D1EEEE7002F02DCED1B3E44F3
:100F500003E0781CA84200DD7D1CB81B00F1010AEB
:100F60004FF000472078000703D4AA4501DB4FF07B
:100F7000FF3A0021B7F1004F0DF143088DF84310FF
:100F800024D002202B23002F01DA7F422D230A21B7
:100F9000021EA0F1010000DC5FB197FBF1FC97FBA2
:100FA000F1F201FB1C7C17460CF1300C08F801CD66
:100FB000EEE7A8F1010003702188090501D545215C
:100FC00000E06521A0F1010800F8011C09980FA9B3
:100FD000A1EB0807FF1D00B10120411901EBEA70E8
:100FE000A1693844081A401EA0612078C00602D4C6
:100FF0002046FFF7C8FB099828B1D4E901219047A2
:10100000206A401C20622078C00622D52046FFF7C7
:10101000BAFB1EE0002E04DBB34502DD01A8805DB3
:1010200000E03020D4E901219047206A401C206272
:10103000761CAAF101005FEA000A0AD100F084F8E8
:10104000C0680168405CD4E901219047206A401CD7
:101050002062281EA5F10105DCDC07E0D4E90121AE
:1010600018F8010B9047206A401C2062381EA7F137
:101070000107F3DC2046FFF79CFB032011B043E699
:1010800010B5436913B1AFF3008001E0FFF756FCE0
:10109000012010BD128800F1240182840022C28444
:1010A0000122EDE711684FF0FF32E9E770B516460F
:1010B0000C46054600F040F8036893F8010101284A
:1010C00006D0FF2C0FD8185D68B101202C7070BDC0
:1010D000D3F807013246214603F20713034428469A
:1010E000BDE8704018474FF0FF3070BD754600F006
:1010F000E7F8AE4605006946534620F007008546EE
:1011000018B020B5FFF7EAF8BDE820404FF0000620
:101110004FF000074FF000084FF0000B21F00701DF
:10112000AC46ACE8C009ACE8C009ACE8C009ACE822
:10113000C0098D467047000010B500F005F8001D8D
:1011400010BD00BF794E000000487047983A00205B
:101150002DE9F0411F46044603260168072A01F4E1
:10116000006004DB08B116A505E016A503E008B190
:1011700015A500E015A521F010002060A069C01E93
:10118000A0610FB1401EA0612046FFF7FCFA4FB1ED
:10119000D4E9012138469047206A401C2062C01CD7
:1011A000206206E0206AFAE7D4E9012115F8010B74
:1011B0009047761EF8D22046FFF7FBFABDE8F08193
:1011C0004E414E006E616E00494E4600696E6600EB
:1011D0002DE9F047814616468AB0334878440DC859
:1011E0008DE80D0030487844801C03AC0DC884E8BD
:1011F0000D0041F69B300844372190FBF1F290FB43
:10120000F1F5A5F1800501FB12041B3C02D56442F7
:10121000012000E00020DFF890A080460027FA447B
:10122000AAF1BE0A0DE0E00709D03246684607EB96
:1012300047010AEB810100F00CFB8DE80700641008
:101240007F1C002CEFD1184F7F44AC3F18E0E8071B
:1012500014D007EB04100DF1180A90E80E008AE88C
:101260000E00C068F04201D198190890324606A9D4
:1012700003A800F0EEFA03AB83E807006D10641CCE
:10128000002DE4D132466946B8F1000F03A802D020
:1012900000F0CBFA01E000F0DCFAC9E90001C9F87E
:1012A00008200AB0BDE8F0872C96000010B504466F
:1012B000AFF300802046BDE81040FEF7FABF000003
:1012C00000487047783A00204FF0013C50F8042B5A
:1012D00051F8043B9A4221D1A2EB0C03934313EA49
:1012E000CC1317D150F8042B51F8043B9A4215D176
:1012F000A2EB0C03934313EACC130BD150F8042B4D
:1013000051F8043B9A4209D1A2EB0C03934313EA30
:10131000CC13DBD04FF00000704700BFD01A01BAE9
:10132000B1FA81F101F0180122FA01F0CB40C1F1CC
:101330002001DBB2C0B2C01A2CFA01F3D11A9143DA
:1013400011EAC311E6D170475FEA400C08BF91F083
:10135000000F4FEA8C234FEAC12243EA51514FEA72
:101360001C5018BF00F5F0404FEA300018BF41F0A4
:1013700000415FEA6C5C00F02980BCF1FF3F08BFD0
:1013800040F080407047130C06BF12044FF0100C61
:101390004FF0000C130E04BF12020CF1080C130FD7
:1013A00004BF12010CF1040C930F04BF92000CF166
:1013B000020CD30F04BF52000CF1010C11464FF088
:1013C0000002A0F11F00A0EB0C00704711F0004FCD
:1013D00008BF704731F000413FF4D5AF0B0C06BF9A
:1013E00009044FF0100C4FF0000C0B0E04BF090263
:1013F0000CF1080C0B0F04BF09010CF1040C8B0F4E
:1014000004BF89000CF1020CCB0F04BF49000CF1A2
:10141000010CCCF12003A0EB0C0022FA03F302FA3A
:101420000CF241EA030100F10100704720F07F4C0B
:1014300080EA030023F07F47ACEB070303F57C53FE
:1014400000F0004003F1FF032DE980494FEA154BFE
:1014500009B44FEA144325EA0B4E24EA03480FF27D
:10146000042606EB132749083E785FEA320203FBA5
:101470000667C7F5000707FB06F64FEA54374FEA41
:10148000D64606F1020607FB066CCCF1005C4FEA7B
:101490001C472CEA074C07FB06F40CFB06F504EB93
:1014A00015464FEA961634BF00204FF000404FEA31
:1014B000D13706FB07FC4FEA1C4C0CFB0BF7D21B89
:1014C00003FB0CF761EB07010CFB0EF7B0EB0740D9
:1014D00072EB17420CFB08F734BFA2EB0742B2EBEA
:1014E000074261EB17414FEA0C444FEA910706FBB4
:1014F00007FC4FEA1C4C0CFB0BF7B0EBC74072EB40
:10150000573203FB0CF734BFA2EBC742B2EBC74222
:1015100061EB57310CFB0EF7B0EBC70072EB577263
:101520000CFB08F734BFA2EBC702B2EBC70261EBBA
:101530005771039F4FEA816141EA921104EBCC0499
:101540004FEAD1374FEA826206FB07FC42EA90126B
:101550004FEA80604FEA1C4C0CFB0BF7D21B03FBDD
:101560000CF761EB07010CFB0EF7B0EB074072EBD9
:1015700017420CFB08F734BFA2EB0742B2EB07425D
:1015800061EB17414FEA8C554FEA910704EB9C241D
:1015900006FB07FC4FEA1C4C0CFB0BF7B0EBC740FB
:1015A00072EB573203FB0CF734BFA2EBC742B2EB2E
:1015B000C74261EB57310CFB0EF7B0EBC70072EB83
:1015C00057720CFB08F734BFA2EBC702B2EBC7029D
:1015D00061EB577115EB4C254FEA816141EA92119D
:1015E0004FEA82624FEAD13742EA901206FB07FCCB
:1015F00044F100044FEA80604FEA1C4C0CFB0BF7EF
:10160000D21B03FB0CF761EB07010CFB0EF7B0EBF1
:10161000074072EB17420CFB08F734BFA2EB0742FE
:10162000B2EB074261EB174115EB1C154FEA813114
:1016300041EA92414FEA823242EA90424FEA8030D8
:101640004FEA0C7644F1000448EA03434EEA0B48A3
:101650004FF0000EB2EB080C71EB030724BF62469B
:1016600039464EEB0E0E4FF0000B00185241494127
:101670004BEB0B0BB2EB080C71EB03077BF1000B90
:1016800024BF624639464EEB0E0E4FF0000B001899
:10169000524149414BEB0B0BB2EB080C71EB0307CA
:1016A0007BF1000B24BF624639464EEB0E0E51EA29
:1016B000020718BF46F0010616EB0E7655F1000240
:1016C00054F1000103D5BDE88901BDE80088BDE8FB
:1016D0008901BDE80048B619524141EB0101A3F16F
:1016E0000103704780807F7E7D7C7B7A7978777676
:1016F00076757473727171706F6E6E6D6C6C6B6AEF
:101700006A6968686766666564646363626161608C
:10171000605F5F5E5E5D5D5C5C5B5B5A5A59595809
:101720005857575656555555545453535252525173
:10173000515050504F4F4F4E4E4D4D4D4C4C4C4BC9
:101740004B4B4A4A4A494949484848474747474610
:10175000464645454544444444434343434242424C
:1017600042414141002B26D4770021D01CB54FEADD
:10177000370703B44FF010004FF010014FF0000096
:101780000FBCBDE810400BF1010BBBF1010F08BF0E
:101790005FEA170722BF12F1010211F101014FF0B8
:1017A000004143F1000300F0004043EA00007047AD
:1017B000F9D35708DAE746EA064613F1400F4FEA35
:1017C00016461FDD13F1200FDFBF16430A46002126
:1017D00020335B42C8D0C3F1200746EA064602FA2E
:1017E00007F74FEA164646EA0706C3F1200722FA32
:1017F00003F201FA07F721FA03F14FF0000342EA7E
:101800000702B1E746EA020646EA06464FEA1646EE
:1018100046EA0106BCBF46EA0646360C4FF0000316
:101820004FF000024FF000019EE72DE9C0489346BB
:1018300030B491E8380007C831EA400C48BF34EAB8
:10184000430C03D5FFF7F2FDFFF78CFFF0BCBDE8BA
:1018500000882DE9C048934630B491E8380007C8A5
:1018600010F0804F08BF13F0804F03D100F005F84F
:10187000FFF778FFF0BCBDE8008820F07F4780EAE2
:10188000030023F07F4C07EB0C03A3F57C5300F01F
:101890000040A3F1FE0392F0000F00F0B38095F03A
:1018A000000F00F077802DE901494FEA11404FEA1F
:1018B000144621EA004800FB06FC24EA064708FB20
:1018C00006F607FB08F800FB07F718EB06484CEB99
:1018D000164C4FEA124B18EB07484FEA15464CEBF3
:1018E000174022EA0B4E0BFB06FC25EA06470EFBCF
:1018F00006F607FB0EFE0BFB07F71EEB064E4CEB46
:10190000164C4FF000061EEB074E4CEB174B18EB36
:101910000B0840F1000018EB0E0B58EB000840F1EB
:1019200000008F1A4FF000013CBFC943661B14BF73
:10193000B5EB040C00213CBFC943F61B4FEA17442A
:101940004EEA8E0E27EA04454FEA1C4704FB076265
:101950002CEA074C05FB07F70CFB05F604FB0CFC17
:1019600016EB074642EB174216EB0C4642EB1C42C5
:101970001BEB060658EB0202414146EA9E0601D5E2
:10198000BDE80189B619524141EB0101A3F1010300
:10199000BDE801894FEA14454FEA114724EA05469C
:1019A00021EA074C05FB07F406FB07F70CFB06F1E1
:1019B00005FB0CFC11EB074144EB17444FEA1247BF
:1019C00011EB0C4144EB1C4422EA074C05FB07F2E7
:1019D00006FB07F70CFB06F605FB0CFC16EB0746AF
:1019E00042EB174216EB0C4642EB1C456A1854F1C9
:1019F000000148BF7047B619524141EB0101A3F104
:101A00000103704795F0000F37D04FEA11424FEABB
:101A1000144721EA024624EA074C02FB07F106FBC1
:101A200007F70CFB06F402FB0CFC14EB074441EB3C
:101A300017414FEA154714EB0C4441EB1C4125EAD2
:101A4000074C02FB07F506FB07F70CFB06F602FB4B
:101A50000CFC16EB074645EB174516EB0C4645EB21
:101A60001C42121951F1000148BF7047B61952418A
:101A700041EB0101A3F1010370474FEA14454FEA1E
:101A8000114724EA054621EA074C05FB07F106FB4E
:101A900007F70CFB06F24FF0000605FB0CFC12EBFF
:101AA000074241EB174112EB0C4251EB1C4148BF7E
:101AB0007047921841EB0101A3F10103704721B176
:101AC000826842F00102826003E0826822F0010233
:101AD0008260704721B1826842F48072826003E0C4
:101AE000826822F4807282607047014600208A6812
:101AF00002F004020AB1012000E000207047014614
:101B000000208A6802F008020AB1012000E00020EB
:101B10007047000030B502460020002350680F4C8B
:101B200020400D790C6844EA0524204350609068F9
:101B30000B4C2040D1E902542C434D7944EA450432
:101B400020439060D06A20F470000C7C641EE4B2E4
:101B5000234340EA0350D06230BD0000FFFEF0FF97
:101B6000FDF7F1FFF0B504460D4600200021092DD8
:101B700011DDE068A5F10A0606EB4607072606FA1E
:101B800007F18843A5F10A0606EB460603FA06F1BB
:101B90000843E0600CE0206905EB4507072606FADC
:101BA00007F1884305EB450603FA06F10843206177
:101BB000072A0FDA606B561E06EB86071F2606FA09
:101BC00007F18843561E06EB860605FA06F1084320
:101BD000606322E00D2A0FDA206BD61F06EB860722
:101BE0001F2606FA07F18843D61F06EB860605FA7C
:101BF00006F10843206310E0E06AA2F10D0606EB4F
:101C000086071F2606FA07F18843A2F10D0606EBA8
:101C1000860605FA06F10843E062F0BD816841F0EE
:101C200008018160704721B1826842F4A00282609D
:101C300003E0826822F4A00282607047816841F06C
:101C4000040181607047000008B50121042001F003
:101C500097FF0121082001F093FF3020ADF800002C
:101C600000208DF803006946054800F0DBFA0220E9
:101C7000ADF800006946034800F0D4FA08BD000042
:101C800000080140000C014010B5FFF7DDFF00F037
:101C900001F810BD00B591B00121084601F040FFE8
:101CA0000121480201F06CFF3A4800F087F93A48F8
:101CB00006903A480790002008901E2009900020C6
:101CC0000A9080200B9040000C9080000D90202006
:101CD0000E9000020F900020109006A92D4800F0F1
:101CE00013FA01212B4800F05DF90020019001203A
:101CF0008DF808008DF809004FF460200390002053
:101D0000049003208DF8140001A923484C38FFF7F4
:101D100001FF4FF4404001F0F7FE052301220421AA
:101D20001D484C38FFF71EFF0523022219461A48AA
:101D30004C38FFF717FF05230322092116484C38BA
:101D4000FFF710FF012114484C38FFF7C3FE0121B3
:101D500011484C38FFF7B3FE0F484C38FFF75EFFD1
:101D600000BF0D484C38FFF7CAFE0028F9D10A48D9
:101D70004C38FFF763FF00BF07484C38FFF7B5FE4C
:101D80000028F9D1012104484C38FFF74CFF11B06D
:101D900000BD0000080002404C240140840A0020DD
:101DA0007047000008B50121042001F0E9FE202061
:101DB000ADF8000010208DF8030003208DF802001C
:101DC0006946024800F02EFA08BD000000080140F4
:101DD00070B505460C462246294615480068801C09
:101DE000FEF73FFC2046E11704EB1161090A104A97
:101DF00012681170E11704EB11610912A4EB0121C3
:101E00000B4A12685170002109480268A01C115445
:101E10000748006800F596700549086008460068A4
:101E200004490968884202D103480149086070BD2D
:101E3000740000207C0000209422002010B50024B3
:101E40001548006820F00F00134908600846006834
:101E500040F00800086004E0601CC4B2012000F0FB
:101E600099F90E48006808B1642CF5DB642C01DB9D
:101E7000012010BD002404E0601CC4B2012000F069
:101E800089F90648006808B9642CF5DB642C01DB8D
:101E90000120EEE70020ECE7000C01400081214228
:101EA00010B5002404E0601CC4B2012000F072F9F7
:101EB0000D48006808B1642CF5DB002404E0601CC8
:101EC000C4B2012000F066F90748006808B9642C24
:101ED000F5DB282000F05EF90348006808B1012016
:101EE00010BD0020FCE700000081214270B50024F5
:101EF000002506E06006040EFFF7D2FF0443681CCD
:101F0000C5B2082DF6DB204670BD7CB505460E46F1
:101F100000F028F8FFF792FFF8B9002405E0FFF77A
:101F2000E5FF0DF80400601CC4B2052CF7DB9DF83A
:101F300000009DF8011008449DF8021008449DF827
:101F4000031008449DF80410884208D19DF8000051
:101F500030709DF80200287001E001207CBD002057
:101F6000FCE7000010B50C48006820F00F000A499B
:101F700008600846006840F0030008600020074938
:101F80000860142000F0E0F801200549C1F8800144
:101F90001E2000F0FFF810BD000C0140808121429E
:101FA0000080214221B1026842F00102026004E097
:101FB00002684FF6FE731A400260704701684FF6E0
:101FC000FE72114001600021016041608160C160CA
:101FD0004B49884208D14A490839496841F00F0104
:101FE000474A083A51608AE045491431884208D18D
:101FF00043490839496841F0F001414A083A5160C3
:102000007DE03F492831884208D13D490839496877
:1020100041F470613A4A083A516070E038493C3105
:10202000884208D136490839496841F47041344A38
:10203000083A516063E032495031884208D1304952
:102040000839496841F470212D4A083A516056E038
:102050002B496431884208D129490839496841F43B
:102060007001274A083A516049E025497831884291
:1020700008D123490839496841F07061204A083A7B
:1020800051603CE01F49884206D1011F096841F0B8
:102090000F01021F116032E01A491431884208D141
:1020A0001849091F096841F0F001164A121F116012
:1020B00025E014492831884208D11249091F0968CE
:1020C00041F470610F4A121F116018E00D493C3154
:1020D000884208D10B49091F096841F47041094A37
:1020E000121F11600BE007495031884207D10549A2
:1020F000091F096841F47021024A121F11607047DC
:10210000080002400804024010B50022026847F6A9
:10211000F0739A430C6A8B6823430C6923434C6920
:1021200023438C692343CC6923434C6A23438C6A41
:1021300023431A430260CB6843600B6883604B689B
:10214000C36010BD704700000146114A12884A431F
:102150004FF0E0235A6100229A611A46126942F058
:1021600001021A6100BF4FF0E022106900F0010285
:102170001AB100F48032002AF5D04FF0E022126943
:1021800022F001024FF0E0231A6100229A617047A9
:102190005A0000200146114A12784A434FF0E023CA
:1021A0005A6100229A611A46126942F001021A61CC
:1021B00000BF4FF0E022106900F001021AB100F4F4
:1021C0008032002AF5D04FF0E022126922F001029D
:1021D0004FF0E0231A6100229A61704758000020F6
:1021E00010B56FF0040001F055FF0A4800680A4975
:1021F000B0FBF1F0094908700846007800EB400197
:10220000C1EBC0104FF6FF7101EAC000044908801D
:1022100010BD00005C0A002000127A005800002067
:102220005A0000202DE9F04102460025002600203A
:1022300000230024002791F803C00CF00F0591F84B
:1022400003C00CF0100CBCF1000F03D091F802C0D9
:102250004CEA050591F800C0BCF1000F31D01468BC
:1022600000202BE04FF0010C0CFA00F3B1F800C095
:102270000CEA03069E4220D183004FF00F0C0CFAAB
:1022800003F7BC4305FA03FC4CEA040491F803C0CD
:10229000BCF1280F06D14FF0010C0CFA00FCC2F87B
:1022A00014C00AE091F803C0BCF1480F05D14FF00B
:1022B000010C0CFA00FCC2F810C0401C0828D1D355
:1022C0001460B1F800C0BCF1FF0F34DD5468002089
:1022D0002EE000F1080C4FF0010808FA0CF3B1F8F9
:1022E00000C00CEA03069E4221D183004FF00F0C80
:1022F0000CFA03F7BC4305FA03FC4CEA040491F81A
:1023000003C0BCF1280F05D100F1080C08FA0CF845
:10231000C2F8148091F803C0BCF1480F07D100F156
:10232000080C4FF0010808FA0CF8C2F81080401CA5
:102330000828CED35460BDE8F08141617047016147
:1023400070470AB1016100E041617047704770B5A4
:1023500002460024002500230020958A138B1B04CD
:1023600045EA030626F07F4404EA01068E4201D1C5
:10237000012000E0002070BD21B1028842F001027E
:10238000028004E002884FF6FE731A400280704714
:1023900000B585B00121480501F0D2FB01210820DC
:1023A00001F0EEFBC020ADF8000003208DF8020024
:1023B0001C208DF8030069461148FFF733FF1148D0
:1023C00000F024F80020ADF808004BF6FF70ADF8DF
:1023D0000A003020ADF80C004FF48060ADF80E001C
:1023E0000001ADF810000848019001210548FFF7F1
:1023F000C3FF01A9034800F05BF805B000BD000071
:10240000000C014000540040801A060010B504463C
:102410000B48844209D10121480501F0A1FB0021AC
:102420004FF4001001F09CFB08E00121880501F049
:1024300097FB00214FF4800001F092FB10BD0000DB
:102440000054004021B1028842F48072028004E00E
:1024500002884FF6FF631A400280704721B102885C
:1024600042F40072028004E002884FF6FF531A40E3
:10247000028070470CB502460020002301930093B0
:1024800000920B0F019321F07F41019B1BB1009B38
:102490001433009303E0090C009B18330093009B56
:1024A0001B680B400BB1012000E000200CBD0000B8
:1024B0002DE9F04385B004460D460026B1460427B9
:1024C000DFF8CC80A6884FF6C0700640684601F061
:1024D00077FBDDF808802F48B8FBF0F01FFA80F991
:1024E00046EA0906A68020884FF6FE710840208043
:1024F00000262949286888420CD828684000B8FB83
:10250000F0F087B2042F00DA04273E4309F10100FE
:10251000208427E0E8884BF6FF71884206D12868BE
:1025200000EB4000B8FBF0F087B209E0286800EB50
:10253000C00101EB0010B8FBF0F087B247F4804710
:10254000C7F30B0008B947F0010747F40040064302
:102550004FF4967009FB00F04FF47A7190FBF1F0A4
:10256000401C2084A683208840F00100208026881B
:102570004FF6F5300640A88869890843064326804F
:10258000A88929890843208105B0BDE8F0830000AF
:1025900000127A0040420F00A086010012B141F003
:1025A000010102E04FF6FE7319400182704701827B
:1025B0007047000070B504460D4600BF4FF400316F
:1025C0001C48FFF757FF0028F8D101211948FFF7F1
:1025D00039FF00BF18491748FFF7B9FE0028F9D0A6
:1025E000002278211348FFF7D9FF00BF1349114893
:1025F000FFF7ADFE0028F9D021460E48FFF7D7FFC0
:1026000000BF0E49891C0B48FFF7A1FE0028F8D037
:1026100029460848FFF7CBFF00BF0849891C054839
:10262000FFF795FE0028F8D001210248FFF716FFBA
:1026300070BD00000054004001000300820007004C
:1026400010B580212448FEF751F824A226A1224883
:10265000FDF76AFE2048FDF7E5FF24490860802168
:102660002348FEF743F823A21FA12148FDF75CFE93
:102670001F48FDF7D7FF2149086080212048FEF759
:1026800035F820A218A11E48FDF74EFE1C48FDF7A4
:10269000C9FF2049086080211F48FEF727F81FA2C4
:1026A00011A11D48FDF740FE41F272701F490860FC
:1026B0000846194902681EA003F0DAFB064921A06A
:1026C00003F0D6FB0A4923A003F0D2FB0C4925A056
:1026D00003F0CEFB10BD00004C2E002039393931FB
:1026E00035393031390000002573000080000020AA
:1026F000CC2E0020353435303232000084000020EA
:102700004C2F00206C63733135363136343332331D
:102710003930000088000020CC2F00203138332EC3
:102720003233302E34302E33390000008C0000203C
:10273000B7FE20CEF120C6F7A3BA25733A25640D63
:102740000A000000BFCDBBA7B6CB4944A3BA25738E
:102750000D0A0000D3C320BBA720C3FBA3BA257377
:102760000D0A0000C3DC20202020C2EBA3BA257391
:102770000D0A000008B50121102001F001FA4FF404
:102780000050ADF8000010208DF8030003208DF8F4
:10279000020069460248FFF745FD00F003F808BD56
:1027A0000010014010B54FF400510248FFF7C7FD7B
:1027B00010BD00000010014010B54FF40051024858
:1027C000FFF7BBFD10BD00000010014010B516481A
:1027D00016490860084600681549086015481649FA
:1027E00008601648164908600846006815490860E0
:1027F00015481649086016481649086008460068DA
:102800001549086015481649086000F033F80021A2
:1028100014A000F043FA002013490870134908700F
:102820001349087010BD0000240B00205C0000203C
:1028300060000020B015002064000020DC1600209D
:10284000680000206C00002068210020700000203B
:10285000942200207400002078000020202D002009
:102860007C0000206F6E65009F0000209E0000200D
:102870009C00002070B501207A4908600A207A493E
:1028800008607A480068001D794909680844801C7E
:1028900078490968084478490860734800680968FD
:1028A000441810207549087000BF2046E11704EB5A
:1028B0005161C911A4EBC115E11704EB5161CC11B1
:1028C000002C01DD45F080056C48664A126885548D
:1028D00064480068401C63490860002CE5DC002166
:1028E000664A60480068115404215E480068401C34
:1028F00011544D215B480068801C115451215948E6
:102900000068C01C1154542156480068001D115421
:1029100054480068401D1154042152480068801D2D
:102920001154C2214F480068C01D115400214D4868
:1029300000680830115464214A4800680930115475
:102940004A490868C11700EB1161C1F307224B4BDC
:10295000444909680A315A5444490868C11700EBD0
:1029600011610912A0EB0121CAB23E4909680B317D
:102970005A541A463B4909680C3150183B490A68B9
:102980003F49FDF76EFE3A490868C11700EB116137
:10299000C1F30722334909680C31344B1B681944D1
:1029A000364B5A5432490868C11700EB11610912BD
:1029B000A0EB0121CAB22B4909680D312B4B1B68D2
:1029C00019442E4B5A54274909680E31274A126878
:1029D00011441A46881826490A682A49FDF741FE1B
:1029E00024490868C11700EB1161C1F307221D4992
:1029F00009680E311D4B1B6819441D4B1B68194497
:102A00001E4B5A541B490868C11700EB116109128B
:102A1000A0EB0121CAB2134909680F31134B1B689F
:102A20001944134B1B681944144B5A540D49096837
:102A300010310E4A126811440D4A126811441A46A8
:102A400088180C490A681049FDF70BFE0548006814
:102A5000054A12681044084A12688118074801F0B4
:102A600075FF70BD900000209400002080000020C1
:102A70008400002088000020980000204C300020B6
:102A80004C2E0020CC2E00204C2F00202DE9F04FA2
:102A9000D1B0804698F8011098F8000001EB0020B2
:102AA000509008F1020700208146054606468346FD
:102AB00001244FF0010A00BF0BF1010B00BF2819E0
:102AC00017F8009009F07F0000FB0A664FEACA1A67
:102AD000641C09F080000028F1D130190544311937
:102AE0005098401A50900124A24600265098002881
:102AF000E2D1594620A003F0BBF900200546064666
:102B000000BF00BF4C9030E000BF281917F80090BC
:102B100009F07F0000FB0A664FEACA1A641C09F03C
:102B200080000028F1D1601C2844395C6019385CB1
:102B300001EB0020801C4F904F98301A4E902919BD
:102B40004F9808444D904D98391801A84E9AFDF7BA
:102B500088FD01A84E99FFF73BF93019054401247F
:102B6000A24600264C98401C4C904C985845CBDB14
:102B700051B0BDE8F08F0000B1BEB4CEBDD3CAD510
:102B8000C1CB2564B8F6CDC6CBCDCAFDBEDD0D0ADE
:102B90000000000010B5C0200449087000204870F3
:102BA0000221024801F0D2FE10BD00004C3000208E
:102BB0002DE9F0470546884616460120334908604E
:102BC0002846FDF72FFD801C31490860314806601A
:102BD000084600682F490968441830202E490870BB
:102BE00000BF2046E11704EB5161C911A4EBC117E6
:102BF000E11704EB5161CC11002C01DD47F0800797
:102C00002548224A1268875420480068401C1F4902
:102C10000860002CE5DC2846FDF704FDC0F3072121
:102C20001D4A1A48006811542846FDF7FBFCC1B242
:102C3000194A16480068401C11542846FDF7F2FC5A
:102C40008146154A11490968891C50184A46294687
:102C5000FDF707FD2846FDF7E5FC0C490968891CCE
:102C600008440D4900EB0109324641464846FDF74C
:102C7000F8FC06480068064A12681044054A1268C3
:102C80008118054801F062FEBDE8F0879000002041
:102C900094000020980000204C30002070B50446BD
:102CA0000D4602201F4908601F4908602046FDF7B5
:102CB000B9FCC01C1D49086082201D4908701A48D3
:102CC00000781A490978084419494870002088702A
:102CD0000120C8702046FDF7A5FC000A14490871C0
:102CE0002046FDF79FFC124948712046FDF79AFCEB
:102CF0000646324621460E48801DFDF7B2FC2046AE
:102D0000FDF790FC801D0A490D5406480068064AEC
:102D100012681044054A12688118054801F016FE31
:102D200070BD00009000002094000020980000205A
:102D30004C3000207047704770B5002100230F22EF
:102D4000C47804B3154C246804F4E064C4F5E0646A
:102D5000210AC1F10403CA40447804FA03F18478DB
:102D60001440214309010E4C0678A155047804F063
:102D70001F050124AC4005786D11AD0005F1E0257B
:102D8000C5F8004109E0047804F01F050124AC40B7
:102D9000044D0678761145F8264070BD0CED00E034
:102DA00000E400E080E100E002490143024A1160D2
:102DB000704700000000FA050CED00E010B500209F
:102DC00000F001F810BD70B50646002415E004F1CE
:102DD000B001C8B202F094FB002002F091FB102079
:102DE00002F08EFB002504E0304602F090FB681CE8
:102DF000C5B2802DF8DB601CC4B2082CE7DB70BDC7
:102E000010B5FFF7C5FA6420FFF79EF9AE2002F077
:102E100077FB202002F074FB102002F071FBB02041
:102E200002F06EFBC82002F06BFB002002F068FB92
:102E3000102002F065FB402002F062FB812002F0CE
:102E40005FFBFF2002F05CFBA12002F059FBA620F3
:102E500002F056FBA82002F053FB3F2002F050FB8B
:102E6000A42002F04DFBD32002F04AFB002002F028
:102E700047FBD52002F044FBF02002F041FBD920B3
:102E800002F03EFB222002F03BFBDA2002F038FB8E
:102E9000122002F035FBDB2002F032FB202002F092
:102EA0002FFB8D2002F02CFB142002F029FBAF2019
:102EB00002F026FBFFF782FF10BD70B504460D46F9
:102EC00005F1B001C8B202F01BFB102141EA141059
:102ED00002F016FB04F00F0141F0010002F010FBBC
:102EE00070BD00002DE9F04180460E4617460024D3
:102EF0007D0131464046FFF7E0FF00BF06E00D4987
:102F0000485D02F004FB6D1C601CC4B2102CF6DBA3
:102F1000701CC1B24046FFF7D0FF002406E005490F
:102F2000485D02F0F4FA6D1C601CC4B2102CF6DB94
:102F3000BDE8F081A90000202DE9F047064689464A
:102F400017469A464FF0000800240025BAF1010FF9
:102F500003D0BAF1020F5ED125E020E0785D203881
:102F600000F0FF087E2E04DD002609F1010000F0CC
:102F7000FF0949463046FFF7A0FF002409E008EBAF
:102F80004801264A02EB4101085D02F0C0FA601CCC
:102F9000C4B2062CF3DBB01DC6B2681CC5B2785DA6
:102FA0000028DBD137E032E0785D203800F0FF0800
:102FB000782E04DD002609F1010000F0FF094946E2
:102FC0003046FFF77AFF002407E004EB0811144AAB
:102FD000505C02F09CFA601CC4B2082CF5DB09F1CD
:102FE0000100C1B23046FFF768FF002408E004EB9F
:102FF000081108310A4A505C02F089FA601CC4B218
:10300000082CF4DB06F10800C6B2681CC5B2785D76
:103010000028C9D100BF00BFBDE8F0874E6A000894
:10302000766C00082DE9F041054688460027B8F186
:10303000330F80F05185DFE818F033004B00630058
:103040007B009300AB00C300DB00F3000B01230106
:103050003B0153016B0183019B01B301CB01E301F0
:10306000FB0113022B026D0285029D02B502CD0207
:10307000E502FD0215032D0345035D0375038D0372
:10308000A503BD03D503ED0305041D0435044D045C
:103090008F04A704BF04D704EF0407051F053705F5
:1030A0002C4611E021460020FFF707FF002607E02D
:1030B00039467F1CF74A505C02F029FA701CC6B2F0
:1030C000802EF5DB601CC4B2601B0228EADB38E20C
:1030D0002C4611E021460020FFF7EFFE002607E016
:1030E00039467F1CEC4A505C02F011FA701CC6B2E3
:1030F000802EF5DB601CC4B2601B0228EADBE6E729
:103100002C4611E021460020FFF7D7FE002607E0FD
:1031100039467F1CE14A505C02F0F9F9701CC6B2D6
:10312000802EF5DB601CC4B2601B0228EADBCEE710
:103130002C4611E021460020FFF7BFFE002607E0E5
:1031400039467F1CD64A505C02F0E1F9701CC6B2C9
:10315000802EF5DB601CC4B2601B0228EADBB6E7F8
:103160002C4611E021460020FFF7A7FE002607E0CD
:1031700039467F1CCB4A505C02F0C9F9701CC6B2BC
:10318000802EF5DB601CC4B2601B0228EADB9EE7E0
:103190002C4611E021460020FFF78FFE002607E0B5
:1031A00039467F1CC04A505C02F0B1F9701CC6B2AF
:1031B000802EF5DB601CC4B2601B0228EADB86E7C8
:1031C0002C4611E021460020FFF777FE002607E09D
:1031D00039467F1CB54A505C02F099F9701CC6B2A2
:1031E000802EF5DB601CC4B2601B0228EADB6EE7B0
:1031F0002C4611E021460020FFF75FFE002607E085
:1032000039467F1CAA4A505C02F081F9701CC6B294
:10321000802EF5DB601CC4B2601B0228EADB56E797
:103220002C4611E021460020FFF747FE002607E06C
:1032300039467F1C9F4A505C02F069F9701CC6B287
:10324000802EF5DB601CC4B2601B0228EADB3EE77F
:103250002C4611E021460020FFF72FFE002607E054
:1032600039467F1C944A505C02F051F9701CC6B27A
:10327000802EF5DB601CC4B2601B0228EADB26E767
:103280002C4611E021460020FFF717FE002607E03C
:1032900039467F1C894A505C02F039F9701CC6B26D
:1032A000802EF5DB601CC4B2601B0228EADB0EE74F
:1032B0002C4611E021460020FFF7FFFD002607E025
:1032C00039467F1C7E4A505C02F021F9701CC6B260
:1032D000802EF5DB601CC4B2601B0228EADBFBE336
:1032E0002C4611E021460020FFF7E7FD002607E00D
:1032F00039467F1C734A505C02F009F9701CC6B253
:10330000802EF5DB601CC4B2601B0228EADBE3E31D
:103310002C4611E021460020FFF7CFFD002607E0F4
:1033200039467F1C684A505C02F0F1F8701CC6B246
:10333000802EF5DB601CC4B2601B0228EADBCBE305
:103340002C4611E021460020FFF7B7FD002607E0DC
:1033500039467F1C5D4A505C02F0D9F8701CC6B239
:10336000802EF5DB601CC4B2601B0228EADBB3E3ED
:103370002C4611E021460020FFF79FFD002607E0C4
:1033800039467F1C524A505C02F0C1F8701CC6B22C
:10339000802EF5DB601CC4B2601B0228EADB9BE3D5
:1033A0002C4611E021460020FFF787FD002607E0AC
:1033B00039467F1C474A505C02F0A9F8701CC6B21F
:1033C000802EF5DB601CC4B2601B0228EADB83E3BD
:1033D0002C4611E021460020FFF76FFD002607E094
:1033E00039467F1C3C4A505C02F091F8701CC6B212
:1033F000802EF5DB601CC4B2601B0228EADB6BE3A5
:103400002C4611E021460020FFF757FD002607E07B
:1034100039467F1C314A505C02F079F8701CC6B204
:10342000802EF5DB601CC4B2601B0228EADB53E38C
:103430002C4611E021460020FFF73FFD002607E063
:1034400039467F1C264A505C02F061F8701CC6B2F7
:10345000802EF5DB601CC4B2601B0228EADB3BE374
:103460002C4611E021460020FFF727FD002607E04B
:1034700039467F1C1B4A505C02F049F8701CC6B2EA
:10348000802EF5DB601CC4B2601B0228EADB23E35C
:103490002C463BE0667200086673000866740008FC
:1034A000667500086676000866770008667800088A
:1034B00066790008667A0008667B0008667C00086A
:1034C000667D0008667E0008667F0008668000084A
:1034D000668100086682000866830008668400082A
:1034E000668500086686000821460020FFF7E5FC97
:1034F000002607E039467F1CF74A505C02F007F8C7
:10350000701CC6B2802EF5DB601CC4B2601B0228A2
:10351000EADBE1E22C4611E021460020FFF7CDFC7A
:10352000002607E039467F1CEC4A505C01F0EFFFB3
:10353000701CC6B2802EF5DB601CC4B2601B022872
:10354000EADBC9E22C4611E021460020FFF7B5FC7A
:10355000002607E039467F1CE14A505C01F0D7FFA6
:10356000701CC6B2802EF5DB601CC4B2601B022842
:10357000EADBB1E22C4611E021460020FFF79DFC7A
:10358000002607E039467F1CD64A505C01F0BFFF99
:10359000701CC6B2802EF5DB601CC4B2601B022812
:1035A000EADB99E22C4611E021460020FFF785FC7A
:1035B000002607E039467F1CCB4A505C01F0A7FF8C
:1035C000701CC6B2802EF5DB601CC4B2601B0228E2
:1035D000EADB81E22C4611E021460020FFF76DFC7A
:1035E000002607E039467F1CC04A505C01F08FFF7F
:1035F000701CC6B2802EF5DB601CC4B2601B0228B2
:10360000EADB69E22C4611E021460020FFF755FC79
:10361000002607E039467F1CB54A505C01F077FF71
:10362000701CC6B2802EF5DB601CC4B2601B022881
:10363000EADB51E22C4611E021460020FFF73DFC79
:10364000002607E039467F1CAA4A505C01F05FFF64
:10365000701CC6B2802EF5DB601CC4B2601B022851
:10366000EADB39E22C4611E021460020FFF725FC79
:10367000002607E039467F1C9F4A505C01F047FF57
:10368000701CC6B2802EF5DB601CC4B2601B022821
:10369000EADB21E22C4611E021460020FFF70DFC79
:1036A000002607E039467F1C944A505C01F02FFF4A
:1036B000701CC6B2802EF5DB601CC4B2601B0228F1
:1036C000EADB09E22C4611E021460020FFF7F5FB7A
:1036D000002607E039467F1C894A505C01F017FF3D
:1036E000701CC6B2802EF5DB601CC4B2601B0228C1
:1036F000EADBF1E12C4611E021460020FFF7DDFB7B
:10370000002607E039467F1C7E4A505C01F0FFFE30
:10371000701CC6B2802EF5DB601CC4B2601B022890
:10372000EADBD9E12C4611E021460020FFF7C5FB7A
:10373000002607E039467F1C734A505C01F0E7FE23
:10374000701CC6B2802EF5DB601CC4B2601B022860
:10375000EADBC1E12C4611E021460020FFF7ADFB7A
:10376000002607E039467F1C684A505C01F0CFFE16
:10377000701CC6B2802EF5DB601CC4B2601B022830
:10378000EADBA9E12C4611E021460020FFF795FB7A
:10379000002607E039467F1C5D4A505C01F0B7FE09
:1037A000701CC6B2802EF5DB601CC4B2601B022800
:1037B000EADB91E12C4611E021460020FFF77DFB7A
:1037C000002607E039467F1C524A505C01F09FFEFC
:1037D000701CC6B2802EF5DB601CC4B2601B0228D0
:1037E000EADB79E12C4611E021460020FFF765FB7A
:1037F000002607E039467F1C474A505C01F087FEEF
:10380000701CC6B2802EF5DB601CC4B2601B02289F
:10381000EADB61E12C4611E021460020FFF74DFB79
:10382000002607E039467F1C3C4A505C01F06FFEE1
:10383000701CC6B2802EF5DB601CC4B2601B02286F
:10384000EADB49E12C4611E021460020FFF735FB79
:10385000002607E039467F1C314A505C01F057FED4
:10386000701CC6B2802EF5DB601CC4B2601B02283F
:10387000EADB31E12C4611E021460020FFF71DFB79
:10388000002607E039467F1C264A505C01F03FFEC7
:10389000701CC6B2802EF5DB601CC4B2601B02280F
:1038A000EADB19E12C4611E021460020FFF705FB79
:1038B000002607E039467F1C1B4A505C01F027FEBA
:1038C000701CC6B2802EF5DB601CC4B2601B0228DF
:1038D000EADB01E12C463BE06687000866880008C9
:1038E00066890008668A0008668B0008668C0008F6
:1038F000668D0008668E0008668F000866900008D6
:1039000066910008669200086693000866940008B5
:103910006695000866960008669700086698000895
:1039200066990008669A0008669B000821460020F8
:10393000FFF7C3FA002607E039467F1C684A505C4F
:1039400001F0E5FD701CC6B2802EF5DB601CC4B230
:10395000601B0228EADBBFE02C4611E02146002074
:10396000FFF7ABFA002607E039467F1C5D4A505C42
:1039700001F0CDFD701CC6B2802EF5DB601CC4B218
:10398000601B0228EADBA7E02C4611E0214600205C
:10399000FFF793FA002607E039467F1C524A505C35
:1039A00001F0B5FD701CC6B2802EF5DB601CC4B200
:1039B000601B0228EADB8FE02C4611E02146002044
:1039C000FFF77BFA002607E039467F1C474A505C28
:1039D00001F09DFD701CC6B2802EF5DB601CC4B2E8
:1039E000601B0228EADB77E02C4611E0214600202C
:1039F000FFF763FA002607E039467F1C3C4A505C1B
:103A000001F085FD701CC6B2802EF5DB601CC4B2CF
:103A1000601B0228EADB5FE02C4611E02146002013
:103A2000FFF74BFA002607E039467F1C314A505C0D
:103A300001F06DFD701CC6B2802EF5DB601CC4B2B7
:103A4000601B0228EADB47E02C4611E021460020FB
:103A5000FFF733FA002607E039467F1C264A505C00
:103A600001F055FD701CC6B2802EF5DB601CC4B29F
:103A7000601B0228EADB2FE02C4611E021460020E3
:103A8000FFF71BFA002607E039467F1C1B4A505CF3
:103A900001F03DFD701CC6B2802EF5DB601CC4B287
:103AA000601B0228EADB17E02C4611E021460020CB
:103AB000FFF703FA002607E039467F1C104A505CE6
:103AC00001F025FD701CC6B2802EF5DB601CC4B26F
:103AD000601B0228EADB00BF00BFBDE8F0810000E8
:103AE000669C0008669D0008669E0008669F0008A8
:103AF00066A0000866A1000866A2000866A3000888
:103B000066A400087047000001460020034A506880
:103B100020F440400843506070470000001002400D
:103B200029B1064A52690243044B5A6104E0034A30
:103B300052698243014B5A617047000000100240F5
:103B400029B1064AD2690243044BDA6104E0034A10
:103B5000D2698243014BDA617047000000100240D5
:103B600029B1064A12690243044B1A6104E0034A70
:103B700012698243014B1A61704700000010024035
:103B800029B1064A92690243044B9A6104E0034A50
:103B900092698243014B9A61704700000010024015
:103BA00029B1064AD2680243044BDA6004E0034AB2
:103BB000D2688243014BDA60704700000010024077
:103BC00030B500210022002400232D4D6D6805F042
:103BD0000C0121B1042905D0082923D105E0294D84
:103BE000056022E0274D05601FE0254D6D6805F456
:103BF0007012234D6D6805F48034022505EB924266
:103C00001CB9214D554305600BE01D4D6D6805F451
:103C100000351DB11C4D5543056002E0194D55435B
:103C2000056002E0174D056000BF00BF144D6D68D0
:103C300005F0F0010909154D6B5C0568DD40456034
:103C40000F4D6D6805F4E061090A104D6B5C456825
:103C5000DD4085600A4D6D6805F46051C90A0B4D61
:103C60006B5C4568DD40C560054D6D6805F44041FD
:103C7000890B074D6B5CC568B5FBF3F5056130BD7D
:103C80000010024000127A0000093D00700A002076
:103C9000800A00207047000010B5AAB034211CA88B
:103CA000FCF746FD642103A8FCF742FD00202990A3
:103CB0009F48A0A102681CA8FCF736FB03208DF8E2
:103CC000A40000208DF8A5001CA8FCF7ABFCC0B236
:103CD0008DF8A6001CA99DF8A600CDE900019DF86D
:103CE000A5309DF8A42097A103A8FCF71DFB1CA8F4
:103CF000FCF798FCC41C0DF10F0195A002F0B8F878
:103D0000224603A994A0FEF753FF34211CA8FCF718
:103D10000FFD642103A8FCF70BFD002029908F48BC
:103D20008FA102681CA8FCF7FFFA03208DF8A400FD
:103D300000208DF8A5001CA8FCF774FCC0B28DF81B
:103D4000A6001CA99DF8A600CDE900019DF8A530AC
:103D50009DF8A4207BA103A8FCF7E6FA1CA8FCF7B9
:103D600061FCC41C0DF10F0179A002F081F822461C
:103D700003A979A0FEF71CFF34211CA8FCF7D8FC8E
:103D8000642103A8FCF7D4FC00202990784879A18D
:103D900002681CA8FCF7C8FA03208DF8A4000020D4
:103DA0008DF8A5001CA8FCF73DFCC0B28DF8A6005C
:103DB0001CA99DF8A600CDE900019DF8A5309DF84D
:103DC000A42060A103A8FCF7AFFA1CA8FCF72AFC0A
:103DD000C41C0DF10F015EA002F04AF8224603A9AF
:103DE0005DA0FEF7E5FE03208DF8A40000208DF80D
:103DF000A5001CA8FCF716FCC0B28DF8A6001CA9F3
:103E00009DF8A600CDE900019DF8A5309DF8A420FD
:103E10004CA103A8FCF788FA1CA8FCF703FCC41CFF
:103E20000DF10F014AA002F023F8224603A94AA08F
:103E3000FEF7BEFE34211CA8FCF77AFC642103A81F
:103E4000FCF776FC002029904E484FA102681CA880
:103E5000FCF76AFA03208DF8A40000208DF8A50075
:103E60001CA8FCF7DFFBC0B28DF8A6001CA99DF8CA
:103E7000A600CDE900019DF8A5309DF8A42031A150
:103E800003A8FCF751FA1CA8FCF7CCFBC41C0DF1ED
:103E90000F012FA001F0ECFF224603A92EA0FEF790
:103EA00087FE1CA8FCF7BEFBC41C0DF10F0128A067
:103EB00001F0DEFF224603A927A0FEF779FE342198
:103EC0001CA8FCF735FC642103A8FCF731FC00209A
:103ED0002990314831A102681CA8FCF725FA03207B
:103EE0008DF8A40000208DF8A5001CA8FCF79AFB13
:103EF000C0B28DF8A6001CA99DF8A600CDE900016E
:103F00009DF8A5309DF8A4200EA103A8FCF70CFA9B
:103F10001CA8FCF787FBC41C0DF10F010CA001F0DD
:103F2000A7FF224603A90CA0FEF742FE2AB010BD4F
:103F3000240000207B224C4544223A222573227D16
:103F40000000000025632563256325730000000041
:103F500025730D0A00000000246470002800002072
:103F60007B2272656C6179223A222573227D0000E2
:103F7000340000207B2272656C617931223A22255F
:103F800073227D00400000207B2272656C617932D3
:103F9000223A222573227D004C0000207B2272658C
:103FA0006C617933223A222573227D0010B500F02E
:103FB00001F810BD0CB50020019000903348006856
:103FC00040F480303149086000BF3048006800F498
:103FD000003000900198401C0190009818B9019899
:103FE000B0F5A06FF1D12948006800F4003010B19D
:103FF0000120009001E0002000900098012843D1AA
:104000002348006840F01000214908600846006815
:1040100020F0030008600846006840F002000860D5
:104020001A48406819494860084640684860084690
:10403000406840F4806048600846406820F47C1086
:1040400048600846406840F4E81048600846006848
:1040500040F08070086000BF0C48006800F00070FD
:104060000028F9D00948406820F00300074948605B
:104070000846406840F00200486000BF03484068BE
:1040800000F00C000828F9D10CBD0000001002401F
:1040900000200240042808D14FF0E021096941F0D6
:1040A00004014FF0E022116107E04FF0E0210969BF
:1040B00021F004014FF0E0221161704770470000C9
:1040C00010B51348006840F0010011490860084627
:1040D0004068104908400E494860084600680E498B
:1040E00008400B4908600846006820F480200860FA
:1040F0000846406820F4FE0048604FF41F008860C6
:10410000FFF754FF4FF000600449086010BD000045
:10411000001002400000FFF8FFFFF6FE08ED00E08F
:104120001FB54FF4A060FEF73FFE01210846FFF7E0
:1041300007FD4FF0804000F0A7FA44F61F60ADF88D
:10414000080048F69F40ADF804000020ADF80600D6
:10415000ADF80A0001A94FF0804000F0A5FB012155
:10416000880700F081FA01221146900700F091FBC8
:104170000121880700F07BFA1C208DF80000022046
:104180008DF8010001208DF802008DF803006846CB
:10419000FEF7D2FD1FBD000010B5AAB0002401211A
:1041A000880700F065FB00287DD034211CA8FCF7AF
:1041B000BFFA642103A8FCF7BBFA00202990714ADA
:1041C00071A11CA8FCF7B0F803208DF8A400002012
:1041D0008DF8A5001CA8FCF725FAC0B28DF8A60042
:1041E0001CA99DF8A600CDE900019DF8A5309DF819
:1041F000A4206BA103A8FCF797F86CA001F038FE8F
:104200000DF10F016AA001F033FE1CA8FCF70AFAB9
:10421000C41C224603A968A0FEF7CAFC34211CA8CE
:10422000FCF786FA642103A8FCF782FA00202990A3
:10423000624A63A11CA8FCF777F803208DF8A4005C
:1042400000208DF8A5001CA8FCF7ECF9C0B28DF891
:10425000A6001CA99DF8A600CDE900019DF8A53097
:104260009DF8A4204EA103A8FCF75EF84FA001F032
:10427000FFFD0DF10F014EA001F0FAFD1CA8FCF7A7
:10428000D1F9C41C224603A94BA0FEF791FC3421AE
:104290001CA8FCF74DFA642103A8FCF749FA00209A
:1042A00029904C4A00E06AE04BA11CA8FCF73CF8BE
:1042B00003208DF8A40000208DF8A5001CA8FCF7B1
:1042C000B1F9C0B28DF8A6001CA99DF8A600CDE9F1
:1042D00000019DF8A5309DF8A42031A103A8FCF7AA
:1042E00023F832A001F0C4FD0DF10F0130A001F060
:1042F000BFFD1CA8FCF796F9C41C224603A92EA0FA
:10430000FEF756FC34211CA8FCF712FA642103A81E
:10431000FCF70EFA00202990344A35A11CA8FCF7BE
:1043200003F803208DF8A40000208DF8A5001CA838
:10433000FCF778F9C0B28DF8A6001CA99DF8A6007C
:10434000CDE900019DF8A5309DF8A42014A103A893
:10435000FBF7EAFF15A001F08BFD0DF10F0114A092
:1043600001F086FD1CA8FCF75DF9C41C224603A9D8
:1043700011A0FEF71DFC0121880700F075F92AB095
:1043800010BD0000FC0A00207B2274656D70657210
:104390006174757265223A222573227D0000000047
:1043A0002563256325632573000000000D0A0000C6
:1043B00025730D0A0000000024647000060B002025
:1043C0007B2268756D6964697479223A22257322AB
:1043D0007D000000100B00207B224C696768746927
:1043E0006E67223A222573227D0000001A0B0020FE
:1043F0007B226169727175616C697479223A222538
:1044000073227D001FB54FF4A060FEF7CDFC0121A3
:104410000220FFF795FB184800F036F944F61F60BC
:10442000ADF8080041F61F40ADF804000020ADF8DB
:104430000600ADF80A0001A90F4800F035FA012185
:104440000D4800F011F9012211460B4800F021FA45
:104450000121094800F00BF91D208DF80000012012
:104460008DF8010000208DF8020001208DF8030076
:104470006846FEF761FC1FBD000400401FB54FF405
:10448000A060FEF791FC01210220FFF759FB1848BC
:1044900000F0FAF84EF65F20ADF8080048F69F40AD
:1044A000ADF804000020ADF80600ADF80A0001A93F
:1044B0000F4800F0F9F901210D4800F0D5F801226C
:1044C00011460B4800F0E5F90121094800F0CFF84A
:1044D0001D208DF8000002208DF8010001208DF8CC
:1044E00002008DF803006846FEF726FC1FBD0000A1
:1044F0000004004010B50121164800F0B9F938B3A6
:1045000015480078062819D2DFE800F003060B0CE6
:104510000D10FEF73FFB11E0FFF774FFFEF73AFBCB
:104520000CE000BF00BFFEF735FB07E000200B49A1
:1045300008700021074800F09AF800BF00BF064845
:104540000078401C044908700121024800F08CF8F2
:1045500010BD0000000400409C0000209D000020D1
:1045600010B501211D4800F083F9002834D01C4803
:104570001C4902681C480068801CFCF772F8184847
:104580000088000A1849096808701548007816491B
:10459000096848701448006800F596701249086070
:1045A0000846006811490968884202D110480E493E
:1045B000086000200A49086000210E4800F072F9E6
:1045C0000021064800F053F80021044800F06AF981
:1045D0000121024800F048F810BD0000000800402A
:1045E000A4000020783200205C000020640000203D
:1045F000240B0020000400407FB505460C464FF414
:10460000A060FEF7D1FB01210420FFF799FAADF875
:104610000850ADF804400020ADF80600ADF80A00DF
:1046200001A9104800F040F901210E4800F01CF8E3
:10463000012211460B4800F02CF90021094800F036
:1046400016F81E208DF8000001208DF801000020D2
:104650008DF8020001208DF803006846FEF76CFB20
:104660007FBD000000080040CA430282704721B1AC
:10467000028842F00102028004E002884FF6FE73D5
:104680001A4002807047000010B504466848844212
:1046900008D10121C014FFF783FA0021E014FFF7CD
:1046A0007FFAC4E0B4F1804F08D101210846FFF73A
:1046B00057FA00210120FFF753FAB8E05D48844221
:1046C00008D101210220FFF74BFA00210220FFF759
:1046D00047FAACE05848844208D101210420FFF792
:1046E0003FFA00210420FFF73BFAA0E05348844240
:1046F00008D101210820FFF733FA00210820FFF735
:104700002FFA94E04E48844208D101211020FFF78F
:1047100027FA00211020FFF723FA88E04948844255
:1047200008D101212020FFF71BFA00212020FFF7EC
:1047300017FA7CE04448844208D101214014FFF775
:104740002FFA00216014FFF72BFA70E03F488442F3
:1047500009D10121C804FFF723FA00214FF40020FA
:10476000FFF71EFA63E03A48844209D101210805A7
:10477000FFF716FA00214FF48010FFF711FA56E008
:104780003448844209D101214805FFF709FA002184
:104790004FF40010FFF704FA49E02F48844208D193
:1047A00001214020FFF7DCF900214020FFF7D8F974
:1047B0003DE02A48844208D101218020FFF7D0F94A
:1047C00000218020FFF7CCF931E02548844208D150
:1047D00001218015FFF7C4F90021A015FFF7C0F9EA
:1047E00025E02048844209D101210804FFF7D8F9C7
:1047F00000214FF48030FFF7D3F918E01A488442C3
:1048000009D101214804FFF7CBF900214FF4003012
:10481000FFF7C6F90BE01548844208D1012188044E
:10482000FFF7BEF900214FF48020FFF7B9F910BD62
:10483000002C01400004004000080040000C004033
:10484000001000400014004000340140004C0140C2
:10485000005001400054014000180040001C00407E
:104860000020004000400140004401400048014059
:1048700030B50246002000230024158A05EA010312
:10488000958905EA010413B10CB1012000E0002074
:1048900030BD1AB183890B43838102E083898B4346
:1048A0008381704781847047002202881D4B9842A3
:1048B0000ED01D4B98420BD0B0F1804F08D01B4B4F
:1048C000984205D01A4B984202D01A4B984204D114
:1048D0004FF68F731A404B881A43174B984207D0F4
:1048E000164B984204D04FF6FF431A40CB881A4328
:1048F00002808B8883850B8803850A4B98420BD0F6
:10490000094B984208D00E4B984205D00D4B984267
:1049100002D00D4B984201D10B7A0386012383828A
:1049200070470000002C01400034014000040040AA
:1049300000080040000C004000100040001400403F
:1049400000400140004401400048014070B5054668
:104950000C462246294613480068801CFBF781FE5E
:104960002046E11704EB1161090A0E4A1268117022
:10497000E11704EB11610912A4EB0121094A126845
:1049800051700848006800F59670064908600846AE
:10499000006805490968884202D104480149086055
:1049A00070BD00006800002070000020DC160020B0
:1049B00010B540F225511B4800F0A4F888B31A48FE
:1049C0000078B0B91748001D008850B31548001D85
:1049D00000881649164A126888540846144909681E
:1049E000405C1449088012480068401C1049086067
:1049F00017E00C48001D00880C490D4A12688854C5
:104A00000B48006820B901210B48FFF730FE03E096
:104A100000210948FFF746FF05480068401C04498B
:104A2000086010BD004400409D0000207832002046
:104A3000A4000020043801400008004001F4007286
:104A4000B2F5007F00D100BFCA430280704721B198
:104A5000828942F40052828104E082894DF6FF731C
:104A60001A4082817047000010B5044620488442F5
:104A700009D101218803FFF793F800214FF480400A
:104A8000FFF78EF832E01B48844209D10121480427
:104A9000FFF766F800214FF40030FFF761F825E0DA
:104AA0001548844209D101218804FFF759F80021F3
:104AB0004FF48020FFF754F818E01048844209D1E1
:104AC0000121C804FFF74CF800214FF40020FFF744
:104AD00047F80BE00A48844208D101210805FFF796
:104AE0003FF800214FF48010FFF73AF810BD0000A6
:104AF000003801400044004000480040004C0040A5
:104B00000050004070B5024600240023002500201C
:104B100040F66A16B14200D100BFC1F3421501F060
:104B20001F03012606FA03F3012D02D196893340B3
:104B300006E0022D02D1168A334001E0968A334006
:104B40000C12012606FA04F41688344013B10CB195
:104B5000012000E0002070BDF0B5034600240026CF
:104B60000025002040F66A17B94200D100BF184660
:104B7000C1F3421401F01F06012707FA06F5012CC4
:104B800001D10C3004E0022C01D1103000E01430CF
:104B90001AB107682F43076002E00768AF43076058
:104BA000F0BD00002DE9F04786B005460E46002412
:104BB000A24600BFA1460027B08900B100BF2F4622
:104BC0002C8A4CF6FF700440F08804432C82AC8998
:104BD0004EF6F3100440B0883189084371890843C8
:104BE0000443AC81AC8A4FF6FF400440B0890443D3
:104BF000AC8201A8FEF7E4FF1F48874202D1DDF82E
:104C000010A001E0DDF80CA0A88900F4004040B13C
:104C10000AEBCA0000EB0A1031684900B0FBF1F85A
:104C200007E00AEBCA0000EB0A1031688900B0FB0C
:104C3000F1F86420B8FBF0F004012009642101FBC5
:104C40001089A88900F4004040B1322000EBC9006F
:104C5000B0FBF1F000F00700044308E0322000EB65
:104C600009106421B0FBF1F000F00F0004432C8127
:104C700006B0BDE8F0870000003801407047000032
:104C800010B586B0044601218803FEF779FF0121A3
:104C90000420FEF775FF4FF40070ADF814000320F8
:104CA0008DF8160018208DF8170005A91248FDF799
:104CB000B9FA4FF48060ADF8140004208DF81700A5
:104CC00005A90D48FDF7AEFA01940020ADF80800E3
:104CD000ADF80A00ADF80C00ADF810000820ADF8F2
:104CE0000E0001A90548FFF75DFF01210348FFF70A
:104CF000AEFE06B010BD00000008014000380140C3
:104D000010B586B004464FF4A060FEF74DF80121BF
:104D10004804FEF715FF01210420FEF731FF244867
:104D2000FFF7A2FE0420ADF8140003208DF8160052
:104D300018208DF8170005A91E48FDF773FA082002
:104D4000ADF8140004208DF8170005A91948FDF7E7
:104D500069FA01940020ADF80800ADF80A00ADF83A
:104D60000C00ADF810000C20ADF80E0001A91048A1
:104D7000FFF718FF20210E48FFF760FE012240F2E6
:104D800025510B48FFF7E8FE26208DF80000002093
:104D90008DF801008DF8020001208DF803006846AF
:104DA000FDF7CAFF01210248FFF751FE06B010BD12
:104DB000004400400008014010B5FDF7FFFF02234A
:104DC000A0A201212320FEF7B7F80722032121200A
:104DD000FEF788F8082203213120FEF783F8092224
:104DE00003214120FEF77EF80A2203215120FEF71D
:104DF00079F800209549088009E094480178062058
:104E0000FEF710F991480088401C904908808F48AF
:104E100000880A28F1DB8EA001F02AF84FF4FA701E
:104E2000FDF792F964218FA000F030FB20B190A033
:104E300001F01EF8022010BD94A001F019F80A201C
:104E40008249088009E0814801780620FEF7EAF8E7
:104E50007E480088401C7D4908807C4800881428D2
:104E6000F1DB4FF4FA70FDF76FF98D4800780028F8
:104E700034D18CA000F0FCFF32218FA000F006FBA3
:104E800020B191A000F0F4FF0320D4E796A000F039
:104E9000EFFF9AA000F0ECFF1E2000F089FA20B18D
:104EA0009BA000F0E5FF0420C5E7A0A000F0E0FF14
:104EB00014206649088009E0644801780620FEF75E
:104EC000B1F862480088401C604908805F4800884B
:104ED0001E28F1DB4FF4FA70FDF736F998A000F0C8
:104EE000C7FF32219AA000F0D1FA20B19CA000F0B7
:104EF000BFFF08209FE7A1A000F0BAFF1E20534982
:104F0000088009E0514801780620FEF78BF84F48E9
:104F10000088401C4D4908804C4800883328F1DB4C
:104F20004FF4FA70FDF710F998A000F0A1FF3221BC
:104F30009BA000F0ABFA20B19CA000F099FF0920E3
:104F400079E7A2A000F094FF072203211820FDF7C3
:104F5000C9FF082203212820FDF7C4FF09220321ED
:104F60003820FDF7BFFF0B2203214820FDF7BAFFD1
:104F70000C2203215820FDF7B5FF4FF4FA70FDF71E
:104F8000E3F897A000F074FFFDF718FF0F2202214D
:104F90001046FDF7A7FF102202211F20FDF7A2FFF8
:104FA000112202212F20FDF79DFF0D2202213F201B
:104FB000FDF798FF0E2202214F20FDF793FF0A22F2
:104FC00002215F20FDF78EFF642000F02BF9E0B195
:104FD00088A000F04DFF1A2204212F20FDF782FF48
:104FE0001B2204213F20FDF77DFF1C2206212F20DC
:104FF000FDF778FF1D2206213F20FDF773FF4FF4D8
:10500000FA70FDF7A1F80A2015E781A000F030FF43
:10501000FDF7D4FE0D2204211F20FDF763FF0E22B1
:1050200004212F20FDF75EFF0C2204213F20FDF715
:1050300059FF122204214F20FDF754FFFDF7BEFE59
:105040000020F8E64553503832363600160000206E
:10505000D7BCB1B8C9E8D6C3535441C4A3CABD0D27
:105060000A00000041542B43574D4F44453D310049
:10507000C9E8D6C3535441C4A3CABDCAA7B0DCA370
:10508000ACD7BCB1B8D6D8C6F40D0A00C9E8D6C3AF
:10509000535441C4A3CABDB3C9B9A60D0A00000048
:1050A000A8000020D7BCB1B8C8A1CFFBD7D4B6AFF9
:1050B000C1ACBDD30D0A000041542B435741555498
:1050C0004F434F4E4E3D3000C8A1CFFBD7D4B6AFB3
:1050D000C1ACBDD3CAA7B0DCA3ACD7BCB1B8D6D8DD
:1050E000C6F40D0A00000000C8A1CFFBD7D4B6AFAC
:1050F000C1ACBDD3B3C9B9A60D0A0000D7BCB1B8C5
:10510000C1ACBDD3C2B7D3C9C6F70D0A00000000B9
:10511000C1ACBDD3C2B7D3C9C6F7CAA7B0DCA3AC74
:10512000D7BCB1B8D6D8C6F40D0A0000C1ACBDD307
:10513000C2B7D3C9C6F7B3C9B9A60D0A00000000AB
:10514000D7BCB1B8C9E8D6C3CDB8B4AB0D0A00001E
:1051500041542B4349504D4F44453D310000000020
:10516000C9E8D6C3CDB8B4ABCAA7B0DCA3ACD7BC32
:10517000B1B8D6D8C6F40D0A00000000C9E8D6C3FD
:10518000CDB8B4ABB3C9B9A60D0A0000D7BCB1B84D
:10519000B9D8B1D5B6E0C2B7C1ACBDD30D0A0000D5
:1051A00041542B4349504D55583D3000B9D8B1D5E5
:1051B000B6E0C2B7C1ACBDD3CAA7B0DCA3ACD7BC04
:1051C000B1B8D6D8C6F40D0A00000000B9D8B1D5E0
:1051D000B6E0C2B7C1ACBDD3B3C9B9A60D0A0000D1
:1051E000D7BCB1B8C1ACBDD3B7FECEF1C6F70D0A7E
:1051F00000000000C1ACBDD3B7FECEF1C6F7CAA710
:10520000B0DCA3ACD7BCB1B8D6D8C6F40D0A000048
:10521000C1ACBDD3B7FECEF1C6F7B3C9B9A60D0A6E
:105220000000000010B5044600202E4908604FF42D
:1052300080612D48FBF75AFA2C482D4902682DA0B1
:1052400000F078FE1AE06420FCF77EFF30A12648CB
:10525000FBF7AAF900B115E02FA12348FBF7A4F949
:1052600008B1012010BD2EA11F48FBF79DF908B120
:105270000220F7E721462FA000F0FAFD201EA4F13E
:105280000104E0D100BF2CA000F0F2FD002C01DCF5
:105290000320E7E729A000F0EBFD0020114908609A
:1052A0004FF480611048FBF721FA2CA000F042FE79
:1052B0000CE06420FCF748FF2CA10B48FBF774F9C5
:1052C00000B107E021461BA000F0D2FD201EA4F192
:1052D0000104EED100BF002C01DC0420C2E7002055
:1052E000C0E70000A4000020783200208C000020DD
:1052F000CC2F002041542B43495053544152543D2C
:1053000022544350222C222573222C25640D0A009E
:10531000434F4E4E45435400434C4F5345440000C9
:10532000414C524541445920434F4E4E454354450C
:1053300044000000256420000D0A0000C1ACBDD36C
:10534000B7FECEF1C6F7B3C9B9A6A3ACD7BCB1B806
:10535000BDF8C8EBCDB8B4AB0D0A000041542B43E7
:10536000495053454E440D0A000000000D0A4F4BB2
:105370000D0A0D0A3E00000008B501210820FEF7C5
:10538000FFFB4FF48050ADF8000003208DF80200C1
:1053900010208DF8030069460448FCF743FF4FF4E2
:1053A00080510248FCF7CBFF08BD0000000C014013
:1053B00010B504460020164908604FF48061154876
:1053C000FBF794F914A217A119A000F0B3FD0DE0AA
:1053D0004FF47A70FCF7B8FE1BA10E48FBF7E4F817
:1053E00000B107E0214619A000F042FD201EA4F103
:1053F0000104EDD100BF074915A000F039FD15A04B
:1054000000F036FD002C01DC012010BD0020FCE77F
:10541000A400002078320020323936303439333459
:10542000323500006D655F636F6D70757465720075
:1054300041542B43574A41503D222573222C2225AB
:1054400073220D0A000000004F4B0000256420006D
:105450000D0A25730D0A000008B501210820FEF78A
:105460008FFB0220ADF8000003208DF80200102011
:105470008DF8030069460448FCF7D4FE012202219E
:105480000148FCF75EFF08BD000C014070B5054601
:105490000C460020134908604FF480611248FBF766
:1054A00025F9294611A000F045FD0CE06420FCF729
:1054B0004BFE10A10C48FBF777F800B107E021463E
:1054C0000DA000F0D5FC201EA4F10104EED100BF18
:1054D0000AA000F0CDFC002C01DC012070BD0020F2
:1054E000FCE70000A40000207832002025730D0A9C
:1054F000000000004F4B0000256420000D0A000052
:1055000010B5044621460020FDF754F810BD10B533
:10551000044621464020FDF74DF810BD490050EAF1
:10552000C12018BF04204A0D18BF40F0010040F20E
:10553000FF72B2EB515F08BF40F00200012808BFC4
:105540000520704730380A2801D20120704700201A
:10555000704700BF704700004FF4A060FDF724FCC7
:10556000FCF73EFE4FF4E130FFF78AFB4FF4E130E9
:10557000FFF7C6FB4FF4E1514FF4FA70FFF73CF828
:10558000FDF7F8F800F006FCFCF70CFCFCF77CFBE0
:10559000FFF7F2FEFFF760FFFDF752F8FDF730FC72
:1055A000B0E300F035FCFD49FD48FCF7AEFCB8B9AE
:1055B000FB480278FBA1FC48FAF7B6FEF7480278F0
:1055C000FAA1FC48FAF7B0FE0223F74A0021202096
:1055D000FDF7B2FC0223F74A19462020FDF7ACFC88
:1055E0000020F5490880F5490880F5490880F5490B
:1055F000088027E0F04801880088401CEE4A1080AF
:10560000F14830F81100ED4909880844EB49088059
:10561000104601880088401C1080EB4830F81100CB
:10562000E74909880844E64908801046018800884F
:10563000401C1080E44830F81100E2490988084411
:10564000E0490880DC4800881E28D3DBDB49098854
:105650000A2291FBF2F1C1F58051642201FB02F0B4
:10566000C11700EB1151C1F30731D84A1170D4486A
:1056700000880A2190FBF1F9484601F083F90446BD
:1056800001F054F907464FF06632D14B00F066FF47
:10569000054600F0A9FCCF490860CA4800880A21E5
:1056A00090FBF1F0C0F58050CB490880C9480068F4
:1056B00001F03CF90446C94AC94B00F013FF1CD263
:1056C000C448006801F032F90646C64AC64B00F0ED
:1056D00071FD044600F0C6FEC449088008460088F3
:1056E00000F0EDFE0646C24AC24B00F037FF04460A
:1056F00000F0B8FEC04908701BE0B648006801F031
:1057000015F98046B54AB64B01F026F80646BB4A65
:10571000BB4B00F04FFD04460022BA4B00F01EFFC9
:10572000824600F09FFEB4490870084600780930B0
:105730000870A6480278B4A1B548FAF7F5FDA1486B
:1057400000880A2190FBF1F0C0F580542246AEA1FA
:10575000B048FAF7E9FDA8480278AFA1B048FAF7D7
:10576000E3FD0223AA4A04212020FDF7E5FB0223E2
:10577000A84A04216020FDF7DFFB0223A84A062186
:105780004020FDF7D9FB00208C4908808C49088017
:105790008C490880A348007801286DD1A248006890
:1057A000A2490968884239D09F480068807810284B
:1057B0000CD09D4800688078822803D19C480078EE
:1057C000012803D09B480078012827D1964800681B
:1057D0008078302809D194480068817896A000F03C
:1057E00047FB9FA000F044FB05E08F4800688178EC
:1057F0009CA000F03DFB8C48006800F067FB8A48E5
:10580000006800F596708849086008460068994964
:105810000968884202D1984883490860974800681F
:105820009749096888427AD096A000F021FB9348F6
:105830000068807820283DD190480068407906288B
:1058400030D2DFE800F0030A1118212890A000F000
:105850000FFB0120764908702BE092A000F008FBB6
:1058600000207049087024E099A000F001FB00209E
:105870006C4908701DE000E01EE2A1A000F0F8FAFB
:1058800000206849087014E0A7A000F0F1FA002099
:10589000644908700DE0AFA000F0EAFA0020614909
:1058A000087006E0B3A000F0E3FA00205D4908703C
:1058B00000BF4BE071480068807890281FD16F4886
:1058C0000068807910B1012811D100E000BFB2A0BA
:1058D00000F0CEFA0120574908700020B149087045
:1058E000FEF7CCFDFEF7D8F9FEF71AFC06E0AEA0F5
:1058F00000F0BEFA00204B49087000BF26E05F4868
:1059000000688078D02815D1ADA000F0B1FAA54884
:105910000078012804D10020A249087016E024E094
:10592000A0480078012811DD00209E490870FEF78C
:10593000A5FD0BE0514800688078302806D1A4A06E
:1059400000F096FA4D480068FDF7A0F84B48006853
:1059500000F596704949086008460068A149096841
:10596000884202D1A04845490860A0480068A04983
:105970000968884211D09D480168891C9DA000F0EB
:1059800077FA9F480068FAF74DFE044622469C4885
:10599000016896480068801C34E1B3E102000020F1
:1059A000000000203A256400C00A00203A25642542
:1059B00025524800CA0A00201600002004000020DA
:1059C0000600002008000020840A00200C000020AF
:1059D00066664A3F1000002018000020CDCCCCCCD9
:1059E000CCCCEC3FFCA9F1D24D62503F0A00002024
:1059F000FA7E6ABC7493883F0E0000209A999999A8
:105A00009999B93F000059403A25642525000000C6
:105A1000D40A0020DE0A00203A256420202000005D
:105A2000E80A00209D0000206C0000206800002093
:105A30009E0000209F000020B7A2CBCDCAFDBEDD96
:105A40003A30782578A3ACB5A5C6ACBBFACAFDBE82
:105A5000DDCDC6CBCDD6C1B7FECEF1C6F70D0A005F
:105A60000D0A0000B7A2CBCDCAFDBEDD3A307825C5
:105A7000780D0A0070000020DC1600206000002075
:105A80005C000020BDD3CAD5B5BDCAFDBEDD3A005D
:105A9000434F4E4E454354B1A8CEC4B3C9B9A60D29
:105AA0000A000000C1ACBDD3D2D1BEDCBEF8A3ACAD
:105AB000B2BBD6A7B3D6B5C4D0ADD2E9B0E6B1BEBD
:105AC000A3ACD7BCB1B8D6D8C6F40D0A000000000C
:105AD000C1ACBDD3D2D1BEDCBEF8A3ACB2BBBACF91
