:020000040800F2
:1000000040150020490100089523000899150008B3
:10001000912300087D0F0008393600080000000019
:1000200000000000000000000000000099310008FE
:1000300021110008000000002930000845330008A5
:100040006301000863010008630100086301000800
:1000500063010008630100086301000863010008F0
:1000600063010008630100086301000863010008E0
:1000700063010008630100086301000863010008D0
:1000800063010008630100086301000863010008C0
:1000900063010008630100086301000863010008B0
:1000A00063010008630100086301000863010008A0
:1000B0006301000863010008630100086301000890
:1000C0006301000863010008630100086301000880
:1000D00063010008A9330008C53300086301000864
:1000E0006301000863010008630100086301000860
:1000F0006301000863010008630100086301000850
:10010000630100086301000863010008630100083F
:10011000630100086301000863010008630100082F
:10012000630100086301000863010008630100081F
:10013000DFF810D000F0DAFC00480047C94400089E
:10014000AFF300804015002006488047064800476E
:10015000FEE7FEE7FEE7FEE7FEE7FEE7FEE7FEE777
:10016000FEE7FEE74933000831010008A0F1410134
:10017000192900D82030704740EA01039B0703D0BB
:1001800009E008C9121F08C0042AFAD203E011F8D6
:10019000013B00F8013B521EF9D27047D2B201E098
:1001A00000F8012B491EFBD270470022F6E710B57C
:1001B00013460A4604461946FFF7F0FF204610BDD5
:1001C000421E12F8013F002BFBD111F8013B02F84F
:1001D000013B002BF9D1704730B505462A460B4646
:1001E00012F8010B13F8014B08B1A042F8D01CB172
:1001F000002802D06D1CF1E7284630BDCAB2401E6F
:1002000010F8011F8A4202D00029F9D1002070475E
:10021000421C10F8011B0029FBD1801A704710B551
:10022000044600E0401C0378002BFBD100E0401C9A
:10023000521E04D311F8013B0370002BF7D10021AB
:100240000170204610BD30B505460020034600E091
:100250005B1C934205D2EC5CC85C201A01D1002CD7
:10026000F6D130BD70B5064603F01EFB04680546A6
:100270000A220021304600F0CFFA2C6070BDF0B4A5
:1002800080EA0102D40F4200B2EB410F02D20246D3
:10029000084611464A0042D0C30DDDB2C1F3C75231
:1002A000AD1A202D35DAC1F3160141F4000204B174
:1002B0005242C5F1200602FA06F12A411044B3EB7E
:1002C000D05F23D0C4B1012DA0EBC35009DCF0BC3A
:1002D0004FF0004202EAC352DBB200F5000000F02A
:1002E000DCBA400000F1807000EBC350A0F18070D8
:1002F00040EAD170490009E0490841EAC071A0EB29
:10030000C35000F50000400800EBC350F0BC00F003
:10031000BBBA6142012202EB4101001BF6E7F0BCCF
:10032000704781F00041AAE780F00040A7E780EA2B
:10033000010210B502F00043400022D04A001FD055
:10034000010E01EB1261C0F35600C2F3560240F4F5
:10035000000042F40002A0FB022000047F391404D4
:1003600000D0401C50EA124001D44000491EC2B2E5
:100370000C0604EBD010401C4008802A02D003E099
:10038000002010BD20F00100002900DA00201843F1
:1003900010BD30B480EA010202F0004530F00042A6
:1003A00021F0004013D090B1C30DD40DC2F316015B
:1003B000C0F31600E41A41F4000140F400027D3459
:1003C000914201D3641C00E04900002C02DA30BCE9
:1003D000002070474FF400000023914201D3891A96
:1003E000034340084FEA4101F7D151B1914202D194
:1003F0004FF0004105E002D24FF0010101E06FF043
:10040000010103EBC450284430BC00F03DBA2DE993
:10041000FE4F804681EA0300C00F0C46009021F099
:10042000004123F00045B8EB0200A94105D2404647
:10043000214690461C460B46024623F000401043DE
:1004400047D0270DC7F30A00C3F30A510290401AA0
:10045000019040286BDAC3F3130040F4801B00982E
:10046000924620B10023D2EB030A63EB0B0B0198F9
:100470005946C0F14002504600F09DF906460D462F
:1004800050465946019A00F0B5F910EB0800614159
:10049000002487EA115284EAE7731A4340D0009A95
:1004A00062B3019A012A4FEA075215DC001B61EB87
:1004B00002014FF0004202EA0752CDE90042001C5F
:1004C00041F5801132462B4600F024FA03B0BDE816
:1004D000F08F40462146F9E7001B61EB0201001C4A
:1004E00041F5801300185B412018A2F5001747EB77
:1004F000030140EAD570B6196D4111E06D084FEA6D
:10050000360645EAC0754FEA0752001B61EB02014F
:10051000001C41F5801149084FEA30000019514193
:1005200032462B4603B0BDE8F04F00F0E4B9009826
:10053000012240000023D0EB020263EBE07300983D
:1005400021464FEAE074B8EB000061EB0401E9E7F3
:1005500083F000435BE781F0004158E72DE9FE4F4F
:1005600081EA030404F0004421F0004100944FF0BC
:10057000000B23F0004350EA01045ED052EA03046A
:100580005BD0C3F30A54C1F30A552C44A4F2F334EC
:100590000194A0FB0254C1F3130141F48011C3F391
:1005A000130343F4801301FB024400FB034E840A4F
:1005B000970A44EA815447EA8357A4FB07680295E7
:1005C0008D0A05FB07854FEA932C04FB0C54270585
:1005D000029D4FEA065847EA1637B5EB08056EEB61
:1005E000070C870E920E47EA811742EA8312A7FB97
:1005F0000201B6EB0B0164EB00042B0D43EA0C3354
:100600005E1844EB1C50DA465146E7FB0201C5F385
:1006100013044FEA0B3343EA14534FEA0432019CAC
:1006200043EA0603A4F10C040294009CCDE900B453
:1006300000F070F903B0BDE8F08F00200146F9E743
:1006400096230022114600F028B90EB5C10F80EAAA
:10065000E0700844CA07002140F233438DE80E00E1
:100660000A460B4600F056F903B000BD70B5C1F361
:100670000A5201F000450024C1F3130140F2FF3398
:1006800041F480119A4201DA002070BD40F23343F8
:100690009A42A2F2334203DC524200F09BF800E09F
:1006A00090402C43F1D0404270BD00F0004230F049
:1006B00000400AD0C10D01F56071C0F3160042EA96
:1006C0000151C2084007114370470020014670479E
:1006D00030B5041E71F1000404DB4FF000444042C9
:1006E00064EB0101141E73F1000405DB1C464FF09E
:1006F0000043524263EB0403994208BF904230BD6D
:10070000002801DBC0F10040002901DBC1F10041FC
:1007100081427047002801DBC0F10040002901DB65
:10072000C1F100418842704730B50B4601460020B8
:100730002022012409E021FA02F59D4205D303FAA3
:1007400002F5491B04FA02F52844151EA2F1010224
:10075000F1DC30BD2DE9F05F0546002092469B4656
:1007600088460646814640241BE0284641464746C7
:10077000224600F02FF853465A46C01A914110D332
:1007800011461846224600F016F82D1A67EB0108AC
:100790004F4622460120002100F00DF817EB00091A
:1007A0004E41201EA4F10104DFDC484631462A46B2
:1007B0004346BDE8F09F202A04DB203A00FA02F10C
:1007C000002070479140C2F1200320FA03F319433F
:1007D00090407047202A04DB203A21FA02F00021E1
:1007E000704721FA02F3D040C2F120029140084341
:1007F00019467047202A06DBCB17203A41FA02F04F
:1008000043EAE07306E041FA02F3D040C2F120026D
:1008100091400843194670472DE9F04791460F462D
:1008200080460446002614F8015B2DB100F070F9F3
:100830000068405DC007F6D12B2D02D02D2D18D0B9
:10084000641E4A463946204600F066F927B13968E9
:10085000A14201D1C7F8008071054FF002040BD509
:100860004042002803DD03F01FF80460A007BDE844
:10087000F08746F48066E4E70028F8DA03F014F81D
:1008800004606FF00040F2E70029A8BF7047401CE9
:10089000490008BF20F00100704710B4B0FA80FC96
:1008A00000FA0CF050EA010404BF10BC704749B1D3
:1008B000CCF1200421FA04F411FA0CF118BF012143
:1008C00021430843A3EB0C01CB1D4FEA00614FEA23
:1008D000102042BF002010BC704700EBC3501044F2
:1008E0000029A4BF10BC7047401C490008BF20F07D
:1008F000010010BC704710B5141E73F1000408DA33
:10090000401C41F1000192185B411A4301D120F0D3
:10091000010010BD2DE9F04D92469B4611B1B1FA90
:1009200081F202E0B0FA80F220329046FFF743FFF6
:1009300004460F4640EA0A0041EA0B0153465A4674
:10094000084313D0114653EA010019D0C8F1400200
:100950005046FFF73FFF05460E4650465946424671
:10096000FFF729FF084305D0012004E0204639465F
:10097000BDE8F08D0020054346EAE0762C4337437E
:100980000A986305E40AA0EB08000022FD0A44EA85
:1009900047540A3002D500200146E9E70105101945
:1009A0006941DDE9084500196941BDE8F04DA2E75C
:1009B0002DE9F04D81EA030404F0004B21F00045DD
:1009C00014464FF0000A23F0004150EA050220D0FF
:1009D00054EA01021DD0C5F30A570246C5F31303BA
:1009E000C1F31300C1F30A5640F4801543F4801399
:1009F000A7EB0608101BD64608F2FD3873EB05007E
:100A000002D308F1010801E092185B41B8F1000F30
:100A100003DA00200146BDE8F08D00204FF480117C
:100A2000064684460EE0171B73EB050705D3121B21
:100A300063EB050306434CEA010C49084FEA30001A
:100A400092185B4150EA0107EDD152EA030012D03F
:100A500082EA040083EA0501084305D0101BAB417C
:100A600006D20122002306E000224FF0004302E0FC
:100A70006FF0010253101AEB06004CEB085110EB1B
:100A80000A0041EB0B01BDE8F04DFFF734BF70B534
:100A900021F0004303430CD0C1F30A550024D5EBE9
:100AA000040564EB0403D617AD1AB34102DB002042
:100AB000014670BD201841EB025170BDC1F30A52CE
:100AC000C1F3130140F2FF3341F480119A4202DA7C
:100AD00000200146704740F233439A42A2F233426B
:100AE00002DC5242FFF776BEFFF765BE064C074DAB
:100AF00006E0E06840F0010394E8070098471034EE
:100B0000AC42F6D3FFF718FBB4990008D49900085B
:100B100000487047049900082DE9F05F824600788C
:100B2000002715468B460AF10104B946302801D04A
:100B30009DB113E014F8010B0127782803D0582841
:100B400001D045B10AE00DB1102D07D100271025C5
:100B500014F8010B02E0082500E00A250026B04643
:100B60000EE005FB080005FB06F1012701EB10462E
:100B70001FFA80F8B6F5803F00D3B94614F8010B90
:100B8000294600F069F80028EBDABBF1000F05D028
:100B90000FB1641E00E05446CBF80040B9F1000FDD
:100BA00006D002F081FE02210160C81EBDE8F09F60
:100BB00048EA0640FAE72DE9F04D00231A461B1AD1
:100BC0008A4103DB00200146BDE8F08DC1F30A52E3
:100BD000C1F3130141F480154FF0000BD10702D18E
:100BE00000186D41521E0027044640F2FF1138469E
:100BF00001EB620A3E468046024600204FF4801117
:100C0000FFF7E8FDC2197141BB1846EB0100B4EBD8
:100C1000030C75EB000C04D3E41A65EB00051746D2
:100C20000E46241908F101006D4180463428E3DDA9
:100C3000F91946EB0600091BA84103D24FF0FF3219
:100C4000134601E0002213461BEB070046EB0A5156
:100C5000BDE8F04DFFF74FBE3A2800D2303820F003
:100C60002002412A01D3A2F13700884201D34FF07C
:100C7000FF30704770B58D1810F8014B14F0030267
:100C800001D110F8012B231106D110F8013B03E02C
:100C900010F8016B01F8016B521EF9D1ABB110F8DD
:100CA000012B04F00C048A1A0C2C03D0A2EB841242
:100CB0009B1C08E010F8014BA2EB0422F8E712F8A5
:100CC000014B01F8014B5B1EF9D5A942D4D300209A
:100CD00070BD21B1826842F00102826003E0826847
:100CE00022F001028260704721B1826842F4807272
:100CF000826003E0826822F480728260704701465D
:100D000000208A6802F004020AB1012000E00020FD
:100D10007047014600208A6802F008020AB10120EB
:100D200000E000207047000030B50246002000239C
:100D300050680F4C20400D790C6844EA052420438C
:100D4000506090680B4C2040D1E902542C434D79FF
:100D500044EA450420439060D06A20F470000C7C83
:100D6000641EE4B2234340EA0350D06230BD000069
:100D7000FFFEF0FFFDF7F1FFF0B504460D46002041
:100D80000021092D11DDE068A5F10A0606EB4607F2
:100D9000072606FA07F18843A5F10A0606EB460680
:100DA00003FA06F10843E0600CE0206905EB450713
:100DB000072606FA07F1884305EB450603FA06F114
:100DC00008432061072A0FDA606B561E06EB860780
:100DD0001F2606FA07F18843561E06EB860605FA1B
:100DE00006F10843606322E00D2A0FDA206BD61F5C
:100DF00006EB86071F2606FA07F18843D61F06EB87
:100E0000860605FA06F10843206310E0E06AA2F1C5
:100E10000D0606EB86071F2606FA07F18843A2F1A6
:100E20000D0606EB860605FA06F10843E062F0BD02
:100E3000816841F008018160704721B1826842F405
:100E4000A002826003E0826822F4A0028260704700
:100E5000816841F0040181607047000008B50121FC
:100E6000042002F01FF90120ADF8000000208DF8E9
:100E700003006946014800F0FBFA08BD0008014084
:100E800010B5FFF7EBFF00F001F810BD00B591B011
:100E90000121084602F0D6F80121480202F002F9C9
:100EA000334800F079F83348069033480790002023
:100EB00008900A20099000200A9080200B904000A2
:100EC0000C9080000D9020200E90C0010F9000200B
:100ED000109006A9264800F005F90121244800F0E9
:100EE0004FF80020019001208DF808008DF80900CE
:100EF0004FF4602003900020049001208DF814002E
:100F000001A91C484C38FFF70FFF4FF4004002F0D6
:100F10008DF805230122002116484C38FFF72CFFDD
:100F2000012114484C38FFF7DFFE012111484C38ED
:100F3000FFF7CFFE0F484C38FFF77AFF00BF0D4890
:100F40004C38FFF7E6FE0028F9D10A484C38FFF785
:100F50007FFF00BF07484C38FFF7D1FE0028F9D1CA
:100F6000012104484C38FFF768FF11B000BD0000B4
:100F7000080002404C240140A00E002000BFFEE704
:100F800021B1026842F00102026004E002684FF6FB
:100F9000FE731A400260704701684FF6FE721140FE
:100FA00001600021016041608160C1604B4988425D
:100FB00008D14A490839496841F00F01474A083ABF
:100FC00051608AE045491431884208D143490839C3
:100FD000496841F0F001414A083A51607DE03F49DB
:100FE0002831884208D13D490839496841F4706187
:100FF0003A4A083A516070E038493C31884208D199
:1010000036490839496841F47041344A083A516018
:1010100063E032495031884208D130490839496883
:1010200041F470212D4A083A516056E02B49643151
:10103000884208D129490839496841F47001274A92
:10104000083A516049E025497831884208D123495E
:101050000839496841F07061204A083A51603CE023
:101060001F49884206D1011F096841F00F01021F84
:10107000116032E01A491431884208D11849091F19
:10108000096841F0F001164A121F116025E0144969
:101090002831884208D11249091F096841F470615A
:1010A0000F4A121F116018E00D493C31884208D1E7
:1010B0000B49091F096841F47041094A121F116068
:1010C0000BE007495031884207D10549091F0968DB
:1010D00041F47021024A121F11607047080002405B
:1010E0000804024010B50022026847F6F0739A43E4
:1010F0000C6A8B6823430C6923434C6923438C6936
:101100002343CC6923434C6A23438C6A23431A4309
:101110000260CB6843600B6883604B68C36010BD9E
:101120007047000010B580210348FFF73EF800200B
:101130000249088010BD0000BE0E002058000020AB
:1011400070B50546002400BF00F05EF980B90DA11E
:101150000E48FFF741F8044654B13A212046FFF704
:101160004DF8044614B1641C204670BD0020FCE715
:10117000052003F04DF9281EA5F101018DB2E3D140
:1011800000BFF2E74950442C00000000BE0E0020D2
:1011900008B50121082001F085FF10208DF803001B
:1011A0004002ADF8000003208DF802006946334884
:1011B00000F05EF900224FF40051304800F0E7F9EA
:1011C000FA2003F025F9012251032C4800F0DFF941
:1011D0004FF4FA7003F01CF9FFF7A4FF28A12A4886
:1011E00002F0C4FA03E04FF4FA7003F011F927A1FA
:1011F00027A000F0BBF80028F5D127A1224802F073
:10120000B5FA03E04FF4FA7003F002F91FA125A02C
:1012100000F0ACF80028F5D126A11B4802F0A6FA90
:1012200003E04FF4FA7003F0F3F818A125A000F0E2
:101230009DF80028F5D127A1134802F097FA03E0A2
:101240004FF4FA7003F0E4F825A127A000F08EF81F
:101250000028F5D12EA10C4802F088FA03E04FF4E3
:10126000FA7003F0D5F82EA12FA000F07FF8002827
:10127000F5D138A1044802F079FA08BD000C01400C
:10128000312E2041540D0A00003801404F4B000020
:1012900041540D0A00000000322E2043574D4F44A8
:1012A000450D0A0041542B43574D4F44453D310DE8
:1012B0000A000000332E2041542B4357444843502A
:1012C0000D0A000041542B4357444843503D312CF4
:1012D000310D0A00342E2043574A41500D0A0000B8
:1012E000474F54204950000041542B43574A415026
:1012F0003D226D655F636F6D7075746572222C227F
:1013000032393630343933343235220D0A00000098
:10131000352E2043495053544152540D0A000000C9
:10132000434F4E4E4543540041542B434950535470
:101330004152543D22544350222C223138332E3214
:1013400033302E34302E3339222C363030320D0AE1
:1013500000000000362E20455350383236362049E2
:101360006E6974204F4B0D0A000000002DE9F0411A
:1013700004460D46C8262046FEF74AFF87B23A4685
:1013800021460D4802F016FA0FE000F03DF848B98A
:1013900029460A48FEF720FF20B1FFF7C3FE0020D0
:1013A000BDE8F0810A2003F033F8301EA6F10101F8
:1013B000CEB2EAD10120F3E700440040BE0E002087
:1013C00030B589B004460D46FFF7ACFE2A4608A1A9
:1013D00001A802F027FA0AA101A8FFF7C7FF20B968
:1013E0002A462146074802F0E5F909B030BD000061
:1013F00041542B43495053454E443D25640D0A004A
:101400003E000000004400400A48008808B901205E
:1014100070470848008808490988884203D100209D
:1014200004490880F4E70348008803490880012044
:10143000EEE70000580000205A00002008B5012106
:10144000102001F02FFE0121082001F02BFE4FF4A7
:101450000050ADF8000003208DF8020010208DF838
:1014600003006946014800F003F808BD0010014080
:101470002DE9F0410246002500260020002300242B
:10148000002791F803C00CF00F0591F803C00CF091
:10149000100CBCF1000F03D091F802C04CEA050516
:1014A00091F800C0BCF1000F31D0146800202BE08F
:1014B0004FF0010C0CFA00F3B1F800C00CEA03067F
:1014C0009E4220D183004FF00F0C0CFA03F7BC436F
:1014D00005FA03FC4CEA040491F803C0BCF1280FA0
:1014E00006D14FF0010C0CFA00FCC2F814C00AE05F
:1014F00091F803C0BCF1480F05D14FF0010C0CFA74
:1015000000FCC2F810C0401C0828D1D31460B1F808
:1015100000C0BCF1FF0F34DD546800202EE000F164
:10152000080C4FF0010808FA0CF3B1F800C00CEAFF
:1015300003069E4221D183004FF00F0C0CFA03F7F3
:10154000BC4305FA03FC4CEA040491F803C0BCF167
:10155000280F05D100F1080C08FA0CF8C2F8148025
:1015600091F803C0BCF1480F07D100F1080C4FF00F
:10157000010808FA0CF8C2F81080401C0828CED3E5
:101580005460BDE8F08141617047016170470AB164
:10159000016100E04161704700BFFEE770B502469F
:1015A0000024002500230020958A138B1B0445EAA4
:1015B000030626F07F4404EA01068E4201D1012091
:1015C00000E0002070BD21B1028842F001020280DB
:1015D00004E002884FF6FE731A4002807047000054
:1015E00000B585B00121480501F03CFD012108202E
:1015F00001F058FDC020ADF8000003208DF8020076
:101600001C208DF8030069461148FFF731FF11488F
:1016100000F024F80020ADF808004BF6FF70ADF89C
:101620000A003020ADF80C004FF48060ADF80E00D9
:101630000001ADF810000848019001210548FFF7AE
:10164000C2FF01A9034800F05BF805B000BD00002F
:10165000000C014000540040801A060010B50446FA
:101660000B48844209D10121480501F00BFD0021FE
:101670004FF4001001F006FD08E00121880501F09B
:1016800001FD00214FF4800001F0FCFC10BD0000C2
:101690000054004021B1028842F48072028004E0CC
:1016A00002884FF6FF631A400280704721B102881A
:1016B00042F40072028004E002884FF6FF531A40A1
:1016C000028070470CB5024600200023019300936E
:1016D00000920B0F019321F07F41019B1BB1009BF6
:1016E0001433009303E0090C009B18330093009B14
:1016F0001B680B400BB1012000E000200CBD000076
:101700002DE9F04385B004460D460026B146042776
:10171000DFF8CC80A6884FF6C0700640684601F01E
:10172000D1FCDDF808802F48B8FBF0F01FFA80F9F3
:1017300046EA0906A68020884FF6FE710840208000
:1017400000262949286888420CD828684000B8FB40
:10175000F0F087B2042F00DA04273E4309F10100BC
:10176000208427E0E8884BF6FF71884206D128687C
:1017700000EB4000B8FBF0F087B209E0286800EB0E
:10178000C00101EB0010B8FBF0F087B247F48047CE
:10179000C7F30B0008B947F0010747F400400643C0
:1017A0004FF4967009FB00F04FF47A7190FBF1F062
:1017B000401C2084A683208840F0010020802688D9
:1017C0004FF6F5300640A88869890843064326800D
:1017D000A88929890843208105B0BDE8F08300006D
:1017E00000127A0040420F00A086010012B141F0C1
:1017F000010102E04FF6FE73194001827047018239
:101800007047000070B504460D4600BF4FF400312C
:101810001C48FFF757FF0028F8D101211948FFF7AE
:1018200039FF00BF18491748FFF7B8FE0028F9D064
:10183000002278211348FFF7D9FF00BF1349114850
:10184000FFF7ACFE0028F9D021460E48FFF7D7FF7E
:1018500000BF0E49891C0B48FFF7A0FE0028F8D0F6
:1018600029460848FFF7CBFF00BF0849891C0548F7
:10187000FFF794FE0028F8D001210248FFF716FF79
:1018800070BD00000054004001000300820007000A
:1018900010B50446207B012802D1206802F0ECFD3F
:1018A000002020606060A060207310BD024600230D
:1018B00001230DE002F07F000870D2092AB10878F8
:1018C00040F080000870491C01E0184670475B1C1E
:1018D000042BEFDD4FF0FF30F8E770B504460E46FD
:1018E0000025206898B901202073304602F0A8FF37
:1018F00020602068E0B100206060A66003E0002066
:10190000216848556D1CA068A842F8D810E0022054
:10191000207303E00020216848556D1CA068A84290
:10192000F8D800206060A068B04201D2002020609A
:1019300070BD00002DE9FF5F07460D469046384612
:10194000FEF766FC86B22846FEF762FC1FFA80FAB4
:101950004FF00009F01D02F073FF04461CB901208E
:1019600004B0BDE8F09FF11D2046FEF71EFC12A05A
:10197000016821608088A080324639462046FEF703
:101980004EFC2846FEF744FC8346012000210091CE
:101990005B462A46CDE90208019121460A2000F063
:1019A0005FF910B94FF0000901E04FF0010920463E
:1019B00002F062FD4846D3E724637273702F000083
:1019C0002DE9FF4F83B082468B469146159C00253A
:1019D000002002900F2701904846FEF719FC0FFAED
:1019E00080F8B9F1000F03D1012007B0BDE8F08FF6
:1019F00008F10200384487B2109808B145F002059A
:101A0000129878B145F004051298FEF701FCC0B2B7
:101A100002901398FEF7FCFB01460298001D084453
:101A2000384487B2119820B1012804D0022808D187
:101A300004E000BF07E045F00C0504E045F01405A4
:101A400001E00220D1E700BF149808B145F0240559
:101A5000BAF1000F02D0BBF1000F01D10320C4E79F
:101A600045F0C0055046FEF7D3FB06465846FEF744
:101A7000CFFB3044001D384487B239462046FFF77B
:101A80002CFF206808B90420AFE739462068FEF72C
:101A90008CFB10216268501C606020688154D4E97E
:101AA0000023D118781FFFF701FF00B201900198C1
:101AB000002804DA2046FFF7EBFE052095E7616871
:101AC00001980844606000216268501C60602068D2
:101AD000815404216268501C6060206881544D214B
:101AE0006268501C60602068815451216268501CFB
:101AF00060602068815454216268501C60602068D6
:101B000081546268501C60602068815404216268BE
:101B1000501C6060206881546168481C60602068C7
:101B200045540698010A6268501C60602068815420
:101B30000698C1B26268501C606020688154C8F386
:101B400007216268501C6060206881546268501CE4
:101B50006060206800F80280D4E9001288184246CC
:101B60004946FEF75CFB60684044606005F0040095
:101B7000B8B30026139808B938A013901298FEF74E
:101B800047FB86B2310A6268501C6060206881544D
:101B90006268501C606020688654D4E9001288187E
:101BA00032461299FEF73BFB606830446060139840
:101BB000FEF72EFB86B2310A6268501C6060206816
:101BC00081546268501C606020688654D4E9001219
:101BD000881832461399FEF722FB60683044606033
:101BE00000BF05F08000C8B15046FEF711FB86B279
:101BF000310A6268501C6060206881546268501C21
:101C0000606020688654D4E9001288183246514634
:101C1000FEF705FB60683044606000BF05F04000DF
:101C2000C8B15846FEF7F4FA86B2310A6268501C11
:101C30006060206881546268501C6060206886542F
:101C4000D4E90012881832465946FEF7E8FA60686F
:101C50003044606000BF0020C7E6000000000000C4
:101C60002DE9FF4F83B0834617469946139C002504
:101C700000260020029001908046BBF1000F03D1A6
:101C8000012007B0BDE8F08F00260AE00498805DCF
:101C9000232803D00498805D2B2801D10220F0E78F
:101CA000761C0498805D0028F0D148F03008119827
:101CB00008B148F0010806EB0900851C109820B116
:101CC000012804D002280AD105E000BF09E048F04D
:101CD0000208AD1C05E048F00408AD1C01E003203B
:101CE000CFE700BF8FB33878022821D14FF0000A28
:101CF00000BF50460AF1010A385C7D28F9D1AAF1EB
:101D0000030A0AF1070002900298A9EB000AE81CF6
:101D1000A0EB0A012046FFF7E0FD206808B9042087
:101D2000AFE7EA1CA2EB0A012068FEF73EFA19E0D1
:101D3000691D2046FFF7D1FD206808B90420A0E7FF
:101D4000691D2068FEF731FA0CE0FFE7691D2046A7
:101D5000FFF7C3FD206808B9042092E7691D2068D9
:101D6000FEF723FA6168481C6060206800F8018073
:101D7000D4E9000281182846FFF798FD01900198E8
:101D8000002804DA2046FFF783FD052079E7616823
:101D9000019808446060C6F307216268501C6060C7
:101DA000206881546268501C606020688654D4E9C1
:101DB0000012881832460499FEF731FA6068304400
:101DC0006060109860B14FEA1B216268501C60602F
:101DD000206881546268501C6060206800F802B07E
:101DE000C7B1387802280BD1D4E9001288183946D7
:101DF000029AFEF7C1F9616802980844606009E040
:101E0000D4E9001288184A463946FEF7B5F96068E9
:101E100048446060002034E770B505460C46042154
:101E20002046FFF75AFD206808B9012070BD402107
:101E30006268501C60602068815402216268501CF6
:101E400060602068815429126268501C60602068BC
:101E500081546268501C6060206885540020E5E76A
:101E600070B505460C4604212046FFF736FD206874
:101E700008B9012070BD50216268501C6060206864
:101E8000815402216268501C6060206881542912CC
:101E90006268501C6060206881546268501C6060F9
:101EA000206885540020E5E72DE9FF4107460D46EF
:101EB00090461E460A9C01200021CDE90001CDE993
:101EC00002041B481B4A128800EB0211EB1C002283
:101ED0000A20FFF7C5FE20BB6168481C60602068CF
:101EE00046541348134A128800EB021112A001F065
:101EF00089FCC5F307216268501C6060206881542A
:101F00006268501C6060206885540A480088012877
:101F100003D100200749088007E001200549088017
:101F200003E0012004B0BDE8F0810020FAE70000E2
:101F3000C45A0008560000205075626C6973685FCF
:101F4000546F7063203D2025730D0A002DE9FF5F5B
:101F50008046174699460E9C0026B246B346002599
:101F6000B8F1000F03D1012004B0BDE8F09F0BE0F1
:101F700057F8250008B90220F6E757F82500FEF7C4
:101F800047F90644681CC5B24D45F1DB09EB490031
:101F9000801C00EB060A0AF105012046FFF79DFCB4
:101FA000206808B90320DFE782216268501C606066
:101FB00020688154D4E9000281185046FFF776FC6E
:101FC0000FFA80FBBBF1000F04DA2046FFF760FC3C
:101FD0000420C9E76068584460604FEA18216268CD
:101FE000501C6060206881546268501C60602068EA
:101FF00000F80280002524E057F82500FEF708F9D4
:102000000646C6F307216268501C60602068815450
:102010006268501C606020688654D4E90023D018A0
:1020200057F825103246FEF7FAF8606830446060D1
:102030000198C1B26268501C606020688154681CBD
:10204000C5B24D45D8DB00208EE7F0B504460D46FD
:102050002646012300201060002114E0775C07F081
:102060007F07106807FB03001060705C00F08000C1
:1020700008B9481CF0BDDB01B3F5001F02D36FF0B7
:102080000100F7E7491CA942E8DB4FF0FF30F1E718
:102090002DE9F84380460C4615461E462F2108F1CF
:1020A0000600FEF7ABF807460020009017B90120A4
:1020B000BDE8F8837F1C6A46042108F10100FFF7A0
:1020C000C4FF252002F0BCFB2060206808B9022074
:1020D000EEE725212068FEF768F8242239462068BB
:1020E000FEF74AF8243700982C3830803188481C95
:1020F00002F0A6FB2860286820B9206802F0BCF92D
:102100000320D5E73288511C2868FEF74EF8328844
:1021100039462868FEF730F80020C9E701464878BC
:10212000022801D001207047887810B188780128F2
:1021300001D1C878F7E7FF20F5E700002DE9FC5F43
:1021400081460D4614461E46DDE90C8B99F80000C9
:1021500000F00F0A002001900AF008000090CAF376
:1021600041008BF8000001AA042109F10100FFF7EA
:102170006CFF4844471C0198022802D30AF0010072
:1021800010B1FF20BDE8FC9F7878397840EA012043
:1021900020802088801C0199884201D9FF20F1E726
:1021A00054A1B81CFEF718F808B10F20EAE79BF815
:1021B000000020B101283DD0022877D13BE00098F3
:1021C00008B1FF20DEE72188481C02F039FB2860B7
:1021D000286808B9FF20D5E72288511C2868FDF738
:1021E000E4FF2288B91C2868FDF7C6FF0198801E0D
:1021F0002188401AA8F80000B8F80010481C02F026
:102200001FFB3060306820B9286802F035F9FF20E4
:10221000B8E7B8F80020511C3068FDF7C6FFB8F8E1
:102220000020B4F800C0BB1C0CEB03013068FDF7C4
:10223000A3FF4FE000BF2088801C0199884201D98C
:10224000FF209FE72088C01C395C2088801C385CF8
:1022500041EA00210E9801800E9808B9FF2091E70D
:102260002188481C02F0ECFA2860286808B9FF2091
:1022700088E72288511C2868FDF797FF2288B91C3F
:102280002868FDF779FF0198001F2188401AA8F8F7
:102290000000B8F80010481C02F0D2FA3060306834
:1022A00028B9286802F0E8F8FF206BE710E0B8F8DA
:1022B0000020511C3068FDF778FFB8F80020B4F812
:1022C00000C03B1D0CEB03013068FDF755FF01E03A
:1022D000FF2057E700BF2B212846FDF78FFF20B9CD
:1022E00023212846FDF78AFF08B1FF204AE7002096
:1022F00048E70000246372657100000001464878D9
:10230000022801D001207047887820B9C8780A28AF
:1023100001D10020F7E70120F5E70000F8B50446F9
:10232000FF2720780511012D01DB0E2D01DD384638
:10233000F8BD032D24D1002000906A460421601CC2
:10234000FFF783FE2044461C0098022803D3207820
:1023500000F0010008B1FF20EAE77078317840EA28
:102360000120801C0099884201D9FF20E0E706A1E6
:10237000B01CFDF731FF08B10F2700E0032700E094
:102380002F463846D4E700002463726571000000D0
:1023900000BFFEE77047000070B5002100230F2248
:1023A000C47804B3154C246804F4E064C4F5E06414
:1023B000210AC1F10403CA40447804FA03F1847885
:1023C0001440214309010E4C0678A155047804F00D
:1023D0001F050124AC4005786D11AD0005F1E02525
:1023E000C5F8004109E0047804F01F050124AC4061
:1023F000044D0678761145F8264070BD0CED00E0DE
:1024000000E400E080E100E002490143024A11607B
:10241000704700000000FA050CED00E010B5002048
:1024200000F001F810BD70B50646002415E004F177
:10243000B001C8B201F0D7F9002001F0D4F91020A2
:1024400001F0D1F9002504E0304601F0D3F9681C11
:10245000C5B2802DF8DB601CC4B2082CE7DB70BD70
:1024600010B5FFF7BDF8642001F0D2FFAE2001F0F7
:10247000BAF9202001F0B7F9102001F0B4F9B0202A
:1024800001F0B1F9C82001F0AEF9002001F0ABF97C
:10249000102001F0A8F9402001F0A5F9812001F0F9
:1024A000A2F9FF2001F09FF9A12001F09CF9A620DC
:1024B00001F099F9A82001F096F93F2001F093F975
:1024C000A42001F090F9D32001F08DF9002001F053
:1024D0008AF9D52001F087F9F02001F084F9D9209C
:1024E00001F081F9222001F07EF9DA2001F07BF978
:1024F000122001F078F9DB2001F075F9202001F0BD
:1025000072F98D2001F06FF9142001F06CF9AF2001
:1025100001F069F9FFF782FF10BD70B504460D4662
:1025200005F1B001C8B201F05EF9102141EA1410C2
:1025300001F059F904F00F0141F0010001F053F9E5
:1025400070BD00002DE9F04180460E46174600247C
:102550007D0131464046FFF7E0FF00BF06E00D4930
:10256000485D01F047F96D1C601CC4B2102CF6DB0D
:10257000701CC1B24046FFF7D0FF002406E00549B9
:10258000485D01F037F96D1C601CC4B2102CF6DBFD
:10259000BDE8F0816C0000202DE9F0470646894631
:1025A00017469A464FF0000800240025BAF1010FA3
:1025B00003D0BAF1020F5ED125E020E0785D20382B
:1025C00000F0FF087E2E04DD002609F1010000F076
:1025D000FF0949463046FFF7A0FF002409E008EB59
:1025E0004801264A02EB4101085D01F003F9601C35
:1025F000C4B2062CF3DBB01DC6B2681CC5B2785D50
:102600000028DBD137E032E0785D203800F0FF08A9
:10261000782E04DD002609F1010000F0FF0949468B
:102620003046FFF77AFF002407E004EB0811144A54
:10263000505C01F0DFF8601CC4B2082CF5DB09F136
:102640000100C1B23046FFF768FF002408E004EB48
:10265000081108310A4A505C01F0CCF8601CC4B281
:10266000082CF4DB06F10800C6B2681CC5B2785D20
:102670000028C9D100BF00BFBDE8F087EB5A0008B1
:10268000135D000830B58BB00020079008900990CA
:102690000A90012530A033A334A236A1009041480E
:1026A00001F064F807A8002102910391CDE904101C
:1026B00000912B0228A201912AA12CA0FFF780F9FA
:1026C000002842D1089A91B20798FEF779FEFA20C5
:1026D000FEF736FD0446002C33D02046FFF71EFEE1
:1026E00002282ED12046FFF719FD062823D2DFE865
:1026F00000F003090E13181D2BA12A4801F036F82B
:1027000000251DE02DA1274801F030F818E032A186
:10271000244801F02BF813E038A1224801F026F8F4
:102720000EE03EA11F4801F021F809E044A11D4838
:1027300001F01CF804E04DA11A4801F017F800BFA1
:1027400000BF07A8FFF7A4F803E04FA1154801F068
:102750000DF828460BB030BD3131303138323631CA
:1027600035310000313233343536000036313039FE
:10277000343700004F6E654E65745F4465764C6972
:102780006E6B0D0A50524F49443A2025732C094173
:102790005549463A2025732C0944455649443A2563
:1027A000730D0A0000380140546970733A09C1ACD6
:1027B000BDD3B3C9B9A60D0A000000005741524E5F
:1027C0003A09C1ACBDD3CAA7B0DCA3BAD0ADD2E937
:1027D000B4EDCEF30D0A00005741524E3A09C1AC98
:1027E000BDD3CAA7B0DCA3BAB7C7B7A8B5C4636CDA
:1027F00069656E7469640D0A000000005741524E0D
:102800003A09C1ACBDD3CAA7B0DCA3BAB7FECEF1BA
:10281000C6F7CAA7B0DC0D0A000000005741524EAF
:102820003A09C1ACBDD3CAA7B0DCA3BAD3C3BBA716
:10283000C3FBBBF2C3DCC2EBB4EDCEF30D0A000068
:102840005741524E3A09C1ACBDD3CAA7B0DCA3BAB6
:10285000B7C7B7A8C1B4BDD328B1C8C8E7746F6BF8
:10286000656EB7C7B7A8290D0A0000004552523A55
:1028700009C1ACBDD3CAA7B0DCA3BACEB4D6AAB442
:10288000EDCEF30D0A0000005741524E3A094D516A
:1028900054545F5061636B6574436F6E6E6563740F
:1028A000204661696C65640D0A00000070B588B04F
:1028B000044620216846FDF778FC25A0008820808A
:1028C00020216846FDF771FC2248027822A1684663
:1028D00000F0A8FF69462046FDF772FC20216846FB
:1028E000FDF763FC2048027820A1684600F09AFFBB
:1028F00069462046FDF764FC20216846FDF755FC3B
:102900001E4802781EA1684600F08CFF69462046EA
:10291000FDF756FC20216846FDF747FC1C4800687F
:10292000FDF7C3FE05462A460B461AA1684600F08D
:1029300079FF69462046FDF743FC1AA12046FDF7C2
:102940003FFC2046FDF764FCC0B208B070BD00003B
:102950007B00000017000020226D6F6465223A2280
:102960002564222C000000001600002022666C6105
:1029700067223A222564222C000000001800002063
:102980002254485F476173223A222564222C0000BA
:102990000C00002022476173223A22252E32662243
:1029A000000000007D0000002DE9F04F8FB082464E
:1029B00000200B900C900D900E900A9009900890BA
:1029C0000790804606900027002581465046FFF775
:1029D000A5FC8046B8F1030F29D0B8F1040F7DD0D3
:1029E000B8F10F0F7BD107AB0AAA09A95046FFF730
:1029F0004FFB0746D7B9BDF81C000090E0A1E9489D
:102A0000DDE9092300F0B2FE0BAADDE90901FEF7BA
:102A100091FF58B9E4A1E34800F0A8FE0C9A91B2E6
:102A20000B98FEF7CDFC0BA8FEF732FF00E1E4A007
:102A300000F0E8FEE94806A907AA0AABCDE90021A3
:102A4000029008AA09A95046FFF778FB0746002F15
:102A50007DD1BDF81C000A99CDE90010BDF82030E9
:102A6000DFA1D048099A00F081FE0A9801F04EFCDF
:102A7000064626B9E9A1CB4800F078FE94E0002490
:102A8000EEA1304601F022FCD0F810B05846FDF718
:102A9000E9FB04464CB1EB490C7008460178EAA00A
:102AA00000F0B0FE0120EB4908600024EAA13046A6
:102AB00001F00CFCD0F810B05846FDF7D3FB0446EB
:102AC00034B1E7490C7008460178E6A000F09AFEA0
:102AD000DC480078022867D1002401E09CE0A4E0F3
:102AE000E4A1304601F0F2FBD0F810B05846FDF7F3
:102AF000B9FB0446012C2BD10020D64908600223E3
:102B0000DEA204212020FFF747FD422204212A20D3
:102B1000FFF718FD442204213A20FFF713FD01219D
:102B2000084601F0C3FE0120D54908700223D3A254
:102B300004212020FFF730FD4F2204212A20FFF737
:102B400001FD502204213A20FFF7FCFC2CE062E05A
:102B5000022C29D10120BF4908600223C7A2042109
:102B60002020FFF719FD432204212A20FFF7EAFC69
:102B7000442204213A20FFF7E5FC0021012001F066
:102B800095FE0223BDA204212020FFF705FD4F2260
:102B900004212A20FFF7D6FC502204213A20FFF717
:102BA000D1FC0220B6490870304601F063FB9DF865
:102BB0001800012802D0022826D112E00BA987486C
:102BC0000088FFF729F958B9AEA1764800F0CEFD8C
:102BD0000C9A91B20B98FEF7F3FB0BA8FEF758FE88
:102BE00013E00BA97D480088FFF73AF958B9ABA16B
:102BF0006C4800F0BBFD0C9A91B20B98FEF7E0FB1D
:102C00000BA8FEF745FE00E000BF00BFFEF78AFA02
:102C10000FB0BDE8F08F0BE05046FFF76FFB18B91F
:102C2000A4A1604800F0A2FD02E04FF0FF3700BF12
:102C300000BFFEF777FA781C00B9E9E77D210A9812
:102C4000FDF7DCFA0546002D3ED0781C0028FBD0AD
:102C50006D1C06E015F8012B484609F1010903A98E
:102C60000A542878302802DB28783928F2DD002041
:102C700003A901F80900974800F0C4FD03A8FDF777
:102C8000F1FA8146554806A907AA0AABCDE9002109
:102C9000029008AA09A95046FFF750FA0746BDF866
:102CA0001C000A99CDE90010BDF820304CA13D4828
:102CB000099A00F05BFD0A9801F028FB064626B948
:102CC00056A1384800F052FD4CE000245BA130468C
:102CD00001F0FCFAD0F810B05846FDF7C3FA0446EC
:102CE0004CB158490C700846017857A000F08AFD95
:102CF000012058490860002457A1304601F0E6FA47
:102D0000D0F810B05846FDF7ADFA044634B1544936
:102D10000C700846017853A000F074FD4948007813
:102D200002281CD1002453A1304601F0CFFAD0F87C
:102D300010B05846FDF796FA0446012C06D15049CA
:102D400008700121032001F0B1FD08E0022C06D13A
:102D500002204B4908700021032001F0A7FD3046F6
:102D600001F088FAB8F10F0F02D0B8F1030F05D1C6
:102D7000099801F081FB0A9801F07EFB00BF47E74C
:102D8000636D6469643A2025732C207265713A2062
:102D900025732C207265715F6C656E3A2025640D79
:102DA0000A00000000380140546970733A09536505
:102DB0006E6420436D64526573700D0A000000005C
:102DC000BDD3CAD5CAFDBEDD4D5154545F504B54DE
:102DD0005F5055424C4953480D0A000054000020F2
:102DE000746F7069633A2025732C20746F70696367
:102DF0005F6C656E3A2025642C207061796C6F6180
:102E0000643A2025732C207061796C6F61645F6C6B
:102E1000656E3A2025640D0A000000006A736F6E2B
:102E2000207061636B20696E746F20636A736F6ECC
:102E3000206572726F722E2E2E0D0A006D6F646502
:102E400000000000170000206D6F6465203D202504
:102E5000640D0A00B401224254485F4761730000C8
:102E60001800002054485F476173203D2025640D01
:102E70000A000000666C6167000000003A00000074
:102E800016000020546970733A0953656E6420502F
:102E900075626C69736841636B0D0A0054697073E5
:102EA0003A0953656E64205075626C6973685265A7
:102EB000630D0A00546970733A094D5154542050FF
:102EC00075626C6973682053656E64204F4B0D0A00
:102ED000000000001499000830B5C5B000204190F2
:102EE000429043904490002400251CA1234800F008
:102EF0003DFC4FF4807101A8FDF757F901A8FFF7D9
:102F0000D5FC0446002C26D041A8032300222146EC
:102F100000901BA0FEF7C8FFC8B908E001A8415DFA
:102F2000429A501C429041988154681C05B2A542B7
:102F3000F4DB429A91B24198FEF742FA13A10F488E
:102F4000429A00F013FC41A8FEF7A2FC03E013A193
:102F50000A4800F00BFC45B030BD000054697073A6
:102F60003A094F6E654E65745F53656E64446174D3
:102F7000612D4D5154540D0A0000000000380140ED
:102F800031313031383236313531000053656E64BD
:102F90002025642042797465730D0A005741524E12
:102FA0003A094544505F4E65774275666665722002
:102FB0004661696C65640D0A0000000070B586B05A
:102FC00004460D46002600200290039004900590D0
:102FD00007E054F826200DA1124800F0C7FB701C32
:102FE000C6B2AE42F5DB02A82B4622460221009073
:102FF0001420FEF7ABFF38B9039A91B20298FEF79E
:10300000DFF902A8FEF744FC06B070BD5375627389
:10301000637269626520546F7069633A2025730D8D
:103020000A000000003801407047000001460020FF
:10303000034A506820F44040084350607047000045
:103040000010024029B1064A52690243044B5A61FA
:1030500004E0034A52698243014B5A617047000001
:103060000010024029B1064AD2690243044BDA61DA
:1030700004E0034AD2698243014BDA6170470000E1
:103080000010024029B1064A12690243044B1A613A
:1030900004E0034A12698243014B1A617047000041
:1030A0000010024029B1064A92690243044B9A611A
:1030B00004E0034A92698243014B9A617047000021
:1030C0000010024030B500210022002400232D4DC5
:1030D0006D6805F00C0121B1042905D0082923D120
:1030E00005E0294D056022E0274D05601FE0254DD4
:1030F0006D6805F47012234D6D6805F48034022567
:1031000005EB92421CB9214D554305600BE01D4D66
:103110006D6805F400351DB11C4D5543056002E096
:10312000194D5543056002E0174D056000BF00BF13
:10313000144D6D6805F0F0010909154D6B5C0568CB
:10314000DD4045600F4D6D6805F4E061090A104DE2
:103150006B5C4568DD4085600A4D6D6805F4605123
:10316000C90A0B4D6B5C4568DD40C560054D6D6857
:1031700005F44041890B074D6B5CC568B5FBF3F561
:10318000056130BD0010024000127A0000093D00C8
:103190002A0000203A0000207047000010B50446C5
:1031A00004F0010020B120211648FEF7EEF903E0FB
:1031B00020211448FEF7E7F904F0020020B1402175
:1031C0001048FEF7E2F903E040210E48FEF7DBF974
:1031D00004F0040020B180210A48FEF7D6F903E08C
:1031E00080210848FEF7CFF904F0080020B1102133
:1031F0000448FEF7CAF903E010210248FEF7C3F9BC
:1032000010BD00000008014010B500F001F810BD2D
:103210000CB50020019000903348006840F48030E5
:103220003149086000BF3048006800F40030009069
:103230000198401C0190009818B90198B0F5A06F52
:10324000F1D12948006800F4003010B1012000904D
:1032500001E0002000900098012843D12348006835
:1032600040F01000214908600846006820F0030083
:1032700008600846006840F0020008601A4840688C
:10328000194948600846406848600846406840F46C
:10329000806048600846406820F47C10486008461A
:1032A000406840F4E81048600846006840F08070CC
:1032B000086000BF0C48006800F000700028F9D0DA
:1032C0000948406820F00300074948600846406804
:1032D00040F00200486000BF0348406800F00C0066
:1032E0000828F9D10CBD0000001002400020024067
:1032F00008B501210420FFF7D5FE10208DF803004A
:1033000003208DF80200F020ADF800006946024865
:10331000FEF7AEF808BD000000080140042808D1FF
:103320004FF0E021096941F004014FF0E022116102
:1033300007E04FF0E021096921F004014FF0E0229D
:10334000116170477047000010B51348006840F0E5
:1033500001001149086008464068104908400E49BC
:103360004860084600680E4908400B490860084656
:10337000006820F4802008600846406820F4FE00C1
:1033800048604FF41F008860FFF73EFF4FF0006079
:103390000449086010BD0000001002400000FFF862
:1033A000FFFFF6FE08ED00E010B540F2255104489D
:1033B00000F082F818B12021014800F05BF810BD40
:1033C0000038014010B540F22551184800F074F85B
:1033D00000282AD016480088802802D300201449EB
:1033E00008801248001D0088C1B211480288008878
:1033F000401C0F4B18800F48815418460088401E0F
:103400000C49085C0C4908800CA10A48FCF7E4FE52
:1034100038B1FDF787FE0EA000F0F4F90020144942
:1034200008702021014800F025F810BD004400403C
:1034300058000020BE0E0020043801406C696E6BFD
:10344000206973206E6F742076616C6964000000DF
:10345000496E7465727272206572726F72203D3DA2
:103460003D3D3D3D3D3D3D3D3D3D210D0A000000C2
:103470005C00002001F40072B2F5007F00D100BFB3
:10348000CA430280704721B1828942F4005282818E
:1034900004E082894DF6FF731A408281704702462C
:1034A0000020B1F5007F00D100BF13880B400BB1A5
:1034B000012000E00020704770B502460024002380
:1034C0000025002040F66A16B14200D100BFC1F3CA
:1034D000421501F01F03012606FA03F3012D02D164
:1034E0009689334006E0022D02D1168A334001E06E
:1034F000968A33400C12012606FA04F416883440EA
:1035000013B10CB1012000E0002070BDF0B50346FE
:10351000002400260025002040F66A17B94200D199
:1035200000BF1846C1F3421401F01F06012707FA35
:1035300006F5012C01D10C3004E0022C01D1103031
:1035400000E014301AB107682F43076002E00768F3
:10355000AF430760F0BD00002DE9F04786B0054697
:103560000E460024A24600BFA1460027B08900B144
:1035700000BF2F462C8A4CF6FF700440F0880443AD
:103580002C82AC894EF6F3100440B0883189084390
:10359000718908430443AC81AC8A4FF6FF40044074
:1035A000B0890443AC8201A8FFF78CFD1F48874215
:1035B00002D1DDF810A001E0DDF80CA0A88900F42C
:1035C000004040B10AEBCA0000EB0A103168490024
:1035D000B0FBF1F807E00AEBCA0000EB0A10316813
:1035E0008900B0FBF1F86420B8FBF0F00401200979
:1035F000642101FB1089A88900F4004040B1322009
:1036000000EBC900B0FBF1F000F00700044308E054
:10361000322000EB09106421B0FBF1F000F00F0044
:1036200004432C8106B0BDE8F0870000003801405B
:10363000C1F308028280704700BFFEE710B586B074
:10364000044601210420FFF72DFD01218803FFF727
:1036500029FD18208DF817004FF40070ADF8140004
:1036600003208DF8160005A91348FDF701FF04207B
:103670008DF817000002ADF8140003208DF8160035
:1036800005A90D48FDF7F4FE01940020ADF81000E7
:103690000C20ADF80E000020ADF80C00ADF80A00CB
:1036A000ADF8080001A90548FFF756FF01210348BE
:1036B000FFF7E9FE06B010BD0008014000380140E8
:1036C00010B586B0044601210420FFF7EBFC012170
:1036D0004804FFF7C7FC18208DF817000420ADF848
:1036E000140003208DF8160005A91E48FDF7C0FE42
:1036F00004208DF817000820ADF8140003208DF881
:10370000160005A91748FDF7B3FE01940020ADF897
:1037100010000C20ADF80E000020ADF80C00ADF844
:103720000A00ADF8080001A90F48FFF715FF0121B5
:103730000D48FFF7A8FE012240F225510A48FFF785
:10374000E5FE26208DF8000001208DF80300002002
:103750008DF801008DF802006846FEF71DFE06B0E8
:1037600010BD000000080140004400400FB430B517
:10377000CBB0054601AC50A800904FF4947101A85D
:10378000009B4F9A00F062F8002000900BE014F8C4
:10379000011B2846FFF74CFF00BF40212846FFF7DA
:1037A0007EFE0028F9D020780028F0D14BB030BC44
:1037B0005DF814FB2DE9F04107460C46154600263E
:1037C0000DE014F8011B3846FFF732FF00BF40211F
:1037D0003846FFF764FE0028F9D0701C86B2AE426E
:1037E000EFDBBDE8F08110B5044621460020FEF76E
:1037F00009F810BD10B5044621464020FEF702F836
:1038000010BD00000FB4054B10B503A9044A02987F
:1038100000F09CF910BC5DF814FB00005D4400084A
:10382000900E00200FB4084B10B504A902AA03980B
:1038300000F08CF9044602A9002000F015FD204696
:1038400010BC5DF814FB0000694200087CB50C0058
:103850001D461646014601D0601E00E00020CDE95D
:103860000010064B6A462946304600F06FF9002CDE
:1038700002D0009A002111707CBD00005342000864
:10388000490050EAC12018BF04204A0D18BF40F07B
:10389000010040F2FF72B2EB515F08BF40F002003E
:1038A000012808BF05207047004870479C0E002083
:1038B0002DE9F0414F1E00EBC7010446D1E900019C
:1038C00015461E4637F006020DD02A463346FCF751
:1038D00045FE7F1E04EBC703D3E90023FCF797FDE9
:1038E00037F00602F1D1022F25D0042F13D0062F76
:1038F00018BFBDE8F0812A463346FCF72FFED4E915
:103900000A23FCF784FD2A463346FCF727FED4E958
:103910000823FCF77CFD2A463346FCF71FFED4E95A
:103920000623FCF774FD2A463346FCF717FED4E95C
:103930000423FCF76CFD2A463346FCF70FFED4E95E
:103940000223FCF764FD2A463346FCF707FED4E960
:103950000023BDE8F041FCF75ABD000000221346E9
:1039600010460149FDF724B80000F03FFCF74FBDB9
:103970000022134610461146FDF71AB840F20132F4
:1039800000204FF0E041FDF782B80000024A00201D
:103990001107FDF77CB8000001FDFFFF02E008C839
:1039A000121F08C1002AFAD170477047002001E0B9
:1039B00001C1121F002AFBD17047000001490860B5
:1039C000704700009C0E00202DE9FF5F82B00021AF
:1039D000DDE90430020DDDF840B0034318D044F6B1
:1039E0001050A2F2FF3242431514119801281FD043
:1039F000A5EB0B00401C5FEA000A4FF000064E4F9B
:103A0000DFF83891B046504615D5CAF1000413E0EE
:103A1000119801244AA3012801D16FEA0B010298F1
:103A2000119AC0E90031C0E9024206B0BDE8F09F3A
:103A3000CBF10000DFE704460021404A491842EB81
:103A40000450CDE9001012E0E00707D032463B46B3
:103A500040464946FCF782FD8046894632463B4651
:103A600010461946FCF77AFD06460F466410002CF6
:103A7000EAD1DDE90401DDE90023BAF1000F06DA3D
:103A8000FCF76CFD42464B46FCF768FD05E0FCF791
:103A90008FFF42464B46FCF78BFF04460E46002242
:103AA000284BFCF715FE03D84FF0FF30014607E026
:103AB0000022254B20463146FCF7A9FCFCF7FEFF0F
:103AC000102409E0002C0ADB0A220023FCF742FE46
:103AD000039B30321A55641E50EA0102F2D1641C75
:103AE000039AC4F111031444119A012A03D001224C
:103AF00008430DD10AE0084304D000204FF0110B19
:103B0000119072E7A3EB0B056D1E0DE05B4504DD24
:103B10004FF0000205F1010504E003DA4FF0000266
:103B2000A5F10105002AECD002981199C0E90231F3
:103B3000C0E9004579E70000000014400000F03FB4
:103B4000300000000000F0430000E03F2DE9FF4F8F
:103B500095B09A46884606460025EEE1252877D19D
:103B600000242746F94A0121039400E0044316F893
:103B7000013F203B01FA03F01042F7D130782A28A8
:103B800011D06FF02F033078A0F13002092A16D837
:103B9000039A44F0020402EB820203EB4202104457
:103BA000761C0390EFE758F8042B0392002A03DAFF
:103BB000504244F40054039044F00204761C3078E0
:103BC0002E2816D116F8010F44F004042A280DD02F
:103BD0006FF02F023078A0F13003092B09D807EBE2
:103BE000870302EB4303C718761CF3E758F8047BFE
:103BF000761C30786C280FD006DC4C2817D068284B
:103C00000DD06A2814D104E0742810D07A280FD17E
:103C10000DE044F400140AE044F4801401E044F49C
:103C200040147278824202D104F58014761C761C0E
:103C3000307866280BD013DC582877D009DC0028B0
:103C400075D04528F6D04628F4D047281AD193E1FC
:103C500018E0632835D0642879D0652812D18BE12B
:103C6000702873D008DC6728F1D069286FD06E28DF
:103C70000DD06F2806D1ACE073282CD0752874D0F5
:103C8000782853D05246179990476D1C54E1C4F3DD
:103C90000250022809D003280DD0D8F800100428BB
:103CA0000DD00D6008F1040846E1D8F80010EA17BD
:103CB000C1E90052F6E7D8F800100D80F2E70D7068
:103CC000F0E718F8041B8DF8001000208DF80100B3
:103CD000EB46012003E058F804BB4FF0FF306107CA
:103CE0004FF0000102D40DE009F101018946B9420B
:103CF0000FDA8145F8DB1BF809100029F4D108E040
:103D000009F1010189468142FADB1BF809100029FB
:103D1000F6D103985346A0EB090721463846179A77
:103D200000F080FA284400EB090507E044E008E1D0
:103D30000DE01BF8010B524617999047B9F10109A4
:103D4000F7D2534621463846179AF2E039E00A2165
:103D5000C4F302524FF0000B0091022A06D058F82B
:103D6000040BC117032A09D00AE023E008F1070079
:103D700020F00702F2E80201904605E000B2C11708
:103D8000042A01D140B2C117002906DA0A460021EF
:103D9000404261EB02012D2202E0220504D52B22D4
:103DA0008DF80420012203E0E20701D02022F7E78A
:103DB000914657E00A2100E010214FF0000B0091DE
:103DC0000BE010214FF0000B44F004040827009191
:103DD00003E008204FF0000B0090C4F30252022AC7
:103DE00005D058F8040B0021032A08D008E008F198
:103DF000070020F00702F2E80201904603E080B2DB
:103E0000042A00D1C0B24FF0000922072AD5327827
:103E1000702A07D0DDF800C08CF0100C5CEA0B0CA7
:103E200005D00EE040228DF80420012208E050EA7F
:103E3000010306D030238DF804308DF805200222CE
:103E40009146009B83F0080353EA0B030AD150EA22
:103E5000010201D1620705D530228DF804204FF010
:103E600001097F1E3278582A04D039A20C920CAA7C
:103E700002920BE03BA2F9E75B46009AFCF76AFC72
:103E80000C9B9B5C029A521E0292137050EA010234
:103E9000F2D1029804A9081A00F1200B600702D59C
:103EA00024F4803400E001275F4502DDA7EB0B001E
:103EB00000E0002000EB0B01009003984944401AF9
:103EC0000390E00306D453462146179A039800F066
:103ED000A9F90544002706E001A85246C05D1799DC
:103EE00090476D1C7F1C4F45F6DBE0030CD5534615
:103EF0002146179A039800F095F9054404E0302014
:103F00005246179990476D1C0099481E0090002951
:103F1000F5DC08E00298029952460078491C0291AB
:103F2000179990476D1CBBF10001ABF1010BF1DC5F
:103F30005BE100F065F90544761C307800287FF4D9
:103F40000DAE19B02846BDE8F08F00000928010029
:103F500030313233343536373839616263646566FF
:103F600000000000303132333435363738394142C1
:103F70004344454600000000600700D4062708F1CE
:103F8000070020F00700F0E80223804603F0004C11
:103F90005FEA0C0001D097A009E0200501D596A0AA
:103FA00005E0E00701D095A001E0AFF24C001390CE
:103FB000307823F0004365280CD006DC452809D072
:103FC00046281DD047287FD13BE0662818D06728B7
:103FD0007AD136E00021112F01DB112000E0781C9E
:103FE000CDE9000104A90CA8FFF7EEFCDDE90D0105
:103FF0000C9A4FF0000B07F10109109200914EE06E
:104000004FF000400097CDE9011004A90CA8FFF77C
:10401000DBFCDDE90D020C9B0F994FF0000B914684
:104020001093009211B9791C00EB0109B7EB09005C
:1040300003D4C0F1FF3B07F10109A9EB0700019090
:1040400042E0012F00DA01270021112F01DD1120AC
:1040500000E03846CDE9000104A90CA8FFF7B4FC44
:10406000DDE90D010C9A00914FF0000BB94610925A
:1040700021070FD4009A4A4503DA914601E0A9F1DD
:104080000109B9F1010F05DD109AA9F10101515C97
:104090003029F4D0B84202DA10F1040F03DA01211A
:1040A000CDE9011010E0002803DC8344A9EB0001F6
:1040B00002E0411C494500DD8946A0EB0B00401C95
:1040C00001904FF000400290200705D40198484528
:1040D00002DB4FF0FF30019000208DF84B0002987A
:1040E0000DF14B07B0F1004F25D002200C902B2092
:1040F0000D90029800280CDA404202902D200D907D
:1041000007E00A210298FCF70FFB3031029007F814
:10411000011D0C99481E0C900029F2DC0298002821
:10412000EFD1791E0D980870307800F0200040F033
:10413000450007F8020D11A8C01BC01D029013987E
:10414000007800B1012000EB0901019801EBE0715A
:10415000029801440398401A401E0390E00306D4DD
:1041600053462146179A039800F05CF805441398CB
:10417000007818B15246179990476D1CE00323D57B
:1041800053462146179A039800F04CF805441BE06B
:10419000BBF1000F07DB0098584504DD1098179914
:1041A00010F80B0001E01799302052469047019813
:1041B0000BF1010B401E05F10105019004D12E20E9
:1041C0005246179990476D1CB9F10001A9F10109F8
:1041D000DEDC05E017F8010B5246179990476D1C7D
:1041E0000299481E02900029F4DC53462146179A92
:1041F00003989EE62D0000002B0000002000000028
:104200002DE9F041044600251E461746880404D4D3
:1042100005E039462020B0476D1C641EF9D52846BC
:10422000BDE8F0812DE9F041044600251E46904688
:10423000C80301D5302700E02027880404D505E015
:1042400041463846B0476D1C641EF9D52846BDE886
:10425000F0814A68002A06D00A68531C0B6010706F
:104260004868401E486070470A68531C0B60107015
:104270007047000070B5044622E02568A08900F46C
:10428000807020B9A06810B1A068FFF7F3FFA08983
:1042900000F4807028B9206918B10B4920690968B9
:1042A0008847A08900F4007028B9206A18B106492F
:1042B000206A0968884720460349096888472C46D0
:1042C000002CDAD170BD00006800002070B50546F2
:1042D0000E46AC6800E024682CB13146206A00F03C
:1042E0004FF80028F7D1204670BD000010B52820F7
:1042F00005490968884704461CB128212046FBF778
:1043000054FF204610BD00006400002010B5044694
:1043100000221146204600F001F810BD2DE9F047BB
:1043200080460D4616460024FFF7E0FF07460020B2
:10433000124908600FB9BDE8F087404601F08EFBD6
:1043400081464946384600F009FE044624B93846FD
:10435000FFF790FF0020EEE766B1204601F07EFBFC
:104360000446207830B13846FFF784FF03480460E4
:104370000020E0E705B12C603846DCE76000002053
:1043800070B504460D462CB9AC4201D0012070BD79
:104390000020FCE70DB90120F9E705E0207808B915
:1043A0000020F4E7641C6D1C2078FBF7DFFE064656
:1043B0002878FBF7DBFE8642F0D02078FBF7D6FEAC
:1043C00006462878FBF7D2FE301AE0E710B56FF00A
:1043D0000400FEF7A3FF0A4800680A49B0FBF1F0A9
:1043E000094908700846007800EB4001C1EBC01095
:1043F0004FF6FF7101EAC0000449088010BD0000BB
:104400004000002000127A008C0E00208E0E00204A
:104410000146114A12884A434FF0E0235A610022B4
:104420009A611A46126942F001021A6100BF4FF008
:10443000E022106900F001021AB100F48032002A73
:10444000F5D04FF0E022126922F001024FF0E02394
:104450001A6100229A6170478E0E002000BF054A43
:10446000128802F04002002AF9D0C2B2014B1B1D93
:104470001A8070470038014010B5002821D0114B38
:104480000022001F196803E0814203D80A464968E8
:104490000029F9D152B11368841A9C4204D10068F2
:1044A00018441060104602E0506000E0186039B116
:1044B00002680B1A934203D10B681A4402604968E0
:1044C000416010BD940E00201CB50024C24903C9F0
:1044D000CDE900014FF4A060FDF796FFFFF776FFEE
:1044E0004FF4E130FFF7AAF84FF4E130FFF7E8F8B6
:1044F000FCF7C6FCFDF7B4FF01F07AFAFEF7F8FE10
:104500000F20B6490870FCF799FF0120B4490860F4
:1045100061E1B448007801287ED1B3480088401C8E
:10452000B1490880B1480078012810D10223B0A217
:1045300006212020FEF730F8492206212A20FEF726
:1045400001F84A2206213A20FDF7FCFF0FE0022382
:10455000A7A206212020FEF71FF84B2206212A20C1
:10456000FDF7F0FF4A2206213A20FDF7EBFFA148B4
:10457000007801280AD14C2204215820FDF7E2FFDF
:104580004E2204216820FDF7DDFF09E04D220421C1
:104590005820FDF7D7FF4E2204216820FDF7D2FFF7
:1045A00091480088C82190FBF1F201FB120000281D
:1045B0007ED1914908809149086012E08E490A88AD
:1045C0000988491C8C4B19808D4931F81200FCF781
:1045D00037F80546894801682846FBF750FE8749A9
:1045E0000860854800882828E8DB864983480068F9
:1045F000FBF7CFFE81464FF08B41FBF7CAFE8046AA
:104600008149FBF794FE07468049FBF78AFE064680
:104610007E49FBF7BEFE00E0C8E005467A49FBF79D
:104620002EFE7B4908607B480021016041600181CA
:1046300077480068FCF739F805462A460B4676A10C
:104640007448FFF7EFF80223724A00212020FDF79B
:10465000A3FF704800210160416001815F4802783A
:104660006FA16C48FFF7DEF802236A4A1946402022
:10467000FDF792FF0020614908605C48007801283E
:104680007FD156480078FBF7DBFF0546604801689C
:104690002846FCF735F836D262480078012832D037
:1046A00000204F4908606049C1F8A401022300E0DE
:1046B00067E04FA204212020FDF76EFF4222042173
:1046C0002A20FDF73FFF442204213A20FDF73AFF5C
:1046D0000121084600F0EAF801204649087002234B
:1046E00043A204212020FDF757FF4F2204212A2056
:1046F000FDF728FF502204213A20FDF723FF012077
:10470000484908703DE035480078FBF799FF0546B9
:104710003F4801682846FBF7FDFF32D84148007842
:1047200002282ED001202E4908603F49C1F8A4017B
:1047300002232FA204212020FDF72EFF4322042173
:104740002A20FDF7FFFE442204213A20FDF7FAFE5D
:104750000021012000F0AAF8022325A20421202034
:10476000FDF71AFF4F2204212A20FDF7EBFE50220D
:1047700004213A20FDF7E6FE02201E49087029496F
:10478000087019480088B0F5C87F06DD002016497A
:104790000880FEF7A1FBFCF7C5FC0020FCF7D0FC6D
:1047A0000446C4B12046FEF7FFF814E01FA0FFF74F
:1047B00029F8FCF7EDFC03E04FF4FA70FFF728FE50
:1047C000FDF760FF0028F7D101216846FEF7F6FBF0
:1047D0000120044908709CE6BC5A0008180000201B
:1047E000B40122425C0000200400002017000020D9
:1047F0003A00000016000020000000200800002001
:10480000A00E0020000020410000A040CDCCCC3EF6
:104810000C000020B40E00203A252E32662525001B
:104820003A2564001900002000802142BFAACABCBA
:10483000C1ACBDD3A3A1A3A1A3A10D0A0000000098
:10484000F0B50B30154D20F007010024144A0FE09D
:1048500003688B420BD38B4205D95E1A4318476815
:10486000C3E9006700E04368136002C004E0021D72
:1048700010680028ECD12046002802D1286808B131
:104880000020F0BD064A07481060074A121A22F0BD
:104890000702C0E9002401202860D7E7980E002015
:1048A000940E0020440F0020401100202DE9F0411B
:1048B00005460E460024A0461AE0002713E0002417
:1048C0000EE0012E04D10C49085DFEF767FC03E001
:1048D0000A49085DFEF762FC0120FFF799FD641CA0
:1048E000082CEEDB7F1CB7F5007FE8DB08F1010840
:1048F000A845E2DBBDE8F0811A000020220000207C
:104900002DE9F04705460C4620785B2804D0264860
:1049100004600020BDE8F0870520E860601C01F01D
:104920009DF8044620785D2801D1601CF2E7FFF76E
:10493000DDFC0646A860A86808B90020EAE7204622
:1049400001F08CF880464146304600F007FB0746F0
:1049500001F084F804460CB90020DBE717E0FFF70C
:10496000C5FC071E00D1D5E737607E603E46601C5F
:1049700001F074F881464946304600F0EFFA80466F
:1049800001F06CF804460CB90020C3E700BF2078A2
:104990002C28E4D020785D2801D1601CBAE70248B9
:1049A00004600020B6E700006000002001460022FD
:1049B0000878302806DB0878392803DC0878303896
:1049C000024415E00878412806DB0878462803DC15
:1049D0000878373802440BE00878612806DB08784D
:1049E000662803DC08785738024401E0002070474D
:1049F0001201491C0878302806DB0878392803DCC6
:104A000008783038024415E00878412806DB087839
:104A1000462803DC0878373802440BE00878612820
:104A200006DB0878662803DC08785738024401E082
:104A30000020DCE71201491C0878302806DB0878E2
:104A4000392803DC08783038024415E0087841281A
:104A500006DB0878462803DC0878373802440BE088
:104A60000878612806DB0878662803DC0878573860
:104A7000024401E00020BAE71201491C08783028FE
:104A800006DB0878392803DC08783038024415E062
:104A90000878412806DB0878462803DC0878373890
:104AA00002440BE00878612806DB0878662803DCFE
:104AB00008785738024401E0002098E7104696E74E
:104AC0002DE9F04F8BB083468A4600200446054608
:104AD0000026674F002188468946099001200890EA
:104AE0009AF800002D2802D1624F0AF1010A9AF8C3
:104AF0000000302801D10AF1010A9AF8000031289B
:104B000022DB9AF8000039281EDC00BF1AF8011BCE
:104B1000A1F13000FBF799FD0022574BCDE90601CA
:104B200020462946FBF71AFDCDE90401DDE90623FD
:104B3000FBF76DFC04460D469AF80000302803DBB5
:104B40009AF800003928E1DD9AF800002E2830D1CB
:104B50009AF8010030282CDB9AF80100392828DC6B
:104B60000AF1010A00BF1AF8011BA1F13000FBF79E
:104B70006CFD0022404BCDE9060120462946FBF79B
:104B8000EDFCCDE90401DDE90623FBF740FC04461A
:104B90000D460022364B40464946FBF7D9FC80467D
:104BA00089469AF80000302803DB9AF8000039287B
:104BB000D9DD9AF80000652803D09AF8000045284E
:104BC00023D10AF1010A9AF800002B2802D10AF138
:104BD000010A08E09AF800002D2804D14FF0FF30B8
:104BE00008900AF1010A08E01AF8010B3038099917
:104BF00001EB810100EB410009909AF80000302898
:104C000003DB9AF800003928EEDDDDE9082101FB1D
:104C100002F0FBF71AFD42464B46CDE90001FBF7D7
:104C2000F6FB02460B46CDE902010020124900F0D6
:104C3000F3F922462B46CDE9060130463946FBF70B
:104C40008DFCCDE90401DDE90623FBF787FC044672
:104C50000D46CBE9064520462946FBF707FDCBF874
:104C600014000320CBF80C0050460BB0BDE8F08FC9
:104C70000000F03F0000F0BF000024402DE9F047A5
:104C800006460C4620787B2804D04048046000206B
:104C9000BDE8F0870620F060601C00F0DFFE0446EF
:104CA00020787D2801D1601CF2E7FFF71FFB054645
:104CB000B060B06808B90020EAE7204600F0CEFEF8
:104CC00080464146284600F063F8074600F0C6FEDD
:104CD00004460CB90020DBE728692862002028611F
:104CE00020783A2803D0294804600020D0E7601CCF
:104CF00000F0B4FE80464146284600F02FF90746F2
:104D000000F0ACFE04460CB90020C1E731E0FFF72B
:104D1000EDFA071E00D1BBE72F607D603D46601CA9
:104D200000F09CFE81464946284600F031F8804656
:104D300000F094FE04460CB90020A9E72869286217
:104D40000020286120783A2803D010480460002011
:104D50009EE7601C00F082FE81464946284600F02E
:104D6000FDF8804600F07AFE04460CB900208FE77B
:104D700000BF20782C28CAD020787D2801D1601C63
:104D800086E702480460002082E7000060000020FF
:104D90002DE9F05F8346884608F10104002798F862
:104DA0000000222805D06A48C0F800800020BDE835
:104DB000F09F04E014F8011B5C2900D1641C2078EA
:104DC000222804D0207810B1781C071EF2D1781C5C
:104DD0006049096888478146B9F1000F01D1002078
:104DE000E5E708F101044D469EE020785C2804D0F8
:104DF00014F8010B05F8010B96E0641C207872286A
:104E000018D006DC622809D066280BD06E287DD128
:104E10000CE0742812D07528F9D113E0082005F8A9
:104E2000010B7FE00C2005F8010B7BE00A2005F860
:104E3000010B77E00D2005F8010B73E0092005F860
:104E4000010B6FE0601CFFF7B1FD0646241DB6F5AF
:104E50005C4F02D3B6F5604F00D306B962E0B6F5F9
:104E6000584F1CD3B6F55C4F19D260785C2802D13C
:104E7000A078752800D055E0E01CFFF797FD82462A
:104E8000A41DBAF55C4F02D3BAF5604F00D349E0D8
:104E9000C6F30901504661F39F2000F580360427D0
:104EA000802E01D2012708E0B6F5006F01D202275B
:104EB00003E0B6F5803F00D203273D44012F20D008
:104EC000022F15D0032F0AD0042F24D106F0BF00E3
:104ED00040F08001681E05460170B60900BF06F06B
:104EE000BF0040F08001681E05460170B60900BF92
:104EF00006F0BF0040F08001681E05460170B6094B
:104F000000BF1548C05D3043C1B200E006E0681E36
:104F10000546017000BF00BF3D4403E0207805F85E
:104F2000010B00BF00BF641C2078222803D020782A
:104F300000287FF45AAF002028702078222800D162
:104F4000641CCBF810900420CBF80C0020462EE710
:104F50006000002064000020E45A000870B5054697
:104F60000C460CB9002070BD042224A12046FBF79A
:104F70006AF918B90220E860201DF4E7052221A192
:104F80002046FBF760F918B90020E860601DEAE7E9
:104F900004221EA12046FBF756F920B90120E86043
:104FA0006861201DDFE72078222804D121462846A9
:104FB000FFF7EEFED7E720782D2805D0207830289F
:104FC00007DB2078392804DC21462846FFF778FDE6
:104FD000C9E720785B2804D121462846FFF790FCDA
:104FE000C1E720787B2804D121462846FFF746FEFA
:104FF000B9E7084804600020B5E700006E756C6CE6
:105000000000000066616C736500000074727565D5
:1050100000000000600000202DE9F04D1D460C4608
:1050200098B0174621F0004123F00043002814BF38
:105030004FF0010C4FF0000C0CEB440CFE4A0CEB53
:1050400002064FEA620C66452BD33E0018BF0126CC
:1050500006EB45061644F94A964222D3F84A53EA2B
:10506000070C02D0944205D148B918B0002011466F
:10507000BDE8F08D002808BF4FF0000C01D04FF0C4
:10508000010C0CEB440212F5001F0AD8002F14BFCC
:105090004FF0010C4FF0000C0CEB450212F5001F15
:1050A00007D918B03A462B462146BDE8F04DFEF729
:1050B0005DBC0022DFF88CA3002CB8BF534526DA74
:1050C000DFF884C36345A8BF022220DADFF870C38B
:1050D0009C451CDCDFF874C30CEB235CBCF1140FA3
:1050E00008DDCCF1340627FA06FC0CFA06F6BE42BF
:1050F0000DD108E05FB9CCF1140623FA06FC0CFAD6
:1051000006F69E4203D10CF00102C2F1020251EAFE
:10511000000C19D1002D17DA002C18BF022A01D07B
:10512000012A07D00220FEF749FC18B0BDE8F04D77
:10513000FEF714BC0220FEF741FCFEF70FFC18B08E
:1051400081F00041BDE8F08DB7F1000C6CD1534502
:1051500025D104F1804212F5801201BF0028002001
:10516000B74918B008BFBDE8F08DB548884207DCE4
:10517000002DA1BF6046294618B0BDE8F08D07E0BC
:10518000281E05DA80F0004118B06046BDE8F08DB9
:10519000AF497944D1E9000118B0BDE8F08DDFF8DE
:1051A000A0C2634525D1002D1FDA19B1514512D196
:1051B000D8B909E0002840F0EC82A24A214618B094
:1051C00062F31E01BDE8F08D0020214618B060F3A7
:1051D0001E01BDE8F08D08DA18B02346BDE8F04D99
:1051E000024600206146FBF7E3BB18B02146BDE84C
:1051F000F08D514518DAB5F1804F0DD0A5F1005C66
:10520000BCF1FF5C10D1B4F1000C0DDB18B06146AD
:10521000BDE8F04D00F02BBC234618B00246BDE8B7
:10522000F04D1946FBF79AB9060024F0004C3BD12B
:10523000D9B1514533D1002C06DD002DA1BF00208E
:10524000514618B0BDE8F08D002C01DD002D1BDBB0
:10525000002C13DA002D11DB012A4FF0000014BFDF
:1052600078497C4918B0BDE8F08D022A18BF002C9F
:105270000AD0012A08D1002C06DA0AE0002CB8BFB7
:10528000002D11DA012A04D0002018B00146BDE833
:10529000F08D18B000204FF00041BDE8F08DA1F175
:1052A0004050B0F17F601AD0012000EBE47050EA6A
:1052B000020421D0624C521E4FF0000B104304BF79
:1052C0004FF0000B644C654883427CDD644A6548BE
:1052D00093421FDD884217DB002D25DB37E0002CD1
:1052E00000DA4AB1022A0CBF01204FF0FF3018B09B
:1052F000BDE8F04DFBF7A9B90120FEF75FFB18B040
:10530000BDE8F04DFEF734BB4D4A8A4202DC002D69
:105310000ADC1CE0814202DA002D18DA04E0484B76
:10532000994220DD002D12DD0220FEF747FBFEF73B
:1053300025FB05460E460022534658462146FBF7FC
:105340000DF918B066F31E012846BDE8F08D022065
:10535000FEF734FBFEF71AFB0A46214618B062F34B
:105360001E01BDE8F08D002230466146FBF7F0F8E3
:1053700080460E466FF00102FBF789FB4FF0553275
:10538000394BFBF7E8F842463346FBF7E7F80022D3
:10539000364BFBF7E0F8824642463346049110460E
:1053A0001946FBF7DBF85246049BFBF7D7F88A4611
:1053B00000904FF0C0422E4B40463146FBF7CEF8EE
:1053C0002C4A2B4B00E027E0CDE90601514600981E
:1053D000FBF7C4F882460191274A284B40463146E4
:1053E000FBF7BCF85246019BFBF7B2F882460B462E
:1053F00002460591DDE90601FBF709F8DDE9062320
:10540000002688463046FBF7A3F85246059BFBF77B
:10541000A2F8024600F07EB90020B1F5801F07DA3D
:10542000352230466146FBF732FB06466FF034000A
:1054300000EB215024E00000FFFF1F00FFFF0F00E2
:105440000000F03F0000F07F0000404301FCFFFF40
:10545000E24600000000F0FF0000F0BF0000E04165
:105460000000F043FFFFEF3F5555D53F0000E03F00
:105470004715F73FFE822B6544DF5DF80BAE543EC7
:10548000A0F2FF300190C1F3130040F07F6141F0C2
:1054900040510291FE498842D8BF002004DDFD49F9
:1054A0008142C8BF012001DD0D9008E000200D9071
:1054B0000198401C01900298A0F58010029002997A
:1054C000F54878440B910D9900EBC100D0E9002319
:1054D0000F9330460A920B99FBF73AF8CDE9060193
:1054E000DDE90A2130460F9BFAF791FF02460B4691
:1054F0000020EA49FBF75CFA059102460B46009052
:10550000DDE90601FBF72AF81490E5488A464FF0DA
:10551000000878440299006812904FF0005040EA69
:1055200061010D980F9B01EB804000F5002109916E
:105530000A9A1298FBF70CF832460B9BFBF70BF814
:1055400042465346FBF70AF806460291404651464A
:10555000099B129AFBF702F8DDE90623FAF7FBFF35
:105560003246029BFAF7F4FF059B009AFAF7F6FF22
:105570000091149A0490534610461946FAF7EEFF2C
:1055800006460246C7480B46029106217844FEF7BC
:105590008FF9CDE90510029B324610461946FAF7FD
:1055A000DDFFDDE90532FAF7D9FF059106465346DE
:1055B00040461946149AFAF72AFF009B049AFAF714
:1055C000CDFF3246059BFAF722FFCDE90510424692
:1055D000534610461946FAF7C1FF0022B24B02911A
:1055E0000A90FAF714FFDDE90532FAF710FF0E46CC
:1055F0004246AD4B4046FAF7ABFF029B0A9AFAF7D8
:10560000A7FFDDE90532FAF7A6FF424602910A90AC
:10561000334610465146FAF7A1FFCDE9060153463D
:10562000149A02990A98FAF799FF8A46029033462B
:10563000424600990498FAF791FF5346029AFAF706
:10564000E6FE82460B4602460591DDE90601FAF7C1
:10565000DEFEDDE90623002088460646FAF778FFDD
:105660005246059BFAF777FF824609914FF0604258
:105670008E4B30464146FAF771FF049006918C4AF2
:105680008A4B50460999FAF769FF82460291894A86
:10569000894B30464146FAF761FF5246029BFAF7C2
:1056A000B6FE864B7B440D9A03EBC203D3E900237D
:1056B000FAF7ADFE0E9007910198FAF7C6FF059133
:1056C000DDE9061382460E9A0498FAF7A0FE7C4A9A
:1056D0007A440D9B02EBC303D3E9002300930292AB
:1056E000FAF795FE5246059BFAF791FE002688468A
:1056F00052463046059BFAF72BFF009B029AFAF7B9
:1057000027FF069B049AFAF723FF079B0E9AFAF7E6
:1057100022FF024600200B46029038462946FAF73F
:105720001DFF824601912B4638461946029AFAF728
:105730000FFF32464346FAF711FF5246019BFAF734
:1057400066FE07468A463246434629460298FAF7DD
:1057500005FF05460E463A465346FAF758FE594AA3
:105760008846914221DBA8EB020353EA000210D1E4
:105770002A463346FAF7ECFECDE90401524A534B70
:1057800038465146FAF743FEDDE90423FAF7A0FF55
:1057900021D20220FEF712F9FEF7F0F80A46214660
:1057A00018B062F31E01BDE8F08D494B28F00042AD
:1057B0009A4210D3474A08EB020353EA00027FF4EF
:1057C000C6AD2A463346FAF7C3FE3A465346FAF7C1
:1057D0007FFF7FF6BCAD0022019228F000403E49D9
:1057E0003E4A01EB2051824223DA481C4FF48011DB
:1057F00021FA00F040443A4AC0F30A517A44394B46
:10580000A1F2FF31CB4020EA0303C0F3130040F4C0
:105810008010C1F11401C84012680190B8F1000F66
:10582000BCBF4042019028463146FAF791FE05463A
:105830000E462A46334638465146FAF7E8FD4FF001
:1058400000084246284B40460591FAF787FECDE90D
:105850000601264A264B40460599FAF77FFE00913D
:1058600002902A46334640460599FAF771FE3A46B9
:105870005346FAF770FE1F4A1F4BFAF76FFE009B64
:10588000029AFAF7C4FD0746884602460B4635E001
:105890008E9803007AB60B002A4300000000F03F08
:1058A00062430000904200000000084009C7EE3F3C
:1058B000FD033ADCF5015B14E02F3EBE68410000B9
:1058C0002C41000000009040FE822B654715973C5C
:1058D00000CC904000346F3F01FCFFFF0000E03F30
:1058E00078400000FFFF0F00432EE63F396CA80C04
:1058F000615C20BEEF39FAFE422EE63FDDE906018B
:10590000FAF785FDDDE9062305460E46FAF720FE87
:105910003A464346FAF71FFE0F462A4633460090A2
:1059200010461946FAF71AFE824602462E48884665
:105930000B4605217844FDF7BBFF52464346FAF774
:105940000DFE2A463346FAF706FE80468A463B4657
:1059500028463146009AFAF701FE3B46009AFAF7CC
:1059600056FD0691009000224FF08043404651467C
:10597000FAF7EEFD0F460C90424653462846314654
:10598000FAF7ECFD3B460C9AFBF712F8069B009ADF
:10599000FAF7DEFD2A463346FAF7DAFD0022134B0A
:1059A000FAF7D9FD054601980E4601EB005108159E
:1059B000002810DC28463146019AFBF768F8FDF70D
:1059C0005FFF042808BFFDF7E1FF28463146019A32
:1059D000FBF75DF805460B4618B02A4658462146A7
:1059E000BDE8F04DFAF7BABD183F00000000F03FE7
:1059F00010B5FCF713FD282200210846FCF7A2FD94
:105A0000292200211020FCF79DFD282202210020E0
:105A1000FCF798FD292202211020FCF793FD452276
:105A200002212020FCF78EFD462202213020FCF7C7
:105A300089FD402204210020FCF784FD412204213D
:105A40001020FCF77FFD472206210020FCF77AFD9D
:105A5000482206211020FCF775FD10BD00E0401C17
:105A600020B1017811B101782029F8DD70472DE9C6
:105A7000F04106460F46FBF79EF8041E0D4618BF80
:105A80000120284320F00040C0F17F6000F1E04099
:105A9000C00F0ED0301C18BF0120384320F000404A
:105AA000C0F17F6000F1E040C00F04BF0120FDF7AE
:105AB00085FF20462946BDE8F081000008990008CE
:105AC0000C99000824647000000000000000000031
:105AD000000000006F6E6500000000000000000084
