:020000040800F2
:10000000200B002001010008C12D0008BB210008C1
:10001000BD2D0008D90900083D3C00080000000083
:10002000000000000000000000000000FD35000896
:10003000190A000800000000D1350008FF3500084B
:100040001B0100081B0100081B0100081B01000820
:100050001B0100081B0100081B0100081B01000810
:100060001B0100081B0100081B0100081B01000800
:100070001B0100081B0100081B0100081B010008F0
:10008000DD0900081B0100081B0100081B01000816
:100090001B0100081B0100081B0100081B010008D0
:1000A0001B0100081B0100081B0100081B010008C0
:1000B0001B0100081B0100081B0100081B010008B0
:1000C0001B0100081B0100081B0100081B010008A0
:1000D0001B0100081B0100087D3B00081B010008F4
:1000E0001B0100081B0100081B010008DFF80CD0F1
:1000F00000F0AEFB00480047B1480008200B00208C
:100100000648804706480047FEE7FEE7FEE7FEE7B1
:10011000FEE7FEE7FEE7FEE7FEE7FEE76D360008D6
:10012000ED000008202A04DB203A21FA02F0002129
:10013000704721FA02F3D040C2F1200291400843F7
:1001400019467047A0F14101192900D820307047A5
:1001500040EA01039B0703D009E008C9121F08C049
:10016000042AFAD203E011F8013B00F8013B521EC9
:10017000F9D27047D2B201E000F8012B491EFBD240
:1001800070470022F6E710B513460A4604461946A2
:10019000FFF7F0FF204610BD421E12F8013F002B72
:1001A000FBD111F8013B02F8013B002BF9D170475C
:1001B00030B505462A460B4612F8010B13F8014BE1
:1001C00008B1A042F8D01CB1002802D06D1CF1E7A4
:1001D000284630BDCAB2401E10F8011F8A4202D024
:1001E0000029F9D100207047421C10F8011B00299A
:1001F000FBD1801A704710B5044600E0401C03781C
:10020000002BFBD100E0401C521E04D311F8013B2F
:100210000370002BF7D100210170204610BD30B5CE
:1002200005460020034600E05B1C934205D2EC5CCF
:10023000C85C201A01D1002CF6D130BD70B506463D
:1002400003F066FD046805460A220021304600F0EE
:10025000CBF92C6070BD2DE9FE4F804681EA03008A
:10026000C00F0C46009021F0004123F00045B8EB90
:100270000200A94105D24046214690461C460B4645
:10028000024623F00040104347D0270DC7F30A0071
:10029000C3F30A510290401A019040286BDAC3F36D
:1002A000130040F4801B0098924620B10023D2EB4B
:1002B000030A63EB0B0B01985946C0F1400250460C
:1002C00000F071F906460D4650465946019A00F075
:1002D00079F910EB08006141002487EA115284EAA1
:1002E000E7731A4340D0009A62B3019A012A4FEA99
:1002F000075215DC001B61EB02014FF0004202EADD
:100300000752CDE90042001C41F5801132462B46D0
:1003100000F0B1F903B0BDE8F08F40462146F9E79F
:10032000001B61EB0201001C41F5801300185B41CA
:100330002018A2F5001747EB030140EAD570B61963
:100340006D4111E06D084FEA360645EAC0754FEA87
:100350000752001B61EB0201001C41F580114908A6
:100360004FEA30000019514132462B4603B0BDE838
:10037000F04F00F071B90098012240000023D0EB4B
:10038000020263EBE073009821464FEAE074B8EB99
:10039000000061EB0401E9E783F000435BE781F0D3
:1003A000004158E72DE9FE4F81EA030404F00044C0
:1003B00021F0004100944FF0000B23F0004350EA7D
:1003C00001045ED052EA03045BD0C3F30A54C1F3C4
:1003D0000A552C44A4F2F3340194A0FB0254C1F357
:1003E000130141F48011C3F3130343F4801301FBA1
:1003F000024400FB034E840A970A44EA815447EA08
:100400008357A4FB076802958D0A05FB07854FEA11
:10041000932C04FB0C542705029D4FEA065847EA2B
:100420001637B5EB08056EEB070C870E920E47EA00
:10043000811742EA8312A7FB0201B6EB0B0164EBC2
:1004400000042B0D43EA0C335E1844EB1C50DA46D3
:100450005146E7FB0201C5F313044FEA0B3343EAAD
:1004600014534FEA0432019C43EA0603A4F10C043E
:100470000294009CCDE900B400F0FDF803B0BDE8A3
:10048000F08F00200146F9E70EB5C10F80EAE07059
:100490000844CA07002140F233438DE80E000A46A3
:1004A0000B4600F0E8F803B000BD70B5C1F30A5286
:1004B00001F000450024C1F3130140F2FF3341F481
:1004C00080119A4201DA002070BD40F233439A4213
:1004D000A2F2334203DC5242FFF724FE00E09040D8
:1004E0002C43F1D0404270BD30B5041E71F10004C0
:1004F00004DB4FF00044404264EB0101141E73F131
:10050000000405DB1C464FF00043524263EB04033A
:10051000994208BF904230BD30B50B4601460020DD
:100520002022012409E021FA02F59D4205D303FAB5
:1005300002F5491B04FA02F52844151EA2F1010236
:10054000F1DC30BD2DE9F05F0546002092469B4668
:1005500088460646814640241BE0284641464746D9
:100560002246FFF7DFFD53465A46C01A914110D389
:1005700011461846224600F016F82D1A67EB0108BE
:100580004F4622460120002100F00DF817EB00092C
:100590004E41201EA4F10104DFDC484631462A46C4
:1005A0004346BDE8F09F202A04DB203A00FA02F11E
:1005B000002070479140C2F1200320FA03F3194351
:1005C00090407047202A06DBCB17203A41FA02F010
:1005D00043EAE07306E041FA02F3D040C2F12002A0
:1005E00091400843194670472DE9F04791460F4660
:1005F00080460446002614F8015B2DB100F03AF95C
:100600000068405DC007F6D12B2D02D02D2D18D0EB
:10061000641E4A463946204600F030F927B1396851
:10062000A14201D1C7F8008071054FF002040BD53B
:100630004042002803DD03F06BFB0460A007BDE827
:10064000F08746F48066E4E70028F8DA03F060FB00
:1006500004606FF00040F2E710B5141E73F100045F
:1006600008DA401C41F1000192185B411A4301D1A4
:1006700020F0010010BD2DE9F04D92469B4611B1CE
:10068000B1FA81F202E0B0FA80F220329046FFF730
:100690008AFF04460F4640EA0A0041EA0B0153462E
:1006A0005A46084313D0114653EA010019D0C8F145
:1006B00040025046FFF736FD05460E465046594665
:1006C0004246FFF770FF084305D0012004E02046B2
:1006D0003946BDE8F08D0020054346EAE0762C431C
:1006E00037430A986305E40AA0EB08000022FD0ADC
:1006F00044EA47540A3002D500200146E9E70105E3
:1007000010196941DDE9084500196941BDE8F04D5E
:10071000A2E72DE9F04D81EA030404F0004B21F03B
:10072000004514464FF0000A23F0004150EA05024C
:1007300020D054EA01021DD0C5F30A570246C5F382
:100740001303C1F31300C1F30A5640F4801543F4B8
:100750008013A7EB0608101BD64608F2FD3873EB92
:10076000050002D308F1010801E092185B41B8F1DD
:10077000000F03DA00200146BDE8F08D00204FF4A1
:100780008011064684460EE0171B73EB050705D360
:10079000121B63EB050306434CEA010C49084FEAC0
:1007A000300092185B4150EA0107EDD152EA030094
:1007B00012D082EA040083EA0501084305D0101B29
:1007C000AB4106D20122002306E000224FF0004395
:1007D00002E06FF0010253101AEB06004CEB0851D7
:1007E00010EB0A0041EB0B01BDE8F04DFFF734BF01
:1007F00070B521F0004303430CD0C1F30A55002427
:10080000D5EB040564EB0403D617AD1AB34102DB44
:100810000020014670BD201841EB025170BDC1F3AC
:100820000A52C1F3130140F2FF3341F480119A429E
:1008300002DA00200146704740F233439A42A2F2A6
:10084000334202DC5242FFF76DBCFFF7ACBE000042
:10085000064C074D06E0E06840F0010394E807000D
:1008600098471034AC42F6D3FFF744FCCC5C000848
:10087000EC5C000800487047BC5C00082DE9F05FA4
:1008800082460078002715468B460AF10104B946D6
:10089000302801D09DB113E014F8010B012778280E
:1008A00003D0582801D045B10AE00DB1102D07D171
:1008B0000027102514F8010B02E0082500E00A25A6
:1008C0000026B0460EE005FB080005FB06F10127F7
:1008D00001EB10461FFA80F8B6F5803F00D3B94609
:1008E00014F8010B294600F069F80028EBDABBF197
:1008F000000F05D00FB1641E00E05446CBF8004055
:10090000B9F1000F06D003F003FA02210160C81EFE
:10091000BDE8F09F48EA0640FAE72DE9F04D0023D4
:100920001A461B1A8A4103DB00200146BDE8F08D00
:10093000C1F30A52C1F3130141F480154FF0000BCB
:10094000D10702D100186D41521E0027044640F223
:10095000FF11384601EB620A3E46804602460020FF
:100960004FF48011FFF7DEFBC2197141BB1846EB53
:100970000100B4EB030C75EB000C04D3E41A65EB37
:10098000000517460E46241908F101006D41804606
:100990003428E3DDF91946EB0600091BA84103D210
:1009A0004FF0FF32134601E0002213461BEB070015
:1009B00046EB0A51BDE8F04DFFF74EBE3A2800D293
:1009C000303820F02002412A01D3A2F137008842BA
:1009D00001D34FF0FF30704700BFFEE710B502486B
:1009E00000F002FA10BD0000D800002030B590F8E9
:1009F00040500124AC40C56B6C600468636044687F
:100A0000102C04D10468A2600468E16003E004686B
:100A1000A1600468E26030BD7047000010B54FF47B
:100A200080610348FFF7ADFB00200249088010BD3C
:100A30001C0100201800002070B50546002400BFEE
:100A40000DA10F48FFF7B4FB044654B13A212046EC
:100A5000FFF7C0FB044614B1641C204670BD0020A3
:100A6000FCE7052000F010FB281EA5F101018DB266
:100A7000E6D100BFF2E700004950442C000000001E
:100A80001C01002010B5FFF7C9FF03E04FF4FA7016
:100A900000F0FAFA20A121A000F098F80028F5D182
:100AA00003E04FF4FA7000F0EFFA1BA11DA000F074
:100AB0008DF80028F5D103E04FF4FA7000F0E4FA65
:100AC00015A11CA000F082F80028F5D103E04FF436
:100AD000FA7000F0D9FA1BA11CA000F077F80028EA
:100AE000F5D103E04FF4FA7000F0CEFA0AA120A08D
:100AF00000F06CF80028F5D103E04FF4FA7000F034
:100B0000C3FA1FA120A000F061F80028F5D129A0A8
:100B100003F0AAF810BD00004F4B000041540D0A2D
:100B20000000000041542B43574D4F44453D310DCB
:100B30000A00000041542B4357444843503D312C98
:100B4000310D0A00474F54204950000041542B43B7
:100B5000574A41503D226D5F70686F6E65222C22AE
:100B600032393630343933343235220D0A00000040
:100B700041542B4349504D55583D300D0A0000005B
:100B8000434F4E4E4543540041542B434950535418
:100B90004152543D22544350222C223139322E31BD
:100BA00036382E34332E313734222C313838330D49
:100BB0000A000000372E204553503832363620497F
:100BC0006E6974204F4B0D0A000000002DE9F041C2
:100BD00004460D46C8262046FFF706FB87B23A4674
:100BE0002146144803F02CF81DE029461248FFF76F
:100BF000DFFA20B1FFF712FF0020BDE8F0810F48B7
:100C0000007801280CD10EA10B48FFF7D1FA38B1BA
:100C1000FFF704FF0FA003F027F800200749087032
:100C20000A2000F031FA301EA6F10101CEB2DCD16B
:100C30000120E2E7004400401C01002000000020E9
:100C40006C696E6B206973206E6F742076616C69BD
:100C500064000000CDF8C2E7B6CFBFAAA3ACD7BCF2
:100C6000B1B8D6D8C1AC0D0A0000000030B589B0CB
:100C700004460D46FFF7D2FE2A460CA101A803F058
:100C800003F801A90DA002F0EFFF0FA101A8FFF7E3
:100C90009DFF40B921460DA002F0E6FF2A462146FD
:100CA0000D4802F0CDFF09B030BD000041542B4388
:100CB000495053454E443D25640D0A00636D64421E
:100CC00075663D25730D0A003E0000006461746185
:100CD000203D2025730D0A000044004072B600BF7D
:100CE000FEE70146002291F82100022808D00420E6
:100CF000886300BF002081F8200000BF01207047FA
:100D00000868006820F00E000B681860086800682A
:100D100020F001000B68186091F8403001209840E5
:100D2000CB6B5860012081F8210000BF002081F8C2
:100D3000200000BF1046E2E770B50446002594F895
:100D40002100022803D00420A063012548E0206888
:100D5000006820F00E00216808602068006820F01C
:100D60000100216808601F492068884201D10120E4
:100D700026E01C4914312068884201D110201FE070
:100D8000184928312068884201D1801518E015499A
:100D90003C312068884201D1801411E01149503162
:100DA0002068884202D14FF4803009E00D49643157
:100DB0002068884202D14FF4801001E04FF080702B
:100DC000084908394860012084F8210000BF00204C
:100DD00084F8200000BF606B10B12046616B88472B
:100DE000284670BD0800024070B50446E06B0568F7
:100DF0002068066894F840100420884028400028A5
:100E000046D006F00400002842D02068006800F0B8
:100E1000200028B92068006820F0040021680860DC
:100E200057492068884201D1042027E054491431F1
:100E30002068884201D1402020E0514928312068B3
:100E4000884201D1001519E04D493C3120688842A3
:100E500002D14FF4804011E0494950312068884266
:100E600002D14FF4802009E045496431206888426E
:100E700002D14FF4800001E04FF080604049083912
:100E80004860E06A00287AD02046E16A884776E028
:100E900094F84010022088402840A0B306F00200D9
:100EA00088B32068006800F0200040B9206800681E
:100EB00020F00A0021680860012084F821003049F0
:100EC0002068884201D1022028E02D491431206891
:100ED000884201D1202021E0294928312068884218
:100EE00001D140151AE026493C312068884202D1E0
:100EF0004FF4005012E0224950312068884203D15B
:100F00004FF400300AE017E01D4964312068884240
:100F100002D14FF4001001E04FF000701849083979
:100F2000486000BF002084F8200000BFA06A30B3F2
:100F30002046A16A884722E094F8401008208840A3
:100F40002840E0B106F00800C8B12068006820F031
:100F50000E002168086094F8401001208840E16B81
:100F600048600120A06384F8210000BF002084F8BD
:100F7000200000BF206B10B12046216B884770BD58
:100F8000080002400146002209B901207047164BB3
:100F90000868C01A1423B0FBF3F0800008641248FC
:100FA0000838C863022081F821000868026843F607
:100FB000F0708243D1E901031843CB6818430B69F1
:100FC00018434B6918438B691843CB691843024394
:100FD0000868026000208863012081F82100002059
:100FE00081F8200000BFD1E7080002402DE9F04160
:100FF00004460D4616461F464FF0000800BF94F801
:101000002000012802D10220BDE8F081012084F8EF
:10101000200000BF94F8210001282CD1022084F880
:1010200021000020A0632068006820F001002168F2
:1010300008603B46324629462046FFF7D7FCE06A67
:1010400030B12068006840F00E00216808600BE0B5
:101050002068006820F004002168086020680068AB
:1010600040F00A00216808602068006840F0010034
:101070002168086006E000BF002084F8200000BF5F
:101080004FF002084046BFE770B5044600F0A0F9F3
:1010900006462546681C10B104480078054400BF88
:1010A00000F096F9801BA842FAD370BD1000002012
:1010B0002DE9F8470346002294466EE14FF00108FF
:1010C00008FA02F4D1F8008008EA0400A0427DD1B9
:1010D000DFF8DCA2D1F80480A8EB0A09D0453AD0A9
:1010E00014DCB8F1030F50D009DCB8F1000F31D097
:1010F000B8F1010F1CD0B8F1020F49D120E0B8F1CE
:10110000110F18D0B8F1120F42D11EE0B9F5881FA7
:1011100025D006DCB9F5803F20D0B9F5801F37D146
:101120001AE0B9F5001F18D0B9F5041F30D117E047
:10113000D1F80CC02DE0D1F80C8008F1040C28E0A7
:10114000D1F80C8008F1080C23E0D1F80C8008F1EC
:101150000C0C1EE000BF00BF00BF00BF00BF00BFFF
:10116000D1F80880B8F1000F02D14FF0040C0BE069
:10117000D1F80880B8F1010F03D14FF0080C1C61C1
:1011800002E04FF0080C5C6103E04FF0000C00E05F
:1011900000BF00BFFF2801D8984601E003F1040812
:1011A0004646FF2802D84FEA820803E0A2F1080869
:1011B0004FEA88084746D6F800804FF00F0909FA31
:1011C00007F928EA09080CFA07F900E088E048EA7C
:1011D0000908C6F80080D1F8048008F08058B8F1FA
:1011E000805F7DD100BFDFF8CC81D8F8188048F04F
:1011F0000108DFF8C091C9F81880C846D8F81880EF
:1012000008F00108CDF8008000BF00BF4FEAB938F0
:101210004FEA920958F829504FEA82784FEA187934
:101220004FF00F0808FA09F825EA0805DFF8888169
:10123000434502D14FF0000816E0DFF880814345B6
:1012400002D14FF001080FE0DFF87481434502D16D
:101250004FF0020808E0DFF86C81434502D14FF0FF
:10126000030801E04FF004084FEA82794FEA197948
:1012700008FA09F848EA0505DFF84C814FEA9209B7
:1012800048F82950D1F8048008F48018B8F5801F78
:101290000AD1DFF83881D8F8008048EA0008DFF882
:1012A0002C91C9F8008009E0DFF82081D8F800808F
:1012B00028EA0008DFF81491C9F80080D1F804800A
:1012C00008F40018B8F5001F10D1DFF8008108F10C
:1012D0000408D8F8008048EA0008DFF8F09000E041
:1012E0005AE009F10409C9F800800DE0DFF8DC805C
:1012F00008F10408D8F8008028EA0008DFF8CC904C
:1013000009F10409C9F80080D1F8048008F4003814
:10131000B8F5003F0ED1DFF8B480A8F10408D8F882
:10132000008048EA0008DFF8A490A9F10409C9F890
:1013300000800DE0DFF89480A8F10408D8F8008060
:1013400028EA0008DFF88490A9F10409C9F80080B0
:10135000D1F8048008F48038B8F5803F0ED1DFF86A
:101360006C80A8F10808D8F8008048EA0008DFF887
:101370005C90A9F10809C9F800800DE0DFF84C8005
:10138000A8F10808D8F8008028EA0008DFF83C90A7
:10139000A9F10809C9F80080521CD1F8008028FA88
:1013A00002F8B8F1000F7FF489AEBDE8F8870000BD
:1013B000000011100010024000080140000C014024
:1013C00000100140001401400800014008040140E1
:1013D00001480068704700000800002003480068CA
:1013E0000349097808440149086070470800002053
:1013F0001000002010B50848006840F010000649B1
:101400000860032000F0A8F80F2000F007F800F0B3
:101410002BF8002010BD00000020024070B50446EB
:101420000E4800784FF47A71B1FBF0F00C4909686E
:10143000B1FBF0F5284600F0F9FB08B1012070BDC2
:10144000102C07D200222146501E00F047F8054814
:10145000046001E00120F2E70020F0E71000002026
:10146000140000200C00002008B500BF114880695E
:1014700040F001000F4988610846806900F00100D2
:10148000009000BF00BF00BF0846C06940F0805018
:10149000C8610846C06900F08050009000BF00BFDE
:1014A00000BF0549486820F0E06040F000704860E7
:1014B00000BF08BD00100240000001400146084680
:1014C000002809DB00F01F0301229A4043099B001A
:1014D00003F1E023C3F8002100BF70472DE9F05F5E
:1014E00080460D461646002702F0F6FB07463946B1
:1014F0002A46334601F00700C0F1070ABAF1040F8B
:1015000002D94FF0040A01E0C0F1070AD14600F108
:10151000040ABAF1070F02D24FF0000A01E0A0F16D
:10152000030AD4464FF0010A0AFA09FAAAF1010A9D
:101530000AEA020A0AFA0CFA4FF0010B0BFA0CFB4A
:10154000ABF1010B0BEA030B4AEA0B0421464046C0
:1015500002F0CAFBBDE8F09F00BF00F00702064B97
:1015600019684FF6FF031940044B0B4343EA02216D
:10157000014B196000BF70470CED00E00000FA0558
:1015800070B504460D460CB9012070BD5A4800687C
:1015900000F00700A8420ED25748006820F007006C
:1015A0002843554908600846006800F00700A84233
:1015B00001D00120E9E7207800F0020002281DD1C7
:1015C000207800F00400042805D14C48406840F41D
:1015D000E0604A494860207800F00800082805D1FA
:1015E0004648406840F46050444948604348406879
:1015F00020F0F000A168084340494860207800F0DE
:10160000010078B36068012806D13C48006800F406
:10161000003090B90120B8E76068022806D1374849
:10162000006800F0007040B90120AEE73348006860
:1016300000F0020008B90120A7E73048406820F018
:101640000300616808432D494860FFF7C1FE064664
:1016500009E0FFF7BDFE801B41F28831884202D9C4
:10166000032092E707E02548406800F00C0061681D
:10167000B0EB810FEDD12048006800F00700A842D0
:101680000ED91D48006820F0070028431A49086059
:101690000846006800F00700A84201D0012074E766
:1016A000207800F00400042807D11448406820F492
:1016B000E060E168084311494860207800F00800C4
:1016C000082808D10D48406820F46050216940EA9C
:1016D000C1000A49486000F03FF808494968C1F371
:1016E0000311074A515CC840064908600648006873
:1016F000FFF794FE002048E700200240001002405F
:10170000685B0008140000200C00002001480068FD
:10171000704700001400002000B5FFF7F7FF0449F0
:101720004968C1F30221034A515CC84000BD000072
:1017300000100240785B000800B5FFF7E7FF04499E
:101740004968C1F3C221034A515CC84000BD000092
:1017500000100240785B000870B5002100220024D0
:1017600000230020134D696801F00C05F5B1042D2C
:1017700002D0082D19D101E00F4819E00F4DC1F337
:101780008346AB5D01F4803555B10A4D6D68C5F3F4
:1017900040450B4E725D084D5D43B5FBF2F402E02F
:1017A000084D03FB05F4204602E000BF024800BFDD
:1017B00000BF70BD0010024000127A00565B0008A6
:1017C000665B000800093D00F8B504460CB901202D
:1017D000F8BD207800F00100002878D0F848406873
:1017E00000F00C0004280CD0F548406800F00C0014
:1017F000082811D1F248406800F48030B0F5803FED
:101800000AD1EF48006800F4003000285FD060681B
:1018100000285CD10120DBE700BF6068B0F5803FA5
:1018200006D1E748006840F48030E549086028E0C8
:10183000606858B9E248006820F48030E0490860E8
:101840000846006820F4802008601AE06068B0F55F
:10185000A02F0BD1DA48006840F48020D8490860F6
:101860000846006840F4803008600AE0D448006808
:1018700020F48030D24908600846006820F48020B7
:10188000086000BF606888B1FFF7A2FD054606E06A
:10189000FFF79EFD401B642801D9032098E7C84844
:1018A000006800F400300028F2D010E0FFF790FD4F
:1018B000054606E0FFF78CFD401B642801D9032094
:1018C00086E7BF48006800F400300028F2D1207895
:1018D00000F00200022857D1B948406800F00C001F
:1018E00050B1B748406800F00C00082818D1B4483F
:1018F000406800F4803098B9B148006800F00200F8
:1019000020B12069012801D0012061E7AC480068BE
:1019100020F0F800616940EAC100A949086033E09D
:101920002069E8B10120A7490860FFF751FD05468D
:1019300006E0FFF74DFD401B022801D9032047E7D1
:101940009F48006800F002000028F2D09C48006820
:1019500020F0F800616940EAC1009949086013E08D
:10196000002098490860FFF733FD054606E0FFF7C1
:101970002FFD401B022801D9032029E79048006869
:1019800000F002000028F2D1207800F008000828BA
:101990002DD1A069B8B101208B490860FFF718FD6F
:1019A000054606E0FFF714FD401B022801D903207D
:1019B0000EE78348406A00F002000028F2D00120C0
:1019C00001F008FE13E000207F490860FFF700FDEA
:1019D000054606E0FFF7FCFC401B022801D9032066
:1019E000F6E67748406A00F002000028F2D120783D
:1019F00000F00400042873D100277148C06900F08A
:101A0000805070B900BF6E48C06940F080506C498A
:101A1000C8610846C06900F08050009000BF00BF58
:101A200001276A48006800F48070B0B96748006810
:101A300040F4807065490860FFF7CAFC054606E07F
:101A4000FFF7C6FC401B642801D90320C0E65F48AD
:101A5000006800F480700028F2D000BFE068012820
:101A600006D15748006A40F001005549086227E056
:101A7000E06858B95248006A20F0010050490862F5
:101A80000846006A20F00400086219E0E0680528B2
:101A90000BD14B48006A40F00400494908620846EF
:101AA000006A40F0010008620AE04548006A20F040
:101AB0000100434908620846006A20F004000862F9
:101AC00000BFE068A0B1FFF783FC054609E0FFF71F
:101AD0007FFC401B41F28831884202D9032077E61F
:101AE00022E03748006A00F002000028EFD012E040
:101AF000FFF76EFC054608E0FFF76AFC401B41F269
:101B00008831884201D9032062E62D48006A00F03E
:101B100002000028F0D1012F05D12948C06920F02A
:101B200080502749C86100BFE069C8B324484068B5
:101B300000F00C00082860D0E069022848D100209D
:101B400020490866FFF744FC054606E0FFF740FC25
:101B5000401B022801D903203AE61948006800F02A
:101B600000700028F2D1206AB0F5803F07D11448F8
:101B7000406820F40030A168084311494860D4E966
:101B8000080108430E49496821F4741108430C49BF
:101B9000486001200B490866FFF71AFC054607E07C
:101BA0003DE0FFF715FC401B022801D903200FE69A
:101BB0000348006800F000700028F2D02FE0000019
:101BC0000010024000004242800442420070004087
:101BD000002014490866FFF7FBFB054606E0FFF707
:101BE000F7FB401B022801D90320F1E50E480068ED
:101BF00000F000700028F2D111E0E069012800D166
:101C0000E6E50948466806F48031206A814204D13D
:101C100006F47011606A814201D00120D8E50020ED
:101C2000D6E50000000042420010024070B50446B4
:101C30002546681EB0F1807F01D301200FE0681EA9
:101C40004FF0E02148610F214FF0FF3002F04CF8D7
:101C500000204FF0E021886107200861002070BD5E
:101C6000704770B50446002520684069C0F3C01570
:101C700094F84100212817D1B5B100BF00BF2168F9
:101C8000143151E8001F21F080002168143141E82F
:101C90000002002AF3D100BFA06B10B1A06BFFF7C8
:101CA00020F8204601F0C7FD20684069C0F3801588
:101CB00094F84200222817D1B5B100BF00BF2168B7
:101CC000143151E8001F21F040002168143141E82F
:101CD0000002002AF3D100BFE06B10B1E06BFFF708
:101CE00000F8204601F061FD002070BD7047000043
:101CF0002DE9F84F0446206805682068C66820680A
:101D000047694FF00009CA4605F00F09B9F1000F05
:101D10000AD105F0200038B106F0200020B120469D
:101D200001F09CFDBDE8F88FB9F1000F7BD007F002
:101D3000010018B906F49070002874D005F0010075
:101D400030B106F4807018B1606C40F0010060643E
:101D500005F0040030B107F0010018B1606C40F0EC
:101D60000200606405F0020030B107F0010018B114
:101D7000606C40F00400606405F0080048B106F0B3
:101D8000200010B907F0010018B1606C40F00800A5
:101D90006064606C002845D005F0200028B106F092
:101DA000200010B1204601F059FD20684069C0F3C1
:101DB000801A606C00F0080010B9BAF1000F2CD046
:101DC000204601F0F2FC2068406900F0400000B3BA
:101DD00000BF00BF2168143151E8001F21F040000E
:101DE0002168143141E80002002AF3D100BFE06B02
:101DF00050B17748E16B4863E06BFEF79DFF88B117
:101E0000E06B416B88470DE02046FFF76FFF09E06C
:101E100009E02046FFF76AFF04E02046FFF766FF6F
:101E2000002060647EE7206B012877D105F0100068
:101E3000002873D006F010000028FAD000BF002060
:101E4000009020680068009020684068009000BF03
:101E500000BF2068406900F0400000285FD0E06BC0
:101E6000006840681FFA80F8B8F1000F55D0A08DC7
:101E7000404552DDA4F82E80E06B8069202843D0D5
:101E800000BF00BF21680C3151E8001F21F48070B1
:101E900021680C3141E80002002AF3D100BF00BFE5
:101EA00000BF2168143151E8001F21F001002168B2
:101EB000143141E80002002AF3D100BF00BF00BF87
:101EC0002168143151E8001F21F0400021681431CD
:101ED00041E80002002AF3D100BF202084F842002C
:101EE0000020206300BF00BF21680C3151E8001FB3
:101EF00021F0100021680C3141E80002002AF3D1E2
:101F000000BFE06BFEF7EDFE02206063A08DE28D66
:101F1000801A81B22046FFF7A3FE03E742E0A08DBE
:101F2000E18D401A1FFA80F8E08DD0B3B8F1000FB0
:101F300037D000BF00BF21680C3151E8001F21F4E9
:101F4000907021680C3141E80002002AF3D100BFF3
:101F500000BF00BF2168143151E8001F21F00100CB
:101F60002168143141E80002002AF3D100BF20208B
:101F700084F842000020206300BF00BF21680C31BC
:101F800051E8001F21F0100021680C3141E80002E7
:101F9000002AF3D100BF0220606341462046FFF7CC
:101FA0005FFEBFE605F0800030B106F0800018B19A
:101FB000204601F0B3FDB5E605F0400030B106F073
:101FC000400018B1204601F026FCABE600BFA9E6B0
:101FD0006F36000810B504460CB9012010BDA06989
:101FE00000B100E000BF94F8410028B9002084F857
:101FF0004000204600F02AF8242084F841002068A0
:10200000C06820F400502168C860204601F0A4FC9C
:102010002068006920F490402168086120684069C8
:1020200020F02A00216848612068C06840F4005010
:102030002168C86000206064202084F8410084F892
:1020400042000020606300BFC8E7000010B586B002
:1020500004460020029003900490059044492068B3
:1020600088422FD100BF4348806940F480404149F5
:1020700088610846806900F48040019000BF00BF7D
:1020800000BF0846806940F0040088610846806906
:1020900000F00400019000BF00BF4815029002202C
:1020A00003900320059002A93348FFF701F84FF48D
:1020B0008060029000200390049002A92E48FEF751
:1020C000F7FF52E02D49206888424ED100BF2948D1
:1020D000C06940F400302749C8610846C06900F46F
:1020E0000030019000BF00BF00BF0846806940F08B
:1020F000040088610846806900F00400019000BF78
:1021000000BF04200290022003900320059002A942
:102110001948FEF7CDFF082002900020039004909C
:1021200002A91548FEF7C4FF1548164908600020AB
:1021300048600021134881608021C1600021016155
:1021400041618161C161FEF71DFF08B1FEF7C6FD67
:1021500000BF0C48E063446200BF00221146262005
:10216000FFF7BCF92620FFF7A9F906B010BD000063
:1021700000380140001002400008014000440040C7
:102180006C000240D800002070B504460D4616468B
:1021900094F8420020280BD105B10EB9012070BD82
:1021A0000020206332462946204601F053FCF6E722
:1021B0000220F4E770477047704700BFFEE710B594
:1021C0000446207B012802D1206802F049FB002050
:1021D00020606060A060207310BD024600230123D0
:1021E0000DE002F07F000870D2092AB1087840F0B3
:1021F00080000870491C01E0184670475B1C042BE6
:10220000EFDD4FF0FF30F8E770B504460E460025CD
:10221000206898B901202073304602F0BFFB20608F
:102220002068E0B100206060A66003E00020216823
:1022300048556D1CA068A842F8D810E00220207311
:1022400003E00020216848556D1CA068A842F8D81A
:1022500000206060A068B04201D20020206070BD04
:102260002DE9FF5F07460D4690463846FDF7BCFF57
:1022700086B22846FDF7B8FF1FFA80FA4FF0000932
:10228000F01D02F08BFB04461CB9012004B0BDE830
:10229000F09FF11D2046FDF774FF12A00168216038
:1022A0008088A080324639462046FDF7A4FF2846A4
:1022B000FDF79AFF83460120002100915B462A46E4
:1022C000CDE90208019121460A2000F05FF910B91A
:1022D0004FF0000901E04FF00109204602F0C0FA7A
:1022E0004846D3E724637273702F00002DE9FF4F37
:1022F00083B082468B469146159C002500200290B3
:102300000F2701904846FDF76FFF0FFA80F8B9F1EB
:10231000000F03D1012007B0BDE8F08F08F10200E3
:10232000384487B2109808B145F00205129878B188
:1023300045F004051298FDF757FFC0B202901398BC
:10234000FDF752FF01460298001D0844384487B249
:10235000119820B1012804D0022808D104E000BF60
:1023600007E045F00C0504E045F0140501E002200B
:10237000D1E700BF149808B145F02405BAF1000F69
:1023800002D0BBF1000F01D10320C4E745F0C00526
:102390005046FDF729FF06465846FDF725FF304415
:1023A000001D384487B239462046FFF72DFF2068CC
:1023B00008B90420AFE739462068FDF7E2FE102196
:1023C0006268501C606020688154D4E90023D118F1
:1023D000781FFFF702FF00B201900198002804DA8D
:1023E0002046FFF7ECFE052095E761680198084458
:1023F000606000216268501C606020688154042184
:102400006268501C6060206881544D216268501CD5
:1024100060602068815451216268501C60602068AF
:10242000815454216268501C606020688154626845
:10243000501C60602068815404216268501C6060F8
:10244000206881546168481C606020684554069883
:10245000010A6268501C6060206881540698C1B20D
:102460006268501C606020688154C8F3072162686C
:10247000501C6060206881546268501C6060206855
:1024800000F80280D4E90012881842464946FDF758
:10249000B2FE60684044606005F00400B8B30026F6
:1024A000139808B938A013901298FDF79DFE86B2D4
:1024B000310A6268501C6060206881546268501C58
:1024C000606020688654D4E9001288183246129958
:1024D000FDF791FE6068304460601398FDF784FE5C
:1024E00086B2310A6268501C60602068815462685C
:1024F000501C606020688654D4E900128818324667
:102500001399FDF778FE60683044606000BF05F005
:102510008000C8B15046FDF767FE86B2310A626896
:10252000501C6060206881546268501C60602068A4
:102530008654D4E90012881832465146FDF75BFEF6
:1025400060683044606000BF05F04000C8B1584684
:10255000FDF74AFE86B2310A6268501C606020684E
:1025600081546268501C606020688654D4E900126F
:10257000881832465946FDF73EFE60683044606078
:1025800000BF0020C7E60000000000002DE9FF4F5B
:1025900083B0834617469946139C002500260020E9
:1025A000029001908046BBF1000F03D1012007B0DB
:1025B000BDE8F08F00260AE00498805D232803D050
:1025C0000498805D2B2801D10220F0E7761C049846
:1025D000805D0028F0D148F03008119808B148F02B
:1025E000010806EB0900851C109820B1012804D0D1
:1025F00002280AD105E000BF09E048F00208AD1C3E
:1026000005E048F00408AD1C01E00320CFE700BF5F
:102610008FB33878022821D14FF0000A00BF50460E
:102620000AF1010A385C7D28F9D1AAF1030A0AF1FE
:10263000070002900298A9EB000AE81CA0EB0A012F
:102640002046FFF7E1FD206808B90420AFE7EA1C47
:10265000A2EB0A012068FDF794FD19E0691D2046F0
:10266000FFF7D2FD206808B90420A0E7691D2068A3
:10267000FDF787FD0CE0FFE7691D2046FFF7C4FD6D
:10268000206808B9042092E7691D2068FDF779FDEC
:102690006168481C6060206800F80180D4E900028D
:1026A00081182846FFF799FD01900198002804DA67
:1026B0002046FFF784FD052079E76168019808440A
:1026C0006060C6F307216268501C60602068815416
:1026D0006268501C606020688654D4E90012881833
:1026E00032460499FDF787FD6068304460601098B9
:1026F00060B14FEA1B216268501C60602068815401
:102700006268501C6060206800F802B0C7B1387879
:1027100002280BD1D4E9001288183946029AFDF735
:1027200017FD616802980844606009E0D4E900126E
:1027300088184A463946FDF70BFD606848446060DA
:10274000002034E770B505460C4604212046FFF70B
:102750005BFD206808B9012070BD40216268501CF3
:1027600060602068815402216268501C60602068AB
:10277000815429126268501C60602068815462682C
:10278000501C6060206885540020E5E770B5054660
:102790000C4604212046FFF737FD206808B90120C8
:1027A00070BD50216268501C606020688154022115
:1027B0006268501C60602068815429126268501C55
:1027C0006060206881546268501C60602068855495
:1027D0000020E5E72DE9FF4107460D4690461E46DD
:1027E0000A9C01200021CDE90001CDE902041B482B
:1027F0001B4A128800EB0211EB1C00220A20FFF793
:10280000C5FE20BB6168481C6060206846541348C0
:10281000134A128800EB021112A001F025FAC5F349
:1028200007216268501C6060206881546268501CF7
:102830006060206885540A480088012803D1002080
:102840000749088007E001200549088003E00120CE
:1028500004B0BDE8F0810020FAE70000875B0008C3
:10286000300000205075626C6973685F546F70634C
:10287000203D2025730D0A002DE9FF5F8046174695
:1028800099460E9C0026B246B3460025B8F1000FCB
:1028900003D1012004B0BDE8F09F0BE057F82500FC
:1028A00008B90220F6E757F82500FDF79DFC06441D
:1028B000681CC5B24D45F1DB09EB4900801C00EBFB
:1028C000060A0AF105012046FFF79EFC206808B9B8
:1028D0000320DFE782216268501C60602068815419
:1028E000D4E9000281185046FFF777FC0FFA80FB0D
:1028F000BBF1000F04DA2046FFF761FC0420C9E7B2
:102900006068584460604FEA18216268501C60603B
:10291000206881546268501C6060206800F8028062
:10292000002524E057F82500FDF75EFC0646C6F3B7
:1029300007216268501C6060206881546268501CE6
:10294000606020688654D4E90023D01857F8251019
:102950003246FDF750FC6068304460600198C1B2B7
:102960006268501C606020688154681CC5B24D4587
:10297000D8DB00208EE7F0B504460D46264601233D
:1029800000201060002114E0775C07F07F071068DA
:1029900007FB03001060705C00F0800008B9481C61
:1029A000F0BDDB01B3F5001F02D36FF00100F7E7C4
:1029B000491CA942E8DB4FF0FF30F1E72DE9F8436D
:1029C00080460C4615461E462F2108F10600FDF7ED
:1029D00001FC07460020009017B90120BDE8F883EC
:1029E0007F1C6A46042108F10100FFF7C4FF25207F
:1029F00001F0D4FF2060206808B90220EEE725210D
:102A00002068FDF7BEFB242239462068FDF7A0FBB5
:102A1000243700982C3830803188481C01F0BEFFE4
:102A20002860286820B9206801F01AFF0320D5E744
:102A30003288511C2868FDF7A4FB32883946286883
:102A4000FDF786FB0020C9E701464878022801D03F
:102A500001207047887810B18878012801D1C878A2
:102A6000F7E7FF20F5E700002DE9FC5F81460D4602
:102A700014461E46DDE90C8B99F8000000F00F0AA1
:102A8000002001900AF008000090CAF341008BF882
:102A9000000001AA042109F10100FFF76CFF48447E
:102AA000471C0198022802D30AF0010010B1FF2050
:102AB000BDE8FC9F7878397840EA012020802088A2
:102AC000801C0199884201D9FF20F1E754A1B81C6C
:102AD000FDF76EFB08B10F20EAE79BF8000020B17C
:102AE00001283DD0022877D13BE0009808B1FF20B3
:102AF000DEE72188481C01F051FF2860286808B9EA
:102B0000FF20D5E72288511C2868FDF73AFB228870
:102B1000B91C2868FDF71CFB0198801E2188401A0B
:102B2000A8F80000B8F80010481C01F037FF30602A
:102B3000306820B9286801F093FEFF20B8E7B8F8A4
:102B40000020511C3068FDF71CFBB8F80020B4F8D9
:102B500000C0BB1C0CEB03013068FDF7F9FA4FE035
:102B600000BF2088801C0199884201D9FF209FE77F
:102B70002088C01C395C2088801C385C41EA002118
:102B80000E9801800E9808B9FF2091E72188481C13
:102B900001F004FF2860286808B9FF2088E7228830
:102BA000511C2868FDF7EDFA2288B91C2868FDF74A
:102BB000CFFA0198001F2188401AA8F80000B8F841
:102BC0000010481C01F0EAFE3060306828B928681F
:102BD00001F046FEFF206BE710E0B8F80020511C22
:102BE0003068FDF7CEFAB8F80020B4F800C03B1DFD
:102BF0000CEB03013068FDF7ABFA01E0FF2057E76B
:102C000000BF2B212846FDF7E5FA20B923212846ED
:102C1000FDF7E0FA08B1FF204AE7002048E700008E
:102C2000246372657100000001464878022801D0D3
:102C300001207047887820B9C8780A2801D100207F
:102C4000F7E70120F5E70000F8B50446FF272078F4
:102C50000511012D01DB0E2D01DD3846F8BD032DD8
:102C600024D1002000906A460421601CFFF783FEF7
:102C70002044461C0098022803D3207800F001006D
:102C800008B1FF20EAE77078317840EA0120801C23
:102C90000099884201D9FF20E0E706A1B01CFDF7AA
:102CA00087FA08B10F2700E0032700E02F463846D7
:102CB000D4E70000246372657100000008B500BF0E
:102CC0000A48406940F001000849486108464069E7
:102CD00000F00100009000BF00BF0022114610204C
:102CE000FEF7FCFB1020FEF7E9FB08BD00100240D8
:102CF00008B500BF0D48806940F020000B4988618D
:102D00000846806900F02000009000BF00BF00BFAF
:102D10000846806940F0040088610846806900F038
:102D20000400009000BF00BF08BD0000001002407A
:102D300010B50B480B4908604FF4E13048600021A2
:102D400008488160C16001610C21416100218161FD
:102D5000C161FFF73FF908B1FDF7C0FF10BD0000EA
:102D6000003801404800002010B5114811490860A2
:102D70004FF4E130486000210E488160C16001617C
:102D80000C21416100218161C161FFF723F908B184
:102D9000FDF7A4FF642208490648FFF7F5F9054846
:102DA0000068C06840F0100002490968C86010BDA2
:102DB00000440040900000201C01002000BFFEE7FE
:102DC00000BFFEE730B58BB0002007900890099057
:102DD0000A9001252DA330A231A133A000F044FFB9
:102DE00007A8002102910391CDE9041000912B0264
:102DF00026A2019128A12AA0FFF778FA00283BD14A
:102E0000089A91B20798FDF731FFFA20FDF714FEFA
:102E10000446002C2CD02046FFF716FF022827D1AD
:102E20002046FFF711FE06281DD2DFE800F0030858
:102E30000C10141828A000F017FF002517E02BA095
:102E400000F012FF13E030A000F00EFF0FE037A0FB
:102E500000F00AFF0BE03DA000F006FF07E044A0F1
:102E600000F002FF03E04DA000F0FEFE00BF00BF37
:102E700007A8FFF7A4F902E04FA000F0F5FE01213A
:102E8000564800F071FB28460BB030BD3130363467
:102E900031333334393000003132333435360000C9
:102EA00035383833383400004F6E654E65745F44F2
:102EB00065764C696E6B0D0A50524F49443A202595
:102EC000732C09415549463A2025732C094445562F
:102ED00049443A25730D0A00546970733A09C1AC2C
:102EE000BDD3B3C9B9A60D0A000000005741524E28
:102EF0003A09C1ACBDD3CAA7B0DCA3BAD0ADD2E900
:102F0000B4EDCEF30D0A00005741524E3A09C1AC60
:102F1000BDD3CAA7B0DCA3BAB7C7B7A8B5C4636CA2
:102F200069656E7469640D0A000000005741524ED5
:102F30003A09C1ACBDD3CAA7B0DCA3BAB7FECEF183
:102F4000C6F7CAA7B0DC0D0A000000005741524E78
:102F50003A09C1ACBDD3CAA7B0DCA3BAD3C3BBA7DF
:102F6000C3FBBBF2C3DCC2EBB4EDCEF30D0A000031
:102F70005741524E3A09C1ACBDD3CAA7B0DCA3BA7F
:102F8000B7C7B7A8C1B4BDD328B1C8C8E7746F6BC1
:102F9000656EB7C7B7A8290D0A0000004552523A1E
:102FA00009C1ACBDD3CAA7B0DCA3BACEB4D6AAB40B
:102FB000EDCEF30D0A0000005741524E3A094D5133
:102FC00054545F5061636B6574436F6E6E656374D8
:102FD000204661696C65640D0A000000280000202D
:102FE00010B588B0044620216846FDF7CAF80FA046
:102FF0000088208020216846FDF7C3F80C4802684D
:103000000068401C0A4B0BA11860684600F03CFEAB
:1030100069462046FDF7C0F809A12046FDF7BCF837
:103020002046FDF7E1F8C0B208B010BD7B000000FB
:1030300034000020226964223A2225642200000024
:103040007D0000002DE9F14F90B000200C900D9014
:103050000E900F900B900A9009900890824607906E
:1030600081460024834603901098FFF7EDFD8246C9
:10307000BAF1030F28D0BAF1040F7CD0BAF10F0FC8
:103080007AD108AB0BAA0AA91098FFF797FC8146E2
:10309000B9F1000F17D1BDF8203091A0DDE90A1277
:1030A00000F0E2FD0CAADDE90A01FFF7D9F850B9FA
:1030B00094A000F0D9FD0D9A91B20C98FDF7D6FDC1
:1030C0000CA8FFF77CF8AFE094A000F0CDFD9A4883
:1030D00007A908AA0BABCDE90021029009AA0AA909
:1030E0001098FFF7C1FC8146B9F1000F72D1BDF80D
:1030F00020000090BDF8242090A0DDE90A1300F024
:10310000B3FD002002900B9801F03CFB0290029866
:1031100018B999A000F0A8FD23E004219EA000F0BA
:10312000A3FDA3A1029801F00DFB50B1A0A102984C
:1031300001F008FBD0E906562A4633469FA000F06E
:1031400093FDA6A1029801F0FDFA50B1A3A1029847
:1031500001F0F8FAD0E906783A464346A2A000F01A
:1031600083FD029858B1029801F0C0FA029801F06C
:1031700077FBA5A001E04CE053E000F075FD9DF861
:103180001C00012802D0022825D111E00CA96A48B0
:103190000088FFF7D7FA50B99EA000F065FD0D9AA0
:1031A00091B20C98FDF762FD0CA8FFF708F813E048
:1031B0000CA961480088FFF7E9FA50B99BA000F01C
:1031C00053FD0D9A91B20C98FDF750FD0CA8FEF737
:1031D000F6FF01E01CE000BF00BFFDF71FFC34B1AB
:1031E000204601F03DFB002496A000F03DFD0B9829
:1031F00020B10B9801F034FB00200B900A9820B10D
:103200000A9801F02DFB00200A9011B0BDE8F08F64
:103210000AE01098FFF708FD10B990A000F024FD17
:1032200002E04FF0FF3900BF00BFFDF7F7FB09F1E7
:10323000010000B9E9E77D210B98FCF7CBFF0446BC
:10324000002C3CD009F10100002838D0641C0BF19F
:10325000010000F0FF0B0AE014F8012B0398411C59
:10326000039104A90A540BF1010000F0FF0B207830
:10327000302802DB20783928EEDD002104AA0398EB
:1032800011547EA000F0F0FC04A8FCF7D7FF0390D7
:10329000294807A908AA0BABCDE90021029009AA89
:1032A0000AA91098FFF7E0FB8146BDF820000090C6
:1032B000BDF8242021A0DDE90A1300F0D5FCBAF105
:1032C0000F0F02D0BAF1030F05D10A9801F0C8FA26
:1032D0000B9801F0C5FAA4EB0B0400BF95E70000C2
:1032E000636D6469643A2025732C207265713A20FD
:1032F00025732C207265715F6C656E3A2025640D14
:103300000A000000546970733A0953656E642043E3
:103310006D64526573700D0A00000000BDD3CAD5FC
:10332000CAFDBEDD4D5154545F504B545F50554261
:103330004C4953480D0A000038000020746F706932
:10334000633A2025732C20746F7069635F6C656E1F
:103350003A2025642C207061796C6F61643A2025D5
:10336000732C207061796C6F61645F6C656E3A20BC
:1033700025640D0A000000006A736F6E207061639F
:103380006B20696E746F20636A736F6E2065727252
:103390006F722E2E2E0D0A00636A736F6E20C4DAD0
:1033A000B4E6B4F3D0A1CEAA203D2025640D0A00D6
:1033B00074656D70657261747572650063736A6FB0
:1033C0006EBDE2CEF6B3C9B9A62074656D705F76A6
:1033D000616C7565203D2025660D0A0048756D6994
:1033E000646974790000000063736A6F6EBDE2CE99
:1033F000F6B3C9B9A62048756D6964697479203D32
:103400002025660D0A000000CACDB7C5B3C9B9A60C
:103410000D0A0000546970733A0953656E642050B8
:1034200075626C69736841636B0D0A00546970734F
:103430003A0953656E64205075626C697368526511
:10344000630D0A00CACDB7C564617461707472BF40
:10345000D5BCE4B3C9B9A60D0A0000005469707365
:103460003A094D515454205075626C697368205369
:10347000656E64204F4B0D0A000000003039202D8E
:103480003D3D3D3D3D3D3D3D3D3D3D3D0D0A000049
:1034900030B5C5B000204190429043904490002444
:1034A00000251AA000F0E0FB4FF4807101A8FCF7A2
:1034B00068FE01A8FFF794FD0446002C24D041A823
:1034C000032300222146009018A0FFF783F9C0B91A
:1034D00008E001A8415D429A501C429041988154F5
:1034E000681C05B2A542F4DB429A91B24198FDF7FF
:1034F000BDFB11A0429900F0B7FB41A8FEF75FFEAB
:1035000002E011A000F0B0FB45B030BD546970730B
:103510003A094F6E654E65745F53656E644461741D
:10352000612D4D5154540D0A0000000031303634E5
:10353000313333343930000053656E642025642004
:1035400042797465730D0A005741524E3A09454459
:10355000505F4E6577427566666572204661696C9C
:1035600065640D0A0000000070B586B004460D4683
:1035700000260020029003900490059006E054F885
:1035800026100DA000F070FB701CC6B2AE42F6DB38
:1035900002A82B462246022100901420FFF76CF966
:1035A00038B9039A91B20298FDF760FB02A8FEF7C2
:1035B00006FE06B070BD00005375627363726962E7
:1035C0006520546F7069633A2025730D0A0000006E
:1035D0007047000008B508490968C9084FF47A72B5
:1035E000B1FBF2F14143009100BF00BF00994A1EB8
:1035F00000920029F9D108BD14000020704710B5D1
:10360000FDF7ECFE10BD00B58FB0282105A8FCF732
:10361000B8FD14216846FCF7B4FD012005900004B4
:103620000690002007900120099002200C90C10311
:103630000D914FF4E0110E9105A8FEF7C5F808B101
:10364000FDF74CFB0F20009002200190002002901B
:103650004FF4806003900020049002216846FDF73B
:103660008FFF08B1FDF73AFB0FB000BD704770B592
:1036700005466C6A0020E085E0842046FEF736FBB4
:1036800070BD70B506460025746A20684069C0F3B5
:10369000C01594F84100212805D125B10020E0840F
:1036A000204600F0C8F820684069C0F3801594F8FF
:1036B0004200222805D125B10020E085204600F0F7
:1036C00074F8606C40F0100060642046FEF70EFB5A
:1036D00070BD70B505466C6A2868006800F020006F
:1036E000002842D1E08500BF00BF21680C3151E8BD
:1036F000001F21F4807021680C3141E80002002A8B
:10370000F3D100BF00BF00BF2168143151E8001F92
:1037100021F001002168143141E80002002AF3D1B0
:1037200000BF00BF00BF2168143151E8001F21F025
:1037300040002168143141E80002002AF3D100BFA3
:10374000202084F84200206B01280ED100BF00BF6A
:1037500021680C3151E8001F21F0100021680C3164
:1037600041E80002002AF3D100BF00206063206B13
:10377000012804D1A18D2046FEF772FA02E020460E
:10378000FEF718FD70BD70B505466C6A01206063D8
:10379000206B012805D1A08D41082046FEF760FA74
:1037A00002E02046FEF707FD70BD00BF00BF0268C3
:1037B0000C3252E8002F22F4907102680C3242E879
:1037C0000013002BF3D100BF00BF00BF026814320A
:1037D00052E8002F22F001010268143242E800137F
:1037E000002BF3D100BF016B01290ED100BF00BF38
:1037F00002680C3252E8002F22F0100102680C32ED
:1038000042E80013002BF3D100BF202180F84210C2
:1038100000210163704710B504462068C06820F09D
:1038200040002168C860202084F841002046FEF74F
:10383000C3FC002010BD00BF00BF02680C3252E87C
:10384000002F22F0C00102680C3242E80013002B66
:10385000F3D100BF202180F841107047F8B504462D
:1038600094F84200222875D1A068B0F5805F0CD191
:10387000206950B90025A66A20684068C0F3080096
:103880003080A06A801CA06215E0A56A0026A068AE
:10389000B0F5805F03D0A06828B9206918B9206806
:1038A0004068287004E02068406800F07F002870BD
:1038B000A06A401CA062E08D401E80B2E085002816
:1038C00046D12068C06820F020002168C8602068C8
:1038D000C06820F480702168C8602068406920F0CA
:1038E000010021684861202084F8420000206063C4
:1038F000206B012826D10020206300BF00BF216873
:103900000C3151E8001F21F0100021680C3141E812
:103910000002002AF3D100BF2068006800F0100008
:1039200010280AD100BF0020009020680068009095
:1039300020684068009000BF00BFA18D2046FEF7C0
:103940008FF902E02046FEF735FC0020F8BD01E0CB
:103950000020FBE70220F9E770B5044621680969F9
:1039600021F44051E2681143226811612269A16883
:103970001143626941EA02052168C96841F20C629B
:10398000914329432268D1602168496921F440713B
:10399000A2691143226851612D4A2168914202D1E6
:1039A000FDF7CAFE01E0FDF7B7FE00EBC00101EB39
:1039B000001162689200B1FBF2F100EBC00202EB71
:1039C000001263689B00B2FBF3F26423B2FBF3F2D4
:1039D00002EBC20303EB0212A1EB8201322202EBE3
:1039E00001116422B1FBF2F101F0F00100EBC00221
:1039F00002EB001263689B00B2FBF3F26423B2FB9C
:103A0000F3F201EB021200EBC00101EB001163685D
:103A10009B00B1FBF3F100EBC00303EB00136668FE
:103A2000B600B3FBF6F36426B3FBF6F303EBC30671
:103A300006EB0313A1EB8301322303EB0111642393
:103A4000B1FBF3F101F00F0111442268916070BDE8
:103A50000038014077B581B0044615460298A0624F
:103A6000A58500206064222084F842002848E16B8C
:103A700088622848E16BC8622748E16B0863002030
:103A8000E16B486302AE32682368191D2B46E06B78
:103A9000FDF7ACFA00BF002000902068006800909D
:103AA00020684068009000BF00BF206970B100BF6F
:103AB00000BF21680C3151E8001F41F4807021687B
:103AC0000C3141E80002002AF3D100BF00BF00BF63
:103AD0002168143151E8001F41F0010021681431C0
:103AE00041E80002002AF3D100BF00BF00BF2168F7
:103AF000143151E8001F41F040002168143141E8C1
:103B00000002002AF3D100BF002004B070BD000005
:103B1000D33600088737000883360008014691F83D
:103B20004100212828D18868B0F5805F0BD1086951
:103B300048B90A6A1088C0F308000B685860086A20
:103B4000801C086205E00B6A581C086218780B6834
:103B50005860C88C401E80B2C88458B90868C068D4
:103B600020F080000B68D8600868C06840F0400012
:103B70000B68D860002070470220FCE708B51E489B
:103B8000FEF7B6F81C4800680068C0F30010002873
:103B900030D01948FEF765F8184800684068C0F54D
:103BA000806017490880174917A000F05DF8174892
:103BB000007801280CD116A11248FCF7F9FA38B1A7
:103BC000FCF72CFF17A000F04FF800200F490870F9
:103BD00064220C490848FEF7D7FA00BF0020009085
:103BE000054800680068009003480068406800903D
:103BF00000BF00BF08BD000090000020D8000020DA
:103C0000180000201C010020257300000000002087
:103C10006C696E6B206973206E6F742076616C69BD
:103C200064000000CDF8C2E7B6CFBFAAA3ACD7BCF2
:103C3000B1B8D6D8C1AC0D0A0000000000BFFEE745
:103C40002DE9F04105460C461646002707E014F81A
:103C5000010B68600120FDF717FA781C87B2B742A4
:103C6000F5DBBDE8F08100000FB4054B10B503A9EA
:103C7000044A029800F09EF910BC5DF814FB0000A5
:103C800045480008040000200FB4084B10B504A9F3
:103C900002AA039800F08EF9044602A9002000F061
:103CA00020FD204610BC5DF814FB0000E346000830
:103CB000490050EAC12018BF04204A0D18BF40F047
:103CC000010040F2FF72B2EB515F08BF40F002000A
:103CD000012808BF0520704702480068C0F3022091
:103CE000704700000CED00E010B5002804DB0A0767
:103CF000130E054A135406E00A07140E034A00F097
:103D00000F031B1FD45410BD00E400E018ED00E0C9
:103D100000487047440000202DE9F0414F1E00EBA1
:103D2000C7010446D1E9000115461E4637F00602D8
:103D30000DD02A463346FCF735FB7F1E04EBC70344
:103D4000D3E90023FCF787FA37F00602F1D1022FFE
:103D500025D0042F13D0062F18BFBDE8F0812A46C6
:103D60003346FCF71FFBD4E90A23FCF774FA2A4612
:103D70003346FCF717FBD4E90823FCF76CFA2A4614
:103D80003346FCF70FFBD4E90623FCF764FA2A4616
:103D90003346FCF707FBD4E90423FCF75CFA2A4618
:103DA0003346FCF7FFFAD4E90223FCF754FA2A461B
:103DB0003346FCF7F7FAD4E90023BDE8F041FCF7FD
:103DC0004ABA00000022134610460149FCF7A1BC84
:103DD0000000F03FFCF73FBA0022134610461146A0
:103DE000FCF797BC40F2013200204FF0E041FCF7B5
:103DF000FFBC0000024A00201107FCF7F9BC0000DC
:103E000001FDFFFF02E008C8121F08C1002AFAD115
:103E100070477047002001E001C1121F002AFBD14A
:103E2000704700000149086070470000440000200E
:103E30002DE9FF5F82B00021DDE90430020DDDF8DD
:103E400040B0034318D044F61050A2F2FF32424370
:103E50001514119801281FD0A5EB0B00401C5FEA38
:103E6000000A4FF000064E4FDFF83891B04650463A
:103E700015D5CAF1000413E0119801244AA30128C2
:103E800001D16FEA0B010298119AC0E90031C0E933
:103E9000024206B0BDE8F09FCBF10000DFE7044628
:103EA0000021404A491842EB0450CDE9001012E0CD
:103EB000E00707D032463B4640464946FCF772FAD7
:103EC0008046894632463B4610461946FCF76AFA58
:103ED00006460F466410002CEAD1DDE90401DDE955
:103EE0000023BAF1000F06DAFCF75CFA42464B46B3
:103EF000FCF758FA05E0FCF70CFC42464B46FCF791
:103F000008FC04460E460022284BFCF7EDFA03D8C5
:103F10004FF0FF30014607E00022254B2046314696
:103F2000FCF799F9FCF77BFC102409E0002C0ADB74
:103F30000A220023FCF706FB039B30321A55641E4D
:103F400050EA0102F2D1641C039AC4F11103144433
:103F5000119A012A03D0012208430DD10AE0084337
:103F600004D000204FF0110B119072E7A3EB0B056A
:103F70006D1E0DE05B4504DD4FF0000205F101050B
:103F800004E003DA4FF00002A5F10105002AECD0AD
:103F900002981199C0E90231C0E9004579E70000B3
:103FA000000014400000F03F300000000000F0432B
:103FB0000000E03F2DE9FF4F95B09B46894606463D
:103FC00000250FE2252877D100242746F84A012151
:103FD000059400E0044316F8013F203B01FA03F08A
:103FE0001042F7D130782A2811D06FF02F033078A3
:103FF000A0F13002092A16D8059A44F0020402EB17
:10400000820203EB42021044761C0590EFE759F858
:10401000042B0592002A03DA504244F40054059020
:1040200044F00204761C30782E2816D116F8010FC1
:1040300044F004042A280DD06FF02F023078A0F14C
:104040003003092B09D807EB870302EB4303C7189A
:10405000761CF3E759F8047B761C30786C280FD077
:1040600006DC4C2817D068280DD06A2814D104E04B
:10407000742810D07A280FD10DE044F400140AE01F
:1040800044F4801401E044F440147278824202D176
:1040900004F58014761C761C307866280BD013DC6F
:1040A000582877D009DC002875D04528F6D0462856
:1040B000F4D047281AD19DE118E0632835D0642850
:1040C00079D0652812D195E1702873D008DC672873
:1040D000F1D069286FD06E280DD06F2806D1B5E0D9
:1040E00073282CD0752875D0782874D05A46179923
:1040F00090476D1C75E1C4F30250022809D00328D3
:104100000DD0D9F8001004280DD00D6009F1040974
:1041100067E1D9F80010EA17C1E90052F6E7D9F8CB
:1041200000100D80F2E70D70F0E719F8041B8DF810
:10413000001000208DF80100EA46012003E059F844
:1041400004AB4FF0FF3061074FF0000102D40DE0E7
:1041500008F101018846B9420FDA8045F8DB1AF808
:1041600008100029F4D108E008F1010188468142D5
:10417000FADB1AF808100029F6D105985B46A0EB87
:10418000080721463846179A00F094FA284400EBB5
:10419000080507E04DE029E10DE01AF8010B5A4649
:1041A00017999047B8F10108F7D25B462146384687
:1041B000179A13E142E00A220092C4F302524FF030
:1041C000000A022A08D059F804CB032A4FEAEC71FE
:1041D0000AD00DE029E02AE009F1070121F00702E9
:1041E000F2E802C1914609E00FFA8CFC4FEAEC714B
:1041F000042A03D14FFA8CFC4FEAEC71002907DA4C
:104200000A460021DCF1000C61EB02012D2202E0E4
:10421000220504D52B228DF80420012203E0E207B9
:1042200001D02022F7E7904659E00A2102E010224F
:104230000DE010214FF0000A00910BE010224FF02A
:10424000000A44F004040827009203E008224FF01B
:10425000000A0092C4F30252022A05D059F804CB96
:104260000021032A08D009E009F1070121F0070223
:10427000F2E802C1914605E01FFA8CFC042A01D144
:104280000CF0FF0C4FF00008220728D5702806D04C
:10429000009B83F0100353EA0A0305D00EE040228E
:1042A0008DF80420012208E05CEA010206D03022E9
:1042B0008DF804208DF8050002229046009B83F0C3
:1042C000080353EA0A030AD15CEA010201D162073A
:1042D00005D530228DF804204FF001087F1E5828A4
:1042E00004D034A003900EA802900DE036A0F9E7A8
:1042F00053466046009AFCF725F984460398825C91
:104300000298401E029002705CEA0100F0D102980F
:1043100006A9081A00F1200A600702D524F48034A7
:1043200000E00127574502DDA7EB0A0000E000206E
:1043300000EB0A01009005984144401A0590E00303
:1043400006D45B462146179A059800F0B3F9054458
:10435000002706E001A85A46C05D179990476D1CDA
:104360007F1C4745F6DBE0030CD55B462146179AD8
:10437000059800F09FF9054404E030205A4617994B
:1043800090476D1C0099481E00900029F5DC08E05C
:10439000029802995A460078491C02911799904751
:1043A0006D1CBAF10001AAF1010AF1DC65E100001F
:1043B00009280100303132333435363738396162FB
:1043C00063646566000000003031323334353637BF
:1043D00038394142434445460000000000F058F996
:1043E0000544761C307800287FF4ECAD19B02846DF
:1043F000BDE8F08F620700D4062709F1070222F01A
:10440000070CFCE80223E14603F000485FEA080CD1
:1044100002D00FF2702C0DE05FEA045C02D50FF2BF
:10442000682C07E05FEAC47C02D00FF2602C01E048
:10443000AFF2700C4FF0FF3823F00043CDF850C0BE
:1044400065280CD006DC452809D046281DD0472811
:104450003DD13DE0662818D067287ED138E00021A4
:10446000112F01DB112000E0781CCDE9000106A925
:104470000EA8FFF7DDFCDDE90F010E9A0391002184
:10448000009207F1010A04914DE04FF000400097BF
:10449000CDE9011006A90EA8FFF7CAFCDDE90F025D
:1044A00003920E9B11990022DDF80CA00093049258
:1044B00011B9791C00EB010AB7EB0A0004D4C0F172
:1044C000FF3007F1010A0490AAEB0700019044E0D5
:1044D000012F00DA01270021112F01DD112000E05A
:1044E0003846CDE9000106A90EA8FFF7A1FCDDE9D9
:1044F0000F010E9A0391002104910092BA46210700
:104500000CD40399514500DA8A46BAF1010F05DD52
:10451000009AAAF10101515C302908D0B84202DAB0
:1045200010F1040F06DA0121CDE9011015E0AAF11E
:104530000101E9E7002805DC049901440491AAEB94
:10454000000102E0411C514500DD8A460499401AF1
:10455000401C01904FF000400290200704D40198C5
:10456000504501DBCDF8048000208DF84F00029803
:104570000DF14F07B0F1004F25D02B200E9002987F
:104580004FF0020800280CDA404202902D200E90D5
:1045900007E00A210298FBF7BFFF3031029007F8CD
:1045A000011DB8F10001A8F10108F2DC0298002811
:1045B000EFD1791E0E980870307800F0200040F09E
:1045C000450007F8020D12A8C01B00F10708149857
:1045D000007800B1012000EB0A01019801EBE071C5
:1045E00005984144401A401E0590E00306D45B46FE
:1045F0002146179A059800F05DF805441498007854
:1046000018B15A46179990476D1CE00324D55B46B4
:104610002146179A059800F04DF805441CE00498CF
:10462000002807DBDDE90301884203DD0098405CD8
:10463000179901E0179930205A469047049805F1E0
:104640000105401C04900198401E019004D12E20C9
:104650005A46179990476D1CBAF10001AAF1010A58
:10466000DDDC05E017F8010B5A46179990476D1CE1
:10467000B8F10001A8F10108F4DC5B462146179A65
:104680000598ABE62D0000002B0000002000000084
:104690002DE9F041044600251E461746880404D43F
:1046A00005E039462020B0476D1C641EF9D5284628
:1046B000BDE8F0812DE9F041044600251E469046F4
:1046C000C80301D5302700E02027880404D505E081
:1046D00041463846B0476D1C641EF9D52846BDE8F2
:1046E000F0810A68531C0B601070704770B5044667
:1046F00022E02568A08900F4807020B9A06810B17C
:10470000A068FFF7F3FFA08900F4807028B9206942
:1047100018B10B49206909688847A08900F4007026
:1047200028B9206A18B10649206A096888472046D6
:104730000349096888472C46002CDAD170BD000077
:104740002400002070B505460E46AC6800E02468E1
:104750002CB13146206A00F04FF80028F7D12046EE
:1047600070BD000010B52820054909688847044637
:104770001CB128212046FBF704FD204610BD000097
:104780002000002010B5044600221146204600F00B
:1047900001F810BD2DE9F04780460D46164600246D
:1047A000FFF7E0FF07460020124908600FB9BDE897
:1047B000F087404601F0A0F981464946384600F0AE
:1047C00051FC044624B93846FFF790FF0020EEE77D
:1047D00066B1204601F090F90446207830B13846A1
:1047E000FFF784FF034804600020E0E705B12C6078
:1047F0003846DCE71C00002070B504460D462CB995
:10480000AC4201D0012070BD0020FCE70DB90120B1
:10481000F9E705E0207808B90020F4E7641C6D1C76
:104820002078FBF78FFC06462878FBF78BFC864246
:10483000F0D02078FBF786FC06462878FBF782FC50
:10484000301AE0E700BF054A126802F04002002A71
:10485000F9D0C2B2014B1B1D1A60704700380140ED
:1048600010B5002821D0114B0022001F196803E069
:10487000814203D80A4649680029F9D152B1136828
:10488000841A9C4204D1006818441060104602E06B
:10489000506000E0186039B102680B1A934203D1EE
:1048A0000B681A4402604968416010BD3C0000205A
:1048B0000024FCF79FFDFEF7A6FEFEF719FAFEF7AF
:1048C000FDF9FEF735FAFEF74FFA39E01D4800789A
:1048D00001281ED1681C80B2054664280DDB6420C7
:1048E000FCF7D2FB18A0FFF7BFF9FEF7D1FD1AA025
:1048F000FFF7BAF90025FCF791F80020FCF79CF8C7
:10490000044614B12046FEF79DFB6420FCF7BCFB77
:1049100016E015A0FFF7A8F9FCF7B4F817A0FFF709
:10492000A3F903E04FF4FA70FCF7AEFBFEF74AFA86
:104930000028F7D101200349087014A0FFF794F96B
:10494000C4E7000000000020BFAACABCB7A2CBCDBC
:10495000CAFDBEDD0D0A0000B7A2CBCDCAFDBEDD8B
:10496000BDE1CAF80A000000BFAACABCC1ACBDD3F1
:10497000B7FECEF1C6F70D0A000000003832363619
:10498000B3F5CABCBBAFB3C9B9A60A00BDD3C8EB67
:104990006F6E656E6574B3C9B9A60000F0B50B30D3
:1049A000154D20F007010024144A0FE003688B42E4
:1049B0000BD38B4205D95E1A43184768C3E90067D9
:1049C00000E04368136002C004E0021D1068002884
:1049D000ECD12046002802D1286808B10020F0BDA3
:1049E000064A07481060074A121A22F00702C0E977
:1049F000002401202860D7E7400000203C00002070
:104A000024050020200700202DE9F04705460C462C
:104A100020785B2804D0264804600020BDE8F08799
:104A20000520E860601C01F067F8044620785D28E6
:104A300001D1601CF2E7FFF795FE0646A860A86862
:104A400008B90020EAE7204601F056F880464146C2
:104A5000304600F007FB074601F04EF804460CB95B
:104A60000020DBE717E0FFF77DFE071E00D1D5E74A
:104A700037607E603E46601C01F03EF88146494644
:104A8000304600F0EFFA804601F036F804460CB9E3
:104A90000020C3E700BF20782C28E4D020785D28D0
:104AA00001D1601CBAE7024804600020B6E70000AC
:104AB0001C000020014600220878302806DB087818
:104AC000392803DC08783038024415E0087841289A
:104AD00006DB0878462803DC0878373802440BE008
:104AE0000878612806DB0878662803DC08785738E0
:104AF000024401E0002070471201491C0878302868
:104B000006DB0878392803DC08783038024415E0E1
:104B10000878412806DB0878462803DC087837380F
:104B200002440BE00878612806DB0878662803DC7D
:104B300008785738024401E00020DCE71201491CE4
:104B40000878302806DB0878392803DC0878303804
:104B5000024415E00878412806DB0878462803DC83
:104B60000878373802440BE00878612806DB0878BB
:104B7000662803DC08785738024401E00020BAE7D1
:104B80001201491C0878302806DB0878392803DC34
:104B900008783038024415E00878412806DB0878A8
:104BA000462803DC0878373802440BE0087861288F
:104BB00006DB0878662803DC08785738024401E0F1
:104BC000002098E7104696E72DE9F04F8BB083461A
:104BD0008A460020044605460026674F0021884685
:104BE00089460990012008909AF800002D2802D1EA
:104BF000624F0AF1010A9AF80000302801D10AF147
:104C0000010A9AF80000312822DB9AF800003928BE
:104C10001EDC00BF1AF8011BA1F13000FBF734FCC9
:104C20000022574BCDE9060120462946FBF7BAFB87
:104C3000CDE90401DDE90623FBF70DFB04460D4633
:104C40009AF80000302803DB9AF800003928E1DDEB
:104C50009AF800002E2830D19AF8010030282CDB79
:104C60009AF80100392828DC0AF1010A00BF1AF875
:104C7000011BA1F13000FBF707FC0022404BCDE9FE
:104C8000060120462946FBF78DFBCDE90401DDE94D
:104C90000623FBF7E0FA04460D460022364B404659
:104CA0004946FBF779FB804689469AF80000302890
:104CB00003DB9AF800003928D9DD9AF8000065284E
:104CC00003D09AF80000452823D10AF1010A9AF886
:104CD00000002B2802D10AF1010A08E09AF800002E
:104CE0002D2804D14FF0FF3008900AF1010A08E0A6
:104CF0001AF8010B3038099901EB810100EB4100F2
:104D000009909AF80000302803DB9AF8000039284F
:104D1000EEDDDDE9082101FB02F0FBF7B5FB4246C1
:104D20004B46CDE90001FBF796FA02460B46CDE96A
:104D300002010020124900F0F3F922462B46CDE98A
:104D4000060130463946FBF72DFBCDE90401DDE9CC
:104D50000623FBF727FB04460D46CBE90645204614
:104D60002946FBF7A2FBCBF814000320CBF80C007C
:104D700050460BB0BDE8F08F0000F03F0000F0BFE0
:104D8000000024402DE9F04706460C4620787B2899
:104D900004D0404804600020BDE8F0870620F060A1
:104DA000601C00F0A9FE044620787D2801D1601C1B
:104DB000F2E7FFF7D7FC0546B060B06808B90020FD
:104DC000EAE7204600F098FE80464146284600F07B
:104DD00063F8074600F090FE04460CB90020DBE7BC
:104DE000286928620020286120783A2803D02948C1
:104DF00004600020D0E7601C00F07EFE8046414643
:104E0000284600F02FF9074600F076FE04460CB95C
:104E10000020C1E731E0FFF7A5FC071E00D1BBE78A
:104E20002F607D603D46601C00F066FE814649466D
:104E3000284600F031F8804600F05EFE04460CB9CA
:104E40000020A9E7286928620020286120783A28F4
:104E500003D01048046000209EE7601C00F04CFE68
:104E600081464946284600F0FDF8804600F044FEA1
:104E700004460CB900208FE700BF20782C28CAD048
:104E800020787D2801D1601C86E70248046000205C
:104E900082E700001C0000202DE9F05F8346884671
:104EA00008F10104002798F80000222805D06A487C
:104EB000C0F800800020BDE8F09F04E014F8011B5A
:104EC0005C2900D1641C2078222804D0207810B1FD
:104ED000781C071EF2D1781C604909688847814612
:104EE000B9F1000F01D10020E5E708F101044D46BA
:104EF0009EE020785C2804D014F8010B05F8010B23
:104F000096E0641C2078722818D006DC622809D04C
:104F100066280BD06E287DD10CE0742812D075283D
:104F2000F9D113E0082005F8010B7FE00C2005F80B
:104F3000010B7BE00A2005F8010B77E00D2005F856
:104F4000010B73E0092005F8010B6FE0601CFFF70F
:104F5000B1FD0646241DB6F55C4F02D3B6F5604F91
:104F600000D306B962E0B6F5584F1CD3B6F55C4FD6
:104F700019D260785C2802D1A078752800D055E05D
:104F8000E01CFFF797FD8246A41DBAF55C4F02D3E3
:104F9000BAF5604F00D349E0C6F30901504661F30A
:104FA0009F2000F580360427802E01D2012708E0DB
:104FB000B6F5006F01D2022703E0B6F5803F00D2BC
:104FC00003273D44012F20D0022F15D0032F0AD0F4
:104FD000042F24D106F0BF0040F08001681E054672
:104FE0000170B60900BF06F0BF0040F08001681EE6
:104FF00005460170B60900BF06F0BF0040F0800111
:10500000681E05460170B60900BF1548C05D3043F3
:10501000C1B200E006E0681E0546017000BF00BF97
:105020003D4403E0207805F8010B00BF00BF641C7D
:105030002078222803D0207800287FF45AAF00205F
:1050400028702078222800D1641CCBF8109004200E
:10505000CBF80C0020462EE71C000020200000208A
:10506000805B000870B505460C460CB9002070BD89
:10507000042224A12046FBF7D2F818B90220E860E8
:10508000201DF4E7052221A12046FBF7C8F818B936
:105090000020E860601DEAE704221EA12046FBF71D
:1050A000BEF820B90120E8606861201DDFE72078A4
:1050B000222804D121462846FFF7EEFED7E72078C4
:1050C0002D2805D02078302807DB2078392804DC0B
:1050D00021462846FFF778FDC9E720785B2804D1F0
:1050E00021462846FFF790FCC1E720787B2804D1B1
:1050F00021462846FFF746FEB9E70848046000202D
:10510000B5E700006E756C6C0000000066616C73A2
:105110006500000074727565000000001C0000202E
:105120002DE9F04D1D460C4698B0174621F0004180
:1051300023F00043002814BF4FF0010C4FF0000C87
:105140000CEB440CFE4A0CEB02064FEA620C66457F
:105150002BD33E0018BF012606EB45061644F94A3C
:10516000964222D3F84A53EA070C02D0944205D162
:1051700048B918B000201146BDE8F08D002808BFDE
:105180004FF0000C01D04FF0010C0CEB440212F573
:10519000001F0AD8002F14BF4FF0010C4FF0000C75
:1051A0000CEB450212F5001F07D918B03A462B4602
:1051B0002146BDE8F04DFEF70DBE0022DFF88CA3BE
:1051C000002CB8BF534526DADFF884C36345A8BF77
:1051D000022220DADFF870C39C451CDCDFF874C3C0
:1051E0000CEB235CBCF1140F08DDCCF1340627FA7C
:1051F00006FC0CFA06F6BE420DD108E05FB9CCF110
:10520000140623FA06FC0CFA06F69E4203D10CF0B3
:105210000102C2F1020251EA000C19D1002D17DA85
:10522000002C18BF022A01D0012A07D00220FEF765
:10523000F9FD18B0BDE8F04DFEF7C4BD0220FEF741
:10524000F1FDFEF7BFFD18B081F00041BDE8F08D23
:10525000B7F1000C6CD1534525D104F1804212F511
:10526000801201BF00280020B74918B008BFBDE870
:10527000F08DB548884207DC002DA1BF6046294665
:1052800018B0BDE8F08D07E0281E05DA80F0004177
:1052900018B06046BDE8F08DAF497944D1E900010E
:1052A00018B0BDE8F08DDFF8A0C2634525D1002D10
:1052B0001FDA19B1514512D1D8B909E0002840F0E0
:1052C000EC82A24A214618B062F31E01BDE8F08DBF
:1052D0000020214618B060F31E01BDE8F08D08DA09
:1052E00018B02346BDE8F04D024600206146FBF7AA
:1052F00010BA18B02146BDE8F08D514518DAB5F165
:10530000804F0DD0A5F1005CBCF1FF5C10D1B4F171
:10531000000C0DDB18B06146BDE8F04D00F0F5BBA8
:10532000234618B00246BDE8F04D1946FBF73AB8DF
:10533000060024F0004C3BD1D9B1514533D1002CAB
:1053400006DD002DA1BF0020514618B0BDE8F08D4C
:10535000002C01DD002D1BDB002C13DA002D11DBEE
:10536000012A4FF0000014BF78497C4918B0BDE80D
:10537000F08D022A18BF002C0AD0012A08D1002C77
:1053800006DA0AE0002CB8BF002D11DA012A04D099
:10539000002018B00146BDE8F08D18B000204FF095
:1053A0000041BDE8F08DA1F14050B0F17F601AD00E
:1053B000012000EBE47050EA020421D0624C521E3E
:1053C0004FF0000B104304BF4FF0000B644C6548D6
:1053D00083427CDD644A654893421FDD884217DBC7
:1053E000002D25DB37E0002C00DA4AB1022A0CBF81
:1053F00001204FF0FF3018B0BDE8F04DFBF744B886
:105400000120FEF70FFD18B0BDE8F04DFEF7E4BC3B
:105410004D4A8A4202DC002D0ADC1CE0814202DA9D
:10542000002D18DA04E0484B994220DD002D12DDF2
:105430000220FEF7F7FCFEF7D5FC05460E460022DB
:10544000534658462146FAF7ADFF18B066F31E01E1
:105450002846BDE8F08D0220FEF7E4FCFEF7CAFC0A
:105460000A46214618B062F31E01BDE8F08D002205
:1054700030466146FAF790FF80460E466FF0010213
:10548000FBF7B6F94FF05532394BFAF788FF424631
:105490003346FAF787FF0022364BFAF780FF824641
:1054A00042463346049110461946FAF77BFF5246AE
:1054B000049BFAF777FF8A4600904FF0C0422E4BCC
:1054C00040463146FAF76EFF2C4A2B4B00E027E0AE
:1054D000CDE9060151460098FAF764FF8246019132
:1054E000274A284B40463146FAF75CFF5246019B5B
:1054F000FAF752FF82460B4602460591DDE90601A6
:10550000FAF7A9FEDDE90623002688463046FAF7B9
:1055100043FF5246059BFAF742FF024600F07EB970
:105520000020B1F5801F07DA352230466146FBF7CF
:105530005FF906466FF0340000EB215024E00000D4
:10554000FFFF1F00FFFF0F000000F03F0000F07F93
:105550000000404301FCFFFF920900000000F0FF43
:105560000000F0BF0000E0410000F043FFFFEF3F0C
:105570005555D53F0000E03F4715F73FFE822B65AC
:1055800044DF5DF80BAE543EA0F2FF300190C1F352
:10559000130040F07F6141F040510291FE49884282
:1055A000D8BF002004DDFD498142C8BF012001DDD4
:1055B0000D9008E000200D900198401C0190029889
:1055C000A0F5801002900299F54878440B910D994E
:1055D00000EBC100D0E900230F9330460A920B99EB
:1055E000FAF7DAFECDE90601DDE90A2130460F9B24
:1055F000FAF731FE02460B460020EA49FBF789F82C
:10560000059102460B460090DDE90601FAF7CAFE55
:105610001490E5488A464FF00008784402990068E3
:1056200012904FF0005040EA61010D980F9B01EB82
:10563000804000F5002109910A9A1298FAF7ACFE11
:1056400032460B9BFAF7ABFE42465346FAF7AAFEE8
:105650000646029140465146099B129AFAF7A2FE6D
:10566000DDE90623FAF79BFE3246029BFAF794FE29
:10567000059B009AFAF796FE0091149A04905346FF
:1056800010461946FAF78EFE06460246C7480B46F4
:10569000029106217844FEF73FFBCDE90510029BFD
:1056A000324610461946FAF77DFEDDE90532FAF773
:1056B00079FE05910646534640461946149AFAF774
:1056C000CAFD009B049AFAF76DFE3246059BFAF775
:1056D000C2FDCDE905104246534610461946FAF779
:1056E00061FE0022B24B02910A90FAF7B4FDDDE9A7
:1056F0000532FAF7B0FD0E464246AD4B4046FAF78A
:105700004BFE029B0A9AFAF747FEDDE90532FAF7EB
:1057100046FE424602910A90334610465146FAF739
:1057200041FECDE906015346149A02990A98FAF708
:1057300039FE8A4602903346424600990498FAF7A9
:1057400031FE5346029AFAF786FD82460B46024620
:105750000591DDE90601FAF77EFDDDE9062300206B
:1057600088460646FAF718FE5246059BFAF717FEDA
:10577000824609914FF060428E4B30464146FAF71F
:1057800011FE049006918C4A8A4B50460999FAF70B
:1057900009FE82460291894A894B30464146FAF712
:1057A00001FE5246029BFAF756FD864B7B440D9A4A
:1057B00003EBC203D3E90023FAF74DFD0E900791E6
:1057C0000198FAF761FE0591DDE9061382460E9A0B
:1057D0000498FAF740FD7C4A7A440D9B02EBC30320
:1057E000D3E9002300930292FAF735FD5246059B58
:1057F000FAF731FD0026884652463046059BFAF7F7
:10580000CBFD009B029AFAF7C7FD069B049AFAF7B4
:10581000C3FD079B0E9AFAF7C2FD024600200B4615
:10582000029038462946FAF7BDFD824601912B4683
:1058300038461946029AFAF7AFFD32464346FAF760
:10584000B1FD5246019BFAF706FD07468A463246ED
:10585000434629460298FAF7A5FD05460E463A4604
:105860005346FAF7F8FC594A8846914221DBA8EBE7
:10587000020353EA000210D12A463346FAF78CFDA0
:10588000CDE90401524A534B38465146FAF7E3FC3E
:10589000DDE90423FAF728FE21D20220FEF7C2FA3E
:1058A000FEF7A0FA0A46214618B062F31E01BDE8D1
:1058B000F08D494B28F000429A4210D3474A08EB3A
:1058C000020353EA00027FF4C6AD2A463346FAF7D4
:1058D00063FD3A465346FAF707FE7FF6BCAD002259
:1058E000019228F000403E493E4A01EB205182429D
:1058F00023DA481C4FF4801121FA00F040443A4A60
:10590000C0F30A517A44394BA1F2FF31CB4020EA6F
:105910000303C0F3130040F48010C1F11401C84028
:1059200012680190B8F1000FBCBF404201902846B8
:105930003146FAF731FD05460E462A4633463846CB
:105940005146FAF788FC4FF000084246284B404683
:105950000591FAF727FDCDE90601264A264B404678
:105960000599FAF71FFD009102902A4633464046FA
:105970000599FAF711FD3A465346FAF710FD1F4A0A
:105980001F4BFAF70FFD009B029AFAF764FC0746DB
:10599000884602460B4635E08E9803007AB60B0027
:1059A000DA0500000000F03F12060000400500008C
:1059B0000000084009C7EE3FFD033ADCF5015B1427
:1059C000E02F3EBE18040000DC0300000000904001
:1059D000FE822B654715973C00CC904000346F3F0A
:1059E00001FCFFFF0000E03F28030000FFFF0F0065
:1059F000432EE63F396CA80C615C20BEEF39FAFEFD
:105A0000422EE63FDDE90601FAF725FCDDE9062333
:105A100005460E46FAF7C0FC3A464346FAF7BFFC85
:105A20000F462A463346009010461946FAF7BAFC4C
:105A3000824602462E4888460B4605217844FEF7EA
:105A40006BF952464346FAF7ADFC2A463346FAF75D
:105A5000A6FC80468A463B4628463146009AFAF71D
:105A6000A1FC3B46009AFAF7F6FB06910090002253
:105A70004FF0804340465146FAF78EFC0F460C909B
:105A80004246534628463146FAF78CFC3B460C9A70
:105A9000FAF73FFE069B009AFAF77EFC2A46334649
:105AA000FAF77AFC0022134BFAF779FC05460198C5
:105AB0000E4601EB00510815002810DC284631463F
:105AC000019AFAF795FEFEF7F3F8042808BFFEF7EF
:105AD00091F928463146019AFAF78AFE05460B46A7
