:020000040800F2
:1000000080A60120C101000873760008013B0008AA
:1000100071760008410D00083187000800000000DB
:10002000000000000000000000000000057F000844
:10003000C50F0008000000001D7E0008077F0008B3
:10004000DB010008DB010008DB010008DB01000820
:10005000DB010008DB010008DB010008DB01000810
:10006000DB010008DB010008DB010008DB01000800
:10007000090F0008DB010008DB010008DB010008B4
:10008000DB010008DB010008DB010008DB010008E0
:10009000DB010008DB010008DB010008DB010008D0
:1000A000DB010008BD7F0008DB010008DB01000860
:1000B000C97F0008DB010008DB010008DB01000844
:1000C000DB010008DB010008DB010008DB010008A0
:1000D000DB010008DB010008DB0100084D86000899
:1000E000DB010008DB010008DB010008DB01000880
:1000F000DB010008DB010008DB010008DB01000870
:10010000DB010008DB010008DB010008DB0100085F
:10011000DB010008DB010008DB010008DB0100084F
:10012000150F0008DB010008DB010008DB010008F7
:10013000DB010008DB010008DB010008DB0100082F
:10014000DB010008DB010008DB010008DB0100081F
:10015000DB010008DB010008DB010008DB0100080F
:10016000DB010008DB010008DB010008DB010008FF
:10017000DB010008DB010008DB01000800000000D3
:10018000DB010008DB010008DB010008DB010008DF
:10019000DB010008DB010008DB010008DB010008CF
:1001A000DB010008DB010008DB010008DFF80CD0F0
:1001B00000F0FCFB004800471DA5000880A60120B8
:1001C0000648804706480047FEE7FEE7FEE7FEE7F1
:1001D000FEE7FEE7FEE7FEE7FEE7FEE7AD7F00088D
:1001E000AD0100082DE9F05F0546002092469B46D0
:1001F00088460646814640241BE02846414647463D
:10020000224600F0ECFA53465A46C01A914110D3E8
:1002100011461846224600F0D3FA2D1A67EB010862
:100220004F4622460120002100F0CAFA17EB0009D0
:100230004E41201EA4F10104DFDC484631462A4627
:100240004346BDE8F09FA0F14101192900D82030B4
:10025000704740EA01039B0703D009E008C9121F59
:1002600008C0042AFAD203E011F8013B00F8013B70
:10027000521EF9D27047D2B201E000F8012B491E9C
:10028000FBD270470022F6E710B513460A46044633
:100290001946FFF7F0FF204610BD30B505462A4647
:1002A0000B4612F8010B13F8014B08B1A042F8D02D
:1002B0001CB1002802D06D1CF1E7284630BDCAB23F
:1002C000401E10F8011F8A4202D00029F9D10020F7
:1002D0007047421C10F8011B0029FBD1801A70479F
:1002E00010B5044600E0401C0378002BFBD100E071
:1002F000401C521E04D311F8013B0370002BF7D1B0
:1003000000210170204610BD034611F8012B00F8B2
:10031000012B002AF9D11846704730B50546002058
:10032000034600E05B1C934205D2EC5CC85C201ADB
:1003300001D1002CF6D130BD70B5064608F05AFA4E
:10034000046805460A220021304600F06AFA2C6053
:1003500070BD2DE9FE4F804681EA0300C00F0C46B8
:10036000009021F0004123F00045B8EB0200A941C4
:1003700005D24046214690461C460B46024623F0D5
:100380000040104347D0270DC7F30A00C3F30A51BA
:100390000290401A019040286BDAC3F3130040F436
:1003A000801B0098924620B10023D2EB030A63EB36
:1003B0000B0B01985946C0F14002504600F000FA7C
:1003C00006460D4650465946019A00F018FA10EBC1
:1003D00008006141002487EA115284EAE7731A4356
:1003E00040D0009A62B3019A012A4FEA075215DC05
:1003F000001B61EB02014FF0004202EA0752CDE917
:100400000042001C41F5801132462B4600F050FAA4
:1004100003B0BDE8F08F40462146F9E7001B61EBD1
:100420000201001C41F5801300185B412018A2F561
:10043000001747EB030140EAD570B6196D4111E092
:100440006D084FEA360645EAC0754FEA0752001BB1
:1004500061EB0201001C41F5801149084FEA3000B0
:100460000019514132462B4603B0BDE8F04F00F071
:1004700010BA0098012240000023D0EB020263EB87
:10048000E073009821464FEAE074B8EB000061EB9E
:100490000401E9E783F000435BE781F0004158E79E
:1004A0002DE9FE4F81EA030404F0004421F00041ED
:1004B00000944FF0000B23F0004350EA01045ED09B
:1004C00052EA03045BD0C3F30A54C1F30A552C4427
:1004D000A4F2F3340194A0FB0254C1F3130141F4DC
:1004E0008011C3F3130343F4801301FB024400FBA8
:1004F000034E840A970A44EA815447EA8357A4FBCF
:10050000076802958D0A05FB07854FEA932C04FBCB
:100510000C542705029D4FEA065847EA1637B5EBFB
:1005200008056EEB070C870E920E47EA811742EA28
:100530008312A7FB0201B6EB0B0164EB00042B0D49
:1005400043EA0C335E1844EB1C50DA465146E7FB95
:100550000201C5F313044FEA0B3343EA14534FEA85
:100560000432019C43EA0603A4F10C040294009CAB
:10057000CDE900B400F09CF903B0BDE8F08F002095
:100580000146F9E72DE9F04D81EA030404F0004B40
:1005900021F0004514464FF0000A23F0004150EAD4
:1005A000050220D054EA01021DD0C5F30A570246C5
:1005B000C5F31303C1F31300C1F30A5640F48015C9
:1005C00043F48013A7EB0608101BD64608F2FD384B
:1005D00073EB050002D308F1010801E092185B41BA
:1005E000B8F1000F03DA00200146BDE8F08D0020CD
:1005F0004FF48011064684460EE0171B73EB050787
:1006000005D3121B63EB050306434CEA010C4908B2
:100610004FEA300092185B4150EA0107EDD152EAEF
:10062000030012D082EA040083EA0501084305D0E2
:10063000101BAB4106D20122002306E000224FF03E
:10064000004302E06FF0010253101AEB06004CEB7E
:10065000085110EB0A0041EB0B01BDE8F04D00F032
:1006600018B90EB5C10F80EAE0700844CA0700212E
:1006700040F233438DE80E000A460B4600F018F9AD
:1006800003B000BD0EB540F2334102910021CDE927
:1006900000110A460B4600F00BF903B000BD70B51F
:1006A000C1F30A5201F000450024C1F3130140F2E6
:1006B000FF3341F480119A4201DA002070BD40F20C
:1006C00033439A42A2F2334203DC524200F087F8ED
:1006D00000E090402C43F1D0404270BDC1F30A527B
:1006E00010B5C1F3130140F2FF3341F480119A4277
:1006F00001DA002010BD40F233439A42A2F23342A5
:1007000003DC524200F06BF810BD904010BD00F0C9
:10071000004230F000400AD0C10D01F56071C0F315
:10072000160042EA0151C2084007114370470020F9
:100730000146704730B5041E71F1000404DB4FF030
:100740000044404264EB0101141E73F1000405DB18
:100750001C464FF00043524263EB04038B4208BF38
:10076000824230BD30B5041E71F1000404DB4FF04D
:100770000044404264EB0101141E73F1000405DBE8
:100780001C464FF00043524263EB0403994208BFFA
:10079000904230BD30B50B46014600202022012496
:1007A00009E021FA02F59D4205D303FA02F5491B3F
:1007B00004FA02F52844151EA2F10102F1DC30BD55
:1007C000202A04DB203A00FA02F100207047914011
:1007D000C2F1200320FA03F3194390407047202A06
:1007E00004DB203A21FA02F00021704721FA02F3DB
:1007F000D040C2F120029140084319467047202A98
:1008000006DBCB17203A41FA02F043EAE07306E038
:1008100041FA02F3D040C2F1200291400843194648
:1008200070472DE9F04791460F4680460446002662
:1008300014F8015B2DB100F0CBF80068405DC007F3
:10084000F6D12B2D02D02D2D18D0641E4A463946E4
:10085000204600F0C1F827B13968A14201D1C7F89C
:10086000008071054FF002040BD54042002803DDE3
:1008700007F0C0FF0460A007BDE8F08746F480667B
:10088000E4E70028F8DA07F0B5FF04606FF00040F5
:10089000F2E710B5141E73F1000408DA401C41F1B0
:1008A000000192185B411A4301D120F0010010BDF4
:1008B0002DE9F04D92469B4611B1B1FA81F202E06A
:1008C000B0FA80F220329046FFF77AFF04460F46D6
:1008D00040EA0A0041EA0B0153465A46084313D046
:1008E000114653EA010019D0C8F140025046FFF703
:1008F00076FF05460E46504659464246FFF760FFD2
:10090000084305D0012004E020463946BDE8F08DBB
:100910000020054346EAE0762C4337430A986305F6
:10092000E40AA0EB08000022FD0A44EA47540A301A
:1009300002D500200146E9E7010510196941DDE90A
:10094000084500196941BDE8F04DA2E770B521F0F6
:10095000004303430CD0C1F30A550024D5EB040532
:1009600064EB0403D617AD1AB34102DB0020014645
:1009700070BD201841EB025170BDC1F30A52C1F3A2
:10098000130140F2FF3341F480119A4202DA002051
:100990000146704740F233439A42A2F2334202DCEE
:1009A0005242FFF71CBFFFF70BBF0000064C074D7C
:1009B00006E0E06840F0010394E80700984710342F
:1009C000AC42F6D3FFF7F6FB30BA000850BA000885
:1009D000004870472CBA00082DE9F05F8246007885
:1009E000002715468B460AF10104B946302801D08C
:1009F0009DB113E014F8010B0127782803D0582883
:100A000001D045B10AE00DB1102D07D10027102506
:100A100014F8010B02E0082500E00A250026B04684
:100A20000EE005FB080005FB06F1012701EB10466F
:100A30001FFA80F8B6F5803F00D3B94614F8010BD1
:100A4000294600F069F80028EBDABBF1000F05D069
:100A50000FB1641E00E05446CBF80040B9F1000F1E
:100A600006D007F0C7FE02210160C81EBDE8F09F56
:100A700048EA0640FAE72DE9F04D00231A461B1A12
:100A80008A4103DB00200146BDE8F08DC1F30A5224
:100A9000C1F3130141F480154FF0000BD10702D1CF
:100AA00000186D41521E0027044640F2FF113846DF
:100AB00001EB620A3E468046024600204FF4801158
:100AC000FFF78DFEC2197141BB1846EB0100B4EB74
:100AD000030C75EB000C04D3E41A65EB0005174614
:100AE0000E46241908F101006D4180463428E3DDEB
:100AF000F91946EB0600091BA84103D24FF0FF325B
:100B0000134601E0002213461BEB070046EB0A5197
:100B1000BDE8F04DFFF7BDBE3A2800D2303820F0D6
:100B20002002412A01D3A2F13700884201D34FF0BD
:100B3000FF30704710B50146806B026C12F0500F09
:100B400005D0026CD20626D500F06EFE10BD016CF9
:100B500041F40071016401688A6812F0405F17D1A6
:100B6000027EAAB9CA6A12F4700F02D08A685205CE
:100B70000ED44A6822F020024A60016C21F4807190
:100B80000164016CC90403D4016C41F001010164EA
:100B900000F048FE10BD806BC26CBDE810400846F6
:100BA000104710B5806B40210164416C41F0040195
:100BB000416400F039FE10BD10B5806B00F033FECB
:100BC00010BD0000464910B54A6822F440324A6020
:100BD0004A6843681A434A6001684A6822F480728E
:100BE0004A6001684A68036942EA03224A60016870
:100BF0004A6822F040724A6001684A6883681A4372
:100C00004A6001688A6822F400628A6001688A6822
:100C1000C3681A438A60816A6FF07062D1420168CA
:100C20008A6822F070628A6001688A680CD0836AE0
:100C30001A438A6001688A6822F040528A6001681B
:100C40008A68C36A1A4301E022F040528A60016850
:100C50008A6822F002028A6001688A68037E42EA9A
:100C600043028A6090F82010002901684A680FD07A
:100C700042F400624A6001684A6822F460424A60B5
:100C800001684A68174C436A04EB43331A4301E096
:100C900022F400624A600168CA6A22F47002CA62E1
:100CA0000168CA6A838B104C04EB03531A43CA626F
:100CB00001688A6822F400728A6001688A6890F884
:100CC000303042EA43228A6001688A6822F48062F6
:100CD0008A6001688A68406942EA8020886010BDA5
:100CE0000023014000E0FFFF0000F0FF08B54FF0D7
:100CF000FF30002300901A46A021074801F010FCA5
:100D000020B106A007F02AFD012008BD08A007F0C9
:100D100025FD002008BD0000DC01002041543234D4
:100D200043303220B2BBB4E6D4DA0D0A0000000032
:100D30004154323443303220B4E6D4DA0D0A000094
:100D4000FEE7000070B516480024016821F08051CC
:100D50000160016821F000510160124D04E0641C43
:100D6000E4B2012009F04AFBD5F8380210B1642C36
:100D7000F5D30DE0642C0BD2002404E0641CE4B233
:100D8000012009F03BFBD5F8380218B1642C04D3DC
:100D9000012070BD642CF1D3FAE7002070BD000083
:100DA000001802400000434210B500F08FF8BDE883
:100DB0001040FFF7C7BF000070B50024104D04E0DD
:100DC000641CE4B2012009F019FBD5F8380208B11F
:100DD000642CF5D3002404E0641CE4B2012009F083
:100DE0000DFBD5F8380208B9642CF5D3282009F09A
:100DF00005FBD5F83802002800D0012070BD0000A6
:100E00000000434270B5002004464006050EFFF77F
:100E1000D3FF641C2843E4B2082CF6D370BD000055
:100E2000F0B50D462DED048B83B0064600F04EF86C
:100E3000FFF788FF20B1012003B0BDEC048BF0BDAB
:100E400000246F46FFF7DEFF3855641CE4B2052C22
:100E5000F8D39DF800109DF801009DF802209DF840
:100E6000033001441A4411449DF80420914227D1D3
:100E7000FFF708FC9FED139B53EC192BFFF782FB48
:100E800041EC180B9DF80000FFF7FCFB53EC182B0E
:100E9000FFF75FFAC6E900019DF80300FFF7F2FBD8
:100EA00053EC192BFFF76EFB41EC180B9DF8020079
:100EB000FFF7E8FB53EC182BFFF74BFAC5E90001ED
:100EC0000020B9E700000000000024400C4810B5E5
:100ED000016821F040510160016841F080510160DA
:100EE000084C0020C4F8B802142004F52E7400F059
:100EF0008BFF01202060BDE810401E2009F07EBA63
:100F00000018024000004342014800F00BBE000000
:100F1000E8030020014800F005BE0000F8000020B2
:100F200001681823CAB2103AB2FBF3F2054B6FF313
:100F30000901032A9B5CC36500D9091D8165084628
:100F400070470000D1B8000810B5014600208B6939
:100F50008A6A4FF0C07453B1B3F5005F15D072B117
:100F6000012A0CD0022A0AD0032A09D104E01AB1BE
:100F7000012A06D0022A03D1C96AC90100D501207D
:100F800010BDC96AA142FAD010BD002AF7D0012ACB
:100F9000F2D0022AF3D0032AF3D010BD30B5046892
:100FA000256825F480252560046863608368402BEC
:100FB000036803D099600068C26030BD9A60006821
:100FC000C16030BD7047000010B54FF48061034828
:100FD000FFF758F902490020088010BD480400209E
:100FE0002200002010B5044609A10B48FFF755F96F
:100FF00030B13A21FFF763F9002800D0401C10BD42
:10100000052000F001FF2046641EA4B2ECD210BD02
:101010004950442C000000004804002010B5FFF7A0
:10102000D3FF4FF4FA7402E0204600F0EDFE23A156
:1010300023A000F09FF80028F6D102E0204600F03F
:10104000E3FE1EA120A000F095F80028F6D102E0F2
:10105000204600F0D9FE19A11BA000F08BF8002853
:10106000F6D102E0204600F0CFFE14A11AA000F055
:1010700081F80028F6D102E0204600F0C5FE1AA152
:101080001BA000F077F80028F6D102E0204600F01F
:10109000BBFE0AA120A000F06DF80028F6D102E006
:1010A000204600F0B1FE20A121A000F063F8002846
:1010B000F6D1BDE8104029A007F050BB4F4B00000F
:1010C00041540D0A0000000041542B43574D4F443A
:1010D000453D310D0A00000041542B43574448431D
:1010E000503D312C310D0A00474F5420495000002B
:1010F00041542B43574A41503D226D795F636F6DD8
:101100007075746572222C2232393630343933349A
:101110003235220D0A00000041542B4349504D55F1
:10112000583D300D0A000000434F4E4E45435400D9
:1011300041542B43495053544152543D225443503F
:10114000222C223139322E3136382E3133372E319E
:10115000222C313838330D0A00000000372E20458C
:1011600053503832363620496E6974204F4B0D0A81
:10117000000000002DE9F041254D264C88462A78D4
:1011800006462AB1022A06D00020032A0AD003E02C
:10119000014621A00CE00120002108430AD020785C
:1011A00010B107E00121F8E70120207031461DA0B1
:1011B00007F0D4FA3046FFF78CF882B231461E4869
:1011C00007F0B8FAC726022741461C48FFF765F822
:1011D00040B1FFF7F9FE207808B100202070002010
:1011E000BDE8F081287801280AD115A11348FFF73E
:1011F00054F828B1FFF7E8FE16A007F0AFFA2F70F9
:101200000A2000F001FE761EF6B2DDD20120E7E7EB
:101210002100002020000020C5E4D6C325730D0A5C
:1012200000000000B5C8B4FDD6D8D0C2C5E4D6C30E
:1012300025730D0A0000000000480040480400200B
:101240006C696E6B206973206E6F742076616C69B7
:1012500064000000CDF8C2E7B6CFBFAAA3ACD7BCEC
:10126000B1B8D6D8C1AC0D0A0000000030B589B0C5
:101270000C460546FFF7A8FE224612A1684607F075
:101280007DFA694613A007F069FA15A16846FFF7D1
:1012900071FF60B113A007F061FAFFF795FE1749DF
:1012A0000220087016A007F059FA09B030BD29468F
:1012B0001AA007F053FA224629461B4807F03AFACB
:1012C000F3E7000041542B43495053454E443D251C
:1012D000640D0A00636D644275663D25730D0A0056
:1012E0003E00000077696669B6CFBFAAC1ACBDD326
:1012F0002CD7BCB1B8D6D8C1AC0D0A002100002053
:10130000BDF8C8EB6E65745F636F6E6E65637420C5
:101310003D32C4A3CABD0D0A0000000064617461BF
:10132000203D2025730D0A000048004072B6FEE7FC
:1013300030B5B3F5804F05D06FF0704140F8221002
:10134000002030BD8C690B688D6823434C68898907
:10135000240144EA0524234343EA014150F82230A2
:10136000014C23401943E9E70000F0CF30B50A688B
:1013700050F8223023F0010340F822308C68082C0A
:1013800028D000234A68184D2243CC681C430B69BF
:1013900022431A434B691A43CB691A430B6A1A4317
:1013A0004B6A1A438B6A1A43CB6A1A430B6B1A4374
:1013B0008B6913434A6B1A43CB6B13430A6850F88B
:1013C0002240AC431C4340F822404A6BB2F5801FD8
:1013D00002D007E04023D5E7096819B1016841F45C
:1013E00080110160002030BD7FFF1F0070B5D1E982
:1013F000003443EA04138C688D89240244EA0544CE
:1014000023430D8A114C00EB820204EB05552B435C
:101410000D7D660106EB05652B438D692B435568F1
:1014200005F040452B4353600268D2020BD5426859
:10143000098A22F4700204EB01511143426822F43C
:1014400070020A434260002070BD00000000F0FFFF
:10145000F0B5D1E907354C6A0A68C2B102682B437E
:1014600022F4F842144323430360D1E901231A43D1
:10147000D1E9033423431A434B6989691A430A4368
:1014800041686FF30E010A4342600020F0BDD1E9CC
:1014900001263243D1E903673E4332434E698969ED
:1014A00032430A431A432A43016822436FF30E0171
:1014B0000A430260E9E7426943F6FE739A4342EA4F
:1014C000410141610020704770B514460546D1E9DD
:1014D000000210438A686FF01F03C96803EB4212D1
:1014E00042EA4121084329696FF315010843286145
:1014F00000F01CFE064609E0601C07D024B100F095
:1015000015FE801BA04201D9032070BDA86980068A
:10151000F2D4002070BD0000F0B56FF00F058C8A8A
:101520002E014FEA054ECB682F034FF07F4C0EEB98
:1015300004540AB31A03A2F58052836822431D4C57
:1015400023401A438260D1E9002305EB0313521EA6
:101550001A438B6806EB03231A430B8A097E07EBB9
:1015600003431A430CEB01610A43C16801F0704167
:101570000A43C2600020F0BDD1E9002E05EB0E1534
:10158000521E2A438D6806EB05252A430A4D05EBBA
:1015900003331A430B8A097E07EB03431A432243A2
:1015A0000CEB01610A43816801F070410A438260DB
:1015B000E0E70000FF0F0FFF00F0FFFF70B50646E9
:1015C0004FF4806009F054F808F058FD05462748AC
:1015D00090ED000B08F03AFD024625A1284608F0E0
:1015E0001DFD264890ED000B08F030FD024624A1B9
:1015F000284608F013FD25480068FFF743F841EC42
:10160000100B08F023FD024621A1284608F006FD34
:1016100022480068FFF736F841EC100B08F016FD81
:1016200002461FA1284608F0F9FC20480068FFF791
:1016300029F841EC100B08F009FD02461CA12846D0
:1016400008F0ECFC284608F095FD0446014619A078
:1016500007F084F821463046FEF756FE284608F08B
:1016600015FD204608F032FF012070BD2800002043
:1016700074656D706572617475726500300000206C
:1016800068756D6964697479000000003800002095
:101690004C69676874696E67000000003C000020B8
:1016A000547572626964697479000000400000201A
:1016B00047617300737472203D2025730D0A00008A
:1016C00078B50024009490F83C20012A19D001221A
:1016D00080F83C200A6807230568092A13D9EE68B8
:1016E0000A3A02EB420293409E43EE600B788A680E
:1016F0000A3B03EB43039A400368DD682A43DA6040
:1017000010E0022078BD2E6902EB420293409E4316
:101710002E610B788A6803EB43039A4003681D69C6
:101720002A431A614A681F23072A13D205686E6B81
:10173000521E02EB820293409E436E630A8893B26C
:101740000A79521E02EB820293400268556B2B43CA
:10175000536327E005680D2A12D22E6BD21F02EBCD
:10176000820293409E432E630B790A88DB1F92B25C
:1017700003EB83039A4003681D6B2A431A6311E04D
:10178000EE6A0D3A02EB820293409E43EE620B79C1
:101790000A880D3B92B203EB83039A400368DD6A2B
:1017A0002A43DA621B4B0568194A9D420AD10D682B
:1017B000122D07D1556825F400055560556845F48C
:1017C0008005556005689D421DD1134D0B68AB42E5
:1017D00001D0112B17D1536823F480035360536851
:1017E00043F4000353600968A9420CD10B490C4A29
:1017F0000968B1FBF2F101EB8101490000E0491EEB
:1018000000910029FBD180F83C40002078BD000009
:101810000023014000200140120000107C00002045
:1018200040420F0070477047704770B504004FF09A
:10183000000503D0206C002610B107E0012070BD28
:10184000204600F01DF8666484F83C60206CC006F9
:1018500010D4206C20F4885040F002002064204610
:10186000FFF7B0F96664206C20F0020040F0010040
:10187000206400E0012584F83C60284670BD00002B
:1018800070B586B0064614216846FEF7FBFC1D497C
:101890003068884234D11C480025016841F48071C9
:1018A0000160006800F480700590174814380168E2
:1018B00041F0010101600068694600F001000590F7
:1018C000F02000900320CDE90105104800F00EFB48
:1018D000104C0F48C4E900050015A560C4E9035089
:1018E000800060618000A0618011C4E90705204686
:1018F000656200F0E7F908B1FFF718FDB463A6636D
:1019000006B070BD00200140443802400000024093
:1019100010640240F8000020F8B5044600200E468E
:10192000009094F83C10012907D0012184F83C1064
:1019300021688B68DB0702D011E00220F8BD8B68BC
:1019400043F001038B604049404B0968B1FBF3F160
:1019500001EB410100E0491E00910029FBD1216803
:101960008B68DB0503D58B6823F480738B6021685B
:101970008B68DB075DD0236C40F20165AB4343F419
:10198000807323644968490505D5216C21F4005111
:1019900041F480512164216CC90404D5616C21F0AB
:1019A0000601616400E0606484F83C00A16B294892
:1019B000274DC863A16B28480864A16B2748C864F9
:1019C00021686FF0220008602068416841F0806162
:1019D00041602068816841F480718160216813460C
:1019E00032464C31A06B00F0D7F968681C49C0063C
:1019F000206806D0884224D1816811F0405F13D05E
:101A00001FE08842F8D0174A904203D1D1F804234E
:101A1000D206F1D0144A904213D1D1F8041301F048
:101A20001F011029E8D30CE0816841F080418160FA
:101A300007E0206C40F010002064606C40F0010072
:101A400060640020F8BD00007C00002040420F00D0
:101A500000230140350B0008B90B0008A30B000858
:101A60000020014000210140002201402DE9F04109
:101A70000446876D00F05AFB064694F835000025B1
:101A8000022806D08020606584F834500120BDE82B
:101A9000F0812068016821F0160101602068416929
:101AA00021F080014161206C08B9A06C20B1206850
:101AB000016821F0080101602068016821F001013E
:101AC00001600CE000F032FB801B052807D92020C4
:101AD0006065032084F8350084F83450D7E7206827
:101AE0000068C007EED194F85C103F208840B860D1
:101AF000012084F8350084F834500020C7E790F8BE
:101B00003510022903D0802141650120704705214D
:101B100080F835100068016821F0010101600020A3
:101B2000704700002DE9F84304464FF00009CDF856
:101B3000009063484FF41651A56D0068B0FBF1F7B3
:101B40002E6894F85C10082000FA01F131420FD0A1
:101B500021680A6852070BD50A6822F004020A605D
:101B600094F85C108840A860606D40F001006065EA
:101B700094F85C104FF0010808FA01F0304208D0E8
:101B800021684969090604D5A860606D40F002002B
:101B9000606594F85C1004208840304208D02168C9
:101BA0000968890704D5A860606D40F0040060658D
:101BB00094F85C1010208840304218D021680968E1
:101BC000090714D5A86020680168490304D5006896
:101BD000000308D5A16C07E00168C90503D40168BA
:101BE00021F008010160216C09B12046884794F872
:101BF0005C1020208840304231D021680968C90635
:101C00002DD5A86094F8350005282068016806D015
:101C1000490347D5006800031DD4616C1CE021F026
:101C2000160101602068416921F080014161206C4A
:101C300008B9A06C20B12068016821F0080101609A
:101C400094F85C103F208840A86084F8358084F8C0
:101C50003490216D1FE0E16B09B120468847606D2B
:101C600000282BD0606DC00714D0052084F8350003
:101C70002068016821F0010101600098401C00907B
:101C8000B84203D820680068C007F6D184F83580D0
:101C900084F83490E16C002910D001B02046BDE8F2
:101CA000F04308470168C905D5D4016821F0100147
:101CB000016084F8358084F83490CCE7BDE8F8837F
:101CC0007C0000202DE9F041044600F02FFA064682
:101CD0005CB1022084F83500002584F83450206877
:101CE000016821F0010101600DE00120BDE8F081F3
:101CF00000F01CFA801B052805D920206065032010
:101D000084F83500F2E720680068C007F0D1226847
:101D1000116820480140D4E901031843D4E903368F
:101D20003343184363691843A3691843E3691843AD
:101D3000236A18430843616A042903D1D4E90B13C9
:101D400019430843106020684069666A20F0070163
:101D500030460E43012704280CD1A06A0643E06AEE
:101D600040B12046FFF7F0F820B14020606584F8CC
:101D70003570BAE7206846612046FFF7D1F894F83D
:101D80005C203F2191408160656584F835700020BA
:101D9000ACE700003F8010F02DE9F0410446866D6D
:101DA00090F83400002501280DD0012084F834007B
:101DB00094F835700020012F07D084F834000225F4
:101DC0002846BDE8F0810220FBE7022784F8357041
:101DD00060652046FFF7E2F894F85C103F208840E9
:101DE000B0602068016841F016010160206C20B1EC
:101DF0002068016841F0080101602068016841F035
:101E000001010160DCE7000070B5044600F08EF9C6
:101E10000546601C02D004480078044400F086F9AE
:101E2000401BA042FAD370BD70000020F0B587B00F
:101E300014216846FEF726FA25480168002944D196
:101E40000121016023480024016841F00101016083
:101E50000068022500F0010005904FF63F00CDE933
:101E6000000502AA03260C2782E8D00069461A481A
:101E700000F03CF80D20CDE9000502AA694682E891
:101E8000D000164800F032F848F23710CDE90005CE
:101E900002AA694682E8D000114800F027F84FF600
:101EA0008070CDE9000502AA694682E8D0000D489D
:101EB00000F01CF84EF2B370CDE9000502AA6946A5
:101EC00082E8D000084800F011F807B0F0BD00002B
:101ED0000000002038380240001402400008024090
:101EE0000018024000100240000C02402DE9F84F9B
:101EF000DFF8F8A10022012403254FF00F090AF1B1
:101F0000040BAAF1040E00BF0B6804FA02F633407A
:101F1000B34270D10F7907F00307012F01D0022FD0
:101F200016D187684FEA420805FA08FC27EA0C0731
:101F3000D1F80CC00CFA08FC4CEA070CC0F808C039
:101F40004768B7430E79C6F3001696403E43466095
:101F50000E79F643B6070AD0C7684FEA420C05FA75
:101F60000CF6B7438E6806FA0CF63E43C6600E794F
:101F700006F00306022E10D1D60800EB8608D8F82A
:101F8000206057074FEAD76C09FA0CF7BE430F6978
:101F900007FA0CF73743C8F8207006684FEA420C7E
:101FA00005FA0CF7BE430F7907F0030707FA0CF7A1
:101FB000374307604E6816F4403F1CD04C4E3768DC
:101FC00047F480473760366822F0030706F48046FE
:101FD0000096484E07EB060CDCF8086897073F0FA1
:101FE00009FA07F826EA0806DFF80C81404503D114
:101FF0004FF0000841E072E0DFF80081404502D177
:102000004FF0010839E0DFF8F880404502D14FF089
:10201000020832E0DFF8EC80404502D14FF00308BF
:102020002BE0DFF8E480404502D14FF0040824E0C3
:10203000DFF8D880404502D14FF005081DE0DFF8F9
:10204000D080404502D14FF0060816E0DFF8C4808A
:10205000404502D14FF007080FE0DFF8BC80404553
:1020600002D14FF0080808E0DFF8B080404502D107
:102070004FF0090801E04FF00A0808FA07F848EAAB
:102080000608CCF80888DAF800605746D1F804C092
:102090009E435FEACC2C00D51E433E60DBF8006017
:1020A0005F46D1F804C09E435FEA8C2C00D51E43E6
:1020B0003E60DEF800607746D1F804C09E435FEAD8
:1020C0008C3C00D51E433E60084F083F3E68D1F867
:1020D00004C09E435FEACC3C00D51E433E60521CC8
:1020E000102AFFF411AFBDE8F88F0000083C014052
:1020F0004438024000300140000002400004024029
:1021000000080240000C024000100240001402408F
:1021100000180240001C024000200240002402403F
:102120000AB1816170470904FBE70000014880683B
:10213000704700007000002090F83D20202A01D058
:1021400002207047242280F83D200268136823F0A3
:10215000010313600268536A23F01003536202689C
:10216000536A0B43536201680A6842F001020A6035
:10217000202180F83D100020704790F83D20202A53
:1021800001D002207047242280F83D2002681368A5
:1021900023F00103136003685A6A22F00F020A4316
:1021A00091B2596201680A6842F001020A60202176
:1021B00080F83D100020704770B5040025D094F8D9
:1021C0003D00002520B984F83C50204600F0D6FAA6
:1021D000242084F83D002068016821F0010101609D
:1021E0002068016841F4004101602068016821F421
:1021F0000041016000F064FC4D4A6168914201D8E1
:102200004C4900E04C49884201D2012070BD4B4945
:102210002368B0FBF1F15E6826F03F060E435E6076
:102220006368934206D94FF4967359434FF47A7317
:10223000B1FBF3F12368491C1E6A26F03F063143C7
:1022400019626168914210D84900401EB0FBF1F25A
:10225000521CC2F30B02042A01D2042022E0B0FB7C
:10226000F1F0401CC0F30B001CE0A268F2B301EBDC
:10227000C10303EB0116431EB3FBF6F35B1C43F4EF
:1022800080431B0549D092B301EBC10202EB01115F
:10229000401EB0FBF1F0401CC0F30B0040F4804046
:1022A00040F400402168CA694CF6FF739A4310431A
:1022B000C861D4E9071001432068026822F0C00217
:1022C00011430160D4E9030101432068826848F2A8
:1022D000FF339A4311438160D4E905010843216823
:1022E000CA6822F0FF021043C86001E00EE016E069
:1022F0002068016841F0010101602564202084F814
:102300003D00256384F83E50002070BD01EB41067E
:10231000431EB3FBF6F35B1CB3E70120C2E701EBFE
:102320004101401EB0FBF1F0401CC0F30B00B7E7C9
:10233000A086010080841E0000093D0040420F007D
:102340002DE9F84F1F4690468A460446DDF828904E
:10235000FFF7ECFE054694F83D00202875D11923BF
:1023600001226C492046009501F020FD0028F5D19E
:1023700094F83C00012868D0012084F83C002068D3
:102380000168C90703D1016841F0010101602068BB
:10239000016821F400610160222084F83D001020D2
:1023A00084F83E0000262664C4F824806785608D8A
:1023B00020855948E0622B464A465146204601F0A6
:1023C000B7FB002878D1208D544F68B1012814D074
:1023D00002282068016816D041F4806101602068FD
:1023E00041698069009087E02068416981690091B6
:1023F000016841F4007101607EE02068016821F409
:1024000080610160F0E721F480610160206801686B
:1024100041F40061E2E7032848D801280AD00228E5
:1024200014D04B46002239462046009501F0BEFCF0
:10243000D8BB27E02A464946204601F036FDA0BB1E
:1024400020680069616A08704DE061E04B46002237
:1024500039462046009501F0A9FC30BB2068016890
:1024600041F40071016020680069616A0870606A67
:10247000401C6062218D491E2185618D491E618548
:1024800021682EE02068016821F4806101602068E5
:102490000069616A0870606A401C6062208D401E9D
:1024A0002085608D401E6085D0E705E02A464946BC
:1024B000204601F0FAFC10B10120BDE8F88F206839
:1024C0000069616A0870606A401C6062218D491E63
:1024D0002185618D491E618521684A69D243520771
:1024E0000AD409690170606A401C6062208D401E38
:1024F0002085608D401E6085208D00288BD1202096
:1025000084F83D0084F83E6084F83C600020D4E705
:102510000220D2E7020010000000FFFF04000100CB
:102520002DE9F84F1F4690468A460446DDF828906C
:10253000FFF7FCFD054694F83D0020287FD11923C4
:10254000012240492046009501F030FC002876D158
:1025500094F83C00012872D0012084F83C002068E7
:102560000168C90703D1016841F0010101602068D9
:10257000016821F400610160212084F83D001020F1
:1025800084F83E0000262664C4F824806785608DA8
:1025900020852D48E0622B464A465146204601F0F0
:1025A0003DFB90B9206841698069009036E02A4679
:1025B0004946204601F0ACFC50B1206C042804D1FF
:1025C0002068016841F4007101600120BDE8F88FC6
:1025D000606A216800780861606A401C6062618DF1
:1025E000491E6185218D491E89B221852268536962
:1025F000DB435B070BD451B100781061606A401C6B
:102600006062608D401E6085208D401E20852A46B8
:102610004946204601F0A4FB0028CED1208D002899
:10262000C5D154F83D0B016841F4007101602020D0
:1026300004F81E09E67766770020C7E7FFE7022067
:10264000C4E70000020010000000FFFF2DE9FF4F6B
:1026500083B09A46DDE9119793460446DDF8408041
:10266000FFF764FD054694F83D0020287FD119232B
:10267000012240492046009501F098FB002876D1C0
:1026800094F83C00012872D0012084F83C002068B6
:102690000168C90703D1016841F0010101602068A8
:1026A000016821F400610160212084F83D00402090
:1026B00084F83E0000262664C4F82480A4F82A90FA
:1026C000608D20852C48E062CDE9007553465A465E
:1026D0002046049901F0F0FA70B930E02A463946F4
:1026E000204601F015FC58B1206C042804D1206864
:1026F000016841F400710160012007B0BDE8F08F6E
:10270000606A216800780861606A401C6062218DFF
:10271000491E89B22185628D521E628522685369E5
:10272000DB435B070BD469B100781061606A401C21
:102730006062208D401E2085608D401E6085208D4A
:102740000028CBD12A463946204601F009FB002853
:10275000CAD154F83D0B016841F40071016020209A
:1027600004F81E09E67766770020C6E7FFE7022037
:10277000C3E70000020010000000FFFF10B586B0A4
:10278000044614216846FDF77DFD13492068884200
:1027900020D112480021026842F0800202600068E5
:1027A00000F080000590302000901220CDE901015A
:1027B000032003900420049069460948FFF796FB24
:1027C00006481030016841F480010160006800F49F
:1027D0008000059006B010BD00580040303802401F
:1027E000001C0240024881680278114481607047F1
:1027F000700000200B4810B5016841F400710160C1
:10280000016841F480610160016841F480710160F8
:10281000032000F071F8032000F006F800F024F81F
:10282000002010BD003C024070B50D4D04464FF431
:102830007A712878B1FBF0F00A490968B1FBF0F031
:1028400000F06EFC48B9102C07D200222146501E21
:1028500000F032F800206C6070BD012070BD0000F7
:10286000700000207C0000200B4882B0016841F419
:1028700080410160006800F4804000900648001F1D
:10288000016841F080510160006800F080500090C4
:10289000052002B000F030B844380240002809DBBF
:1028A00000F01F02012191404009800000F1E0206A
:1028B000C0F8001170470000F0B40E4B1B680C46C6
:1028C000C3F30223C3F10705042D00D90425191D04
:1028D000072901D2002300E0DB1E012606FA05F1DC
:1028E000491E214099409E40761E16403143F0BC5F
:1028F00005F070BF0CED00E0064900F00702086823
:102900004FF6FF03184040EA0220034A10430860D4
:10291000704700000CED00E00000FA052DE9F843D7
:102920001748016841F0805101600068154F00F0C0
:102930008050012600903E64FFF7F8FB05464FF4F7
:102940007A78114C05E000BFFFF7F0FB401B4045D3
:102950000DD86068C003F7D57E64FFF7E7FB054636
:10296000464607E0FFF7E2FB401BB04202D90320D6
:10297000BDE8F88360688003F4D50020F8E7000024
:102980004038024000000E42007000402DE9F04740
:102990000E46050065D0DFF81481D8F80000F7B2C4
:1029A00000F00F00B04207D288F80070D8F800009D
:1029B00000F00F00B04254D128683D4C810712D579
:1029C000400703D5206840F4E050206028780007D5
:1029D00003D5206840F4604020602068A96820F09A
:1029E000F000084320602878C0072DD0304968687F
:1029F0000839012812D0022813D0032811D0096801
:102A0000890700292DDA216821F0030101432160A3
:102A1000FFF78CFB814641F2883A0EE00968890392
:102A2000EFE709688901ECE7FFF780FBA0EB0901FC
:102A3000514502D90320BDE8F0872068696800F09D
:102A40000C00B0EB810FEFD1D8F80010404601F038
:102A50000F01B14207D90770006800F00F00B042C3
:102A600001D00120E7E72878400705D52068E9680C
:102A700020F4E050084320602878000706D520683D
:102A8000296920F4604040EAC100206000F038F875
:102A90002168084AC1F30311515CC8400649086027
:102AA00006480068FFF7C0FE0020C4E7003C024073
:102AB00008380240D9B800087C00002074000020CB
:102AC0000448054900680968044AC1F38221515C41
:102AD000C84070477C00002008380240E9B8000870
:102AE0000448054900680968044AC1F34231515C51
:102AF000C84070477C00002008380240E9B8000850
:102B0000154810B5006810F00C02144813D0144991
:102B1000042A0FD0082A0ED10F4C241F22682368E4
:102B200002F03F025B0207D52068C0F38810A0FBCB
:102B3000010106E0084610BD2168C1F38811A1FB20
:102B400000010023FDF74EFB2168C1F30141491C40
:102B50004900B0FBF1F010BD083802400024F40039
:102B600040787D012DE9F84F04006ED02078DFF821
:102B70004C93C007A9F104054AD009F1040001688B
:102B8000C1F38101012908D00068C0F38100022847
:102B90000AD1D9F80000400206D52868800337D54D
:102BA00060680028E1D033E06068B0F5803F10D065
:102BB000B0F5A02F286810D020F480302860286855
:102BC00020F4802028606068A8B1FFF7AFFA0646BD
:102BD0000DE0286840F48030F4E740F4802028605D
:102BE000F7E700BFFFF7A2FA801B642873D82868B4
:102BF0008003F7D50CE0FFF799FA064605E000BF21
:102C0000FFF794FA801B6428F0D828688003F7D473
:102C10002078DFF8AC8280074FF0000A3ED5A74845
:102C2000001D016811F00C0F08D00068C0F381008E
:102C300002280BD1D9F80000400207D42868800789
:102C400016D5E068012800D112E033E1E068B8B1A0
:102C50000120C8F80000FFF769FA064605E000BF4A
:102C6000FFF764FA801B0228C0D828688007F7D5D0
:102C70002868216920F0F80040EAC10028600DE0D2
:102C8000C8F800A0FFF752FA064604E0FFF74EFA34
:102C9000801B02281FD828688007F7D420780007F7
:102CA00022D5864F87486169703771B10121016073
:102CB000FFF73CFA064604E0FFF738FA801B0228CB
:102CC00009D838688007F7D50EE0C0F800A0FFF7F4
:102CD0002DFA064605E082E0FFF728FA801B02285D
:102CE0007DD838688007F7D42078400768D5DFF8AA
:102CF000CCB100270BF13C0BDBF80000C0000BD47B
:102D0000DBF8001041F08051CBF80010DBF8000038
:102D1000012700F0805000906B4E3068C00510D441
:102D2000306840F480703060FFF700FA009005E0F2
:102D3000FFF7FCF90099401A022850D83068C00506
:102D4000F6D55E4EA0686C3601280FD00528306895
:102D500010D020F001003060306820F004003060B6
:102D6000A068B8B1FFF7E2F900900FE0306840F0DA
:102D70000100F4E740F004003060F7E7FFF7D6F910
:102D80000099411A41F28830814266D83068800744
:102D9000F4D50EE0FFF7CAF9009007E0FFF7C6F997
:102DA0000099411A41F28830814256D83068800734
:102DB000F4D42FB1DBF8001021F08051CBF80010D3
:102DC000A069C8B33D49091D0968C1F38101022901
:102DD0004AD00228504607D0C8F8600000E03CE026
:102DE000FFF7A4F904463BE04746C8F86000FFF748
:102DF0009DF9064605E000BFFFF798F9801B022801
:102E00002BD828688001F7D4D4E907010843A16AC8
:102E10002E4A490802EB0141626A41EA82110843E5
:102E200094F82C1040EA0161C9F8001001203866BE
:102E3000FFF77CF9044606E03EE000BFFFF776F9B5
:102E4000001B022809D828688001F7D534E000BFAC
:102E5000FFF76CF9001B022802D90320BDE8F88FA8
:102E600028688001F4D427E00128F7D0D9F80000C1
:102E7000E26900F4800191421CD1226A00F03F0116
:102E8000914217D147F6C071626A0140B1EB821FCF
:102E900010D1A26A4FF0FF3300F4403103EB52022D
:102EA000B1EB024F06D194F82C1000F07060B0EB3B
:102EB000016F01D00120D1E70020CFE704380240A4
:102EC00000004742800E4742007000400000FFFFB4
:102ED00070B50D46040003D094F82C0010B107E043
:102EE000012070BD002084F82D00204600F011F86C
:102EF000022084F82C00211D2068FEF7A9FAD4E9ED
:102F000000022946FEF708FB012084F82C0000206F
:102F100070BDFEF78BBF10B5044690F82C00022858
:102F200004D094F82C00012801D0012010BD02200B
:102F300084F82C002068FEF7BEFA012084F82C00EB
:102F4000002010BD70B5044690F82C000D460228F4
:102F500004D0012803D0052801D0012070BD022033
:102F600084F82C002068FEF7AFFA2868022805D004
:102F70005FF0010084F82C00002070BD0520F9E707
:102F800070B5040009D0606A002540B12561656113
:102F9000A56294F8510040B10CE0012070BD60685A
:102FA000B0F5827FF4D0E561F2E784F85050204616
:102FB00000F044F8022084F851002068016821F0F4
:102FC00040010160A088218900F4827001F404416D
:102FD0000843A18901F400610843217C01F002014A
:102FE0000843217D01F001010843218B01F40071A8
:102FF0000843217F01F03801084394F8201001F0C4
:1030000080010843218D01F40051084321680860C4
:10301000A069042101EA104094F8241001F0100185
:103020000843216848602068C16921F40061C161DA
:103030006565012084F85100002070BD10B586B090
:10304000044614216846FDF71DF91449206888429A
:1030500021D113480021026842F4804202600068D6
:1030600000F4804005900E481038026842F00202D9
:103070000260006800F0020005904FF4604000908C
:103080000220CDE901010320039005200490694648
:103090000448FEF72BFF06B010BD000000380040CA
:1030A000403802400004024070B515460E46040048
:1030B00003D094F8490010B107E0012070BD002052
:1030C00084F84800204600F01DF804F1080120684B
:1030D000FEF74CF93146A2682068FEF787F9D4E97B
:1030E00001022946236BFEF723F92168A06851F8F5
:1030F000202042F0010241F82020012084F84900FC
:10310000002070BDFEF792BE4FF0E0210428086950
:1031100003D020F004000861704740F00400FAE793
:1031200010B5401EB0F1807F01D3012010BD4FF0DB
:10313000E02460610F21601705F04CFB0020A061C6
:1031400007202061002010BD7047704770B590F8CF
:103150003C20012A32D0012480F83C40022280F831
:103160003D2003685A689D6822F070060A68324361
:103170005A60134B02689A4214D0B2F1804F11D0BA
:10318000104B9A420ED0104B9A420BD00F4B9A42E2
:1031900008D00F4B9A4205D00E4B9A4202D00E4BEC
:1031A0009A4204D1496825F080031943916080F860
:1031B0003D40002180F83C10084670BD022070BDE3
:1031C000000001400004004000080040000C0040E6
:1031D00000040140004001400018004010B5040008
:1031E00003D094F83D0010B107E0012010BD00208D
:1031F00084F83C00204600F01FF8022084F83D00CF
:10320000211D206804F0E6FE012084F8460084F8C1
:103210003E0084F83F0084F8400084F8410084F8C0
:10322000420084F8430084F8440084F8450084F8A0
:103230003D00002010BD000008B501681A48814219
:103240000FD11A48016841F00101016000680022B5
:1032500000F00100009003211920FFF72DFB192039
:103260001EE01248001FB1F1804F0BD0104A91426E
:1032700007D1016841F002010160006800F002001E
:10328000009008BD016841F0010101600068002262
:1032900000F00100009003211C20FFF70DFB1C2013
:1032A000BDE80840FFF7FABA000001404438024088
:1032B0000004004070B5044690F83C000025012849
:1032C00017D0012684F83C60022084F83D00206875
:1032D000826822F0770222F47F42826008685028D8
:1032E00038D00DDC20284FD005DC90B3102811D148
:1032F0004AE0022070BD302846D040280AD13BE089
:1033000060282FD070280DD0B0F5805F03D0B0F5C5
:10331000005F12D0012584F83D60002084F83C0055
:10332000284670BDCB68D1E90121206804F0B6FEC3
:103330002068816841F0770109E0CB68D1E901217B
:10334000206804F0ABFE2068816841F48041816010
:10335000E1E719E0CA684968206804F073FF50216A
:10336000206806E0CA684968206804F07CFF602194
:10337000206804F09DFECEE7CA684968206804F022
:1033800061FF40212068F4E7226801461046F0E71B
:10339000704770B50446006801694FF00005C943E5
:1033A000890715D4C168C943890711D4E91E016191
:1033B00001202077206880698007204602D0FFF72F
:1033C000E7FF04E000F0D2F8204600F064F925772A
:1033D00020680169C943490717D4C168C94349072F
:1033E00013D46FF004010161022020772068806906
:1033F00010F4407F204602D0FFF7CAFF04E000F03F
:10340000B5F8204600F047F9257720680169C943DF
:10341000090716D4C168C943090712D46FF008011F
:103420000161042020772068C0698007204602D00F
:10343000FFF7AEFF04E000F099F8204600F02BF90A
:10344000257720680169C943C90617D4C168C943F3
:10345000C90613D46FF0100101610820207720689D
:10346000C06910F4407F204602D0FFF791FF04E0CE
:1034700000F07CF8204600F00EF9257720680169FD
:10348000C943C90708D1C168C943C90704D1891E06
:103490000161204600F000F920680169C94309066E
:1034A00009D4C168C943090605D46FF080010161E0
:1034B0002046FFF749FE20680169C943490609D43F
:1034C000C168C943490605D46FF040010161204637
:1034D00000F0E3F820680169C94389060BD4C1688C
:1034E000C943890607D46FF0200101612046BDE879
:1034F0007040FFF72ABE70BD30B587B00446142176
:103500006846FCF7BFFE15492068884224D114485C
:103510000025016841F002010160016801F002012B
:103520000591016841F004010160006802240094E3
:10353000CDE9014500F00400CDE90440694603955A
:103540000848FEF7D3FCE0018DE83100CDE90354D3
:1035500069460548FEF7CAFC07B030BD00040040CC
:10356000303802400004024000080240704770B545
:10357000044690F83C0000260D4601280FD001209B
:1035800084F83C006AB1042A1DD0082A2FD00C2AE6
:103590003FD00126002084F83C00304670BD022058
:1035A00070BD206804F08CFD2068816941F008013D
:1035B00081612068816921F004018161206881694D
:1035C0002A69114311E0206804F0AAFD206881698E
:1035D00041F4006181612068816921F48061816129
:1035E000206881692A6941EA02218161D2E7206865
:1035F00004F0CCFD2068C16941F00801C161206878
:10360000C16921F00401C1612068C1692A691143BF
:1036100011E0206804F0EEFD2068C16941F400610A
:10362000C1612068C16921F48061C1612068C169FC
:103630002A6941EA0221C161ACE710B5040003D058
:1036400094F83D0010B107E0012010BD002084F87F
:103650003C00204600F01EF8022084F83D00211DA9
:10366000206804F0B7FC012084F8460084F83E008E
:1036700084F83F0084F8400084F8410084F8420058
:1036800084F8430084F8440084F8450084F83D0041
:10369000002010BD7047704770477047704710B5E5
:1036A00004460068406994F83D10C0F3C010212919
:1036B00011D180B12068143050E8001F21F0800142
:1036C00040E80012002AF5D1606B08B1FEF7CEF990
:1036D000204604F07CFE2068406994F83E10C0F358
:1036E0008010222911D180B12068143050E8001FC9
:1036F00021F0400140E80012002AF5D1A06B08B18A
:10370000FEF7B4F9204604F03BFE002010BD7047E0
:10371000F8B5016804460868CA684B6910F00F0FD5
:103720004FF0000559D003F0010602F490773743BB
:1037300065D0C10705D0D10503D5216C41F0010149
:103740002164410705D5D90703D0216C41F002015E
:103750002164810705D5D90703D0216C41F004010C
:103760002164010707D502F02001314303D0216C09
:1037700041F008012164216C00293AD0800604D56B
:10378000900602D5204604F030FE20684069216C86
:10379000C0F38010090700D460B3204604F0F0FDA8
:1037A00020684069400621D52068143050E8001F89
:1037B00021F0400140E80012002AF5D1A06BA8B129
:1037C0006C490165A06BFEF79AF9002811D0A06B37
:1037D000016D01B0BDE8F040084783060FD59306A0
:1037E0000DD52046BDE8F84004F0FFBD2046FFF7A8
:1037F0008EFFF8BD2046FFF78AFF2564F8BD266BD3
:103800002023012E79D1C60677D5D60675D508684E
:10381000486800904869400640D5A16B0868406838
:103820000004000CEAD0A28D8242E7D9E085C86985
:10383000B0F5807F2DD020680C3050E8001F21F4B7
:10384000807140E80012002AF5D12068143050E859
:10385000001F21F0010140E80012002AF5D1206884
:10386000143050E8001F21F0400140E80012002A07
:10387000F5D184F83E30256320680C3050E8001FF5
:1038800021F0100140E80012002AF5D1A06BFEF7EC
:10389000EDF8A08DE18D401A81B229E0A08DE18D77
:1038A000401A81B2E08D0028A8D00029A6D0206857
:1038B0000C3050E8002F22F4907240E80026002ED1
:1038C000F5D12068143050E8002F22F0010240E8C2
:1038D0000026002EF5D184F83E30256320680C3098
:1038E00050E8002F22F0100240E80023002BF5D111
:1038F0002046FFF7D3FEF8BDFFE705062BD51506DA
:1039000029D594F83D002128F5D1A068B0F5805F55
:1039100001D12069B0B1206A411C21622168007880
:103920004860E08C401E0004000CE084E3D1206875
:10393000C16821F08001C1602068C16841F0400188
:10394000C160D8E7206A0088C0F308004860206A98
:10395000801C2062E5E74006CDD55006CBD5CA686D
:10396000204622F04002CA6084F83D3000F0C7F8DB
:10397000C1E700008B82000870B5040004D094F801
:103980003D00002510B106E0012070BD84F83C50D8
:10399000204600F023F8242084F83D002068C16808
:1039A00021F40051C160204604F080FD20680169C7
:1039B00021F4904101612068416921F02A014161AF
:1039C0002068C16841F40051C1602564202084F85A
:1039D0003D0084F83E00002070BD0000F0B587B0C7
:1039E000064614216846FCF74DFC324F306800252E
:1039F0003149022203230724B8421CD12E48143037
:103A0000066846F010060660006800F01000059099
:103A1000086840F0010008600868694600F001008D
:103A2000059058028DE82500CDE903342348FEF7C0
:103A30005DFA07B0F0BD224FB842FAD11E481030EF
:103A4000076847F480270760006800F4802005902D
:103A5000086840F0020008600868694600F002004B
:103A600005904FF440608DE82500CDE903341548FA
:103A7000FEF73CFA154C144820604FF00060C4E992
:103A800001054014C4E903506561A561E561256243
:103A900020466562FEF716F908B1FDF747FCB463EE
:103AA000002211462720A663FEF706FF2720FEF717
:103AB000F5FEBEE700100140303802400000024031
:103AC000004800400004024028600240E803002053
:103AD00090F83E30202B0ED159B152B190F83C30C5
:103AE000012B08D0012380F83C300023036304F04D
:103AF00063BD0120704702207047704770477047D0
:103B0000FEE701684A69D24352050FD46FF4806220
:103B10004A61002140F8301F2022427381730269FC
:103B200042F00402026101730120704700207047D7
:103B30002DE9F84F0446C06A1E4693460D4621689B
:103B40000A6842F480620A60082807D0012805D07C
:103B500010F5803F02D0206B112804D12068016845
:103B600041F4807101604FF001195B460022494623
:103B70002046009600F01AF94FF4007840B1206812
:103B80000068C00501D5C4F840800320BDE8F88F67
:103B90002069DFF884A0B0F5804F0FD0062021689F
:103BA00000EAD51747F0F000086133465A460AF19B
:103BB0000601204600F02EF958BB03E0E8B240F0C1
:103BC00001001CE02168E8B2086133465A465146BC
:103BD000204600F01FF9E0B9206841698169009131
:103BE000016841F4807101605B460022494620462D
:103BF000009600F0DBF80028C1D147F0F100216801
:103C0000086133465A465146204600F003F9002821
:103C1000BCD00120BAE7000002000100F8B504465C
:103C2000C06A1E460D461746082807D0012805D051
:103C300010F5803F02D0206B122804D12068016863
:103C400041F480710160134600224FF001112046BB
:103C5000009600F0ABF840B120680068C00502D5BE
:103C60004FF4007020640320F8BD2069B0F5804F48
:103C70000ED00620216800EAD51040F0F00008615F
:103C800033463A460B49204600F0C4F878B902E0C2
:103C900005F0FE0000E0E8B22168086105493346FE
:103CA0003A46891F204600F0B5F80028DCD00120F4
:103CB000F8BD0000080001002DE9F8430446006843
:103CC0000D46DDE9089701689846164641F4807173
:103CD00001604B4600224FF001112046009700F092
:103CE00065F848B120680068C00502D54FF400703F
:103CF00020640320BDE8F883216805F0FE00086118
:103D00003B464A461549204600F084F888B92068A9
:103D10004169806900903A464946204600F0F8F82B
:103D200048B1206C042804D12068016841F4007176
:103D300001600120DEE7F5B2B8F1010F09D021687A
:103D4000300A08613A464946204600F0E1F800286A
:103D5000E7D1206805610020CCE7000002000100E7
:103D600070B516460D4604460DE02046FFF7C9FE25
:103D700008B1012070BD681C05D0FEF7D7F9801B83
:103D8000A84207D835B120684069C0434007ECD449
:103D9000002070BD002044F8300F20216173A07313
:103DA000216941F0200121612073E2E72DE9F0470C
:103DB0001E4690460D460446C1F30747DDF82090A5
:103DC00008E0701C06D0FEF7B1F9A0EB0900B04284
:103DD0000FD876B12068012F18D0806925EA00003D
:103DE0000004000C14D000214145EAD00020BDE8B9
:103DF000F087002044F8300F20216173A0732169FF
:103E000041F02001216120730120F0E74069E5E7DE
:103E10000121E9E72DE9F0479A4691460E4604460E
:103E200000254FF02008C1F3074725E020684069CE
:103E3000C043400514D42068016841F4007101605A
:103E400021686FF480604861256384F83D8084F8C0
:103E50003E50206C40F00400206484F83C501FE089
:103E6000B9F1FF3F08D0FEF761F9A0EB0A0149451F
:103E70000CD8B9F1000F09D02068012F13D0806948
:103E800026EA00000004000C0BD0CFE744F8305FB6
:103E900084F80D80A573206940F02000206125730F
:103EA0000120BDE8F0874069EAE72DE9F0410025EF
:103EB00090460E460446202717E04069C043C006DE
:103EC0000CD454F8301B6FF01000486144F81059BE
:103ED0006777A577206A2062257717E0FEF726F935
:103EE000A0EB0800B04208D83EB120684169C94340
:103EF0004906E2D40020BDE8F08144F8305F6773E2
:103F0000A573206940F02000206125730120F2E7AD
:103F100070B516460D4604460DE02046FFF7F1FD4C
:103F200008B1012070BD681C05D0FEF7FFF8801BAA
:103F3000A84207D835B120684069C0430006ECD4D8
:103F4000002070BD002044F8300F20216173A07361
:103F5000216941F0200121612073E2E770B50A492F
:103F60000646002408884D8821464543204602F035
:103F70004FFB02F0E7FBB0B2044901E00880641C8B
:103F8000AC42FBD370BD00006C090020000008604B
:103F90002DE9F04F33492C240A4688712A2592884E
:103FA0002B2645F2105B4FF4305E4FF448774FF00C
:103FB000F00949F2413A4FF4A07845F2103C4FF431
:103FC000F07358B1A1F80080A1F80290524501D0D9
:103FD000624529D10C814D818E8139E0A1F8009094
:103FE000A1F80280524501D0624508D10C814D8173
:103FF0008E81624531D1A1F800804B802DE05A4579
:1040000008D1A1F808E04FF4285048814FF42C5013
:10401000888106E0A2F5C85063381ED10C814E811C
:104020008D810B804F8018E05A4508D1A1F808E037
:104030004FF4285048814FF42C50888106E0A2F5B7
:10404000C850633804D10C814D818E810F804B8024
:10405000624502D10B80A1F80280BDE8F04F00203C
:1040600002F0FAB96C0900202DE9F04FFF4895B035
:104070000025016841F00201016000684FF001096C
:1040800000F0020000902020CDE910090320CDE9C6
:10409000129010A9F648FDF729FFF6484FF020448A
:1040A000F5490460C0E901151021C560C0E904515B
:1040B00085610902C561C0E909518900C0E90B5158
:1040C00089014563C0E90E510F204621CDE9020563
:1040D0000491CDE90A50CDE9085009AA02A9E548A2
:1040E0000F95FEF7E1FF3220FDF78EFED32002F0A0
:1040F0001DFB02F07FF9DF4A5032908002F07AF91E
:10410000908002F077F94FF6FF7B0BEA0020908059
:1041100002F070F9918849F2413A0843908045F2E3
:10412000103645F2105541F66317504548D0D4205B
:1041300002F0FCFA02F05EF9908002F05BF99080E8
:1041400002F058F90BEA0020D846908002F052F9AC
:10415000918808439080B04232D04FF45A4002F028
:10416000E5FA02F047F990804FF45B4002F0DEFA86
:1041700002F040F908EA002090804FF45C4002F021
:10418000D5FA02F037F9918808439080B0F5004FD6
:104190007ED0A84214D0A12002F0C8FA02F02AF979
:1041A000908002F027F908EA0020908002F022F9BE
:1041B00091880843A0F5AE419080613900D1978085
:1041C00090469188ADA004F0C9FAB8F804005045B3
:1041D0007ED1CF2002F0AAFA002002F09BFAC12083
:1041E00002F098FA302002F095FAED2002F09EFAE3
:1041F000642002F08FFA032002F08CFA122002F001
:1042000089FA812002F086FAE82002F08FFA8520F0
:1042100002F080FA102002F07DFA7A2002F07AFA99
:10422000CB2002F083FA392002F074FA2C2002F03D
:1042300071FA002002F06EFA342002F06BFA0220CC
:1042400002F068FAF72002F071FA202002F062FA18
:10425000EA2002F06BFA002002F05CFA002002F083
:1042600059FAC02002F062FA1B2002F053FAC12072
:1042700002F05CFA012002F04DFAC52002F056FA75
:10428000302002F047FA302002F044FAC72000E064
:10429000B7E002F04BFAB72002F03CFA362002F009
:1042A00045FA482002F036FA3A2002F03FFA55204B
:1042B00002F030FAB12002F039FA002002F02AFAB6
:1042C0001A2002F027FAB62002F030FA0A2000E0A5
:1042D00099E002F01FFAA22002F01CFAF22002F08C
:1042E00025FA002002F016FA262002F01FFA01201B
:1042F00002F010FAE02002F019FA0F2002F00AFA98
:104300002A2002F007FA282002F004FA082002F01E
:1043100001FA0E2002F0FEF9082002F0FBF9542009
:1043200002F0F8F9A92002F0F5F9432002F0F2F9C1
:104330000A2002F0EFF90F2002F0ECF9002002F061
:10434000E9F9002002F0E6F9002002F0E3F900208C
:1043500002F0E0F9E12002F0E9F9002002F0DAF9D8
:10436000152002F0D7F9172002F0D4F9072002F047
:10437000D1F9112002F0CEF9062002F0CBF92B2062
:1043800002F0C8F9562002F0C5F93C2002F0C2F94B
:10439000052002F0BFF9102002F0BCF90F2002F056
:1043A000B9F93F2002F0B6F93F2002F0B3F90F202F
:1043B00002F0B0F92B2002F0B9F9002002F0AAF9BE
:1043C000002002F0A7F9012002F0A4F93F2002F03A
:1043D000A1F92A2002F0AAF9002002F09BF900209E
:1043E00002F098F9002002F095F9EF2002F092F91E
:1043F000112002F09BF97820FDF706FD292001F03D
:104400000EBF9580DCE6B0427ED1ED2002F08EF941
:10441000012002F07FF9FE2002F07CF9EE2002F08C
:1044200085F9DE2002F076F9212002F073F9F120FF
:1044300002F07CF9012002F06DF9DF2002F076F93C
:10444000102002F067F9C42002F070F98F2002F00A
:1044500061F9C62002F06AF9002002F05BF9E2205F
:1044600002F058F9E22002F055F90FE0303802402E
:10447000000402401C090020040100A0204C434419
:104480002049443A25780D0A00000000E22002F09D
:1044900041F9BF2002F04AF9AA2002F03BF9B0200E
:1044A00002F044F90D2002F035F9002002F032F953
:1044B0000D2002F02FF9002002F02CF9112002F05B
:1044C00029F9002002F026F9192002F023F9002032
:1044D00002F020F9212002F01DF9002002F01AF963
:1044E0002D2002F017F9002002F014F93D2002F00F
:1044F00011F9002002F00EF95D2002F00BF9002006
:1045000002F008F95D2000E0FEE302F003F900206C
:1045100002F000F9B12002F009F9802002F0FAF867
:10452000002002F0F7F88B2002F0F4F8002002F0EF
:10453000F1F8962002F0EEF8002002F0EBF8B2203D
:1045400002F0F4F8002002F0E5F8002002F0E2F8B2
:10455000022002F0DFF8002002F0DCF8032002F075
:10456000D9F8002002F0D6F8B32002F0DFF80020DE
:1045700002F0D0F8002002F0CDF8002002F0CAF8D6
:10458000002002F0C7F8002002F0C4F8002002F07A
:10459000C1F8002002F0BEF8002002F0BBF80020B5
:1045A00002F0B8F8002002F0B5F8002002F0B2F8EE
:1045B000002002F0AFF8002002F0ACF8002002F07A
:1045C000A9F8002002F0A6F8002002F0A3F80020CD
:1045D00002F0A0F8002002F09DF8002002F09AF806
:1045E000002002F097F8002002F094F8002002F07A
:1045F00091F8002002F08EF8002002F08BF8B42031
:1046000002F094F88B2002F085F8002002F082F886
:10461000962002F07FF8002002F07CF8A12002F042
:1046200079F8002002F076F8B52002F07FF8022039
:1046300002F070F8002002F06DF8032002F06AF832
:10464000002002F067F8042002F064F8002002F075
:1046500061F8B62002F06AF8002002F05BF8002052
:1046600002F058F8B72002F061F8002002F052F88A
:10467000002002F04FF83F2002F04CF8002002F03A
:1046800049F85E2002F046F8002002F043F864206A
:1046900002F040F8002002F03DF88C2002F03AF8D9
:1046A000002002F037F8AC2002F034F8002002F0CD
:1046B00031F8DC2002F02EF8002002F02BF87020F8
:1046C00002F028F8002002F025F8902002F022F8ED
:1046D000002002F01FF8EB2002F01CF8002002F08E
:1046E00019F8DC2002F016F8002002F013F8B820C8
:1046F00002F01CF8002002F00DF8002002F00AF889
:10470000002002F007F8002002F004F8002002F078
:1047100001F8002001F0FEFF002001F0FBFF002067
:1047200001F0F8FFBA2002F001F8242001F0F2FFB6
:10473000002001F0EFFF002001F0ECFF002001F06D
:10474000E9FFC12001F0F2FF202001F0E3FF00208B
:1047500001F0E0FF542001F0DDFF002001F0DAFF5E
:10476000FF2001F0D7FF002001F0D4FFC22001F0AC
:10477000DDFF0A2001F0CEFF002001F0CBFF042076
:1047800001F0C8FF002001F0C5FFC32001F0CEFFFB
:104790003C2001F0BFFF002001F0BCFF3A2001F0F7
:1047A000B9FF002001F0B6FF392001F0B3FF00206F
:1047B00001F0B0FF372001F0ADFF002001F0AAFFAB
:1047C0003C2001F0A7FF002001F0A4FF362001F0FB
:1047D000A1FF002001F09EFF322001F09BFF00208E
:1047E00001F098FF2F2001F095FF002001F092FFCB
:1047F0002C2001F08FFF002001F08CFF292001F018
:1048000089FF002001F086FF262001F083FF0020B1
:1048100001F080FF242001F07DFF002001F07AFFED
:10482000242001F077FF002001F074FF232001F025
:1048300071FF002001F06EFF3C2001F06BFF0020B3
:1048400001F068FF362001F065FF002001F062FFF3
:10485000322001F05FFF002001F05CFF2F2001F00B
:1048600059FF002001F056FF2C2001F053FF0020DB
:1048700001F050FF292001F04DFF002001F04AFF18
:10488000262001F047FF002001F044FF242001F022
:1048900041FF002001F03EFF242001F03BFF0020FB
:1048A00001F038FF232001F035FF002001F032FF36
:1048B000C42001F03BFF622001F02CFF002001F03A
:1048C00029FF052001F026FF002001F023FF8420AE
:1048D00001F020FF002001F01DFFF02001F01AFF81
:1048E000002001F017FF182001F014FF002001F054
:1048F00011FFA42001F00EFF002001F00BFF182093
:1049000001F008FF002001F005FF502001F002FF38
:10491000002001F0FFFE0C2001F0FCFE002001F061
:10492000F9FE172001F0F6FE002001F0F3FE9520BD
:1049300001F0F0FE002001F0EDFEF32001F0EAFEB0
:10494000002001F0E7FEE62001F0E4FE002001F087
:10495000E1FEC52001F0EAFE322001F0DBFE00207E
:1049600001F0D8FE442001F0D5FE002001F0D2FE77
:10497000652001F0CFFE002001F0CCFE762001F092
:10498000C9FE002001F0C6FE882001F0C3FE002011
:1049900001F0C0FEC62001F0C9FE202001F0BAFEE1
:1049A000002001F0B7FE172001F0B4FE002001F056
:1049B000B1FE012001F0AEFE002001F0ABFEC720E9
:1049C00001F0B4FE002001F0A5FE002001F0A2FEDF
:1049D000002001F09FFE002001F09CFEC82001F0A5
:1049E000A5FE002001F096FE002001F093FE0020BD
:1049F00001F090FE002001F08DFEC92001F096FE2E
:104A0000002001F087FE002001F084FE002001F06C
:104A100081FE002001F07EFE002001F07BFE0020E0
:104A200001F078FE002001F075FE002001F072FE1A
:104A3000002001F06FFE002001F06CFE002001F06C
:104A400069FE002001F066FE002001F063FE0020F8
:104A500001F060FE002001F05DFE002001F05AFE32
:104A6000E02001F063FE162001F054FE002001F06A
:104A700051FE1C2001F04EFE002001F04BFE2120D3
:104A800001F048FE002001F045FE362001F042FE14
:104A9000002001F03FFE462001F03CFE002001F026
:104AA00039FE522001F036FE002001F033FE642072
:104AB00001F030FE002001F02DFE7A2001F02AFEE8
:104AC000002001F027FE8B2001F024FE002001F0E1
:104AD00021FE992001F01EFE002001F01BFEA820FF
:104AE00001F018FE002001F015FEB92001F012FEC1
:104AF000002001F00FFEC42001F00CFE002001F0A8
:104B000009FECA2001F006FE002001F003FED220BB
:104B100001F000FE002001F0FDFDD92001F0FAFDBA
:104B2000002001F0F7FDE02001F0F4FD002001F08D
:104B3000F1FDF32001F0EEFD002001F0EBFDE1209E
:104B400001F0F4FD162001F0E5FD002001F0E2FD8A
:104B50001C2001F0DFFD002001F0DCFD222001F02F
:104B6000D9FD002001F0D6FD362001F0D3FD002054
:104B700001F0D0FD452001F0CDFD002001F0CAFD7F
:104B8000522001F0C7FD002001F0C4FD642001F0B7
:104B9000C1FD002001F0BEFD7A2001F0BBFD002028
:104BA00001F0B8FD8B2001F0B5FD002001F0B2FD51
:104BB000992001F0AFFD002001F0ACFDA82001F02C
:104BC000A9FD002001F0A6FDB92001F0A3FD002001
:104BD00001F0A0FDC42001F09DFD002001F09AFD30
:104BE000CA2001F097FD002001F094FDD22001F0D1
:104BF00091FD002001F08EFDD82001F08BFD0020FA
:104C000001F088FDE02001F085FD002001F082FD2B
:104C1000F32001F07FFD002001F07CFDE22001F097
:104C200085FD052001F076FD002001F073FD0B20CD
:104C300001F070FD002001F06DFD1B2001F06AFD08
:104C4000002001F067FD342001F064FD002001F038
:104C500061FD442001F05EFD002001F05BFD4F206E
:104C600001F058FD002001F055FD612001F052FDDA
:104C7000002001F04FFD792001F04CFD002001F0F3
:104C800049FD882001F046FD002001F043FD9720FA
:104C900001F040FD002001F03DFDA62001F03AFDAD
:104CA000002001F037FDB72001F034FD002001F0B5
:104CB00031FDC22001F02EFD002001F02BFDC720A8
:104CC00001F028FD002001F025FDD12001F022FD9A
:104CD000002001F01FFDD62001F01CFD002001F096
:104CE00019FDDD2001F016FD002001F013FDF32079
:104CF00001F010FD002001F00DFDE32001F016FD94
:104D0000052001F007FD00E00AE3002001F002FDAC
:104D10000A2001F0FFFC002001F0FCFC1C2001F047
:104D2000F9FC002001F0F6FC332001F0F3FC002038
:104D300001F0F0FC442001F0EDFC002001F0EAFC61
:104D4000502001F0E7FC002001F0E4FC622001F0BB
:104D5000E1FC002001F0DEFC782001F0DBFC00200B
:104D600001F0D8FC882001F0D5FC002001F0D2FC35
:104D7000972001F0CFFC002001F0CCFCA62001F030
:104D8000C9FC002001F0C6FCB72001F0C3FC0020E4
:104D900001F0C0FCC22001F0BDFC002001F0BAFC13
:104DA000C72001F0B7FC002001F0B4FCD12001F0D5
:104DB000B1FC002001F0AEFCD52001F0ABFC0020DE
:104DC00001F0A8FCDD2001F0A5FC002001F0A2FC10
:104DD000F32001F09FFC002001F09CFCE42001F096
:104DE000A5FC012001F096FC002001F093FC0120BD
:104DF00001F090FC002001F08DFC022001F08AFC03
:104E0000002001F087FC2A2001F084FC002001F042
:104E100081FC3C2001F07EFC002001F07BFC4B205B
:104E200001F078FC002001F075FC5D2001F072FCBF
:104E3000002001F06FFC742001F06CFC002001F0F8
:104E400069FC842001F066FC002001F063FC9320E3
:104E500001F060FC002001F05DFCA22001F05AFC92
:104E6000002001F057FCB32001F054FC002001F0B9
:104E700051FCBE2001F04EFC002001F04BFCC42090
:104E800001F048FC002001F045FCCD2001F042FC7F
:104E9000002001F03FFCD32001F03CFC002001F099
:104EA00039FCDD2001F036FC002001F033FCF3205A
:104EB00001F030FC002001F02DFCE52001F036FC73
:104EC000002001F027FC002001F024FC002001F06C
:104ED00021FC002001F01EFC022001F01BFC002040
:104EE00001F018FC292001F015FC002001F012FC53
:104EF0003C2001F00FFC002001F00CFC4B2001F0E5
:104F000009FC002001F006FC5D2001F003FC0020FC
:104F100001F000FC742001F0FDFB002001F0FAFB21
:104F2000842001F0F7FB002001F0F4FB932001F056
:104F3000F1FB002001F0EEFBA22001F0EBFB0020D2
:104F400001F0E8FBB32001F0E5FB002001F0E2FBFB
:104F5000BE2001F0DFFB002001F0DCFBC42001F0EB
:104F6000D9FB002001F0D6FBCD2001F0D3FB0020BF
:104F700001F0D0FBD32001F0CDFB002001F0CAFBF3
:104F8000DC2001F0C7FB002001F0C4FBF32001F09E
:104F9000C1FB002001F0BEFBE62001F0C7FB1120A1
:104FA00001F0B8FB002001F0B5FB342001F0B2FBAA
:104FB000002001F0AFFB562001F0ACFB002001F017
:104FC000A9FB762001F0A6FB002001F0A3FB7720CF
:104FD00001F0A0FB002001F09DFB662001F09AFB90
:104FE000002001F097FB882001F094FB002001F0E5
:104FF00091FB992001F08EFB002001F08BFBBB2080
:1050000001F088FB002001F085FB992001F082FB74
:10501000002001F07FFB662001F07CFB002001F006
:1050200079FB552001F076FB002001F073FB552041
:1050300001F070FB002001F06DFB452001F06AFBE0
:10504000002001F067FB432001F064FB002001F029
:1050500061FB442001F05EFB002001F05BFBE720D8
:1050600001F064FB322001F055FB002001F052FBFF
:10507000552001F04FFB002001F04CFB762001F0A1
:1050800049FB002001F046FB662001F043FB0020B5
:1050900001F040FB672001F03DFB002001F03AFBEE
:1050A000672001F037FB002001F034FB872001F07E
:1050B00031FB002001F02EFB992001F02BFB00209A
:1050C00001F028FBBB2001F025FB002001F022FBB2
:1050D000992001F01FFB002001F01CFB772001F05C
:1050E00019FB002001F016FB442001F013FB002007
:1050F00001F010FB562001F00DFB002001F00AFB2F
:10510000232001F007FB002001F004FB332001F015
:1051100001FB002001F0FEFA452001F0FBFA00201F
:1051200001F0F8FAE82001F001FB002001F0F2FAAA
:10513000002001F0EFFA992001F0ECFA002001F0D4
:10514000E9FA872001F0E6FA002001F0E3FA88206E
:1051500001F0E0FA002001F0DDFA772001F0DAFA40
:10516000002001F0D7FA662001F0D4FA002001F007
:10517000D1FA882001F0CEFA002001F0CBFAAA2063
:1051800001F0C8FA002001F0C5FABB2001F0C2FA14
:10519000002001F0BFFA992001F0BCFA002001F0D4
:1051A000B9FA662001F0B6FA002001F0B3FA5520F2
:1051B00001F0B0FA002001F0ADFA552001F0AAFA92
:1051C000002001F0A7FA442001F0A4FA002001F029
:1051D000A1FA442001F09EFA002001F09BFA55202C
:1051E00001F098FA002001F095FAE92001F09EFA0A
:1051F000AA2001F08FFA002001F08CFA002001F0C3
:1052000089FA002001F086FA002001F08FFAAA2026
:1052100001F080FACF2001F089FA002001F07AFA3B
:10522000002001F077FA002001F074FA002001F06C
:1052300071FA002001F06EFA002001F06BFA0020F4
:1052400001F068FA002001F065FA002001F062FA2E
:10525000002001F05FFA002001F05CFA002001F06C
:1052600059FA002001F056FA002001F053FA00200C
:1052700001F050FA002001F04DFA002001F04AFA46
:10528000F02001F053FA002001F044FA502001F020
:1052900041FA002001F03EFA002001F03BFA002024
:1052A00001F038FAF32001F041FA002001F032FA5F
:1052B000F92001F03BFA062001F02CFA102001F051
:1052C00029FA292001F026FA002001F023FA3A20D9
:1052D00001F02CFA552001F01DFA112001F026FAF8
:1052E0006420FCF791FD292001F020FA352001F01F
:1052F0001DFA002001F00EFA512001F017FAFF20EC
:1053000001F008FA532001F011FA2C2001F002FA02
:10531000552001F00BFA822001F0FCF92C20FDE36E
:10532000A8427CD14FF470435521184601F014FA7D
:10533000AA214FF2010001F00FFA52214FF20200B0
:1053400001F00AFA08214FF2030001F005FA0121E9
:105350004FF2040001F000FA0D214FF4304001F04B
:10536000FBF90D214BF2010001F0F6F90D214BF292
:10537000020001F0F1F934214FF4364001F0ECF96C
:1053800034214BF2016001F0E7F934214BF2026065
:1053900001F0E2F90D214FF4314001F0DDF90D216A
:1053A0004BF2011001F0D8F90D214BF2021001F07F
:1053B000D3F934214FF4374001F0CEF934214BF2C8
:1053C000017001F0C9F934214BF2027001F0C4F907
:1053D00000214FF4324001F0BFF900214BF20120CF
:1053E00001F0BAF900214BF2022001F0B5F92421B5
:1053F0004FF4384001F0B0F924214BF6010001F0E0
:10540000ABF924214BF6020001F0A6F901214FF47B
:105410003F4001F0A1F90F214FF4334000E0FCE3DD
:1054200001F09AF90F214BF2013001F095F90F21AB
:105430004BF2023001F090F934214FF4394001F081
:105440008BF934214BF6011001F086F934214BF62B
:10545000021001F081F908214FF4354001F07CF988
:1054600008214BF2015001F077F908214BF202506C
:1054700001F072F903214FF4424001F06DF924214B
:105480004FF43A4001F068F924214BF6012001F075
:1054900063F924214BF6022001F05EF900214FF45C
:1054A0003C4001F059F978214BF6014001F054F9E4
:1054B00000214BF6024001F04FF900214FF43D402E
:1054C00001F04AF978214BF6015001F045F900212D
:1054D0004BF6025001F040F900214FF43E4001F03C
:1054E0003BF964214BF6016001F036F900214FF4DD
:1054F000514001F031F933214DF2011001F02CF946
:1055000000214DF2021001F027F934214DF2031071
:1055100001F022F900214DF2041001F01DF93A21A9
:105520004DF2051001F018F900214DF2061001F0BE
:1055300013F94A214DF2071001F00EF900214DF246
:10554000081001F009F95C214DF2091001F004F98D
:1055500000214DF20A1001F0FFF881214DF20B10ED
:1055600001F0FAF800214DF20C1001F0F5F8A62137
:105570004DF20D1001F0F0F800214DF20E1001F087
:10558000EBF8E5214DF20F1001F0E6F801214DF2A4
:10559000101001F0E1F813214DF2111001F0DCF8C8
:1055A00001214DF2121001F0D7F854214DF21310E1
:1055B00001F0D2F801214DF2141001F0CDF8822152
:1055C0004DF2151001F0C8F801214DF2161001F04E
:1055D000C3F8CA214DF2171001F0BEF802214DF2B6
:1055E000181001F0B9F800214DF2191001F0B4F8CB
:1055F00002214DF21A1001F0AFF801214DF21B10FB
:1056000001F0AAF802214DF21C1001F0A5F8342196
:105610004DF21D1001F0A0F802214DF21E1001F014
:105620009BF867214DF21F1001F096F802214DF210
:10563000201001F091F884214DF2211001F08CF836
:1056400002214DF2221001F087F8A4214DF223101F
:1056500001F082F802214DF2241001F07DF8B7210B
:105660004DF2251001F078F802214DF2261001F0DC
:1056700073F8CF214DF2271001F06EF802214DF2A0
:10568000281001F069F8DE214DF2291001F064F8CC
:1056900002214DF22A1001F05FF8F2214DF22B1099
:1056A00001F05AF802214DF22C1001F055F8FE21BC
:1056B0004DF22D1001F050F803214DF22E1001F0A3
:1056C0004BF810214DF22F1001F046F803214DF256
:1056D000301001F041F833214DF2311001F03CF867
:1056E00003214DF2321001F037F86D214DF23310E5
:1056F00001F032F800214FF4524001F02DF833212F
:105700004DF2012001F028F800214DF2022001F0B5
:1057100023F834214DF2032001F01EF800214DF250
:10572000042001F019F83A214DF2052001F014F897
:1057300000214DF2062001F00FF84A214DF207201A
:1057400001F00AF800214DF2082001F005F85C2173
:105750004DF2092001F000F800214DF20A2000F07E
:10576000FBFF81214DF20B2000F0F6FF00214DF2EE
:105770000C2000F0F1FFA6214DF20D2000F0ECFF0F
:1057800000214DF20E2000F0E7FFE5214DF20F2041
:1057900000F0E2FF01214DF2102000F0DDFF1321A7
:1057A0004DF2112000F0D8FF01214DF2122000F03F
:1057B000D3FF54214DF2132000F0CEFF01214DF212
:1057C000142000F0C9FF82214DF2152000F0C4FF23
:1057D00001214DF2162000F0BFFFCA214DF2172023
:1057E00000F0BAFF02214DF2182000F0B5FF0021B1
:1057F0004DF2192000F0B0FF02214DF21A2000F006
:10580000ABFF01214DF21B2000F0A6FF02214DF25B
:105810001C2000F0A1FF34214DF21D2000F09CFF60
:1058200002214DF21E2000F097FF67214DF21F204C
:1058300000F092FF02214DF2202000F08DFF842124
:105840004DF2212000F088FF02214DF2222000F0CD
:1058500083FFA4214DF2232000F07EFF02214DF2B0
:10586000242000F079FFB7214DF2252000F074FFCD
:1058700002214DF2262000F06FFFCF214DF22720AC
:1058800000F06AFF02214DF2282000F065FFDE21C2
:105890004DF2292000F060FF02214DF22A2000F095
:1058A0005BFFF2214DF22B2000F056FF02214DF25A
:1058B0002C2000F051FFFE214DF22D2000F04CFF76
:1058C00003214DF22E2000F047FF10214DF22F2032
:1058D00000F042FF03214DF2302000F03DFF332164
:1058E0004DF2312000F038FF03214DF2322000F05C
:1058F00033FF6D214DF2332000F02EFF00214FF4D5
:10590000534000F029FF33214DF2013000F024FF15
:1059100000214DF2023000F01FFF34214DF2033020
:1059200000F01AFF00214DF2043000F015FF3A217B
:105930004DF2053000F010FF00214DF2063000F06E
:105940000BFF4A214DF2073000F006FF00214DF217
:10595000083000F001FF5C214DF2093000F0FCFE40
:1059600000214DF20A3000F0F7FE81214DF20B309C
:1059700000F0F2FE00214DF20C3000F0EDFEA62109
:105980004DF20D3000F0E8FE00214DF20E3000F037
:10599000E3FEE5214DF20F3000F0DEFE01214DF275
:1059A000103000F0D9FE13214DF2113000F0D4FE7A
:1059B00001214DF2123000F0CFFE54214DF2133090
:1059C00000F0CAFE01214DF2143000F0C5FE822124
:1059D0004DF2153000F0C0FE01214DF2163000F0FE
:1059E000BBFECA214DF2173000F0B6FE02214DF287
:1059F000183000F0B1FE00214DF2193000F0ACFE7D
:105A000002214DF21A3000F0A7FE01214DF21B30A9
:105A100000F0A2FE02214DF21C3000F09DFE342168
:105A20004DF21D3000F098FE02214DF21E3000F0C4
:105A300093FE67214DF21F3000F08EFE02214DF2E1
:105A4000203000F089FE84214DF2213000F084FEE8
:105A500002214DF2223000F07FFEA4214DF22330CE
:105A600000F07AFE02214DF2243000F075FEB721DD
:105A70004DF2253000F070FE02214DF2263000F08C
:105A80006BFECF214DF2273000F066FE02214DF271
:105A9000283000F061FEDE214DF2293000F05CFE7E
:105AA00002214DF22A3000F057FEF2214DF22B3048
:105AB00000F052FE02214DF22C3000F04DFEFE218E
:105AC0004DF22D3000F048FE03214DF22E3000F053
:105AD00043FE10214DF22F3000F03EFE03214DF227
