:020000040800F2
:10000000F8100020A11A00087D0200087F020008F5
:1000100083020008870200088B020008000000002D
:100020000000000000000000000000008F02000837
:1000300091020008000000009302000895020008E9
:10004000BB1A0008BB1A0008BB1A0008BB1A00083C
:10005000BB1A0008BB1A0008BB1A0008BB1A00082C
:10006000BB1A0008BB1A0008BB1A0008BB1A00081C
:10007000BB1A0008BB1A0008BB1A0008BB1A00080C
:10008000BB1A0008BB1A0008BB1A0008BB1A0008FC
:10009000BB1A0008BB1A0008BB1A0008BB1A0008EC
:1000A000BB1A0008BB1A0008BB1A0008BB1A0008DC
:1000B000BB1A0008BB1A0008BB1A0008BB1A0008CC
:1000C000BB1A0008BB1A0008BB1A0008BB1A0008BC
:1000D000BB1A000845190008AB360008BB1A000817
:1000E000BB1A0008BB1A0008BB1A0008BB1A00089C
:1000F000BB1A0008BB1A0008BB1A0008BB1A00088C
:10010000BB1A0008BB1A0008BB1A0008BB1A00087B
:10011000BB1A0008BB1A0008BB1A0008BB1A00086B
:10012000BB1A0008BB1A0008BB1A0008BB1A00085B
:10013000DFF80CD006F006FC004800474501000837
:10014000F81000200024002501F016FB01F07EFBD2
:1001500001F05EFA01F095F900F0D5FA00F0CAF965
:1001600000F08AF94FF4E13001F09DFB4FF4E130EB
:1001700001F025FC40F63541042001F0E7FA00F0DB
:10018000C2FA54E02A480068012823D129A200219C
:100190001C2000F05AFB681C80B2054664280DDB69
:1001A000642001F026FB25A006F0BCFC02F08DFEC9
:1001B00026A006F0B7FC002503F034F9002003F078
:1001C0008FF9044614B1204602F0BDFE0A2001F06A
:1001D00010FB2CE003F0A6F920A006F0A3FC04E03D
:1001E00009220321002000F04BFB02F0F6FD00285D
:1001F000F6D10A220321122000F042FB0B22032138
:10020000242000F03DFB0C220321362000F038FBB7
:100210000D220321482000F033FB4FF4FA7001F067
:10022000E8FA01200249086010A006F07BFCA9E76B
:10023000100000207364776400000000BFAACABCED
:10024000B7A2CBCDCAFDBEDD0D0A0000B7A2CBCD53
:10025000CAFDBEDDBDE1CAF80A00000038323636FC
:10026000B3F5CABCBBAFB3C9B9A60A00BDD3C8EBCE
:100270006F6E656E6574B3C9B9A60000704700BFA4
:10028000FEE700BFFEE700BFFEE700BFFEE77047E6
:1002900070477047704700000CB500200190009037
:1002A0006C48006840F480306A49086000BF6948C3
:1002B000006800F4003000900198401C0190009804
:1002C00018B90198B0F5A06FF1D16248006800F448
:1002D000003010B10120009001E000200090009853
:1002E000012843D15C48006840F010005A4908607A
:1002F0000846006820F0030008600846006840F0E7
:100300000200086053484068524948600846406807
:1003100048600846406840F480604860084640688D
:1003200020F47C1048600846406840F4E8104860BB
:100330000846006840F08070086000BF45480068CB
:1003400000F000700028F9D04248406820F0030017
:10035000404948600846406840F00200486000BFDD
:100360003C48406800F00C000828F9D10CBD10B5DD
:10037000FFF792FF10BD10B53648006840F001004D
:1003800034490860084640683449084031494860AB
:1003900008460068324908402E490860084600684F
:1003A00020F4802008600846406820F4FE00486081
:1003B0004FF41F008860FFF7DAFF4FF00060294913
:1003C000086010BD10B5002100200022214B5B68A1
:1003D00003F00C0121B1042906D0082928D107E037
:1003E000214B224C236027E01F4B204C236023E04D
:1003F000184B5B6803F47010164B5B6803F4803293
:10040000022303EB904022B9194B4343174C23605E
:100410000DE0104B5B6803F4003323B1144B4343EE
:10042000124C236003E0104B4343104C236003E065
:100430000D4B0E4C236000BF00BF064B5B68C3F33F
:1004400003130C4CE15C094B1B68CB40074C236049
:1004500010BD000000100240002002400000FFF824
:10046000FFFFF6FE08ED00E000127A001400002005
:1004700000093D001800002008B50121042001F00A
:10048000ABFE0220ADF8000010208DF80300032021
:100490008DF802006946634801F0E2FB02216148E1
:1004A00001F08BFC08BD08B50121102001F094FE7D
:1004B0004FF40050ADF8000010208DF80300032029
:1004C0008DF802006946584801F0CAFB4FF400510C
:1004D000554801F074FC08BD10B54FF40051524866
:1004E00001F06DFC10BD10B54FF400514E4801F005
:1004F00064FC10BD08B50121042001F06DFE4FF42D
:100500008060ADF8000010208DF8030003208DF806
:1005100002006946434801F0A3FB4FF48061414863
:1005200001F04DFC08BD10B54FF480613D4801F06D
:1005300046FC10BD10B54FF480613A4801F03DFC17
:1005400010BD08B50121082001F046FE2020ADF8BD
:10055000000010208DF8030003208DF8020069468A
:10056000324801F07DFB20212E4801F028FC08BD17
:1005700010B520212D4801F022FC10BD10B520211E
:100580002A4801F01AFC10BD08B50121082001F02D
:1005900023FE4FF48040ADF8000010208DF80300DA
:1005A00003208DF802006946204801F059FB4FF402
:1005B00080411E4801F003FC08BD10B54FF4804196
:1005C0001A4801F0FCFB10BD10B54FF480411748EC
:1005D00001F0F3FB10BD08B50121082001F0FCFD7E
:1005E0004FF40040ADF8000010208DF80300032008
:1005F0008DF8020069460D4801F032FB4FF40041CE
:100600000A4801F0DCFB08BD10B54FF40041074873
:1006100001F0D5FB10BD10B54FF40041034801F0C7
:10062000CCFB10BD0008014000100140000C01404F
:1006300070B504460E4626B18021F74801F0BDFB97
:1006400003E08021F44801F0BAFB4FF40071F24856
:1006500001F0B5FB002517E00221EF4801F0AFFBE8
:1006600004F0800020B10821EB4801F0A6FB03E074
:100670000821E94801F0A3FB0221E74801F09DFBB6
:100680006006040E681CC5B2082DE5DB4FF400714E
:10069000E14801F092FB8021DF4801F08EFB70BD44
:1006A00070B504460D4605F1B001C8B20021FFF750
:1006B000BFFF102141EA14100021FFF7B9FF04F039
:1006C0000F0141F001000021FFF7B2FF70BD10B52E
:1006D00000218D20FFF7ACFF00211420FFF7A8FFB9
:1006E0000021AF20FFF7A4FF10BD10B500218D2021
:1006F000FFF79EFF00211020FFF79AFF0021AE2098
:10070000FFF796FF10BD70B5002419E004F1B001A9
:10071000C8B20021FFF78CFF00210846FFF788FFD1
:1007200000211020FFF784FF002505E001210020B3
:10073000FFF77EFF681CC5B2802DF7DB601CC4B2DA
:10074000082CE3DB70BD2DE9F04107460E469046CC
:1007500000250024A8F12000C5B27F2F02DD00276C
:10076000B01CC6B231463846FFF79AFF002408E0B5
:1007700004EB0511A94A505C0121FFF759FF601CE9
:10078000C4B2082CF4DB701CC1B23846FFF788FFF6
:10079000002409E004EB05110831A04A505C012156
:1007A000FFF746FF601CC4B2082CF3DBBDE8F08104
:1007B00010B50246012000E050430B1EA1F10104D8
:1007C000E1B2F9D110BD2DE9FF5F074691461D4604
:1007D0000E9E4FF0000A002433E0281B401EC1B2D9
:1007E0000A20FFF7E5FFB9FBF0F00A21B0FBF1F2B8
:1007F00001FB1208BAF1000F13D1681EA04210DDF0
:10080000B8F1000F0BD1B34606EBDB71491001FBC9
:100810000471C8B220220199FFF795FF0FE04FF055
:10082000010AB34606EBDB71491001FB0471C8B243
:1008300008F13001CAB20199FFF785FF00BF601CC3
:10084000C4B2AC42C9DBBDE8FF9F2DE9F0410446CC
:100850000F46154600260EE0AA5D39462046FFF7F2
:1008600072FF04F10800C4B2782C02DD0024B81C29
:10087000C7B2701CC6B2A85D0028EDD1BDE8F081FA
:100880002DE9F04180460E46154600273146404688
:10089000FFF706FF00240AE0614A02EB8511085DBC
:1008A0000121FFF7C5FE781CC7B2601CC4B2102C32
:1008B000F2DB701CC1B24046FFF7F2FE00240CE0F0
:1008C0006900491C564A02EB4111085D0121FFF7FE
:1008D000AFFE781CC7B2601CC4B2102CF0DBBDE8C0
:1008E000F0812DE9F05F06460F4690461C46DDF884
:1008F00028A04FF0000BE11704EB5171C910A4EBD5
:10090000C10131B92046E11704EB5171C1F3C705AC
:1009100006E02046E11704EB5171C910491CCDB225
:100920003D4615E029463046FFF7BAFEB1460BE0DA
:1009300059460BF1010B1AF801000121FFF778FE6F
:1009400009F1010000F0FF09C145F1DB681CC5B2E7
:10095000A542E7DBBDE8F09F2DE9F041054688465A
:100960000027B8F1330F80F08985DFE818F03300F5
:100970004C006E008700A000B900D200EB0004011B
:100980001D0136014F01680181019A01B301CC01BB
:10099000E501FE011702300249028A02A302BC02ED
:1009A000D502EE0207032003390352036B038403CD
:1009B0009D03B603CF03E80301041A0433044C0477
:1009C0006504A604BF04D804F1040A0523053C0508
:1009D00055056E052C4612E021460020FFF760FE0B
:1009E000002608E039467F1C0E4A505C0121FFF7C3
:1009F0001FFE701CC6B2802EF4DB601CC4B2601BEC
:100A00000228E9DB6EE22C461BE021460020FFF7BE
:100A100047FE002611E00000000C0140548300084E
:100A2000280000204489000839467F1CF84A505CA1
:100A30000121FFF7FDFD701CC6B2802EF4DB601CA7
:100A4000C4B2601B0228E0DBDCE72C4612E0214642
:100A50000020FFF725FE002608E039467F1CED4AFE
:100A6000505C0121FFF7E4FD701CC6B2802EF4DB60
:100A7000601CC4B2601B0228E9DBC3E72C4612E00D
:100A800021460020FFF70CFE002608E039467F1CB7
:100A9000E14A505C0121FFF7CBFD701CC6B2802EED
:100AA000F4DB601CC4B2601B0228E9DBAAE72C4619
:100AB00012E021460020FFF7F3FD002608E039464A
:100AC0007F1CD64A505C0121FFF7B2FD701CC6B2F4
:100AD000802EF4DB601CC4B2601B0228E9DB91E7C6
:100AE0002C4612E021460020FFF7DAFD002608E040
:100AF00039467F1CCA4A505C0121FFF799FD701CE2
:100B0000C6B2802EF4DB601CC4B2601B0228E9DB95
:100B100078E72C4612E021460020FFF7C1FD0026B1
:100B200008E039467F1CBF4A505C0121FFF780FD79
:100B3000701CC6B2802EF4DB601CC4B2601B02289D
:100B4000E9DB5FE72C4612E021460020FFF7A8FD15
:100B5000002608E039467F1CB34A505C0121FFF7AC
:100B600067FD701CC6B2802EF4DB601CC4B2601B33
:100B70000228E9DB46E72C4612E021460020FFF779
:100B80008FFD002608E039467F1CA84A505C0121F1
:100B9000FFF74EFD701CC6B2802EF4DB601CC4B2A1
:100BA000601B0228E9DB2DE72C4612E021460020DD
:100BB000FFF776FD002608E039467F1C9C4A505C12
:100BC0000121FFF735FD701CC6B2802EF4DB601CDE
:100BD000C4B2601B0228E9DB14E72C4612E0214670
:100BE0000020FFF75DFD002608E039467F1C914A92
:100BF000505C0121FFF71CFD701CC6B2802EF4DB97
:100C0000601CC4B2601B0228E9DBFBE62C4612E044
:100C100021460020FFF744FD002608E039467F1CEE
:100C2000854A505C0121FFF703FD701CC6B2802E7F
:100C3000F4DB601CC4B2601B0228E9DBE2E62C4650
:100C400012E021460020FFF72BFD002608E0394680
:100C50007F1C7A4A505C0121FFF7EAFC701CC6B287
:100C6000802EF4DB601CC4B2601B0228E9DBC9E6FD
:100C70002C4612E021460020FFF712FD002608E076
:100C800039467F1C6E4A505C0121FFF7D1FC701C75
:100C9000C6B2802EF4DB601CC4B2601B0228E9DB04
:100CA000ECE32C4612E021460020FFF7F9FC002679
:100CB00008E039467F1C634A505C0121FFF7B8FC0D
:100CC000701CC6B2802EF4DB601CC4B2601B02280C
:100CD000E9DBD3E32C4612E021460020FFF7E0FCDD
:100CE000002608E039467F1C574A505C0121FFF777
:100CF0009FFC701CC6B2802EF4DB601CC4B2601B6B
:100D00000228E9DBBAE32C4612E021460020FFF777
:100D1000C7FC002608E039467F1C4C4A505C012184
:100D2000FFF786FC701CC6B2802EF4DB601CC4B2D8
:100D3000601B0228E9DBA1E32C4612E021460020DB
:100D4000FFF7AEFC002608E039467F1C404A505CA5
:100D50000121FFF76DFC701CC6B2802EF4DB601C15
:100D6000C4B2601B0228E9DB88E32C4612E021466E
:100D70000020FFF795FC002608E039467F1C354A25
:100D8000505C0121FFF754FC701CC6B2802EF4DBCE
:100D9000601CC4B2601B0228E9DB6FE32C4612E042
:100DA00021460020FFF77CFC002608E039467F1C26
:100DB000294A505C0121FFF73BFC701CC6B2802E13
:100DC000F4DB601CC4B2601B0228E9DB56E32C464E
:100DD00012E021460020FFF763FC002608E03946B8
:100DE0007F1C1E4A505C0121FFF722FC701CC6B21A
:100DF000802EF4DB601CC4B2601B0228E9DB3DE3FB
:100E00002C463AE021460020FFF74AFC002630E05D
:100E1000448A0008448B0008448C0008448D000874
:100E2000448E0008448F0008449000084491000854
:100E30004492000844930008449400084495000834
:100E40004496000844970008449800084499000814
:100E5000449A0008449B0008449C0008449D0008F4
:100E600039467F1CF84A505C0121FFF7E1FB701CFA
:100E7000C6B2802EF4DB601CC4B2601B0228C1DB4A
:100E8000FCE22C4612E021460020FFF709FC002678
:100E900008E039467F1CED4A505C0121FFF7C8FB92
:100EA000701CC6B2802EF4DB601CC4B2601B02282A
:100EB000E9DBE3E22C4612E021460020FFF7F0FBDD
:100EC000002608E039467F1CE14A505C0121FFF70B
:100ED000AFFB701CC6B2802EF4DB601CC4B2601B7A
:100EE0000228E9DBCAE22C4612E021460020FFF787
:100EF000D7FB002608E039467F1CD64A505C01210A
:100F0000FFF796FB701CC6B2802EF4DB601CC4B2E7
:100F1000601B0228E9DBB1E22C4612E021460020EA
:100F2000FFF7BEFB002608E039467F1CCA4A505C2A
:100F30000121FFF77DFB701CC6B2802EF4DB601C24
:100F4000C4B2601B0228E9DB98E22C4612E021467D
:100F50000020FFF7A5FB002608E039467F1CBF4AAA
:100F6000505C0121FFF764FB701CC6B2802EF4DBDD
:100F7000601CC4B2601B0228E9DB7FE22C4612E051
:100F800021460020FFF78CFB002608E039467F1C35
:100F9000B34A505C0121FFF74BFB701CC6B2802E98
:100FA000F4DB601CC4B2601B0228E9DB66E22C465D
:100FB00012E021460020FFF773FB002608E03946C7
:100FC0007F1CA84A505C0121FFF732FB701CC6B29F
:100FD000802EF4DB601CC4B2601B0228E9DB4DE20A
:100FE0002C4612E021460020FFF75AFB002608E0BD
:100FF00039467F1C9C4A505C0121FFF719FB701C8D
:10100000C6B2802EF4DB601CC4B2601B0228E9DB90
:1010100034E22C4612E021460020FFF741FB002677
:1010200008E039467F1C914A505C0121FFF700FB24
:10103000701CC6B2802EF4DB601CC4B2601B022898
:10104000E9DB1BE22C4612E021460020FFF728FBDB
:10105000002608E039467F1C854A505C0121FFF7D5
:10106000E7FA701CC6B2802EF4DB601CC4B2601BB1
:101070000228E9DB02E22C4612E021460020FFF7BD
:101080000FFB002608E039467F1C7A4A505C01219C
:10109000FFF7CEFA701CC6B2802EF4DB601CC4B21F
:1010A000601B0228E9DBE9E12C4612E02146002022
:1010B000FFF7F6FA002608E039467F1C6E4A505CBE
:1010C0000121FFF7B5FA701CC6B2802EF4DB601C5C
:1010D000C4B2601B0228E9DBD0E12C4612E02146B5
:1010E0000020FFF7DDFA002608E039467F1C634A3E
:1010F000505C0121FFF79CFA701CC6B2802EF4DB15
:10110000601CC4B2601B0228E9DBB7E12C4612E088
:1011100021460020FFF7C4FA002608E039467F1C6C
:10112000574A505C0121FFF783FA701CC6B2802E2B
:10113000F4DB601CC4B2601B0228E9DB9EE12C4694
:1011400012E021460020FFF7ABFA002608E03946FE
:101150007F1C4C4A505C0121FFF76AFA701CC6B232
:10116000802EF4DB601CC4B2601B0228E9DB85E141
:101170002C4612E021460020FFF792FA002608E0F4
:1011800039467F1C404A505C0121FFF751FA701C20
:10119000C6B2802EF4DB601CC4B2601B0228E9DBFF
:1011A0006CE12C4612E021460020FFF779FA002678
:1011B00008E039467F1C354A505C0121FFF738FAB8
:1011C000701CC6B2802EF4DB601CC4B2601B022807
:1011D000E9DB53E12C4612E021460020FFF760FADC
:1011E000002608E039467F1C294A505C0121FFF7A0
:1011F0001FFA701CC6B2802EF4DB601CC4B2601BE8
:101200000228E9DB3AE12C4612E021460020FFF7F4
:1012100047FA002608E039467F1C1E4A505C01212F
:10122000FFF706FA701CC6B2802EF4DB601CC4B255
:10123000601B0228E9DB21E12C463AE02146002030
:10124000FFF72EFA002630E0449E0008449F000875
:1012500044A0000844A1000844A2000844A30008D8
:1012600044A4000844A5000844A6000844A70008B8
:1012700044A8000844A9000844AA000844AB000898
:1012800044AC000844AD000844AE000844AF000878
:1012900044B0000844B1000839467F1CCF4A505C76
:1012A0000121FFF7C5F9701CC6B2802EF4DB601C6B
:1012B000C4B2601B0228C1DBE0E02C4612E02146EC
:1012C0000020FFF7EDF9002608E039467F1CC44AEC
:1012D000505C0121FFF7ACF9701CC6B2802EF4DB24
:1012E000601CC4B2601B0228E9DBC7E02C4612E098
:1012F00021460020FFF7D4F9002608E039467F1C7C
:10130000B84A505C0121FFF793F9701CC6B2802ED9
:10131000F4DB601CC4B2601B0228E9DBAEE02C46A3
:1013200012E021460020FFF7BBF9002608E039460D
:101330007F1CAD4A505C0121FFF77AF9701CC6B2E0
:10134000802EF4DB601CC4B2601B0228E9DB95E050
:101350002C4612E021460020FFF7A2F9002608E003
:1013600039467F1CA14A505C0121FFF761F9701CCE
:10137000C6B2802EF4DB601CC4B2601B0228E9DB1D
:101380007CE02C4612E021460020FFF789F9002678
:1013900008E039467F1C964A505C0121FFF748F966
:1013A000701CC6B2802EF4DB601CC4B2601B022825
:1013B000E9DB63E02C4612E021460020FFF770F9DC
:1013C000002608E039467F1C8A4A505C0121FFF75D
:1013D0002FF9701CC6B2802EF4DB601CC4B2601BF7
:1013E0000228E9DB4AE02C4612E021460020FFF704
:1013F00057F9002608E039467F1C7F4A505C0121DE
:10140000FFF716F9701CC6B2802EF4DB601CC4B264
:10141000601B0228E9DB31E02C4612E02146002067
:10142000FFF73EF9002608E039467F1C734A505CFE
:101430000121FFF7FDF8701CC6B2802EF4DB601CA2
:10144000C4B2601B0228E9DB18E02C4612E02146FA
:101450000020FFF725F9002608E039467F1C684A7E
:10146000505C0121FFF7E4F8701CC6B2802EF4DB5B
:10147000601CC4B2601B0228E9DB00BF00BFBDE8EE
:10148000F08108B50121084600F0A6FE01215D4863
:1014900000F0B7FC01211C2000F09EFE40F2AA20C3
:1014A000ADF8000010208DF8030003208DF8020035
:1014B0006946554800F0D4FB40F2AA21534800F099
:1014C0007CFC2021504800F078FC642000F091F969
:1014D00020214D4800F073FC642000F08AF920219F
:1014E000494800F06AFC0021AE20FFF7A1F8002176
:1014F0000846FFF79DF800211020FFF799F800211A
:101500004020FFF795F800218120FFF791F8002196
:10151000CF20FFF78DF80021A120FFF789F80021E7
:10152000C820FFF785F80021A620FFF781F80021E9
:10153000A820FFF77DF800213F20FFF779F8002170
:10154000D320FFF775F800210846FFF771F8002156
:10155000D520FFF76DF800218020FFF769F8002102
:10156000D920FFF765F80021F120FFF761F800218D
:10157000DA20FFF75DF800211220FFF759F800216B
:10158000DB20FFF755F800214020FFF751F800213C
:101590002020FFF74DF800210220FFF749F8002135
:1015A0008D20FFF745F800211420FFF741F80021B6
:1015B000A420FFF73DF80021A620FFF739F800210D
:1015C000AF20FFF735F80021AF20FFF731F8FFF724
:1015D0009AF800210846FFF763F808BD44B20008F6
:1015E00044B3000844B4000844B5000844B60008F9
:1015F00044B7000844B8000844B9000844BA0008D9
:1016000044BB000800023000000C01400010014003
:1016100000B591B00121480200F0DEFD0121042057
:1016200000F0DAFD0121084600F0C9FD4FF400404A
:1016300000F036FD00208DF84300F320ADF84000A7
:1016400003208DF8420010A93C4800F009FB052357
:10165000012200213A4801F0E6F805230222012187
:10166000374801F0E0F8052303220221344801F055
:10167000DAF8052304220321314801F0D4F80523C8
:101680001A4604212E4801F0CEF8052306221946F9
:101690002B4801F0C8F800200B900E904FF460200A
:1016A0000D9001208DF831008DF8300006208DF866
:1016B0003C000BA9224801F01EF821484C30009054
:1016C00080150690002004901E4801904FF4806021
:1016D000079080200590002002903C20039020205D
:1016E000089000200A904FF48050099069461648EF
:1016F00001F0A4FA0121144801F0CBFA01211048AD
:1017000001F030F801210E4801F021F80C4801F0F9
:1017100040F800BF0A4801F041F80128FAD0084813
:1017200001F046F800BF064801F047F80128FAD05A
:101730000121034801F04BF811B000BD0008014041
:1017400000240140F00700200800024070B5054663
:101750000C4645F2555001F0F9FA284601F0F9FA25
:10176000204601F0F9FA01F0FAFA01F0FDFA70BD35
:1017700010B501F0F4FA10BD10B56FF0040000F0E0
:10178000F0F92E4800682E49B0FBF1F02D490870A1
:101790000846007800EB4001C1EBC0104FF6FF7126
:1017A00001EAC0002849088010BD0146254A127888
:1017B0004A434FF0E0235A6100229A611A461269A7
:1017C00042F001021A6100BF4FF0E022106900F000
:1017D00001021AB100F48032002AF5D04FF0E02265
:1017E000126922F001024FF0E0231A6100229A618F
:1017F00070470146144A12884A434FF0E0235A6169
:1018000000229A611A46126942F001021A6100BF71
:101810004FF0E022106900F001021AB100F48032AA
:10182000002AF5D04FF0E022126922F001024FF0B9
:10183000E0231A6100229A61704700001400002022
:1018400000127A00A8070020AA07002010B54FF464
:10185000A06000F037F910BD00BF704700BF7E4A9E
:10186000128802F04002002AF9D0C2B27A4B1B1D46
:101870001A8070472DE9F04107460C4615460026B0
:101880000DE014F8011B384600F046FE00BF402171
:10189000384600F0AFFE0028F9D0701C86B2AE4288
:1018A000EFDBBDE8F08110B586B00446012144F2BB
:1018B000050000F091FC4FF40070ADF81400032017
:1018C0008DF8160018208DF8170005A9634800F060
:1018D000C7F94FF48060ADF8140004208DF81700AC
:1018E00005A95E4800F0BCF925208DF80000032012
:1018F0008DF801008DF8020001208DF80300684684
:1019000000F0E5F801940020ADF80800ADF80A00F9
:10191000ADF80C00ADF810000C20ADF80E0001A9D8
:101920004D4800F000FD012240F225514A4800F0E8
:1019300092FD0121484800F082FD49A005F0F2F82F
:1019400006B010BD10B540F22551434800F068FEC6
:1019500010B3414800F0E4FDC4B24748008800F4E9
:101960000040C8B94448008800F4804060B10A2CA7
:1019700003D000204049088020E03F48008840F420
:1019800000403D49088019E00D2C06D13A480088F6
:1019900040F480403849088010E037480088C0F3A0
:1019A0000D0036490C5434480088401C32490880E8
:1019B00008460088C72801DD0020088010BD10B54A
:1019C00086B0044601212E4800F013FC0420ADF837
:1019D000140003208DF8160018208DF8170005A9B3
:1019E0001E4800F03DF90820ADF8140004208DF8E1
:1019F000170005A9194800F033F926208DF80000DA
:101A000002208DF801008DF8020001208DF80300FE
:101A1000684600F05CF801940020ADF80800ADF8CD
:101A20000A00ADF80C00ADF810000C20ADF80E0067
:101A300001A9144800F077FC012240F22551114819
:101A400000F009FD01210F4800F0F9FC0EA005F09F
:101A500069F806B010BD00000038014000080140E0
:101A60007573617274315F696E69745F73756363F6
:101A70006573730D0A000000B0070020680800209D
:101A800005000200004400407573617274325F69A2
:101A90006E69745F737563636573730D0A0000008C
:101AA0000648804706480047FEE7FEE7FEE7FEE7F8
:101AB000FEE7FEE7FEE7FEE7FEE7FEE77703000846
:101AC0003101000831490143314A1160704770B556
:101AD000002100230F22C47804B32D4C246804F4A1
:101AE000E064C4F5E064210AC1F10403CA4044780B
:101AF00004FA03F18478144021430901254C067847
:101B0000A155047804F01F050124AC4005786D113F
:101B1000AD0005F1E025C5F8004109E0047804F0C6
:101B20001F050124AC401C4D0678761145F826406F
:101B300070BD1A4A0A400243154B1B1F1A607047BA
:101B400039B1134A121D12680243114B1B1D1A6052
:101B500006E00F4A121D126882430D4B1B1D1A60CE
:101B60007047042808D14FF0E021096941F00401D1
:101B70004FF0E022116107E04FF0E021096921F008
:101B800004014FF0E0221161704700000000FA05E7
:101B90000CED00E000E400E080E100E080FFFF1FCA
:101BA00010B50446CC48844208D10121042000F03D
:101BB0002DFB0021042000F029FB46E0C7488442A9
:101BC00008D10121082000F021FB0021082000F0AD
:101BD0001DFB3AE0C248844208D10121102000F0E8
:101BE00015FB0021102000F011FB2EE0BD488442BF
:101BF00008D10121202000F009FB0021202000F065
:101C000005FB22E0B848844208D10121402000F0C1
:101C1000FDFA0021402000F0F9FA16E0B3488442B2
:101C200008D10121802000F0F1FA0021802000F08D
:101C3000EDFA0AE0AE48844207D10121801500F098
:101C4000E5FA0021A01500F0E1FA10BD10B5012160
:101C5000084600F0DBFA0021012000F0D7FA10BDA1
:101C60002DE9F04102460025002600200023002433
:101C7000002791F803C00CF00F0591F803C00CF099
:101C8000100CBCF1000F03D091F802C04CEA05051E
:101C900091F800C0BCF1000F31D0146800202BE097
:101CA0004FF0010C0CFA00F3B1F800C00CEA030687
:101CB0009E4220D183004FF00F0C0CFA03F7BC4377
:101CC00005FA03FC4CEA040491F803C0BCF1280FA8
:101CD00006D14FF0010C0CFA00FCC2F814C00AE067
:101CE00091F803C0BCF1480F05D14FF0010C0CFA7C
:101CF00000FCC2F810C0401C0828D1D31460B1F811
:101D000000C0BCF1FF0F34DD546800202EE000F16C
:101D1000080C4FF0010808FA0CF3B1F800C00CEA07
:101D200003069E4221D183004FF00F0C0CFA03F7FB
:101D3000BC4305FA03FC4CEA040491F803C0BCF16F
:101D4000280F05D100F1080C08FA0CF8C2F814802D
:101D500091F803C0BCF1480F07D100F1080C4FF017
:101D6000010808FA0CF8C2F81080401C0828CED3ED
:101D70005460BDE8F0814FF6FF710180022181704F
:101D80000421C17070470246002093680B400BB1DC
:101D9000012000E0002070470146886880B270474B
:101DA00002460020D3680B400BB1012000E0002068
:101DB00070470146C86880B2704701617047416151
:101DC00070470AB1016100E041617047C16070472E
:101DD0004FF480320A438261816182618269826943
:101DE000704702460020434B18684FF68073184036
:101DF00040EA021008433F4B186070473E49C861F3
:101E00007047F0B50A46002300240021002500F0A9
:101E10000046B6F1004F02D1364EF16901E0354E71
:101E20007168C0F3034583B200F44016B6F5401F55
:101E300008D121F070612F4E766826F070662D4F24
:101E40007E6012E000F48016B6F5801F06D10326EE
:101E500006FA05F4A14341F0706106E0460D360133
:101E600003FA06F6B14341F0706122B1460D360126
:101E700003FA06F6314300F00046B6F1004F02D1F6
:101E80001C4EF16101E01B4E7160F0BD30B50022C7
:101E90008B071C0F0F2303FA04F2164B08338C1028
:101EA00053F824309343134C08348D1044F82530F4
:101EB00023468C1053F824308C07240F00FA04F4C6
:101EC00023430C4C08348D1044F8253030BD0A49AA
:101ED000DC3108607047000000080140000C014040
:101EE000001001400014014000180140001C014096
:101EF000002001400000014000002042DF4800684F
:101F000040F00100DD49086008464068DC490840AF
:101F1000DA49486008460068DA490840D74908604D
:101F20000846006820F4802008600846406820F4D5
:101F3000FE0048604FF41F0088607047CF49096871
:101F400021F48031CD4A11601146096821F48021C5
:101F50001160B0F5803F03D0B0F5802F0ED106E0C0
:101F6000C649096841F48031C44A116007E0C34999
:101F7000096841F4A021C14A116000E000BF00BF20
:101F8000704710B501460022002300204A11012AA3
:101F900002D1BA4C236806E0022A02D1B74C236A68
:101FA00001E0B64C636A01F01F02012494401C401A
:101FB0000CB1012000E0002010BD38B500200090D9
:101FC0000024002500BF3120FFF7DBFF0546009805
:101FD000401C00900098B0F5A06F01D0002DF2D009
:101FE0003120FFF7CEFF08B1012400E00024204695
:101FF00038BD01460020A14A106820F0F80040EAF0
:10200000C10010607047A049086070470246002078
:102010009A4B586820F47C1042EA01031843974B0E
:102020005860704798490866704701460020934AF7
:10203000506820F003000843506070478F484068A4
:1020400000F00C007047014600208C4A506820F0D8
:10205000F00008435060704701460020874A5068EE
:1020600020F4E06008435060704701460020834A36
:10207000506820F4605040EAC1005060704729B1B8
:102080007E4A527A02437D4B5A7204E07B4A527A6E
:1020900082437A4B5A7270477B49D8310860704747
:1020A00001460020754A506820F4404008435060C3
:1020B00070470021714A20321170704A82F8201056
:1020C000012802D004280AD104E001216B4A203201
:1020D000117005E00521694A2032117000E000BF4F
:1020E00000BF70476949086070476449096A014345
:1020F000624A11627047654944390860704730B5DB
:1021000000210022002400235C4D6D6805F00C01C5
:1021100021B1042905D0082923D105E05C4D0560D3
:1021200022E05B4D05601FE0544D6D6805F47012B0
:10213000524D6D6805F48034022505EB92421CB9BE
:10214000544D554305600BE04C4D6D6805F400356A
:102150001DB1504D5543056002E04D4D554305609E
:1021600002E04B4D056000BF00BF444D6D6805F0B7
:10217000F0010909484D6B5C0568DD4045603F4D45
:102180006D6805F4E061090A434D6B5C4568DD400C
:1021900085603A4D6D6805F46051C90A3E4D6B5C2F
:1021A0004568DD40C560354D6D6805F44041890BDB
:1021B0003A4D6B5CC568B5FBF3F5056130BD29B1DF
:1021C0002E4A526902432D4B5A6104E02B4A526950
:1021D00082432A4B5A61704729B1284A92690243C7
:1021E000264B9A6104E0254A92698243234B9A6107
:1021F000704729B1214AD2690243204BDA6104E0D9
:102200001E4AD26982431D4BDA61704729B11B4ACD
:10221000D2680243194BDA6004E0184AD26882435C
:10222000164BDA60704729B1144A12690243134B06
:102230001A6104E0114A12698243104B1A61704717
:1022400012494039086070470F49C86470470B490C
:10225000C87170470948406A40F080700749486279
:10226000704701460020054A92680A400AB10120E1
:1022700000E000207047014988727047001002405A
:102280000000FFF8FFFFF6FE0000424280044242D9
:1022900000127A0000093D00B4070020C4070020A6
:1022A00010B50446FB48844209D101218803FFF799
:1022B000ADFF00214FF48040FFF7A8FF32E0F64861
:1022C000844209D101214804FFF7ADFF00214FF4FA
:1022D0000030FFF7A8FF25E0F048844209D1012132
:1022E0008804FFF7A0FF00214FF48020FFF79BFF39
:1022F00018E0EB48844209D10121C804FFF793FF9D
:1023000000214FF40020FFF78EFF0BE0E5488442E8
:1023100008D101210805FFF786FF00214FF4801046
:10232000FFF781FF10BD2DE9F04786B005460E4648
:102330000024A24600BFA1460027B08900B100BF1B
:102340002F462C8A4CF6FF700440F08804432C8200
:10235000AC894EF6F3100440B08831890843718986
:1023600008430443AC81AC8A4FF6FF400440B08977
:102370000443AC8201A8FFF7C2FEC648874202D1DF
:10238000DDF810A001E0DDF80CA0A88900F4004001
:1023900040B10AEBCA0000EB0A1031684900B0FBFB
:1023A000F1F807E00AEBCA0000EB0A103168890077
:1023B000B0FBF1F86420B8FBF0F0040120096421BF
:1023C00001FB1089A88900F4004040B1322000EBE5
:1023D000C900B0FBF1F000F00700044308E0322030
:1023E00000EB09106421B0FBF1F000F00F00044392
:1023F0002C8106B0BDE8F0874FF416510160002132
:102400008180C18001810C2141810021818170473F
:1024100010B502460020108A4FF2FF0318400B88C7
:102420004C8823438C882343CC8823431843108251
:1024300010BD0021018041808180C180704721B1A1
:10244000828942F40052828104E082894DF6FF7352
:102450001A4082817047F0B503460024002600250B
:10246000002040F66A17B94200D100BF1846C1F3F8
:10247000421401F01F06012707FA06F5012C01D1CD
:102480000C3004E0022C01D1103000E014301AB1FD
:1024900007682F43076002E00768AF430760F0BD9D
:1024A0001AB1838A0B43838202E0838A8B4383823F
:1024B0007047028A4FF6F0731A400282028A0A437A
:1024C0000282704782894FF2FF731A4082818289AB
:1024D0000A438281704721B1828942F002028281DF
:1024E00004E082894FF6FD731A4082817047028AA8
:1024F0004FF6DF731A400282028A0A430282704753
:1025000021B1028A42F48042028204E0028A4BF640
:10251000FF731A4002827047C1F30802828070473D
:1025200001468888C0F308007047818941F00101A5
:1025300081817047028BD2B20283028B42EA012270
:1025400002837047028B02F47F420283028B0A43AC
:102550000283704721B1828A42F02002828204E025
:10256000828A4FF6DF731A408282704721B1828AD5
:1025700042F01002828204E0828A4FF6EF731A4022
:102580008282704721B1828A42F00802828204E08E
:10259000828A4FF6F7731A408282704721B182898E
:1025A00042F40042828103E08289C2F30E028281FA
:1025B000704721B1828A42F40062828204E0828AFA
:1025C0004FF2FF731A4082827047828A4FF6FB7384
:1025D0001A408282828A0A438282704721B1828AAB
:1025E00042F00202828204E0828A4FF6FD731A40B2
:1025F0008282704702460020B1F5007F00D100BF03
:1026000013880B400BB1012000E00020704701F45B
:102610000072B2F5007F00D100BFCA43028070474C
:1026200070B50246002400230025002040F66A16FB
:10263000B14200D100BFC1F3421501F01F030126D2
:1026400006FA03F3012D02D19689334006E0022DEC
:1026500002D1168A334001E0968A33400C120126DB
:1026600006FA04F41688344013B10CB1012000E0DE
:10267000002070BD10B50022002340F66A14A1426C
:1026800000D100BF0A1201249440A3B2DC430480AD
:1026900010BD0000003801400044004000480040E8
:1026A000004C00400050004010B50446FA488442F7
:1026B00008D101214015FFF7A9FD00216015FFF7A2
:1026C000A5FD17E0F548844208D101210015FFF768
:1026D0009DFD00212015FFF799FD0BE0F048844295
:1026E00008D10121C803FFF791FD00214FF40040FC
:1026F000FFF78CFD10BD30B5024600200023506866
:10270000E84C20400D790C6844EA052420435060D1
:102710009068E54C2040D1E902542C434D7944EABD
:10272000450420439060D06A20F470000C7C641E45
:10273000E4B2234340EA0350D06230BD002101607F
:10274000017141718160C16001210174704721B143
:10275000826842F00102826003E0826822F0010296
:102760008260704721B1826842F48072826003E027
:10277000826822F480728260704710B50023CBB269
:102780001AB144681C43446002E044689C434460BE
:1027900010BD816841F0080181607047014600204A
:1027A0008A6802F008020AB1012000E000207047A8
:1027B000816841F0040181607047014600208A6809
:1027C00002F004020AB1012000E00020704721B1AC
:1027D000826842F4A002826003E0826822F4A002D0
:1027E00082607047014600208A6802F480020AB1C4
:1027F000012000E00020704710B50A4600210023A8
:10280000416821F46041531E41EA4331416010BDEB
:1028100021B1426842F40062426003E0426822F45F
:10282000006242607047F0B504460D46002000216A
:10283000092D11DDE068A5F10A0606EB460707261B
:1028400006FA07F18843A5F10A0606EB460603FAE5
:1028500006F10843E0600CE0206905EB4507072618
:1028600006FA07F1884305EB450603FA06F108432B
:102870002061072A0FDA606B561E06EB86071F26BB
:1028800006FA07F18843561E06EB860605FA06F19E
:102890000843606322E00D2A0FDA206BD61F06EB97
:1028A00086071F2606FA07F18843D61F06EB860621
:1028B00005FA06F10843206310E0E06AA2F10D0674
:1028C00006EB86071F2606FA07F18843A2F10D06DC
:1028D00006EB860605FA06F10843E062F0BD21B179
:1028E000826842F48012826003E0826822F48012DF
:1028F000826070470146C86C80B2704766484C30B1
:102900000068704721B1426842F48062426003E08F
:10291000426822F480624260704721B1426842F40A
:102920008052426003E0426822F480524260704765
:102930000A460021816821F4E0411143816070471B
:1029400021B1826842F40042826003E0826822F48E
:1029500000428260704721B1826842F402128260B4
:1029600003E0826822F40212826070470146002070
:102970008A6802F400120AB1012000E000207047CA
:10298000F0B504461546002000220026092911DD75
:10299000E068A1F10A0707EB470C072707FA0CF2DA
:1029A0009043A1F10A0707EB470703FA07F2104328
:1029B000E0600CE0206901EB410C072707FA0CF2FC
:1029C000904301EB410703FA07F210432061A06B2B
:1029D000C0F30156EF1C06F1010CA7EB0C0707EB47
:1029E000870C1F2707FA0CF29043EF1C06F1010C2D
:1029F000A7EB0C0707EB870701FA07F21043A06368
:102A0000F0BD10B50A4600210023816B21F440116E
:102A1000531E41EA0351816310BD08B500230093A2
:102A20000090009B0B440093009B1A6008BD08B502
:102A3000024600200090009201F12800009B1844FB
:102A400000900098006880B208BD0A4600214168E5
:102A5000164B1940114341607047416282627047D2
:102A60000A460021416821F01F011143416070476F
:102A700040B109490831096841F40001064A0832A9
:102A8000116007E004490831096821F40001024A95
:102A90000832116070470000002401400028014006
:102AA000003C0140FFFEF0FFFDF7F1FFFFFD3FFF9F
:102AB0000246002013680B400BB1012000E000200B
:102AC0007047CA430260704770B502460020002379
:102AD00000240B125568CEB205EA060415681D40A5
:102AE00015B10CB1012000E0002070BD00220A12D7
:102AF000D34303607047000001684FF6FE72114037
:102B000001600021016041608160C1608D4988429F
:102B100008D18C490839496841F00F01894A083ABF
:102B200051608AE087491431884208D185490839C3
:102B3000496841F0F001834A083A51607DE08149DB
:102B40002831884208D17F490839496841F47061C9
:102B50007C4A083A516070E07A493C31884208D199
:102B600078490839496841F47041764A083A516019
:102B700063E074495031884208D172490839496884
:102B800041F470216F4A083A516056E06D49643152
:102B9000884208D16B490839496841F47001694A93
:102BA000083A516049E067497831884208D165495F
:102BB0000839496841F07061624A083A51603CE066
:102BC0006149884206D1011F096841F00F01021FC7
:102BD000116032E05C491431884208D15A49091F1A
:102BE000096841F0F001584A121F116025E056496A
:102BF0002831884208D15449091F096841F470619D
:102C0000514A121F116018E04F493C31884208D1E7
:102C10004D49091F096841F470414B4A121F116068
:102C20000BE049495031884207D14749091F0968DB
:102C300041F47021444A121F1160704710B5002200
:102C4000026847F6F0739A430C6A8B6823430C6959
:102C500023434C6923438C692343CC6923434C6A47
:102C600023438C6A23431A430260CB6843600B689A
:102C700083604B68C36010BD0021016041608160CA
:102C8000C160016141618161C16101624162816232
:102C9000704721B1026842F00102026004E002685C
:102CA0004FF6FE731A40026070471AB103680B4377
:102CB000036002E003688B43036070474160704724
:102CC0000146486880B2704701460020002201F0AA
:102CD00080531BB11C4B083B1A6802E0194B083BA0
:102CE0001A6802EA01030BB1012000E000207047DE
:102CF00000F0805119B11449091F086002E0114920
:102D000008394860704701460020002201F08053D6
:102D10001BB10D4B083B1A6802E00A4B083B1A68CE
:102D200002EA01030BB1012000E00020704700F02F
:102D3000805119B10449091F086002E001490839AE
:102D40004860704708000240080402400E490860CD
:102D500070470D49486070470B49886070474AF6D4
:102D6000AA200949086070474CF6CC400649086023
:102D7000704701460020044AD2680A400AB1012087
:102D800000E00020704700000030004070B586B0C1
:102D900004460D4600260020029003900490059002
:102DA00006E054F82610DFA003F0BCFE701CC6B28B
:102DB000AE42F6DB02A82B462246022100901420E8
:102DC00001F0BAF938B9039A91B2029800F071FB98
:102DD00002A800F087FD06B070BD30B58BB00020B2
:102DE0000790089009900A900125D4A3D6A2D8A1F3
:102DF000D9A003F097FE07A8002102910391CDE925
:102E0000041000912B02CDA20191CFA1D0A000F01F
:102E1000E6FD00283BD1089A91B2079800F049FBE3
:102E2000FA2000F05DFB0446002C2CD0204600F078
:102E3000A1FD022827D1204600F036FF06281DD22A
:102E4000DFE800F003080C101418CFA003F06AFEAE
:102E5000002517E0D1A003F065FE13E0D6A003F033
:102E600061FE0FE0DDA003F05DFE0BE0E3A003F0E8
:102E700059FE07E0EAA003F055FE03E0F3A003F0DB
:102E800051FE00BF00BF07A800F02CFD02E0F6A035
:102E900003F048FE0121FD48FFF778FF28460BB0FC
:102EA00030BD10B588B004462021684603F09FF974
:102EB000F7A000882080F7A1204603F0A3F9204660
:102EC00003F0C8F9C0B208B010BD30B5C5B00020DD
:102ED000419042904390449000240025EEA003F0DE
:102EE00021FE4FF4807101A803F081F901A8FFF7DA
:102EF000D8FF0446002C24D041A8032300222146F9
:102F000000908EA000F0C1FFC0B908E001A8415DAB
:102F1000429A501C429041988154681C05B2A542C7
:102F2000F4DB429A91B2419800F0C3FAE2A04299D0
:102F300003F0F8FD41A800F0D5FC02E0E2A003F0A8
:102F4000F1FD45B030BD2DE9F0438FB08146002042
:102F50000B900C900D900E900A900990089007909D
:102F600000270690002600248046484600F002FD17
:102F70000746032F24D0042F7ED00F2F73D107AB29
:102F80000AAA09A9484601F04FF80646BEB9BDF89D
:102F90001C30D5A0DDE9091203F0C4FD0BAADDE960
:102FA000090101F087F850B9D8A003F0BBFD0C9AD5
:102FB00091B20B9800F07DFA0BA800F093FC66E04C
:102FC000D8A003F0AFFDDE4806A907AA0AABCDE9F9
:102FD0000021029008AA09A9484601F0E6F9064630
:102FE000002E48D1BDF81C000090BDF82020D5A0CF
:102FF000DDE9091303F096FD0A9802F0FDF9054694
:1030000015B9DFA003F08EFD284601F0F3FB9DF813
:103010001800012802D0022826D111E00BA9C848C7
:10302000008801F09EFA50B9DDA003F07BFD0C9AF8
:1030300091B20B9800F03DFA0BA800F053FC14E09D
:103040000BA9BF48008801F0BFFA50B9DAA003F01D
:1030500069FD0C9A91B20B9800F02BFA0BA800F0C6
:1030600041FC02E008E00FE000BF00BF00F0DAF929
:103070000FB0BDE8F0830AE0484601F096FA10B9B7
:10308000D3A003F04FFD02E04FF0FF3600BF00BFBA
:1030900000F0C8F9701C00B9EAE77D210A9803F036
:1030A000CFF80446002C3BD0701C002838D0641C9C
:1030B00006E014F8012B404608F1010803A90A5460
:1030C0002078302802DB20783928F2DD002003A99F
:1030D00001F80800C6A003F025FD03A803F0EDF8F1
:1030E0008046974806A907AA0AABCDE900210290BD
:1030F00008AA09A9484601F058F90646BDF81C007F
:103100000090BDF820208FA0DDE9091303F00AFD2F
:103110000A9802F071F905461DB999A003F002FD65
:1031200073E16FE153756273637269626520546F76
:103130007069633A2025730D0A000000313036347F
:103140003133333439300000313233343536000016
:1031500035383833383400004F6E654E65745F443F
:1031600065764C696E6B0D0A50524F49443A2025E2
:10317000732C09415549463A2025732C094445567C
:1031800049443A25730D0A00546970733A09C1AC79
:10319000BDD3B3C9B9A60D0A000000005741524E75
:1031A0003A09C1ACBDD3CAA7B0DCA3BAD0ADD2E94D
:1031B000B4EDCEF30D0A00005741524E3A09C1ACAE
:1031C000BDD3CAA7B0DCA3BAB7C7B7A8B5C4636CF0
:1031D00069656E7469640D0A000000005741524E23
:1031E0003A09C1ACBDD3CAA7B0DCA3BAB7FECEF1D1
:1031F000C6F7CAA7B0DC0D0A000000005741524EC6
:103200003A09C1ACBDD3CAA7B0DCA3BAD3C3BBA72C
:10321000C3FBBBF2C3DCC2EBB4EDCEF30D0A00007E
:103220005741524E3A09C1ACBDD3CAA7B0DCA3BACC
:10323000B7C7B7A8C1B4BDD328B1C8C8E7746F6B0E
:10324000656EB7C7B7A8290D0A0000004552523A6B
:1032500009C1ACBDD3CAA7B0DCA3BACEB4D6AAB458
:10326000EDCEF30D0A0000005741524E3A094D5180
:1032700054545F5061636B6574436F6E6E65637425
:10328000204661696C65640D0A000000C8070020D3
:103290007B0000007D000000546970733A094F6E96
:1032A000654E65745F53656E64446174612D4D5164
:1032B00054540D0A0000000053656E6420256420FC
:1032C00042797465730D0A005741524E3A094544DC
:1032D000505F4E6577427566666572204661696C1F
:1032E00065640D0A00000000636D6469643A20257E
:1032F000732C207265713A2025732C207265715FE2
:103300006C656E3A2025640D0A00000054697073E4
:103310003A0953656E6420436D64526573700D0AFB
:1033200000000000BDD3CAD5CAFDBEDD4D515454C6
:103330005F504B545F5055424C4953480D0A0000B2
:10334000D0070020746F7069633A2025732C2074B5
:103350006F7069635F6C656E3A2025642C20706124
:10336000796C6F61643A2025732C207061796C6FE1
:1033700061645F6C656E3A2025640D0A00000000F0
:103380006A736F6E207061636B20696E746F206367
:103390006A736F6E206572726F722E2E2E0D0A0088
:1033A000546970733A0953656E64205075626C6994
:1033B000736841636B0D0A00546970733A09536571
:1033C0006E64205075626C6973685265630D0A0003
:1033D000546970733A094D515454205075626C69A8
:1033E00073682053656E64204F4B0D0A0000000087
:1033F0003039202D3D3D3D3D3D3D3D3D3D3D3D3D3B
:103400000D0A0000284601F0F5F90F2F01D0032F17
:1034100005D1099804F01AF90A9804F017F900BFC9
:1034200026E6000010B54FF48071BC4802F0DFFEC4
:103430000020BB49088010BDB948008808B90120A8
:103440007047B7480088B7490988884203D10020EF
:10345000B3490880F4E7B2480088B24908800120E7
:10346000EEE72DE9F04104460D46C826204602F05D
:10347000F1FE87B23A462146AB48FEF7FBF9FEF76C
:1034800077F90FE0FFF7D8FF48B92946A34802F0C3
:10349000C5FE20B1FFF7C6FF0020BDE8F0810A207D
:1034A000FEF7A7F9301EA6F10101CEB2EAD1012044
:1034B000F3E730B589B004460D46FFF7B3FF2A465F
:1034C0009AA101A803F03EFB9CA101A8FFF7C9FF48
:1034D00020B92A4621469448FEF7CCF909B030BD00
:1034E00070B50546002400BFFFF7A6FF80B994A180
:1034F0008A4802F093FE044654B13A21204602F075
:103500009FFE044614B1641C204670BD0020FCE7F9
:103510000520FEF76EF9281EA5F101018DB2E3D159
:1035200000BFF2E738B501210420FEF755FE102058
:103530008DF803004002ADF8000003208DF8020072
:1035400069468148FEF78CFB00224FF400517E480B
:10355000FEF737FCFA20FEF74CF9012251037A48B6
:10356000FEF72FFC4FF4FA70FEF743F9FFF75AFF0E
:10357000FDF7C9F8052202211420FDF781F9062282
:1035800002212620FDF77CF9072202213820FDF7D1
:1035900077F9082202214A20FDF772F96BA003F0A7
:1035A000C1FA002404E0E1B20620FDF7D5F9641C5D
:1035B0000A2CF8DB03E04FF4FA70FEF71AF965A164
:1035C00065A0FFF74EFF0028F5D165A003F0AAFA29
:1035D000002404E0E1B20620FDF7BEF9641C142CBF
:1035E000F8DB03E04FF4FA70FEF703F959A15FA08E
:1035F000FFF737FF0028F5D160A003F093FA00240D
:1036000004E0E1B20620FDF7A7F9641C1E2CF8DBEC
:1036100003E04FF4FA70FEF7ECF84EA15BA0FFF761
:1036200020FF0028F5D15DA003F07CFA002404E01F
:10363000E1B20620FDF790F9641C282CF8DB03E0CA
:103640004FF4FA70FEF7D5F857A159A0FFF709FF1C
:103650000028F5D160A003F065FA03E04FF4FA709A
:10366000FEF7C7F83BA15FA0FFF7FBFE0028F5D1EE
:1036700060A003F057FA002404E0E1B20620FDF751
:103680006BF9641C322CF8DB03E04FF4FA70FEF7A0
:10369000B0F85CA15DA0FFF7E4FE0028F5D166A0BC
:1036A00003F040FAFDF72FF838BD10B540F2255170
:1036B0001D48FEF7B5FF00282ED019480088FF28C6
:1036C00002D90020164908801748001D0088C1B2A1
:1036D000134802880088401C114B18800F48815401
:1036E00018460088401E0D49085C59490880594811
:1036F000007801280CD158A1084802F08FFD38B19C
:10370000FFF790FE59A003F00DFA00205149087010
:1037100020210548FEF77BFF10BD0000F8090020BE
:10372000D2070020D40700200044004041542B431E
:10373000495053454E443D25640D0A003E000000AB
:103740004950442C0000000000100140312E20415F
:10375000540D0A004F4B000041540D0A00000000B8
:10376000322E2043574D4F44450D0A0041542B4300
:10377000574D4F44453D310D0A000000332E204186
:10378000542B4357444843500D0A000041542B43E7
:1037900057444843503D312C310D0A00342E20430C
:1037A000574A41500D0A0000474F5420495000002D
:1037B00041542B43574A41503D226D655F636F6D05
:1037C0007075746572222C223239363034393334B4
:1037D0003235220D0A000000352E204349504D5548
:1037E000580D0A0041542B4349504D55583D300D5A
:1037F0000A000000362E2043495053544152540DC4
:103800000A000000434F4E4E4543540041542B43A1
:10381000495053544152543D22544350222C22319A
:1038200038332E3233302E34302E3339222C36308A
:1038300030320D0A00000000372E20455350383238
:10384000363620496E6974204F4B0D0A0000000087
:1038500004380140100000206C696E6B20697320F1
:103860006E6F742076616C6964000000496E746547
:10387000727272206572726F72203D3D3D3D3D3D1A
:103880003D3D3D3D3D3D210D0A00000070B5044623
:103890000E460025206898B901202073304603F0B9
:1038A000FDFE20602068E0B100206060A66003E0BB
:1038B0000020216848556D1CA068A842F8D810E087
:1038C0000220207303E00020216848556D1CA06889
:1038D000A842F8D800206060A068B04201D2002061
:1038E000206070BD10B50446207B012802D12068FD
:1038F00003F0ACFE002020606060A060207310BD6B
:103900000246002301230DE002F07F000870D20977
:103910002AB1087840F080000870491C01E0184680
:1039200070475B1C042BEFDD4FF0FF30F8E7F0B57C
:1039300004460D462646012300201060002114E0B5
:10394000775C07F07F07106807FB03001060705C6E
:1039500000F0800008B9481CF0BDDB01B3F5001F82
:1039600002D36FF00100F7E7491CA942E8DB4FF0F2
:10397000FF30F1E7F8B50446FF2720780511012D47
:1039800001DB0E2D01DD3846F8BD032D24D10020CA
:1039900000906A460421601CFFF7C9FF2044461CC2
:1039A0000098022803D3207800F0010008B1FF201E
:1039B000EAE77078317840EA0120801C009988425B
:1039C00001D9FF20E0E7F8A1B01C02F027FC08B104
:1039D0000F2700E0032700E02F463846D4E72DE903
:1039E000FF4F83B082468B469146159C00250020F0
:1039F00002900F270190484602F02CFC0FFA80F845
:103A0000B9F1000F03D1012007B0BDE8F08F08F134
:103A10000200384487B2109808B145F002051298A8
:103A200078B145F00405129802F014FCC0B202907F
:103A3000139802F00FFC01460298001D0844384418
:103A400087B2119820B1012804D0022808D104E0DF
:103A500000BF07E045F00C0504E045F0140501E067
:103A60000220D1E700BF149808B145F02405BAF14F
:103A7000000F02D0BBF1000F01D10320C4E745F0D5
:103A8000C005504602F0E6FB0646584602F0E2FB4F
:103A90003044001D384487B239462046FFF7F6FE11
:103AA000206808B90420AFE73946206802F09FFB80
:103AB00010216268501C606020688154D4E90023A2
:103AC000D118781FFFF71CFF00B201900198002861
:103AD00004DA2046FFF706FF052095E761680198A4
:103AE0000844606000216268501C60602068815456
:103AF00004216268501C6060206881544D21626816
:103B0000501C60602068815451216268501C6060C4
:103B10002068815454216268501C60602068815480
:103B20006268501C60602068815404216268501CE7
:103B30006060206881546168481C6060206845545A
:103B40000698010A6268501C6060206881540698DB
:103B5000C1B26268501C606020688154C8F30721BC
:103B60006268501C6060206881546268501C60600C
:103B7000206800F80280D4E90012881842464946BD
:103B800002F06FFB60684044606005F00400B8B369
:103B90000026139808B986A01390129802F05AFBD9
:103BA00086B2310A6268501C606020688154626885
:103BB000501C606020688654D4E900128818324690
:103BC000129902F04EFB606830446060139802F076
:103BD00041FB86B2310A6268501C606020688154E3
:103BE0006268501C606020688654D4E9001288180E
:103BF0003246139902F035FB60683044606000BFC4
:103C000005F08000C8B1504602F024FB86B2310AAC
:103C10006268501C6060206881546268501C60605B
:103C200020688654D4E9001288183246514602F0C2
:103C300018FB60683044606000BF05F04000C8B108
:103C4000584602F007FB86B2310A6268501C606079
:103C5000206881546268501C606020688654D4E9F2
:103C6000001288183246594602F0FBFA6068304468
:103C7000606000BF0020C7E610B504460221204660
:103C8000FFF704FE206808B9012010BDE02162683A
:103C9000501C60602068815400216268501C606084
:103CA000206881540020F0E701464878022801D0BE
:103CB00001207047887810B18878012801D1C87830
:103CC000F7E7FF20F5E72DE9FF4F83B0834617465E
:103CD0009946139C00250026002002900190804602
:103CE000BBF1000F03D1012007B0BDE8F08F002623
:103CF0000AE00498805D232803D00498805D2B2877
:103D000001D10220F0E7761C0498805D0028F0D1F4
:103D100048F03008119808B148F0010806EB090096
:103D2000851C109820B1012804D002280AD105E092
:103D300000BF09E048F00208AD1C05E048F00408A7
:103D4000AD1C01E00320CFE700BF67B3387802283D
:103D500021D14FF0000A00BF50460AF1010A385C39
:103D60007D28F9D1AAF1030A0AF10700029002980E
:103D7000A9EB000AE81CA0EB0A012046FFF786FD2C
:103D8000206808B90420AFE7EA1CA2EB0A0120680A
:103D900002F02DFA1FE0691D2046FFF777FD20682D
:103DA00040B90420A0E70AE02463726571000000B6
:103DB00000000000691D206802F019FA0BE0691D7F
:103DC0002046FFF763FD206808B904208CE7691DD1
:103DD000206802F00CFA6168481C6060206800F8F6
:103DE0000180D4E9000281182846FFF789FD01907F
:103DF0000198002804DA2046FFF774FD052073E7D8
:103E00006168019808446060C6F307216268501C2D
:103E10006060206881546268501C6060206886542D
:103E2000D4E9001288183246049902F01AFA606840
:103E300030446060109860B14FEA1B216268501CEA
:103E40006060206881546268501C6060206800F8DF
:103E500002B0C7B1387802280BD1D4E90012881813
:103E60003946029A02F0AAF9616802980844606033
:103E700009E0D4E9001288184A46394602F09EF952
:103E800060684844606000202EE72DE9FF41074646
:103E90000D4690461E460A9C01200021CDE90001F6
:103EA000CDE90204F948FA4A128800EB0211EB1C32
:103EB00000220A20FFF707FF20BB6168481C6060F2
:103EC00020684654F148F24A128800EB0211F1A032
:103ED00002F028FEC5F307216268501C606020686C
:103EE00081546268501C606020688554E8480088EE
:103EF000012803D10020E649088007E00120E449B9
:103F0000088003E0012004B0BDE8F0810020FAE75A
:103F10002DE9FF4107460D4690461E460A9C0120AA
:103F20000021CDE90001EB1C0A46DFA1CDE9020426
:103F30000B20FFF7C8FE88B96168481C60602068E4
:103F40004654C5F307216268501C606020688154A4
:103F50006268501C60602068855403E0012004B052
:103F6000BDE8F0810020FAE72DE9F04F85B08046EA
:103F70000D469146012004900027002600244FF0B2
:103F8000000A404602F066F900F10D0B584603F0B6
:103F900085FB07461FB9049805B0BDE8F08F42467F
:103FA000C2A1384602F0CEFD384602F053F9C6B23F
:103FB000F01D00EB050AAAEB050003F06FFB0446B9
:103FC00024B9384603F042FB0498E5E7022020704C
:103FD00000206070A67032463946E01C02F0EEF810
:103FE000290EF01C2154C5F30741301D2154C5F39F
:103FF0000721701D2154B01D255401200021CDE959
:10400000000153462246ADA1CDE902090A20FFF77F
:104010005AFE08B900200490384603F017FB2046EA
:1040200003F014FB0498B7E72DE9F84380460C46EB
:1040300015461E462F2108F1060002F001F9074639
:104040000020009017B90120BDE8F8837F1C6A4664
:10405000042108F10100FFF76AFC252003F01EFB94
:104060002060206808B90220EEE72521206802F0D0
:10407000BEF824223946206802F0A0F824370098C0
:104080002C3830803188481C03F008FB28602868F1
:1040900020B9206803F0DAFA0320D5E73288511CF2
:1040A000286802F0A4F832883946286802F086F8B9
:1040B0000020C9E72DE9FF5F07460D4690463846C8
:1040C00002F0C8F886B2284602F0C4F81FFA80FA57
:1040D0004FF00009F01D03F0E1FA04461CB901207D
:1040E00004B0BDE8F09FF11D204602F080F874A0F6
:1040F000016821608088A08032463946204602F05F
:10410000B0F8284602F0A6F883460120002100916D
:104110005B462A46CDE90208019121460A20FFF7B5
:10412000D2FD10B94FF0000901E04FF0010920461F
:1041300003F08CFA4846D3E72DE9FF5F8046174627
:1041400099460E9C0026B246B3460025B8F1000FF2
:1041500003D1012004B0BDE8F09F0BE057F8250023
:1041600008B90220F6E757F8250002F073F8064474
:10417000681CC5B24D45F1DB09EB4900801C00EB22
:10418000060A0AF105012046FFF780FB206808B9FE
:104190000320DFE782216268501C60602068815440
:1041A000D4E9000281185046FFF7AAFB0FFA80FB02
:1041B000BBF1000F04DA2046FFF794FB0420C9E7A7
:1041C0006068584460604FEA18216268501C606063
:1041D000206881546268501C6060206800F802808A
:1041E000002524E057F8250002F034F80646C6F30F
:1041F00007216268501C6060206881546268501C0E
:10420000606020688654D4E90023D01857F8251040
:10421000324602F026F86068304460600198C1B20E
:104220006268501C606020688154681CC5B24D45AE
:10423000D8DB00208EE70146FF208A78A2B9CA7831
:10424000142A11D10A7932B1012A05D0022A04D0E8
:10425000802A06D103E000BF00BF002003E0012058
:1042600001E0022000BF00BF70472DE9F05F8046EB
:104270000F4691461C460026B246B3460025B8F1CB
:10428000000F21D10120BDE8F09F00002ABE0008E8
:10429000D60700205075626C6973685F546F706355
:1042A000203D2025730D0A006F6E65007B2264732C
:1042B0005F6964223A222573227D00002464700025
:1042C00024637273702F00000CE057F8250010B9BA
:1042D0000220BDE8F09F57F8250001F0BBFF06441F
:1042E000681CC5B24D45F0DB022000EB490000EB35
:1042F000060A0AF105012046FFF7C8FA206808B946
:104300000320E6E7A2216268501C606020688154A7
:10431000D4E9000281185046FFF7F2FA0FFA80FB49
:10432000BBF1000F04DA2046FFF7DCFA0420D0E7E7
:104330006068584460604FEA18216268501C6060F1
:10434000206881546268501C6060206800F8028018
:1043500000251DE057F8250001F07CFF0646C6F356
:1043600007216268501C6060206881546268501C9C
:10437000606020688654D4E90023D01857F82510CF
:10438000324601F06EFF606830446060681CC5B260
:104390004D45DFDB00209CE7014601208A781AB9F1
:1043A000CA781E2A00D1002070472DE9FC5F8146A3
:1043B0000D4614461E46DDE90C8B99F8000000F00E
:1043C0000F0A002001900AF008000090CAF3410093
:1043D0008BF8000001AA042109F10100FFF7A7FAF8
:1043E0004844471C0198022802D30AF0010010B18A
:1043F000FF20BDE8FC9F7878397840EA01202080D2
:104400002088801C0199884201D9FF20F1E7AFF292
:104410006861B81C01F002FF08B10F20E9E79BF8C2
:10442000000020B101283DD0022877D13BE0009860
:1044300008B1FF20DDE72188481C03F02FF9286030
:10444000286808B9FF20D4E72288511C286801F0A9
:10445000CEFE2288B91C286801F0B0FE0198801EAB
:104460002188401AA8F80000B8F80010481C03F092
:1044700015F93060306820B9286803F0E7F8FF20AC
:10448000B7E7B8F80020511C306801F0B0FEB8F86A
:104490000020B4F800C0BB1C0CEB0301306801F035
:1044A0008DFE4FE000BF2088801C0199884201D911
:1044B000FF209EE72088C01C395C2088801C385C67
:1044C00041EA00210E9801800E9808B9FF2090E77C
:1044D0002188481C03F0E2F82860286808B9FF200A
:1044E00087E72288511C286801F081FE2288B91CC8
:1044F000286801F063FE0198001F2188401AA8F87F
:104500000000B8F80010481C03F0C8F830603068AC
:1045100028B9286803F09AF8FF206AE710E0B8F895
:104520000020511C306801F062FEB8F80020B4F899
:1045300000C03B1D0CEB0301306801F03FFE01E0C1
:10454000FF2056E700BF2B21284601F079FE20B955
:104550002321284601F074FE08B1FF2049E700201E
:1045600047E770B505460C4604212046FFF78EF953
:10457000206808B9012070BD40216268501C60604D
:104580002068815402216268501C60602068815458
:1045900029126268501C6060206881546268501C57
:1045A0006060206885540020E5E7014648780228CD
:1045B00001D001207047887820B9C8780A2801D135
:1045C0000020F7E70120F5E770B505460C46042109
:1045D0002046FFF75BF9206808B9012070BD502123
:1045E0006268501C60602068815402216268501C1F
:1045F00060602068815429126268501C60602068E5
:1046000081546268501C6060206885540020E5E792
:1046100001464878022801D001207047887820B9E7
:10462000C8780A2801D10020F7E70120F5E770B526
:1046300005460C4604212046FFF728F9206808B9F2
:10464000012070BD62216268501C60602068815446
:1046500002216268501C60602068815429126268DF
:10466000501C6060206881546268501C6060206843
:1046700085540020E5E702465078022801D0012049
:1046800070479078B0EB112F05D1D078CBB298421B
:1046900001D10020F4E70120F2E770B505460C4691
:1046A00004212046FFF7F2F8206808B9012070BD08
:1046B00070216268501C6060206881540221626829
:1046C000501C60602068815429126268501C606030
:1046D000206881546268501C606020688554002006
:1046E000E5E701464878022801D001207047887824
:1046F00020B9C8780A2801D10020F7E70120F5E7A2
:1047000010B5044602212046FFF7C0F8206808B91A
:10471000012010BDC0216268501C60602068815477
:1047200000216268501C6060206881540020F0E71E
:10473000FE480068704770B504460D462CB9AC427F
:1047400001D0012070BD0020FCE70DB90120F9E780
:1047500005E0207808B90020F4E7641C6D1C20787F
:1047600001F026FD0646287801F022FD8642F0D0B1
:10477000207801F01DFD0646287801F019FD301A59
:10478000E0E770B50446204601F064FD451C28466C
:10479000E74909688847061E00D170BD2A462146B0
:1047A000304601F00BFD3046F7E730B9E149E04A09
:1047B0001160E149E14A11607047016809B101687F
:1047C00000E0DC49DA4A1160416809B1416800E063
:1047D000D949DA4A116000BFEEE710B52820D44964
:1047E0000968884704461CB12821204601F0FFFCD7
:1047F000204610BD70B5044622E02568A08900F46B
:10480000807020B9A06810B1A068FFF7F3FFA089FD
:1048100000F4807028B9206918B1C8492069096876
:104820008847A08900F4007028B9206A18B1C349EC
:10483000206A096888472046C049096888472C468D
:10484000002CDAD170BD2DE9F04F8BB083468A463B
:104850000020044605460026B94F002188468946B7
:104860000990012008909AF800002D2802D1B54F38
:104870000AF1010A9AF80000302801D10AF1010A70
:104880009AF80000312822DB9AF8000039281EDC53
:1048900000BF1AF8011BA1F1300001F034FE002224
:1048A000A94BCDE906012046294601F0BAFDCDE924
:1048B0000401DDE9062301F00DFD04460D469AF8DA
:1048C0000000302803DB9AF800003928E1DD9AF86F
:1048D00000002E2830D19AF8010030282CDB9AF8FD
:1048E0000100392828DC0AF1010A00BF1AF8011B6F
:1048F000A1F1300001F007FE0022934BCDE9060143
:104900002046294601F08DFDCDE90401DDE90623AD
:1049100001F0E0FC04460D460022894B4046494622
:1049200001F079FD804689469AF80000302803DBC3
:104930009AF800003928D9DD9AF80000652803D0DC
:104940009AF80000452823D10AF1010A9AF80000DC
:104950002B2802D10AF1010A08E09AF800002D285C
:1049600004D14FF0FF3008900AF1010A08E01AF86C
:10497000010B3038099901EB810100EB41000990EE
:104980009AF80000302803DB9AF800003928EEDDA1
:10499000DDE9082101FB02F001F0B5FD42464B467E
:1049A000CDE9000101F096FC02460B46CDE902017B
:1049B0000020654902F0A8FE22462B46CDE90601FB
:1049C0003046394601F02DFDCDE90401DDE906232D
:1049D00001F027FD04460D46CBE906452046294651
:1049E00001F0A2FDCBF814000320CBF80C005046D8
:1049F0000BB0BDE8F08F0146491E41EA610141EA72
:104A0000A10141EA211141EA212141EA2141481C49
:104A100070472DE9F04104460E460CB1206810B9EC
:104A20000020BDE8F081A06806446068B04203DB66
:104A3000A16820680844F4E73046FFF7DCFF07462A
:104A400038463B490968884705463DB93B492068D7
:104A500009688847002060602060E2E725B12846A9
:104A6000D4E9001201F0AAFB34492068096888479C
:104A700067602560A0682844D3E770B504460CB190
:104A8000206808B9002070BDA16820684518284634
:104A900001F0E0FBA1680844F5E72DE9FC478246F8
:104AA0000E464FF00009DAE906450022134620467B
:104AB000294601F06BFD13D12EB102213046FFF7DC
:104AC000A8FF814604E00220194909688847814609
:104AD000B9F1000F03D01DA00088A9F800009FE0E5
:104AE000DAF8140001F00FFD074622462B4601F0CC
:104AF00092FC21F000410022154BCDE9000101F0AC
:104B000045FD3ED8134A144B2046294601F03EFD90
:104B100037D80022114B2046294601F04FFD30D8EE
:104B200006B315213046FFF774FF19E0D8070020BF
:104B3000DC0700209D7600084D760008E007002085
:104B40000000F03F0000F0BF0000244030000000F3
:104B50000000B03C0000C0FFFFFFDF410000E0C1EB
:104B6000814604E01520FA49096888478146B9F171
:104B7000000F55D0F7A14846DAF8142001F0E2FF03
:104B80004EE02EB140213046FFF743FF814604E05E
:104B90004020EF49096888478146B9F1000F3FD0AE
:104BA0002046294602F0E4FC074622462B4601F047
:104BB00032FC21F000410022E74BCDE9000101F079
:104BC000E5FC0FD825F000412746E44AE44B38467F
:104BD00001F0DCFC06D222462B46E2A1484601F059
:104BE000B1FF1DE025F000412746E04AE04B384682
:104BF00001F0CCFC07D325F000410022DD4B384604
:104C000001F0DCFC06D222462B46DBA1484601F02F
:104C100099FF05E022462B46D8A1484601F092FFB5
:104C20004846BDE8FC87014600220878302806DBAC
:104C30000878392803DC08783038024415E0087811
:104C4000412806DB0878462803DC08783738024418
:104C50000BE00878612806DB0878662803DC087812
:104C60005738024401E0002070471201491C0878BF
:104C7000302806DB0878392803DC0878303802440D
:104C800015E00878412806DB0878462803DC087818
:104C9000373802440BE00878612806DB087866287C
:104CA00003DC08785738024401E00020DCE71201F9
:104CB000491C0878302806DB0878392803DC087896
:104CC0003038024415E00878412806DB0878462889
:104CD00003DC0878373802440BE00878612806DBEB
:104CE0000878662803DC08785738024401E0002081
:104CF000BAE71201491C0878302806DB0878392801
:104D000003DC08783038024415E00878412806DBD7
:104D10000878462803DC0878373802440BE0087826
:104D2000612806DB0878662803DC087857380244D7
:104D300001E0002098E7104696E72DE9F05F8346F2
:104D4000884608F10104002798F80000222805D0C1
:104D50008B48C0F800800020BDE8F09F04E014F804
:104D6000011B5C2900D1641C2078222804D0207803
:104D700010B1781C071EF2D1781C75490968884764
:104D80008146B9F1000F01D10020E5E708F10104E7
:104D90004D469EE020785C2804D014F8010B05F8FD
:104DA000010B96E0641C2078722818D006DC62287B
:104DB00009D066280BD06E287ED10CE0742812D062
:104DC0007528F9D113E0082005F8010B7FE00C20CD
:104DD00005F8010B7BE00A2005F8010B77E00D20B8
:104DE00005F8010B73E0092005F8010B6FE0601C6A
:104DF000FFF719FF0646241DB6F55C4F02D3B6F542
:104E0000604F00D306B962E0B6F5584F1CD3B6F533
:104E10005C4F19D260785C2802D1A078752800D048
:104E200055E0E01CFFF7FFFE8246A41DBAF55C4F7B
:104E300002D3BAF5604F00D349E0C6F309015046EA
:104E400061F39F2000F580360427802E01D20127D0
:104E500008E0B6F5006F01D2022703E0B6F5803F07
:104E600000D203273D44012F20D0022F15D0032F5D
:104E70000AD0042F24D106F0BF0040F08001681E44
:104E800005460170B60900BF06F0BF0040F0800182
:104E9000681E05460170B60900BF06F0BF0040F06D
:104EA0008001681E05460170B60900BF3548C05D27
:104EB0003043C1B2681E00E005E00546017000BF46
:104EC00000BF3D4403E0207805F8010B00BF00BFA0
:104ED000641C2078222803D0207800287FF45AAF61
:104EE000002028702078222800D1641CCBF8109074
:104EF0000420CBF80C0020462EE72DE9F05F804619
:104F000089460027BB46454611E02878002802DD87
:104F10002878202805DB2878222802D028785C28E9
:104F200001D1012000E0002040EA0B0B6D1C287825
:104F30000028EAD1BBF1000F3ED1A5EB0807B9F17B
:104F4000000F21D0F91C4846FFF763FD064620E01C
:104F5000DC070020256400000000B03C44F3C2E4FC
:104F6000E4E9634C252E3066000000008DEDB5A00D
:104F7000F7C6B03E65CDCD41256500002566000031
:104F8000D80700204ABE0008F81CFD490968884778
:104F9000064616B90020BDE8F09F3446222004F8EA
:104FA000010B4146204601F070F92220E055002116
:104FB000781C21543046EEE7B8F1000F16D1B9F154
:104FC000000F05D003214846FFF723FD064604E005
:104FD0000320EB490968884706460EB90020DAE746
:104FE000E8A1304601F051F93046D4E745460BE0E0
:104FF0005146E5A001F024F908B17F1C03E0BAF1A5
:10500000200F00DA7F1D6D1C95F800A0BAF1000F8B
:1050100002D0781C071EEBD1B9F1000F05D0F91CA6
:105020004846FFF7F6FC064604E0F81CD449096838
:10503000884706460EB90020ADE734464546222093
:1050400004F8010B47E028781F280ADD2878222879
:1050500007D028785C2804D015F8010B04F8010B60
:1050600039E05C2004F8010B15F8011B8A460C2975
:1050700019D006DC082912D0092920D00A2922D10A
:1050800015E00D2917D0222905D05C291BD15C2001
:1050900004F8010B1EE0222004F8010B1AE0622044
:1050A00004F8010B16E0662004F8010B12E06E20F4
:1050B00004F8010B0EE0722004F8010B0AE07420E2
:1050C00004F8010B06E05246B1A1204601F03AFD7A
:1050D000641D00BF00BF28780028B4D1222004F846
:1050E000010B002004F8010B304654E770B504466C
:1050F0000D4629462069FFF700FF70BD00E0401C07
:1051000020B1017811B101782029F8DD70472DE92F
:10511000F04706460C4620787B2804D09E48046061
:105120000020BDE8F0870620F060601CFFF7E6FF76
:10513000044620787D2801D1601CF2E7FFF74DFB83
:105140000546B060B06808B90020EAE72046FFF7DE
:10515000D5FF804641462846FFF7EFFD0746FFF79B
:10516000CDFF04460CB90020DBE728692862002047
:10517000286120783A2803D0874804600020D0E7CF
:10518000601CFFF7BBFF80464146284600F099F8B7
:105190000746FFF7B3FF04460CB90020C1E731E032
:1051A000FFF71BFB071E00D1BBE72F607D603D466C
:1051B000601CFFF7A3FF814649462846FFF7BDFD67
:1051C0008046FFF79BFF04460CB90020A9E7286939
:1051D00028620020286120783A2803D06E480460B5
:1051E00000209EE7601CFFF789FF8146494628465C
:1051F00000F067F88046FFF781FF04460CB90020F5
:105200008FE700BF20782C28CAD020787D2801D1D4
:10521000601C86E760480460002082E72DE9F047C3
:1052200005460C4620785B2804D05B4804600020CB
:10523000BDE8F0870520E860601CFFF75FFF0446CB
:1052400020785D2801D1601CF2E7FFF7C6FA064618
:10525000A860A86808B90020EAE72046FFF74EFFDB
:1052600080464146304600F02CF80746FFF746FFDF
:1052700004460CB90020DBE717E0FFF7AEFA071E83
:1052800000D1D5E737607E603E46601CFFF736FFF1
:1052900081464946304600F014F88046FFF72EFF5D
:1052A00004460CB90020C3E700BF20782C28E4D0C6
:1052B00020785D2801D1601CBAE7374804600020DF
:1052C000B6E770B505460C460CB9002070BD042247
:1052D00032A1204600F0E2FF18B90220E860201D4C
:1052E000F4E705222FA1204600F0D8FF18B90020CE
:1052F000E860601DEAE704222CA1204600F0CEFF02
:1053000020B90120E8606861201DDFE720782228AD
:1053100004D121462846FFF710FDD7E720782D2835
:1053200005D02078302807DB2078392804DC214696
:105330002846FFF788FAC9E720785B2804D1214680
:105340002846FFF76BFFC1E720787B2804D1214670
:105350002846FFF7DCFEB9E70F4804600020B5E7F8
:105360002DE9F04780460D4616460024FFF735FA32
:105370000746002008490860E7B9BDE8F08700004B
:10538000DC07002022220000225C080C0A0D090024
:105390007525303478000000D80700206E756C6CDD
:1053A0000000000066616C73650000007472756532
:1053B000000000004046FFF7A1FE814649463846FE
:1053C000FFF77FFF04462CB93846FFF713FA002099
:1053D000BDE8F08766B12046FFF790FE04462078CE
:1053E00030B13846FFF706FAFE4804600020EFE7C8
:1053F00005B12C603846EBE710B504460022114693
:105400002046FFF7ADFF10BD2DE9FF4F89B088465C
:1054100016461F4600200890079006904FF0070A96
:1054200000250998D0F80890002002900190009083
:1054300004E00298401C0290D9F80090B9F1000FE6
:10544000F7D10298002835D157B116B108F1040000
:1054500000E0032001463846FFF7DBFA069009E03A
:1054600016B108F1040100E003210846DE4909688D
:1054700088470690069818B900200DB0BDE8F08F57
:10548000069C7B2004F8010B66B10A2004F8010B8E
:10549000002503E0092004F8010B6D1CA8F10100B0
:1054A000A842F7DC7D2004F8010B002004F8010B72
:1054B0000698E2E7002F77D0BD680EB1022000E029
:1054C000012082460AF101013846FFF7A2FA04469C
:1054D0000CB90020D1E77B2004F8010B16B10A209B
:1054E00004F8010B00202070B8685044B860099897
:1054F000D0F8089008F1010868E0B6B14146384696
:10550000FFF787FA04460CB90020B6E700200390A5
:1055100005E0092004F8010B0398401C0390039850
:105520004045F6DBB8684044B8603946D9F82000F9
:10553000FFF7E3FC3846FFF7A0FAB8600EB102208F
:1055400000E00120824651463846FFF762FA0446E1
:105550000CB9002091E73A2004F8010B16B109209C
:1055600004F8010BB8685044B8603B4632464146E7
:10557000484600F078FA3846FFF77FFAB8600EB177
:10558000012000E00020D9F8001009B1012100E05D
:10559000002100EB010A0AF101013846FFF739FA50
:1055A000044614B9002068E734E0D9F8000010B1CF
:1055B0002C2004F8010B16B10A2004F8010B00207E
:1055C0002070B8685044B860D9F80090B9F1000F65
:1055D00093D116B108F1010000E0022001463846DF
:1055E000FFF717FA04460CB9002046E74EB1002534
:1055F00003E0092004F8010B6D1CA8F10100A8428A
:10560000F7DC7D2004F8010B002020703868284466
:10561000069005E102998800734909688847089057
:10562000089808B9002028E7029988006E4909689F
:1056300088470790079828B96C49089809688847EF
:1056400000201AE702988100089800F0D0FD029827
:105650008100079800F0CBFD0998D0F8089008F178
:10566000010806B1C2442EE00021D9F82000FFF75E
:1056700044FC0490079941F8250000233246414636
:10568000484600F0F0F929466D1C0590089A42F84A
:105690002100049898B1059888B1059800F0DAFDCA
:1056A0008346049800F0D6FD0BEB0001891C16B16F
:1056B00008F1020000E000200844824401E00120DB
:1056C0000190D9F80090B9F1000FCDD1019820B91F
:1056D00050464549096888470690069808B9012050
:1056E0000190019818B3002514E0079850F82500A0
:1056F00028B1079951F825003C490968884708985E
:1057000050F8250028B1089951F825003749096853
:1057100088476D1C02988542E7DB34490798096881
:10572000884732490898096888470020A5E67B2108
:10573000069801700698441C16B10A2004F8010B63
:1057400000202070002548E05EB10020039005E0B5
:10575000092004F8010B0398401C0390039840456E
:10576000F6DB079951F8250000F074FD00900798CA
:1057700050F825102046009A00F020FD00980444BF
:105780003A2004F8010B16B1092004F8010B08981F
:1057900050F82510204600F078FD089951F82500B2
:1057A00000F058FD04440298401EA84202D02C206C
:1057B00004F8010B16B10A2004F8010B0020207038
:1057C000079951F82500094909688847089951F84F
:1057D00025000649096888476D1C02988542B3DB9D
:1057E000024905E0D8070020DC070020E007002080
:1057F000079809688847F7490898096888474EB1AB
:10580000002503E0092004F8010B6D1CA8F101003C
:10581000A842F7DC7D2004F8010B002004F8010BFE
:1058200006982AE62DE9FF4F85B092461E464FF0B6
:10583000000B052003900598D0F80880D946002574
:1058400000200290019003E009F10109D8F80080DE
:10585000B8F1000FF8D1B9F1000F16D12EB1032124
:105860003046FFF7D6F8834604E00320DA4909689A
:1058700088478346BBF1000F03D0D8A1584600F0FB
:1058800004FD584609B0BDE8F08F002E57D0B5682A
:1058900001213046FFF7BDF804460CB90020F1E7BE
:1058A0005B202070B068401CB0600598D0F808807C
:1058B0002EE0334652460699491C404600F0D3F884
:1058C0003046FFF7DAF8B060D8F80000F0B1BAF16E
:1058D000000F01D0022000E0012003900399491C31
:1058E0003046FFF796F804460CB90020CAE72C2092
:1058F00004F8010BBAF1000F02D0202004F8010BCC
:1059000000202070B16803980844B060D8F8008087
:10591000B8F1000F02D002980028CAD00221304608
:10592000FFF777F804460CB90020ABE75D2004F8D8
:10593000010B00202070306800EB050B91E04FEA6E
:105940008900A5490968884707460FB9002099E7EB
:105950004FEA8901384600F04AFC0598D0F80880E3
:1059600021E0002352460699491C404600F07BF88E
:10597000049029466D1C049847F82100049870B1E2
:10598000049800F067FC801CBAF1000F01D00121DF
:1059900000E00021014403980844039001E0012045
:1059A0000290D8F80080B8F1000F02D002980028C9
:1059B000D7D0029820B98849039809688847834658
:1059C000BBF1000F01D101200290029890B1002597
:1059D00008E057F8250020B157F825007D490968EF
:1059E00088476D1C4D45F4DB38467A49096888477D
:1059F000002047E75B208BF800000BF1010400203A
:105A00002070002521E057F8250000F023FC0190CC
:105A100057F825102046019A00F0D0FB0198044465
:105A2000A9F10100A8420AD02C2004F8010BBAF118
:105A3000000F02D0202004F8010B0020207057F83E
:105A400025006449096888476D1C4D45DBDB3846F5
:105A50006049096888475D2004F8010B002004F8BC
:105A6000010B58460EE72DE9F04104460F469046DB
:105A70001D46002614B90020BDE8F081002D49D054
:105A8000207B072845D2DFE800F0101C04282E34C4
:105A90003C0005212846FEF7BCFF064626B1AFF2C2
:105AA0000471304600F0F1FB33E006212846FEF792
:105AB000B0FF064626B1AFF21471304600F0E5FBA8
:105AC00027E005212846FEF7A4FF064626B1AFF2DF
:105AD0002471304600F0D9FB1BE029462046FEF732
