:020000040800F2
:1000000070100020751A00087503000877030008B7
:100010007B0300087F030008830300080000000042
:10002000000000000000000000000000870300083E
:1000300089030008000000008B0300088D030008FE
:100040008F1A00088F1A00088F1A00088F1A0008EC
:100050008F1A00088F1A00088F1A00088F1A0008DC
:100060008F1A00088F1A00088F1A00088F1A0008CC
:100070008F1A00088F1A00088F1A00088F1A0008BC
:100080008F1A00088F1A00088F1A00088F1A0008AC
:100090008F1A00088F1A00088F1A00088F1A00089C
:1000A0008F1A00088F1A00088F1A00088F1A00088C
:1000B0008F1A00088F1A00088F1A00088F1A00087C
:1000C0008F1A00088F1A00088F1A00088F1A00086C
:1000D0008F1A00081B190008172F00088F1A000834
:1000E0008F1A00088F1A00088F1A00088F1A00084C
:1000F0008F1A00088F1A00088F1A00088F1A00083C
:100100008F1A00088F1A00088F1A00088F1A00082B
:100110008F1A00088F1A00088F1A00088F1A00081B
:100120008F1A00088F1A00088F1A00088F1A00080B
:10013000DFF80CD005F09EFF00480047450100089D
:100140007010002008B50024002501F0FFFA01F02E
:1001500067FB01F050F900F090FA00F009FA4FF453
:10016000E13001F08BFB4FF4E13001F013FC01F0C2
:1001700088FA02F01BFE5DA006F06CF801205F49D2
:1001800008605F49C1F8940104E0092203210020BE
:1001900000F030FB02F072FA0028F6D10A220321A7
:1001A000122000F027FB0B220321242000F022FB69
:1001B0000C220321362000F01DFB0D2203214820D4
:1001C00000F018FB4FF4617001F0FDFA4DA006F04D
:1001D00041F800F052FA88E0681C80B20546B0F59C
:1001E000FA7F77DB4B4801F06AFA012867D10E22CB
:1001F0000421002000F0FEFA0F220421122000F05A
:10020000F9FA45A20421222000F0D9FA102000902A
:100210004048827802230421302000F08EFA2E22FA
:100220000421462000F049FA102000903948C27895
:1002300001230421552000F080FA364842780178E5
:1002400036A006F007F810220221002000F0D2FAB2
:100250000F220221122000F0CDFA2FA2022122202B
:1002600000F0ADFA102000902A48027802231946C7
:10027000302000F062FA25220221462000F01DFA0B
:10028000642001F0A0FA234800782749087021482B
:100290004078264908701F488078254908701D4815
:1002A000C0782449087008460078009020480378F8
:1002B0001E4802781C4801781FA005F0CBFF25A03E
:1002C00005F0C8FF02F09BFA26A005F0C3FF002549
:1002D00002F0EEFC002002F047FD044614B1204677
:1002E00002F0CAFA0A2001F06EFA75E738323636A3
:1002F000B3F5CABCBBAFB3C9B9A60A009401234287
:1003000000802142BDD3C8EB6F6E656E6574B3C9C2
:10031000B9A60000040000203A00000068756D3D99
:1003200025642E25640A0000000000200100002042
:10033000020000200300002068756D2074656D7058
:100340003D2564202E2564202564202E25640D0A79
:1003500000000000BFAACABCB7A2CBCDCAFDBEDD5B
:100360000D0A0000B7A2CBCDCAFDBEDDBDE1CAF8C3
:100370000A000000704700BFFEE700BFFEE700BFB5
:10038000FEE700BFFEE77047704770477047000008
:100390000CB50020019000906C48006840F480305B
:1003A0006A49086000BF6948006800F400300090A6
:1003B0000198401C0190009818B90198B0F5A06F01
:1003C000F1D16248006800F4003010B101200090C3
:1003D00001E0002000900098012843D15C480068AB
:1003E00040F010005A4908600846006820F00300F9
:1003F00008600846006840F0020008605348406802
:10040000524948600846406848600846406840F4E1
:10041000806048600846406820F47C1048600846C8
:10042000406840F4E81048600846006840F080707A
:10043000086000BF4548006800F000700028F9D04F
:100440004248406820F00300404948600846406840
:1004500040F00200486000BF3C48406800F00C00DB
:100460000828F9D10CBD10B5FFF792FF10BD10B5EB
:100470003648006840F0010034490860084640688A
:10048000344908403149486008460068324908400C
:100490002E4908600846006820F48020086008465D
:1004A000406820F4FE0048604FF41F008860FFF7AA
:1004B000DAFF4FF000602949086010BD10B5002137
:1004C00000200022214B5B6803F00C0121B10429BC
:1004D00006D0082928D107E0214B224C236027E0D1
:1004E0001F4B204C236023E0184B5B6803F4701013
:1004F000164B5B6803F48032022303EB904022B971
:10050000194B4343174C23600DE0104B5B6803F419
:10051000003323B1144B4343124C236003E0104BD0
:100520004343104C236003E00D4B0E4C236000BF8F
:1005300000BF064B5B68C3F303130C4CE15C094B33
:100540001B68CB40074C236010BD00000010024028
:10055000002002400000FFF8FFFFF6FE08ED00E07B
:1005600000127A000C00002000093D00100000205D
:1005700008B50121042001F019FE0220ADF80000A9
:1005800010208DF8030003208DF80200694604480E
:1005900001F050FB0221024801F0F9FB08BD000008
:1005A0000008014070B504460E4626B18021F74888
:1005B00001F0EDFB03E08021F44801F0EAFB4FF489
:1005C0000071F24801F0E5FB002517E00221EF4839
:1005D00001F0DFFB04F0800020B10821EB4801F0BE
:1005E000D6FB03E00821E94801F0D3FB0221E748EC
:1005F00001F0CDFB6006040E681CC5B2082DE5DBDA
:100600004FF40071E14801F0C2FB8021DF4801F0A6
:10061000BEFB70BD70B504460D4605F1B001C8B211
:100620000021FFF7BFFF102141EA14100021FFF75E
:10063000B9FF04F00F0141F001000021FFF7B2FF04
:1006400070BD10B500218D20FFF7ACFF00211420F4
:10065000FFF7A8FF0021AF20FFF7A4FF10BD10B5E2
:1006600000218D20FFF79EFF00211020FFF79AFF49
:100670000021AE20FFF796FF10BD70B5002419E0F1
:1006800004F1B001C8B20021FFF78CFF0021084639
:10069000FFF788FF00211020FFF784FF002505E009
:1006A00001210020FFF77EFF681CC5B2802DF7DB1B
:1006B000601CC4B2082CE3DB70BD2DE9F041074695
:1006C0000E46904600250024A8F12000C5B27F2FD9
:1006D00002DD0027B01CC6B231463846FFF79AFF4C
:1006E000002408E004EB0511A94A505C0121FFF742
:1006F00059FF601CC4B2082CF4DB701CC1B2384630
:10070000FFF788FF002409E004EB05110831A04A37
:10071000505C0121FFF746FF601CC4B2082CF3DBDC
:10072000BDE8F08110B50246012000E050430B1EE9
:10073000A1F10104E1B2F9D110BD2DE9FF5F074637
:1007400091461D460E9E4FF0000A002433E0281B00
:10075000401EC1B20A20FFF7E5FFB9FBF0F00A2105
:10076000B0FBF1F201FB1208BAF1000F13D1681EC1
:10077000A04210DDB8F1000F0BD1B34606EBDB71E0
:10078000491001FB0471C8B220220199FFF795FFBF
:100790000FE04FF0010AB34606EBDB71491001FB95
:1007A0000471C8B208F13001CAB20199FFF785FFA0
:1007B00000BF601CC4B2AC42C9DBBDE8FF9F2DE99D
:1007C000F04104460F46154600260EE0AA5D394664
:1007D0002046FFF772FF04F10800C4B2782C02DD56
:1007E0000024B81CC7B2701CC6B2A85D0028EDD1A9
:1007F000BDE8F0812DE9F04180460E461546002700
:1008000031464046FFF706FF00240AE0614A02EB4A
:100810008511085D0121FFF7C5FE781CC7B2601C79
:10082000C4B2102CF2DB701CC1B24046FFF7F2FEDE
:1008300000240CE06900491C564A02EB4111085D96
:100840000121FFF7AFFE781CC7B2601CC4B2102CA8
:10085000F0DBBDE8F0812DE9F05F06460F469046DB
:100860001C46DDF828A04FF0000BE11704EB517196
:10087000C910A4EBC10131B92046E11704EB517155
:10088000C1F3C70506E02046E11704EB5171C9101A
:10089000491CCDB23D4615E029463046FFF7BAFE69
:1008A000B1460BE059460BF1010B1AF8010001218A
:1008B000FFF778FE09F1010000F0FF09C145F1DB07
:1008C000681CC5B2A542E7DBBDE8F09F2DE9F04109
:1008D000054688460027B8F1330F80F08985DFE8A8
:1008E00018F033004C006E008700A000B900D20061
:1008F000EB0004011D0136014F01680181019A01DD
:10090000B301CC01E501FE011702300249028A025F
:10091000A302BC02D502EE020703200339035203EF
:100920006B0384039D03B603CF03E80301041A0499
:1009300033044C046504A604BF04D804F1040A057A
:1009400023053C0555056E052C4612E02146002086
:10095000FFF760FE002608E039467F1C0E4A505C17
:100960000121FFF71FFE701CC6B2802EF4DB601C55
:10097000C4B2601B0228E9DB6EE22C461BE0214674
:100980000020FFF747FE002611E00000000C0140A8
:10099000847A0008200000207480000839467F1CFB
:1009A000F84A505C0121FFF7FDFD701CC6B2802E95
:1009B000F4DB601CC4B2601B0228E0DBDCE72C46E1
:1009C00012E021460020FFF725FE002608E0394608
:1009D0007F1CED4A505C0121FFF7E4FD701CC6B29C
:1009E000802EF4DB601CC4B2601B0228E9DBC3E785
:1009F0002C4612E021460020FFF70CFE002608E0FE
:100A000039467F1CE14A505C0121FFF7CBFD701C89
:100A1000C6B2802EF4DB601CC4B2601B0228E9DB86
:100A2000AAE72C4612E021460020FFF7F3FD00263E
:100A300008E039467F1CD64A505C0121FFF7B2FD21
:100A4000701CC6B2802EF4DB601CC4B2601B02288E
:100A5000E9DB91E72C4612E021460020FFF7DAFDA2
:100A6000002608E039467F1CCA4A505C0121FFF786
:100A700099FD701CC6B2802EF4DB601CC4B2601BF2
:100A80000228E9DB78E72C4612E021460020FFF738
:100A9000C1FD002608E039467F1CBF4A505C012199
:100AA000FFF780FD701CC6B2802EF4DB601CC4B260
:100AB000601B0228E9DB5FE72C4612E0214600209C
:100AC000FFF7A8FD002608E039467F1CB34A505CBA
:100AD0000121FFF767FD701CC6B2802EF4DB601C9D
:100AE000C4B2601B0228E9DB46E72C4612E021462F
:100AF0000020FFF78FFD002608E039467F1CA84A3A
:100B0000505C0121FFF74EFD701CC6B2802EF4DB55
:100B1000601CC4B2601B0228E9DB2DE72C4612E002
:100B200021460020FFF776FD002608E039467F1CAD
:100B30009C4A505C0121FFF735FD701CC6B2802E27
:100B4000F4DB601CC4B2601B0228E9DB14E72C460E
:100B500012E021460020FFF75DFD002608E039463F
:100B60007F1C914A505C0121FFF71CFD701CC6B22E
:100B7000802EF4DB601CC4B2601B0228E9DBFBE6BC
:100B80002C4612E021460020FFF744FD002608E035
:100B900039467F1C854A505C0121FFF703FD701C1C
:100BA000C6B2802EF4DB601CC4B2601B0228E9DBF5
:100BB000E2E62C4612E021460020FFF72BFD00263E
:100BC00008E039467F1C7A4A505C0121FFF7EAFCB5
:100BD000701CC6B2802EF4DB601CC4B2601B0228FD
:100BE000E9DBC9E62C4612E021460020FFF712FDA2
:100BF000002608E039467F1C6E4A505C0121FFF751
:100C0000D1FC701CC6B2802EF4DB601CC4B2601B29
:100C10000228E9DBECE32C4612E021460020FFF736
:100C2000F9FC002608E039467F1C634A505C01212C
:100C3000FFF7B8FC701CC6B2802EF4DB601CC4B297
:100C4000601B0228E9DBD3E32C4612E0214600209A
:100C5000FFF7E0FC002608E039467F1C574A505C4D
:100C60000121FFF79FFC701CC6B2802EF4DB601CD4
:100C7000C4B2601B0228E9DBBAE32C4612E021462D
:100C80000020FFF7C7FC002608E039467F1C4C4ACD
:100C9000505C0121FFF786FC701CC6B2802EF4DB8D
:100CA000601CC4B2601B0228E9DBA1E32C4612E001
:100CB00021460020FFF7AEFC002608E039467F1CE5
:100CC000404A505C0121FFF76DFC701CC6B2802EBB
:100CD000F4DB601CC4B2601B0228E9DB88E32C460D
:100CE00012E021460020FFF795FC002608E0394677
:100CF0007F1C354A505C0121FFF754FC701CC6B2C2
:100D0000802EF4DB601CC4B2601B0228E9DB6FE3B9
:100D10002C4612E021460020FFF77CFC002608E06C
:100D200039467F1C294A505C0121FFF73BFC701CAF
:100D3000C6B2802EF4DB601CC4B2601B0228E9DB63
:100D400056E32C4612E021460020FFF763FC002604
:100D500008E039467F1C1E4A505C0121FFF722FC47
:100D6000701CC6B2802EF4DB601CC4B2601B02286B
:100D7000E9DB3DE32C463AE021460020FFF74AFC40
:100D8000002630E074810008748200087483000833
:100D9000748400087485000874860008748700084D
:100DA0007488000874890008748A0008748B00082D
:100DB000748C0008748D0008748E0008748F00080D
:100DC00074900008749100087492000874930008ED
:100DD0007494000839467F1CF84A505C0121FFF7E3
:100DE000E1FB701CC6B2802EF4DB601CC4B2601B39
:100DF0000228C1DBFCE22C4612E021460020FFF76E
:100E000009FC002608E039467F1CED4A505C0121B0
:100E1000FFF7C8FB701CC6B2802EF4DB601CC4B2A6
:100E2000601B0228E9DBE3E22C4612E021460020A9
:100E3000FFF7F0FB002608E039467F1CE14A505CD2
:100E40000121FFF7AFFB701CC6B2802EF4DB601CE3
:100E5000C4B2601B0228E9DBCAE22C4612E021463C
:100E60000020FFF7D7FB002608E039467F1CD64A52
:100E7000505C0121FFF796FB701CC6B2802EF4DB9C
:100E8000601CC4B2601B0228E9DBB1E22C4612E010
:100E900021460020FFF7BEFB002608E039467F1CF4
:100EA000CA4A505C0121FFF77DFB701CC6B2802E40
:100EB000F4DB601CC4B2601B0228E9DB98E22C461C
:100EC00012E021460020FFF7A5FB002608E0394686
:100ED0007F1CBF4A505C0121FFF764FB701CC6B247
:100EE000802EF4DB601CC4B2601B0228E9DB7FE2C9
:100EF0002C4612E021460020FFF78CFB002608E07C
:100F000039467F1CB34A505C0121FFF74BFB701C34
:100F1000C6B2802EF4DB601CC4B2601B0228E9DB81
:100F200066E22C4612E021460020FFF773FB002604
:100F300008E039467F1CA84A505C0121FFF732FBCC
:100F4000701CC6B2802EF4DB601CC4B2601B022889
:100F5000E9DB4DE22C4612E021460020FFF75AFB68
:100F6000002608E039467F1C9C4A505C0121FFF7AF
:100F700019FB701CC6B2802EF4DB601CC4B2601B6F
:100F80000228E9DB34E22C4612E021460020FFF77C
:100F900041FB002608E039467F1C914A505C012144
:100FA000FFF700FB701CC6B2802EF4DB601CC4B2DD
:100FB000601B0228E9DB1BE22C4612E021460020E0
:100FC000FFF728FB002608E039467F1C854A505C65
:100FD0000121FFF7E7FA701CC6B2802EF4DB601C1B
:100FE000C4B2601B0228E9DB02E22C4612E0214673
:100FF0000020FFF70FFB002608E039467F1C7A4AE5
:10100000505C0121FFF7CEFA701CC6B2802EF4DBD3
:10101000601CC4B2601B0228E9DBE9E12C4612E047
:1010200021460020FFF7F6FA002608E039467F1C2B
:101030006E4A505C0121FFF7B5FA701CC6B2802ED3
:10104000F4DB601CC4B2601B0228E9DBD0E12C4653
:1010500012E021460020FFF7DDFA002608E03946BD
:101060007F1C634A505C0121FFF79CFA701CC6B2DA
:10107000802EF4DB601CC4B2601B0228E9DBB7E100
:101080002C4612E021460020FFF7C4FA002608E0B3
:1010900039467F1C574A505C0121FFF783FA701CC8
:1010A000C6B2802EF4DB601CC4B2601B0228E9DBF0
:1010B0009EE12C4612E021460020FFF7ABFA002605
:1010C00008E039467F1C4C4A505C0121FFF76AFA60
:1010D000701CC6B2802EF4DB601CC4B2601B0228F8
:1010E000E9DB85E12C4612E021460020FFF792FA69
:1010F000002608E039467F1C404A505C0121FFF77A
:1011000051FA701CC6B2802EF4DB601CC4B2601BA6
:101110000228E9DB6CE12C4612E021460020FFF7B3
:1011200079FA002608E039467F1C354A505C0121D7
:10113000FFF738FA701CC6B2802EF4DB601CC4B214
:10114000601B0228E9DB53E12C4612E02146002017
:10115000FFF760FA002608E039467F1C294A505CF8
:101160000121FFF71FFA701CC6B2802EF4DB601C51
:10117000C4B2601B0228E9DB3AE12C4612E02146AA
:101180000020FFF747FA002608E039467F1C1E4A78
:10119000505C0121FFF706FA701CC6B2802EF4DB0A
:1011A000601CC4B2601B0228E9DB21E12C463AE056
:1011B00021460020FFF72EFA002630E07495000843
:1011C00074960008749700087498000874990008D1
:1011D000749A0008749B0008749C0008749D0008B1
:1011E000749E0008749F000874A0000874A1000891
:1011F00074A2000874A3000874A4000874A5000871
:1012000074A6000874A7000874A8000839467F1C5B
:10121000CF4A505C0121FFF7C5F9701CC6B2802E81
:10122000F4DB601CC4B2601B0228C1DBE0E02C468A
:1012300012E021460020FFF7EDF9002608E03946CC
:101240007F1CC44A505C0121FFF7ACF9701CC6B288
:10125000802EF4DB601CC4B2601B0228E9DBC7E00F
:101260002C4612E021460020FFF7D4F9002608E0C2
:1012700039467F1CB84A505C0121FFF793F9701C76
:10128000C6B2802EF4DB601CC4B2601B0228E9DB0E
:10129000AEE02C4612E021460020FFF7BBF9002605
:1012A00008E039467F1CAD4A505C0121FFF77AF90E
:1012B000701CC6B2802EF4DB601CC4B2601B022816
:1012C000E9DB95E02C4612E021460020FFF7A2F969
:1012D000002608E039467F1CA14A505C0121FFF737
:1012E00061F9701CC6B2802EF4DB601CC4B2601BB6
:1012F0000228E9DB7CE02C4612E021460020FFF7C3
:1013000089F9002608E039467F1C964A505C012185
:10131000FFF748F9701CC6B2802EF4DB601CC4B223
:10132000601B0228E9DB63E02C4612E02146002026
:10133000FFF770F9002608E039467F1C8A4A505CA6
:101340000121FFF72FF9701CC6B2802EF4DB601C60
:10135000C4B2601B0228E9DB4AE02C4612E02146B9
:101360000020FFF757F9002608E039467F1C7F4A26
:10137000505C0121FFF716F9701CC6B2802EF4DB19
:10138000601CC4B2601B0228E9DB31E02C4612E08D
:1013900021460020FFF73EF9002608E039467F1C71
:1013A000734A505C0121FFF7FDF8701CC6B2802E15
:1013B000F4DB601CC4B2601B0228E9DB18E02C4699
:1013C00012E021460020FFF725F9002608E0394603
:1013D0007F1C684A505C0121FFF7E4F8701CC6B21C
:1013E000802EF4DB601CC4B2601B0228E9DB00BF66
:1013F00000BFBDE8F08108B50121084600F0D6FE27
:1014000001215D4800F0E7FC01211C2000F0CEFE28
:1014100040F2AA20ADF8000010208DF80300032050
:101420008DF802006946554800F004FC40F2AA21FC
:10143000534800F0ACFC2021504800F0A8FC642088
:1014400000F0C1F920214D4800F0A3FC642000F019
:10145000BAF92021494800F09AFC0021AE20FFF79C
:10146000A1F800210846FFF79DF800211020FFF7A2
:1014700099F800214020FFF795F800218120FFF71F
:1014800091F80021CF20FFF78DF80021A120FFF770
:1014900089F80021C820FFF785F80021A620FFF772
:1014A00081F80021A820FFF77DF800213F20FFF7F9
:1014B00079F80021D320FFF775F800210846FFF7DF
:1014C00071F80021D520FFF76DF800218020FFF78B
:1014D00069F80021D920FFF765F80021F120FFF716
:1014E00061F80021DA20FFF75DF800211220FFF7F4
:1014F00059F80021DB20FFF755F800214020FFF7C5
:1015000051F800212020FFF74DF800210220FFF7BD
:1015100049F800218D20FFF745F800211420FFF73E
:1015200041F80021A420FFF73DF80021A620FFF795
:1015300039F80021AF20FFF735F80021AF20FFF781
:1015400031F8FFF79AF800210846FFF763F808BD65
:1015500074A9000874AA000874AB000874AC0008F1
:1015600074AD000874AE000874AF000874B00008D1
:1015700074B1000874B2000800023000000C014091
:101580000010014010B56E48006820F470206C49CE
:1015900008600846006840F440300860002069494F
:1015A0000860142000F00FF901206749C1F8B0016C
:1015B0001E2000F0E4F810BD10B50024604800685B
:1015C00020F470205E4908600846006840F400205E
:1015D000086004E0601CC4B2012000F0D0F8594853
:1015E0008038006808B1642CF4DB642C01DB012036
:1015F00010BD002404E0601CC4B2012000F0BFF85C
:1016000050488038006808B9642CF4DB642C01DB96
:101610000120EDE70020EBE710B5002404E0601C9A
:10162000C4B2012000F0ABF846488038006808B129
:10163000642CF4DB002404E0601CC4B2012000F040
:101640009EF840488038006808B9642CF4DB2820F4
:1016500000F095F83B488038006808B1012010BDC3
:101660000020FCE770B50024002506E06006040EAB
:10167000FFF7D2FF0443681CC5B2082DF6DB2046F5
:1016800070BD08B50121082000F090FD4FF4805096
:10169000ADF8000010208DF8030003208DF8020043
:1016A00069462748001F00F0C5FA02212448001FA0
:1016B00000F06DFBFFF766FFFFF77EFF08BD7CB50E
:1016C0000446FFF75FFFFFF777FF40BB002505E00B
:1016D000FFF7C8FF0DF80500681CC5B2052DF7DB44
:1016E0009DF800009DF8011008449DF80210084480
:1016F0009DF8031008449DF80410884211D19DF80C
:10170000000020709DF8010060709DF80200A0703C
:101710009DF80300E0709DF80400207101E00120B5
:101720007CBD207861780844A1780844E1780844B9
:101730002179884201D10120F2E70020F0E7000082
:10174000040C0140B08121420080214210B56FF0AD
:10175000040000F0F0F92E4800682E49B0FBF1F0CB
:101760002D4908700846007800EB4001C1EBC0101D
:101770004FF6FF7101EAC0002849088010BD0146FC
:10178000254A12784A434FF0E0235A6100229A61B9
:101790001A46126942F001021A6100BF4FF0E022BE
:1017A000106900F001021AB100F48032002AF5D06D
:1017B0004FF0E022126922F001024FF0E0231A619B
:1017C00000229A6170470146144A12884A434FF03A
:1017D000E0235A6100229A611A46126942F001021E
:1017E0001A6100BF4FF0E022106900F001021AB147
:1017F00000F48032002AF5D04FF0E022126922F086
:1018000001024FF0E0231A6100229A617047000044
:101810000C00002000127A00A0070020A207002080
:1018200010B54FF4A06000F037F910BD014600BFBD
:10183000704700BF7D4A128802F04002002AF9D0AA
:10184000C2B27A4B1B1D1A8070472DE9F041074642
:101850000C46154600260DE014F8011B384600F032
:1018600045FE00BF4021384600F0AEFE0028F9D00A
:10187000701C86B2AE42EFDBBDE8F08110B586B0D9
:101880000446012144F2050000F090FC4FF4007082
:10189000ADF8140003208DF8160018208DF81700FD
:1018A00005A9634800F0C6F94FF48060ADF8140054
:1018B00004208DF8170005A95D4800F0BBF925202C
:1018C0008DF8000003208DF801008DF80200012042
:1018D0008DF80300684600F0E4F801940020ADF8AC
:1018E0000800ADF80A00ADF80C00ADF810000C20AF
:1018F000ADF80E0001A94D4800F0FFFC012240F2B6
:1019000025514A4800F091FD0121484800F081FD31
:1019100048A004F09FFC06B010BD10B540F2255160
:10192000424800F067FE10B3404800F0E3FDC4B247
:101930004648008800F40040C8B94448008800F4D4
:10194000804060B10A2C03D000204049088020E08C
:101950003E48008840F400403C49088019E00D2CC6
:1019600006D13A48008840F480403849088010E0A9
:1019700036480088C0F30D0035490C5433480088C0
:10198000401C3249088008460088C72801DD002035
:10199000088010BD10B586B0044601212D4800F026
:1019A00012FC0420ADF8140003208DF81600182056
:1019B0008DF8170005A91E4800F03CF90820ADF885
:1019C000140004208DF8170005A9194800F032F919
:1019D00026208DF8000002208DF801008DF802000D
:1019E00001208DF80300684600F05BF801940020A8
:1019F000ADF80800ADF80A00ADF80C00ADF8100025
:101A00000C20ADF80E0001A9134800F076FC01226D
:101A100040F22551104800F008FD01210E4800F069
:101A2000F8FC0EA004F016FC06B010BD0038014012
:101A3000000801407573617274315F696E69745F8B
:101A4000737563636573730D0A000000A8070020B7
:101A5000E007002005000200004400407573617239
:101A600074325F696E69745F737563636573730D58
:101A70000A0000000648804706480047FEE7FEE7E8
:101A8000FEE7FEE7FEE7FEE7FEE7FEE7FEE7FEE72E
:101A90006F0400083101000831490143314A1160E7
:101AA000704770B5002100230F22C47804B32D4C79
:101AB000246804F4E064C4F5E064210AC1F104037D
:101AC000CA40447804FA03F18478144021430901A0
:101AD000254C0678A155047804F01F050124AC407C
:101AE00005786D11AD0005F1E025C5F8004109E06C
:101AF000047804F01F050124AC401C4D06787611D3
:101B000045F8264070BD1A4A0A400243154B1B1F78
:101B10001A60704739B1134A121D12680243114B03
:101B20001B1D1A6006E00F4A121D126882430D4BFE
:101B30001B1D1A607047042808D14FF0E021096985
:101B400041F004014FF0E022116107E04FF0E02185
:101B5000096921F004014FF0E02211617047000093
:101B60000000FA050CED00E000E400E080E100E098
:101B700080FFFF1F10B50446CC48844208D10121E4
:101B8000042000F02DFB0021042000F029FB46E09A
:101B9000C748844208D10121082000F021FB002120
:101BA000082000F01DFB3AE0C248844208D1012120
:101BB000102000F015FB0021102000F011FB2EE09A
:101BC000BD48844208D10121202000F009FB0021FA
:101BD000202000F005FB22E0B848844208D1012112
:101BE000402000F0FDFA0021402000F0F9FA16E054
:101BF000B348844208D10121802000F0F1FA00218D
:101C0000802000F0EDFA0AE0AE48844207D10121BD
:101C1000801500F0E5FA0021A01500F0E1FA10BDF2
:101C200010B50121084600F0DBFA0021012000F088
:101C3000D7FA10BD2DE9F04102460025002600200C
:101C400000230024002791F803C00CF00F0591F841
:101C500003C00CF0100CBCF1000F03D091F802C0CF
:101C60004CEA050591F800C0BCF1000F31D01468B2
:101C700000202BE04FF0010C0CFA00F3B1F800C08B
:101C80000CEA03069E4220D183004FF00F0C0CFAA1
:101C900003F7BC4305FA03FC4CEA040491F803C0C3
:101CA000BCF1280F06D14FF0010C0CFA00FCC2F871
:101CB00014C00AE091F803C0BCF1480F05D14FF001
:101CC000010C0CFA00FCC2F810C0401C0828D1D34B
:101CD0001460B1F800C0BCF1FF0F34DD546800207F
:101CE0002EE000F1080C4FF0010808FA0CF3B1F8EF
:101CF00000C00CEA03069E4221D183004FF00F0C76
:101D00000CFA03F7BC4305FA03FC4CEA040491F80F
:101D100003C0BCF1280F05D100F1080C08FA0CF83B
:101D2000C2F8148091F803C0BCF1480F07D100F14C
:101D3000080C4FF0010808FA0CF8C2F81080401C9B
:101D40000828CED35460BDE8F0814FF6FF710180C2
:101D5000022181700421C1707047024600209368FF
:101D60000B400BB1012000E000207047014688685D
:101D700080B2704702460020D3680B400BB10120AF
:101D800000E0002070470146C86880B270470161DA
:101D90007047416170470AB1016100E041617047DD
:101DA000C16070474FF480320A4382618161826171
:101DB00082698269704702460020434B18684FF6DB
:101DC0008073184040EA021008433F4B1860704788
:101DD0003E49C8617047F0B50A460023002400213F
:101DE000002500F00046B6F1004F02D1364EF169F1
:101DF00001E0354E7168C0F3034583B200F440162C
:101E0000B6F5401F08D121F070612F4E766826F09C
:101E100070662D4F7E6012E000F48016B6F5801FCC
:101E200006D1032606FA05F4A14341F0706106E0ED
:101E3000460D360103FA06F6B14341F0706122B156
:101E4000460D360103FA06F6314300F00046B6F1BE
:101E5000004F02D11C4EF16101E01B4E7160F0BDDC
:101E600030B500228B071C0F0F2303FA04F2164B28
:101E700008338C1053F824309343134C08348D10DE
:101E800044F8253023468C1053F824308C07240F57
:101E900000FA04F423430C4C08348D1044F8253028
:101EA00030BD0A49DC31086070470000000801407D
:101EB000000C0140001001400014014000180140D6
:101EC000001C0140002001400000014000002042B1
:101ED000DF48006840F00100DD49086008464068BE
:101EE000DC490840DA49486008460068DA49084099
:101EF000D74908600846006820F48020086008463A
:101F0000406820F4FE0048604FF41F00886070476E
:101F1000CF49096821F48031CD4A11601146096822
:101F200021F480211160B0F5803F03D0B0F5802FFF
:101F30000ED106E0C649096841F48031C44A1160F7
:101F400007E0C349096841F4A021C14A116000E0DB
:101F500000BF00BF704710B50146002200230020DB
:101F60004A11012A02D1BA4C236806E0022A02D1A2
:101F7000B74C236A01E0B64C636A01F01F020124EA
:101F800094401C400CB1012000E0002010BD38B589
:101F9000002000900024002500BF3120FFF7DBFF68
:101FA00005460098401C00900098B0F5A06F01D045
:101FB000002DF2D03120FFF7CEFF08B1012400E060
:101FC0000024204638BD01460020A14A106820F0B8
:101FD000F80040EAC10010607047A04908607047EF
:101FE000024600209A4B586820F47C1042EA010314
:101FF0001843974B586070479849086670470146E8
:102000000020934A506820F0030008435060704756
:102010008F48406800F00C007047014600208C4A51
:10202000506820F0F00008435060704701460020DF
:10203000874A506820F4E0600843506070470146CA
:102040000020834A506820F4605040EAC10050608C
:10205000704729B17E4A527A02437D4B5A7204E09E
:102060007B4A527A82437A4B5A7270477B49D83105
:102070000860704701460020754A506820F44040CF
:102080000843506070470021714A20321170704A35
:1020900082F82010012802D004280AD104E001218E
:1020A0006B4A2032117005E00521694A2032117017
:1020B00000E000BF00BF704769490860704764498D
:1020C000096A0143624A11627047654944390860F0
:1020D000704730B500210022002400235C4D6D685C
:1020E00005F00C0121B1042905D0082923D105E010
:1020F0005C4D056022E05B4D05601FE0544D6D684E
:1021000005F47012524D6D6805F48034022505EB1C
:1021100092421CB9544D554305600BE04C4D6D681F
:1021200005F400351DB1504D5543056002E04D4D9D
:102130005543056002E04B4D056000BF00BF444DB4
:102140006D6805F0F0010909484D6B5C0568DD40DC
:1021500045603F4D6D6805F4E061090A434D6B5CD5
:102160004568DD4085603A4D6D6805F46051C90AE7
:102170003E4D6B5C4568DD40C560354D6D6805F4CE
:102180004041890B3A4D6B5CC568B5FBF3F50561C1
:1021900030BD29B12E4A526902432D4B5A6104E0E9
:1021A0002B4A526982432A4B5A61704729B1284A07
:1021B00092690243264B9A6104E0254A9269824360
:1021C000234B9A61704729B1214AD2690243204BBF
:1021D000DA6104E01E4AD26982431D4BDA6170471E
:1021E00029B11B4AD2680243194BDA6004E0184A4D
:1021F000D2688243164BDA60704729B1144A1269DB
:102200000243134B1A6104E0114A12698243104BD6
:102210001A61704712494039086070470F49C86415
:1022200070470B49C87170470948406A40F0807098
:1022300007494862704701460020054A92680A40F3
:102240000AB1012000E00020704701498872704700
:10225000001002400000FFF8FFFFF6FE00004242BF
:102260008004424200127A0000093D00AC070020C1
:10227000BC07002010B50446FB48844209D1012167
:102280008803FFF7ADFF00214FF48040FFF7A8FF60
:1022900032E0F648844209D101214804FFF7ADFF3E
:1022A00000214FF40030FFF7A8FF25E0F0488442FA
:1022B00009D101218804FFF7A0FF00214FF48020FD
:1022C000FFF79BFF18E0EB48844209D10121C804C5
:1022D000FFF793FF00214FF40020FFF78EFF0BE084
:1022E000E548844208D101210805FFF786FF002157
:1022F0004FF48010FFF781FF10BD2DE9F04786B045
:1023000005460E460024A24600BFA1460027B0891C
:1023100000B100BF2F462C8A4CF6FF700440F088B5
:1023200004432C82AC894EF6F3100440B088318906
:102330000843718908430443AC81AC8A4FF6FF40DF
:102340000440B0890443AC8201A8FFF7C2FEC6482E
:10235000874202D1DDF810A001E0DDF80CA0A889C9
:1023600000F4004040B10AEBCA0000EB0A103168EB
:102370004900B0FBF1F807E00AEBCA0000EB0A10D5
:1023800031688900B0FBF1F86420B8FBF0F004017B
:102390002009642101FB1089A88900F4004040B1A4
:1023A000322000EBC900B0FBF1F000F0070004435D
:1023B00008E0322000EB09106421B0FBF1F000F0DE
:1023C0000F0004432C8106B0BDE8F0874FF416518E
:1023D000016000218180C18001810C2141810021A7
:1023E0008181704710B502460020108A4FF2FF032A
:1023F00018400B884C8823438C882343CC88234384
:102400001843108210BD0021018041808180C1806D
:10241000704721B1828942F40052828104E08289AE
:102420004DF6FF731A4082817047F0B503460024D1
:1024300000260025002040F66A17B94200D100BFEF
:102440001846C1F3421401F01F06012707FA06F5EA
:10245000012C01D10C3004E0022C01D1103000E03D
:1024600014301AB107682F43076002E00768AF43D2
:102470000760F0BD1AB1838A0B43838202E0838A2E
:102480008B4383827047028A4FF6F0731A400282B0
:10249000028A0A430282704782894FF2FF731A4010
:1024A000828182890A438281704721B1828942F008
:1024B0000202828104E082894FF6FD731A40828114
:1024C0007047028A4FF6DF731A400282028A0A437B
:1024D0000282704721B1028A42F48042028204E003
:1024E000028A4BF6FF731A4002827047C1F308025A
:1024F0008280704701468888C0F308007047818950
:1025000041F0010181817047028BD2B20283028BBC
:1025100042EA012202837047028B02F47F42028367
:10252000028B0A430283704721B1828A42F0200263
:10253000828204E0828A4FF6DF731A4082827047FB
:1025400021B1828A42F01002828204E0828A4FF630
:10255000EF731A408282704721B1828A42F00802EA
:10256000828204E0828A4FF6F7731A4082827047B3
:1025700021B1828942F40042828103E08289C2F360
:102580000E028281704721B1828A42F40062828207
:1025900004E0828A4FF2FF731A4082827047828A77
:1025A0004FF6FB731A408282828A0A438282704706
:1025B00021B1828A42F00202828204E0828A4FF6CE
:1025C000FD731A408282704702460020B1F5007FF9
:1025D00000D100BF13880B400BB1012000E00020A8
:1025E000704701F40072B2F5007F00D100BFCA430A
:1025F0000280704770B502460024002300250020A9
:1026000040F66A16B14200D100BFC1F3421501F095
:102610001F03012606FA03F3012D02D196893340E8
:1026200006E0022D02D1168A334001E0968A33403B
:102630000C12012606FA04F41688344013B10CB1CA
:10264000012000E0002070BD10B50022002340F6FC
:102650006A14A14200D100BF0A1201249440A3B21F
:10266000DC43048010BD00000038014000440040FD
:1026700000480040004C00400050004030B58BB096
:1026800000200790089009900A900125D8A3DBA2AA
:10269000DCA1DEA003F0DEFD07A80021029103917A
:1026A000CDE9041000912B02D1A20191D3A1D5A0B4
:1026B00000F081FD00283BD1089A91B2079800F004
:1026C0003CFBFA2000F050FB0446002C2CD02046A6
:1026D00000F03CFD022827D1204600F0D1FE06285C
:1026E0001DD2DFE800F003080C101418D3A003F08B
:1026F000B1FD002517E0D6A003F0ACFD13E0DBA090
:1027000003F0A8FD0FE0E2A003F0A4FD0BE0E8A0B9
:1027100003F0A0FD07E0EFA003F09CFD03E0F8A0AC
:1027200003F098FD00BF00BF07A800F0C7FC02E05F
:10273000FAA003F08FFD28460BB030BD10B588B06D
:1027400004462021FE48FFF708FBFE4908702021BF
:10275000FD48FFF702FBFD4908700121FCA003F0D2
:1027600079FD2021684603F0DAF8FEA1204603F047
:1027700024F92021684603F0D2F8FB480378FB488F
:102780000278FBA1684603F075FD6946204603F018
:10279000D1F82021684603F0C2F8FA480378FA48D5
:1027A0000278FAA1684603F065FD6946204603F009
:1027B000C1F82021684603F0B2F8E2480278F7A198
:1027C000684603F057FD6946204603F0B3F8202120
:1027D000684603F0A4F8DD480278F3A1684603F0E8
:1027E00049FD6946204603F0A5F82146F1A003F013
:1027F00031FD204603F0C6F8C0B208B010BD30B5B8
:10280000A5B0002021902290239024900024002540
:10281000ECA003F01FFD802101A803F080F801A8BF
:10282000FFF78CFF0446002C24D021A805230022AA
:10283000214600906EA000F014FFC0B908E001A886
:10284000415D229A501C229021988154681C05B247
:10285000A542F4DB229A91B2219800F06EFAE1A031
:10286000229903F0F7FC21A800F028FC02E0E1A087
:1028700003F0F0FC25B030BD2DE9F14F8CB0002005
:10288000089009900A900B900790069005900027F9
:102890008046002483460C9800F058FC0746042F1D
:1028A0006BD00F2F72D105AB07AA06A90C9800F0C8
:1028B00064FF8046B8F1000F5ED1BDF81430D5A09A
:1028C000DDE9061203F0C6FC079802F02DF98146F7
:1028D000B9F1000F07D101F0C3FA01460190D6A06B
:1028E00003F0B8FC12E0D9A1484602F023FD0546EA
:1028F0006869012804D10221D648FFF748FA05E0AB
:10290000686918B90221D348FFF743FA079802F023
:102910000BF98246BAF1000F07D101F0A1FA014686
:102920000190C5A003F096FC0FE0CBA1504602F049
:1029300001FD06467069012802D1C949086004E01A
:10294000706910B90020C649086008AADDE90601CF
:1029500000F059FF50B9C3A003F07CFC099A91B272
:10296000089800F0EAF908A800F0A8FB484601F032
:10297000D9FA504601F0D6FA0BE00C9801F0ADF907
:1029800010B9BEA003F066FC03E0FFE74FF0FF388C
:1029900000BF00BF00F08CF908F1010010B90DB0C4
:1029A000BDE8F08F7D21079802F0E2FF0446CCB12C
:1029B00008F10100B0B1641C06E014F8012B584680
:1029C0000BF1010B02A90A542078302802DB207891
:1029D0003928F2DD002002A901F80B0002A803F05B
:1029E00004F883460F2F01D0032F57E157E1000071
:1029F0003130373137313637353700003132333403
:102A00003536000035393435343400004F6E654EAC
:102A100065745F4465764C696E6B0D0A50524F4980
:102A2000443A2025732C09415549463A2025732CF8
:102A30000944455649443A25730D0A005469707398
:102A40003A09C1ACBDD3B3C9B9A60D0A0000000054
:102A50005741524E3A09C1ACBDD3CAA7B0DCA3BAA4
:102A6000D0ADD2E9B4EDCEF30D0A00005741524E7D
:102A70003A09C1ACBDD3CAA7B0DCA3BAB7C7B7A8DF
:102A8000B5C4636C69656E7469640D0A000000006A
:102A90005741524E3A09C1ACBDD3CAA7B0DCA3BA64
:102AA000B7FECEF1C6F7CAA7B0DC0D0A00000000E1
:102AB0005741524E3A09C1ACBDD3CAA7B0DCA3BA44
:102AC000D3C3BBA7C3FBBBF2C3DCC2EBB4EDCEF3F5
:102AD0000D0A00005741524E3A09C1ACBDD3CAA7F6
:102AE000B0DCA3BAB7C7B7A8C1B4BDD328B1C8C8B2
:102AF000E7746F6B656EB7C7B7A8290D0A000000B1
:102B00004552523A09C1ACBDD3CAA7B0DCA3BACE74
:102B1000B4D6AAB4EDCEF30D0A0000005741524ED0
:102B20003A094D5154545F5061636B6574436F6E45
:102B30006E656374204661696C65640D0A0000006F
:102B4000000C0140C107002000180140C20700200E
:102B50004C4544305F464C41475F545950453D25F4
:102B6000640A00002C3B000003000020020000204B
:102B700054656D707265747572652C25642E2564BC
:102B80003B000000010000200000002048756D6936
:102B9000646974792C25642E25643B004C454430CF
:102BA0002C25643B000000004C4544312C25643B3F
:102BB000000000006275665F6D7174743D25730DD1
:102BC0000A000000546970733A094F6E654E6574CF
:102BD0005F53656E64446174612D4D5154540D0A08
:102BE0000000000053656E642025642042797465FE
:102BF000730D0A005741524E3A094544505F4E65E5
:102C000077427566666572204661696C65640D0A77
:102C100000000000636D6469643A2025732C207203
:102C200065713A2025732C207265715F6C656E3A70
:102C30002025640D0A0000004572726F72206265E3
:102C4000666F72653A205B25735D0A004C4544301F
:102C500000000000000801404C4544310000000025
:102C600094012342546970733A0953656E6420439A
:102C70006D64526573700D0A000000005469707332
:102C80003A094D515454205075626C697368205351
:102C9000656E64204F4B0D0A0000000005D10698B8
:102CA00004F06CF8079804F069F800BF77E60000BC
:102CB00010B54FF48071A74802F031FE0020A649FC
:102CC000088010BDA448008808B901207047A248B8
:102CD0000088A2490988884203D100209E490880C3
:102CE000F4E79D4800889D4908800120EEE72DE922
:102CF000F04104460D46C826204602F043FE87B246
:102D00003A4621469648FEF7A0FD0FE0FFF7DAFFAE
:102D100048B929468F4802F019FE20B1FFF7C8FFD5
:102D20000020BDE8F0810A20FEF74DFD301EA6F11F
:102D30000101CEB2EAD10120F3E730B589B00446F3
:102D40000D46FFF7B5FF2A4686A101A803F092FAC7
:102D500088A101A8FFF7CBFF20B92A462146804869
:102D6000FEF773FD09B030BD70B50546002400BF05
:102D7000FFF7A8FF80B980A1764802F0E7FD04467E
:102D800054B13A21204602F0F3FD044614B1641C0C
:102D9000204670BD0020FCE70520FEF714FD281E2C
:102DA000A5F101018DB2E3D100BFF2E738B50121F1
:102DB0000420FFF7FBF910208DF803004002ADF866
:102DC000000003208DF8020069466D48FEF732FFCF
:102DD00000224FF400516A48FEF7DDFFFA20FEF7AB
:102DE000F2FC012251036648FEF7D5FF4FF4FA705A
:102DF000FEF7E9FCFFF75CFFFDF73FFC052202212F
:102E00001420FDF7F7FC062202212620FDF7F2FC34
:102E1000072202213820FDF7EDFC082202214A207A
:102E2000FDF7E8FC57A003F015FA002404E0E1B236
:102E30000620FDF74BFD641C0A2CF8DB03E04FF481
:102E4000FA70FEF7C0FC51A151A0FFF750FF002817
:102E5000F5D151A003F0FEF9002404E0E1B2062010
:102E6000FDF734FD641C142CF8DB03E04FF4FA701A
:102E7000FEF7A9FC45A14BA0FFF739FF0028F5D1CB
:102E80004CA003F0E7F9002404E0E1B20620FDF7CE
:102E90001DFD641C1E2CF8DB03E04FF4FA70FEF7F6
:102EA00092FC3AA147A0FFF722FF0028F5D149A0E4
:102EB00003F0D0F9002404E0E1B20620FDF706FD9E
:102EC000641C282CF8DB03E04FF4FA70FEF77BFC5F
:102ED00043A145A0FFF70BFF0028F5D14AA003F05E
:102EE000B9F9002404E0E1B20620FDF7EFFC641C10
:102EF000322CF8DB03E04FF4FA70FEF764FC46A1D5
:102F000047A0FFF7F4FE0028F5D150A003F0A2F986
:102F1000FDF7B3FB38BD10B540F225511048FFF75F
:102F200069FBB0B10C480088FF2802D900200A498B
:102F300008800B48001D0088C1B20748028800883D
:102F4000401C054B18800348815420210448FFF79A
:102F500048FB10BD70090020C4070020C6070020F0
:102F60000044004041542B43495053454E443D25B5
:102F7000640D0A003E0000004950442C000000008F
:102F800000100140312E2041540D0A004F4B00002B
:102F900041540D0A00000000322E2043574D4F448B
:102FA000450D0A0041542B43574D4F44453D310DCB
:102FB0000A000000332E2041542B4357444843500D
:102FC0000D0A000041542B4357444843503D312CD7
:102FD000310D0A00342E2043574A41500D0A00009B
:102FE000474F54204950000041542B43574A415009
:102FF0003D226C637330333330222C22313939391E
:1030000031313139220D0A00352E204349505354B5
:103010004152540D0A000000434F4E4E45435400A8
:1030200041542B43495053544152543D2254435030
:10303000222C223138332E3233302E34302E333995
:10304000222C363030320D0A00000000362E20458A
:1030500053503832363620496E6974204F4B0D0A72
:103060000000000070B504460E460025206898B99F
:1030700001202073304603F0A9FE20602068E0B1F3
:1030800000206060A66003E00020216848556D1CA8
:10309000A068A842F8D810E00220207303E00020C6
:1030A000216848556D1CA068A842F8D800206060CF
:1030B000A068B04201D20020206070BD10B5044667
:1030C000207B012802D1206803F058FE00202060F8
:1030D0006060A060207310BD0246002301230DE054
:1030E00002F07F000870D2092AB1087840F0800011
:1030F0000870491C01E0184670475B1C042BEFDD8B
:103100004FF0FF30F8E7F0B504460D4626460123A0
:1031100000201060002114E0775C07F07F07106842
:1031200007FB03001060705C00F0800008B9481CC9
:10313000F0BDDB01B3F5001F02D36FF00100F7E72C
:10314000491CA942E8DB4FF0FF30F1E7F8B504462F
:10315000FF2720780511012D01DB0E2D01DD3846FA
:10316000F8BD032D24D1002000906A460421601C84
:10317000FFF7C9FF2044461C0098022803D320789B
:1031800000F0010008B1FF20EAE77078317840EAEA
:103190000120801C0099884201D9FF20E0E7F8A1B6
:1031A000B01C02F0D3FB08B10F2700E0032700E0BA
:1031B0002F463846D4E72DE9FF4F83B082468B4631
:1031C0009146159C0025002002900F27019048464B
:1031D00002F0D8FB0FFA80F8B9F1000F03D10120FB
:1031E00007B0BDE8F08F08F10200384487B21098AC
:1031F00008B145F00205129878B145F0040512981F
:1032000002F0C0FBC0B20290139802F0BBFB014673
:103210000298001D0844384487B2119820B1012853
:1032200004D0022808D104E000BF07E045F00C05F7
:1032300004E045F0140501E00220D1E700BF149836
:1032400008B145F02405BAF1000F02D0BBF1000F20
:1032500001D10320C4E745F0C005504602F092FBBF
:103260000646584602F08EFB3044001D384487B2B3
:1032700039462046FFF7F6FE206808B90420AFE77C
:103280003946206802F04BFB10216268501C6060D8
:1032900020688154D4E90023D118781FFFF71CFF60
:1032A00000B201900198002804DA2046FFF706FFDB
:1032B000052095E761680198084460600021626814
:1032C000501C60602068815404216268501C60605A
:1032D000206881544D216268501C606020688154D0
:1032E00051216268501C60602068815454216268DA
:1032F000501C6060206881546268501C60602068C7
:10330000815404216268501C6060206881546168A7
:10331000481C6060206845540698010A6268501C89
:103320006060206881540698C1B26268501C606079
:1033300020688154C8F307216268501C60602068CF
:1033400081546268501C6060206800F80280D4E9F3
:10335000001288184246494602F01BFB6068404450
:10336000606005F00400B8B30026139808B986A081
:103370001390129802F006FB86B2310A6268501C64
:103380006060206881546268501C606020688654C8
:10339000D4E9001288183246129902F0FAFA6068ED
:1033A00030446060139802F0EDFA86B2310A626828
:1033B000501C6060206881546268501C6060206806
:1033C0008654D4E9001288183246139902F0E1FAC3
:1033D00060683044606000BF05F08000C8B15046AE
:1033E00002F0D0FA86B2310A6268501C6060206830
:1033F00081546268501C606020688654D4E90012D1
:1034000088183246514602F0C4FA60683044606061
:1034100000BF05F04000C8B1584602F0B3FA86B2CA
:10342000310A6268501C6060206881546268501CD8
:10343000606020688654D4E90012881832465946E4
:1034400002F0A7FA60683044606000BF0020C7E661
:1034500010B5044602212046FFF704FE206808B993
:10346000012010BDE0216268501C6060206881541A
:1034700000216268501C6060206881540020F0E7E1
:1034800001464878022801D001207047887810B1A1
:103490008878012801D1C878F7E7FF20F5E72DE902
:1034A000FF4F83B0834617469946139C002500269C
:1034B0000020029001908046BBF1000F03D1012053
:1034C00007B0BDE8F08F00260AE00498805D23284D
:1034D00003D00498805D2B2801D10220F0E7761CF0
:1034E0000498805D0028F0D148F03008119808B1A8
:1034F00048F0010806EB0900851C109820B101284E
:1035000004D002280AD105E000BF09E048F0020813
:10351000AD1C05E048F00408AD1C01E00320CFE736
:1035200000BF67B33878022821D14FF0000A00BFEE
:1035300050460AF1010A385C7D28F9D1AAF1030A44
:103540000AF1070002900298A9EB000AE81CA0EB20
:103550000A012046FFF786FD206808B90420AFE77E
:10356000EA1CA2EB0A01206802F0D9F91FE0691DEC
:103570002046FFF777FD206840B90420A0E70AE065
:10358000246372657100000000000000691D20685E
:1035900002F0C5F90BE0691D2046FFF763FD2068C6
:1035A00008B904208CE7691D206802F0B8F9616849
:1035B000481C6060206800F80180D4E9000281188E
:1035C0002846FFF789FD01900198002804DA20467B
:1035D000FFF774FD052073E7616801980844606097
:1035E000C6F307216268501C6060206881546268DD
:1035F000501C606020688654D4E900128818324656
:10360000049902F0C6F9606830446060109860B1B7
:103610004FEA1B216268501C606020688154626818
:10362000501C6060206800F802B0C7B138780228EA
:103630000BD1D4E9001288183946029A02F056F9E3
:10364000616802980844606009E0D4E900128818B3
:103650004A46394602F04AF96068484460600020F2
:103660002EE72DE9FF4107460D4690461E460A9C6F
:1036700001200021CDE90001EB1C0A46FAA1CDE9A9
:1036800002040A20FFF70BFF88B96168481C6060DC
:1036900020684654C5F307216268501C60602068AA
:1036A00081546268501C60602068855403E00120EA
:1036B00004B0BDE8F0810020FAE72DE9F04F85B0B5
:1036C00080460D46914601200490002700260024E4
:1036D0004FF0000A404602F055F900F10D0B584634
:1036E00003F074FB07461FB9049805B0BDE8F08FDE
:1036F0004246DEA1384602F0BDFD384602F042F9EE
:10370000C6B2F01D00EB050AAAEB050003F05EFB54
:10371000044624B9384603F031FB0498E5E702205B
:10372000207000206070A67032463946E01C02F01E
:10373000DDF8290EF01C2154C5F30741301D21543A
:10374000C5F30721701D2154B01D2554012000210F
:10375000CDE9000153462246C3A1CDE902090A2062
:10376000FFF79DFE08B900200490384603F006FBE1
:10377000204603F003FB0498B7E72DE9F8438046A1
:103780000C4615461E462F2108F1060002F0F0F8FF
:1037900007460020009017B90120BDE8F8837F1C80
:1037A0006A46042108F10100FFF7ADFC252003F073
:1037B0000DFB2060206808B90220EEE72521206873
:1037C00002F0ADF824223946206802F08FF8243741
:1037D00000982C3830803188481C03F0F7FA2860B4
:1037E000286820B9206803F0C9FA0320D5E7328899
:1037F000511C286802F093F832883946286802F094
:1038000075F80020C9E72DE9FF5F07460D46904691
:10381000384602F0B7F886B2284602F0B3F81FFA2D
:1038200080FA4FF00009F01D03F0D0FA04461CB9ED
:10383000012004B0BDE8F09FF11D204602F06FF8B2
:103840008EA0016821608088A080324639462046DB
:1038500002F09FF8284602F095F8834601200021E7
:1038600000915B462A46CDE90208019121460A20D3
:10387000FFF715FE10B94FF0000901E04FF0010904
:10388000204603F07BFA4846D3E72DE9FF5F8046E8
:10389000174699460E9C0026B246B3460025B8F15D
:1038A000000F03D1012004B0BDE8F09F0BE057F8F2
:1038B000250008B90220F6E757F8250002F062F863
:1038C0000644681CC5B24D45F1DB09EB4900801C7C
:1038D00000EB060A0AF105012046FFF7C3FB20684A
:1038E00008B90320DFE782216268501C606020680D
:1038F0008154D4E9000281185046FFF7EDFB0FFA1E
:1039000080FBBBF1000F04DA2046FFF7D7FB042051
:10391000C9E76068584460604FEA18216268501C2B
:103920006060206881546268501C6060206800F804
:103930000280002524E057F8250002F023F806460F
:10394000C6F307216268501C606020688154626879
:10395000501C606020688654D4E90023D01857F8C2
:103960002510324602F015F8606830446060019816
:10397000C1B26268501C606020688154681CC5B286
:103980004D45D8DB00208EE70146FF208A78A2B99A
:10399000CA78142A11D10A7932B1012A05D0022A33
:1039A00004D0802A06D103E000BF00BF002003E05E
:1039B000012001E0022000BF00BF70472DE9F05F49
:1039C00080460F4691461C460026B246B346002567
:1039D000B8F1000F02D10120BDE8F09F0BE057F8CD
:1039E000250008B90220F7E757F8250001F0CAFFC3
:1039F0000644681CC5B24D45F1DB022000EB4900CE
:103A000000EB060A0AF105012046FFF72BFB2068B0
:103A100008B90320E0E7A2216268501C60602068BA
:103A20008154D4E9000281185046FFF755FB0FFA84
:103A300080FBBBF1000F04DA2046FFF73FFB0420B8
:103A4000CAE76068584460604FEA18216268501CF9
:103A50006060206881546268501C6060206800F8D3
:103A6000028000252CE00000246470007B22647337
:103A70005F6964223A222573227D000024637273F9
:103A8000702F000057F8250001F07CFF0646C6F3B2
:103A900007216268501C6060206881546268501C75
:103AA000606020688654D4E90023D01857F82510A8
:103AB000324601F06EFF606830446060681CC5B239
:103AC0004D45DFDB002087E7014601208A781AB9DF
:103AD000CA781E2A00D1002070472DE9FC5F81467C
:103AE0000D4614461E46DDE90C8B99F8000000F0E7
:103AF0000F0A002001900AF008000090CAF341006C
:103B00008BF8000001AA042109F10100FFF7FBFA7C
:103B10004844471C0198022802D30AF0010010B162
:103B2000FF20BDE8FC9F7878397840EA01202080AA
:103B30002088801C0199884201D9FF20F1E7AFF26B
:103B4000C051B81C01F002FF08B10F20E9E79BF853
:103B5000000020B101283DD0022877D13BE0009839
:103B600008B1FF20DDE72188481C03F02FF9286009
:103B7000286808B9FF20D4E72288511C286801F082
:103B8000CEFE2288B91C286801F0B0FE0198801E84
:103B90002188401AA8F80000B8F80010481C03F06B
:103BA00015F93060306820B9286803F0E7F8FF2085
:103BB000B7E7B8F80020511C306801F0B0FEB8F843
:103BC0000020B4F800C0BB1C0CEB0301306801F00E
:103BD0008DFE4FE000BF2088801C0199884201D9EA
:103BE000FF209EE72088C01C395C2088801C385C40
:103BF00041EA00210E9801800E9808B9FF2090E755
:103C00002188481C03F0E2F82860286808B9FF20E2
:103C100087E72288511C286801F081FE2288B91CA0
:103C2000286801F063FE0198001F2188401AA8F857
:103C30000000B8F80010481C03F0C8F83060306885
:103C400028B9286803F09AF8FF206AE710E0B8F86E
:103C50000020511C306801F062FEB8F80020B4F872
:103C600000C03B1D0CEB0301306801F03FFE01E09A
:103C7000FF2056E700BF2B21284601F079FE20B92E
:103C80002321284601F074FE08B1FF2049E70020F7
:103C900047E770B505460C4604212046FFF7E2F9D8
:103CA000206808B9012070BD40216268501C606026
:103CB0002068815402216268501C60602068815431
:103CC00029126268501C6060206881546268501C30
:103CD0006060206885540020E5E7014648780228A6
:103CE00001D001207047887820B9C8780A2801D10E
:103CF0000020F7E70120F5E770B505460C460421E2
:103D00002046FFF7AFF9206808B9012070BD5021A7
:103D10006268501C60602068815402216268501CF7
:103D200060602068815429126268501C60602068BD
:103D300081546268501C6060206885540020E5E76B
:103D400001464878022801D001207047887820B9C0
:103D5000C8780A2801D10020F7E70120F5E770B5FF
:103D600005460C4604212046FFF77CF9206808B977
:103D7000012070BD62216268501C6060206881541F
:103D800002216268501C60602068815429126268B8
:103D9000501C6060206881546268501C606020681C
:103DA00085540020E5E702465078022801D0012022
:103DB00070479078B0EB112F05D1D078CBB29842F4
:103DC00001D10020F4E70120F2E770B505460C466A
:103DD00004212046FFF746F9206808B9012070BD8C
:103DE00070216268501C6060206881540221626802
:103DF000501C60602068815429126268501C606009
:103E0000206881546268501C6060206885540020DE
:103E1000E5E701464878022801D0012070478878FC
:103E200020B9C8780A2801D10020F7E70120F5E77A
:103E300010B5044602212046FFF714F9206808B99E
:103E4000012010BDC0216268501C60602068815450
:103E500000216268501C6060206881540020F0E7F7
:103E6000FE480068704770B504460D462CB9AC4258
:103E700001D0012070BD0020FCE70DB90120F9E759
:103E800005E0207808B90020F4E7641C6D1C207858
:103E900001F026FD0646287801F022FD8642F0D08A
:103EA000207801F01DFD0646287801F019FD301A32
:103EB000E0E770B50446204601F064FD451C284645
:103EC000E74909688847061E00D170BD2A46214689
:103ED000304601F00BFD3046F7E730B9E149E04AE2
:103EE0001160E149E14A11607047016809B1016858
:103EF00000E0DC49DA4A1160416809B1416800E03C
:103F0000D949DA4A116000BFEEE710B52820D4493C
:103F10000968884704461CB12821204601F0FFFCAF
:103F2000204610BD70B5044622E02568A08900F443
:103F3000807020B9A06810B1A068FFF7F3FFA089D6
:103F400000F4807028B9206918B1C849206909684F
:103F50008847A08900F4007028B9206A18B1C349C5
:103F6000206A096888472046C049096888472C4666
:103F7000002CDAD170BD2DE9F04F8BB083468A4614
:103F80000020044605460026B94F00218846894690
:103F90000990012008909AF800002D2802D1B54F11
:103FA0000AF1010A9AF80000302801D10AF1010A49
:103FB0009AF80000312822DB9AF8000039281EDC2C
:103FC00000BF1AF8011BA1F1300001F034FE0022FD
:103FD000A94BCDE906012046294601F0BAFDCDE9FD
:103FE0000401DDE9062301F00DFD04460D469AF8B3
:103FF0000000302803DB9AF800003928E1DD9AF848
:1040000000002E2830D19AF8010030282CDB9AF8D5
:104010000100392828DC0AF1010A00BF1AF8011B47
:10402000A1F1300001F007FE0022934BCDE906011B
:104030002046294601F08DFDCDE90401DDE9062386
:1040400001F0E0FC04460D460022894B40464946FB
:1040500001F079FD804689469AF80000302803DB9C
:104060009AF800003928D9DD9AF80000652803D0B5
:104070009AF80000452823D10AF1010A9AF80000B5
:104080002B2802D10AF1010A08E09AF800002D2835
:1040900004D14FF0FF3008900AF1010A08E01AF845
:1040A000010B3038099901EB810100EB41000990C7
:1040B0009AF80000302803DB9AF800003928EEDD7A
:1040C000DDE9082101FB02F001F0B5FD42464B4657
:1040D000CDE9000101F096FC02460B46CDE9020154
:1040E0000020654902F0A8FE22462B46CDE90601D4
:1040F0003046394601F02DFDCDE90401DDE9062306
:1041000001F027FD04460D46CBE906452046294629
:1041100001F0A2FDCBF814000320CBF80C005046B0
:104120000BB0BDE8F08F0146491E41EA610141EA4A
:10413000A10141EA211141EA212141EA2141481C22
:1041400070472DE9F04104460E460CB1206810B9C5
:104150000020BDE8F081A06806446068B04203DB3F
:10416000A16820680844F4E73046FFF7DCFF074603
:1041700038463B490968884705463DB93B492068B0
:1041800009688847002060602060E2E725B1284682
:10419000D4E9001201F0AAFB344920680968884775
:1041A00067602560A0682844D3E770B504460CB169
:1041B000206808B9002070BDA1682068451828460D
:1041C00001F0E0FBA1680844F5E72DE9FC478246D1
:1041D0000E464FF00009DAE9064500221346204654
:1041E000294601F06BFD13D12EB102213046FFF7B5
:1041F000A8FF814604E002201949096888478146E2
:10420000B9F1000F03D01DA00088A9F800009FE0BD
:10421000DAF8140001F00FFD074622462B4601F0A4
:1042200092FC21F000410022154BCDE9000101F084
:1042300045FD3ED8134A144B2046294601F03EFD69
:1042400037D80022114B2046294601F04FFD30D8C7
:1042500006B315213046FFF774FF19E0C8070020A8
:10426000CC070020CD6D00087D6D0008D007002030
:104270000000F03F0000F0BF0000244030000000CC
:104280000000B03C0000C0FFFFFFDF410000E0C1C4
:10429000814604E01520FA49096888478146B9F14A
:1042A000000F55D0F7A14846DAF8142001F0E2FFDC
:1042B0004EE02EB140213046FFF743FF814604E037
:1042C0004020EF49096888478146B9F1000F3FD087
:1042D0002046294602F0E4FC074622462B4601F020
:1042E00032FC21F000410022E74BCDE9000101F052
:1042F000E5FC0FD825F000412746E44AE44B384658
:1043000001F0DCFC06D222462B46E2A1484601F031
:10431000B1FF1DE025F000412746E04AE04B38465A
:1043200001F0CCFC07D325F000410022DD4B3846DC
:1043300001F0DCFC06D222462B46DBA1484601F008
:1043400099FF05E022462B46D8A1484601F092FF8E
:104350004846BDE8FC87014600220878302806DB85
:104360000878392803DC08783038024415E00878EA
:10437000412806DB0878462803DC087837380244F1
:104380000BE00878612806DB0878662803DC0878EB
:104390005738024401E0002070471201491C087898
:1043A000302806DB0878392803DC087830380244E6
:1043B00015E00878412806DB0878462803DC0878F1
:1043C000373802440BE00878612806DB0878662855
:1043D00003DC08785738024401E00020DCE71201D2
:1043E000491C0878302806DB0878392803DC08786F
:1043F0003038024415E00878412806DB0878462862
:1044000003DC0878373802440BE00878612806DBC3
:104410000878662803DC08785738024401E0002059
:10442000BAE71201491C0878302806DB08783928D9
:1044300003DC08783038024415E00878412806DBB0
:104440000878462803DC0878373802440BE00878FF
:10445000612806DB0878662803DC087857380244B0
:1044600001E0002098E7104696E72DE9F05F8346CB
:10447000884608F10104002798F80000222805D09A
:104480008B48C0F800800020BDE8F09F04E014F8DD
:10449000011B5C2900D1641C2078222804D02078DC
:1044A00010B1781C071EF2D1781C7549096888473D
:1044B0008146B9F1000F01D10020E5E708F10104C0
:1044C0004D469EE020785C2804D014F8010B05F8D6
:1044D000010B96E0641C2078722818D006DC622854
:1044E00009D066280BD06E287ED10CE0742812D03B
:1044F0007528F9D113E0082005F8010B7FE00C20A6
:1045000005F8010B7BE00A2005F8010B77E00D2090
:1045100005F8010B73E0092005F8010B6FE0601C42
:10452000FFF719FF0646241DB6F55C4F02D3B6F51A
:10453000604F00D306B962E0B6F5584F1CD3B6F50C
:104540005C4F19D260785C2802D1A078752800D021
:1045500055E0E01CFFF7FFFE8246A41DBAF55C4F54
:1045600002D3BAF5604F00D349E0C6F309015046C3
:1045700061F39F2000F580360427802E01D20127A9
:1045800008E0B6F5006F01D2022703E0B6F5803FE0
:1045900000D203273D44012F20D0022F15D0032F36
:1045A0000AD0042F24D106F0BF0040F08001681E1D
:1045B00005460170B60900BF06F0BF0040F080015B
:1045C000681E05460170B60900BF06F0BF0040F046
:1045D0008001681E05460170B60900BF3548C05D00
:1045E0003043C1B2681E00E005E00546017000BF1F
:1045F00000BF3D4403E0207805F8010B00BF00BF79
:10460000641C2078222803D0207800287FF45AAF39
:10461000002028702078222800D1641CCBF810904C
:104620000420CBF80C0020462EE72DE9F05F8046F1
:1046300089460027BB46454611E02878002802DD60
:104640002878202805DB2878222802D028785C28C2
:1046500001D1012000E0002040EA0B0B6D1C2878FE
:104660000028EAD1BBF1000F3ED1A5EB0807B9F154
:10467000000F21D0F91C4846FFF763FD064620E0F5
:10468000CC070020256400000000B03C44F3C2E4E5
:10469000E4E9634C252E3066000000008DEDB5A0E6
:1046A000F7C6B03E65CDCD4125650000256600000A
:1046B000C80700205AB50008F81CFD49096888475A
:1046C000064616B90020BDE8F09F3446222004F8C3
:1046D000010B4146204601F070F92220E0550021EF
:1046E000781C21543046EEE7B8F1000F16D1B9F12D
:1046F000000F05D003214846FFF723FD064604E0DE
:104700000320EB490968884706460EB90020DAE71E
:10471000E8A1304601F051F93046D4E745460BE0B8
:104720005146E5A001F024F908B17F1C03E0BAF17D
:10473000200F00DA7F1D6D1C95F800A0BAF1000F64
:1047400002D0781C071EEBD1B9F1000F05D0F91C7F
:104750004846FFF7F6FC064604E0F81CD449096811
:10476000884706460EB90020ADE73446454622206C
:1047700004F8010B47E028781F280ADD2878222852
:1047800007D028785C2804D015F8010B04F8010B39
:1047900039E05C2004F8010B15F8011B8A460C294E
:1047A00019D006DC082912D0092920D00A2922D1E3
:1047B00015E00D2917D0222905D05C291BD15C20DA
:1047C00004F8010B1EE0222004F8010B1AE062201D
:1047D00004F8010B16E0662004F8010B12E06E20CD
:1047E00004F8010B0EE0722004F8010B0AE07420BB
:1047F00004F8010B06E05246B1A1204601F03AFD53
:10480000641D00BF00BF28780028B4D1222004F81E
:10481000010B002004F8010B304654E770B5044644
:104820000D4629462069FFF700FF70BD00E0401CDF
:1048300020B1017811B101782029F8DD70472DE908
:10484000F04706460C4620787B2804D09E4804603A
:104850000020BDE8F0870620F060601CFFF7E6FF4F
:10486000044620787D2801D1601CF2E7FFF74DFB5C
:104870000546B060B06808B90020EAE72046FFF7B7
:10488000D5FF804641462846FFF7EFFD0746FFF774
:10489000CDFF04460CB90020DBE728692862002020
:1048A000286120783A2803D0874804600020D0E7A8
:1048B000601CFFF7BBFF80464146284600F099F890
:1048C0000746FFF7B3FF04460CB90020C1E731E00B
:1048D000FFF71BFB071E00D1BBE72F607D603D4645
:1048E000601CFFF7A3FF814649462846FFF7BDFD40
:1048F0008046FFF79BFF04460CB90020A9E7286912
:1049000028620020286120783A2803D06E4804608D
:1049100000209EE7601CFFF789FF81464946284634
:1049200000F067F88046FFF781FF04460CB90020CD
:104930008FE700BF20782C28CAD020787D2801D1AD
:10494000601C86E760480460002082E72DE9F0479C
:1049500005460C4620785B2804D05B4804600020A4
:10496000BDE8F0870520E860601CFFF75FFF0446A4
:1049700020785D2801D1601CF2E7FFF7C6FA0646F1
:10498000A860A86808B90020EAE72046FFF74EFFB4
:1049900080464146304600F02CF80746FFF746FFB8
:1049A00004460CB90020DBE717E0FFF7AEFA071E5C
:1049B00000D1D5E737607E603E46601CFFF736FFCA
:1049C00081464946304600F014F88046FFF72EFF36
:1049D00004460CB90020C3E700BF20782C28E4D09F
:1049E00020785D2801D1601CBAE7374804600020B8
:1049F000B6E770B505460C460CB9002070BD042220
:104A000032A1204600F0E2FF18B90220E860201D24
:104A1000F4E705222FA1204600F0D8FF18B90020A6
:104A2000E860601DEAE704222CA1204600F0CEFFDA
:104A300020B90120E8606861201DDFE72078222886
:104A400004D121462846FFF710FDD7E720782D280E
:104A500005D02078302807DB2078392804DC21466F
:104A60002846FFF788FAC9E720785B2804D1214659
:104A70002846FFF76BFFC1E720787B2804D1214649
:104A80002846FFF7DCFEB9E70F4804600020B5E7D1
:104A90002DE9F04780460D4616460024FFF735FA0B
:104AA0000746002008490860E7B9BDE8F087000024
:104AB000CC07002022220000225C080C0A0D09000D
:104AC0007525303478000000C80700206E756C6CC6
:104AD0000000000066616C7365000000747275650B
:104AE000000000004046FFF7A1FE814649463846D7
:104AF000FFF77FFF04462CB93846FFF713FA002072
:104B0000BDE8F08766B12046FFF790FE04462078A6
:104B100030B13846FFF706FAFE4804600020EFE7A0
:104B200005B12C603846EBE710B50446002211466B
:104B30002046FFF7ADFF10BD2DE9FF4F89B0884635
:104B400016461F4600200890079006904FF0070A6F
:104B500000250998D0F8089000200290019000905C
:104B600004E00298401C0290D9F80090B9F1000FBF
:104B7000F7D10298002835D157B116B108F10400D9
:104B800000E0032001463846FFF7DBFA069009E013
:104B900016B108F1040100E003210846DE49096866
:104BA00088470690069818B900200DB0BDE8F08F30
:104BB000069C7B2004F8010B66B10A2004F8010B67
:104BC000002503E0092004F8010B6D1CA8F1010089
:104BD000A842F7DC7D2004F8010B002004F8010B4B
:104BE0000698E2E7002F77D0BD680EB1022000E002
:104BF000012082460AF101013846FFF7A2FA044675
:104C00000CB90020D1E77B2004F8010B16B10A2073
:104C100004F8010B00202070B8685044B86009986F
:104C2000D0F8089008F1010868E0B6B1414638466E
:104C3000FFF787FA04460CB90020B6E7002003907E
:104C400005E0092004F8010B0398401C0390039829
:104C50004045F6DBB8684044B8603946D9F82000D2
:104C6000FFF7E3FC3846FFF7A0FAB8600EB1022068
:104C700000E00120824651463846FFF762FA0446BA
:104C80000CB9002091E73A2004F8010B16B1092075
:104C900004F8010BB8685044B8603B4632464146C0
:104CA000484600F078FA3846FFF77FFAB8600EB150
:104CB000012000E00020D9F8001009B1012100E036
:104CC000002100EB010A0AF101013846FFF739FA29
:104CD000044614B9002068E734E0D9F8000010B1A8
:104CE0002C2004F8010B16B10A2004F8010B002057
:104CF0002070B8685044B860D9F80090B9F1000F3E
:104D000093D116B108F1010000E0022001463846B7
:104D1000FFF717FA04460CB9002046E74EB100250C
:104D200003E0092004F8010B6D1CA8F10100A84262
:104D3000F7DC7D2004F8010B00202070386828443F
:104D4000069005E102998800734909688847089030
:104D5000089808B9002028E7029988006E49096878
:104D600088470790079828B96C49089809688847C8
:104D700000201AE702988100089800F0D0FD029800
:104D80008100079800F0CBFD0998D0F8089008F151
:104D9000010806B1C2442EE00021D9F82000FFF737
:104DA00044FC0490079941F825000023324641460F
:104DB000484600F0F0F929466D1C0590089A42F823
:104DC0002100049898B1059888B1059800F0DAFDA3
:104DD0008346049800F0D6FD0BEB0001891C16B148
:104DE00008F1020000E000200844824401E00120B4
:104DF0000190D9F80090B9F1000FCDD1019820B9F8
:104E000050464549096888470690069808B9012028
:104E10000190019818B3002514E0079850F8250078
:104E200028B1079951F825003C4909688847089836
:104E300050F8250028B1089951F82500374909682C
:104E400088476D1C02988542E7DB3449079809685A
:104E5000884732490898096888470020A5E67B21E1
:104E6000069801700698441C16B10A2004F8010B3C
:104E700000202070002548E05EB10020039005E08E
:104E8000092004F8010B0398401C03900398404547
:104E9000F6DB079951F8250000F074FD00900798A3
:104EA00050F825102046009A00F020FD0098044498
:104EB0003A2004F8010B16B1092004F8010B0898F8
:104EC00050F82510204600F078FD089951F825008B
:104ED00000F058FD04440298401EA84202D02C2045
:104EE00004F8010B16B10A2004F8010B0020207011
:104EF000079951F82500094909688847089951F828
:104F000025000649096888476D1C02988542B3DB75
:104F1000024905E0C8070020CC070020D007002088
:104F2000079809688847F7490898096888474EB183
:104F3000002503E0092004F8010B6D1CA8F1010015
:104F4000A842F7DC7D2004F8010B002004F8010BD7
:104F500006982AE62DE9FF4F85B092461E464FF08F
:104F6000000B052003900598D0F80880D94600254D
:104F700000200290019003E009F10109D8F80080B7
:104F8000B8F1000FF8D1B9F1000F16D12EB10321FD
:104F90003046FFF7D6F8834604E00320DA49096873
:104FA00088478346BBF1000F03D0D8A1584600F0D4
:104FB00004FD584609B0BDE8F08F002E57D0B56803
:104FC00001213046FFF7BDF804460CB90020F1E797
:104FD0005B202070B068401CB0600598D0F8088055
:104FE0002EE0334652460699491C404600F0D3F85D
:104FF0003046FFF7DAF8B060D8F80000F0B1BAF147
:10500000000F01D0022000E0012003900399491C09
:105010003046FFF796F804460CB90020CAE72C206A
:1050200004F8010BBAF1000F02D0202004F8010BA4
:1050300000202070B16803980844B060D8F8008060
:10504000B8F1000F02D002980028CAD002213046E1
:10505000FFF777F804460CB90020ABE75D2004F8B1
:10506000010B00202070306800EB050B91E04FEA47
:105070008900A5490968884707460FB9002099E7C4
:105080004FEA8901384600F04AFC0598D0F80880BC
:1050900021E0002352460699491C404600F07BF867
:1050A000049029466D1C049847F82100049870B1BB
:1050B000049800F067FC801CBAF1000F01D00121B8
:1050C00000E00021014403980844039001E001201E
:1050D0000290D8F80080B8F1000F02D002980028A2
:1050E000D7D0029820B98849039809688847834631
:1050F000BBF1000F01D101200290029890B1002570
:1051000008E057F8250020B157F825007D490968C7
:1051100088476D1C4D45F4DB38467A490968884755
:10512000002047E75B208BF800000BF10104002012
:105130002070002521E057F8250000F023FC0190A5
:1051400057F825102046019A00F0D0FB019804443E
:10515000A9F10100A8420AD02C2004F8010BBAF1F1
:10516000000F02D0202004F8010B0020207057F817
:1051700025006449096888476D1C4D45DBDB3846CE
:105180006049096888475D2004F8010B002004F895
:10519000010B58460EE72DE9F04104460F469046B4
:1051A0001D46002614B90020BDE8F081002D49D02D
:1051B000207B072845D2DFE800F0101C04282E349D
:1051C0003C0005212846FEF7BCFF064626B1AFF29B
:1051D0000471304600F0F1FB33E006212846FEF76B
:1051E000B0FF064626B1AFF21471304600F0E5FB81
:1051F00027E005212846FEF7A4FF064626B1AFF2B8
:105200002471304600F0D9FB1BE029462046FEF70A
:10521000DCFF064615E029462046FFF7FFFA064662
:105220000FE02B46424639462046FFF793FE0646DE
:1052300007E02B46424639462046FFF77DFC0646EE
:1052400000BF37E0207B072833D2DFE800F00A10E8
:1052500004161C222A00AFF28C70FEF72AFE0646C6
:1052600027E0AFF29070FEF724FE064621E0AFF291
:105270009470FEF71EFE06461BE000212046FEF756
:10528000A4FF064615E000212046FFF7C7FA0646B0
:105290000FE00023424639462046FFF75BFE0646F4
:1052A00007E00023424639462046FFF745FC064604
:1052B00000BF00BF304677E710B504460023012247
:1052C00019462046FFF767FF10BD10B504460023BE
:1052D0001A4619462046FFF75EFF10BDFEB505468B
:1052E0000C461646204608490968884700900194F4
:1052F000002002906B46324600212846FFF74BFF04
:10530000FEBD0000D0070020CC0700205B5D000040
:1053100001468A68002001E0401C1268002AFBD187
:1053200070470246906801E0491E006808B10029F4
:10533000FADC704770B505460E46AC6800E024689C
:105340002CB13146206AFEF78EFD0028F7D12046A9
:1053500070BD01604860704770B50546FEF7D5FD29
:1053600004460CB9002070BD28222946204600F0D2
:10537000BDFA00202062E06840F48070E060002008
:10538000606020602046EEE770B505460E46AC68CA
:1053900006B970BD0CB9AE6009E000E0246814B134
:1053A00020680028FAD131462046FFF7D2FF00BF1F
:1053B000EFE770B506460D46144604B970BD206A85
:1053C00018B1FE49206A096888472846FEF771FD32
:1053D000206221463046FFF7D7FF00BFEEE770B5E9
:1053E00006460D46144604B970BDA08900F400704D
:1053F00028B9206A18B1F149206A096888472562EE
:10540000E06840F40070E06021463046FFF7BCFFE2
:1054100000BFE9E770B505460C462046FFF79CFF44
:10542000064631462846FFF7AFFF70BD2DE9F04133
:1054300005460E4614462046FFF78EFF07463A46BD
:1054400031462846FFF7B5FFBDE8F08110B50246AA
:105450000B46916801E009685B1E09B1002BFADC7C
:1054600009B9002010BD486810B1D1E900042060DE
:10547000086810B1D1E9004060609068884201D1AD
:10548000086890600020086048600846EAE770B548
:1054900004460D4629462046FFF7D8FF0646FEF78C
:1054A00041FD70BD2DE9F04105460F460026AC6870
:1054B00001E0761C24682CB13946206AFEF7D3FC43
:1054C0000028F6D12CB131462846FFF7BFFFBDE8D2
:1054D000F0810020FBE770B504460D4629462046C2
:1054E000FFF7E0FF0646FEF71DFD70BD2DE9F04118
:1054F00006460F461446B56801E02D687F1E0DB1C3
:10550000002FFADC2DB921463046FFF73DFFBDE8FC
:10551000F0812560686860606C60B068A84201D165
:10552000B46001E06068046000BFF0E72DE9F0417D
:1055300006460F461446B56801E02D687F1E0DB182
:10554000002FFADC0DB9BDE8F0812868206068689A
:105550006060206808B120684460B068A84201D14A
:10556000B46001E06068046000206860286028463C
:10557000FEF7D8FC00BFE6E72DE9F04105460E46F0
:1055800017464FF00008AC6802E008F101082468F3
:105590002CB13146206AFEF766FC0028F5D144B1F3
:1055A0003046FEF786FC38623A4641462846FFF709
:1055B000BDFFBDE8F08110B5FEF7A7FC04460CB1B5
:1055C0000220E060204610BD10B5FEF79EFC0446A8
:1055D0000CB10120E060204610BD10B5FEF795FC2F
:1055E00004460CB10020E060204610BD70B50546B1
:1055F000FEF78BFC044624B10DB1012000E0002031
:10560000E060204670BD70B505460E46FEF77DFC95
:10561000044644B10320E060C4E9065628463146FA
:1056200000F01AFB6061204670BD70B50546FEF7BC
:105630006CFC04462CB10420E0602846FEF739FCDF
:105640002061204670BD10B5FEF75FFC04460CB12A
:105650000520E060204610BD10B5FEF756FC04465C
:105660000CB10620E060204610BD2DE9F05F8146B8
:105670008A460025AB46FFF7E6FF0646002410E009
:1056800059F8240000F0D7FA0746FFF7BCFF05469B
:105690000CB9B56003E029465846FFF75AFEAB4601
:1056A000641C0EB15445EBDB3046BDE8F09F2DE99C
:1056B000F05F81468A460025AB46FFF7C4FF0646E9
:1056C000002410E059F8240000F0E5FA0746FFF73F
:1056D0009AFF05460CB9B56003E029465846FFF726
:1056E00038FEAB46641C0EB15445EBDB3046BDE8DA
:1056F000F09F2DE9F047074688460025A946FFF7A9
:10570000A2FF0646002410E007EBC400D0E9002108
:105710001046FFF778FF05460CB9B56003E029464F
:105720004846FFF716FEA946641C0EB14445EBDB64
:105730003046BDE8F0872DE9F0470746884600254A
:10574000A946FFF780FF064600240DE057F8240025
:10575000FFF76BFF05460CB9B56003E029464846E4
:10576000FFF7F7FDA946641C0EB14445EEDB304659
:10577000BDE8F0872DE9F047054689464FF000085F
:1057800015B90020BDE8F087FEF7BFFB04460CB951
:105790000020F7E7E86820F48070E06068696061E5
:1057A000D5E90601C4E90601286968B12869FEF750
:1057B00080FB2061206938B9204601E0D007002035
:1057C000FEF7B0FB0020DDE7286A50B1286AFEF73B
:1057D00070FB2062206A20B92046FEF7A3FB002060
:1057E000D0E7B9F1000F01D12046CBE7AF6816E052
:1057F00001213846FFF7BEFF064626B92046FEF7D0
:1058000091FB0020BEE7B8F1000F05D0C8F800609A
:10581000C6F80480B04601E0A660B0463F68002F9D
:10582000E6D12046AEE7014655E00278202A01D1B4
:10583000401C50E00278092A01D1401C4BE002785C
:105840000D2A01D1401C46E002780A2A01D1401CF1
:1058500041E002782F2A0BD142782F2A08D100E0AC
:10586000401C0278002A36D002780A2A33D0F7E7A3
:1058700002782F2A0ED142782A2A0BD100E0401C50
:1058800002782AB102782A2AF9D142782F2AF6D151
:10589000801C20E00278222A19D110F8012B01F88F
:1058A000012B0AE002785C2A03D110F8012B01F8E1
:1058B000012B10F8012B01F8012B027812B10278AC
:1058C000222AEFD110F8012B01F8012B03E010F888
:1058D000012B01F8012B0278002AA6D10A7070472B
:1058E000A0F14101192900D82030704740EA010396
:1058F0009B0703D009E008C9121F08C0042AFAD286
:1059000003E011F8013B00F8013B521EF9D2704749
:10591000D2B201E000F8012B491EFBD270470022F1
:10592000F6E710B513460A4604461946FFF7F0FF9E
:10593000204610BD421E12F8013F002BFBD111F88A
:10594000013B02F8013B002BF9D1704730B5054609
:105950002A460B4612F8010B13F8014B08B1A0427E
:10596000F8D01CB1002802D06D1CF1E7284630BDEC
:10597000CAB2401E10F8011F8A4202D00029F9D194
:1059800000207047421C10F8011B0029FBD1801A2F
:10599000704710B5044600E0401C0378002BFBD193
:1059A00000E0401C521E04D311F8013B0370002B91
:1059B000F7D100210170204610BD034611F8012BDC
:1059C00000F8012B002AF9D11846704730B505467A
:1059D0000020034600E05B1C934205D2EC5CC85CEF
:1059E000201A01D1002CF6D130BD70B5064600F06A
:1059F00069FC046805460A220021304600F006FAD8
:105A00002C6070BD2DE9FE4F804681EA0300C00F77
:105A10000C46009021F0004123F00045B8EB020055
:105A2000A94105D24046214690461C460B460246F7
:105A300023F00040104347D0270DC7F30A00C3F3FB
:105A40000A510290401A019040286BDAC3F3130008
:105A500040F4801B0098924620B10023D2EB030A49
:105A600063EB0B0B01985946C0F14002504600F021
:105A70009CF906460D4650465946019A00F0B4F985
:105A800010EB08006141002487EA115284EAE773B1
:105A90001A4340D0009A62B3019A012A4FEA075292
:105AA00015DC001B61EB02014FF0004202EA0752D5
:105AB000CDE90042001C41F5801132462B4600F032
:105AC000ECF903B0BDE8F08F40462146F9E7001B32
:105AD00061EB0201001C41F5801300185B412018A6
