:020000040800F2
:10000000C8150020050100088F3700085F29000887
:100010008D370008490C00088D46000800000000DC
:10002000000000000000000000000000DB410008AC
:100030001B0E000800000000D9410008DD41000847
:100040001F0100081F0100081F0100081F01000810
:100050001F0100081F0100081F0100081F01000800
:100060001F0100081F0100081F0100081F010008F0
:100070001F0100081F0100081F0100081F010008E0
:10008000E50D00081F0100081F0100081F010008FE
:100090001F0100081F0100081F0100081F010008C0
:1000A0001F0100081F0100081F0100081F010008B0
:1000B0001F0100081F0100081F0100081F010008A0
:1000C0001F0100081F0100081F0100081F01000890
:1000D0001F0100081F010008BD4500081F0100089E
:1000E0001F0100081F0100081F010008DFF810D0E1
:1000F00000F04CFC00480047C5520008AFF30080F8
:10010000C81500200648804706480047FEE7FEE77E
:10011000FEE7FEE7FEE7FEE7FEE7FEE7FEE7FEE7B7
:1001200049420008ED000008202A04DB203A21FAA9
:1001300002F00021704721FA02F3D040C2F1200200
:100140009140084319467047A0F14101192900D890
:100150002030704740EA01039B0703D009E008C93B
:10016000121F08C0042AFAD203E011F8013B00F87C
:10017000013B521EF9D27047D2B201E000F8012BC8
:10018000491EFBD270470022F6E710B513460A4617
:1001900004461946FFF7F0FF204610BD421E12F834
:1001A000013F002BFBD111F8013B02F8013B002B72
:1001B000F9D1704730B505462A460B4612F8010BB7
:1001C00013F8014B08B1A042F8D01CB1002802D0AE
:1001D0006D1CF1E7284630BDCAB2401E10F8011F61
:1001E0008A4202D00029F9D100207047421C10F841
:1001F000011B0029FBD1801A704710B5044600E0AE
:10020000401C0378002BFBD100E0401C521E04D39D
:1002100011F8013B0370002BF7D10021017020463B
:1002200010BD30B505460020034600E05B1C93423C
:1002300005D2EC5CC85C201A01D1002CF6D130BD8F
:1002400070B5064604F09AFA046805460A220021B1
:10025000304600F09FFA2C6070BD2DE9FE4F8046BD
:1002600081EA0300C00F0C46009021F0004123F00A
:100270000045B8EB0200A94105D240462146904610
:100280001C460B46024623F00040104347D0270D82
:10029000C7F30A00C3F30A510290401A01904028A4
:1002A0006BDAC3F3130040F4801B0098924620B130
:1002B0000023D2EB030A63EB0B0B01985946C0F104
:1002C0004002504600F045FA06460D465046594653
:1002D000019A00F04DFA10EB08006141002487EA12
:1002E000115284EAE7731A4340D0009A62B3019A2C
:1002F000012A4FEA075215DC001B61EB02014FF0A7
:10030000004202EA0752CDE90042001C41F580118B
:1003100032462B4600F0BCFA03B0BDE8F08F4046F1
:100320002146F9E7001B61EB0201001C41F5801337
:1003300000185B412018A2F5001747EB030140EAC3
:10034000D570B6196D4111E06D084FEA360645EAE1
:10035000C0754FEA0752001B61EB0201001C41F51A
:10036000801149084FEA30000019514132462B46AE
:1003700003B0BDE8F04F00F07CBA009801224000C5
:100380000023D0EB020263EBE073009821464FEAB2
:10039000E074B8EB000061EB0401E9E783F000438F
:1003A0005BE781F0004158E72DE9FE4F81EA030445
:1003B00004F0004421F0004100944FF0000B23F0C2
:1003C000004350EA01045ED052EA03045BD0C3F359
:1003D0000A54C1F30A552C44A4F2F3340194A0FB4F
:1003E0000254C1F3130141F48011C3F3130343F426
:1003F000801301FB024400FB034E840A970A44EA7F
:10040000815447EA8357A4FB076802958D0A05FBD0
:1004100007854FEA932C04FB0C542705029D4FEAF5
:10042000065847EA1637B5EB08056EEB070C870E42
:10043000920E47EA811742EA8312A7FB0201B6EB4C
:100440000B0164EB00042B0D43EA0C335E1844EB04
:100450001C50DA465146E7FB0201C5F313044FEA8C
:100460000B3343EA14534FEA0432019C43EA060378
:10047000A4F10C040294009CCDE900B400F008FA49
:1004800003B0BDE8F08F00200146F9E72DE9F04DFB
:1004900081EA030404F0004B21F0004514464FF0BC
:1004A000000A23F0004150EA050220D054EA01027C
:1004B0001DD0C5F30A570246C5F31303C1F3130059
:1004C000C1F30A5640F4801543F48013A7EB0608E5
:1004D000101BD64608F2FD3873EB050002D308F175
:1004E000010801E092185B41B8F1000F03DA002027
:1004F0000146BDE8F08D00204FF480110646844689
:100500000EE0171B73EB050705D3121B63EB050306
:1005100006434CEA010C49084FEA300092185B414F
:1005200050EA0107EDD152EA030012D082EA04003A
:1005300083EA0501084305D0101BAB4106D2012216
:10054000002306E000224FF0004302E06FF00102BA
:1005500053101AEB06004CEB085110EB0A0041EB6C
:100560000B01BDE8F04D00F084B99623002211463E
:1005700000F051B90EB5C10F80EAE0700844CA0717
:10058000002140F233438DE80E000A460B4600F08E
:100590007FF903B000BD0EB540F233410291002156
:1005A000CDE900110A460B4600F072F903B000BD18
:1005B00070B5C1F30A5201F000450024C1F31301E4
:1005C00040F2FF3341F480119A4201DA002070BDFD
:1005D00040F233439A42A2F2334203DC5242FFF725
:1005E000A3FD00E090402C43F1D0404270BDC1F328
:1005F0000A5210B5C1F3130140F2FF3341F48011E8
:100600009A4201DA002010BD40F233439A42A2F22E
:10061000334203DC5242FFF787FD10BD904010BD0E
:1006200000F0004230F000400AD0C10D01F56071C9
:10063000C0F3160042EA0151C20840071143704757
:10064000002001467047000030B5041E71F100041F
:1006500004DB4FF00044404264EB0101141E73F1CF
:10066000000405DB1C464FF00043524263EB0403D9
:10067000994208BF904230BD01F0004330B421F0F0
:10068000004150EA010206D00A0DA2F56072C1F3E2
:100690001301002A02DC30BC00207047440F44EAFA
:1006A000C104C100E01830BC00EBC25000F0AAB891
:1006B000002801DBC0F10040002901DBC1F100414D
:1006C0008142704730B50B460146002020220124AC
:1006D00009E021FA02F59D4205D303FA02F5491B10
:1006E00004FA02F52844151EA2F10102F1DC30BD26
:1006F0002DE9F05F0546002092469B468846064657
:10070000814640241BE02846414647462246FFF7E3
:100710000BFD53465A46C01A914110D31146184654
:10072000224600F016F82D1A67EB01084F462246C4
:100730000120002100F00DF817EB00094E41201EAA
:10074000A4F10104DFDC484631462A464346BDE8B1
:10075000F09F202A04DB203A00FA02F100207047C3
:100760009140C2F1200320FA03F3194390407047EF
:10077000202A06DBCB17203A41FA02F043EAE07365
:1007800006E041FA02F3D040C2F120029140084352
:10079000194670472DE9F04791460F4680460446BA
:1007A000002614F8015B2DB100F002F90068405DED
:1007B000C007F6D12B2D02D02D2D18D0641E4A462D
:1007C0003946204600F0F8F827B13968A14201D136
:1007D000C7F8008071054FF002040BD54042002895
:1007E00003DD03F0CBFF0460A007BDE8F08746F40B
:1007F0008066E4E70028F8DA03F0C0FF04606FF0D9
:100800000040F2E70029A8BF7047401C490008BF1C
:1008100020F00100704710B4B0FA80FC00FA0CF030
:1008200050EA010404BF10BC704749B1CCF1200468
:1008300021FA04F411FA0CF118BF012121430843F5
:10084000A3EB0C01CB1D4FEA00614FEA102042BF21
:10085000002010BC704700EBC35010440029A4BF17
:1008600010BC7047401C490008BF20F0010010BCBC
:10087000704710B5141E73F1000408DA401C41F1F2
:10088000000192185B411A4301D120F0010010BD14
:100890002DE9F04D92469B4611B1B1FA81F202E08A
:1008A000B0FA80F220329046FFF753FF04460F461D
:1008B00040EA0A0041EA0B0153465A46084313D066
:1008C000114653EA010019D0C8F140025046FFF723
:1008D0002BFC05460E46504659464246FFF739FF67
:1008E000084305D0012004E020463946BDE8F08DDC
:1008F0000020054346EAE0762C4337430A98630517
:10090000E40AA0EB08000022FD0A44EA47540A303A
:1009100002D500200146E9E7010510196941DDE92A
:10092000084500196941BDE8F04DA2E770B521F016
:10093000004303430CD0C1F30A550024D5EB040552
:1009400064EB0403D617AD1AB34102DB0020014665
:1009500070BD201841EB025170BDC1F30A52C1F3C2
:10096000130140F2FF3341F480119A4202DA002071
:100970000146704740F233439A42A2F2334202DC0E
:100980005242FFF7D1BBFFF7E4BE0000064C074D13
:1009900006E0E06840F0010394E80700984710344F
:1009A000AC42F6D3FFF7A6FBACA60008CCA6000825
:1009B000004870479CA600082DE9F05F8246007849
:1009C000002715468B460AF10104B946302801D0AC
:1009D0009DB113E014F8010B0127782803D05828A3
:1009E00001D045B10AE00DB1102D07D10027102527
:1009F00014F8010B02E0082500E00A250026B046A5
:100A00000EE005FB080005FB06F1012701EB10468F
:100A10001FFA80F8B6F5803F00D3B94614F8010BF1
:100A2000294600F069F80028EBDABBF1000F05D089
:100A30000FB1641E00E05446CBF80040B9F1000F3E
:100A400006D003F09BFE02210160C81EBDE8F09FA6
:100A500048EA0640FAE72DE9F04D00231A461B1A32
:100A60008A4103DB00200146BDE8F08DC1F30A5244
:100A7000C1F3130141F480154FF0000BD10702D1EF
:100A800000186D41521E0027044640F2FF113846FF
:100A900001EB620A3E468046024600204FF4801178
:100AA000FFF742FBC2197141BB1846EB0100B4EBE2
:100AB000030C75EB000C04D3E41A65EB0005174634
:100AC0000E46241908F101006D4180463428E3DD0B
:100AD000F91946EB0600091BA84103D24FF0FF327B
:100AE000134601E0002213461BEB070046EB0A51B8
:100AF000BDE8F04DFFF7BDBE3A2800D2303820F0F7
:100B00002002412A01D3A2F13700884201D34FF0DD
:100B1000FF30704770B58D1810F8014B14F00302C8
:100B200001D110F8012B231106D110F8013B03E08D
:100B300010F8016B01F8016B521EF9D1ABB110F83E
:100B4000012B04F00C048A1A0C2C03D0A2EB8412A3
:100B50009B1C08E010F8014BA2EB0422F8E712F806
:100B6000014B01F8014B5B1EF9D5A942D4D30020FB
:100B700070BD000070B5044600688168C943C907AC
:100B800017D1816821F00101816000F037FF05462F
:100B90000AE000BF00F032FF401B022804D92068A1
:100BA0008068C043C00706D020688068C043C00783
:100BB000F0D0002070BDA06A40F01000A062E06A92
:100BC00040F00100E062012070BD0000F8B5002691
:100BD0000446009600688168C943C9072DD0816822
:100BE00041F001018160164816490068B0FBF1F040
:100BF00000E0401E00900028FBD100F0FFFE0546FB
:100C000016E000BF00F0FAFE401B022810D9206851
:100C10008068C043C0070BD0A06A40F01000A062FB
:100C2000E06A40F00100E06284F824600120F8BD31
:100C300020688068C043C007E4D10020F8BD0000F0
:100C4000DC09002040420F00FEE7000010B504461A
:100C500001F064FA0349B0FBF1F16143491EFDD292
:100C600010BD000000093D0010B500F059F8012842
:100C700001D0012010BD002010BD000010B52820BB
:100C8000FFF7E4FF4021044800F0AEFE08B1002069
:100C900010BD012010BD0000000801401FB540221A
:100CA000084B012120B100200092CDE9010104E0B0
:100CB0000320CDE90021CDE902106946184600F075
:100CC000A3FD1FBD0008014010B50C4C402120467B
:100CD00000F08AFE0028F9D02820FFF7B7FF402156
:100CE000204600F081FE002806D04021204600F07A
:100CF0007BFE0028F9D1012010BD00000008014052
:100D000070B5002425466006040EFFF7DDFF08B12C
:100D100044F001046D1CEDB2082DF4D3204670BDE3
:100D20002DE9FC41064600200D460090019000F0A0
:100D300045F8FFF7A3FFC8B31F4C4021204600F041
:100D400053FE0028F9D04021204600F04DFE002837
:100D5000F9D100244FEA0D07FFF7D2FF3855641C84
:100D6000E4B2052CF8D39DF800009DF801109DF821
:100D700002309DF80340421823441A449DF8043081
:100D80009A4214D16424B1FBF4F10844FFF7EDFB5F
:100D900028609DF803009DF80210B0FBF4F00844B1
:100DA000FFF7E3FB30600120BDE8FC8101E000209B
:100DB000FAE70220F8E700000008014010B5002023
:100DC000FFF76CFF00224021054800F012FE1420BE
:100DD00000F008FDBDE810400120FFF75FBF0000F4
:100DE00000080140014800F0EDBB0000800B00202E
:100DF00030B590F840500124AC40C56B6C6004687D
:100E000063604368102B036803D099600068C26078
:100E100030BD9A600068C16030BD704710B54FF4B6
:100E200080610348FFF7AFF902490020088010BD38
:100E3000C40B0020CC09002010B5044609A10B48C2
:100E4000FFF7B8F930B13A21FFF7C6F9002800D012
:100E5000401C10BD052000F0C5FC2046641EA4B255
:100E6000ECD210BD4950442C00000000C40B0020FF
:100E700010B5FFF7D3FF4FF4FA7402E0204600F0FC
:100E8000B1FC1EA11EA000F095F80028F6D102E0EA
:100E9000204600F0A7FC19A11BA000F08BF8002849
:100EA000F6D102E0204600F09DFC14A11AA000F04B
:100EB00081F80028F6D102E0204600F093FC1AA148
:100EC0001BA000F077F80028F6D102E0204600F0E1
:100ED00089FC0AA120A000F06DF80028F6D102E0FC
:100EE000204600F07FFC20A121A000F063F800283C
:100EF000F6D1BDE8104029A003F0F8BB4F4B00002D
:100F000041540D0A0000000041542B43574D4F44FB
:100F1000453D310D0A00000041542B4357444843DE
:100F2000503D312C310D0A00474F542049500000EC
:100F300041542B43574A41503D226D655F636F6DAD
:100F40007075746572222C2232393630343933345C
:100F50003235220D0A00000041542B4349504D55B3
:100F6000583D300D0A000000434F4E4E454354009B
:100F700041542B43495053544152543D2254435001
:100F8000222C223138332E3233302E34302E333966
:100F9000222C363030320D0A00000000372E20455A
:100FA00053503832363620496E6974204F4B0D0A43
:100FB0000000000070B50E460546C824FFF72EFF5E
:100FC0002846FFF713F982B229460A4803F060FB6E
:100FD0000BE031460848FFF7EDF818B1FFF71EFFA8
:100FE000002070BD0A2000F0FDFB641EE4B2F0D2C8
:100FF000012070BD00440040C40B002030B589B012
:101000000C460546FFF70AFF22460CA1684603F08E
:101010007DFB69460DA003F069FB0FA16846FFF751
:10102000C9FF002808D129460CA003F05FFB224627
:1010300029460D4803F02CFB09B030BD41542B4329
:10104000495053454E443D25640D0A00636D64428A
:1010500075663D25730D0A003E00000064617461F1
:10106000203D2025730D0A00004400407047000019
:10107000F8B50024009490F824202546012A12D0C7
:10108000012280F824204A681F23072A0DD206680F
:10109000776B521E02EB820293409F430B68934092
:1010A0001F43776319E00220F8BD06680D2A0AD2B3
:1010B000376BD21F02EB820293409F430B68934031
:1010C0001F43376309E0F76A0D3A02EB820293404F
:1010D0009F430B6893401F43F7620A680723066823
:1010E0000A2A0AD3F7680A3A02EB420293409F4366
:1010F0008B6893401F43F76008E0376902EB4202B8
:1011000093409F438B6893401F4337610A68102ABE
:1011100001D0112A20D1124B02689A4217D193684C
:101120001B0219D4936843F40003936009681029E3
:1011300012D10C490C4A0968B1FBF2F101EB8101B3
:10114000490000E0491E00910029FBD104E0816ABA
:1011500041F020018162012480F824502046F8BD2E
:1011600000240140DC09002040420F000068C06CF0
:10117000704700002DE9F0414FF0000704003D46A4
:101180007ED0A06A002628B9E66284F82460204652
:1011900000F07EF82046FFF7EDFCA16AC90600D4F6
:1011A00020B1A06A40F01000A06269E0A16A21F4B9
:1011B000885141F00201A1626268E169237B0A4320
:1011C00047EA43010A43A1684FF48077B94209D046
:1011D000012907D05FF0000194F814C0BCF1010FA1
:1011E00002D00AE03946F7E7F3B1A36A43F02003DF
:1011F000A362E36A43F00103E3622368D3F804C007
:101200002CF4694C4CEA010CC3F804C021688B68CB
:10121000DFF870C003EA0C0313438B60A168B94286
:101220000BD0012909D00CE0DFF85CC0A3690CEBFE
:1012300043330B4343F40061DFE7218A0D05A5F535
:1012400080152168CB6A23F470032B43CB6221689D
:1012500089680E4B1940914208D1E662A16A21F0DB
:10126000020141F00101A162BDE8F081A06A20F015
:10127000020040F01000A062E06A40F00100E0626D
:101280000120F1E7FDF7E1FF00E0FFFFFE0E1FFF89
:1012900000B585B000210091019102910391006891
:1012A0000E49884218D10E48816941F4007181616C
:1012B000816901F400710491816941F00801816143
:1012C0008069694600F00800049001200090032026
:1012D0000190044800F098FA05B000BD00240140D8
:1012E00000100240000C01402DE9F84300270D4694
:1012F0000446009700F082FB804620688168C9059B
:1013000008D5A06A40F02000A06284F82470012073
:10131000BDE8F8834168C90503D4C06A10F4700FB2
:101320002AD0022000F09CFD3B490968B1FBF0F691
:101330002068036939490B424FEA61014FEAA11263
:101340001FD1C3684FEA611C13EA0C0F19D103695E
:101350000B4225D1C068104222D1142023E0681C22
:101360000AD02DB100F04AFBA0EB0800A84203D937
:1013700020680068800725D5206800688007EED5C2
:101380002DE003690B4202D1C168114206D0026907
:1013900023490A4206D1C068084203D1542002E022
:1013A000292000E0FC204643009816E0681C11D07C
:1013B0002DB100F023FBA0EB0800A8420AD9009849
:1013C000B04207D2A06A40F00400A06284F8247002
:1013D00003209DE70098401C0090B042E6D32168AE
:1013E0006FF012000860A06A40F40070A0622068EC
:1013F0008068C0F3424007280CD1207B50B9A06A16
:1014000020F48070A062A06AC00403D4A06A40F0F7
:101410000100A06200207BE7DC090020244992241F
:101420004992240070B5044690F8240001280DD09C
:10143000012084F824002046FFF7C8FB02004FF08B
:10144000000005D084F82400104670BD022070BD55
:10145000A16A40F20123994341F48071A1621F4DBA
:1014600023681F49AB4218D10E6816F4702F14D0B0
:10147000A66A46F48016A6620E68760505D5A66AA9
:1014800026F4005646F48056A662A66AF6040AD5EB
:10149000E66A26F00606E66206E0A66A26F48016EC
:1014A000A6625E68E9E7E06284F824006FF002005B
:1014B000186020688368C3F34243072B05D1A84214
:1014C00008D1096811F4702F04D0816841F48011AB
:1014D0008160B9E7816841F4A001F9E70028014083
:1014E0000424014010B590F821100022022905D0F3
:1014F0000421816380F82020012010BD01680B6861
:1015000023F00E030B6001680B6823F001030B60EE
:1015100090F84030C46B012101FA03F3636080F856
:10152000211080F82020104610BD000010B590F862
:1015300021100024022903D00421816301243DE00D
:1015400001680A6822F00E020A6001680A6822F047
:1015500001020A601A4A0168914201D1012121E089
:10156000174A1432914201D110211BE0144A28324B
:10157000914201D1891515E0114A3C32914201D1C5
:1015800089140FE00E4A5032914202D14FF480315B
:1015900008E00B4A6432914202D14FF4801101E01D
:1015A0004FF08071064A083A5160012180F82110FD
:1015B000002180F82010416B01B18847204610BD02
:1015C000080002402DE9F05FC16B0C6801680B68F0
:1015D000D0F840C0042202FA0CF2494DDFF824A1F1
:1015E000494E4A4FDFF828B1DFF828E122422CD0DB
:1015F0005A072AD50A68920603D40A6822F0040220
:101600000A600168A94201D1042219E0514501D1C3
:10161000402215E0B14202D14FF4806210E0B9429D
:1016200002D14FF480420BE0594502D14FF48022A1
:1016300006E0714502D14FF4800201E04FF0806274
:101640002F4908394A60C16A3BE04FF0020808FAA6
:101650000CF818EA040F4FF000094FF0010235D0E2
:101660005FEA837832D50B689B0605D40B6823F0BC
:101670000A030B6080F821200168A94201D10222EF
:1016800019E0514501D1202215E0B14202D14FF4B9
:10169000007210E0B94202D14FF400520BE05945FC
:1016A00002D14FF4003206E0714502D14FF400122E
:1016B00001E04FF00072124908394A6080F820902A
:1016C000816A00291AD0BDE8F05F0847082505FAAD
:1016D0000CF5254212D01B0710D50B6823F00E0322
:1016E0000B6090F84010C36B02FA01F159608263FD
:1016F00080F8212080F82090016BE2E7BDE8F09FA0
:10170000080002401C000240300002404400024039
:10171000580002406C00024030B528B308C8134995
:1017200014221944B1FBF2F18900C16310498163AD
:10173000022141771A6843F6F0718A43D0E9001418
:101740002143D0E902452C432143046921434469E4
:10175000214384692143114319600021416301221F
:1017600042770177084630BD012030BDF8FFFDBF4C
:101770000000024070B5044690F8200000250128C2
:101780000CD0012084F8200094F821600020012E64
:1017900006D084F820000225284670BD022070BDC6
:1017A000022684F82160A0632068066826F00106FE
:1017B00006602046FFF71CFBE06A002820680168ED
:1017C00002D041F00E0106E021F004010160206822
:1017D000016841F00A0101602068016841F00101DF
:1017E0000160D9E770B5044600F008F90546601CB1
:1017F00002D004480078044400F000F9401BA042E5
:10180000FAD370BDD00900202DE9F84FDFF8B89168
:101810000024A9F1040B23460F2709F1040AABF1B8
:10182000040EC9E00125A5402A40AA427DD1674E99
:10183000D1F804C0ACEB0608B44532D014DCBCF1DE
:10184000030F3AD009DCBCF1000F2AD0BCF1010F24
:101850001CD0BCF1020F31D11DE0BCF1110F17D02B
:10186000BCF1120F2AD119E0B8F5881F19D006DC97
:10187000B8F5803F15D0B8F5801F1FD111E0B8F53D
:10188000001F0ED0B8F5041F18D10AE0CB6815E090
:10189000CB681B1D12E0CB6808330FE0CB680C331C
:1018A0000CE08B682BB1012B4FF0080303D045618E
:1018B00004E0042302E0056100E00023FF2A01D8D0
:1018C000064601E000F104064FEA840501D9A5F1BE
:1018D0002005D6F8008007FA05FC28EA0C0803FA70
:1018E00005F548EA0508C6F800804D68ED0062D5A8
:1018F000374DAE6946F00106AE61AD6924F00306CE
:1019000005F001050095334D06EB050CDCF8085099
:10191000A607360F07FA06F825EA0805DFF8B880AB
:10192000404503D14FF0000817E044E0DFF8AC80F9
:10193000404502D14FF001080FE0DFF8A480404598
:1019400002D14FF0020808E0DFF89880404502D14C
:101950004FF0030801E04FF0040808FA06F848EADF
:101960000508CCF808804D68D9F80060ED024D46B6
:1019700001D5164300E096432E604D68DAF800600A
:10198000AD02554601D5164300E096432E604D68E2
:10199000DBF80060AD035D4601D5164300E09643D9
:1019A0002E604D68DEF80060ED03754601D51643E4
:1019B00000E096432E60641C0D682A46E5407FF4E3
:1019C00031AFBDE8F88F000008040140000011109D
:1019D000001002400000014000080140000C0140DE
:1019E00000100140001401408068084000D0012030
:1019F00070470AB1016170470904FBE7014880683C
:101A000070470000D009002070B5040025D094F87C
:101A10003D00002520B984F83C50204600F050F9E4
:101A2000242084F83D002068016821F00101016054
:101A30002068016841F4004101602068016821F4D8
:101A40000041016000F070FB4D4A6168914201D88D
:101A50004C4900E04C49884201D2012070BD4B49FD
:101A60002368B0FBF1F15E6826F03F060E435E602E
:101A70006368934206D94FF4967359434FF47A73CF
:101A8000B1FBF3F12368491C1E6A26F03F0631437F
:101A900019626168914210D84900401EB0FBF1F212
:101AA000521CC2F30B02042A01D2042022E0B0FB34
:101AB000F1F0401CC0F30B001CE0A268F2B301EB94
:101AC000C10303EB0116431EB3FBF6F35B1C43F4A7
:101AD00080431B0549D092B301EBC10202EB011117
:101AE000401EB0FBF1F0401CC0F30B0040F48040FE
:101AF00040F400402168CA694CF6FF739A431043D2
:101B0000C861D4E9071001432068026822F0C002CE
:101B100011430160D4E9030101432068826848F25F
:101B2000FF339A4311438160D4E9050108432168DA
:101B3000CA6822F0FF021043C86001E00EE016E020
:101B40002068016841F0010101602564202084F8CB
:101B50003D00256384F83E50002070BD01EB410636
:101B6000431EB3FBF6F35B1CB3E70120C2E701EBB6
:101B70004101401EB0FBF1F0401CC0F30B00B7E781
:101B8000A086010080841E0000093D0040420F0035
:101B90002DE9FF4F83B09A46DDE91197934604463D
:101BA000DDF84080FFF72AFF054694F83D00202825
:101BB0007FD11923012240492046009500F068FF9B
:101BC000002876D194F83C00012872D0012084F8D6
:101BD0003C0020680168C90703D1016841F0010198
:101BE00001602068016821F400610160212084F80F
:101BF0003D00402084F83E0000262664C4F824807E
:101C0000A4F82A90608D20852C48E062CDE900750B
:101C100053465A462046049900F0BAFE70B930E0A7
:101C20002A463946204600F0D9FF58B1206C0428D6
:101C300004D12068016841F400710160012007B0FF
:101C4000BDE8F08F606A216800780861606A401C16
:101C50006062218D491E89B22185628D521E628586
:101C600022685369DB435B070BD469B100781061CC
:101C7000606A401C6062208D401E2085608D401E81
:101C80006085208D0028CBD12A463946204600F0B9
:101C9000D3FE0028CAD154F83D0B016841F400710D
:101CA0000160202004F81E09E67766770020C6E769
:101CB000FFE70220C3E70000020010000000FFFF62
:101CC00010B586B000210091019102910391006846
:101CD0001349884222D1134CA06940F00800A0614A
:101CE000A069694600F0080004904FF4407000902D
:101CF00012200190032003900B48FFF785FD0B484D
:101D0000416841F0E06141F002014160E06940F466
:101D10000010E061E06900F40010049006B010BD0E
:101D20000054004000100240000C0140000001403F
:101D3000024881680278114481607047D009002010
:101D4000074810B5016841F010010160032000F060
:101D500075F8002000F006F800F024F8002010BD0F
:101D60000020024070B50D4D04464FF47A7128787A
:101D7000B1FBF0F00A490968B1FBF0F000F0AAFBF2
:101D800048B9102C07D200222146501E00F036F828
:101D900000206C6070BD012070BD0000D0090020E3
:101DA000DC0900200C4808B5816941F0010181611E
:101DB000816901F001010091C16941F08051C16167
:101DC000C06900F0805000900448416821F0E06153
:101DD00041F00071416008BD001002400000014068
:101DE000002809DB00F01F0201219140400980001A
:101DF00000F1E020C0F8001170470000F0B40E4B75
:101E00001B680C46C3F30223C3F10705042D00D958
:101E10000425191D072901D2002300E0DB1E01263D
:101E200006FA05F1491E214099409E40761E164053
:101E30003143F0BC02F092BC0CED00E0064900F02A
:101E4000070208684FF6FF03184040EA0220034AE1
:101E500010430860704700000CED00E00000FA0538
:101E600010B501460020234C012922D0022939D087
:101E700010291DD161682268D20119D51E48C1F30D
:101E80008342C903805C0AD561681B4AC1F34041A3
:101E9000921E515C194AB2FBF1F1484301E0184926
:101EA00048436168490203D440000321B0FBF1F0CC
:101EB00010BD226AC2F30121012903D1920701D585
:101EC000C80310BD022905D1626A920702D549F6FE
:101ED000404010BD0329FCD121688903F9D54FF298
:101EE000244010BD00F030F96168C1F38131491C14
:101EF0004900DBE7001002405BA5000800127A00F1
:101F000000093D002DE9F84305460078354CC0072F
:101F100054D0E0690026C00008D4E06940F0805049
:101F2000E061E069012600F0805000902E480168D1
:101F3000C90512D40168804641F480710160FFF741
:101F40005DFD074605E000BFFFF758FDC01B642894
:101F500023D8D8F80000C005F6D5206A10F44070E8
:101F600021D0A98801F4407181421CD0206A1F4908
:101F7000012220F440700A6000220A602062C0073B
:101F800011D0FFF73BFD074641F2883808E000BF5B
:101F9000FFF734FDC11B414502D90320BDE8F8839A
:101FA000206A8007F4D5206A696820F440700843ED
:101FB00020621EB1E06920F08050E061287880073F
:101FC00005D56068A96820F440400843606028781F
:101FD000C00605D56068E96820F4800008436060A9
:101FE0000020DBE700100240007000404004424245
:101FF0002DE9F0470F46050061D0434E306800F0F0
:102000000700B84209D2306820F00700384330603A
:10201000306800F00700B84251D128683B4C810776
:1020200012D5400703D5606840F4E060606028780E
:10203000000703D5606840F4605060606068A9687C
:1020400020F0F000084360602878C00728D0686856
:10205000012810D02168022810D0890700292EDA23
:10206000616821F0030101436160FFF7C7FC80460E
:1020700041F288390DE021688903EFE78901EDE736
:10208000FFF7BCFCA0EB0801494502D90320BDE8DD
:10209000F0876068696800F00C00B0EB810FEFD149
:1020A000306800F00700B8420BD9306820F0070014
:1020B00038433060306800F00700B84201D001209A
:1020C000E5E72878400705D56068E96820F4E06016
:1020D000084360602878000706D56068296920F405
:1020E000605040EAC100606000F03EF86168084A54
:1020F000C1F30311515CC8400649086006480068F6
:10210000FFF730FE0020C2E700200240001002402E
:102110006BA50008DC090020D409002001480068F4
:1021200070470000DC090020044805490068496840
:10213000044AC1F30221515CC8407047DC09002009
:10214000001002407BA50008044805490068496862
:10215000044AC1F3C221515CC8407047DC09002029
:10216000001002407BA500080E4A51680E4801F09D
:102170000C03042B11D0082B0FD10C48C1F383435F
:10218000C903C05C0AD55168084AC1F34041921E98
:10219000515C054A5043B0FBF1F070470449484395
:1021A000704700000010024000127A0049A50008A4
:1021B00000093D002DE9F84F040070D02078C04D93
:1021C000C00749D06868C0F38100012807D068685B
:1021D000C0F38100022809D16868C00306D52868C9
:1021E000800339D560680028E7D035E06068B0F535
:1021F000803F0BD010B1B0F5A02F11D0286820F48B
:1022000080302860286820F4802002E0286840F4AC
:1022100080302860606890B1FFF7F0FB06460AE066
:10222000286840F480202860F0E700BFFFF7E6FB55
:10223000801B642873D828688003F7D50CE0FFF76B
:10224000DDFB064605E000BFFFF7D8FB801B6428D6
:10225000F0D828688003F7D420789A4E80074FF092
:1022600001094FF0000839D5686810F00C0F07D04D
:102270006868C0F38100022809D16868C00306D4E9
:102280002868800714D52069012808D110E020694A
:10229000B0B1C6F80090FFF7B1FB074605E00AE1D0
:1022A000FFF7ACFBC01B0228C4D828688007F7D50D
:1022B0002868616920F0F80040EAC10028600DE05C
:1022C000C6F80080FFF79AFB074604E0FFF796FB8D
:1022D000C01B022823D828688007F7D4207800077D
:1022E0002CD57948A169D9B1C0F80090FFF786FBD9
:1022F000074604E0FFF782FBC01B02280FD8686A7C
:102300008007F7D571484FF4FA510068B0FBF1F03F
:10231000009000BF0098411E0091FAD20EE080E0CC
:10232000C0F80080FFF76AFB074604E0FFF766FB92
:10233000C01B022875D8686A8007F7D42078400748
:1023400060D5E8690027C00008D4E86940F08050F3
:10235000E861E869012700F0805000905C4801685E
:10236000C90513D40168834641F480710160FFF709
:1023700045FB824606E000BFFFF740FBA0EB0A00EA
:1023800064284ED8DBF80000C005F5D5E0680128C8
:102390000AD008B1052813D0286A20F0010028626D
:1023A000286A20F0040002E0286A40F00100286258
:1023B000E06841F2883B98B1FFF720FB82460BE0D2
:1023C000286A40F004002862EEE700BFFFF716FB22
:1023D000A0EB0A0159455AD8286A8007F6D50CE0C7
:1023E000FFF70CFB824605E0FFF708FBA0EB0A01B4
:1023F00059454CD8286A8007F6D41FB1E86920F007
:102400008050E861E06988B36968C1F381010229FD
:1024100044D00228C6F8608004D0FFF7EFFA0446E3
:1024200038E034E0FFF7EAFA074604E0FFF7E6FA9F
:10243000C01B02282BD828688001F7D4206AB0F589
:10244000803F05D16868A16820F4003008436860C7
:10245000D4E908010843696821F4741108436860ED
:10246000C6F86090FFF7CAFA044606E025E000BF10
:10247000FFF7C4FA001B022809D828688001F7D5A5
:102480001BE000BFFFF7BAFA001B022802D90320A5
:10249000BDE8F88F28688001F4D40EE00128F7D059
:1024A0006868226A00F48031914204D1616A00F4C4
:1024B0007010884201D00120EAE70020E8E7000020
:1024C000001002400000424280044242DC09002029
:1024D0000070004010B5401EB0F1807F01D3012094
:1024E00010BD4FF0E02460610F21601702F036F953
:1024F0000020A06107202061002010BD704710B5AA
:1025000004460068406994F84110C0F3C0102129C6
:1025100011D180B12068143050E8001F21F08001F3
:1025200040E80012002AF5D1A06B08B1FEF7DAFFEF
:10253000204601F030FF2068406994F84210C0F353
:102540008010222911D180B12068143050E8001F7A
:1025500021F0400140E80012002AF5D1E06B08B1FB
:10256000FEF7C0FF204601F0EFFE002010BD7047CF
:10257000F8B5016804460868CA684B6910F00F0F87
:102580004FF0000559D003F0010602F4907737436D
:1025900065D0C10705D0D10503D5616C41F00101BB
:1025A0006164410705D5D90703D0616C41F0020190
:1025B0006164810705D5D90703D0616C41F004013E
:1025C0006164010707D502F02001314303D0616C3B
:1025D00041F008016164616C00293AD0800604D59D
:1025E000900602D5204601F0E4FE20684069616C47
:1025F000C0F38010090700D460B3204601F0A4FEA8
:1026000020684069400621D52068143050E8001F3A
:1026100021F0400140E80012002AF5D1E06BA8B19A
:102620006D494163E06BFEF781FF002811D0E06B3C
:10263000416B01B0BDE8F040084783060FD5930613
:102640000DD52046BDE8F84001F0B3BE2046FFF7A7
:102650008EFFF8BD2046FFF78AFF6564F8BD266B44
:102660002023012E7CD1C6067AD5D60678D50868F7
:102670004868009048694FF00206400640D5E16B7B
:10268000086840680004000CE8D0A28D8242E5D9B9
:10269000E085886920282DD020680C3050E8001F84
:1026A00021F4807140E80012002AF5D1206814302E
:1026B00050E8001F21F0010140E80012002AF5D186
:1026C0002068143050E8001F21F0400140E800125B
:1026D000002AF5D184F84230256320680C3050E898
:1026E000001F21F0100140E80012002AF5D1E06B34
:1026F000FEF7F8FE6663A08DE18D401A81B22AE0F4
:10270000A08DE18D401A81B2E08D0028A6D000296D
:10271000A4D022680C3252E8000F20F4907042E8F6
:102720000007002FF5D12068143050E8002F22F068
:10273000010240E80027002FF5D184F842302563DC
:1027400020680C3050E8002F22F0100240E80023EF
:10275000002BF5D166632046FFF7D0FEF8BDFFE7FA
:1027600005062BD5150629D594F841002128F5D169
:10277000A068B0F5805F01D12069B0B1206A411C2A
:102780002162216800784860E08C401E0004000C43
:10279000E084E3D12068C16821F08001C160206835
:1027A000C16841F04001C160D8E7206A0088C0F3E9
:1027B00008004860206A801C2062E5E74006CDD50D
:1027C0005006CBD5CA68204622F04002CA6084F881
:1027D000413000F0C3F8C1E74B42000870B5040077
:1027E00004D094F84100002510B106E0012070BD2E
:1027F00084F84050204600F023F8242084F841005B
:102800002068C16821F40051C160204601F032FE09
:102810002068016921F4904101612068416921F03B
:102820002A0141612068C16841F40051C1606564BA
:10283000202084F8410084F842006563002070BDC8
:10284000F0B585B0002400940194029403940646E8
:10285000344F0368344902220320344DBB4221D156
:102860008B6943F480438B618B6903F48043049349
:102870008B6943F004038B618969039001F00401C3
:1028800004911102CDE9001269462846FEF7BCFF0B
:102890002815CDE90004694628460294FEF7B4FFE6
:1028A00005B0F0BD224FBB42FAD1CB6943F40033EF
:1028B000CB61CB6903F4003304938B6943F00403C9
:1028C0008B618969039001F0040104910421CDE931
:1028D000001269462846FEF797FF0820CDE900045C
:1028E000694628460294FEF78FFF134D1148C5E94B
:1028F00000048020C5E902402C616C61AC6128466F
:10290000EC61FEF709FF08B1FEF7B0FBF5630022AA
:10291000114626206E62FFF771FA2620FFF760FA53
:10292000BEE70000003801400010024000080140EE
:10293000004400406C000240800B002090F84230C0
:10294000202B01D00220704721B11AB1002303636C
:1029500001F0ECBD01207047704770477047FEE7FB
:1029600001684A69D24352050FD46FF480624A610C
:10297000002140F8301F202242738173026942F027
:1029800004020261017301207047002070470000BB
:102990002DE9F843044600680D46DDE90897016813
:1029A0009846164641F4807101604B4600224FF074
:1029B00001112046009700F06BF848B120680068CC
:1029C000C00502D54FF4007020640320BDE8F883F1
:1029D000216805F0FE0008613B464A46154920463D
:1029E00000F09EF888B920684169806900903A46F5
:1029F0004946204600F0F2F848B1206C042804D182
:102A00002068016841F4007101600120DEE7F5B241
:102A1000B8F1010F09D02168300A08613A464946E9
:102A2000204600F0DBF80028E7D12068056100208F
:102A3000CCE700000200010070B516460D460446C2
:102A40001EE02046FFF78CFF08B1012070BD681C16
:102A500016D0FEF7D3FF801BA84200D885B92068A6
:102A60004069C04340070BD5002044F8300F2021B7
:102A70006173A073216941F0200121612073E4E7B3
:102A800020684069C0434007DBD4002070BD0000CF
:102A90002DE9F047984617460D460446C1F3074610
:102AA000DDF820902AE000BFB8F1FF3F26D0FEF706
:102AB000A5FFA0EB0901414502D8B8F1000F1DD1D7
:102AC0002068012E16D0806925EA00000004000C61
:102AD00012D00020B84211D1002044F8300F20213C
:102AE0006173A073216941F02001216120730120ED
:102AF000BDE8F0874069E7E70120EBE72068012E99
:102B00000AD0806925EA00000004000C06D00020ED
:102B1000B842C9D00020EBE74069F3E70120F7E7AE
:102B20002DE9F047984616460D4604464FF0000939
:102B30004FF0200AC1F3074723E020684069C043F3
:102B4000400515D42068016841F4007101602168D6
:102B50006FF480604861C4F8309084F83DA084F838
:102B60003E90216C41F00401216484F83C9021E006
:102B7000701C06D0FEF742FFA0EB0800B04203D85D
:102B800016B1012F1FD021E02068012F15D08069D8
:102B900025EA00000004000C18D000BF44F8309F64
:102BA00084F80DA084F80E90216941F02001216184
:102BB00084F80C900120BDE8F087406925EA000008
:102BC0000004000CEAD12068406901E020688069B7
:102BD00025EA00000004000CAFD1ECE770B5164602
:102BE0000D4604461EE02046FFF7BAFE08B101205C
:102BF00070BD681C16D0FEF701FF801BA84200D8EC
:102C000085B920684069C04300060BD5002044F810
:102C1000300F20216173A073216941F020012161EF
:102C20002073E4E720684069C0430006DBD400203D
:102C300070BD10B50446007B012802D1206802F067
:102C400019FB002020606060A060207310BD0000B0
:102C50005FF0010200F07F030B70C00909D043F060
:102C60008003521C01F8013B042AF3DD4FF0FF30D2
:102C70007047104670472DE9F04104460025006872
:102C80000F462E4610B10220207315E0012020735C
:102C9000084602F06BFC2060002808D0C4E90167F8
:102CA00002E0206846556D1CA068A842F9D8BDE82E
:102CB000F081206846556D1CA068A842F9D866606E
:102CC0008842F4D22660F2E72DE9FF47174688468E
:102CD0008146FDF78BFA84B24046FDF787FA00265D
:102CE000E01D02F043FC050025D0E11DFDF74BFA85
:102CF00012A02246016829608088A880494628469B
:102D0000FDF77BFA4046FDF771FA034600200DF10E
:102D1000040A012100908AE88300424629460A20DD
:102D200000F042F900B10126284602F0A3FA30462D
:102D300004B0BDE8F0870120FAE700002463727355
:102D4000702F00002DE9FF5F9A469346002510463C
:102D5000DDF844900E9F139CFDF748FA06B2BBF1D4
:102D6000000F1FD006F111001FFA80F807B10225ED
:102D7000109868B145F00405FDF738FAC7B2484627
:102D8000FDF734FAC11901EB0800001D1FFA80F8A5
:102D90000F9870B1012807D0022808D0022004B093
:102DA000BDE8F09F0120FAE745F00C0501E045F091
:102DB0001405129808B145F02405009860B30198F5
:102DC00050B345F0C0070098FDF710FA054601988A
:102DD000FDF70CFA291801EB0800001D85B2294601
:102DE0002046FFF748FF2068C0B12946FDF7CBF920
:102DF000D4E90030411C102261601A54D4E900016A
:102E00000144681FFFF724FF00B2002808DA2046BB
:102E1000FFF70FFF0520C2E70320C0E70420BEE74D
:102E2000616823680844411C616000221A54D4E997
:102E30000030421C042162601954D4E90050421C45
:102E40004D2362602B54D4E90050421C6260512330
:102E50002B54D4E90030451C542265601A54D4E93F
:102E60000050431C63602A54D4E90030421C626065
:102E70001954D4E90020411C61601754D4E9003092
:102E8000411C4FEA1A2261601A54D4E90030421CF6
:102E9000626003F800A0D4E90030411C320A61608E
:102EA0001A54D4E90020411C61601654D4E9000191
:102EB000084432465946FDF7A0F960683044606026
:102EC000780736D5B9F1000F01D10FF2D809109863
:102ED000FDF78CF985B2D4E90030411C2A0A616003
:102EE0001A54D4E90020411C61601554D4E9000152
:102EF00008442A461099FDF780F96068284460600C
:102F00004846FDF773F985B2D4E90030411C2A0A1E
:102F100061601A54D4E90020411C61601554D4E961
:102F2000000108442A464946FDF767F960682844CD
:102F30006060380618D50098FDF758F985B2D4E9D5
:102F40000030411C2A0A61601A54D4E90020411C57
:102F500061601554D4E9000108442A460099FDF740
:102F60004CF9606828446060780618D50198FDF730
:102F70003DF985B2D4E90030411C2A0A61601A5437
:102F8000D4E90020411C61601554D4E900010844D3
:102F90002A460199FDF731F96068284460600020F5
:102FA000FDE60000000000002DE9FF4F81B09046D3
:102FB0004FF00006119C0F9A9A465FEA000BB1464B
:102FC000314608D1012005B0BDE8F08F232816D086
:102FD0002B2814D0761C0298805D0028F6D141F091
:102FE00030070AB147F0010706EB0A050E98AD1C41
:102FF00068B1012805D0022806D00320E3E70220AB
:10300000E1E747F0020701E047F00407AD1CB8F123
:10301000000F03D098F80000022807D0691D204651
:10302000FFF729FE206850B3691D14E05FF000002F
:1030300018F80010401C7D29FAD100F10409AAEB10
:103040000900291A00912046C91CFFF714FE2068C8
:10305000A8B10099C91CFDF796F8D4E90020411CDD
:1030600061601754D4E9000101442846FFF7F0FDE0
:10307000002806DA2046FFF7DCFD0520A3E7042040
:10308000A1E7616823680844411C320A61601A5450
:10309000D4E90020411C61601654D4E900010844C1
:1030A00032460299FDF7A9F86068304460600E99D5
:1030B00059B12368411C4FEA1B2261601A54D4E9BC
:1030C0000030421C626003F800B0B8F1000F0ED06F
:1030D00098F800000228D4E90001084409D05246BB
:1030E0004146FDF737F8616801EB0A006060002097
:1030F00069E74A464146FDF72DF8616801EB090092
:10310000F4E770B50C46054604212046FFF7B3FDF1
:103110002168B9B160684023421C62600B54D4E955
:103120000030411C022261601A54D4E90030411C75
:103130002A0A61601A54D4E90020411C61601554C8
:10314000002070BD012070BD70B50C4605460421FD
:103150002046FFF790FD2168B9B160685023421CFA
:1031600062600B54D4E90030411C022261601A54A1
:10317000D4E90030411C2A0A61601A54D4E90020C5
:10318000411C61601554002070BD012070BD00001D
:103190002DE9FF4701270C9C4FF00009CDE900798C
:1031A0001A4DCDE902740E46DFF85C8029889A46F4
:1031B00008EB0111F31C4A460A20FFF7F5FE18B18F
:1031C000012004B0BDE8F087D4E90030421C626001
:1031D00003F800A029880EA008EB011101F086FA7F
:1031E000D4E90020431C310A63601154D4E9002063
:1031F000411C616016542888012801D02F8001E00D
:10320000A5F800900020DCE727A50008C8090020E9
:103210005075626C6973685F546F7063203D202540
:10322000730D0A002DE9F0474FF00008089C1F4677
:1032300091468A46060045460AD10120BDE8F0873E
:1032400059F8250020B3FCF7D1FF6D1C8044EDB286
:10325000BD42F5D307EB470101EB0805E91D204608
:10326000AD1CFFF708FD2168A1B160688222431CF4
:1032700063600A54D4E9000101442846FFF7E8FCE2
:1032800000B2002808DA2046FFF7D3FC0420D5E777
:103290000220D3E70320D1E7616823680844411C7A
:1032A000320A61601A54D4E90020411C616016544E
:1032B000002520E059F82500FCF798FF0646020A91
:1032C000D4E90030411C61601A54D4E900314A1C31
:1032D00062605E54D4E90001084459F82510324672
:1032E000FCF78BFF606823683044411C61606D1CF3
:1032F00003F800A0EDB2BD42DCD300209EE7F0B59C
:103300000446002001235D05106012E0275C16686A
:1033100007F07F0707FB03661660265C360601D4BC
:10332000401CF0BDDB01AB4202D36FF00100F0BDE9
:10333000401C8842EADB4FF0FF30F0BD2DE9F84336
:103340000E4607461D4690462F21801DFCF744FF80
:103350000021009150B3441C6A460421781CFFF7F9
:10336000CEFF252002F002F9306008B32521FCF7DA
:103370000AFF242221463068FCF7ECFE0098243432
:103380002C3880B22880401C02F0F0F8C8F8000009
:1033900080B12988491CFCF7F6FE2A882146D8F816
:1033A0000000FCF7D7FE0020BDE8F8830120FBE712
:1033B0000220F9E7306801F05DFF0320F4E741786F
:1033C000022901D001207047817819B1012901D06B
:1033D000FF207047C07870472DE9F84F0446007809
:1033E000DDE90A7B00F00F0900200E460090C9F3CA
:1033F000410115468BF80010984609F0080A6A4604
:103400000421601CFFF77BFF04440098641C022821
:1034100043D35FEAC97040D1208840BA2880009920
:10342000801C88427AD83EA1A01CFCF7C3FE10B1D4
:103430000F20BDE8F88F9BF8000020B101282DD0A7
:1034400002286BD12AE0BAF1000F67D12888401C0E
:1034500002F08CF83060002860D02988491CFCF705
:1034600092FE2A88A11C3068FCF774FE2888009917
:10347000081A801E80B23880401C02F077F8C8F825
:10348000000038B13988491CFCF77DFE3A8828884D
:10349000A41C33E0306801F0EDFE3FE02888009A7C
:1034A000811C91423AD8A11C08440C99008840BA6A
:1034B00008800C9890B32888401C02F057F83060C0
:1034C00060B32988491CFCF75EFE2A88A11C30687D
:1034D000FCF740FE28880099081A001F80B2388047
:1034E000401C02F043F8C8F800000028D2D0398808
:1034F000491CFCF748FE3A882888241D0119D8F891
:103500000000FCF727FE2B213046FCF765FE28B9AA
:1035100023213046FCF760FE00288AD0FF2088E790
:1035200024637265710000004178022904D181781A
:1035300011B9C0780A2801D00120704700207047D7
:1035400038B504460078FF210009421E0E2A01D337
:10355000084638BD0328FCD1002000906A460421AB
:10356000601CFFF7CCFE20440099401C022907D3C1
:103570002278D20704D1028852BA921C8A4201D919
:10358000FF2038BD04A1801CFCF714FE08B10F20F9
:1035900038BD032038BD000024637265710000004F
:1035A0003EB5002411480094019402940E498460B1
:1035B000016004730475012505614FF460214460C6
:1035C000C161FDF7D7FD08B1FDF750FD0820CDE939
:1035D0000005694602940548FDF74AFD002801D020
:1035E000FDF744FD3EBD0000002401406C0A0020B0
:1035F000094808B5416941F0010141614069002273
:1036000000F00100009011461020FEF7F7FBBDE826
:1036100008401020FEF7E4BB001002402DE9F047FF
:1036200086B0002425480094019402940394816993
:1036300041F020018161816901F0200104918169DB
:1036400041F004018161816901F004010491816903
:1036500041F0080181618069DFF8649000F00800A2
:103660000490002240214846FEF7C3F9DFF854A039
:103670004FF40068012241465046FEF7BAF9402552
:103680000227012603970095CDE901646946484663
:10369000FEF7BAF8CDF800800397CDE901646946DA
:1036A0005046FEF7B1F8CDE9005469465046029401
:1036B000FEF7AAF806B0BDE8F0870000001002404F
:1036C00000080140000C01400D4810B50B49016095
:1036D0000C49416000214FF480428160C0E903122F
:1036E00041618161C1610162FEF78EF9002803D05A
:1036F000BDE81040FDF7BABC10BD0000005400400A
:103700009C0A0020A08601000C4810B50A490160FF
:103710004FF4E1314160002181600C22C160C0E9B9
:1037200004128161C161FFF759F8002803D0BDE898
:103730001040FDF79BBC10BD00380140F00A00208E
:1037400010B5104C0E480C2120604FF4E130606041
:103750000020A060E060C4E90401A061E0612046AF
:10376000FFF73CF808B1FDF781FC642206490548E3
:10377000FFF7E4F82068C16841F01001C16010BD96
:1037800000440040380B0020C40B0020FEE77047C7
:1037900070B5002404F1B000C0B200F0C3F80020FE
:1037A00000F0C0F8102000F0BDF80025002000F067
:1037B000CBF86D1CEDB2802DF8D3641CE4B2082C5C
:1037C000E8D370BD10B58D2000F0ACF8142000F0E7
:1037D000A9F8BDE81040AF2000F0A4B810B5C8208B
:1037E000FEF700F800F068FFFFF7ECFFBDE81040BF
:1037F000FFF7CEBF10B50446B031C8B200F092F862
:10380000102040EA141000F08DF804F00F00BDE81D
:10381000104000F087B800002DE9F04115460E4633
:103820000746FFF7E7FF0E48002400EB8515285DEB
:1038300000F08AF8641CE4B2102CF8D3761CF1B2C4
:103840003846FFF7D7FF0024281990F8200000F031
:103850007BF8641CE4B2102CF6D3BDE8F0810000C4
:10386000180000202DE9F041203A00240D46804642
:10387000D6B27F2803D900208D1C8046EDB2102BD4
:1038800029460FD0FFF7B6FF164906EB460001EBBD
:103890004005285D00F058F8641CE4B2062CF8D30B
:1038A000BDE8F081FFF7A6FF0F4F00BF04EB061045
:1038B000385C00F049F8641CE4B2082CF6D36D1CA7
:1038C000E9B24046FFF796FF5FF0000404EB0610F4
:1038D0003844007A00F038F8641CE4B2082CF5D3C0
:1038E000DEE70000026600082A6800082DE9F041C2
:1038F000984617460E46044600250DE043463146DD
:103900002046FFF7AFFF0834E4B2782C02D9002438
:10391000B61CF6B26D1CEDB27A5D002AEED1BDE8A0
:10392000F081000001B584B001214FF4807204A839
:103930008DE807000B46002278210248FEF728F99F
:1039400005B000BD9C0A002001B584B001214FF4F0
:10395000807204A88DE807000B46402278210248B7
:10396000FEF716F905B000BD9C0A002030B58BB0FB
:103970000024069407940894012526A328A22AA1CE
:103980002BA0099400F0B2FE06A8CDE904400294F1
:10399000039400942B021FA221A123A00194FFF7FE
:1039A000D1F948B12EA000F0A1FE0121354800F068
:1039B000DFFB0BB0284630BD079881B20698FDF7B3
:1039C0001DFBFA20FDF738FA04001DD0FFF7B8FD03
:1039D000022819D12046FFF7F2FC062818D2DFE8AA
:1039E00000F003080A0C0E1027A000F07FFE00254F
:1039F0000AE02AA006E030A004E038A002E03FA0E0
:103A000000E047A000F072FE06A8FFF712F9CCE72D
:103A10004EA0F7E7313036343133333439300000DB
:103A2000313233343536000035383833383400001D
:103A30004F6E654E65745F4465764C696E6B0D0A1A
:103A400050524F49443A2025732C09415549463A72
:103A50002025732C0944455649443A25730D0A0024
:103A60005741524E3A094D5154545F5061636B6552
:103A700074436F6E6E656374204661696C65640D96
:103A80000A000000C0090020546970733A09C1ACF3
:103A9000BDD3B3C9B9A60D0A000000005741524E6C
:103AA0003A09C1ACBDD3CAA7B0DCA3BAD0ADD2E944
:103AB000B4EDCEF30D0A00005741524E3A09C1ACA5
:103AC000BDD3CAA7B0DCA3BAB7C7B7A8B5C4636CE7
:103AD00069656E7469640D0A000000005741524E1A
:103AE0003A09C1ACBDD3CAA7B0DCA3BAB7FECEF1C8
:103AF000C6F7CAA7B0DC0D0A000000005741524EBD
:103B00003A09C1ACBDD3CAA7B0DCA3BAD3C3BBA723
:103B1000C3FBBBF2C3DCC2EBB4EDCEF30D0A000075
:103B20005741524E3A09C1ACBDD3CAA7B0DCA3BAC3
:103B3000B7C7B7A8C1B4BDD328B1C8C8E7746F6B05
:103B4000656EB7C7B7A8290D0A0000004552523A62
:103B500009C1ACBDD3CAA7B0DCA3BACEB4D6AAB44F
:103B6000EDCEF30D0A00000010B588B00446202108
:103B70006846FCF708FB3DA02021008820806846AD
:103B8000FCF701FB3A480068FCF74AFD02460B4689
:103B900038A1684600F0BAFD69462046FCF7FEFAF7
:103BA00020216846FCF7EFFA37480068FCF738FD3B
:103BB00002460B4635A1684600F0A8FD694620463E
:103BC000FCF7ECFA20216846FCF7DDFA354836A10F
:103BD0000268684600F09AFD69462046FCF7DEFA66
:103BE00020216846FCF7CFFA324833A102786846B4
:103BF00000F08CFD69462046FCF7D0FA202168468B
:103C0000FCF7C1FA304831A10278684600F07EFD29
:103C100069462046FCF7C2FA20216846FCF7B3FA51
:103C20002E482FA10278684600F070FD69462046B4
:103C3000FCF7B4FA20216846FCF7A5FA2C48007876
:103C400008B1012200E000222AA1684600F05EFDD2
:103C500069462046FCF7A2FA2BA12046FCF79EFA03
:103C60002046FCF7C3FA08B0C0B210BD7B000000CC
:103C70000C0000202248756D6964697479223A222B
:103C8000252E3066222C0000080000202254656D8D
:103C90007065726174757265223A22252E30662233
:103CA0002C0000001000002022476173223A2225D8
:103CB00064222C00020000202254485F47617322D6
:103CC0003A222564222C0000030000202254485F81
:103CD00054656D223A222564222C00000400002045
:103CE0002254485F48756D223A222564222C000038
:103CF0000100002022486176655F50656F706C6539
:103D0000223A2225642200007D0000002DE9F14FB7
:103D10004FF0000892B04446CDF82080CDF82480C2
:103D2000CDF82880CDF80C80ADF81880CDF81C8037
:103D3000CDF81080ADF814808DF82C80454612988F
:103D4000FFF7FEFBDFF81092DFF810A2DFF810B2E9
:103D5000844F0646032825D0042E6ED00F2E6DD139
:103D600005AB03AA04A91298FFF7E8FA040029D1C9
:103D7000DDE90321BDF814307BA000F0B7FCDDE9DC
:103D8000031007AAFEF7A0FF00287FD17FA000F054
:103D9000ADFC089881B20798FDF730F907A8FEF747
:103DA00048FF73E07FA000F0A1FC0BA805A9CDE9B6
:103DB000001003AB06AA029704A91298FFF70CFBA8
:103DC000040004D0FDF72AF8601C55D060E0BDF86F
:103DD00014000090DDE90331BDF8182078A000F050
:103DE00085FC039801F0E4F9040028D083A101F0D8
:103DF000C3F90069FCF724FA08B189F8000081A131
:103E0000204601F0B9F90069FCF71AFA08B18AF8FE
:103E100000007EA1204601F0AFF90069FCF710FA1E
:103E200008B18BF80000204601F082F99DF82C00C3
:103E3000012808D002281DD10CE020E01AE075A06E
:103E400000F054FCEFE707A93888FFF75AF988B962
:103E500078A005E007A93888FFF776F950B97BA06C
:103E600000F044FC089881B20798FDF7C7F807A84E
:103E7000FEF7DFFEFCF7D2FF13B0BDE8F08F12981B
:103E8000FFF752FB10B977A000F030FCFCF7C6FF3B
:103E90007D210398FCF7A0F900284ED0641C4CD07B
:103EA0000DAA401C02E05155401C6D1C0178A1F187
:103EB0003003092BF7D902F8058072A000F016FC38
:103EC0000DA8FCF7BDF90BA805A9CDE9001003ABBF
:103ED00006AA029704A91298FFF77EFABDF814000B
:103EE0000090DDE90331BDF8182035A000F0FEFB9D
:103EF000039801F05DF904002AD040A101F03CF9DB
:103F00000069FCF79DF908B189F800003DA1204641
:103F100001F032F90069FCF793F908B18AF8000062
:103F20003AA1204601F028F90069FCF789F908B1A7
:103F30008BF80000204601F0FBF80F2E01D0032E75
:103F40009AD1049801F096F9039801F093F993E758
:103F500030A000F0CBFBF0E70300002002000020BF
:103F600004000020CA090020636D6469643A2025BA
:103F7000732C207265713A2025732C207265715F55
:103F80006C656E3A2025640D0A0000005469707358
:103F90003A0953656E6420436D64526573700D0A6F
:103FA00000000000BDD3CAD5CAFDBEDD4D5154543A
:103FB0005F504B545F5055424C4953480D0A000026
:103FC000746F7069633A2025732C20746F70696375
:103FD0005F6C656E3A2025642C207061796C6F618E
:103FE000643A2025732C207061796C6F61645F6C7A
:103FF000656E3A2025640D0A0000000054485F54A5
:10400000656D000054485F476173000054485F4885
:10401000756D00006A736F6E207061636B20696E4E
:10402000746F20636A736F6E206572726F722E2ECA
:104030002E0D0A00546970733A0953656E6420505E
:1040400075626C69736841636B0D0A005469707323
:104050003A0953656E64205075626C6973685265E5
:10406000630D0A00546970733A094D51545420503D
:1040700075626C6973682053656E64204F4B0D0A3E
:10408000000000003039202D3D3D3D3D3D3D3D3D92
:104090003D3D3D3D0D0A000030B5C5B000204190CA
:1040A00042904390044644901AA000F01FFB4FF446
:1040B000807101A8FCF767F801A8FFF755FD05001E
:1040C0000BD041A8009003230022294619A0FFF736
:1040D0005FF870B11AA000F009FB45B030BD015D7A
:1040E000DDE94123D1544299491C641C24B2429118
:1040F00000E001A8AC42F2DB429881B24198FCF7A3
:104100007DFF17A0429900F0F1FA41A8FEF791FD5A
:10411000E3E70000546970733A094F6E654E6574A9
:104120005F53656E64446174612D4D5154540D0AA2
:104130000000000031303634313333343930000080
:104140005741524E3A094544505F4E657742756675
:10415000666572204661696C65640D0A00000000A6
:1041600053656E642025642042797465730D0A00DE
:1041700070B586B000240D4606460194029403945F
:10418000049406E056F824100DA000F0AFFA641C69
:10419000E4B2AC42F6D301A800902B46324602218D
:1041A0001420FFF73FF8002807D1029881B2019848
:1041B000FCF724FF01A8FEF73CFD06B070BD00002F
:1041C00053756273637269626520546F7069633AF4
:1041D0002025730D0A00000070477047FDF7A8BD49
:1041E00030B593B028216846FBF7CDFF14210AA80B
:1041F000FBF7C9FF00240F940920012110940090BF
:10420000119412944FF4803004910691CDE9010489
:104210000225CDE907504FF4E01009906846FDF7FC
:10422000C9FF0F20CDE90A056802CDE90C40022143
:104230000AA80E94FDF7DCFEA80311900F950FA8B5
:10424000FDF760FE13B030BD704710B5406A002125
:10425000C185C184FEF78BF910BD70B5446A206832
:10426000406994F84110C0F3C0100025212904D101
:1042700018B1E584204600F08EF82068406994F873
:104280004210C0F38010222904D118B1E5852046E0
:1042900000F05AF8606C40F0100060642046FEF7B1
:1042A00066F970BD10B50146406A096809684FF0AB
:1042B000000289062ED4C28501680C3151E8003F06
:1042C00023F4807341E80034002CF5D101681431E7
:1042D00051E8003F23F0010341E80034002CF5D100
:1042E0000168143151E8003F23F0400341E80034F5
:1042F000002CF5D1202180F84210016B012909D151
:1043000001680C3151E8003F23F0100341E800340C
:10431000002CF5D14263016B012902D0FEF71CFB92
:1043200010BD818DFEF7EAF810BD10B5406A01217D
:104330004163016B012902D0FEF70FFB10BD818D97
:104340004908FEF7DBF810BD01680C3151E8002F79
:1043500022F4907241E80023002BF5D1016814315A
:1043600051E8002F22F0010241E80023002BF5D193
:10437000016B012909D101680C3151E8002F22F0AD
:10438000100241E80023002BF5D1202180F84210D3
:1043900000210163704701680C3151E8002F22F0C1
:1043A000C00241E80023002BF5D1202180F8411004
:1043B000704708B590F84210222901D0022008BDAC
:1043C00082684FF480539A4201D1016921B1816A18
:1043D0009A421BD04AB10AE00268816A5268C2F36D
:1043E00008020A80816A891C08E0026972B10268C9
:1043F000526802F07F020A70816A491C8162C18D95
:10440000491E0904090CC18503D01BE002685268EB
:10441000F1E70168CA6822F02002CA600168CA6830
:1044200022F48072CA6001684A6922F001024A617E
:10443000202180F8421000214163026B012A03D041
:10444000FEF78AFA002008BD016301680C3151E8CB
:10445000002F22F0100241E80023002BF5D1016863
:104460000A68D20602D50A6849680091818DFEF774
:1044700045F8E7E770B5044600680169E26821F491
:104480004051114301612169A068084361690843F3
:104490002168CA6841F20C639A430243CA602068EB
:1044A0004169A26921F44071114341611E492068AC
:1044B000884202D1FDF748FE01E0FDF735FE00EB32
:1044C000C00101EB0012606864218000B2FBF0F3D0
:1044D000B3FBF1F36FF018067343B2FBF0F5B2FBD8
:1044E000F0F605EB8305322303EB0515B5FBF1F57B
:1044F000B6FBF1F605F0F00505EB0615B2FBF0F69C
:10450000B2FBF0F0B0FBF1F06FF01802504306EB95
:10451000800003EB0010B0FBF1F0216800F00F0009
:104520002844886070BD00000038014038B58162C1
:1045300004468285002013466064222284F84220CB
:10454000E56B1B4AAA62E56B1A4AEA62E56B1A4AF6
:104550002A63E26B50630A462168E06B091DFDF790
:1045600009F92068016840680090206948B1206816
:104570000C3050E8001F41F4807140E80012002A1E
:10458000F5D12068143050E8001F41F0010140E8E7
:104590000012002AF5D12068143050E8001F41F0C5
:1045A000400140E80012002AF5D1002038BD00008B
:1045B000A54200082B4300085B420008F8B51E48DE
:1045C000FDF7D6FF1C4D28680068C043C00631D4F3
:1045D0002846FDF794FF1948006840681849C0F55F
:1045E00080600880174918A000F080F8174C00265A
:1045F0002078012815D116A11248FBF7DBFD28B160
:10460000FCF70CFC17A000F071F826701BA10D48F8
:10461000FBF7D0FD28B1FCF701FC12A000F066F812
:104620002670642207490448FEF788F92868016863
:1046300040680090F8BD0000380B0020800B00207F
:10464000CC090020C40B00202573000000000020CE
:104650006C696E6B206973206E6F742076616C6973
:1046600064000000CDF8C2E7B6CFBFAAA3ACD7BCA8
:10467000B1B8D6D8C1AC0D0A0000000053454E4475
:10468000204F4B0D0A79746573000000FEE70000AF
:104690002DE9F04116460D460746002408E000BF0C
:1046A00015F8010B78600120FDF79CF8641CA4B29A
:1046B000B442F5D3BDE8F081FEB50024094F4FF4B4
:1046C000807501263819CDE90006012300227821E2
:1046D00002950548FDF75CFA641CE4B21B2CF1D38B
:1046E000FEBD0000980900209C0A00200FB4054B75
:1046F00010B503A9044A029800F092F910BC5DF8C5
:1047000014FB00005D520008140000200FB4084B99
:1047100010B504A902AA039800F082F9044602A980
:10472000002000F000FD204610BC5DF814FB0000E6
:1047300027510008490050EAC12018BF04204A0D43
:1047400018BF40F0010040F2FF72B2EB515F08BFAA
:1047500040F00200012808BF052070470907090E34
:10476000002804DB00F1E02080F80014704700F01E
:104770000F0000F1E02080F8141D704700487047DA
:10478000E80900202DE9F0414F1E00EBC701044667
:10479000D1E9000115461E4637F006020DD02A4623
:1047A0003346FBF701FE7F1E04EBC703D3E900236A
:1047B000FBF753FD37F00602F1D1022F25D0042F6D
:1047C00013D0062F18BFBDE8F0812A463346FBF709
:1047D000EBFDD4E90A23FBF740FD2A463346FBF7FD
:1047E000E3FDD4E90823FBF738FD2A463346FBF7FF
:1047F000DBFDD4E90623FBF730FD2A463346FBF701
:10480000D3FDD4E90423FBF728FD2A463346FBF702
:10481000CBFDD4E90223FBF720FD2A463346FBF704
:10482000C3FDD4E90023BDE8F041FBF716BD00004D
:104830000022134610460149FBF728BE0000F03F56
:10484000FBF70BBD0022134610461146FBF71EBEB8
:1048500040F2013200204FF0E041FCF767B8000061
:10486000024A00201107FCF761B8000001FDFFFFBC
:1048700002E008C8121F08C1002AFAD17047704729
:10488000002001E001C1121F002AFBD17047000087
:104890000149086070470000E80900202DE9FF5F2A
:1048A00082B00021DDE90430020DDDF840B00343A1
:1048B00018D044F61050A2F2FF324243151411985A
:1048C00001281FD0A5EB0B00401C5FEA000A4FF047
:1048D00000064E4FDFF83891B046504615D5CAF164
:1048E000000413E0119801244AA3012801D16FEAC2
:1048F0000B010298119AC0E90031C0E9024206B0EA
:10490000BDE8F09FCBF10000DFE704460021404AFC
:10491000491842EB0450CDE9001012E0E00707D03F
:1049200032463B4640464946FBF73EFD80468946B7
:1049300032463B4610461946FBF736FD06460F4603
:104940006410002CEAD1DDE90401DDE90023BAF1AD
:10495000000F06DAFBF728FD42464B46FBF724FD25
:1049600005E0FBF793FD42464B46FBF78FFD0446FF
:104970000E460022284BFBF767FE03D84FF0FF30AE
:10498000014607E00022254B20463146FBF765FC37
:10499000FBF7E3FF102409E0002C0ADB0A220023C6
:1049A000FBF7A6FE039B30321A55641E50EA010243
:1049B000F2D1641C039AC4F111031444119A012A20
:1049C00003D0012208430DD10AE0084304D000209F
:1049D0004FF0110B119072E7A3EB0B056D1E0DE06C
:1049E0005B4504DD4FF0000205F1010504E003DA48
:1049F0004FF00002A5F10105002AECD002981199B0
:104A0000C0E90231C0E9004579E700000000144028
:104A10000000F03F300000000000F0430000E03FE5
:104A20002DE9FF4F95B09A46884606460025EEE1EF
:104A3000252877D100242746F94A0121039400E074
:104A4000044316F8013F203B01FA03F01042F7D16E
:104A500030782A2811D06FF02F033078A0F130027F
:104A6000092A16D8039A44F0020402EB820203EBEF
:104A700042021044761C0390EFE758F8042B03928F
:104A8000002A03DA504244F40054039044F0020434
:104A9000761C30782E2816D116F8010F44F0040445
:104AA0002A280DD06FF02F023078A0F13003092BA7
:104AB00009D807EB870302EB4303C718761CF3E71B
:104AC00058F8047B761C30786C280FD006DC4C2814
:104AD00017D068280DD06A2814D104E0742810D0AB
:104AE0007A280FD10DE044F400140AE044F4801455
:104AF00001E044F440147278824202D104F580143B
:104B0000761C761C307866280BD013DC582877D0BA
:104B100009DC002875D04528F6D04628F4D047286F
:104B20001AD193E118E0632835D0642879D065283C
:104B300012D18BE1702873D008DC6728F1D0692886
:104B40006FD06E280DD06F2806D1ACE073282CD022
:104B5000752874D0782853D05246179990476D1C09
:104B600054E1C4F30250022809D003280DD0D8F82C
:104B7000001004280DD00D6008F1040846E1D8F8B3
:104B80000010EA17C1E90052F6E7D8F800100D80CE
:104B9000F2E70D70F0E718F8041B8DF80010002004
:104BA0008DF80100EB46012003E058F804BB4FF0FC
:104BB000FF3061074FF0000102D40DE009F101015F
:104BC0008946B9420FDA8145F8DB1BF80910002944
:104BD000F4D108E009F1010189468142FADB1BF8B2
:104BE00009100029F6D103985346A0EB0907214686
:104BF0003846179A00F080FA284400EB090507E0D0
:104C000044E008E10DE01BF8010B5246179990476C
:104C1000B9F10109F7D2534621463846179AF2E016
:104C200039E00A21C4F302524FF0000B0091022A2E
:104C300006D058F8040BC117032A09D00AE023E074
:104C400008F1070020F00702F2E80201904605E0B3
:104C500000B2C117042A01D140B2C117002906DAF7
:104C60000A460021404261EB02012D2202E02205AA
:104C700004D52B228DF80420012203E0E20701D0A5
:104C80002022F7E7914657E00A2100E010214FF07B
:104C9000000B00910BE010214FF0000B44F00404D6
:104CA0000827009103E008204FF0000B0090C4F3A8
:104CB0000252022A05D058F8040B0021032A08D01A
:104CC00008E008F1070020F00702F2E80201904630
:104CD00003E080B2042A00D1C0B24FF000092207DD
:104CE0002AD53278702A07D0DDF800C08CF0100C7D
:104CF0005CEA0B0C05D00EE040228DF80420012266
:104D000008E050EA010306D030238DF804308DF816
:104D1000052002229146009B83F0080353EA0B030F
:104D20000AD150EA010201D1620705D530228DF87F
:104D300004204FF001097F1E3278582A04D039A28E
:104D40000C920CAA02920BE03BA2F9E75B46009A98
:104D5000FBF7CEFC0C9B9B5C029A521E02921370D6
:104D600050EA0102F2D1029804A9081A00F1200BBE
:104D7000600702D524F4803400E001275F4502DD9E
:104D8000A7EB0B0000E0002000EB0B010090039864
:104D90004944401A0390E00306D453462146179A2B
:104DA000039800F0A9F90544002706E001A852463F
:104DB000C05D179990476D1C7F1C4F45F6DBE003E3
:104DC0000CD553462146179A039800F095F90544EF
:104DD00004E030205246179990476D1C0099481EF8
:104DE00000900029F5DC08E002980299524600780C
:104DF000491C0291179990476D1CBBF10001ABF162
:104E0000010BF1DC5BE100F065F90544761C3078BC
:104E100000287FF40DAE19B02846BDE8F08F0000E1
:104E20000928010030313233343536373839616280
:104E30006364656600000000303132333435363744
:104E4000383941424344454600000000600700D421
:104E5000062708F1070020F00700F0E8022380464B
:104E600003F0004C5FEA0C0001D097A009E0200598
:104E700001D596A005E0E00701D095A001E0AFF2D2
:104E80004C001390307823F0004365280CD006DCEA
:104E9000452809D046281DD047287FD13BE0662809
:104EA00018D067287AD136E00021112F01DB1120BC
:104EB00000E0781CCDE9000104A90CA8FFF7EEFC86
:104EC000DDE90D010C9A4FF0000B07F1010910927A
:104ED00000914EE04FF000400097CDE9011004A989
:104EE0000CA8FFF7DBFCDDE90D020C9B0F994FF0DE
:104EF000000B91461093009211B9791C00EB010947
:104F0000B7EB090003D4C0F1FF3B07F10109A9EB9E
:104F10000700019042E0012F00DA01270021112F44
:104F200001DD112000E03846CDE9000104A90CA8FC
:104F3000FFF7B4FCDDE90D010C9A00914FF0000B76
:104F4000B946109221070FD4009A4A4503DA9146D8
:104F500001E0A9F10109B9F1010F05DD109AA9F1EC
:104F60000101515C3029F4D0B84202DA10F1040F8B
:104F700003DA0121CDE9011010E0002803DC8344AD
:104F8000A9EB000102E0411C494500DD8946A0EB88
:104F90000B00401C01904FF000400290200705D408
:104FA0000198484502DB4FF0FF30019000208DF85A
:104FB0004B0002980DF14B07B0F1004F25D00220B5
:104FC0000C902B200D90029800280CDA40420290A1
:104FD0002D200D9007E00A210298FBF773FB30317A
:104FE000029007F8011D0C99481E0C900029F2DC74
:104FF00002980028EFD1791E0D980870307800F0E3
:10500000200040F0450007F8020D11A8C01BC01D8C
:1050100002901398007800B1012000EB090101987B
:1050200001EBE071029801440398401A401E03907E
:10503000E00306D453462146179A039800F05CF823
:1050400005441398007818B15246179990476D1C83
:10505000E00323D553462146179A039800F04CF8F5
:1050600005441BE0BBF1000F07DB0098584504DD49
:105070001098179910F80B0001E01799302052464C
:10508000904701980BF1010B401E05F101050190BD
:1050900004D12E205246179990476D1CB9F100019A
:1050A000A9F10109DEDC05E017F8010B524617995A
:1050B00090476D1C0299481E02900029F4DC53466B
:1050C0002146179A03989EE62D0000002B00000051
:1050D000200000002DE9F041044600251E46174639
:1050E000880404D405E039462020B0476D1C641EB6
:1050F000F9D52846BDE8F0812DE9F04104460025A8
:105100001E469046C80301D5302700E020278804BA
:1051100004D505E041463846B0476D1C641EF9D5FC
:105120002846BDE8F0810A68531C0B601070704778
:1051300070B504460F4E19E0A0892568C0050AD451
:10514000A06820B1FFF7F4FFA089C00503D420694F
:1051500008B171688847A089800503D4206A08B126
:10516000716888477168204688472C46002CE3D137
:1051700070BD0000B409002070B50D46846800E0E1
:1051800024682CB12946206A00F046F80028F7D19F
:10519000204670BD054910B50968282088470400DD
:1051A00002D02821FAF7EFFF204610BDB4090020F5
:1051B00000221146AFF300802DE9F04190460E46E3
:1051C0000446FFF7E7FF134F05004FF00000B860FB
:1051D00015D0204601F0E5F90146284600F054FCC0
:1051E00004000FD0B8F1000F10D0204601F0D9F91B
:1051F0000446007850B12846FFF79AFFBC600020B3
:10520000BDE8F0812846FFF793FFF8E706B1346068
:105210002846F5E7B409002070B505000C4601D01A
:105220000CB108E009B1012070BD002070BD00285C
:10523000FCD0641C6D1C2878FAF786FF064620789F
:10524000FAF782FF86422878F1D0FAF77DFF05460B
:105250002078FAF779FF281A70BD000004490A681F
:105260005206FCD5024AC1B2121D116070470000FF
:105270000038014010B5002821D0114B0022001F3A
:10528000196803E0814203D80A4649680029F9D128
:1052900052B11368841A9C4204D10068184410600B
:1052A000104602E0506000E0186039B102680B1A45
:1052B000934203D10B681A4402604968416010BDF3
:1052C000E0090020FCF73CFDFEF78AFFFEF7A6F997
:1052D000FEF78EF9FEF764F9FEF716FAFEF730FADC
:1052E000FEF7F2F9FEF77AFA01F014F9774C142080
:1052F000774EA0702820E0703C202071F7142078B1
:1053000001280AD073A0FFF7F1F9FBF7B1FD76A0F1
:10531000FFF7ECF94FF4FA78CDE03220B5FBF0F16D
:1053200000FB115000287CD17348FCF77BF84FF04C
:10533000FF317148FBF7D8FF6F48FBF717FF0A21D1
:10534000B0FBF1F0FBF711F9FBF76AF94FF06632A9
:105350006A4BFBF729F8FBF78FF96949884210DCA3
:10536000FBF75EF9674A684BFBF790F8FBF73FF9EC
:10537000FBF711F9654A664BFBF716F8FBF737F9AF
:1053800010E0FBF74DF9634A634BFBF707F8634AFC
:10539000634BFBF77BF80022624BFBF705F8FBF74A
:1053A00026F90930206180215F48FAF7ECFE5FA101
:1053B0005D482269FFF7AAF910235B4A02214020C9
:1053C000FEF794FA41490C31081FFBF74DFC28BB4E
:1053D00080215548FAF7D7FEA068FBF721F90B4664
:1053E000024654A15048FFF791F910234E4A00217C
:1053F0002020FEF77BFA80214B48FAF7C4FEE068D4
:10540000FBF70EF902460B464AA14748FFF77EF923
:105410001023454A00216020FEF768FA40213046FB
:1054200000E029E0FCF7E0FA607001281DD0252299
:1054300004214820FEF7F0F9242204215820FEF729
:10544000EBF9A178206988420DD8E078FBF78DF858
:10545000A168FBF72DF906D32079FBF786F8E16800
:10546000FBF726F903D2002202E02322E0E7012223
:1054700039463046FCF7BDFA6D1CADB2652D0DD333
:105480004620FCF7AFF92DA0FFF730F9FEF704FE38
:105490002EA0FFF72BF90025FBF7C0FC0020FBF73F
:1054A000CBFC08B1FEF732FC2820FCF79BF926E77D
:1054B0004046FCF797F9FEF759FA0028F8D1012089
:1054C000207026A0FFF712F919E700000000002065
:1054D000000C0140BFAACABCC1ACBDD3B7FECEF11F
:1054E000C6F70D0A0000000038323636B3F5CABCE4
:1054F000BBAFB3C9B9A60A006C0A002066664A3F72
:105500006666663FFCA9F1D24D62503FFA7E6ABCE6
:105510007493883FCDCCCCCCCCCCEC3F9A99999964
:105520009999B93F00005940EC0900203A256425BB
:10553000250000003A252E3066000000BFAACABC34
:10554000B7A2CBCDCAFDBEDD0D0A0000B7A2CBCD00
:10555000CAFDBEDDBDE1CAF80A000000BDD3C8EB3C
:105560006F6E656E6574B3C9B9A60000F0B50B30F7
:10557000154D20F007010024144A0FE003688B4208
:105580000BD38B4205D95E1A43184768C3E90067FD
:1055900000E04368136002C004E0021D10680028A8
:1055A000ECD12046002802D1286808B10020F0BDC7
:1055B000064A07481060074A121A22F00702C0E99B
:1055C000002401202860D7E7E4090020E00900203A
:1055D000CC0F0020C81100202DE9F04104460878C6
:1055E0001A4E5B2801D0B1602BE00520E060481C1A
:1055F00000F0D7FF074600785D2806D0FFF7CAFD08
:10560000051EA06002D038460AE0781CBDE8F08193
:10561000FFF7C0FD0028F9D0286045600546601CF2
:1056200000F0BFFF0146284600F02EFA00F0B9FF57
:10563000040006D020782C28EAD020785D2802D0FB
:10564000B4600020E2E7601CE0E70000B40900203D
:105650000178A1F13002092A01D811460AE0A1F12E
:105660004102052A01D8373904E0A1F16102052A77
:105670003FD857390A0110F8011FA1F13003092B57
:1056800001D8303A0AE0A1F14103052B01D8373A9D
:1056900004E0A1F16103052B2BD8573A11440A010C
:1056A00010F8011FA1F13003092B01D8303A0AE0AC
:1056B000A1F14103052B01D8373A04E0A1F16103C0
:1056C000052B16D8573A114440780901A0F1300251
:1056D000092A01D8303904E0A0F14102052A02D894
:1056E000373908447047A0F16102052A01D85739BB
:1056F000F7E70020704700002DE9F34F002583B045
:105700000C4650490120CDE90051029020782E46E8
:105710002F46A846A9462D2804D100204A49641CDA
:10572000CDE900012078302800D1641C2078313880
:10573000082816D814F8010B3038FAF71BFF8246F8
:105740008B460022414B28463146FAF72DFE524641
:105750005B46FAF782FD054620780E463038092868
:10576000E8D920782E2824D16078302841D33928F0
:105770003FD8641C14F8010B3038FAF7FBFE824660
:105780008B460022314B28463146FAF70DFE524631
:105790005B46FAF762FD05460E460022294B384665
:1057A0004146FAF7FBFD074620788846303809283D
:1057B000E0D92078652801D045281AD114F8010FC6
:1057C0002B2802D02D2810D000E0641C6FF02F0190
:1057D0002078A0F13002092A0BD809EB890201EBED
:1057E000420200EB0209641CF2E74FF0FF30029026
:1057F000EBE7029909FB01F0FAF7BCFE3A46434693
:10580000FAF72BFD02460B460020104900F096F9EE
:1058100007468846DDE900012A463346FAF7C4FD0B
:105820003A464346FAF7C0FD039AC2E90601FAF781
:10583000BFFE0399486103980321C16005B020466B
:10584000BDE8F08F0000F03F0000F0BF00002440F2
:105850002DE9F041054608782A4E7B2801D0B16039
:1058600033E00620E860481C00F09BFE0746007805
:105870007D2813D0FFF78EFC041EA8600FD0384699
:1058800000F08FFE0146204600F03EF800F089FE51
:10589000002804D02169002721622CE0781CBDE893
:1058A000F081B06011E0401C00F07BFE0146204614
:1058B00000F0EAF800F075FE051EF0D028782C28DC
:1058C00005D028787D281BD0B5600020E7E7FFF7DA
:1058D00061FC0028E3D0206044600446681C00F0AE
:1058E00060FE0146204600F00FF800F05AFE002846
:1058F000D5D021692162276101783A29D3D0D0E738
:10590000681CCCE7B40900202DE9F0470C46064698
:10591000481C227800215A4B222A07D000209C6084
:10592000BDE8F087401C5C2A00D1401C0278222A86
:1059300002D00AB1491CF5D1481C19688847051ED8
:10594000EED0601C2C464FF4806788E05C2903D0C1
:1059500004F8011B401C82E000F101084078722825
:1059600014D006DC622809D0662809D06E2808D138
:105970000AE074280CD0752803D10BE0082000E061
:105980000C2004F8010B68E00A20FAE70D20F8E784
:105990000920F6E708F10100FFF75AFE8146A0F55D
:1059A0005C4008F10408B84257D3B9F1000F54D055
:1059B000A9F55840B84217D298F801005C284CD19C
:1059C00098F80200752848D108F10300FFF740FE5F
:1059D000A0F55C4108F10608B9423ED2C9F30901BD
:1059E00061F39F2000F580390420B9F1800F02D2C5
:1059F0000120641C2AE0B9F5006F02D20220A41C29
:105A000006E0B9F5803F02D20320E41C0EE0241D1D
:105A1000022813D0032809D004281DD109F0BF01A2
:105A200041F0800104F8011D4FEA991909F0BF0106
:105A300041F0800104F8011D4FEA991909F0BF01F6
:105A400041F0800104F8011D4FEA99190D49095CE4
:105A500041EA090104F8011D044408F1010001783C
:105A6000222902D000297FF471AF00212170017832
:105A7000222900D1401C0421C6E9031550E700008B
:105A8000B409002020A5000870B50C00054620D000
:105A9000042223A12046FAF7C4FBE0B1052222A18B
:105AA0002046FAF7BEFBC8B1042221A12046FAF72E
:105AB000B8FBB8B12078222819D02D2803D0A0F146
:105AC0003001092919D821462846BDE87040FFF762
:105AD00013BE002070BD0220E86006E00020E860F0
