:100FD1004C75783A002E0048553A0054453A0000C5
:030FE1000000000D
:100EC1000328A58126032BA582270F190000000006
:100ED10000000000000000000000000108000F09F0
:0F0EE10000000000000000000000000000000002
:100FA9004389207598507587808F8D8F8BD2ACD2ED
:040FB900AFD28E2203
:060EF1008B4B8A4C894D79
:100EF700E4FFEFC39D5018AB4BAA4CA94D8F8275E9
:0F0F070083001208F6F5993099FDC2990F80E327
:010F160022B8
:100A6900E475320AF531F530F52F753850F537F55B
:100A790036F53578397C00FD7BFF7A0F79E0FE7F0A
:100A8900041208D0E4F549F54A7FFA120FA9120FAA
:100A9900BD7B007A0079287D03120EF17F0A7E0062
:100AA900120F58E51864026003020B8EFEE51E78EA
:100AB90010C333CE33CED8F9FDAC067E00E51D78E0
:100AC90018C333CE33CED8F9FFEE4CFCEF4DFDE51C
:100AD9001F4CFEEDFFEF4520FFE48F488E47F5469A
:100AE900F5457BFF7A0F79D17D017F02120F17E45B
:100AF9007B64FAF9F8AF48AE47AD46AC451209C672
:100B0900AB07AA06754F037D057F02120F767BFF9F
:100B19007A0F79D67D087F02120F17E47B64FAF900
:100B2900F8AF48AE47AD46AC451209C6754F027DD0
:100B3900097F02120F76E47B64FAF9F8AF48AE47F1
:100B4900AD46AC451209C6AB38AA37A936A835C394
:100B5900120A58500675330175342CE47B64FAF98E
:100B6900F8AF48AE47AD46AC451209C6AB32AA311B
:100B7900A930A82FD3120A584005E4F590800375CF
:100B890090FFE4F5187FF47E01120F587B007A007C
:100B9900792B7D03120EF17F0A7E00120F58E5189A
:100BA90064016003020C79E523FEE524FFE48F402C
:100BB9008E3FF53EF53D7BFF7A0F79D87D017F01A8
:100BC900120F17E47B64FAF9F8AF40AE3FAD3EACC3
:100BD9003D1209C6AB07AA06754F027D047F0112B3
:100BE9000F767BFF7A0F79D67D067F01120F17E406
:100BF9007B64FAF9F8AF40AE3FAD3EAC3D1209C691
:100C0900754F027D077F01120F76E51DFEE51EFF78
:100C1900E48F448E43F542F5417BFF7A0F79DC7D01
:100C2900097F01120F17E47B64FAF9F8AF44AE4368
:100C3900AD42AC411209C6AB07AA06754F027D0C3D
:100C49007F01120F767BFF7A0F79D67D0E7F011215
:100C59000F17E47B64FAF9F8AF44AE43AD42AC41F7
:100C69001209C6754F027D0F7F01120F76E4F51840
:100C79007FF47E01120F58E5341534AE3370021536
:100C8900334E600BB2A57F647E00120FF380E8E457
:090C9900F533F534C2A5020A9AF4
:03002300020CA22A
:100CA200C0E0C0F0C083C082C0D075D000C000C018
:0D0CB20001C002C003C004C005C006C00799
:100CBF00752E00309877AF08050874092FF8A6999C
:100CCF00C298E509645A6003750800E508B4020983
:100CDF00E50A645A6003750800E508D39403404D94
:100CEF00E50C2405FFE433FEE5086F7001EE703D5F
:100CFF00E50B24EB601D24D07030E518702C7819AB
:100D0F007C00FDFB7A007909FE7F0F1208D0751861
:100D1F00018017E518701378197C00FDFB7A0079B4
:0D0D2F0009FE7F091208D075180275080032
:100D3C00D007D006D005D004D003D002D001D0000B
:0B0D4C00D0D0D082D083D0F0D0E032B5
:060FE400C2838FA0D2823F
:080FEA007F027EEFDEFEDFFC5A
:010FF20022DC
:0A0FFE00C284120FE4C282020FEA5F
:100F3A00CFCDCFCECCCE1209357C007D0A12093531
:040F4A00ED2430FF63
:0A0F4E00D284120FE4C282020FEAFF
:100F9300AE07BE0104ED148006BE0209ED243F44F2
:060FA30080FF120FFE2288
:100FBD007F38120FFE7F0C120FFE7F06120FFE7F81
:040FCD0001020FFE10
:0A100800AC03120F93AF04020F4E69
:060F17008B4B8A4C894D52
:100F1D00120F93E4FDAB4BAA4CA94D8D8275830046
:0C0F2D001208F6FF6006120F4E0D80E95E
:010F39002295
:0C0E8E007F0AEA24FFFDE434FFFC7E0034
:080E9A008E508F518C528D53D4
:100EA2007F017E00E4FBEBC39553E5526480F87446
:0E0EB2008098500AAC50AD511209230B80E815
:010EC000220F
:040F76008A4D8B4EC7
:100F7A00120F93AA4FEAD39400400D120E8EAC4D75
:080F8A00AD4E120F3A1A80ED82
:010F9200223C
:100DE300120F93C3EA64809480400B7F2B120F4E43
:100DF3008A598B5A800E7F2D120F4EC3E49BF55AEE
:100E0300E49AF559AA58EAD39400400D120E8EAC19
:090E130059AD5A120F3A1A80ED94
:010E1C0022B3
:040E1D008A5D8B5E01
:100E2100120F93AA5FEAD3940040297F10120E900B
:100E3100AC5DAD5ECFCDCFCECCCE120935EF540F28
:100E4100FEC3940AEE5004243080022437FF120FAF
:040E51004E1A80D1E4
:010E5500227A
:040E56008A628B63BE
:100E5A00120F93AA64EAD394004028EA24FFFDE41F
:100E6A0034FFFC7F027E00120E9AAC62AD63CFCDD6
:100E7A00CFCECCCE120935EF54012430FF120F4EDB
:030E8A001A80D2F9
:010E8D002242
:0B0FF300EF1FAC0670011E4C70F622D0
:100F5800D3EF9400EE940040147D6E7C00ED1D707C
:0D0F6800011CED4C70F7EF1F70E61E80E3DA
:010F75002259
:03000000020D5797
:0C0D5700787FE4F6D8FD758164020D9EE3
:10080000E709F608DFFA8046E709F208DFFA803EDA
:1008100088828C83E709F0A3DFFA8032E309F608C7
:10082000DFFA8078E309F208DFFA807088828C832F
:10083000E309F0A3DFFA806489828A83E0A3F608E3
:10084000DFFA805889828A83E0A3F208DFFA804CBD
:1008500080D280FA80C680D4806980F28033801094
:1008600080A680EA809A80A880DA80E280CA8033FD
:1008700089828A83ECFAE493A3C8C582C8CCC58375
:10088000CCF0A3C8C582C8CCC583CCDFE9DEE78045
:100890000D89828A83E493A3F608DFF9ECFAA9F0C4
:1008A000EDFB2289828A83ECFAE0A3C8C582C8CC1A
:1008B000C583CCF0A3C8C582C8CCC583CCDFEADE33
:1008C000E880DB89828A83E493A3F208DFF980CC95
:1008D00088F0EF60010E4E60C388F0ED2402B4048E
:1008E0000050B9F582EB2402B4040050AF23234535
:0608F00082239008507302
:1008F600BB010CE58229F582E5833AF583E02250B7
:1009060006E92582F8E622BBFE06E92582F8E22200
:0D091600E58229F582E5833AF583E493221A
:10092300EF8DF0A4A8F0CF8CF0A428CE8DF0A42EE8
:02093300FE22A2
:10093500BC000BBE0029EF8DF084FFADF022E4CCA6
:10094500F875F008EF2FFFEE33FEEC33FCEE9DEC6F
:10095500984005FCEE9DFE0FD5F0E9E4CEFD22EDB5
:10096500F8F5F0EE8420D21CFEADF075F008EF2FFF
:10097500FFED33FD4007985006D5F0F222C398FDF0
:050985000FD5F0EA228D
:10098A0075F008758200EF2FFFEE33FECD33CDCC24
:10099A0033CCC58233C5829BED9AEC99E5829840A7
:1009AA000CF582EE9BFEED9AFDEC99FC0FD5F0D684
:1009BA00E4CEFBE4CDFAE4CCF9A88222B800C1B9AE
:1009CA000059BA002DEC8BF084CFCECDFCE5F0CBEC
:1009DA00F97818EF2FFFEE33FEED33FDEC33FCEB25
:1009EA0033FB10D703994004EB99FB0FD8E5E4F9E0
:1009FA00FA227818EF2FFFEE33FEED33FDEC33FCCD
:100A0A00C933C910D7059BE99A4007EC9BFCE99AC0
:100A1A00F90FD8E0E4C9FAE4CCFB2275F010EF2F05
:100A2A00FFEE33FEED33FDCC33CCC833C810D70705
:100A3A009BEC9AE899400AED9BFDEC9AFCE899F840
:0E0A4A000FD5F0DAE4CDFBE4CCFAE4C8F922D3
:100A5800EB9FF5F0EA9E42F0E99D42F0E89C45F0F4
:010A6800226B
:100D6300020A69E493A3F8E493A34003F68001F233
:100D730008DFF48029E493A3F85407240CC8C33391
:100D8300C4540F4420C8834004F456800146F6DF60
:100D9300E4800B0102040810204080900EC1E47E21
:100DA300019360BCA3FF543F30E509541FFEE49355
:100DB300A360010ECF54C025E060A840B8E493A31C
:100DC300FAE493A3F8E493A3C8C582C8CAC583CA47
:100DD300F0A3C8C582C8CAC583CADFE9DEE780BEFF
:010EF0000001
:00000001FF
