:020000040800F2
:1000000080210020450100082D24000879160008F1
:1000100029240008C50E0008A933000800000000CC
:10002000000000000000000000000000F52F0008A4
:100030003912000800000000852E00080931000870
:100040005F0100085F0100085F0100085F01000810
:100050005F0100085F0100085F0100085F01000800
:100060005F0100085F0100085F0100085F010008F0
:100070005F0100085F0100085F0100085F010008E0
:100080005F0100085F0100085F0100085F010008D0
:100090005F0100085F0100085F0100085F010008C0
:1000A0005F0100085F0100085F0100085F010008B0
:1000B0005F0100085F0100085F0100085F010008A0
:1000C0005F0100085F0100085F0100085F01000890
:1000D0005F0100086D310008893100085F010008E8
:1000E0005F0100085F0100085F0100085F01000870
:1000F0005F0100085F0100085F0100085F01000860
:100100005F0100085F0100085F0100085F0100084F
:100110005F0100085F0100085F0100085F0100083F
:100120005F0100085F0100085F0100085F0100082F
:10013000DFF80CD000F05CFC004800479542000856
:10014000802100200648804706480047FEE7FEE77A
:10015000FEE7FEE7FEE7FEE7FEE7FEE7FEE7FEE777
:100160000D31000831010008A0F14101192900D822
:100170002030704740EA01039B0703D009E008C91B
:10018000121F08C0042AFAD203E011F8013B00F85C
:10019000013B521EF9D27047D2B201E000F8012BA8
:1001A000491EFBD270470022F6E710B513460A46F7
:1001B00004461946FFF7F0FF204610BD421E12F814
:1001C000013F002BFBD111F8013B02F8013B002B52
:1001D000F9D1704730B505462A460B4612F8010B97
:1001E00013F8014B08B1A042F8D01CB1002802D08E
:1001F0006D1CF1E7284630BDCAB2401E10F8011F41
:100200008A4202D00029F9D100207047421C10F820
:10021000011B0029FBD1801A704710B5044600E08D
:10022000401C0378002BFBD100E0401C521E04D37D
:1002300011F8013B0370002BF7D10021017020461B
:1002400010BD30B505460020034600E05B1C93421C
:1002500005D2EC5CC85C201A01D1002CF6D130BD6F
:1002600070B5064603F0DAF9046805460A22002153
:10027000304600F0C1FA2C6070BD2DE9FE4F80467B
:1002800081EA0300C00F0C46009021F0004123F0EA
:100290000045B8EB0200A94105D2404621469046F0
:1002A0001C460B46024623F00040104347D0270D62
:1002B000C7F30A00C3F30A510290401A0190402884
:1002C0006BDAC3F3130040F4801B0098924620B110
:1002D0000023D2EB030A63EB0B0B01985946C0F1E4
:1002E0004002504600F057FA06460D465046594621
:1002F000019A00F06FFA10EB08006141002487EAD0
:10030000115284EAE7731A4340D0009A62B3019A0B
:10031000012A4FEA075215DC001B61EB02014FF086
:10032000004202EA0752CDE90042001C41F580116B
:1003300032462B4600F0DEFA03B0BDE8F08F4046AF
:100340002146F9E7001B61EB0201001C41F5801317
:1003500000185B412018A2F5001747EB030140EAA3
:10036000D570B6196D4111E06D084FEA360645EAC1
:10037000C0754FEA0752001B61EB0201001C41F5FA
:10038000801149084FEA30000019514132462B468E
:1003900003B0BDE8F04F00F09EBA00980122400083
:1003A0000023D0EB020263EBE073009821464FEA92
:1003B000E074B8EB000061EB0401E9E783F000436F
:1003C0005BE781F0004158E72DE9FE4F81EA030425
:1003D00004F0004421F0004100944FF0000B23F0A2
:1003E000004350EA01045ED052EA03045BD0C3F339
:1003F0000A54C1F30A552C44A4F2F3340194A0FB2F
:100400000254C1F3130141F48011C3F3130343F405
:10041000801301FB024400FB034E840A970A44EA5E
:10042000815447EA8357A4FB076802958D0A05FBB0
:1004300007854FEA932C04FB0C542705029D4FEAD5
:10044000065847EA1637B5EB08056EEB070C870E22
:10045000920E47EA811742EA8312A7FB0201B6EB2C
:100460000B0164EB00042B0D43EA0C335E1844EBE4
:100470001C50DA465146E7FB0201C5F313044FEA6C
:100480000B3343EA14534FEA0432019C43EA060358
:10049000A4F10C040294009CCDE900B400F02AFA07
:1004A00003B0BDE8F08F00200146F9E72DE9F04DDB
:1004B00081EA030404F0004B21F0004514464FF09C
:1004C000000A23F0004150EA050220D054EA01025C
:1004D0001DD0C5F30A570246C5F31303C1F3130039
:1004E000C1F30A5640F4801543F48013A7EB0608C5
:1004F000101BD64608F2FD3873EB050002D308F155
:10050000010801E092185B41B8F1000F03DA002006
:100510000146BDE8F08D00204FF480110646844668
:100520000EE0171B73EB050705D3121B63EB0503E6
:1005300006434CEA010C49084FEA300092185B412F
:1005400050EA0107EDD152EA030012D082EA04001A
:1005500083EA0501084305D0101BAB4106D20122F6
:10056000002306E000224FF0004302E06FF001029A
:1005700053101AEB06004CEB085110EB0A0041EB4C
:100580000B01BDE8F04D00F0A6B9C10F80EAE070A4
:100590000844CA079623002100F06FB90EB5C10FB9
:1005A00080EAE0700844CA07002140F233438DE836
:1005B0000E000A460B4600F09DF903B000BD0EB5D3
:1005C00040F2334102910021CDE900110A460B4669
:1005D00000F090F903B000BD70B5C1F30A5201F00C
:1005E00000450024C1F3130140F2FF3341F48011B0
:1005F0009A4201DA002070BD40F233439A42A2F2DF
:10060000334203DC524200F0D5F800E090402C4326
:10061000F1D0404270BDC1F30A5210B5C1F31301CD
:1006200040F2FF3341F480119A4201DA002010BDFC
:1006300040F233439A42A2F2334203DC524200F0CA
:10064000B9F810BD904010BD00F0004230F00040FD
:100650000AD0C10D01F56071C0F3160042EA0151E4
:10066000C208400711437047002001467047000050
:1006700030B5041E71F1000404DB4FF00044404229
:1006800064EB0101141E73F1000405DB1C464FF0FE
:100690000043524263EB04038B4208BF824230BDE9
:1006A00030B5041E71F1000404DB4FF000444042F9
:1006B00064EB0101141E73F1000405DB1C464FF0CE
:1006C0000043524263EB0403994208BF904230BD9D
:1006D00001F0004330B421F0004150EA010206D09D
:1006E0000A0DA2F56072C1F31301002A02DC30BCCE
:1006F00000207047440F44EAC104C100E01830BC38
:1007000000EBC25000F0B0B830B50B4601460020F7
:100710002022012409E021FA02F59D4205D303FAC3
:1007200002F5491B04FA02F52844151EA2F1010244
:10073000F1DC30BD2DE9F05F0546002092469B4676
:1007400088460646814640241BE0284641464746E7
:10075000224600F02FF853465A46C01A914110D352
:1007600011461846224600F016F82D1A67EB0108CC
:100770004F4622460120002100F00DF817EB00093A
:100780004E41201EA4F10104DFDC484631462A46D2
:100790004346BDE8F09F202A04DB203A00FA02F12C
:1007A000002070479140C2F1200320FA03F319435F
:1007B00090407047202A04DB203A21FA02F0002101
:1007C000704721FA02F3D040C2F120029140084361
:1007D00019467047202A06DBCB17203A41FA02F06F
:1007E00043EAE07306E041FA02F3D040C2F120028E
:1007F00091400843194670472DE9F04791460F464E
:1008000080460446002614F8015B2DB100F002F981
:100810000068405DC007F6D12B2D02D02D2D18D0D9
:10082000641E4A463946204600F0F8F827B1396878
:10083000A14201D1C7F8008071054FF002040BD529
:100840004042002803DD02F0E9FE0460A007BDE895
:10085000F08746F48066E4E70028F8DA02F0DEFE6E
:1008600004606FF00040F2E70029A8BF7047401C09
:10087000490008BF20F00100704710B4B0FA80FCB6
:1008800000FA0CF050EA010404BF10BC704749B1F3
:10089000CCF1200421FA04F411FA0CF118BF012163
:1008A00021430843A3EB0C01CB1D4FEA00614FEA43
:1008B000102042BF002010BC704700EBC350104412
:1008C0000029A4BF10BC7047401C490008BF20F09D
:1008D000010010BC704710B5141E73F1000408DA53
:1008E000401C41F1000192185B411A4301D120F0F4
:1008F000010010BD2DE9F04D92469B4611B1B1FAB1
:1009000081F202E0B0FA80F220329046FFF743FF16
:1009100004460F4640EA0A0041EA0B0153465A4694
:10092000084313D0114653EA010019D0C8F1400220
:100930005046FFF73FFF05460E4650465946424691
:10094000FFF729FF084305D0012004E0204639467F
:10095000BDE8F08D0020054346EAE0762C4337439E
:100960000A986305E40AA0EB08000022FD0A44EAA5
:1009700047540A3002D500200146E9E70105101965
:100980006941DDE9084500196941BDE8F04DA2E77C
:1009900070B521F0004303430CD0C1F30A55002485
:1009A000D5EB040564EB0403D617AD1AB34102DBA3
:1009B0000020014670BD201841EB025170BDC1F30B
:1009C0000A52C1F3130140F2FF3341F480119A42FD
:1009D00002DA00200146704740F233439A42A2F205
:1009E000334202DC5242FFF7E5BEFFF7D4BE0000FF
:1009F000064C074D06E0E06840F0010394E807006C
:100A000098471034AC42F6D3FFF796FB5097000896
:100A10007097000800487047449700082DE9F05F80
:100A200082460078002715468B460AF10104B94634
:100A3000302801D09DB113E014F8010B012778286C
:100A400003D0582801D045B10AE00DB1102D07D1CF
:100A50000027102514F8010B02E0082500E00A2504
:100A60000026B0460EE005FB080005FB06F1012755
:100A700001EB10461FFA80F8B6F5803F00D3B94667
:100A800014F8010B294600F069F80028EBDABBF1F5
:100A9000000F05D00FB1641E00E05446CBF80040B3
:100AA000B9F1000F06D002F0B9FD02210160C81EA5
:100AB000BDE8F09F48EA0640FAE72DE9F04D002333
:100AC0001A461B1A8A4103DB00200146BDE8F08D5F
:100AD000C1F30A52C1F3130141F480154FF0000B2A
:100AE000D10702D100186D41521E0027044640F282
:100AF000FF11384601EB620A3E468046024600205E
:100B00004FF48011FFF756FEC2197141BB1846EB36
:100B10000100B4EB030C75EB000C04D3E41A65EB95
:100B2000000517460E46241908F101006D41804664
:100B30003428E3DDF91946EB0600091BA84103D26E
:100B40004FF0FF32134601E0002213461BEB070073
:100B500046EB0A51BDE8F04DFFF7BDBE3A2800D282
:100B6000303820F02002412A01D3A2F13700884218
:100B700001D34FF0FF30704770B58D1810F8014B5E
:100B800014F0030201D110F8012B231106D110F843
:100B9000013B03E010F8016B01F8016B521EF9D123
:100BA000ABB110F8012B04F00C048A1A0C2C03D002
:100BB000A2EB84129B1C08E010F8014BA2EB04226C
:100BC000F8E712F8014B01F8014B5B1EF9D5A94279
:100BD000D4D3002070BD21B1826842F0010282604E
:100BE00003E0826822F001028260704721B18268CE
:100BF00042F48072826003E0826822F48072826034
:100C00007047014600208A6802F004020AB1012000
:100C100000E000207047014600208A6802F00802C8
:100C20000AB1012000E000207047000030B5024604
:100C30000020002350680F4C20400D790C6844EAD6
:100C400005242043506090680B4C2040D1E90254A9
:100C50002C434D7944EA450420439060D06A20F447
:100C600070000C7C641EE4B2234340EA0350D0625F
:100C700030BD0000FFFEF0FFFDF7F1FFF0B50446C8
:100C80000D4600200021092D11DDE068A5F10A06BE
:100C900006EB4607072606FA07F18843A5F10A0680
:100CA00006EB460603FA06F10843E0600CE0206913
:100CB00005EB4507072606FA07F1884305EB4506CD
:100CC00003FA06F108432061072A0FDA606B561E0B
:100CD00006EB86071F2606FA07F18843561E06EB29
:100CE000860605FA06F10843606322E00D2A0FDA52
:100CF000206BD61F06EB86071F2606FA07F18843EE
:100D0000D61F06EB860605FA06F10843206310E0BD
:100D1000E06AA2F10D0606EB86071F2606FA07F128
:100D20008843A2F10D0606EB860605FA06F1084394
:100D3000E062F0BD816841F008018160704721B137
:100D4000826842F4A002826003E0826822F4A0027A
:100D500082607047816841F0040181607047000043
:100D600008B50121042002F0CBF80121082002F08F
:100D7000C7F87020ADF8000000208DF80300694628
:100D8000054800F0E7FB0220ADF800006946034883
:100D900000F0E0FB08BD000000080140000C01402D
:100DA00010B5FFF7DDFF00F001F810BD00B591B000
:100DB0000121084602F074F80121480202F0A0F86F
:100DC0003D4800F075F93D4806903D4807900020E9
:100DD00008902820099000200A9080200B90400065
:100DE0000C9080000D9020200E90C0010F900020EC
:100DF000109006A9304800F001FA01212E4800F0B9
:100E00004BF90020019001208DF808008DF80900B1
:100E10004FF4602003900020049004208DF814000B
:100E200001A926484C38FFF701FF4FF4004002F0BB
:100E30002BF805230122042120484C38FFF71EFF20
:100E40000523022219461D484C38FFF717FF0523DA
:100E50000322092119484C38FFF710FF052304220B
:100E6000062116484C38FFF709FF012113484C387A
:100E7000FFF7BCFE012111484C38FFF7ACFE0F48CC
:100E80004C38FFF757FF00BF0C484C38FFF7C3FE44
:100E90000028F9D109484C38FFF75CFF00BF07482C
:100EA0004C38FFF7AEFE0028F9D1012103484C3839
:100EB000FFF745FF11B000BD080002404C2401407F
:100EC000740C002000BFFEE708B50121042002F0E9
:100ED00017F82020ADF8000010208DF80300032043
:100EE0008DF802006946024800F034FB08BD00009E
:100EF0000008014010B500241548006820F00F00DC
:100F0000134908600846006840F00800086004E0E3
:100F1000601CC4B2012003F06FF90E48006808B1EC
:100F2000642CF5DB642C01DB012010BD002404E0FF
:100F3000601CC4B2012003F05FF90648006808B9DC
:100F4000642CF5DB642C01DB0120EEE70020ECE7EC
:100F5000000C01400081214208B50121082001F068
:100F6000CFFF0120ADF8000010208DF80300032012
:100F70008DF802006946064800F0ECFA01210448A9
:100F800000F073FB00F068F8FFF7B4FF08BD000045
:100F9000000C014010B5002404E0601CC4B2012024
:100FA00003F02AF90D48006808B1642CF5DB002431
:100FB00004E0601CC4B2012003F01EF90748006879
:100FC00008B9642CF5DB282003F016F90348006803
:100FD00008B1012010BD0020FCE700000081214283
:100FE00070B50024002506E06006040EFFF7D2FF6E
:100FF0000443681CC5B2082DF6DB204670BD7CB5E5
:1010000005460E4600F028F8FFF774FFF8B90024F3
:1010100005E0FFF7E5FF0DF80400601CC4B2052CE5
:10102000F7DB9DF800009DF8011008449DF80210C0
:1010300008449DF8031008449DF80410884208D124
:101040009DF8000030709DF80200287001E001203A
:101050007CBD0020FCE7000010B50C48006820F0C3
:101060000F000A4908600846006840F00300086065
:10107000002007490860142003F098F80120054972
:10108000C1F880011E2003F0B7F810BD000C01402C
:10109000808121420080214221B1026842F0010298
:1010A000026004E002684FF6FE731A400260704767
:1010B00001684FF6FE72114001600021016041603D
:1010C0008160C1604B49884208D14A490839496862
:1010D00041F00F01474A083A51608AE0454914310E
:1010E000884208D143490839496841F0F001414A32
:1010F000083A51607DE03F492831884208D13D4996
:101100000839496841F470613A4A083A516070E020
:1011100038493C31884208D136490839496841F498
:101120007041344A083A516063E032495031884294
:1011300008D130490839496841F470212D4A083AEC
:10114000516056E02B496431884208D12949083959
:10115000496841F47001274A083A516049E025493D
:101160007831884208D123490839496841F07061D3
:10117000204A083A51603CE01F49884206D1011FCD
:10118000096841F00F01021F116032E01A49143161
:10119000884208D11849091F096841F0F001164A30
:1011A000121F116025E014492831884208D11249E4
:1011B000091F096841F470610F4A121F116018E09D
:1011C0000D493C31884208D10B49091F096841F497
:1011D0007041094A121F11600BE0074950318842E3
:1011E00007D10549091F096841F47021024A121FFD
:1011F00011607047080002400804024010B5002248
:10120000026847F6F0739A430C6A8B6823430C69B3
:1012100023434C6923438C692343CC6923434C6AA1
:1012200023438C6A23431A430260CB6843600B68F4
:1012300083604B68C36010BD7047000010B580210B
:101240000348FEF7B0FF00200249088010BD0000EF
:10125000000D0020540C002070B50546002400BF8E
:1012600000F05EF980B90DA10E48FEF7B3FF044609
:1012700054B13A212046FEF7BFFF044614B1641C66
:10128000204670BD0020FCE7052002F08FFF281EDD
:10129000A5F101018DB2E3D100BFF2E74950442C22
:1012A00000000000000D002008B50121082001F019
:1012B00027FE10208DF803004002ADF80000032047
:1012C0008DF802006946334800F044F900224FF4DB
:1012D0000051304800F0CBF9FA2002F067FF0122FC
:1012E00051032C4800F0C3F94FF4FA7002F05EFF8E
:1012F000FFF7A4FF28A12A4802F006F903E04FF403
:10130000FA7002F053FF27A127A000F0BBF80028D5
:10131000F5D127A1224802F0F7F803E04FF4FA7064
:1013200002F044FF1FA125A000F0ACF80028F5D181
:1013300026A11B4802F0E8F803E04FF4FA7002F02F
:1013400035FF18A125A000F09DF80028F5D127A1B0
:10135000134802F0D9F803E04FF4FA7002F026FFC8
:1013600025A127A000F08EF80028F5D12EA10C4869
:1013700002F0CAF803E04FF4FA7002F017FF2EA152
:101380002FA000F07FF80028F5D138A1044802F022
:10139000BBF808BD000C0140312E2041540D0A005D
:1013A000003801404F4B000041540D0A000000007E
:1013B000322E2043574D4F44450D0A0041542B43D4
:1013C000574D4F44453D310D0A000000332E20415A
:1013D000542B4357444843500D0A000041542B43BB
:1013E00057444843503D312C310D0A00342E2043E0
:1013F000574A41500D0A0000474F54204950000001
:1014000041542B43574A41503D226D655F636F6DD8
:101410007075746572222C22323936303439333487
:101420003235220D0A000000352E20434950535416
:101430004152540D0A000000434F4E4E45435400A4
:1014400041542B43495053544152543D225443502C
:10145000222C223138332E3233302E34302E333991
:10146000222C363030320D0A00000000362E204586
:1014700053503832363620496E6974204F4B0D0A6E
:10148000000000002DE9F04104460D46C826204624
:10149000FEF7BCFE87B23A4621460D4802F058F8E6
:1014A0000FE000F03DF848B929460A48FEF792FEE1
:1014B00020B1FFF7C3FE0020BDE8F0810A2002F052
:1014C00075FE301EA6F10101CEB2EAD10120F3E78C
:1014D00000440040000D002030B589B004460D46A0
:1014E000FFF7ACFE2A4608A101A802F059F80AA1AC
:1014F00001A8FFF7C7FF20B92A462146074802F096
:1015000027F809B030BD000041542B4349505345E2
:101510004E443D25640D0A003E000000004400409A
:101520000A48008808B9012070470848008808491F
:101530000988884203D1002004490880F4E7034861
:101540000088034908800120EEE70000540C0020C9
:10155000560C00202DE9F04102460025002600200F
:1015600000230024002791F803C00CF00F0591F828
:1015700003C00CF0100CBCF1000F03D091F802C0B6
:101580004CEA050591F800C0BCF1000F31D0146899
:1015900000202BE04FF0010C0CFA00F3B1F800C072
:1015A0000CEA03069E4220D183004FF00F0C0CFA88
:1015B00003F7BC4305FA03FC4CEA040491F803C0AA
:1015C000BCF1280F06D14FF0010C0CFA00FCC2F858
:1015D00014C00AE091F803C0BCF1480F05D14FF0E8
:1015E000010C0CFA00FCC2F810C0401C0828D1D332
:1015F0001460B1F800C0BCF1FF0F34DD5468002066
:101600002EE000F1080C4FF0010808FA0CF3B1F8D5
:1016100000C00CEA03069E4221D183004FF00F0C5C
:101620000CFA03F7BC4305FA03FC4CEA040491F8F6
:1016300003C0BCF1280F05D100F1080C08FA0CF822
:10164000C2F8148091F803C0BCF1480F07D100F133
:10165000080C4FF0010808FA0CF8C2F81080401C82
:101660000828CED35460BDE8F081016170470AB10B
:10167000016100E04161704700BFFEE770B50246BE
:101680000024002500230020958A138B1B0445EAC3
:10169000030626F07F4404EA01068E4201D10120B0
:1016A00000E0002070BD21B1028842F001020280FA
:1016B00004E002884FF6FE731A4002807047000073
:1016C00000B585B00121480501F0FAFB0121082091
:1016D00001F016FCC020ADF8000003208DF80200D8
:1016E0001C208DF8030069461148FFF733FF1148AD
:1016F00000F024F80020ADF808004BF6FF70ADF8BC
:101700000A003020ADF80C004FF48060ADF80E00F8
:101710000001ADF810000848019001210548FFF7CD
:10172000C2FF01A9034800F05BF805B000BD00004E
:10173000000C014000540040801A060010B5044619
:101740000B48844209D10121480501F0C9FB002161
:101750004FF4001001F0C4FB08E00121880501F0FE
:10176000BFFB00214FF4800001F0BAFB10BD000068
:101770000054004021B1028842F48072028004E0EB
:1017800002884FF6FF631A400280704721B1028839
:1017900042F40072028004E002884FF6FF531A40C0
:1017A000028070470CB5024600200023019300938D
:1017B00000920B0F019321F07F41019B1BB1009B15
:1017C0001433009303E0090C009B18330093009B33
:1017D0001B680B400BB1012000E000200CBD000095
:1017E0002DE9F04385B004460D460026B146042796
:1017F000DFF8CC80A6884FF6C0700640684601F03E
:101800008FFBDDF808802F48B8FBF0F01FFA80F955
:1018100046EA0906A68020884FF6FE71084020801F
:1018200000262949286888420CD828684000B8FB5F
:10183000F0F087B2042F00DA04273E4309F10100DB
:10184000208427E0E8884BF6FF71884206D128689B
:1018500000EB4000B8FBF0F087B209E0286800EB2D
:10186000C00101EB0010B8FBF0F087B247F48047ED
:10187000C7F30B0008B947F0010747F400400643DF
:101880004FF4967009FB00F04FF47A7190FBF1F081
:10189000401C2084A683208840F0010020802688F8
:1018A0004FF6F5300640A88869890843064326802C
:1018B000A88929890843208105B0BDE8F08300008C
:1018C00000127A0040420F00A086010012B141F0E0
:1018D000010102E04FF6FE73194001827047018258
:1018E0007047000070B504460D4600BF4FF400314C
:1018F0001C48FFF757FF0028F8D101211948FFF7CE
:1019000039FF00BF18491748FFF7B8FE0028F9D083
:10191000002278211348FFF7D9FF00BF134911486F
:10192000FFF7ACFE0028F9D021460E48FFF7D7FF9D
:1019300000BF0E49891C0B48FFF7A0FE0028F8D015
:1019400029460848FFF7CBFF00BF0849891C054816
:10195000FFF794FE0028F8D001210248FFF716FF98
:1019600070BD000000540040010003008200070029
:1019700010B50446207B012802D1206802F062FCE9
:10198000002020606060A060207310BD024600232C
:1019900001230DE002F07F000870D2092AB1087817
:1019A00040F080000870491C01E0184670475B1C3D
:1019B000042BEFDD4FF0FF30F8E770B504460E461C
:1019C0000025206898B901202073304602F086FE79
:1019D00020602068E0B100206060A66003E0002085
:1019E000216848556D1CA068A842F8D810E0022074
:1019F000207303E00020216848556D1CA068A842B0
:101A0000F8D800206060A068B04201D200202060B9
:101A100070BD00002DE9FF5F07460D469046384631
:101A2000FEF7F4FB86B22846FEF7F0FB1FFA80FAB9
:101A30004FF00009F01D02F051FE04461CB90120D0
:101A400004B0BDE8F09FF11D2046FEF7ACFB12A0EC
:101A5000016821608088A080324639462046FEF722
:101A6000DCFB2846FEF7D2FB8346012000210091D3
:101A70005B462A46CDE90208019121460A2000F082
:101A80005FF910B94FF0000901E04FF0010920465D
:101A900002F0D8FB4846D3E724637273702F00002E
:101AA0002DE9FF4F83B082468B469146159C002559
:101AB000002002900F2701904846FEF7A7FB0FFA7F
:101AC00080F8B9F1000F03D1012007B0BDE8F08F15
:101AD00008F10200384487B2109808B145F00205B9
:101AE000129878B145F004051298FEF78FFBC0B24A
:101AF00002901398FEF78AFB01460298001D0844E5
:101B0000384487B2119820B1012804D0022808D1A6
:101B100004E000BF07E045F00C0504E045F01405C3
:101B200001E00220D1E700BF149808B145F0240578
:101B3000BAF1000F02D0BBF1000F01D10320C4E7BE
:101B400045F0C0055046FEF761FB06465846FEF7D5
:101B50005DFB3044001D384487B239462046FFF70C
:101B60002CFF206808B90420AFE739462068FEF74B
:101B70001AFB10216268501C606020688154D4E90F
:101B80000023D118781FFFF701FF00B201900198E0
:101B9000002804DA2046FFF7EBFE052095E7616890
:101BA00001980844606000216268501C60602068F1
:101BB000815404216268501C6060206881544D216A
:101BC0006268501C60602068815451216268501C1A
:101BD00060602068815454216268501C60602068F5
:101BE00081546268501C60602068815404216268DE
:101BF000501C6060206881546168481C60602068E7
:101C000045540698010A6268501C6060206881543F
:101C10000698C1B26268501C606020688154C8F3A5
:101C200007216268501C6060206881546268501C03
:101C30006060206800F80280D4E9001288184246EB
:101C40004946FEF7EAFA60684044606005F0040027
:101C5000B8B30026139808B938A013901298FEF76D
:101C6000D5FA86B2310A6268501C606020688154DF
:101C70006268501C606020688654D4E9001288189D
:101C800032461299FEF7C9FA6068304460601398D2
:101C9000FEF7BCFA86B2310A6268501C60602068A8
:101CA00081546268501C606020688654D4E9001238
:101CB000881832461399FEF7B0FA606830446060C5
:101CC00000BF05F08000C8B15046FEF79FFA86B20B
:101CD000310A6268501C6060206881546268501C40
:101CE000606020688654D4E9001288183246514654
:101CF000FEF793FA60683044606000BF05F0400072
:101D0000C8B15846FEF782FA86B2310A6268501CA2
:101D10006060206881546268501C6060206886544E
:101D2000D4E90012881832465946FEF776FA606800
:101D30003044606000BF0020C7E6000000000000E3
:101D40002DE9FF4F83B0834617469946139C002523
:101D500000260020029001908046BBF1000F03D1C5
:101D6000012007B0BDE8F08F00260AE00498805DEE
:101D7000232803D00498805D2B2801D10220F0E7AE
:101D8000761C0498805D0028F0D148F03008119846
:101D900008B148F0010806EB0900851C109820B135
:101DA000012804D002280AD105E000BF09E048F06C
:101DB0000208AD1C05E048F00408AD1C01E003205A
:101DC000CFE700BF8FB33878022821D14FF0000A47
:101DD00000BF50460AF1010A385C7D28F9D1AAF10A
:101DE000030A0AF1070002900298A9EB000AE81C16
:101DF000A0EB0A012046FFF7E0FD206808B90420A7
:101E0000AFE7EA1CA2EB0A012068FEF7CCF919E063
:101E1000691D2046FFF7D1FD206808B90420A0E71E
:101E2000691D2068FEF7BFF90CE0FFE7691D204639
:101E3000FFF7C3FD206808B9042092E7691D2068F8
:101E4000FEF7B1F96168481C6060206800F8018005
:101E5000D4E9000281182846FFF798FD0190019807
:101E6000002804DA2046FFF783FD052079E7616842
:101E7000019808446060C6F307216268501C6060E6
:101E8000206881546268501C606020688654D4E9E0
:101E90000012881832460499FEF7BFF96068304492
:101EA0006060109860B14FEA1B216268501C60604E
:101EB000206881546268501C6060206800F802B09D
:101EC000C7B1387802280BD1D4E9001288183946F6
:101ED000029AFEF74FF9616802980844606009E0D1
:101EE000D4E9001288184A463946FEF743F960687B
:101EF00048446060002034E770B505460C46042174
:101F00002046FFF75AFD206808B9012070BD402126
:101F10006268501C60602068815402216268501C15
:101F200060602068815429126268501C60602068DB
:101F300081546268501C6060206885540020E5E789
:101F400070B505460C4604212046FFF736FD206893
:101F500008B9012070BD50216268501C6060206883
:101F6000815402216268501C6060206881542912EB
:101F70006268501C6060206881546268501C606018
:101F8000206885540020E5E72DE9FF4107460D460E
:101F900090461E460A9C01200021CDE90001EB1C61
:101FA0000A460FA1CDE902040A20FFF7C9FE88B94D
:101FB0006168481C606020684654C5F30721626868
:101FC000501C6060206881546268501C606020680A
:101FD000855403E0012004B0BDE8F0810020FAE759
:101FE000246470002DE9FF5F8046174699460E9CD9
:101FF0000026B246B3460025B8F1000F03D10120F8
:1020000004B0BDE8F09F0BE057F8250008B90220A6
:10201000F6E757F82500FEF7F9F80644681CC5B244
:102020004D45F1DB09EB4900801C00EB060A0AF183
:1020300005012046FFF7C1FC206808B90320DFE74F
:1020400082216268501C606020688154D4E90002DB
:1020500081185046FFF79AFC0FFA80FBBBF1000F86
:1020600004DA2046FFF784FC0420C9E7606858447E
:1020700060604FEA18216268501C606020688154DB
:102080006268501C6060206800F80280002524E02F
:1020900057F82500FEF7BAF80646C6F3072162682E
:1020A000501C6060206881546268501C6060206829
:1020B0008654D4E90023D01857F825103246FEF78D
:1020C000ACF86068304460600198C1B26268501C2E
:1020D000606020688154681CC5B24D45D8DB002083
:1020E0008EE7F0B504460D46264601230020106019
:1020F000002114E0775C07F07F07106807FB0300FE
:102100001060705C00F0800008B9481CF0BDDB0175
:10211000B3F5001F02D36FF00100F7E7491CA94295
:10212000E8DB4FF0FF30F1E72DE9F84380460C463D
:1021300015461E462F2108F10600FEF75DF80746FA
:102140000020009017B90120BDE8F8837F1C6A4683
:10215000042108F10100FFF7C4FF252002F0BEFAB8
:102160002060206808B90220EEE725212068FEF7EC
:102170001AF8242239462068FDF7FCFF243700981E
:102180002C3830803188481C02F0A8FA2860286872
:1021900020B9206802F056F80320D5E73288511C98
:1021A0002868FEF700F8328839462868FDF7E2FF14
:1021B0000020C9E701464878022801D00120704775
:1021C000887810B18878012801D1C878F7E7FF2016
:1021D000F5E700002DE9FC5F81460D4614461E46DA
:1021E000DDE90C8B99F8000000F00F0A0020019047
:1021F0000AF008000090CAF341008BF8000001AA21
:10220000042109F10100FFF76CFF4844471C0198C5
:10221000022802D30AF0010010B1FF20BDE8FC9FA4
:102220007878397840EA012020802088801C019944
:10223000884201D9FF20F1E754A1B81CFDF7CAFF7D
:1022400008B10F20EAE79BF8000020B101283DD03B
:10225000022877D13BE0009808B1FF20DEE7218813
:10226000481C02F03BFA2860286808B9FF20D5E72F
:102270002288511C2868FDF796FF2288B91C28681F
:10228000FDF778FF0198801E2188401AA8F8000009
:10229000B8F80010481C02F021FA3060306820B90C
:1022A000286801F0CFFFFF20B8E7B8F80020511CE4
:1022B0003068FDF778FFB8F80020B4F800C0BB1C08
:1022C0000CEB03013068FDF755FF4FE000BF20889D
:1022D000801C0199884201D9FF209FE72088C01CFB
:1022E000395C2088801C385C41EA00210E9801800E
:1022F0000E9808B9FF2091E72188481C02F0EEF9FA
:102300002860286808B9FF2088E72288511C2868BF
:10231000FDF749FF2288B91C2868FDF72BFF0198BB
:10232000001F2188401AA8F80000B8F80010481CC7
:1023300002F0D4F93060306828B9286801F082FFD3
:10234000FF206BE710E0B8F80020511C3068FDF763
:102350002AFFB8F80020B4F800C03B1D0CEB0301C5
:102360003068FDF707FF01E0FF2057E700BF2B2192
:102370002846FDF741FF20B923212846FDF73CFF01
:1023800008B1FF204AE7002048E700002463726597
:102390007100000001464878022801D001207047F2
:1023A000887820B9C8780A2801D10020F7E70120F1
:1023B000F5E70000F8B50446FF2720780511012D48
:1023C00001DB0E2D01DD3846F8BD032D24D10020A0
:1023D00000906A460421601CFFF783FE2044461CDF
:1023E0000098022803D3207800F0010008B1FF20F4
:1023F000EAE77078317840EA0120801C0099884231
:1024000001D9FF20E0E706A1B01CFDF7E3FE08B10B
:102410000F2700E0032700E02F463846D4E70000EE
:10242000246372657100000000BFFEE77047000082
:1024300070B5002100230F22C47804B3154C246822
:1024400004F4E064C4F5E064210AC1F10403CA4065
:10245000447804FA03F184781440214309010E4CB6
:102460000678A155047804F01F050124AC400578D6
:102470006D11AD0005F1E025C5F8004109E00478D3
:1024800004F01F050124AC40044D0678761145F890
:10249000264070BD0CED00E000E400E080E100E0CB
:1024A00002490143024A1160704700000000FA052A
:1024B0000CED00E010B5002000F001F810BD70B583
:1024C0000646002415E004F1B001C8B201F059F845
:1024D000002001F056F8102001F053F8002504E028
:1024E000304601F055F8681CC5B2802DF8DB601C41
:1024F000C4B2082CE7DB70BD10B5FFF7E1F864202B
:1025000001F054FEAE2001F03CF8202001F039F833
:10251000102001F036F8B02001F033F8C82001F0A7
:1025200030F8002001F02DF8102001F02AF84020AA
:1025300001F027F8812001F024F8FF2001F021F8B4
:10254000A12001F01EF8A62001F01BF8A82001F040
:1025500018F83F2001F015F8A42001F012F8D3205C
:1025600001F00FF8002001F00CF8D52001F009F877
:10257000F02001F006F8D92001F003F8222001F044
:1025800000F8DA2000F0FDFF122000F0FAFFDB2057
:1025900000F0F7FF202000F0F4FF8D2000F0F1FFA5
:1025A000142000F0EEFFAF2000F0EBFFFFF782FFFA
:1025B00010BD70B504460D4605F1B001C8B200F07B
:1025C000E0FF102141EA141000F0DBFF04F00F01DE
:1025D00041F0010000F0D5FF70BD00002DE9F04191
:1025E00080460E46174600247D0131464046FFF7DF
:1025F000E0FF00BF06E00D49485D00F0C9FF6D1C1B
:10260000601CC4B2102CF6DB701CC1B24046FFF750
:10261000D0FF002406E00549485D00F0B9FF6D1CBD
:10262000601CC4B2102CF6DBBDE8F0813C00002039
:102630002DE9F0470646894617469A464FF00008AE
:1026400000240025BAF1010F03D0BAF1020F5ED1C8
:1026500025E020E0785D203800F0FF087E2E04DDC4
:10266000002609F1010000F0FF0949463046FFF756
:10267000A0FF002409E008EB4801264A02EB4101D3
:10268000085D00F085FF601CC4B2062CF3DBB01DB2
:10269000C6B2681CC5B2785D0028DBD137E032E0F5
:1026A000785D203800F0FF08782E04DD002609F15F
:1026B000010000F0FF0949463046FFF77AFF002489
:1026C00007E004EB0811144A505C00F061FF601C45
:1026D000C4B2082CF5DB09F10100C1B23046FFF7A6
:1026E00068FF002408E004EB081108310A4A505C36
:1026F00000F04EFF601CC4B2082CF4DB06F10800A9
:10270000C6B2681CC5B2785D0028C9D100BF00BF41
:10271000BDE8F087245900084C5B000830B58BB049
:1027200000200790089009900A90012530A033A35B
:1027300034A236A10090414800F0E6FE07A800212F
:1027400002910391CDE9041000912B0228A201917E
:102750002AA12CA0FFF7A4F9002842D1089A91B22F
:102760000798FEF7B9FEFA20FEF776FD0446002C26
:1027700033D02046FFF71EFE02282ED12046FFF759
:1027800019FD062823D2DFE800F003090E13181DF7
:102790002BA12A4800F0B8FE00251DE02DA12748F6
:1027A00000F0B2FE18E032A1244800F0ADFE13E0C4
:1027B00038A1224800F0A8FE0EE03EA11F4800F01C
:1027C000A3FE09E044A11D4800F09EFE04E04DA1D7
:1027D0001A4800F099FE00BF00BF07A8FFF7C8F82D
:1027E00003E04FA1154800F08FFE28460BB030BD26
:1027F0003130363431333334393000003132333410
:102800003536000035383833383400004F6E654EA9
:1028100065745F4465764C696E6B0D0A50524F4982
:10282000443A2025732C09415549463A2025732CFA
:102830000944455649443A25730D0A0000380140C1
:10284000546970733A09C1ACBDD3B3C9B9A60D0AB6
:10285000000000005741524E3A09C1ACBDD3CAA78F
:10286000B0DCA3BAD0ADD2E9B4EDCEF30D0A0000CE
:102870005741524E3A09C1ACBDD3CAA7B0DCA3BA86
:10288000B7C7B7A8B5C4636C69656E7469640D0A8F
:10289000000000005741524E3A09C1ACBDD3CAA74F
:1028A000B0DCA3BAB7FECEF1C6F7CAA7B0DC0D0AFA
:1028B000000000005741524E3A09C1ACBDD3CAA72F
:1028C000B0DCA3BAD3C3BBA7C3FBBBF2C3DCC2EB70
:1028D000B4EDCEF30D0A00005741524E3A09C1AC97
:1028E000BDD3CAA7B0DCA3BAB7C7B7A8C1B4BDD31C
:1028F00028B1C8C8E7746F6B656EB7C7B7A8290D54
:102900000A0000004552523A09C1ACBDD3CAA7B073
:10291000DCA3BACEB4D6AAB4EDCEF30D0A00000003
:102920005741524E3A094D5154545F5061636B65A3
:1029300074436F6E6E656374204661696C65640DE7
:102940000A00000010B588B0044620216846FDF753
:102950002AFC30A00088208020216846FDF723FC57
:102960002D4802782DA1684600F01AFE69462046DF
:10297000FDF724FC20216846FDF715FC2B48027862
:102980002BA1684600F00CFE69462046FDF716FCB8
:1029900020216846FDF707FC2948027829A16846EE
:1029A00000F0FEFD69462046FDF708FC2021684640
:1029B000FDF7F9FB2748027827A1684600F0F0FDF3
:1029C00069462046FDF7FAFB20216846FDF7EBFB40
:1029D0002448027824A1684600F0E2FD69462046BA
:1029E000FDF7ECFB20216846FDF7DDFB214802885E
:1029F00021A1684600F0D4FD69462046FDF7DEFBC4
:102A00001FA12046FDF7DAFB2046FDF7FFFBC0B211
:102A100008B010BD7B0000000200002074656D70DE
:102A2000657261747572653A25642C00050000209A
:102A300068756D69646974793A25642C000000003A
:102A4000140000204C69676874696E673A25642C2D
:102A500000000000160000204D515F3133353A254B
:102A6000642C0000170000204D515F323A25642C81
:102A70000000000024000020666972653A256400A9
:102A80007D0000002DE9F04790B0814600200C90B9
:102A90000D900E900F900B900A90099008900026D0
:102AA00007900025002480464846FFF783FC064631
:102AB000032E27D0042E7DD00F2E7CD108AB0BAA7D
:102AC0000AA94846FFF730FB0546D5B9BDF82000F6
:102AD00000905CA16448DDE90A2300F015FD0CAA12
:102AE000DDE90A01FEF796FF58B960A15E4800F0E3
:102AF0000BFD0D9A91B20C98FEF7EEFC0CA8FEF7B8
:102B000037FF6CE05F4807A908AA0BABCDE90021AD
:102B1000029009AA0AA94846FFF75CFB0546002D6A
:102B200050D1BDF820000B99CDE90010BDF824303C
:102B300055A14D480A9A00F0E7FC0B9801F0B4FA51
:102B4000074627B95FA1484800F0DEFC05E065A113
:102B5000384601F089FAD0F814A0384601F058FA46
:102B60009DF81C00012802D0022829D112E00CA9EE
:102B700044480088FFF7C0F958B95BA13A4800F013
:102B8000C3FC0D9A91B20C98FEF7A6FC0CA8FEF7B8
:102B9000EFFE16E00CA93B480088FFF7D1F970B9A9
:102BA00057A1314800F0B0FC0D9A91B20C98FEF795
:102BB00093FC01E007E00FE00CA8FEF7D9FE00E06F
:102BC00000BF00BF0BE04846FFF7E4FB18B952A175
:102BD000254800F099FC02E04FF0FF3500BF00BF30
:102BE000FEF72CFB681C10B910B0BDE8F0877D2102
:102BF0000B98FDF701FB0446C4B1681CB0B1641C1E
:102C000006E014F8012B404608F1010804A90A5413
:102C10002078302802DB20783928F2DD002004A952
:102C200001F8080004A8FDF71BFB80460F2E01D019
:102C3000032E05D10A9801F005FB0B9801F002FB69
:102C400000BFD1E7636D6469643A2025732C20725C
:102C500065713A2025732C207265715F6C656E3A40
:102C60002025640D0A00000000380140546970738B
:102C70003A0953656E6420436D64526573700D0AA2
:102C800000000000580C0020746F7069633A202522
:102C9000732C20746F7069635F6C656E3A202564D5
:102CA0002C207061796C6F61643A2025732C207040
:102CB00061796C6F61645F6C656E3A2025640D0A02
:102CC000000000006A736F6E207061636B20696E94
:102CD000746F20636A736F6E206572726F722E2E2E
:102CE0002E0D0A0066616E00546970733A095365CF
:102CF0006E64205075626C69736841636B0D0A00E5
:102D0000546970733A0953656E64205075626C693A
:102D100073685265630D0A00546970733A094D5126
:102D20005454205075626C6973682053656E64203A
:102D30004F4B0D0A0000000030B5A5B000202190D7
:102D4000229023902490002400251BA1224800F00B
:102D5000DBFB802101A8FDF726FA01A8FFF7F2FDB1
:102D60000446002C26D021A80323002221460090EF
:102D70001AA0FFF709F9C8B908E001A8415D229A35
:102D8000501C229021988154681C05B2A542F4DBA6
:102D9000229A91B22198FEF79FFB13A10E48229A26
:102DA00000F0B2FB21A8FEF7E3FD03E012A10A4800
:102DB00000F0AAFB25B030BD546970733A094F6E1C
:102DC000654E65745F53656E64446174612D4D5149
:102DD00054540D0A000000000038014031303634F0
:102DE000313333343930000053656E64202564205C
:102DF00042797465730D0A005741524E3A094544B1
:102E0000505F4E6577427566666572204661696CF3
:102E100065640D0A0000000070B586B004460D46DA
:102E200000260020029003900490059007E054F8DB
:102E300026200DA1124800F067FB701CC6B2AE42FE
:102E4000F5DB02A82B462246022100901420FFF752
:102E5000C9F838B9039A91B20298FEF73DFB02A86F
:102E6000FEF786FD06B070BD5375627363726962CA
:102E70006520546F7069633A2025730D0A000000C5
:102E8000003801407047000001460020034A5068A6
:102E900020F440400843506070470000001002409A
:102EA00029B1064A52690243044B5A6104E0034ABD
:102EB00052698243014B5A61704700000010024082
:102EC00029B1064AD2690243044BDA6104E0034A9D
:102ED000D2698243014BDA61704700000010024062
:102EE00029B1064A12690243044B1A6104E0034AFD
:102EF00012698243014B1A617047000000100240C2
:102F000029B1064A92690243044B9A6104E0034ADC
:102F100092698243014B9A617047000000100240A1
:102F200030B500210022002400232D4D6D6805F0EE
:102F30000C0121B1042905D0082923D105E0294D30
:102F4000056022E0274D05601FE0254D6D6805F402
:102F50007012234D6D6805F48034022505EB924212
:102F60001CB9214D554305600BE01D4D6D6805F4FE
:102F700000351DB11C4D5543056002E0194D554308
:102F8000056002E0174D056000BF00BF144D6D687D
:102F900005F0F0010909154D6B5C0568DD404560E1
:102FA0000F4D6D6805F4E061090A104D6B5C4568D2
:102FB000DD4085600A4D6D6805F46051C90A0B4D0E
:102FC0006B5C4568DD40C560054D6D6805F44041AA
:102FD000890B074D6B5CC568B5FBF3F5056130BD2A
:102FE0000010024000127A0000093D00400C002051
:102FF000500C0020704710B500F002F810BD000022
:103000000CB50020019000903348006840F48030F7
:103010003149086000BF3048006800F4003000907B
:103020000198401C0190009818B90198B0F5A06F64
:10303000F1D12948006800F4003010B1012000905F
:1030400001E0002000900098012843D12348006847
:1030500040F01000214908600846006820F0030095
:1030600008600846006840F0020008601A4840689E
:10307000194948600846406848600846406840F47E
:10308000806048600846406820F47C10486008462C
:10309000406840F4E81048600846006840F08070DE
:1030A000086000BF0C48006800F000700028F9D0EC
:1030B0000948406820F00300074948600846406816
:1030C00040F00200486000BF0348406800F00C0078
:1030D0000828F9D10CBD0000001002400020024079
:1030E000042808D14FF0E021096941F004014FF0B4
:1030F000E022116107E04FF0E021096921F00401AD
:103100004FF0E022116170477047000010B513487E
:10311000006840F001001149086008464068104905
:1031200008400E494860084600680E4908400B49AF
:1031300008600846006820F480200860084640685F
:1031400020F4FE0048604FF41F008860FFF753FF33
:103150004FF000600449086010BD000000100240FC
:103160000000FFF8FFFFF6FE08ED00E010B540F2AA
:103170002551044800F058F818B12021014800F00A
:1031800031F810BD0038014010B540F2255111480A
:1031900000F04AF8E8B110480088802802D30020E7
:1031A0000D4908800B48001D0088C1B20A480288FA
:1031B0000088401C084B1880084881541846008835
:1031C000401E0649085C064908802021014800F09D
:1031D00009F810BD00440040540C0020000D0020F0
:1031E0000438014001F40072B2F5007F00D100BF45
:1031F000CA430280704721B1828942F40052828121
:1032000004E082894DF6FF731A40828170470246BE
:103210000020B1F5007F00D100BF13880B400BB137
:10322000012000E00020704770B502460024002312
:103230000025002040F66A16B14200D100BFC1F35C
:10324000421501F01F03012606FA03F3012D02D1F6
:103250009689334006E0022D02D1168A334001E000
:10326000968A33400C12012606FA04F4168834407C
:1032700013B10CB1012000E0002070BDF0B5034691
:10328000002400260025002040F66A17B94200D12C
:1032900000BF1846C1F3421401F01F06012707FAC8
:1032A00006F5012C01D10C3004E0022C01D11030C4
:1032B00000E014301AB107682F43076002E0076886
:1032C000AF430760F0BD00002DE9F04786B005462A
:1032D0000E460024A24600BFA1460027B08900B1D7
:1032E00000BF2F462C8A4CF6FF700440F088044340
:1032F0002C82AC894EF6F3100440B0883189084323
:10330000718908430443AC81AC8A4FF6FF40044006
:10331000B0890443AC8201A8FFF702FE1F48874230
:1033200002D1DDF810A001E0DDF80CA0A88900F4BE
:10333000004040B10AEBCA0000EB0A1031684900B6
:10334000B0FBF1F807E00AEBCA0000EB0A103168A5
:103350008900B0FBF1F86420B8FBF0F0040120090B
:10336000642101FB1089A88900F4004040B132209B
:1033700000EBC900B0FBF1F000F00700044308E0E7
:10338000322000EB09106421B0FBF1F000F00F00D7
:1033900004432C8106B0BDE8F087000000380140EE
:1033A000C1F308028280704700BFFEE710B586B007
:1033B000044601210420FFF7A3FD01218803FFF744
:1033C0009FFD18208DF817004FF40070ADF8140021
:1033D00003208DF8160005A91E48FEF7BBF804204F
:1033E0008DF817000002ADF8140003208DF81600C8
:1033F00005A91848FEF7AEF801940020ADF81000BA
:103400000C20ADF80E000020ADF80C00ADF80A005D
:10341000ADF8080001A91048FFF756FF01210E483A
:10342000FFF7E9FE012240F225510B48FFF726FF86
:1034300025208DF8000001208DF8030000208DF874
:10344000010002208DF802006846FEF7F1FF06B089
:1034500010BD0000000801400038014010B586B0E2
:10346000044601210420FFF74BFD01214804FFF72A
:1034700027FD18208DF817000420ADF81400032054
:103480008DF8160005A91E48FEF764F804208DF893
:1034900017000820ADF8140003208DF8160005A9C8
:1034A0001748FEF757F801940020ADF810000C20E3
:1034B000ADF80E000020ADF80C00ADF80A00ADF834
:1034C000080001A90F48FFF7FFFE01210D48FFF793
:1034D00092FE012240F225510A48FFF7CFFE262036
:1034E0008DF8000001208DF8030000208DF8010008
:1034F0008DF802006846FEF79BFF06B010BD000085
:1035000000080140004400400FB430B5CBB0054680
:1035100001AC50A800904FF4947101A8009B4F9A01
:1035200000F052F8002000900BE014F8011B284630
:10353000FFF736FF00BF40212846FFF768FE00284E
:10354000F9D020780028F0D14BB030BC5DF814FBE6
:103550002DE9F04107460C46154600260DE014F80B
:10356000011B3846FFF71CFF00BF40213846FFF71C
:103570004EFE0028F9D0701C86B2AE42EFDBBDE8EB
:10358000F08110B5044621460020FEF7ABF910BDCE
:1035900010B5044621464020FEF7A4F910BD0000F6
:1035A0000FB4084B10B504A902AA039800F088F9DB
:1035B000044602A9002000F025FD204610BC5DF85D
:1035C00014FB0000054000087CB5044600201D46A1
:1035D000164600290BD0491ECDE90041044B6A462E
:1035E0002946304600F06CF9009A002111707CBD2C
:1035F000EF3F0008490050EAC12018BF04204A0DDF
:1036000018BF40F0010040F2FF72B2EB515F08BFFB
:1036100040F00200012808BF0520704700487047AD
:10362000700C00202DE9F0414F1E00EBC70104464D
:10363000D1E9000115461E4637F006020DD02A4694
:103640003346FCF7C1FE7F1E04EBC703D3E900231A
:10365000FCF713FE37F00602F1D1022F25D0042F1C
:1036600013D0062F18BFBDE8F0812A463346FCF779
:10367000ABFED4E90A23FCF700FE2A463346FCF7EA
:10368000A3FED4E90823FCF7F8FD2A463346FCF7ED
:103690009BFED4E90623FCF7F0FD2A463346FCF7EF
:1036A00093FED4E90423FCF7E8FD2A463346FCF7F1
:1036B0008BFED4E90223FCF7E0FD2A463346FCF7F3
:1036C00083FED4E90023BDE8F041FCF7D6BD00003D
:1036D0000022134610460149FCF7E8BE0000F03F07
:1036E000FCF7CBBD0022134610461146FCF7DEBEA8
:1036F00040F2013200204FF0E041FDF749B90000EF
:10370000024A00201107FDF743B9000001FDFFFF49
:1037100002E008C8121F08C1002AFAD1704770479A
:10372000002001E001C1121F002AFBD170470000F8
:103730000149086070470000700C00202DE9FF5F10
:1037400082B00021DDE90430020DDDF840B0034312
:1037500018D044F61050A2F2FF32424315141198CB
:1037600001281FD0A5EB0B00401C5FEA000A4FF0B8
:1037700000064E4FDFF83891B046504615D5CAF1D5
:10378000000413E0119801244AA3012801D16FEA33
:103790000B010298119AC0E90031C0E9024206B05B
:1037A000BDE8F09FCBF10000DFE704460021404A6E
:1037B000491842EB0450CDE9001012E0E00707D0B1
:1037C00032463B4640464946FCF7FEFD8046894668
:1037D00032463B4610461946FCF7F6FD06460F46B4
:1037E0006410002CEAD1DDE90401DDE90023BAF11F
:1037F000000F06DAFCF7E8FD42464B46FCF7E4FD15
:1038000005E0FCF753FE42464B46FCF74FFE0446EC
:103810000E460022284BFCF743FF03D84FF0FF3041
:10382000014607E00022254B20463146FCF725FDE6
:10383000FDF7C5F8102409E0002C0ADB0A2200235A
:10384000FCF778FF039B30321A55641E50EA0102E0
:10385000F2D1641C039AC4F111031444119A012A91
:1038600003D0012208430DD10AE0084304D0002010
:103870004FF0110B119072E7A3EB0B056D1E0DE0DD
:103880005B4504DD4FF0000205F1010504E003DAB9
:103890004FF00002A5F10105002AECD00298119921
:1038A000C0E90231C0E9004579E70000000014409A
:1038B0000000F03F300000000000F0430000E03F57
:1038C0002DE9FF4F95B09B468946064600250FE23D
:1038D000252877D100242746F84A0121059400E0E5
:1038E000044316F8013F203B01FA03F01042F7D1E0
:1038F00030782A2811D06FF02F033078A0F13002F1
:10390000092A16D8059A44F0020402EB820203EB5E
:1039100042021044761C0590EFE759F8042B0592FB
:10392000002A03DA504244F40054059044F00204A3
:10393000761C30782E2816D116F8010F44F00404B6
:103940002A280DD06FF02F023078A0F13003092B18
:1039500009D807EB870302EB4303C718761CF3E78C
:1039600059F8047B761C30786C280FD006DC4C2884
:1039700017D068280DD06A2814D104E0742810D01C
:103980007A280FD10DE044F400140AE044F48014C6
:1039900001E044F440147278824202D104F58014AC
:1039A000761C761C307866280BD013DC582877D02C
:1039B00009DC002875D04528F6D04628F4D04728E1
:1039C0001AD19DE118E0632835D0642879D06528A4
:1039D00012D195E1702873D008DC6728F1D06928EE
:1039E0006FD06E280DD06F2806D1B5E073282CD08B
:1039F000752875D0782874D05A46179990476D1C51
:103A000075E1C4F30250022809D003280DD0D9F87B
:103A1000001004280DD00D6009F1040967E1D9F800
:103A20000010EA17C1E90052F6E7D9F800100D803E
:103A3000F2E70D70F0E719F8041B8DF80010002074
:103A40008DF80100EA46012003E059F804AB4FF07D
:103A5000FF3061074FF0000102D40DE008F10101D1
:103A60008846B9420FDA8045F8DB1AF808100029B9
:103A7000F4D108E008F1010188468142FADB1AF826
:103A800008100029F6D105985B46A0EB08072146EF
:103A90003846179A00F094FA284400EB080507E02E
:103AA0004DE029E10DE01AF8010B5A4617999047AD
:103AB000B8F10108F7D25B4621463846179A13E160
:103AC00042E00A220092C4F302524FF0000A022A96
:103AD00008D059F804CB032A4FEAEC710AD00DE064
:103AE00029E02AE009F1070121F00702F2E802C10A
:103AF000914609E00FFA8CFC4FEAEC71042A03D1DD
:103B00004FFA8CFC4FEAEC71002907DA0A460021D3
:103B1000DCF1000C61EB02012D2202E0220504D54C
:103B20002B228DF80420012203E0E20701D020229D
:103B3000F7E7904659E00A2102E010220DE010213B
:103B40004FF0000A00910BE010224FF0000A44F001
:103B500004040827009203E008224FF0000A0092B4
:103B6000C4F30252022A05D059F804CB0021032ADB
:103B700008D009E009F1070121F00702F2E802C1CB
:103B8000914605E01FFA8CFC042A01D10CF0FF0CD1
:103B90004FF00008220728D5702806D0009B83F03C
:103BA000100353EA0A0305D00EE040228DF80420EA
:103BB000012208E05CEA010206D030228DF80420E0
:103BC0008DF8050002229046009B83F0080353EA1B
:103BD0000A030AD15CEA010201D1620705D530224D
:103BE0008DF804204FF001087F1E582804D034A01F
:103BF00003900EA802900DE036A0F9E75346604608
:103C0000009AFCF797FD84460398825C0298401E58
:103C1000029002705CEA0100F0D1029806A9081A2D
:103C200000F1200A600702D524F4803400E0012767
:103C3000574502DDA7EB0A0000E0002000EB0A0177
:103C4000009005984144401A0590E00306D45B4675
:103C50002146179A059800F0B3F90544002706E0BD
:103C600001A85A46C05D179990476D1C7F1C4745B7
:103C7000F6DBE0030CD55B462146179A059800F069
:103C80009FF9054404E030205A46179990476D1C6F
:103C90000099481E00900029F5DC08E0029802997E
:103CA0005A460078491C0291179990476D1CBAF149
:103CB0000001AAF1010AF1DC65E100000928010018
:103CC0003031323334353637383961626364656692
:103CD0000000000030313233343536373839414254
:103CE000434445460000000000F058F90544761CA6
:103CF000307800287FF4ECAD19B02846BDE8F08F8D
:103D0000620700D4062709F1070222F0070CFCE83D
:103D10000223E14603F000485FEA080C02D00FF2EC
:103D2000702C0DE05FEA045C02D50FF2682C07E00E
:103D30005FEAC47C02D00FF2602C01E0AFF2700C9D
:103D40004FF0FF3823F00043CDF850C065280CD069
:103D500006DC452809D046281DD047283DD13DE046
:103D6000662818D067287ED138E00021112F01DBAA
:103D7000112000E0781CCDE9000106A90EA8FFF78C
:103D8000DDFCDDE90F010E9A03910021009207F19D
:103D9000010A04914DE04FF000400097CDE9011079
:103DA00006A90EA8FFF7CAFCDDE90F0203920E9BDD
:103DB00011990022DDF80CA00093049211B9791C2E
:103DC00000EB010AB7EB0A0004D4C0F1FF3007F1A1
:103DD000010A0490AAEB0700019044E0012F00DAE9
:103DE00001270021112F01DD112000E03846CDE927
:103DF000000106A90EA8FFF7A1FCDDE90F010E9A4C
:103E00000391002104910092BA4621070CD4039932
:103E1000514500DA8A46BAF1010F05DD009AAAF190
:103E20000101515C302908D0B84202DA10F1040FC8
:103E300006DA0121CDE9011015E0AAF10101E9E757
:103E4000002805DC049901440491AAEB000102E07A
:103E5000411C514500DD8A460499401A401C0190DE
:103E60004FF000400290200704D40198504501DB38
:103E7000CDF8048000208DF84F0002980DF14F0717
:103E8000B0F1004F25D02B200E9002984FF0020881
:103E900000280CDA404202902D200E9007E00A2103
:103EA0000298FCF731FC3031029007F8011DB8F19F
:103EB0000001A8F10108F2DC02980028EFD1791E78
:103EC0000E980870307800F0200040F0450007F8A8
:103ED000020D12A8C01B00F107081498007800B169
:103EE000012000EB0A01019801EBE07105984144C3
:103EF000401A401E0590E00306D45B462146179AFF
:103F0000059800F05DF805441498007818B15A46F9
:103F1000179990476D1CE00324D55B462146179AFC
:103F2000059800F04DF805441CE00498002807DBD4
:103F3000DDE90301884203DD0098405C179901E048
:103F4000179930205A469047049805F10105401C06
:103F500004900198401E019004D12E205A461799D2
:103F600090476D1CBAF10001AAF1010ADDDC05E001
:103F700017F8010B5A46179990476D1CB8F10001CC
:103F8000A8F10108F4DC5B462146179A0598ABE6D8
:103F90002D0000002B000000200000002DE9F04162
:103FA000044600251E461746880404D405E0394619
:103FB0002020B0476D1C641EF9D52846BDE8F0816D
:103FC0002DE9F041044600251E469046C80301D560
:103FD000302700E02027880404D505E04146384614
:103FE000B0476D1C641EF9D52846BDE8F0814A68CB
:103FF000002A06D00A68531C0B6010704868401EE7
:10400000486070470A68531C0B60107070470000CE
:1040100070B5044622E02568A08900F4807020B9BC
:10402000A06810B1A068FFF7F3FFA08900F48070CA
:1040300028B9206918B10B49206909688847A08907
:1040400000F4007028B9206A18B10649206A09688E
:10405000884720460349096888472C46002CDAD156
:1040600070BD0000640C002070B505460E46AC68BB
:1040700000E024682CB13146206A00F04FF8002897
:10408000F7D1204670BD000010B528200549096809
:10409000884704461CB128212046FCF784F82046B6
:1040A00010BD0000600C002010B50446002211462F
:1040B000204600F001F810BD2DE9F04780460D467E
:1040C00016460024FFF7E0FF07460020124908606B
:1040D0000FB9BDE8F087404601F0F3FB8146494641
:1040E000384600F05FFE044624B93846FFF790FFDB
:1040F0000020EEE766B1204601F0E3FB044620789D
:1041000030B13846FFF784FF034804600020E0E741
:1041100005B12C603846DCE75C0C002070B5044625
:104120000D462CB9AC4201D0012070BD0020FCE747
:104130000DB90120F9E705E0207808B90020F4E77F
:10414000641C6D1C2078FCF70FF806462878FCF7F5
:104150000BF88642F0D02078FCF706F8064628785F
:10416000FCF702F8301AE0E710B56FF00400FEF734
:10417000B7FF0A4800680A49B0FBF1F00949087026
:104180000846007800EB4001C1EBC0104FF6FF710C
:1041900001EAC0000449088010BD0000280000208A
:1041A00000127A003C0C00203E0C00200146114A0F
:1041B00012884A434FF0E0235A6100229A611A465E
:1041C000126942F001021A6100BF4FF0E02210694B
:1041D00000F001021AB100F48032002AF5D04FF04D
:1041E000E022126922F001024FF0E0231A6100225E
:1041F0009A6170473E0C00200146114A12784A43EA
:104200004FF0E0235A6100229A611A46126942F087
:1042100001021A6100BF4FF0E022106900F00102B4
:104220001AB100F48032002AF5D04FF0E022126972
:1042300022F001024FF0E0231A6100229A617047D8
:104240003C0C002010B5002821D0114B0022001F8B
:10425000196803E0814203D80A4649680029F9D168
:1042600052B11368841A9C4204D10068184410604B
:10427000104602E0506000E0186039B102680B1A85
:10428000934203D10B681A4402604968416010BD33
:10429000680C00200EB50024A146E1480068029099
:1042A0004FF4A060FEF7FCF8FFF75EFF4FF4E1303B
:1042B000FFF77CF84FF4E130FFF7D0F8FEF71CF978
:1042C000FCF74AFEFCF76CFDFCF7FEFD01F0B4FACA
:1042D000FCF7EAFF03E04FF4FA70FFF767FFFEF721
:1042E0001DFA0028F7D1012102A8FEF795FD142040
:1042F000CC4908701E20CC49087090E1CB49CC48CD
:10430000FCF77DFEB8B9CA480278CAA1CA48FFF7CF
:1043100047F9C6480278C9A1CA48FFF741F9022304
:10432000C54A00212020FEF783F90223C54A194619
:104330002020FEF77DF90020C3490880C34908808A
:10434000C3490880C349088034E0BF480188008819
:10435000401CBD4A1080C04830F81100BB49098894
:104360000844BA490880104601880088401C108023
:10437000B94830F81100B64909880844B4490880A2
:10438000104601880088401C1080B34830F81100A6
:10439000B04909880844AF49088010460188008860
:1043A000401C1080AC4830F81100AC490988084422
:1043B000AA490880A44800882828C6DBA3490988A0
:1043C0000A2291FBF2F1C1F58051642201FB02F057
:1043D000C11700EB1151C1F30731A14A11709C487C
:1043E00000880A2190FBF1FB5846FCF7CEF8824684
:1043F000FCF72AF907464FF066329A4BFBF7E4FFC9
:104400000546FCF765F998490860924800880A213A
:1044100090FBF1FB5846FCF7B8F88246FCF714F91C
:1044200007464FF066328F4BFBF7CEFF0546FCF791
:104430004FF98E490860894800880A2190FBF1F005
:10444000C0F5805A5046FCF7A9F807460022884B71
:10445000FCF72CF80546FCF7DEF886490880824810
:104460000068FCF7F1F80546834A844BFCF700F935
:104470001CD27D480068FCF7E7F80746804A814B6C
:10448000FCF714F80546FCF7C6F87F490880084693
:104490000088FCF794F807467C4A7D4BFBF794FFB5
:1044A0000546FCF7B8F87B4908701CE06E480068C8
:1044B000FCF7CAF80746704A704BFBF77FFF0546CA
:1044C000754A764BFBF7F2FF0022754BCDE90001F0
:1044D000FBF77AFF8246FCF79EF86E4908700846A3
:1044E00000780930087061480068FCF7ADF80546AF
:1044F000614A624BFCF7BCF81CD25C480068FCF7D0
:10450000A3F805465E4A5F4BFBF7D0FF0746FCF772
:1045100082F85D49088008460088FCF750F8054697
:104520005A4A5B4BFBF750FF0746FCF774F85D49AE
:1045300008701CE04D480068FCF786F805464E4AB6
:104540004E4BFBF73BFF0746534A544BFBF7AEFF7E
:1045500082460022524BFBF737FFCDE90001FCF702
:104560005AF85049087008460078093008703C48ED
:1045700002784DA13048FFF713F8464802784AA167
:104580003048FFF70DF84748027847A14848FFF741
:1045900007F83848028827A14648FFF701F80223A8
:1045A000254A04212020FEF743F80223254A06214C
:1045B0002020FEF73DF802233D4A06216020FEF749
:1045C00037F802233B4A04216A20FEF731F8002025
:1045D0001E4908801E4908801E4908801F4908801E
:1045E000601C84B2322C04DB0024FEF7A5FBFCF730
:1045F00025FE0020FCF730FE8146B9F1000F0ED0F9
:10460000094802782CA13048FEF77EFF0548027861
:104610002EA12D48FEF778FF4846FEF733FA6DE6E7
:1046200020590008010000200000002005000020A3
:10463000020000203A256400C40C00203A256425BD
:1046400025524800CE0C0020220000200600002049
:10465000080000200A000020740C00200C0000203C
:104660001400002066664A3F180000201C0000204D
:104670000080444024000020CDCCCCCCCCCCEC3FFE
:10468000FCA9F1D24D62503F0E000020FA7E6ABCB8
:104690007493883F160000209A9999999999B93F87
:1046A00000005940170000203A256425250000002D
:1046B000D80C0020E20C002074685F74656D203D0A
:1046C0002025640D0A0000000038014074685F7303
:1046D00069203D202564200D0A000000F0B50B3054
:1046E000154D20F007010024144A0FE003688B42A7
:1046F0000BD38B4205D95E1A43184768C3E900679C
:1047000000E04368136002C004E0021D1068002846
:10471000ECD12046002802D1286808B10020F0BD65
:10472000064A07481060074A121A22F00702C0E939
:10473000002401202860D7E76C0C0020680C0020C2
:10474000840D0020801100202DE9F04705460C461D
:1047500020785B2804D0264804600020BDE8F0875C
:104760000520E860601C01F0ACF8044620785D2864
:1047700001D1601CF2E7FFF787FC0646A860A86835
:1047800008B90020EAE7204601F09BF88046414640
:10479000304600F007FB074601F093F804460CB9D9
:1047A0000020DBE717E0FFF76FFC071E00D1D5E71D
:1047B00037607E603E46601C01F083F881464946C2
:1047C000304600F0EFFA804601F07BF804460CB961
:1047D0000020C3E700BF20782C28E4D020785D2893
:1047E00001D1601CBAE7024804600020B6E700006F
:1047F0005C0C0020014600220878302806DB08788F
:10480000392803DC08783038024415E0087841285C
:1048100006DB0878462803DC0878373802440BE0CA
:104820000878612806DB0878662803DC08785738A2
:10483000024401E0002070471201491C087830282A
:1048400006DB0878392803DC08783038024415E0A4
:104850000878412806DB0878462803DC08783738D2
:1048600002440BE00878612806DB0878662803DC40
:1048700008785738024401E00020DCE71201491CA7
:104880000878302806DB0878392803DC08783038C7
:10489000024415E00878412806DB0878462803DC46
:1048A0000878373802440BE00878612806DB08787E
:1048B000662803DC08785738024401E00020BAE794
:1048C0001201491C0878302806DB0878392803DCF7
:1048D00008783038024415E00878412806DB08786B
:1048E000462803DC0878373802440BE00878612852
:1048F00006DB0878662803DC08785738024401E0B4
:10490000002098E7104696E72DE9F04F8BB08346DC
:104910008A460020044605460026674F0021884647
:1049200089460990012008909AF800002D2802D1AC
:10493000624F0AF1010A9AF80000302801D10AF109
:10494000010A9AF80000312822DB9AF80000392881
:104950001EDC00BF1AF8011BA1F13000FBF71EFEA0
:104960000022574BCDE9060120462946FBF72CFDD6
:10497000CDE90401DDE90623FBF77FFC04460D4683
:104980009AF80000302803DB9AF800003928E1DDAE
:104990009AF800002E2830D19AF8010030282CDB3C
:1049A0009AF80100392828DC0AF1010A00BF1AF838
:1049B000011BA1F13000FBF7F1FD0022404BCDE9D6
:1049C000060120462946FBF7FFFCCDE90401DDE99D
:1049D0000623FBF752FC04460D460022364B4046A8
:1049E0004946FBF7EBFC804689469AF800003028E0
:1049F00003DB9AF800003928D9DD9AF80000652811
:104A000003D09AF80000452823D10AF1010A9AF848
:104A100000002B2802D10AF1010A08E09AF80000F0
:104A20002D2804D14FF0FF3008900AF1010A08E068
:104A30001AF8010B3038099901EB810100EB4100B4
:104A400009909AF80000302803DB9AF80000392812
:104A5000EEDDDDE9082101FB02F0FBF79FFD424698
:104A60004B46CDE90001FBF708FC02460B46CDE9B9
:104A700002010020124900F0F3F922462B46CDE94D
:104A8000060130463946FBF79FFCCDE90401DDE91C
:104A90000623FBF799FC04460D46CBE90645204664
:104AA0002946FBF799FDCBF814000320CBF80C0046
:104AB00050460BB0BDE8F08F0000F03F0000F0BFA3
:104AC000000024402DE9F04706460C4620787B285C
:104AD00004D0404804600020BDE8F0870620F06064
:104AE000601C00F0EEFE044620787D2801D1601C99
:104AF000F2E7FFF7C9FA0546B060B06808B90020D0
:104B0000EAE7204600F0DDFE80464146284600F0F8
:104B100063F8074600F0D5FE04460CB90020DBE739
:104B2000286928620020286120783A2803D0294883
:104B300004600020D0E7601C00F0C3FE80464146C0
:104B4000284600F02FF9074600F0BBFE04460CB9DA
:104B50000020C1E731E0FFF797FA071E00D1BBE75D
:104B60002F607D603D46601C00F0ABFE81464946EB
:104B7000284600F031F8804600F0A3FE04460CB948
:104B80000020A9E7286928620020286120783A28B7
:104B900003D01048046000209EE7601C00F091FEE6
:104BA00081464946284600F0FDF8804600F089FE1F
:104BB00004460CB900208FE700BF20782C28CAD00B
:104BC00020787D2801D1601C86E70248046000201F
:104BD00082E700005C0C00202DE9F05F83468846E8
:104BE00008F10104002798F80000222805D06A483F
:104BF000C0F800800020BDE8F09F04E014F8011B1D
:104C00005C2900D1641C2078222804D0207810B1BF
:104C1000781C071EF2D1781C6049096888478146D4
:104C2000B9F1000F01D10020E5E708F101044D467C
:104C30009EE020785C2804D014F8010B05F8010BE5
:104C400096E0641C2078722818D006DC622809D00F
:104C500066280BD06E287DD10CE0742812D0752800
:104C6000F9D113E0082005F8010B7FE00C2005F8CE
:104C7000010B7BE00A2005F8010B77E00D2005F819
:104C8000010B73E0092005F8010B6FE0601CFFF7D2
:104C9000B1FD0646241DB6F55C4F02D3B6F5604F54
:104CA00000D306B962E0B6F5584F1CD3B6F55C4F99
:104CB00019D260785C2802D1A078752800D055E020
:104CC000E01CFFF797FD8246A41DBAF55C4F02D3A6
:104CD000BAF5604F00D349E0C6F30901504661F3CD
:104CE0009F2000F580360427802E01D2012708E09E
:104CF000B6F5006F01D2022703E0B6F5803F00D27F
:104D000003273D44012F20D0022F15D0032F0AD0B6
:104D1000042F24D106F0BF0040F08001681E054634
:104D20000170B60900BF06F0BF0040F08001681EA8
:104D300005460170B60900BF06F0BF0040F08001D3
:104D4000681E05460170B60900BF1548C05D3043B6
:104D5000C1B200E006E0681E0546017000BF00BF5A
:104D60003D4403E0207805F8010B00BF00BF641C40
:104D70002078222803D0207800287FF45AAF002022
:104D800028702078222800D1641CCBF810900420D1
:104D9000CBF80C0020462EE75C0C0020600C0020B5
:104DA0002296000870B505460C460CB9002070BD6F
:104DB000042224A12046FBF744FA18B90220E86037
:104DC000201DF4E7052221A12046FBF73AFA18B985
:104DD0000020E860601DEAE704221EA12046FBF7E0
:104DE00030FA20B90120E8606861201DDFE72078F3
:104DF000222804D121462846FFF7EEFED7E7207887
:104E00002D2805D02078302807DB2078392804DCCD
:104E100021462846FFF778FDC9E720785B2804D1B2
:104E200021462846FFF790FCC1E720787B2804D173
:104E300021462846FFF746FEB9E7084804600020EF
:104E4000B5E700006E756C6C0000000066616C7365
:104E50006500000074727565000000005C0C0020A5
:104E60002DE9F04D1D460C4698B0174621F0004143
:104E700023F00043002814BF4FF0010C4FF0000C4A
:104E80000CEB440CFE4A0CEB02064FEA620C664542
:104E90002BD33E0018BF012606EB45061644F94AFF
:104EA000964222D3F84A53EA070C02D0944205D125
:104EB00048B918B000201146BDE8F08D002808BFA1
:104EC0004FF0000C01D04FF0010C0CEB440212F536
:104ED000001F0AD8002F14BF4FF0010C4FF0000C38
:104EE0000CEB450212F5001F07D918B03A462B46C5
:104EF0002146BDE8F04DFEF7F3BB0022DFF88CA39E
:104F0000002CB8BF534526DADFF884C36345A8BF39
:104F1000022220DADFF870C39C451CDCDFF874C382
:104F20000CEB235CBCF1140F08DDCCF1340627FA3E
:104F300006FC0CFA06F6BE420DD108E05FB9CCF1D2
:104F4000140623FA06FC0CFA06F69E4203D10CF076
:104F50000102C2F1020251EA000C19D1002D17DA48
:104F6000002C18BF022A01D0012A07D00220FEF728
:104F7000DFFB18B0BDE8F04DFEF7AABB0220FEF73C
:104F8000D7FBFEF7A5FB18B081F00041BDE8F08D1E
:104F9000B7F1000C6CD1534525D104F1804212F5D4
:104FA000801201BF00280020B74918B008BFBDE833
:104FB000F08DB548884207DC002DA1BF6046294628
:104FC00018B0BDE8F08D07E0281E05DA80F000413A
:104FD00018B06046BDE8F08DAF497944D1E90001D1
:104FE00018B0BDE8F08DDFF8A0C2634525D1002DD3
:104FF0001FDA19B1514512D1D8B909E0002840F0A3
:10500000EC82A24A214618B062F31E01BDE8F08D81
:105010000020214618B060F31E01BDE8F08D08DACB
:1050200018B02346BDE8F04D024600206146FBF76C
:105030003DBA18B02146BDE8F08D514518DAB5F1FA
:10504000804F0DD0A5F1005CBCF1FF5C10D1B4F134
:10505000000C0DDB18B06146BDE8F04D00F03ABC25
:10506000234618B00246BDE8F04D1946FBF7ACB92F
:10507000060024F0004C3BD1D9B1514533D1002C6E
:1050800006DD002DA1BF0020514618B0BDE8F08D0F
:10509000002C01DD002D1BDB002C13DA002D11DBB1
:1050A000012A4FF0000014BF78497C4918B0BDE8D0
:1050B000F08D022A18BF002C0AD0012A08D1002C3A
:1050C00006DA0AE0002CB8BF002D11DA012A04D05C
:1050D000002018B00146BDE8F08D18B000204FF058
:1050E0000041BDE8F08DA1F14050B0F17F601AD0D1
:1050F000012000EBE47050EA020421D0624C521E01
:105100004FF0000B104304BF4FF0000B644C654898
:1051100083427CDD644A654893421FDD884217DB89
:10512000002D25DB37E0002C00DA4AB1022A0CBF43
:1051300001204FF0FF3018B0BDE8F04DFBF72EBA5C
:105140000120FEF7F5FA18B0BDE8F04DFEF7CABA37
:105150004D4A8A4202DC002D0ADC1CE0814202DA60
:10516000002D18DA04E0484B994220DD002D12DDB5
:105170000220FEF7DDFAFEF7BBFA05460E460022D6
:10518000534658462146FBF71FF918B066F31E0137
:105190002846BDE8F08D0220FEF7CAFAFEF7B0FA05
:1051A0000A46214618B062F31E01BDE8F08D0022C8
:1051B00030466146FBF702F980460E466FF0010269
:1051C000FBF7E6FB4FF05532394BFBF7FAF8424656
:1051D0003346FBF7F9F80022364BFBF7F2F882462C
:1051E00042463346049110461946FBF7EDF8524605
:1051F000049BFBF7E9F88A4600904FF0C0422E4B23
:1052000040463146FBF7E0F82C4A2B4B00E027E004
:10521000CDE9060151460098FBF7D6F88246019188
:10522000274A284B40463146FBF7CEF85246019BB1
:10523000FBF7C4F882460B4602460591DDE90601FC
:10524000FBF71BF8DDE90623002688463046FBF70E
:10525000B5F85246059BFBF7B4F8024600F07EB95C
:105260000020B1F5801F07DA352230466146FBF792
:105270008FFB06466FF0340000EB215024E0000065
:10528000FFFF1F00FFFF0F000000F03F0000F07F56
:105290000000404301FCFFFFDA4600000000F0FF81
:1052A0000000F0BF0000E0410000F043FFFFEF3FCF
:1052B0005555D53F0000E03F4715F73FFE822B656F
:1052C00044DF5DF80BAE543EA0F2FF300190C1F315
:1052D000130040F07F6141F040510291FE49884245
:1052E000D8BF002004DDFD498142C8BF012001DD97
:1052F0000D9008E000200D900198401C019002984C
:10530000A0F5801002900299F54878440B910D9910
:1053100000EBC100D0E900230F9330460A920B99AD
:10532000FBF74CF8CDE90601DDE90A2130460F9B79
:10533000FAF7A3FF02460B460020EA49FBF7B6F84E
:10534000059102460B460090DDE90601FBF73CF8AB
:105350001490E5488A464FF00008784402990068A6
:1053600012904FF0005040EA61010D980F9B01EB45
:10537000804000F5002109910A9A1298FBF71EF867
:1053800032460B9BFBF71DF842465346FBF71CF8D1
:105390000646029140465146099B129AFBF714F8C3
:1053A000DDE90623FBF70DF83246029BFBF706F812
:1053B000059B009AFBF708F80091149A0490534655
:1053C00010461946FBF700F806460246C7480B464A
:1053D000029106217844FEF725F9CDE90510029BDC
:1053E000324610461946FAF7EFFFDDE90532FAF7C3
:1053F000EBFF05910646534640461946149AFAF7C4
:105400003CFF009B049AFAF7DFFF3246059BFAF750
:1054100034FFCDE905104246534610461946FAF7C7
:10542000D3FF0022B24B02910A90FAF726FFDDE982
:105430000532FAF722FF0E464246AD4B4046FAF7D8
:10544000BDFF029B0A9AFAF7B9FFDDE90532FAF7C8
:10545000B8FF424602910A90334610465146FAF789
:10546000B3FFCDE906015346149A02990A98FAF758
:10547000ABFF8A4602903346424600990498FAF7F9
:10548000A3FF5346029AFAF7F8FE82460B460246FD
:105490000591DDE90601FAF7F0FEDDE906230020BB
:1054A00088460646FAF78AFF5246059BFAF789FFB7
:1054B000824609914FF060428E4B30464146FAF7E2
:1054C00083FF049006918C4A8A4B50460999FAF75B
:1054D0007BFF82460291894A894B30464146FAF762
:1054E00073FF5246029BFAF7C8FE864B7B440D9A27
:1054F00003EBC203D3E90023FAF7BFFE0E90079136
:105500000198FBF74BF80591DDE9061382460E9AE8
:105510000498FAF7B2FE7C4A7A440D9B02EBC3036F
:10552000D3E9002300930292FAF7A7FE5246059BA7
:10553000FAF7A3FE0026884652463046059BFAF746
:105540003DFF009B029AFAF739FF069B049AFAF78F
:1055500035FF079B0E9AFAF734FF024600200B46F0
:10556000029038462946FAF72FFF824601912B46D2
:1055700038461946029AFAF721FF32464346FAF7AF
:1055800023FF5246019BFAF778FE07468A463246C9
:10559000434629460298FAF717FF05460E463A4653
:1055A0005346FAF76AFE594A8846914221DBA8EB36
:1055B000020353EA000210D12A463346FAF7FEFEF0
:1055C000CDE90401524A534B38465146FAF755FE8D
:1055D000DDE90423FBF764F821D20220FEF7A8F8E6
:1055E000FEF786F80A46214618B062F31E01BDE8B0
:1055F000F08D494B28F000429A4210D3474A08EBFD
:10560000020353EA00027FF4C6AD2A463346FAF796
:10561000D5FE3A465346FBF743F87FF6BCAD002271
:10562000019228F000403E493E4A01EB205182425F
:1056300023DA481C4FF4801121FA00F040443A4A22
:10564000C0F30A517A44394BA1F2FF31CB4020EA32
:105650000303C0F3130040F48010C1F11401C840EB
:1056600012680190B8F1000FBCBF4042019028467B
:105670003146FAF7A3FE05460E462A46334638461B
:105680005146FAF7FAFD4FF000084246284B4046D3
:105690000591FAF799FECDE90601264A264B4046C8
:1056A0000599FAF791FE009102902A46334640464A
:1056B0000599FAF783FE3A465346FAF782FE1F4AE7
:1056C0001F4BFAF781FE009B029AFAF7D6FD0746B8
:1056D000884602460B4635E08E9803007AB60B00EA
:1056E000224300000000F03F5A43000088420000BF
:1056F0000000084009C7EE3FFD033ADCF5015B14EA
:10570000E02F3EBE604100002441000000009040B8
:10571000FE822B654715973C00CC904000346F3FCC
:1057200001FCFFFF0000E03F70400000FFFF0F00A2
:10573000432EE63F396CA80C615C20BEEF39FAFEBF
:10574000422EE63FDDE90601FAF797FDDDE9062383
:1057500005460E46FAF732FE3A464346FAF731FE60
:105760000F462A463346009010461946FAF72CFE9B
:10577000824602462E4888460B4605217844FDF7AE
:1057800051FF52464346FAF71FFE2A463346FAF7C0
:1057900018FE80468A463B4628463146009AFAF76C
:1057A00013FE3B46009AFAF768FD0691009000222E
:1057B0004FF0804340465146FAF700FE0F460C90EA
:1057C0004246534628463146FAF7FEFD3B460C9AC0
:1057D000FAF76CFE069B009AFAF7F0FD2A4633466C
:1057E000FAF7ECFD0022134BFAF7EBFD05460198A2
:1057F0000E4601EB00510815002810DC2846314602
:10580000019AFBF7C5F8FDF7F5FE042808BFFDF780
:1058100077FF28463146019AFBF7BAF805460B4652
:1058200018B02A4658462146BDE8F04DFAF7CCBDDF
:10583000103F00000000F03F10B5FCF73BFE0222D5
:1058400000210846FCF7CAFE042200211020FCF7C4
:10585000C5FE272200214120FCF7C0FE03220221C1
:105860000020FCF7BBFE042202211020FCF7B6FE4C
:10587000052204210020FCF7B1FE0622042110209D
:10588000FCF7ACFE3E2204214A20FCF7A7FE3F2293
:1058900004215A20FCF7A2FE282206210020FCF752
:1058A0009DFE292206211020FCF798FE1E220621CB
:1058B0004020FCF793FE1F2206215020FCF78EFEAD
:1058C00010BD00E0401C20B1017811B10178202901
:1058D000F8DD70472DE9F04106460F46FBF7EDF87D
:1058E000041E0D4618BF0120284320F00040C0F1DF
:1058F0007F6000F1E040C00F0ED0301C18BF0120C7
:10590000384320F00040C0F17F6000F1E040C00F5C
:1059100004BF0120FDF70CFF20462946BDE8F081B9
:10592000489700080000000000000000002F000061
:1059300000000700070000147F147F1400242A7F52
:105940002A120062640813230036495522500000D1
:105950000503000000001C224100000041221C0041
:105960000014083E08140008083E0808000000A0C3
:1059700060000008080808080000606000000020BF
:1059800010080402003E5149453E0000427F40009D
:10599000004261514946002141454B310018141223
:1059A0007F10002745454539003C4A4949300001F0
:1059B0007109050300364949493600064949291E3F
:1059C00000003636000000005636000000081422A1
:1059D00041000014141414140000412214080002A1
:1059E0000151090600324959513E007C1211127CC6
:1059F000007F49494936003E41414122007F4141F3
:105A0000221C007F49494941007F09090901003EE4
:105A10004149497A007F0808087F0000417F410022
:105A2000002040413F01007F08142241007F404098
:105A30004040007F020C027F007F0408107F003E80
:105A40004141413E007F09090906003E4151215E66
:105A5000007F091929460046494949310001017F63
:105A60000101003F4040403F001F2040201F003FF9
:105A70004038403F006314081463000708700807AB
:105A800000615149454300007F41410000552A55BE
:105A90002A55000041417F00000402010204004039
:105AA000404040400000010204000020545454785B
:105AB000007F48444438003844444420003844447B
:105AC000487F00385454541800087E090102001819
:105AD000A4A4A47C007F080404780000447D400056
