:020000040800F2
:10000000C8130020050100080B3F0008C52F000899
:10001000093F0008F90A00082958000800000000FC
:10002000000000000000000000000000A5520008D1
:10003000A30C000800000000B9510008A7520008F6
:100040001F0100081F0100081F0100081F01000810
:100050001F0100081F0100081F0100081F01000800
:100060001F0100081F0100081F010008550C0008AF
:100070001F010008610C00081F0100086D0C00083A
:100080001F0100081F0100081F0100081F010008D0
:100090001F0100081F0100081F0100081F010008C0
:1000A0001F010008595300081F0100081F01000824
:1000B000655300081F0100081F0100081F01000808
:1000C0001F0100081F0100081F0100081F01000890
:1000D0001F0100080D580008195800081D58000895
:1000E0001F0100081F0100081F010008DFF810D0E1
:1000F00000F0A6FB004800472D620008AFF3008027
:10010000C81300200648804706480047FEE7FEE780
:10011000FEE7FEE7FEE7FEE7FEE7FEE7FEE7FEE7B7
:1001200011530008ED000008202A04DB203A21FAD0
:1001300002F00021704721FA02F3D040C2F1200200
:10014000914008431946704740EA01039B0703D0DA
:1001500009E008C9121F08C0042AFAD203E011F806
:10016000013B00F8013B521EF9D27047D2B201E0C8
:1001700000F8012B491EFBD270470022F6E710B5AC
:1001800013460A4604461946FFF7F0FF204610BD05
:10019000421E12F8013F002BFBD111F8013B02F87F
:1001A000013B002BF9D1704730B505462A460B4676
:1001B00012F8010B13F8014B08B1A042F8D01CB1A2
:1001C000002802D06D1CF1E7284630BDCAB2401E9F
:1001D00010F8011F8A4202D00029F9D1002070478F
:1001E000421C10F8011B0029FBD1801A704710B582
:1001F000044600E0401C0378002BFBD100E0401CCB
:10020000521E04D311F8013B0370002BF7D10021DB
:100210000170204610BD70B5064605F04DFB046820
:1002200005460A220021304600F066F92C6070BDB8
:100230002DE9FE4F81EA030404F0004421F000415F
:1002400000944FF0000B23F0004350EA01045ED00D
:1002500052EA03045BD0C3F30A54C1F30A552C4499
:10026000A4F2F3340194A0FB0254C1F3130141F44E
:100270008011C3F3130343F4801301FB024400FB1A
:10028000034E840A970A44EA815447EA8357A4FB41
:10029000076802958D0A05FB07854FEA932C04FB3E
:1002A0000C542705029D4FEA065847EA1637B5EB6E
:1002B00008056EEB070C870E920E47EA811742EA9B
:1002C0008312A7FB0201B6EB0B0164EB00042B0DBC
:1002D00043EA0C335E1844EB1C50DA465146E7FB08
:1002E0000201C5F313044FEA0B3343EA14534FEAF8
:1002F0000432019C43EA0603A4F10C040294009C1E
:10030000CDE900B400F076F903B0BDE8F08F00202D
:100310000146F9E72DE9F04D81EA030404F0004BB2
:1003200021F0004514464FF0000A23F0004150EA46
:10033000050220D054EA01021DD0C5F30A57024637
:10034000C5F31303C1F31300C1F30A5640F480153B
:1003500043F48013A7EB0608101BD64608F2FD38BD
:1003600073EB050002D308F1010801E092185B412C
:10037000B8F1000F03DA00200146BDE8F08D00203F
:100380004FF48011064684460EE0171B73EB0507F9
:1003900005D3121B63EB050306434CEA010C490825
:1003A0004FEA300092185B4150EA0107EDD152EA62
:1003B000030012D082EA040083EA0501084305D055
:1003C000101BAB4106D20122002306E000224FF0B1
:1003D000004302E06FF0010253101AEB06004CEBF1
:1003E000085110EB0A0041EB0B01BDE8F04D00F0A5
:1003F000F2B80EB540F2334102910021CDE900116F
:100400000A460B4600F0F6F803B000BD00F00042CB
:1004100030F000400AD0C10D01F56071C0F3160044
:1004200042EA0151C20840071143704700200146CB
:10043000704701F0004330B421F0004150EA01025E
:1004400006D00A0DA2F56072C1F31301002A02DC86
:1004500030BC00207047440F44EAC104C100E018DA
:1004600030BC00EBC25000F07FB830B50B460146FF
:1004700000202022012409E021FA02F59D4205D343
:1004800003FA02F5491B04FA02F52844151EA2F1ED
:100490000102F1DC30BD2DE9F05F054600209246F7
:1004A0009B4688460646814640241BE02846414636
:1004B00047462246FFF738FE53465A46C01A914136
:1004C00010D311461846224600F0CCF92D1A67EBDE
:1004D00001084F4622460120002100F0C3F917EB26
:1004E00000094E41201EA4F10104DFDC48463146DC
:1004F0002A464346BDE8F09F2DE9F04791460F4656
:1005000080460446002614F8015B2DB100F0CCF9BA
:100510000068405DC007F6D12B2D02D02D2D18D0DC
:10052000641E4A463946204600F0C2F927B13968B0
:10053000A14201D1C7F8008071054FF002040BD52C
:100540004042002803DD05F0B7F90460A007BDE8CC
:10055000F08746F48066E4E70028F8DA05F0ACF9A5
:1005600004606FF00040F2E70029A8BF7047401C0C
:10057000490008BF20F00100704710B4B0FA80FCB9
:1005800000FA0CF050EA010404BF10BC704749B1F6
:10059000CCF1200421FA04F411FA0CF118BF012166
:1005A00021430843A3EB0C01CB1D4FEA00614FEA46
:1005B000102042BF002010BC704700EBC350104415
:1005C0000029A4BF10BC7047401C490008BF20F0A0
:1005D000010010BC704710B5141E73F1000408DA56
:1005E000401C41F1000192185B411A4301D120F0F7
:1005F000010010BD2DE9F04D92469B4611B1B1FAB4
:1006000081F202E0B0FA80F22032904600F02AF93E
:1006100004460F4640EA0A0041EA0B0153465A4697
:10062000084313D0114653EA010019D0C8F1400223
:100630005046FFF779FD05460E465046594642465C
:1006400000F010F9084305D0012004E020463946A7
:10065000BDE8F08D0020054346EAE0762C433743A1
:100660000A986305E40AA0EB08000022FD0A44EAA8
:1006700047540A3002D500200146E9E70105101968
:100680006941DDE9084500196941BDE8F04DA2E77F
:100690002DE9FE4F804681EA0300C00F0C46009012
:1006A00021F0004123F00045B8EB0200A94105D23A
:1006B0004046214690461C460B46024623F0004029
:1006C000104347D0270DC7F30A00C3F30A51029025
:1006D000401A019040286BDAC3F3130040F4801BEA
:1006E0000098924620B10023D2EB030A63EB0B0B78
:1006F00001985946C0F14002504600F0B3F8064652
:100700000D4650465946019A00F0BBF810EB080020
:100710006141002487EA115284EAE7731A4340D00A
:10072000009A62B3019A012A4FEA075215DC001BB6
:1007300061EB02014FF0004202EA0752CDE90042AC
:10074000001C41F5801132462B46FFF753FF03B0E2
:10075000BDE8F08F40462146F9E7001B61EB02013E
:10076000001C41F5801300185B412018A2F500170A
:1007700047EB030140EAD570B6196D4111E06D08F1
:100780004FEA360645EAC0754FEA0752001B61EB97
:100790000201001C41F5801149084FEA30000019A0
:1007A000514132462B4603B0BDE8F04FFFF713BF6F
:1007B0000098012240000023D0EB020263EBE073BB
:1007C000009821464FEAE074B8EB000061EB0401A9
:1007D000E9E783F000435BE781F0004158E7C1F3AC
:1007E0000A52C1F3130140F2FF3341F480119A42DF
:1007F00002DA00200146704740F233439A42A2F2E7
:10080000334202DC5242FFF78FBC00F02BB80000ED
:1008100030B5041E71F1000404DB4FF00044404287
:1008200064EB0101141E73F1000405DB1C464FF05C
:100830000043524263EB0403994208BF904230BD2B
:10084000064C074D06E0E06840F0010394E807001D
:1008500098471034AC42F6D3FFF74CFC28A50008AB
:1008600048A50008202A04DB203A00FA02F1002003
:1008700070479140C2F1200320FA03F319439040DE
:100880007047202A06DBCB17203A41FA02F043EAF0
:10089000E07306E041FA02F3D040C2F12002914039
:1008A00008431946704700000048704724A5000817
:1008B0002DE9F05F82460078002715468B460AF145
:1008C0000104B946302801D09DB113E014F8010BA2
:1008D0000127782803D0582801D045B10AE00DB18E
:1008E000102D07D10027102514F8010B02E0082570
:1008F00000E00A250026B0460EE005FB080005FBD7
:1009000006F1012701EB10461FFA80F8B6F5803F8B
:1009100000D3B94614F8010B294600F018F8002856
:10092000EBDABBF1000F05D00FB1641E00E05446B6
:10093000CBF80040B9F1000F06D004F0BDFF022152
:100940000160C81EBDE8F09F48EA0640FAE73A2871
:1009500000D2303820F02002412A01D3A2F1370022
:10096000884201D34FF0FF30704770B58D1810F8F2
:10097000014B14F0030201D110F8012B231106D111
:1009800010F8013B03E010F8016B01F8016B521EF7
:10099000F9D1ABB110F8012B04F00C048A1A0C2C1D
:1009A00003D0A2EB84129B1C08E010F8014BA2EBD1
:1009B0000422F8E712F8014B01F8014B5B1EF9D550
:1009C000A942D4D3002070BD70B504460068816888
:1009D000C943C9071CD1816821F00101816000F081
:1009E00081FF05460FE000BF00F07CFF401B02289E
:1009F00009D9A06A40F01000A062E06A40F001004E
:100A0000E062012070BD20688068C043C007EBD061
:100A1000002070BD10B50146406A826A12F0500F86
:100A200005D0006A026BBDE8104008461047816A95
:100A300041F40071816201688968C1F3424107296C
:100A40000CD1017B51B9816A21F480718162816A84
:100A5000C90403D4816A41F00101816200F06EFB98
:100A600010BD10B5406A816A41F040018162C16ADF
:100A700041F00401C16200F063FB10BD10B5406A93
:100A800000F05DFB10BD0000F8B50026044600969E
:100A900000688168C943C90728D0816841F0010115
:100AA0008160134813490068B0FBF1F000E0401E7C
:100AB00000900028FBD100F015FF054611E000BFB3
:100AC00000F010FF401B02280BD9A06A40F0100074
:100AD000A062E06A40F00100E06284F82460012036
:100AE000F8BD20688068C043C007E9D10020F8BD88
:100AF0003800002040420F00FEE7000030B51648E5
:100B00000024016821F00F010160016841F0080133
:100B10000160124D04E0641CE4B2012005F02AFBE0
:100B2000D5F8000110B1642CF5D30DE0642C0BD284
:100B3000002404E0641CE4B2012005F01BFBD5F89E
:100B4000000118B1642C04D3012030BD642CF1D312
:100B5000FAE7002030BD0000000C01400080214277
:100B600030B50024104D04E0641CE4B2012005F00F
:100B700001FBD5F8000108B1642CF5D3002404E092
:100B8000641CE4B2012005F0F5FAD5F8000108B9BB
:100B9000642CF5D3282005F0EDFAD5F800010028E3
:100BA00000D0012030BD00000080214230B500207F
:100BB00004464006050EFFF7D3FF641C2843E4B249
:100BC000082CF6D330BD2DE9FC410D46064600F059
:100BD00023F8FFF793FF10B10120BDE8FC8100244A
:100BE0006F46FFF7E3FF3855641CE4B2052CF8D3D9
:100BF0009DF800109DF801009DF803300A189DF83B
:100C0000020003441A449DF804309A4201D129702D
:100C100030700020E1E700000C4810B5016821F0B9
:100C20000F010160016841F003010160084C0020E0
:100C3000C4F88001142004F5C07400F04BFD0120BD
:100C40002060BDE810401E2005F094BA000C014061
:100C500000802142014800F02DBC0000D00A002095
:100C6000014800F027BC0000040D0020014800F0FE
:100C700021BC0000C00C002030B590F84050012489
:100C8000AC40C56B6C60046863604368102B0368FC
:100C900003D099600068C26030BD9A600068C1608E
:100CA00030BD704710B580210348FFF766FA03494D
:100CB0000020088010BD0000480D00203C000020EE
:100CC00010B5044600F0AAF958B90AA10B48FFF77D
:100CD0006BFA30B13A21FFF779FA002800D0401CB6
:100CE00010BD052000F0F6FC2046641EA4B2E9D237
:100CF00010BD00004950442C00000000480D0020A9
:100D00000C4A10B51068C0F34010002810D00A49F2
:100D10000888802801D3002008800648001D036849
:100D2000064C08882354401C08806FF02000106097
:100D300010BD0000004400403C000020480D002091
:100D400070B55B48C16841F02001C160C16841F4E1
:100D50008071C160574C00222021204600F0BCFD6C
:100D6000FA2000F0B7FC01222021204600F0B4FD5B
:100D70004FF4FA75284600F0ADFCFFF793FF1023FF
:100D80004DA20121232003F057F90722032121203E
:100D900003F0E8F808220321312003F0E3F80922E8
:100DA0000321412003F0DEF80A220321512003F041
:100DB000D9F8434C002020602178062003F07CF90C
:100DC0002168491C21600A29F6DB3EA004F040FDA1
:100DD00002E0284600F07EFC3CA13DA000F0D6F8E1
:100DE0000028F6D10A2020602178062003F064F95B
:100DF0002068401C20601428F6DB37A004F028FD92
:100E000002E0284600F066FC30A136A000F0BEF8F3
:100E10000028F6D1142020602178062003F04CF938
:100E20002068401C20601E28F6DB32A004F010FD74
:100E300002E0284600F04EFC31A133A000F0A6F8F5
:100E40000028F6D13AA004F003FD02E0284600F0A5
:100E500041FC3BA13CA000F099F80028F6D11E20EF
:100E600020602178062003F027F92068401C2060CC
:100E70003328F6DB3FA004F0EBFC07220321182007
:100E800003F070F808220321282003F06BF80922F0
:100E90000321382003F066F80B220321482003F0D9
:100EA00061F8BDE870400C220321582003F05AB8C5
:100EB00000440040000C01404553503832363600A3
:100EC00002000020312E2041540D0A004F4B00003B
:100ED00041540D0A00000000322E2043574D4F446C
:100EE000450D0A0041542B43574D4F44453D310DAC
:100EF0000A000000332E2043574A41500D0A0000DB
:100F0000474F54204950000041542B43574A415009
:100F10003D226D655F636F6D7075746572222C2262
:100F200032393630343933343235220D0A0000007C
:100F3000342E2043495053544152540D0A000000AE
:100F4000434F4E4E4543540041542B434950535454
:100F50004152543D22544350222C223138332E32F8
:100F600033302E34302E3339222C363030320D0AC5
:100F700000000000352E20455350383236362049C7
:100F80006E6974204F4B0D0A0000000070B50E46CC
:100F90000546C824FFF724F982B229460B4804F01D
:100FA00045FC0EE000F03AF840B931460848FFF73A
:100FB000FBF818B1FFF776FE002070BD0A2000F0A4
:100FC00089FB641EE4B2EDD2012070BD00440040F4
:100FD000480D002030B589B00C460546FFF762FE8B
:100FE000224608A1684604F043FC0AA16846FFF7C0
:100FF000CDFF002804D122462946074804F016FCFC
:1010000009B030BD41542B43495053454E443D2512
:10101000640D0A003E0000000044004006480188BC
:1010200031B14288914205D10021018008467047C4
:10103000012070474180FBE73C0000207047000022
:10104000F8B50024009490F824202546012A12D0F7
:10105000012280F824204A681F23072A0DD206683F
:10106000776B521E02EB820293409F430B689340C2
:101070001F43776319E00220F8BD06680D2A0AD2E3
:10108000376BD21F02EB820293409F430B68934061
:101090001F43376309E0F76A0D3A02EB820293407F
:1010A0009F430B6893401F43F7620A680723066853
:1010B0000A2A0AD3F7680A3A02EB420293409F4396
:1010C0008B6893401F43F76008E0376902EB4202E8
:1010D00093409F438B6893401F4337610A68102AEF
:1010E00001D0112A20D1124B02689A4217D193687D
:1010F0001B0219D4936843F4000393600968102914
:1011000012D10C490C4A0968B1FBF2F101EB8101E3
:10111000490000E0491E00910029FBD104E0816AEA
:1011200041F020018162012480F824502046F8BD5E
:10113000002401403800002040420F0070477047F3
:10114000704700002DE9F0414FF0000704003D46D4
:101150007ED0A06A002628B9E66284F82460204682
:1011600000F07EF82046FFF72FFCA16AC90600D4E4
:1011700020B1A06A40F01000A06269E0A16A21F4E9
:10118000885141F00201A1626268E169237B0A4350
:1011900047EA43010A43A1684FF48077B94209D076
:1011A000012907D05FF0000194F814C0BCF1010FD1
:1011B00002D00AE03946F7E7F3B1A36A43F020030F
:1011C000A362E36A43F00103E3622368D3F804C037
:1011D0002CF4694C4CEA010CC3F804C021688B68FC
:1011E000DFF870C003EA0C0313438B60A168B942B7
:1011F0000BD0012909D00CE0DFF85CC0A3690CEB2F
:1012000043330B4343F40061DFE7218A0D05A5F565
:1012100080152168CB6A23F470032B43CB622168CD
:1012200089680E4B1940914208D1E662A16A21F00B
:10123000020141F00101A162BDE8F081A06A20F045
:10124000020040F01000A062E06A40F00100E0629D
:101250000120F1E7FDF7E1FF00E0FFFFFE0E1FFFB9
:1012600070B586B000250646009501950295039558
:101270000068214988423DD12049886940F40070C6
:101280008861886900F400700490886940F0040067
:101290008861886900F004000490886940F00800C3
:1012A00088618869032400F0080004903020CDE9AB
:1012B00000046946124800F01FFA0220CDE900043C
:1012C0006946104800F018FA104C0F48C4E90005B0
:1012D0008020C4E9025080002061800060612020ED
:1012E000C4E90605204600F08FF908B1FFF7A6FE15
:1012F0003462666206B070BD0024014000100240F6
:1013000000080140000C014008000240D00A002003
:101310002DE9F047894604463B4900683B4F0E1DC6
:101320009046884201D0B84207D1306810F4702F3F
:1013300003D001252846BDE8F08794F82400012851
:101340000CD0012084F824002046FFF79DFB050007
:101350004FF0000004D084F82400EBE70220EAE715
:10136000A16A40F60162914341F48071A162216853
:10137000B94218D1326812F4702F14D0A16A41F426
:101380008011A1623168490505D5A16A21F4005197
:1013900041F48051A162A16AC9040AD5E16A21F031
:1013A0000601E16206E0A26A22F48012A2624968A4
:1013B000E9E7E06284F82400216A15488862216A1E
:1013C0001448C862216A1448086321686FF002005B
:1013D00008602068816841F480718160216843461B
:1013E0004A464C31206A00F03DF920688168C1F31B
:1013F00042410729816803D041F48011816099E757
:1014000041F4A001FAE70000002401400028014057
:10141000150A00087D0A0008630A000810B590F854
:1014200021100024022903D00421816301243DE01E
:1014300001680A6822F00E020A6001680A6822F058
:1014400001020A601A4A0168914201D1012121E09A
:10145000174A1432914201D110211BE0144A28325C
:10146000914201D1891515E0114A3C32914201D1D6
:1014700089140FE00E4A5032914202D14FF480316C
:1014800008E00B4A6432914202D14FF4801101E02E
:101490004FF08071064A083A5160012180F821100E
:1014A000002180F82010416B01B18847204610BD13
:1014B000080002402DE9F05FC16B0C6801680B6801
:1014C000D0F840C0042202FA0CF2494DDFF824A102
:1014D000494E4A4FDFF828B1DFF828E122422CD0EC
:1014E0005A072AD50A68920603D40A6822F0040231
:1014F0000A600168A94201D1042219E0514501D1D5
:10150000402215E0B14202D14FF4806210E0B942AE
:1015100002D14FF480420BE0594502D14FF48022B2
:1015200006E0714502D14FF4800201E04FF0806285
:101530002F4908394A60C16A3BE04FF0020808FAB7
:101540000CF818EA040F4FF000094FF0010235D0F3
:101550005FEA837832D50B689B0605D40B6823F0CD
:101560000A030B6080F821200168A94201D1022200
:1015700019E0514501D1202215E0B14202D14FF4CA
:10158000007210E0B94202D14FF400520BE059450D
:1015900002D14FF4003206E0714502D14FF400123F
:1015A00001E04FF00072124908394A6080F820903B
:1015B000816A00291AD0BDE8F05F0847082505FABE
:1015C0000CF5254212D01B0710D50B6823F00E0333
:1015D0000B6090F84010C36B02FA01F1596082630E
:1015E00080F8212080F82090016BE2E7BDE8F09FB1
:1015F000080002401C00024030000240440002404B
:10160000580002406C00024030B528B308C81349A6
:1016100014221944B1FBF2F18900C16310498163BE
:10162000022141771A6843F6F0718A43D0E9001429
:101630002143D0E902452C432143046921434469F5
:101640002143846921431143196000214163012230
:1016500042770177084630BD012030BDF8FFFDBF5D
:101660000000024070B5044690F8200000250128D3
:101670000CD0012084F8200094F821600020012E75
:1016800006D084F820000225284670BD022070BDD7
:10169000022684F82160A0632068066826F001060F
:1016A00006602046FFF7E8FAE06A00282068016833
:1016B00002D041F00E0106E021F004010160206833
:1016C000016841F00A0101602068016841F00101F0
:1016D0000160D9E770B5044600F004F90546601CC6
:1016E00002D004480078044400F0FCF8401BA042FB
:1016F000FAD370BD2C0000202DE9F84FDFF8B89127
:10170000002409F1040A0AF1040B23460F270BF108
:10171000040EC9E00125A5402A40AA427DD1674EAA
:10172000D1F804C0ACEB0608B44532D014DCBCF1EF
:10173000030F3AD009DCBCF1000F2AD0BCF1010F35
:101740001CD0BCF1020F31D11DE0BCF1110F17D03C
:10175000BCF1120F2AD119E0B8F5881F19D006DCA8
:10176000B8F5803F15D0B8F5801F1FD111E0B8F54E
:10177000001F0ED0B8F5041F18D10AE0CB6815E0A1
:10178000CB681B1D12E0CB6808330FE0CB680C332D
:101790000CE08B682BB1012B4FF0080303D045619F
:1017A00004E0042302E0056100E00023FF2A01D8E1
:1017B000064601E000F104064FEA840501D9A5F1CF
:1017C0002005D6F8008007FA05FC28EA0C0803FA81
:1017D00005F548EA0508C6F800804D68ED0062D5B9
:1017E000374DAE6946F00106AE61AD6924F00306DF
:1017F00005F001050095334D06EB050CDCF80850AB
:10180000A607360F07FA06F825EA0805DFF8B880BC
:10181000404503D14FF0000817E044E0DFF8AC800A
:10182000404502D14FF001080FE0DFF8A4804045A9
:1018300002D14FF0020808E0DFF89880404502D15D
:101840004FF0030801E04FF0040808FA06F848EAF0
:101850000508CCF808804D68D9F80060ED034D46C6
:1018600001D5164300E096432E604D68DAF800601B
:10187000AD03554601D5164300E096432E604D68F2
:10188000DBF80060ED025D4601D5164300E09643AB
:101890002E604D68DEF80060AD02754601D5164336
:1018A00000E096432E60641C0D682A46E5407FF4F4
:1018B00031AFBDE8F88F00000004014000001110B6
:1018C000001002400000014000080140000C0140EF
:1018D00000100140001401400AB101617047090481
:1018E000FBE7000001488068704700002C000020E2
:1018F00070B5040025D094F83D00002520B984F887
:101900003C50204600F050F9242084F83D00206827
:10191000016821F0010101602068016841F4004183
:1019200001602068016821F40041016000F016FBAD
:101930004D4A6168914201D84C4900E04C498842C7
:1019400001D2012070BD4B492368B0FBF1F15E6804
:1019500026F03F060E435E606368934206D94FF45B
:10196000967359434FF47A73B1FBF3F12368491C22
:101970001E6A26F03F06314319626168914210D811
:101980004900401EB0FBF1F2521CC2F30B02042AC4
:1019900001D2042022E0B0FBF1F0401CC0F30B00A8
:1019A0001CE0A268F2B301EBC10303EB0116431E76
:1019B000B3FBF6F35B1C43F480431B0549D092B3A1
:1019C00001EBC10202EB0111401EB0FBF1F0401C23
:1019D000C0F30B0040F4804040F400402168CA6925
:1019E0004CF6FF739A431043C861D4E907100143D2
:1019F0002068026822F0C00211430160D4E90301AB
:101A000001432068826848F2FF339A4311438160A2
:101A1000D4E9050108432168CA6822F0FF02104397
:101A2000C86001E00EE016E02068016841F00101A5
:101A300001602564202084F83D00256384F83E5031
:101A4000002070BD01EB4106431EB3FBF6F35B1CA7
:101A5000B3E70120C2E701EB4101401EB0FBF1F00A
:101A6000401CC0F30B00B7E7A086010080841E0075
:101A700000093D0040420F002DE9FF4F83B09A4618
:101A8000DDE9119793460446DDF84080FFF72AFF11
:101A9000054694F83D0020287FD1192301224049B2
:101AA0002046009501F020FB002876D194F83C00F8
:101AB000012872D0012084F83C0020680168C90721
:101AC00003D1016841F0010101602068016821F43F
:101AD00000610160212084F83D00402084F83E0030
:101AE00000262664C4F82480A4F82A90608D2085FE
:101AF0002C48E062CDE9007553465A4620460499C9
:101B000001F078FA70B930E02A463946204601F0F3
:101B10006AFB58B1206C042804D12068016841F4A4
:101B200000710160012007B0BDE8F08F606A216894
:101B300000780861606A401C6062218D491E89B28C
:101B40002185628D521E628522685369DB435B07E3
:101B50000BD469B100781061606A401C6062208D0E
:101B6000401E2085608D401E6085208D0028CBD1D1
:101B70002A463946204601F091FA0028CAD154F885
:101B80003D0B016841F400710160202004F81E093A
:101B9000E67766770020C6E7FFE70220C3E700008C
:101BA000020010000000FFFF10B586B00021009178
:101BB00001910291039100680F4988421AD10F4C9C
:101BC000A06940F00800A061A069694600F0080023
:101BD0000490C02000901220019003200390084838
:101BE000FFF78AFDE06940F40010E061E06900F46D
:101BF0000010049006B010BD0054004000100240D8
:101C0000000C0140024881680278114481607047ED
:101C10002C000020074810B5016841F01001016058
:101C2000032000F075F8002000F006F800F024F81A
:101C3000002010BD0020024070B50D4D04464FF449
:101C40007A712878B1FBF0F00A490968B1FBF0F02D
:101C500000F076FB48B9102C07D200222146501E16
:101C600000F036F800206C6070BD012070BD0000EF
:101C70002C000020380000200C4808B5816941F094
:101C800001018161816901F001010091C16941F0A7
:101C90008051C161C06900F08050009004484168E3
:101CA00021F0E06141F00071416008BD0010024088
:101CB00000000140002809DB00F01F0201219140D3
:101CC0004009800000F1E020C0F8001170470000DA
:101CD000F0B40E4B1B680C46C3F30223C3F1070597
:101CE000042D00D90425191D072901D2002300E085
:101CF000DB1E012606FA05F1491E214099409E404F
:101D0000761E16403143F0BC03F0C6BD0CED00E07A
:101D1000064900F0070208684FF6FF03184040EA42
:101D20000220034A10430860704700000CED00E0F9
:101D30000000FA052DE9F84305460078354CC00748
:101D400054D0E0690026C00008D4E06940F080501B
:101D5000E061E069012600F0805000902E480168A3
:101D6000C90512D40168804641F480710160FFF713
:101D7000B9FD074605E000BFFFF7B4FDC01B6428AE
:101D800023D8D8F80000C005F6D5206A10F44070BA
:101D900021D0A98801F4407181421CD0206A1F49DA
:101DA000012220F440700A6000220A602062C0070D
:101DB00011D0FFF797FD074641F2883808E000BFD1
:101DC000FFF790FDC11B414502D90320BDE8F88310
:101DD000206A8007F4D5206A696820F440700843BF
:101DE00020621EB1E06920F08050E0612878800711
:101DF00005D56068A96820F44040084360602878F1
:101E0000C00605D56068E96820F48000084360607A
:101E10000020DBE700100240007000404004424216
:101E2000704700002DE9F0470F46050061D0434E92
:101E3000306800F00700B84209D2306820F007008F
:101E400038433060306800F00700B84251D128684C
:101E50003B4C810712D5400703D5606840F4E06031
:101E600060602878000703D5606840F460506060C7
:101E70006068A96820F0F000084360602878C00717
:101E800028D06868012810D02168022810D089075E
:101E900000292EDA616821F0030101436160FFF738
:101EA00021FD804641F288390DE021688903EFE782
:101EB0008901EDE7FFF716FDA0EB0801494502D9BE
:101EC0000320BDE8F0876068696800F00C00B0EBA3
:101ED000810FEFD1306800F00700B8420BD93068AD
:101EE00020F0070038433060306800F00700B84247
:101EF00001D00120E5E72878400705D56068E9684A
:101F000020F4E060084360602878000706D5606828
:101F1000296920F4605040EAC100606000F03EF89A
:101F20006168084AC1F30311515CC8400649086062
:101F300006480068FFF780FE0020C2E7002002404C
:101F4000001002406A6500083800002030000020C0
:101F500001490120C8647047000042420448054915
:101F600000684968044AC1F30221515CC8407047C7
:101F700038000020001002407A6500080448054936
:101F800000684968044AC1F3C221515CC8407047E7
:101F900038000020001002407A65000812A185B0C8
:101FA0000FC98DE80F0014A0144A0068049051680E
:101FB000134801F00C03042B10D0082B0ED1C1F3F1
:101FC0008343C9031DF803000AD5516804AAC1F36D
:101FD0004041515C0A4A5043B0FBF1F005B07047F4
:101FE00008494843FAE70000020304050607080908
:101FF0000A0B0C0D0E0F1010010200000010024021
:1020000000127A0000093D0010B5044CA0680006DB
:1020100003D5FFF705FF8020A07210BD001002401D
:102020002DE9F84F040070D02078C04DC00749D08A
:102030006868C0F38100012807D06868C0F3810098
:10204000022809D16868C00306D52868800339D5FD
:1020500060680028E7D035E06068B0F5803F0BD0BD
:1020600010B1B0F5A02F11D0286820F4803028607E
:10207000286820F4802002E0286840F4803028603E
:10208000606890B1FFF72EFC06460AE0286840F42D
:1020900080202860F0E700BFFFF724FC801B642845
:1020A00073D828688003F7D50CE0FFF71BFC0646C1
:1020B00005E000BFFFF716FC801B6428F0D82868F5
:1020C0008003F7D420789A4E80074FF001094FF033
:1020D000000839D5686810F00C0F07D06868C0F3A5
:1020E0008100022809D16868C00306D428688007E7
:1020F00014D52069012808D110E02069B0B1C6F8D4
:102100000090FFF7EFFB074605E00AE1FFF7EAFB67
:10211000C01B0228C4D828688007F7D528686169E1
:1021200020F0F80040EAC10028600DE0C6F8008009
:10213000FFF7D8FB074604E0FFF7D4FBC01B0228DB
:1021400023D828688007F7D4207800072CD5794851
:10215000A169D9B1C0F80090FFF7C4FB074604E0BD
:10216000FFF7C0FBC01B02280FD8686A8007F7D5AD
:1021700071484FF4FA510068B0FBF1F0009000BFD5
:102180000098411E0091FAD20EE080E0C0F8008075
:10219000FFF7A8FB074604E0FFF7A4FBC01B0228DB
:1021A00075D8686A8007F7D42078400760D5E86959
:1021B0000027C00008D4E86940F08050E861E86971
:1021C000012700F0805000905C480168C90513D4D5
:1021D0000168834641F480710160FFF783FB82460A
:1021E00006E000BFFFF77EFBA0EB0A0064284ED894
:1021F000DBF80000C005F5D5E06801280AD008B179
:10220000052813D0286A20F001002862286A20F0EF
:10221000040002E0286A40F001002862E06841F210
:10222000883B98B1FFF75EFB82460BE0286A40F0DE
:1022300004002862EEE700BFFFF754FBA0EB0A01A1
:1022400059455AD8286A8007F6D50CE0FFF74AFBB3
:10225000824605E0FFF746FBA0EB0A0159454CD842
:10226000286A8007F6D41FB1E86920F08050E86141
:10227000E06988B36968C1F38101022944D002286A
:10228000C6F8608004D0FFF72DFB044638E034E048
:10229000FFF728FB074604E0FFF724FBC01B0228DA
:1022A0002BD828688001F7D4206AB0F5803F05D18B
:1022B0006868A16820F4003008436860D4E9080128
:1022C0000843696821F4741108436860C6F8609097
:1022D000FFF708FB044606E025E000BFFFF702FB1E
:1022E000001B022809D828688001F7D51BE000BF31
:1022F000FFF7F8FA001B022802D90320BDE8F88F87
:1023000028688001F4D40EE00128F7D06868226ABA
:1023100000F48031914204D1616A00F47010884267
:1023200001D00120EAE70020E8E7000000100240A9
:102330000000424280044242380000200070004009
:1023400010B5401EB0F1807F01D3012010BD4FF0C9
:10235000E02460610F21601703F09EFA0020A06165
:1023600007202061002010BD7047704770B590F8BD
:102370003C20012A26D0012480F83C40022280F82B
:102380003D2003685A689D6822F070060A6832434F
:102390005A600D4B02689A4208D0B2F1804F05D0C6
:1023A0000A4B9A4202D00A4B9A4204D1496825F05E
:1023B00080031943916080F83D40002180F83C1073
:1023C000084670BD022070BD002C01400004004092
:1023D0000008004010B5040003D094F83D0010B18F
:1023E00007E0012010BD002084F83C00204600F0EA
:1023F0001FF8022084F83D00211D206802F0B8FF7C
:10240000012084F8460084F83E0084F83F0084F8F8
:10241000400084F8410084F8420084F8430084F8C6
:10242000440084F8450084F83D00002010BD000001
:1024300008B500680B49884212D10B48816941F404
:10244000006181618069002200F400600090114603
:102450001920FFF73DFCBDE808401920FFF72ABC12
:1024600008BD0000002C01400010024070B5044679
:1024700090F83C00012817D0012584F83C50022038
:1024800084F83D002068826822F0770222F47F42BF
:1024900082600868502830D00DDC20284DD005DC43
:1024A00098B310283BD148E0022070BD302844D0BA
:1024B000402834D139E0602828D0702806D0B0F503
:1024C000805F2CD0B0F5005F29D10AE0CB68D1E95C
:1024D0000121206802F08FFF2068816841F07701B8
:1024E00009E0CB68D1E90121206802F084FF20686F
:1024F000816841F48041816011E0CA6849682068C0
:1025000003F02EF85021206807E016E0CA684968F9
:10251000206803F063F86021206802F076FF84F8F9
:102520003D50002084F83C0070BDCA6849682068AE
:1025300003F016F840212068EFE7226801461046B4
:10254000EBE700F0F5BC2DE9F041054690F83C00C2
:102550000C46012836D0012085F83C008AB3042AB5
:1025600042D02868082A51D0D4E90023E168066ADD
:1025700026F480560662C669076A26F4407646EA63
:1025800003234FF6FF7606EA013123F47043194323
:102590004FF4005627F4005306EA02321A43C16191
:1025A00002622868C16921F44061C1612868C1697B
:1025B000A26841EA0221C161002085F83C00BDE823
:1025C000F08101E00220FAE7D4E90012E36828680C
:1025D00002F0D8FF2868816921F00C018161286828
:1025E0008169A26811430FE0D4E90012E36828680A
:1025F00003F006F82868816921F440618161286848
:102600008169A26841EA02218161D5E7D4E9002706
:10261000267B016A21F480710162C169036A21F09D
:102620000301394321F0F00731074FF4007647EA00
:10263000116123F4007306EA02221A43C1610262A7
:102640002868C16921F00C01C1612868C169A268CC
:102650001143B0E710B5040003D094F83D0010B169
:1026600007E0012010BD002084F83C00204600F067
:102670001FF8022084F83D00211D206802F078FE3A
:10268000012084F8460084F83E0084F83F0084F876
:10269000400084F8410084F8420084F8430084F844
:1026A000440084F8450084F83D00002010BD00007F
:1026B00000B585B00021009101910291039100685D
:1026C000B0F1804F1ED11048C16941F00101C161D4
:1026D000C16901F001010491816941F00401816146
:1026E0008069694600F004000490022000900748C9
:1026F000FFF702F8002211461C20FFF7E9FA1C2020
:10270000FFF7D8FA05B000BD0010024000080140F4
:1027100010B5044651B104290DD0082910D094F801
:10272000410094F84520012811D10EE094F83E00B4
:1027300094F84220F7E794F83F0094F84320F2E73A
:1027400094F8400094F84420EDE7012A01D00120DC
:1027500010BD022051B1042911D0082918D084F8E5
:10276000410084F845000C291BD136E084F83E0076
:1027700084F842002068C26842F0020210E084F847
:102780003F0084F843002068C26842F0040207E07A
:1027900084F8400084F844002068C26842F00802CF
:1027A000C2600122206802F019FE0E4920688842AA
:1027B00008D0B0F1804F05D00B49884202D00B49B8
:1027C000884204D1816801F00701062903D001681D
:1027D00041F001010160002010BD2068C26842F094
:1027E0001002DDE7002C014000040040000800401A
:1027F00030B5044600680D0006D0042D08D0082D21
:1028000028D00C2D08D129E0C16821F0020102E096
:10281000C16821F00401C16000222946206802F04D
:10282000DDFD2068016A41F21112114207D1016AEF
:102830009210114203D1016821F0010101600120D1
:1028400085B1042D11D0082D12D004F8410F20714C
:10285000002030BDC16821F00801DCE7C16821F02B
:102860001001D8E704F83E0FF1E704F83F0FEEE758
:1028700004F8400FEBE770B50446006801694FF0BB
:102880000005C943890715D4C168C943890711D414
:10289000E91E0161012020772068806980072046B9
:1028A00002D0FFF74EFE04E000F0BEF8204600F034
:1028B00061F9257720680169C943490717D4C168C0
:1028C000C943490713D46FF0040101610220207746
:1028D0002068806910F4407F204602D0FFF731FE67
:1028E00004E000F0A1F8204600F044F925772068C4
:1028F0000169C943090716D4C168C943090712D43D
:102900006FF008010161042020772068C06980070A
:10291000204602D0FFF715FE04E000F085F82046BF
:1029200000F028F9257720680169C943C90617D442
:10293000C168C943C90613D46FF0100101610820B2
:1029400020772068C06910F4407F204602D0FFF74E
:10295000F8FD04E000F068F8204600F00BF9257758
:1029600020680169C943C90708D1C168C943C907BB
:1029700004D1891E0161204600F0FDF8206801693C
:10298000C943090609D4C168C943090605D46FF0D3
:10299000800101612046FFF7E7FC20680169C94317
:1029A000490609D4C168C943490605D46FF04001FE
:1029B0000161204600F0E0F820680169C9438906FA
:1029C0000BD4C168C943890607D46FF020010161A7
:1029D0002046BDE87040FFF7C8BC70BD00B585B0AB
:1029E0000021009101910291039100680B498842F6
:1029F00012D10B48816941F0080181618069694603
:102A000000F0080004904FF4407000900220019004
:102A100003900448FEF770FE05B000BD00080040BA
:102A200000100240000C0140704770B5044690F859
:102A30003C000D4601280AD0012084F83C0042B138
:102A4000042A18D0082A2AD00C2A4DD139E00220B5
:102A500070BD206802F0E2FC2068816941F0080145
:102A600081612068816921F00401816120688169A8
:102A70002A69114311E0206802F0F8FC206881699E
:102A800041F4006181612068816921F48061816184
:102A9000206881692A6941EA0221816124E0206875
:102AA00002F010FD2068C16941F00801C161206891
:102AB000C16921F00401C1612068C1692A6911431B
:102AC00011E0206802F02AFD2068C16941F400612C
:102AD000C1612068C16921F48061C1612068C16958
:102AE0002A6941EA0221C161002084F83C0070BDDE
:102AF00010B5040003D094F83D0010B107E00120A8
:102B000010BD002084F83C00204600F01FF8022091
:102B100084F83D00211D206802F02AFC012084F881
:102B2000460084F83E0084F83F0084F8400084F8B2
:102B3000410084F8420084F8430084F8440084F89B
:102B4000450084F83D00002010BD000008B5006875
:102B50000649884208D10648C16941F00401C161B3
:102B6000C06900F00400009008BD000000080040AB
:102B700000100240704770477047704770B5026898
:102B800004461068D168536910F00F0F52D003F05B
:102B9000010501F490762E435FD0C20705D0CA0527
:102BA00003D5E26B42F00102E263420705D5DA0782
:102BB00003D0E26B42F00202E263820705D5DA0736
:102BC00003D0E26B42F00402E263020707D501F092
:102BD00020022A4303D0E26B42F00802E263E26B78
:102BE000002A33D0800604D5880602D5204602F09C
:102BF00038FD20684069E16BC0F38010090700D4FC
:102C000028B3204602F01FFD2068416949061AD505
:102C1000416921F040014161606BA0B12D494163E0
:102C2000606BFEF7FBFB002810D0606B416BBDE8CA
:102C300070400847830610D58B060ED52046BDE8A8
:102C4000704002F00EBD2046FFF797FF70BD204692
:102C5000FFF793FF0020E06370BD03062BD50B0642
:102C600029D594F839002128F6D1A068B0F5805F05
:102C700001D12069B0B1206A411C2162216800782D
:102C80004860E08C401E0004000CE084E4D1206821
:102C9000C16821F08001C1602068C16841F0400135
:102CA000C16070BD206A0088C0F308005060206ACF
:102CB000801C2062E5E74006F3D54806F1D5D168CF
:102CC000204621F04001D160202184F8391000F025
:102CD0002EF970BD3756000870B5040004D094F882
:102CE0003900002510B106E0012070BD84F838508D
:102CF000204600F023F8242084F839002068C168B9
:102D000021F40051C160204602F0F2FC2068016904
:102D100021F4904101612068416921F02A0141615B
:102D20002068C16841F40051C160E563202084F847
:102D3000390084F83A00002070BD00002DE9F04110
:102D400086B000240094019402940394064603681C
:102D50004348DFF808C10221032205158027634597
:102D600039D1836943F480438361836903F48043E9
:102D70000493836943F0040383618069DFF8E4808E
:102D800000F0040004900802CDE9000103926946B6
:102D90004046FEF7B1FCCDE9005469464046029436
:102DA000FEF7AAFC314D3048C5E90004C5E90247E9
:102DB0002C616C61AC612846EC61FEF725FC08B122
:102DC000FEF73CF975630022032125206E62FEF7B1
:102DD0007FFF25203DE0DFF898C063453BD1C36904
:102DE00043F48023C361C36903F48023049383699C
:102DF00043F0080383618069CDE9005100F00800C9
:102E0000CDE903201B4D69462846FEF775FCE81402
:102E1000CDE90004694628460294FEF76DFC134D87
:102E2000114844352838C5E90004C5E902472C613A
:102E30006C61AC612846EC61FEF7E6FB08B1FEF779
:102E4000FDF875630022032127206E62FEF740FF24
:102E50002720FEF72FFF06B0BDE8F08100380140C3
:102E6000001002400008014058000240C00C002041
:102E700000480040000C0140704700002DE9F84375
:102E8000044690F839001F4616460D4620284CD1BE
:102E9000C5B1BEB194F83800012846D0012084F8AD
:102EA00038004FF00008C4F83C80212084F8390035
:102EB000FEF718FDA6848146E684A068B0F5805F21
:102EC00003D004E00120BDE8F883206928B12E4634
:102ED0005FF0000584F838800EE00026FAE78021D4
:102EE000204602F061FCA0B9AEB116F8010B2168D2
:102EF0004860E08C401EE084E08C4B464FF00002BE
:102F000000970028EBD14FF04001204602F04CFC26
:102F100030B10320D7E735F8020BC0F30800E6E72D
:102F2000202084F839000020CDE70220CBE770474D
:102F300070B5214C0546207870B9012020701F48DB
:102F400001680A6A22F0A0020A620068016A01624E
:102F500004211A48FFF7DCFB17482178001D0329DC
:102F600006D181880288891A154A118000212170B2
:102F70002968B1F1804F1ED12A7F022A1BD1227805
:102F8000012A0BD0022A16D1896B416003202070E0
:102F90002846BDE870400421FFF72ABC8A6B026016
:102FA000086A20F0A00008622868016A41F0200148
:102FB00001620220207070BD40000020B00B002094
:102FC00006000020FEE701684A69D24352050FD48B
:102FD0006FF480624A61002140F8301F2022427362
:102FE0008173026942F0040202610173012070479B
:102FF000002070472DE9F843044600680D46DDE9DE
:10300000089701689846164641F4807101604B4666
:1030100000224FF001112046009700F065F848B1FA
:1030200020680068C00502D54FF4007020640320BA
:10303000BDE8F883216805F0FE0008613B464A467A
:103040001549204600F084F888B9206841698069F4
:1030500000903A464946204600F0C5F848B1206C39
:10306000042804D12068016841F400710160012046
:10307000DEE7F5B2B8F1010F09D02168300A086126
:103080003A464946204600F0AEF80028E7D12068CD
:1030900005610020CCE700000200010070B5164673
:1030A0000D4604460DE02046FFF78DFF08B10120D4
:1030B00070BD681C05D0FEF715FC801BA84207D820
:1030C00035B120684069C0434007ECD4002070BD92
:1030D000002044F8300F20216173A073216941F072
:1030E000200121612073E2E72DE9F0471E4690465A
:1030F0000D460446C1F30747DDF8209008E0701C38
:1031000006D0FEF7EFFBA0EB0900B0420FD876B176
:103110002068012F18D0806925EA00000004000C07
:1031200014D000214145EAD00020BDE8F0870020FE
:1031300044F8300F20216173A073216941F0200110
:10314000216120730120F0E74069E5E70121E9E70B
:103150002DE9F0479A4691460E46044600254FF069
:103160002008C1F3074725E020684069C0434005B7
:1031700014D42068016841F40071016021686FF483
:1031800080604861256384F83D8084F83E50206C5F
:1031900040F00400206484F83C501FE0B9F1FF3F88
:1031A00008D0FEF79FFBA0EB0A0149450CD8B9F106
:1031B000000F09D02068012F13D0806926EA000093
:1031C0000004000C0BD0CFE744F8305F84F80D808A
:1031D000A573206940F02000206125730120BDE81F
:1031E000F0874069EAE770B516460D4604460DE0E3
:1031F0002046FFF7E8FE08B1012070BD681C05D02D
:10320000FEF770FB801BA84207D835B120684069E3
:10321000C0430006ECD4002070BD002044F8300FFD
:1032200020216173A073216941F020012161207385
:10323000E2E7F0B50A68C2F30F2595FAA5F2B2FAF3
:1032400082F366E001229A402A4261D0082B03D221
:1032500040F201129A4006E0A3F108024FF0011477
:10326000944044F080620C69C668170A97FAA7F781
:10327000B7FA87F726EA1226BC402643C66092FAC0
:10328000A2F700EB1264B7FA87F74FEA870C0F2713
:10329000266807FA0CF7BE4392FAA2F7D1F804E0C9
:1032A000B7FA87F7BF000EFA07FE46EA0E06266059
:1032B0004F68012F01D0092F2AD192FAA2F7B7FA4D
:1032C00087F74FEA870C032707FA0CF7BE4392FAF9
:1032D000A2F7B7FA87F7D1F808E0BF000EFA07FEA9
:1032E00092FAA2FC46EA0E06BCFA8CFC4FEA8C0E5F
:1032F0004FF0040C26600CFA0EFC92FAA2F2B2FA1D
:1033000082F2CF68920026EA0C0697403E43266080
:103310005B1C35FA03F295D10020F0BD00B50346E1
:1033200001F076FF186001F049FF586001F054FF8A
:103330009860586801F05EFFD86000BD2DE9FF413C
:103340000446C0680D460126C0F34030F0BBE96872
:103350006868E2680843296941F20C639A431143A3
:103360000843E060A868216921F4405101432161CC
:103370006869616921F44071014361616846FFF742
:10338000CDFF2448844201D1039806E022488442BC
:1033900002D02248844238D10298B8B12A68AAB132
:1033A00000EBC00101EB00119200B1FBF2F36420CD
:1033B000B3FBF0F3B1FBF2F56FF018077B43002687
:1033C00005EB8305322303EB051500E01DE0B1FB9F
:1033D000F2F7B5FBF0F5B7FBF0F705F0F00505EBFC
:1033E0000715B1FBF2F7B1FBF2F1B1FBF0F16FF0B1
:1033F0001802514307EB810103EB0111B1FBF0F01F
:1034000000F00F00284480B2A06004B03046BDE850
:10341000F0810000003801400044004000480040B6
:1034200010B50446007B012802D1206802F0D6FEC8
:10343000002020606060A060207310BD5FF001027A
:1034400000F07F030B70C00909D043F08003521CC9
:1034500001F8013B042AF3DD4FF0FF3070471046BE
:1034600070472DE9F0410446002500680F462E46BE
:1034700010B10220207315E001202073084602F0ED
:10348000E9FF2060002808D0C4E9016702E0206855
:1034900046556D1CA068A842F9D8BDE8F0812068A7
:1034A00046556D1CA068A842F9D866608842F4D2DF
:1034B0002660F2E72DE9FF47174688468146FCF76C
:1034C0008FFE84B24046FCF78BFE0026E01D02F022
:1034D000C1FF050025D0E11DFCF74FFE12A02246DA
:1034E000016829608088A88049462846FCF77FFE4D
:1034F0004046FCF775FE034600200DF1040A012149
:1035000000908AE88300424629460A2000F042F9EA
:1035100000B10126284602F061FE304604B0BDE845
:10352000F0870120FAE7000024637273702F000017
:103530002DE9FF5F9A46934600251046DDF844903A
:103540000E9F139CFCF74CFE06B2BBF1000F1FD080
:1035500006F111001FFA80F807B10225109868B132
:1035600045F00405FCF73CFEC7B24846FCF738FEC0
:10357000C11901EB0800001D1FFA80F80F9870B107
:10358000012807D0022808D0022004B0BDE8F09F2F
:103590000120FAE745F00C0501E045F0140512980A
:1035A00008B145F02405009860B3019850B345F088
:1035B000C0070098FCF714FE05460198FCF710FEC2
:1035C000291801EB0800001D85B229462046FFF7A7
:1035D00048FF2068C0B12946FCF7CFFDD4E9003090
:1035E000411C102261601A54D4E900010144681F93
:1035F000FFF724FF00B2002808DA2046FFF710FF8B
:103600000520C2E70320C0E70420BEE76168236805
:103610000844411C616000221A54D4E90030421C65
:10362000042162601954D4E90050421C4D236260A9
:103630002B54D4E90050421C626051232B54D4E92E
:103640000030451C542265601A54D4E90050431CD4
:1036500063602A54D4E90030421C62601954D4E9F2
:103660000020411C61601754D4E90030411C4FEA2E
:103670001A2261601A54D4E90030421C626003F8D7
:1036800000A0D4E90030411C320A61601A54D4E928
:103690000020411C61601654D4E900010844324600
:1036A0005946FCF7A4FD606830446060780736D561
:1036B000B9F1000F01D10FF2D8091098FCF790FD75
:1036C00085B2D4E90030411C2A0A61601A54D4E959
:1036D0000020411C61601554D4E9000108442A46C9
:1036E0001099FCF784FD6068284460604846FCF748
:1036F00077FD85B2D4E90030411C2A0A61601A5472
:10370000D4E90020411C61601554D4E9000108444B
:103710002A464946FCF76BFD60682844606038061D
:1037200018D50098FCF75CFD85B2D4E90030411C47
:103730002A0A61601A54D4E90020411C61601554C2
:10374000D4E9000108442A460099FCF750FD60685E
:1037500028446060780618D50198FCF741FD85B2D1
:10376000D4E90030411C2A0A61601A54D4E90020CF
:10377000411C61601554D4E9000108442A460199AE
:10378000FCF735FD6068284460600020FDE600001D
:10379000000000002DE9FF4F81B090464FF0000679
:1037A000119C0F9A9A465FEA000BB146314608D148
:1037B000012005B0BDE8F08F232816D02B2814D0A7
:1037C000761C0298805D0028F6D141F030070AB1DE
:1037D00047F0010706EB0A050E98AD1C68B10128F9
:1037E00005D0022806D00320E3E70220E1E747F0F6
:1037F000020701E047F00407AD1CB8F1000F03D049
:1038000098F80000022807D0E91C2046FFF729FE9F
:10381000206850B3E91C14E05FF0000018F80010B5
:10382000401C7D29FAD100F10409AAEB0900291AEC
:1038300000912046C91CFFF714FE2068A8B100992A
:10384000C91CFCF79AFCD4E90020411C61601754A4
:10385000D4E9000101442846FFF7F0FD002806DA0C
:103860002046FFF7DDFD0520A3E70420A1E76168FE
:1038700023680844411C320A61601A54D4E90020CC
:10388000411C61601654D4E9000108443246029993
:10389000FCF7ADFC6068304460600E9959B1236854
:1038A000411C4FEA1B2261601A54D4E90030421CCB
:1038B000626003F800B0B8F1000F0ED098F8000075
:1038C0000228D4E90001084409D052464146FCF7D9
:1038D0003BFC616801EB0A006060002069E74A4632
:1038E0004146FCF731FC616801EB0900F4E7000098
:1038F0007FB50D460120089C0021CDE90204CDE9E9
:1039000000011E460A46EB1C0CA10A20FFF742FFED
:1039100010B1012004B070BDD4E90020411C6160E9
:103920001654D4E90030411C2A0A61601A54D4E9C3
:103930000020411C616015540020EBE724647000F6
:10394000F0B50446002001235D05106012E0275CFD
:10395000166807F07F0707FB03661660265C3606CD
:1039600001D4401CF0BDDB01AB4202D36FF001007B
:10397000F0BD401C8842EADB4FF0FF30F0BD2DE97E
:10398000F8430E4607461D4690462F21801DFCF742
:103990001DFC0021009150B3441C6A460421781C90
:1039A000FFF7CEFF252002F055FD306008B325213A
:1039B000FCF7E3FB242221463068FCF7C5FB0098A6
:1039C00024342C3880B22880401C02F043FDC8F813
:1039D000000080B12988491CFCF7CFFB2A882146CA
:1039E000D8F80000FCF7B0FB0020BDE8F883012008
:1039F000FBE70220F9E7306802F0F0FB0320F4E770
:103A00004178022901D001207047817819B101293C
:103A100001D0FF207047C07870474178022904D157
:103A2000817811B9C0780A2801D0012070470020A0
:103A30007047000038B504460078FF210009421E97
:103A40000E2A01D3084638BD0328FCD1002000907F
:103A50006A460421601CFFF773FF20440099401C54
:103A6000022907D32278D20704D1028852BA921CC5
:103A70008A4201D9FF2038BD04A1801CFCF794FBC9
:103A800008B10F2038BD032038BD000024637265E3
:103A900071000000FEB500241C48009401941A49EE
:103AA0000294016089158160012505730475032660
:103AB00006614FF460214460C161FDF743FB08B12A
:103AC000FDF7BCFA0420CDE90005694602940F48D1
:103AD000FDF7B6FA08B1FDF7B1FA05200090022013
:103AE000019069460948FDF7ABFA08B1FDF7A6FA5F
:103AF0000920CDE9000669460448FDF7A1FA00282F
:103B000001D0FDF79BFAFEBD00240140A00A002071
:103B1000114808B5416941F0010141614069002245
:103B200000F00100009011460B20FEF7D1F80B20A9
:103B3000FEF7C0F8002211460D20FEF7C9F80D204F
:103B4000FEF7B8F8002211460F20FEF7C1F8BDE8D5
:103B500008400F20FEF7AEB8001002402DE9F043F8
:103B600085B000242548009401940294039481694F
:103B700041F010018161816901F0100104918169B6
:103B800041F020018161816901F020010491816986
:103B900041F004018161816901F0040104918169AE
:103BA00041F0080181618069DFF8548000F008006D
:103BB0004FF400550490002229464046FDF78CFE44
:103BC000DFF8409048F22107002239464846FDF7C9
:103BD00083FE0095022601250396CDE9015469462E
:103BE0004046FDF789FD00970396CDE901546946EB
:103BF0004846FDF781FD05B0BDE8F08300100240A6
:103C000000100140000C01400D4810B50B49016047
:103C10000C49416000214FF480428160C0E90312E9
:103C200041618161C1610162FDF762FE002803D03C
:103C3000BDE81040FDF702BA10BD0000005400407E
:103C4000140B0020A086010010B586B0002418488F
:103C5000009401940294039404941449059401601F
:103C60004721C0E9011440F2E731C0E90314802183
:103C7000C0E90541FEF7AEFB08B1FDF7DFF94FF4EF
:103C80008050009069460A48FEF7F0FB08B1FDF746
:103C9000D5F9049404A906480594FEF767FB0028AB
:103CA00001D0FDF7CBF906B010BD0000002C01409B
:103CB000680B002010B586B00024184805940494C1
:103CC0000094019402944FF08041039401604721D5
:103CD000C0E901144FF6FF71C0E903148461FEF7D7
:103CE000B9FC08B1FDF7AAF9049404A90B4805949E
:103CF000FEF73CFB08B1FDF7A1F90120CDE900403A
:103D000002940422694605480394FEF71CFC00282F
:103D100001D0FDF793F906B010BD0000B00B0020F4
:103D200010B58AB0002407941C2168460894FCF75B
:103D300024FA1C481A4901604721C0E9011440F2E5
:103D4000E731C0E903148461FEF7D2FE08B1FDF744
:103D500075F9079407A913480894FEF707FB08B103
:103D6000FDF76CF9602000904FF4FA70CDE9010482
:103D7000082269460B480494FEF757FE08B1FDF788
:103D80005DF90C22694607480194FEF74EFE08B122
:103D9000FDF754F90348FEF721FE0AB010BD0000FC
:103DA00000080040F80B00200C4810B50A490160DB
:103DB0004FF416514160002181600C22C160C0E9BE
:103DC00004128161C161FEF787FF002803D0BDE8BE
:103DD0001040FDF733B910BD00380140400C002001
:103DE00030B58DB01C216846FCF7C7F9142107A82F
:103DF000FCF7C3F93148C16941F40031C161C169BF
:103E000001F400310C91816941F004018161806904
:103E1000002400F004000C9040F2044007900920B8
:103E200008900320CDE90904254D07A92846FFF78E
:103E300000FA40F6080007900420089007A92846D9
:103E4000FFF7F7F91F480068C0F30220C0F107012F
:103E5000042900D90421021D072A01D2002000E014
:103E6000C01E01228A40521E02F003018140080157
:103E7000154981F80004144940202239C1F8000195
:103E80004FF4E130CDE900040C200294CDE9034069
:103E9000059406940D4C69462046FFF74FFA2069B9
:103EA00020F490402061606920F02A006061E068A1
:103EB00040F40050E0600DB030BD00000010024042
:103EC000000801400CED00E026E000E00044004066
:103ED0000C4810B50A4901604FF4E13141600021FE
:103EE00081600C22C160C0E904128161C161FEF7EA
:103EF000F3FE002803D0BDE81040FDF79FB810BDC9
:103F000000480040800C0020FEE7FEF77DB870B549
:103F1000002404F1B000C0B200F0AAF8002000F0C4
:103F2000A7F8102000F0A4F80025002000F0B2F857
:103F30006D1CEDB2802DF8D3641CE4B2082CE8D3DC
:103F400070BD10B50446B031C8B200F091F8102031
:103F500040EA141000F08CF804F00F00BDE81040A7
:103F600000F086B82DE9F04115460E460746FFF7EA
:103F7000E8FF0E48002400EB8515285D00F08AF864
:103F8000641CE4B2102CF8D3761CF1B23846FFF76B
:103F9000D8FF0024281990F8200000F07BF8641C5A
:103FA000E4B2102CF6D3BDE8F08100004C000020F4
:103FB0002DE9F041203A00240D468046D6B27F28F4
:103FC00003D900208D1C8046EDB2102B29460FD05E
:103FD000FFF7B7FF164906EB460001EB4005285DE9
:103FE00000F058F8641CE4B2062CF8D3BDE8F08168
:103FF000FFF7A7FF0F4F00BF04EB0610385C00F07F
:1040000049F8641CE4B2082CF6D36D1CE9B24046B2
:10401000FFF797FF5FF0000404EB06103844007AC6
:1040200000F038F8641CE4B2082CF5D3DEE7000099
:1040300082650008AA6700082DE9F04198461746F6
:104040000E46044600250DE0434631462046FFF764
:10405000AFFF0834E4B2782C02D90024B61CF6B2C3
:104060006D1CEDB27A5D002AEED1BDE8F081000052
:1040700001B584B001214FF4807204A88DE80700D7
:104080000B46002278210248FDF7F6FC05B000BD82
:10409000140B002001B584B001214FF4807204A8F4
:1040A0008DE807000B46402278210248FDF7E4FC2A
:1040B00005B000BD140B00202DE9F0410025044699
:1040C000332933D2DFE801F01A344D657D95ADF127
:1040D000EFEEEDECEBEAE9E8E7E6E5E4E3E2E1E068
:1040E000DFDEDDDCDBDAD9D8D7D6D5D4D3D2D1D058
:1040F000CFCECDCCCBCAC9C8C7C6C5002646DFF8CF
:10410000F48910E031460020FFF71BFF5FF0000745
:1041100018F805006D1CFFF7BDFF7F1CFFB2802F54
:10412000F6D3761CF6B2301B0228EBDBBDE8F0813B
:104130002646DFF8C48910E031460020FFF701FF72
:104140005FF0000718F805006D1CFFF7A3FF7F1C48
:10415000FFB2802FF6D3761CF6B2301B0228EBDBC1
:10416000E4E72646DFF894890FE031460020FFF7A8
:10417000E8FE002718F805006D1CFFF78BFF7F1C79
:10418000FFB2802FF6D3761CF6B2301B0228ECDB90
:10419000CCE72646DFF868890FE031460020FFF7BC
:1041A000D0FE002718F805006D1CFFF773FF7F1C79
:1041B000FFB2802FF6D3761CF6B2301B0228ECDB60
:1041C000B4E72646DFF83C890FE031460020FFF7D0
:1041D000B8FE002718F805006D1CFFF75BFF7F1C79
:1041E000FFB2802FF6D3761CF6B2301B0228ECDB30
:1041F0009CE72646DFF810890FE031460020FFF7E4
:10420000A0FE002718F805006D1CFFF743FF7F1C78
:10421000FFB2802FF6D3761CF6B2301B0228ECDBFF
:1042200084E72646DFF8E4880FE031460020FFF7F8
:1042300088FE002718F805006D1CFFF72BFF7F1C78
:10424000FFB2802FF6D3761CF6B2301B0228ECDBCF
:104250006CE7EEE3EEE3EEE3E7E3CEE3B5E39CE306
:1042600083E36AE351E338E31FE306E3EDE2D4E2DC
:10427000BBE2A2E289E270E257E23EE225E20CE212
:10428000F3E1DAE1C1E1A8E18FE176E15DE144E14A
:104290002BE112E1F9E0E0E0C7E0AEE095E07CE080
:1042A00063E04AE031E018E0FFE72646DFF8608887
:1042B0000FE031460020FFF744FE002718F8050004
:1042C0006D1CFFF7E7FE7F1CFFB2802FF6D3761C34
:1042D000F6B2301B0228ECDB28E72646DFF83488EC
:1042E0000FE031460020FFF72CFE002718F80500EC
:1042F0006D1CFFF7CFFE7F1CFFB2802FF6D3761C1C
:10430000F6B2301B0228ECDB10E72646DFF80888FF
:104310000FE031460020FFF714FE002718F80500D3
:104320006D1CFFF7B7FE7F1CFFB2802FF6D3761C03
:10433000F6B2301B0228ECDBF8E62646DFF8DC8715
:104340000FE031460020FFF7FCFD002718F80500BC
:104350006D1CFFF79FFE7F1CFFB2802FF6D3761CEB
:10436000F6B2301B0228ECDBE0E62646DFF8B08729
:104370000FE031460020FFF7E4FD002718F80500A4
:104380006D1CFFF787FE7F1CFFB2802FF6D3761CD3
:10439000F6B2301B0228ECDBC8E62646DFF884873D
:1043A0000FE031460020FFF7CCFD002718F805008C
:1043B0006D1CFFF76FFE7F1CFFB2802FF6D3761CBB
:1043C000F6B2301B0228ECDBB0E62646DFF8588751
:1043D0000FE031460020FFF7B4FD002718F8050074
:1043E0006D1CFFF757FE7F1CFFB2802FF6D3761CA3
:1043F000F6B2301B0228ECDB98E62646DFF82C8765
:104400000FE031460020FFF79CFD002718F805005B
:104410006D1CFFF73FFE7F1CFFB2802FF6D3761C8A
:10442000F6B2301B0228ECDB80E62646DFF8008778
:104430000FE031460020FFF784FD002718F8050043
:104440006D1CFFF727FE7F1CFFB2802FF6D3761C72
:10445000F6B2301B0228ECDB68E62646DFF8D4868D
:104460000FE031460020FFF76CFD002718F805002B
:104470006D1CFFF70FFE7F1CFFB2802FF6D3761C5A
:10448000F6B2301B0228ECDB50E62646DFF8A886A1
:104490000FE031460020FFF754FD002718F8050013
:1044A0006D1CFFF7F7FD7F1CFFB2802FF6D3761C43
:1044B000F6B2301B0228ECDB38E62646DFF87C86B5
:1044C0000FE031460020FFF73CFD002718F80500FB
:1044D0006D1CFFF7DFFD7F1CFFB2802FF6D3761C2B
:1044E000F6B2301B0228ECDB20E62646DFF85086C9
:1044F0000FE031460020FFF724FD002718F80500E3
:104500006D1CFFF7C7FD7F1CFFB2802FF6D3761C12
:10451000F6B2301B0228ECDB08E62646DFF82486DC
:104520000FE031460020FFF70CFD002718F80500CA
:104530006D1CFFF7AFFD7F1CFFB2802FF6D3761CFA
:10454000F6B2301B0228ECDBF0E52646DFF8F885F2
:104550000FE031460020FFF7F4FC002718F80500B3
:104560006D1CFFF797FD7F1CFFB2802FF6D3761CE2
:10457000F6B2301B0228ECDBD8E52646DFF8CC8506
:104580000FE031460020FFF7DCFC002718F805009B
:104590006D1CFFF77FFD7F1CFFB2802FF6D3761CCA
:1045A000F6B2301B0228ECDBC0E52646DFF8A0851A
:1045B0000FE031460020FFF7C4FC002718F8050083
:1045C0006D1CFFF767FD7F1CFFB2802FF6D3761CB2
:1045D000F6B2301B0228ECDBA8E52646DFF874852E
:1045E0000FE031460020FFF7ACFC002718F805006B
:1045F0006D1CFFF74FFD7F1CFFB2802FF6D3761C9A
:10460000F6B2301B0228ECDB90E52646DFF8488541
:104610000FE031460020FFF794FC002718F8050052
:104620006D1CFFF737FD7F1CFFB2802FF6D3761C81
:10463000F6B2301B0228ECDB78E52646DFF81C8555
:104640000FE031460020FFF77CFC002718F805003A
:104650006D1CFFF71FFD7F1CFFB2802FF6D3761C69
:10466000F6B2301B0228ECDB60E52646DFF8F0846A
:104670000FE031460020FFF764FC002718F8050022
:104680006D1CFFF707FD7F1CFFB2802FF6D3761C51
:10469000F6B2301B0228ECDB48E52646DFF8C4847E
:1046A0000FE031460020FFF74CFC002718F805000A
:1046B0006D1CFFF7EFFC7F1CFFB2802FF6D3761C3A
:1046C000F6B2301B0228ECDB30E52646DFF8988492
:1046D0000FE031460020FFF734FC002718F80500F2
:1046E0006D1CFFF7D7FC7F1CFFB2802FF6D3761C22
:1046F000F6B2301B0228ECDB18E52646DFF86C84A6
:104700000FE031460020FFF71CFC002718F80500D9
:104710006D1CFFF7BFFC7F1CFFB2802FF6D3761C09
:10472000F6B2301B0228ECDB00E52646DFF84084B9
:104730000FE031460020FFF704FC002718F80500C1
:104740006D1CFFF7A7FC7F1CFFB2802FF6D3761CF1
:10475000F6B2301B0228ECDBE8E42646DFF81484CE
:104760000FE031460020FFF7ECFB002718F80500AA
:104770006D1CFFF78FFC7F1CFFB2802FF6D3761CD9
:10478000F6B2301B0228ECDBD0E42646DFF8E883E3
:104790000FE031460020FFF7D4FB002718F8050092
:1047A0006D1CFFF777FC7F1CFFB2802FF6D3761CC1
:1047B000F6B2301B0228ECDBB8E42646DFF8BC83F7
:1047C0000FE031460020FFF7BCFB002718F805007A
:1047D0006D1CFFF75FFC7F1CFFB2802FF6D3761CA9
:1047E000F6B2301B0228ECDBA0E42646DFF890830B
:1047F0000FE031460020FFF7A4FB002718F8050062
:104800006D1CFFF747FC7F1CFFB2802FF6D3761C90
:10481000F6B2301B0228ECDB88E42646DFF864831E
:104820000FE031460020FFF78CFB002718F8050049
:104830006D1CFFF72FFC7F1CFFB2802FF6D3761C78
:10484000F6B2301B0228ECDB70E42646DFF8388332
:104850000FE031460020FFF774FB002718F8050031
:104860006D1CFFF717FC7F1CFFB2802FF6D3761C60
:10487000F6B2301B0228ECDB58E42646DFF80C8346
:104880000FE031460020FFF75CFB002718F8050019
:104890006D1CFFF7FFFB7F1CFFB2802FF6D3761C49
:1048A000F6B2301B0228ECDB40E42646DFF8E0825B
:1048B0000FE031460020FFF744FB002718F8050001
:1048C0006D1CFFF7E7FB7F1CFFB2802FF6D3761C31
:1048D000F6B2301B0228ECDB28E42646DFF8B4826F
:1048E0000FE031460020FFF72CFB002718F80500E9
:1048F0006D1CFFF7CFFB7F1CFFB2802FF6D3761C19
:10490000F6B2301B0228ECDB10E42646DFF8888282
:104910000FE031460020FFF714FB002718F80500D0
:104920006D1CFFF7B7FB7F1CFFB2802FF6D3761C00
:10493000F6B2301B0228ECDB12E42646DFF85C827C
:104940000FE031460020FFF7FCFA002718F80500B9
:104950006D1CFFF79FFB7F1CFFB2802FF6D3761CE8
:10496000F6B2301B0228ECDB12E42646DFF8308278
:104970000FE031460020FFF7E4FA002718F80500A1
:104980006D1CFFF787FB7F1CFFB2802FF6D3761CD0
:10499000F6B2301B0228ECDB12E42646DFF8048274
:1049A0000FE031460020FFF7CCFA002718F8050089
:1049B0006D1CFFF76FFB7F1CFFB2802FF6D3761CB8
:1049C000F6B2301B0228ECDB12E42646DFF8D88171
:1049D0000FE031460020FFF7B4FA002718F8050071
:1049E0006D1CFFF757FB7F1CFFB2802FF6D3761CA0
:1049F000F6B2301B0228ECDB12E42646DFF8AC816D
:104A00000FE031460020FFF79CFA002718F8050058
:104A10006D1CFFF73FFB7F1CFFB2802FF6D3761C87
:104A2000F6B2301B0228ECDB12E42646DFF8808168
:104A300013E046E02DE014E031460020FFF781FA54
:104A40005FF0000718F805006D1CFFF723FB7F1CC3
:104A5000FFB2802FF6D3761CF6B2301B0228EBDBB8
:104A60003AE42646DFF84C810FE031460020FFF79C
:104A700068FA002718F805006D1CFFF70BFB7F1C78
:104A8000FFB2802FF6D3761CF6B2301B0228ECDB87
:104A900022E42646DFF820810FE031460020FFF7B0
:104AA00050FA002718F805006D1CFFF7F3FA7F1C79
:104AB000FFB2802FF6D3761CF6B2301B0228ECDB57
:104AC0000AE42646DFF8F4800FE031460020FFF7C5
:104AD00038FA002718F805006D1CFFF7DBFA7F1C79
:104AE000FFB2802FF6D3761CF6B2301B0228ECDB27
:104AF0000AE40000A0710008A0720008A07300087A
:104B0000A0740008A0750008A0760008A07700082F
:104B1000A0780008A0790008A07A0008A07B00080F
:104B2000A07C0008A07D0008A07E0008A07F0008EF
:104B3000A0800008A0810008A0820008A0830008CF
:104B4000A0840008A0850008A0860008A0870008AF
:104B5000A0880008A0890008A08A0008A08B00088F
:104B6000A08C0008A08D0008A08E0008A08F00086F
:104B7000A0900008A0910008A0920008A09300084F
:104B8000A0940008A0950008A0960008A09700082F
:104B9000A0980008A0990008A09A0008A09B00080F
:104BA000A09C0008A09D0008A09E0008A09F0008EF
:104BB000A0A00008A0A10008A0A20008A0A30008CF
:104BC00030B58BB00024069407940894012531A3D6
:104BD00033A235A136A0099400F03AFE06A8CDE92B
:104BE00004400294039400942B022AA22CA12EA02C
:104BF0000194FEF79DFC28B139A000F029FE0BB00E
:104C0000284630BD079881B20698FCF7E3F9FA20F0
:104C1000FCF756F8040037D0FEF70CFF022833D11A
:104C20002046FEF7EDFE062832D2DFE800F0032230
:104C30002426282A33A000F00BFE0025FFF767F991
:104C40000D2204211F20FFF78DF90E2204212F20B1
:104C5000FFF788F90C2204213F20FFF783F9122285
:104C600004214F20FFF77EF94FF4FA70FCF732FD74
:104C70000AE029A006E02FA004E037A002E03EA051
:104C800000E046A000F0E4FD06A8FEF7C9FBB6E789
:104C90004DA0F7E731303634303134363734000048
:104CA000313233343536000035383832373200008F
:104CB0004F6E654E65745F4465764C696E6B0D0A88
:104CC00050524F49443A2025732C09415549463AE0
:104CD0002025732C0944455649443A25730D0A0092
:104CE0005741524E3A094D5154545F5061636B65C0
:104CF00074436F6E6E656374204661696C65640D04
:104D00000A000000546970733A09C1ACBDD3B3C93D
:104D1000B9A60D0A000000005741524E3A09C1AC35
:104D2000BDD3CAA7B0DCA3BAD0ADD2E9B4EDCEF3FF
:104D30000D0A00005741524E3A09C1ACBDD3CAA773
:104D4000B0DCA3BAB7C7B7A8B5C4636C69656E74A5
:104D500069640D0A000000005741524E3A09C1AC87
:104D6000BDD3CAA7B0DCA3BAB7FECEF1C6F7CAA7B7
:104D7000B0DC0D0A000000005741524E3A09C1ACA8
:104D8000BDD3CAA7B0DCA3BAD3C3BBA7C3FBBBF2D6
:104D9000C3DCC2EBB4EDCEF30D0A00005741524E16
:104DA0003A09C1ACBDD3CAA7B0DCA3BAB7C7B7A88C
:104DB000C1B4BDD328B1C8C8E7746F6B656EB7C7FF
:104DC000B7A8290D0A0000004552523A09C1ACBDEE
:104DD000D3CAA7B0DCA3BACEB4D6AAB4EDCEF30D35
:104DE0000A0000007FB5002405463BA00094019412
:104DF0000294039400882880384800940194029417
:104E00000394027836A1684600F032FD69462846D0
:104E1000FBF7BEF93748009401940294039402789A
:104E200035A1684600F024FD69462846FBF7B0F935
:104E300035480094019402940394027833A16846A3
:104E400000F016FD69462846FBF7A2F932480094A7
:104E5000019402940394027830A1684600F008FDA2
:104E600069462846FBF794F930480094019402946F
:104E7000039402782EA1684600F0FAFC69462846A1
:104E8000FBF786F92D48009401940294039402786C
:104E90002BA1684600F0ECFC69462846FBF778F940
:104EA0002A4800940194029403940068FBF7AEFA38
:104EB00002460B4626A1684600F0DAFC6946284601
:104EC000FBF766F926A12846FBF762F92846FBF7AF
:104ED00087F904B0C0B270BD7B0000000000002064
:104EE0002274656D7065726174757265223A25640D
:104EF0002C000000010000202268756D696469744F
:104F000079223A25642C000028000020224C4544D8
:104F1000223A25642C00000018000020224C69670A
:104F20006874696E67223A25640000001C00002046
:104F300022566F696365223A256400002000002034
:104F400022476173223A25640000000024000020FB
:104F50002244697374616E6365223A252E316600BE
:104F60007D0000002DE9F04100258EB080460595BA
:104F700006950395049500950195ADF808502C46CB
:104F80002E46FEF757FD074604282CD00F2F04D0DD
:104F9000FBF788FE0EB0BDE8F08102AB6A4601A9BE
:104FA0004046FEF7ECFC040004D0FBF77BFE601CDF
:104FB000F0D021E0DDE90021BDF808302DA000F09F
:104FC00047FCDDE9001003AAFEF774FA90B932A09D
:104FD00000F03EFC049881B20398FBF7FBFF03A8A6
:104FE000FEF71EFA06E04046FEF717FD10B930A0A6
:104FF00000F02EFCFBF756FE3A210098FBF7E6F88E
:1050000010B3641C2AD00AAA401C02E09155401C2F
:10501000761C0178A1F13003092BF7D9955510467C
:10502000FBF7F9F804462AA10098FBF7BDF860B138
:105030002A484FF40051012C01D014B10EE0002297
:1050400000E00122FCF748FC08E025A10098FBF7EE
:10505000ABF818B922A10098FBF7A6F80F2F01D0E2
:10506000032F97D1019801F0B9F8009801F0B6F834
:1050700090E70000636D6469643A2025732C207208
:1050800065713A2025732C207265715F6C656E3AEC
:105090002025640D0A000000546970733A095365B5
:1050A0006E6420436D64526573700D0A0000000049
:1050B000546970733A094D515454205075626C69AB
:1050C00073682053656E64204F4B0D0A000000008A
:1050D0004C45445F76616C7565000000001001402E
:1050E0002020200030B5A7B00020239024902590E8
:1050F0000446269019A000F0ABFB802101A8FBF725
:105100003CF801A8FFF76EFE05000BD023A8009025
:1051100003230022294619A0FEF7EAFB70B11AA06A
:1051200000F096FB27B030BD015DDDE92323D154AB
:105130002499491C641C24B2249100E001A8AC42CB
:10514000F2DB249881B22398FBF744FF16A0249940
:1051500000F07EFB23A8FEF763F9E3E75469707360
:105160003A094F6E654E65745F53656E64446174B1
:10517000612D4D5154540D0A000000003130363479
:1051800030313436373400005741524E3A094544E5
:10519000505F4E6577427566666572204661696C40
:1051A00065640D0A0000000053656E6420256420CC
:1051B00042797465730D0A0070470000044949681C
:1051C000044A01F0F0010909515CC8407047000031
:1051D000001002406A65000804494968044A01F465
:1051E000E06102EB11210978C840704700100240CD
:1051F0007A65000804494968044A01F4605102EBE9
:10520000D1210978C8407047001002407A65000833
:105210000648406810F00C01054805D0042903D069
:10522000082901D100F006B87047000000100240C4
:1052300000127A000B48416811F480320A4909D003
:10524000B2F5803F06D14168084AC1F34041491C8C
:10525000B2FBF1F14068022200F4701002EB9040C2
:10526000484370470010024000093D0000127A00D8
:1052700070B50122094DD40321462846FCF72CFBCA
:105280000120FCF727FA002221462846FCF724FBE0
:10529000BDE870400248FDF754B90000000C014021
:1052A000B00B00207047FCF7ADBC30B593B028219F
:1052B0006846FAF762FF14210AA8FAF75EFF002495
:1052C00001200F9410941194010412948DE813009E
:1052D00004904FF4E010CDE90810022507956846C8
:1052E000FCF79EFE0F20CDE90A056802CDE90C40CF
:1052F00002210AA80E94FCF795FDA80311900F95C2
:105300000FA8FCF717FDFCF723FE13B030BD00001B
:105310000D48016841F00101016041680B4A1140EC
:10532000416001680A4A11400160016821F480214E
:105330000160416821F4FE0141604FF41F0181606A
:105340000449C00308607047001002400000FFF8E5
:10535000FFFFF6FE08ED00E00148FDF78CBA000003
:10536000680B00200148FDF786BA0000B00B002052
:10537000F0B50268164B174C174D4FF08047984216
:1053800005D0B84203D0A04201D0A84203D122F0F8
:1053900070064A683243984205D0B84203D0A04212
:1053A00001D0A84203D122F44074CA6822434C6958
:1053B00022F08002224302608A68C2620A68826226
:1053C000984201D10969016301214161F0BD0000EA
:1053D000002C0140000400400008004010B501F01E
:1053E0001F030121046A99408C430462016A9A40B8
:1053F0001143016210BD10B5846842EA032224F40F
:105400007F440A432243826010BD826822F070020A
:105410000A4342F0070181607047000030B5026A1C
:1054200022F001020262026A4368846924F0730573
:105430000C682C4322F002058A682A430A4DA842D0
:105440000BD122F00805CA6823F440732A434D6942
:1054500022F004021D438B692B4343608461496839
:105460004163026230BD0000002C014030B5026A89
:1054700022F010020262026A436884690D6824F413
:10548000E64444EA05248D6822F0200242EA05122F
:105490000B4DA8420ED1CD6822F0800242EA0512DF
:1054A0004D6923F4406343EA85038D6922F040028D
:1054B00043EA85034360846149688163026230BDC9
:1054C000002C014030B5026A22F480720262036A45
:1054D0004268C46923F4007324F073050C682C43FC
:1054E0008D6843EA05230C4DA8420ED1CD6823F404
:1054F000006343EA05234D6922F4405242EA051253
:105500008D6923F4806342EA05124260C4614968F0
:10551000C163036230BD0000002C014030B5026A57
:1055200022F480520262046A4268C3690D6823F45F
:10553000E64343EA05238D6824F4005444EA053425
:10554000064DA84204D14D6922F4804242EA8512F8
:105550004260C36149680164046230BD002C0140AF
:1055600010B5036A046A24F001040462846924F01B
:10557000F00444EA021423F00A020A43846102623E
:1055800010BD000070B5046A24F00104046284694F
:10559000056A0F4EB04208D0B0F1804F05D00D4ED5
:1055A000B04202D00C4EB04203D124F003041443A5
:1055B00001E044F001041A0724F0F00444EA126206
:1055C00025F00A0301F00A0119438261016270BDEE
:1055D000002C0140000400400008004010B5036AA0
:1055E00023F0100303628369046A23F4704343EADF
:1055F000023224F0A00343EA01118261016210BD6E
:1056000030B5046A24F0100404628469056A24F445
:10561000407444EA022222F470444FF6FF7202EA18
:1056200003322243A02425F0A00304EA0111194308
:105630008261016230BD10B5406A0021C185C1841C
:10564000FDF79BFA10BD0168CA6822F49072CA6027
:1056500001684A6922F001024A61202180F83A106B
:10566000704710B590F83A10222901D0022010BDE1
:1056700082684FF480539A4201D1016921B1816A55
:105680009A421BD04AB10AE00268816A5268C2F3AA
:1056900008020A80816A891C08E0026972B1026806
:1056A000526802F07F020A70816A491C8162C18DD2
:1056B000491E0904090CC18503D016E0026852682E
:1056C000F1E70168CA6822F02002CA600168CA686E
:1056D00022F48072CA6001684A6922F001024A61BC
:1056E000202180F83A10FDF7C7FB002010BD000014
:1056F00070B5044600680169E26821F44051114325
:1057000001612169A0680843616908432168CA688A
:1057100041F20C639A430243CA6020684169A2695E
:1057200021F44071114341611E492068884202D131
:10573000FCF724FC01E0FCF711FC00EBC00101EBDD
:105740000012606864218000B2FBF0F3B3FBF1F358
:105750006FF018067343B2FBF0F5B2FBF0F605EB01
:105760008305322303EB0515B5FBF1F5B6FBF1F626
:1057700005F0F00505EB0615B2FBF0F6B2FBF0F014
:10578000B0FBF1F06FF01802504306EB800003EB22
:105790000010B0FBF1F0216800F00F002844886091
:1057A00070BD0000003801402DE9F04198461746D1
:1057B0000E460446069D1DE0681C1BD02DB1FCF76B
:1057C00091F8A0EB0800A84214D92068C16821F420
:1057D000D071C1602068416921F001014161202040
:1057E00084F8390084F83A00002084F83800032057
:1057F000BDE8F0812068006836EA000004D000208F
:10580000B842D9D00020F3E70120F9E70148FDF7BD
:10581000B5B90000400C0020FBF772BA0148FDF753
:10582000ADB90000800C0020FEE7000010B5002399
:105830000AE000BF11F8014B44600468C4F380140F
:10584000002CFAD05B1C9BB29342F3D310BD000036
:105850000FB4054B10B503A9044A029800F002F9F1
:1058600010BC5DF814FB0000C56100082809002089
:105870000FB4084B10B504A902AA039800F0F2F87F
:10588000044602A9002000F070FC204610BC5DF820
:1058900014FB00006B6100080907090E002804DBF7
:1058A00000F1E02080F80014704700F00F0000F1D4
:1058B000E02080F8141D704700487047340900202C
:1058C00002E008C8121F08C1002AFAD170477047C9
:1058D000002001E001C1121F002AFBD17047000027
:1058E0002DE9FF5F82B00021DDE90430020DDDF813
:1058F00040B0034318D044F61050A2F2FF324243A6
:105900001514119801281FD0A5EB0B00401C5FEA6D
:10591000000A4FF000064E4FDFF83891B04650466F
:1059200015D5CAF1000413E0119801244AA30128F7
:1059300001D16FEA0B010298119AC0E90031C0E968
:10594000024206B0BDE8F09FCBF10000DFE704465D
:105950000021404A491842EB0450CDE9001012E002
:10596000E00707D032463B4640464946FAF760FC1E
:105970008046894632463B4610461946FAF758FC9F
:1059800006460F466410002CEAD1DDE90401DDE98A
:105990000023BAF1000F06DAFAF74AFC42464B46FA
:1059A000FAF746FC05E0FAF7B5FC42464B46FAF733
:1059B000B1FC04460E460022284BFAF729FF03D813
:1059C0004FF0FF30014607E00022254B20463146CC
:1059D000FAF75EFEFAF703FF102409E0002C0ADB59
:1059E0000A220023FAF757FD039B30321A55641E32
:1059F00050EA0102F2D1641C039AC4F11103144469
:105A0000119A012A03D0012208430DD10AE008436C
:105A100004D000204FF0110B119072E7A3EB0B059F
:105A20006D1E0DE05B4504DD4FF0000205F1010540
:105A300004E003DA4FF00002A5F10105002AECD0E2
:105A400002981199C0E90231C0E9004579E70000E8
:105A5000000014400000F03F300000000000F04360
:105A60000000E03F2DE9FF4F95B09A468846064674
:105A70000025EEE1252877D100242746F94A0121A7
:105A8000039400E0044316F8013F203B01FA03F0C1
:105A90001042F7D130782A2811D06FF02F033078D8
:105AA000A0F13002092A16D8039A44F0020402EB4E
:105AB000820203EB42021044761C0390EFE758F891
:105AC000042B0392002A03DA504244F4005403905A
:105AD00044F00204761C30782E2816D116F8010FF7
