:020000040800F2
:10000000A0080020A5100008AD100008AF100008DF
:10001000B1100008B3100008B5100008000000007F
:10002000000000000000000000000000B710000801
:10003000B910000800000000BB100008BD10000847
:10004000BF100008BF100008BF100008BF10000854
:10005000BF100008BF100008BF100008BF10000844
:10006000BF100008BF100008BF100008BF10000834
:10007000BF100008BF100008BF100008BF10000824
:10008000BF100008BF100008BF100008BF10000814
:10009000BF100008BF100008BF100008BF10000804
:1000A000BF100008BF100008BF100008BF100008F4
:1000B0000B080008BF100008BF100008BF100008A0
:1000C000BF100008BF100008BF100008BF100008D4
:1000D000BF100008CF030008772D0008BF100008EC
:1000E000BF100008BF100008BF100008000000008B
:1000F0000000000000000000000000000000000000
:100100000000000000000000BF100008BF10000841
:10011000BF100008BF100008BF100008BF10000883
:10012000BF100008BF100008BF100008BF10000873
:10013000BF100008BF100008BF100008BF10000863
:10014000BF100008BF100008BF100008BF10000853
:10015000DFF80CD004F078F900480047690800087F
:10016000A008002008B501211C2001F037FB012167
:10017000092001F033FB0121FD4801F044F9012180
:10018000480201F02BFB48F23800ADF800000320D4
:100190008DF8020014208DF803006946F54801F03F
:1001A00061F84FF41940ADF8000003208DF802000B
:1001B00014208DF803006946EF4801F053F84FF41E
:1001C000E040ADF8000003208DF8020010208DF80B
:1001D00003006946E74801F045F84FF40070ADF8B8
:1001E000000003208DF8020010208DF803006946FE
:1001F000E04801F037F84FF4E070ADF8000003205C
:100200008DF8020048208DF803006946D94801F0B6
:1002100029F808BD00B587B00121052001F0DEFAFC
:100220000121880301F0DAFA4FF40070ADF80800FC
:1002300003208DF80A0018208DF80B0002A9CE4883
:1002400001F010F84FF48060ADF8080003208DF83D
:100250000A0004208DF80B0002A9C74801F002F83B
:100260004FF4165003900020ADF81000ADF81200C6
:10027000ADF81400ADF818000C20ADF8160003A975
:10028000BE4802F060FA0121BC4802F0E8FA40F2F0
:100290002551BA4802F0FEFB012240F22551B74831
:1002A00002F0E9FA01222821B44802F0E4FA01221E
:1002B0006021B24802F0DFFA5520B049091D0880DC
:1002C00000BFAE48008800F040000028F9D04FF48D
:1002D000E06000F0F9FE25208DF8040000208DF884
:1002E000050001208DF806008DF8070001A800F038
:1002F000F0FE07B000BD0BE010F8011B9F4A121D75
:10030000118000BF9D49098801F040010029F9D002
:1003100001780029F0D1704710B50021002200209B
:10032000974B1B68012B3BD10023954C2360954BC9
:1003300019680023934C2360052928D1924B1B7820
:10034000012B10D1904B1B79552B0CD18E4B5B7828
:100350008E4C23608C4B9B788D4C23608A4BDB78D2
:100360008C4C236013E0884B1B78022B0FD1864BFB
:100370001B79662B0BD1844B5B78874C2360824BB7
:100380009B78864C2360804BDB78854C2360002073
:1003900004E000237C4C2354431CD8B28842F8DB91
:1003A00010BD80480068012810D17F480068401CBB
:1003B0007D49086008460068032807DB002079496A
:1003C00008607949086001206D490860704710B5E0
:1003D00040F22551694802F033FBE8B140F2255163
:1003E000664802F057FB654802F0AAFAC1B26548B8
:1003F00002680068401C634B1860634881541846CB
:100400000068C82802DB0020194608600120654901
:1004100008600020644908602821584802F010FB59
:1004200018B12821554802F035FB40F646015348E3
:1004300002F0F0FA20B140F64601504802F02AFBE3
:1004400008214E4802F0E6FA30B14C4802F078FA42
:1004500008214A4802F0EBFA0421484802F0DAFA8F
:1004600018B10421454802F0E2FA0221434802F0A3
:10047000D1FA18B10221414802F0D9FA01213F48CE
:1004800002F0C8FA18B101213C4802F0D0FA40F25B
:1004900026613A4802F0D4FA20B140F2266137488A
:1004A00002F0F8FA10BD70B505460E460024012092
:1004B00003F0C1FE00BF0BE0285D3049091D088034
:1004C00000BF2E48008800F040000028F9D0641CCE
:1004D000B442F1D3012003F0AEFE70BD10B540214F
:1004E000244800F052FF314908708021214800F073
:1004F0004CFF2F4908704FF480711E4800F045FFF3
:100500002C4908702948007818B901202A49087038
:1005100013E02948007880B1002027490870274857
:10052000006818B901202549086006E023480068E2
:10053000012802D10020214908601D48007818B91F
:1005400001201F49087046E01D480078F0B30020E4
:100550001B4908701948006820B91A480068401CF7
:100560001849086015480068012834D116482EE063
:1005700000023000000C014000080140003801403A
:1005800034000020280000209000002004000020FB
:100590000C000020140000200800002010000020A3
:1005A00018000020300000202C0000203C0000201B
:1005B0003D0000203E0000203F00002024000020DD
:1005C000400000201C0000202000002003E0006804
:1005D000401CFB490860FB48007818B90120FA4923
:1005E000087016E0F848007898B10020F6490870C5
:1005F000F648006820B9F6480068401EF4490860D3
:10060000F2480068012804D1ED480068401EEC491A
:10061000086010BD2DE9F05F05460E461746DDE97E
:100620000C980024A2462146641C5722504600F034
:100630001DFC642095FBF0F100FB11500A2190FB9A
:10064000F1F0E44911F800B02146641C5A465046C6
:1006500000F00CFC0A2095FBF0F100FB1150DD4985
:1006600011F800B02146641C5A46504600F0FEFBCB
:100670002146641C2022504600F0F8FB2146641CF1
:100680004322504600F0F2FB642096FBF0F100FBA1
:1006900011600A2190FBF1F0CE4911F800B021461B
:1006A000641C5A46504600F0E1FB0A2096FBF0F12C
:1006B00000FB1160C74911F800B02146641C5A467E
:1006C000504600F0D3FB2146621CD4B22022504693
:1006D00000F0CCFB77B92146621CD4B257225046B9
:1006E00000F0C4FB2146621CD4B24822504600F000
:1006F000BDFB0DE02146621CD4B25922504600F0E9
:10070000B5FB2146621CD4B24822504600F0AEFB35
:100710002146621CD4B22022504600F0A7FB21469D
:10072000621CD4B25322504600F0A0FB2146621C4A
:10073000D4B24522504600F099FB2146621CD4B247
:100740005422504600F092FB2146621CD4B22D2266
:10075000504600F08BFB09F0FF022146631CDCB21F
:10076000504600F083FB4FF0010A0C24642098FBF4
:10077000F0F100FB11800A2190FBF1F0954911F88E
:1007800000B02146641C5A46504600F06FFB0A2018
:1007900098FBF0F100FB11808E4911F800B0214662
:1007A000641C5A46504600F061FBBDE8F09F7FB5DF
:1007B00005460C460121084601F01DF80121880775
:1007C00001F07AFFADF80850ADF804400020ADF814
:1007D0000A00ADF8060001A94FF0804001F036F99B
:1007E00001221146900701F0A8FC1C208DF80000A2
:1007F00000208DF8010003208DF8020001208DF803
:100800000300684600F065FC7FBD10B50121880734
:1008100001F041FF38B370480078401C6E49087001
:100820006E480078012807D16D48006808B901209A
:1008300000E000206A4908606848007802280ED16C
:100840006548007802280ADB6548006808B901207D
:1008500000E000206249086000205F490870012123
:10086000880701F029FF10BD1FB5002400BF00F06C
:1008700098FB00F0BDFB03F0A1FCFFF773FC012027
:100880005749086000F0B0FAFFF7C4FC4FF4E130BC
:1008900002F020FA4FF47A7003F0CDFC41F61F41CC
:1008A00040F2E730FFF783FF02F0A0F94FF4FA704F
:1008B00003F0C1FC03E04FF4FA7003F0BCFC03F05A
:1008C000EDF90028F7D127E10A2003F0B4FC3F48F6
:1008D0000068A8B93E4800685721424A1268424B56
:1008E0001B68CDE90032CDE902104048036840485A
:1008F00002684048016840480068FFF78BFE14E03A
:100900002F4800685421374A1268374B1B68CDE9DD
:100910000032CDE902103548036835480268354891
:10092000016835480068FFF775FEFFF73AFDFFF7ED
:10093000F3FCFFF7D3FD3048006825490968884279
:1009400019DC2A48006822490968884213DC2948D2
:1009500000681B49096888420DDC23480068184973
:100960000968884207DC22480068012803D01D4836
:10097000006801287ED12048006815490968401A9E
:10098000022806DB1C48006811490968401A05283E
:100990000DDB164800680E490968401A02282DDB55
:1009A000124800680A490968401A052826DA022018
:1009B0000A4908700121400701F0A4FB35E000005E
:1009C000200000203E0000204100002024000020E4
:1009D0001C000020420000203900002038000020C8
:1009E000A4812142180000201000002008000020EF
:1009F000140000200C00002004000020474800687C
:100A000047490968401A052806DA464800684449FB
:100A10000968401A052808DB01204349087043494A
:100A200008700121800701F06DFB414800684149D1
:100A30000968401A022806DB3D4800683D490968FC
:100A4000401A05280DDB3C4800683A490968401AFD
:100A5000022814DB3848006836490968401A05281E
:100A60000DDA32480078012802D002202E490870A1
:100A7000012100E029E0880701F044FB14E02C4844
:100A800000682C490968401A052806DA2A480068D7
:100A900028490968401A052806DB01202249087008
:100AA0000121800701F02EFB24480068012803D0B3
:100AB00023480068012807D100214FF0804001F051
:100AC00021FB00201F49086006E001201D49086045
:100AD0000021800701F016FB601CC4B23C2C03D13E
:100AE00019A0FFF708FC05E0782C03DB002418A010
:100AF000FFF701FC0A2003F09EFB17480078401C1A
:100B00001549087008460078642805DB0020087045
:100B100003F08DF901F0D8FFD6E6000004000020B4
:100B20001C00002008000020380000203B000020AE
:100B30000C000020200000201000002014000020E5
:100B400018000020A4812142313131310000000021
:100B500032323232000000003A00002010B5044664
:100B600004F0010028B14FF40041D34800F027FC05
:100B700004E04FF40041D04800F023FC04F00200F0
:100B800028B14FF48071CD4800F019FC04E04FF417
:100B90008071CA4800F015FC04F0040028B14FF43D
:100BA0000061C64800F00BFC04E04FF40061C3484C
:100BB00000F007FC04F0080028B14FF48051BF4852
:100BC00000F0FDFB04E04FF48051BC4800F0F9FB5D
:100BD00004F0100028B14FF40041B84800F0EFFBDA
:100BE00004E04FF40041B54800F0EBFB04F02000B6
:100BF00020B10821B04800F0E2FB03E00821AE4834
:100C000000F0DFFB04F0400020B11021AA4800F002
:100C1000D6FB03E01021A84800F0D3FB04F08000CD
:100C200020B12021A44800F0CAFB03E02021A24803
:100C300000F0C7FB10BD10B500244FF400419E48E2
:100C400000F0A3FB08B144F001044FF480719B480D
:100C500000F09BFB08B144F002044FF40061974898
:100C600000F093FB08B144F004044FF48051934822
:100C700000F08BFB08B144F008044FF400418F48AA
:100C800000F083FB08B144F0100408218A4800F00A
:100C90007CFB08B144F020041021874800F075FB6C
:100CA00008B144F040042021834800F06EFB08B1F5
:100CB00044F08004204610BD06E00A2100BF4A1E11
:100CC000D2B2111EFBD1401E0028F6D1704710B5DC
:100CD0004FF48051784800F072FB4FF40051764891
:100CE00000F06DFB4FF48041734800F068FB00207A
:100CF000FFF734FF6420FFF7DFFF6420FFF7DCFF1E
:100D00004FF480516C4800F05CFB4FF400516A488E
:100D100000F057FB4FF48041674800F052FBFF2082
:100D2000FFF71CFF6420FFF7C7FF6420FFF7C4FF35
:100D30004FF48051604800F044FB4FF400515E488E
:100D400000F03FFB4FF480415B4800F03AFB00208D
:100D5000FFF704FF10BD10B5594CFF20FFF7FEFE52
:100D60004FF48051544800F02CFB4FF4005152488E
:100D700000F025FB4FF480414F4800F020FB00BFFE
:100D8000201EA4F1010405D0FFF755FF00F08000FC
:100D90000028F5D14FF48041474800F012FB10BD08
:100DA00070B505460C46FFF7D6FF2846FFF7D6FE7E
:100DB0002CB14FF48051404800F001FB04E04FF4A7
:100DC00080513D4800F0FDFA4FF400513A4800F0E0
:100DD000F8FA4FF48041384800F0F1FA4FF48041BE
:100DE000354800F0EEFA70BD10B5FFF770FF0A202D
:100DF000FFF762FF0A20FFF75FFF00213820FFF7AF
:100E0000CFFF0A20FFF758FF00213820FFF7C8FF67
:100E10000A20FFF751FF00213820FFF7C1FF0A2009
:100E2000FFF74AFF00213820FFF7BAFF0A20FFF73B
:100E300043FF00210120FFF7B3FF0A20FFF73CFF2B
:100E400000210C20FFF7ACFF10BD70B504460D4625
:100E50001646802101EB84112944C8B20021FFF716
:100E60009FFF01213046FFF79BFF70BD70B5044620
:100E70000D461646802101EB84112944C8B2002199
:100E8000FFF78EFF01213046FFF78AFF70BD70B576
:100E900006460D461446802101EB8511C8B200219B
:100EA000FFF77EFF04E020780121FFF779FF641C43
:100EB00020780028F7D170BD000C014000080140E7
:100EC000905F01000CB50020019000906C48006814
:100ED00040F480306A49086000BF6948006800F447
:100EE000003000900198401C0190009818B90198BA
:100EF000B0F5A06FF1D16248006800F4003010B185
:100F00000120009001E0002000900098012843D1CA
:100F10005C48006840F010005A49086008460068C4
:100F200020F0030008600846006840F002000860F6
:100F3000534840685249486008464068486008463F
:100F4000406840F4806048600846406820F47C10A7
:100F500048600846406840F4E81048600846006869
:100F600040F08070086000BF4548006800F00070E5
:100F70000028F9D04248406820F00300404948600A
:100F80000846406840F00200486000BF3C484068A6
:100F900000F00C000828F9D10CBD10B5FFF792FF46
:100FA00010BD10B53648006840F0010034490860B3
:100FB000084640683449084031494860084600689E
:100FC000324908402E4908600846006820F4802015
:100FD00008600846406820F4FE0048604FF41F0097
:100FE0008860FFF7DAFF4FF000602949086010BD04
:100FF00010B5002100200022214B5B6803F00C019A
:1010000021B1042906D0082928D107E0214B224C20
:10101000236027E01F4B204C236023E0184B5B68C4
:1010200003F47010164B5B6803F48032022303EB69
:10103000904022B9194B4343174C23600DE0104BED
:101040005B6803F4003323B1144B4343124C236019
:1010500003E0104B4343104C236003E00D4B0E4C58
:10106000236000BF00BF064B5B68C3F303130C4C47
:10107000E15C094B1B68CB40074C236010BD0000AE
:1010800000100240002002400000FFF8FFFFF6FEC3
:1010900008ED00E000127A004C00002000093D003D
:1010A000500000200648804706480047FEE7FEE75C
:1010B000FEE7FEE7FEE7FEE7FEE7FEE7FEE7FEE708
:1010C000A30F00085101000831490143314A116062
:1010D000704770B5002100230F22C47804B32D4C53
:1010E000246804F4E064C4F5E064210AC1F1040357
:1010F000CA40447804FA03F184781440214309017A
:10110000254C0678A155047804F01F050124AC4055
:1011100005786D11AD0005F1E025C5F8004109E045
:10112000047804F01F050124AC401C4D06787611AC
:1011300045F8264070BD1A4A0A400243154B1B1F52
:101140001A60704739B1134A121D12680243114BDD
:101150001B1D1A6006E00F4A121D126882430D4BD8
:101160001B1D1A607047042808D14FF0E02109695F
:1011700041F004014FF0E022116107E04FF0E0215F
:10118000096921F004014FF0E0221161704700006D
:101190000000FA050CED00E000E400E080E100E072
:1011A00080FFFF1F10B50446CC48844208D10121BE
:1011B000042000F02DFB0021042000F029FB46E074
:1011C000C748844208D10121082000F021FB0021FA
:1011D000082000F01DFB3AE0C248844208D10121FA
:1011E000102000F015FB0021102000F011FB2EE074
:1011F000BD48844208D10121202000F009FB0021D4
:10120000202000F005FB22E0B848844208D10121EB
:10121000402000F0FDFA0021402000F0F9FA16E02D
:10122000B348844208D10121802000F0F1FA002166
:10123000802000F0EDFA0AE0AE48844207D1012197
:10124000801500F0E5FA0021A01500F0E1FA10BDCC
:1012500010B50121084600F0DBFA0021012000F062
:10126000D7FA10BD2DE9F0410246002500260020E6
:1012700000230024002791F803C00CF00F0591F81B
:1012800003C00CF0100CBCF1000F03D091F802C0A9
:101290004CEA050591F800C0BCF1000F31D014688C
:1012A00000202BE04FF0010C0CFA00F3B1F800C065
:1012B0000CEA03069E4220D183004FF00F0C0CFA7B
:1012C00003F7BC4305FA03FC4CEA040491F803C09D
:1012D000BCF1280F06D14FF0010C0CFA00FCC2F84B
:1012E00014C00AE091F803C0BCF1480F05D14FF0DB
:1012F000010C0CFA00FCC2F810C0401C0828D1D325
:101300001460B1F800C0BCF1FF0F34DD5468002058
:101310002EE000F1080C4FF0010808FA0CF3B1F8C8
:1013200000C00CEA03069E4221D183004FF00F0C4F
:101330000CFA03F7BC4305FA03FC4CEA040491F8E9
:1013400003C0BCF1280F05D100F1080C08FA0CF815
:10135000C2F8148091F803C0BCF1480F07D100F126
:10136000080C4FF0010808FA0CF8C2F81080401C75
:101370000828CED35460BDE8F0814FF6FF7101809C
:10138000022181700421C1707047024600209368D9
:101390000B400BB1012000E0002070470146886837
:1013A00080B2704702460020D3680B400BB1012089
:1013B00000E0002070470146C86880B270470161B4
:1013C0007047416170470AB1016100E041617047B7
:1013D000C16070474FF480320A438261816182614B
:1013E00082698269704702460020434B18684FF6B5
:1013F0008073184040EA021008433F4B1860704762
:101400003E49C8617047F0B50A4600230024002118
:10141000002500F00046B6F1004F02D1364EF169CA
:1014200001E0354E7168C0F3034583B200F4401605
:10143000B6F5401F08D121F070612F4E766826F076
:1014400070662D4F7E6012E000F48016B6F5801FA6
:1014500006D1032606FA05F4A14341F0706106E0C7
:10146000460D360103FA06F6B14341F0706122B130
:10147000460D360103FA06F6314300F00046B6F198
:10148000004F02D11C4EF16101E01B4E7160F0BDB6
:1014900030B500228B071C0F0F2303FA04F2164B02
:1014A00008338C1053F824309343134C08348D10B8
:1014B00044F8253023468C1053F824308C07240F31
:1014C00000FA04F423430C4C08348D1044F8253002
:1014D00030BD0A49DC310860704700000008014057
:1014E000000C0140001001400014014000180140B0
:1014F000001C01400020014000000140000020428B
:10150000DF48006840F00100DD4908600846406897
:10151000DC490840DA49486008460068DA49084072
:10152000D74908600846006820F480200860084613
:10153000406820F4FE0048604FF41F008860704748
:10154000CF49096821F48031CD4A116011460968FC
:1015500021F480211160B0F5803F03D0B0F5802FD9
:101560000ED106E0C649096841F48031C44A1160D1
:1015700007E0C349096841F4A021C14A116000E0B5
:1015800000BF00BF704710B50146002200230020B5
:101590004A11012A02D1BA4C236806E0022A02D17C
:1015A000B74C236A01E0B64C636A01F01F020124C4
:1015B00094401C400CB1012000E0002010BD38B563
:1015C000002000900024002500BF3120FFF7DBFF42
:1015D00005460098401C00900098B0F5A06F01D01F
:1015E000002DF2D03120FFF7CEFF08B1012400E03A
:1015F0000024204638BD01460020A14A106820F092
:10160000F80040EAC10010607047A04908607047C8
:10161000024600209A4B586820F47C1042EA0103ED
:101620001843974B586070479849086670470146C1
:101630000020934A506820F0030008435060704730
:101640008F48406800F00C007047014600208C4A2B
:10165000506820F0F00008435060704701460020B9
:10166000874A506820F4E0600843506070470146A4
:101670000020834A506820F4605040EAC100506066
:10168000704729B17E4A527A02437D4B5A7204E078
:101690007B4A527A82437A4B5A7270477B49D831DF
:1016A0000860704701460020754A506820F44040A9
:1016B0000843506070470021714A20321170704A0F
:1016C00082F82010012802D004280AD104E0012168
:1016D0006B4A2032117005E00521694A20321170F1
:1016E00000E000BF00BF7047694908607047644967
:1016F000096A0143624A11627047654944390860CA
:10170000704730B500210022002400235C4D6D6835
:1017100005F00C0121B1042905D0082923D105E0E9
:101720005C4D056022E05B4D05601FE0544D6D6827
:1017300005F47012524D6D6805F48034022505EBF6
:1017400092421CB9544D554305600BE04C4D6D68F9
:1017500005F400351DB1504D5543056002E04D4D77
:101760005543056002E04B4D056000BF00BF444D8E
:101770006D6805F0F0010909484D6B5C0568DD40B6
:1017800045603F4D6D6805F4E061090A434D6B5CAF
:101790004568DD4085603A4D6D6805F46051C90AC1
:1017A0003E4D6B5C4568DD40C560354D6D6805F4A8
:1017B0004041890B3A4D6B5CC568B5FBF3F505619B
:1017C00030BD29B12E4A526902432D4B5A6104E0C3
:1017D0002B4A526982432A4B5A61704729B1284AE1
:1017E00092690243264B9A6104E0254A926982433A
:1017F000234B9A61704729B1214AD2690243204B99
:10180000DA6104E01E4AD26982431D4BDA617047F7
:1018100029B11B4AD2680243194BDA6004E0184A26
:10182000D2688243164BDA60704729B1144A1269B4
:101830000243134B1A6104E0114A12698243104BB0
:101840001A61704712494039086070470F49C864EF
:1018500070470B49C87170470948406A40F0807072
:1018600007494862704701460020054A92680A40CD
:101870000AB1012000E000207047014988727047DA
:10188000001002400000FFF8FFFFF6FE0000424299
:101890008004424200127A0000093D0060000020EE
:1018A0007000002010B50446FE48844208D1012192
:1018B000C014FFF7ADFF0021E014FFF7A9FFC4E05B
:1018C000B4F1804F08D101210846FFF7AEFF002197
:1018D0000120FFF7AAFFB8E0F348844208D10121B4
:1018E0000220FFF7A2FF00210220FFF79EFFACE0DD
:1018F000EE48844208D101210420FFF796FF002121
:101900000420FFF792FFA0E0E948844208D10121BA
:101910000820FFF78AFF00210820FFF786FF94E0E8
:10192000E448844208D101211020FFF77EFF002106
:101930001020FFF77AFF88E0DF48844208D10121B8
:101940002020FFF772FF00212020FFF76EFF7CE0D0
:10195000DA48844208D101214014FFF759FF0021E1
:101960006014FFF755FF70E0D548844209D101218A
:10197000C804FFF74DFF00214FF40020FFF748FF98
:1019800063E0D048844209D101210805FFF740FFF8
:1019900000214FF48010FFF73BFF56E0CA48844215
:1019A00009D101214805FFF733FF00214FF4001052
:1019B000FFF72EFF49E0C548844208D101214020AD
:1019C000FFF733FF00214020FFF72FFF3DE0C04825
:1019D000844208D101218020FFF727FF00218020C9
:1019E000FFF723FF31E0BB48844208D10121801575
:1019F000FFF71BFF0021A015FFF717FF25E0B648F2
:101A0000844209D101210804FFF702FF00214FF4AD
:101A10008030FFF7FDFE18E0B048844209D1012173
:101A20004804FFF7F5FE00214FF40030FFF7F0FE09
:101A30000BE0AB48844208D101218804FFF7E8FE9F
:101A400000214FF48020FFF7E3FE10BD0022028842
:101A5000944B98420ED0994B98420BD0B0F1804FE6
:101A600008D0914B984205D0904B984202D0904BB1
:101A7000984204D14FF68F731A404B881A438D4B0E
:101A8000984207D08C4B984204D04FF6FF431A403F
:101A9000CB881A4302808B8883850B880385814B12
:101AA00098420BD0854B984208D08B4B984205D07A
:101AB0008A4B984202D08A4B984201D10B7A038616
:101AC00001238382704770B5002400220023058C17
:101AD0004FF6FE7635400584028C8388048B4FF6E2
:101AE0008F752C40B51E2C400D882C43751E2A4046
:101AF0000D892A434D882A436A4DA8420BD06F4D69
:101B0000A84208D0744DA84205D0744DA84202D016
:101B1000734DA84213D14FF6F7752A404D892A43D9
:101B20004FF6FB752A408D882A434FF6FF652B4000
:101B30004FF6FF552B408D892B43CD892B43838056
:101B40000483CD888586028470BD70B50024002290
:101B50000023058C4FF6EF7635400584028C838890
:101B6000048B48F6FF752C404FF6FF452C400D883E
:101B70004FF6FF7606EA05252C434FF6DF752A401F
:101B80000D8906EA05152A434D8806EA05152A43FC
:101B9000444DA84202D0494DA8421DD14FF67F7551
:101BA0002A404D894FF6FF7606EA05152A434FF67F
:101BB000BF752A408D8806EA05152A434FF6FF3582
:101BC0002B404FF2FF752B408D8906EA85052B438C
:101BD000CD8906EA85052B4383800483CD8805875C
:101BE000028470BD70B5002400220023058C4FF6DE
:101BF000FF6635400584028C8388848B4FF68F7591
:101C00002C404FF6FC752C400D882C434FF6FF55A9
:101C10002A400D894FF6FF7606EA05252A434D88AE
:101C200006EA05252A431F4DA84202D0234DA842AB
:101C30001DD14FF2FF752A404D894FF6FF7606EA17
:101C400005252A434FF6FF352A408D8806EA0525EB
:101C50002A434EF6FF752B404DF6FF752B408D89BC
:101C600006EA05152B43CD8906EA05152B4383802B
:101C70008483CD888587028470BD70B500220023DF
:101C80000024058C4EF6FF7635400584038C84884D
:101C9000828B48F6FF752A404FF6FF452A400D8893
:101CA00020E00000002C014000040040000800403B
:101CB000000C0040001000400014004000340140BF
:101CC000004C014000500140005401400018004009
:101CD000001C004000200040004001400044014042
:101CE000004801404FF6FF7606EA05252A434DF6E7
:101CF000FF752B400D8906EA05352B434D8806EA12
:101D000005352B43FA4DA84202D0FA4DA84208D11E
:101D10004BF6FF752C408D894FF6FF7606EA851548
:101D20002C4384808283CD88A0F84050038470BD0A
:101D3000828B4FF2FF331A408283828B4FF6FF7300
:101D400003EA01231A4382837047F0B50C46154617
:101D5000002200210026078C4EF6FF7C07EA0C07C4
:101D60000784828B018C4FF6FF7707EA043640F632
:101D7000FF473A404FF6FF7707EA05273A434FF609
:101D8000FF7707EA03373A43D94FB8420ED0D94F0D
:101D9000B8420BD0B0F1804F08D0D74FB84205D031
:101DA000D64FB84202D0D64FB84206D14DF6FF7793
:101DB000394046F48057394305E047F6FF5739402C
:101DC00044F48057394382830184F0BD828B4FF6FF
:101DD000F3731A408283828B0A4382837047F0B583
:101DE0000C461546002200210026078C4FF6FF6C9A
:101DF00007EA0C070784828B018C4FF6FF7707EA0E
:101E000004264FF60C773A404FF6FF7707EA0317A0
:101E10002F433A43B64FB8420ED0B64FB8420BD01C
:101E2000B0F1804F08D0B44FB84205D0B34FB8429C
:101E300002D0B34FB84206D14FF6FF57394046F4AF
:101E40008077394305E04FF2FF57394044F48077FB
:101E5000394382830184F0BD028B4FF2FF331A4075
:101E60000283028B4FF6FF7303EA01231A430283B6
:101E70007047F0B50C461546002200210026078C5D
:101E80004FF6EF7C07EA0C070784028B018C4FF6B4
:101E9000FF7707EA041640F6FF473A404FF6FF7710
:101EA00007EA03373A434FF6FF7707EA05273A4335
:101EB0008F4FB8420ED08F4FB8420BD0B0F1804F49
:101EC00008D08D4FB84205D08C4FB84202D08C4F0D
:101ED000B84206D14FF6DF77394046F01007394354
:101EE00005E04FF65F77394044F01007394302832D
:101EF0000184F0BD028B4FF6F3731A400283028B0C
:101F00000A4302837047F0B50C46154600220021B3
:101F1000068C4FF6FE773E400684028B018C4FF60E
:101F20000C7632407E1C06EA03162E433243704E76
:101F3000B0420ED06F4EB0420BD0B0F1804F08D0FF
:101F40006D4EB04205D06D4EB04202D06C4EB042E4
:101F500006D14FF6FD76314044F00106314305E0ED
:101F60004FF6F576314044F0010631430283018497
:101F7000F0BD70B505460C465D4885420ED05D4803
:101F800085420BD0B5F1804F08D05B48854205D023
:101F90005A48854202D05A48854200D100E000BF2D
:101FA000208850B92389A28861882846FFF7ABFFB3
:101FB000E1882846FFF79EFF25E0208804280AD103
:101FC0002389A28861882846FFF753FFE1882846C5
:101FD000FFF742FF17E0208808280AD12389A2884A
:101FE00061882846FFF7FBFEE1882846FFF7EEFEF2
:101FF00009E02389A28861882846FFF7A6FEE188C8
:102000002846FFF795FE70BD2DE9F04105460C46C8
:1020100000260127608808B9022600E00026A08873
:10202000012801D1022700E001272088A0B92389D7
:10203000A28861882846FFF766FFE1882846FFF7F7
:1020400059FF23893A4631462846FFF712FFE188B7
:102050002846FFF701FF13E02389A28861882846FC
:10206000FFF707FFE1882846FFF7F6FE23893A4687
:1020700031462846FFF747FFE1882846FFF73AFF39
:10208000BDE8F0810A884B881A438B881A43CB88B5
:102090001A430B891A434B891A438B891A43A0F8B8
:1020A000442070474FF6FF71818000210180C1807C
:1020B0004180017270470021018041808180C18090
:1020C000018141818181C18170470021018041806E
:1020D000012181800021C1800181704700210180A0
:1020E00041808180C18001814181818170470000F0
:1020F000002C014000340140000400400008004072
:10210000000C004021B1028842F00102028004E08C
:1021100002884FF6FE731A400280704731B1B0F862
:10212000442042F40042A0F8442005E0B0F84420E6
:10213000C2F30E02A0F8442070471AB183890B4302
:10214000838102E083898B4383817047818270475A
:1021500041EA0203A0F8483070471AB183890B4363
:10216000838102E083898B438381704701894FF625
:10217000F8721140018170470A46002101894FF62B
:102180008F73194011430181704730B504460D46E5
:1021900029462046FFF7F0FF208940F00700208104
:1021A00030BD2DE9F04104460D4616461F46602D10
:1021B00006D13B46012231462046FFF75AFE05E094
:1021C0003B46012231462046FFF79DFE2946204628
:1021D000FFF7D2FF208940F007002081BDE8F081A1
:1021E00030B50C4600210189C9B24FF6FF7505EAEA
:1021F0000325154325432943018130BD2DE9F041D5
:1022000005460E4617469846002443463A46314650
:102210002846FFF7E5FF2C894FF6F870044044F09C
:1022200007044FF68F70044044F070042C81BDE821
:10223000F081F0B504460D4616461F463B46324631
:1022400029462046FFF7CCFF208940F480402081BA
:10225000F0BD0185828270470A46002101884FF651
:102260008F731940114301807047F0B50C46154635
:102270001E460021002200230189028B038C4FF6A9
:10228000F877394021434FF6FC473A4040F20117B6
:102290003A434FF6DD773B404FF6FF7707EA0617E4
:1022A0002F433B43018102830384F0BD0A46002192
:1022B000018B4FF68F7319401143018370470A4613
:1022C0000021018B48F6FF7319404FF6FF7303EAB4
:1022D00002231943018370470A460021818B4FF680
:1022E0008F7319401143818370470A460021818B07
:1022F00048F6FF7319404FF6FF7303EA02231943B0
:102300008183704721B1028842F08002028004E09C
:1023100002884FF67F731A400280704721B182888D
:1023200042F00402828004E082884FF6FB731A4078
:102330008280704721B1828842F00802828004E0E6
:1023400082884FF6F7731A408280704721B18288E5
:1023500042F00102828004E082884FF6FE731A4048
:10236000828070470A460021018B4FF6F7731940AF
:102370001143018370470A460021018B4FF2FF731E
:1023800019404FF6FF7303EA022319430183704794
:102390000A460021818B4FF6F77319401143818360
:1023A00070470A460021818B4FF2FF7319404FF6A8
:1023B000FF7303EA02231943818370470A46002111
:1023C000018B4FF6FB7319401143018370470A4696
:1023D0000021018B4FF6FF3319404FF6FF7303EADC
:1023E00002231943018370470A460021818B4FF66F
:1023F000FB7319401143818370470A460021818B8A
:102400004FF6FF3319404FF6FF7303EA02231943D7
:10241000818370470A460021018B4FF67F73194074
:102420001143018370470A460021018BC1F30E015D
:102430004FF6FF7303EA02231943018370470A46EC
:102440000021818B4FF67F731940114381837047C0
:102450000A460021818BC1F30E014FF6FF7303EA98
:1024600002231943818370470A460021018C4FF6ED
:10247000FD7319401143018470470A460021018C05
:102480004FF6F77319401143018470470A46002143
:10249000018C4FF6DF7319404FF6FF7303EA021306
:1024A0001943018470470A460021018C4FF67F735F
:1024B00019404FF6FF7303EA021319430184704772
:1024C0000A460021018C4FF6FF5319404FF6FF7367
:1024D00003EA02231943018470470A460021018C54
:1024E0004FF2FF7319404FF6FF7303EA02231943BB
:1024F000018470470A460021018C4DF6FF73194094
:102500004FF6FF7303EA023319430184704730B575
:10251000002301248C40A3B2048C9C430484048CCB
:1025200002FA01F5ADB22C43048430BD30B500236E
:1025300004248C40A3B2048C9C430484048C02FACF
:1025400001F5ADB22C43048430BD70B503460020C4
:1025500000241846183001258D40ACB21D8CA543CF
:102560001D8409B1082909D100EB6100056825F037
:10257000700505600568154305600EE00D1FC5F385
:102580004E052844056825F4E045056005684FF6CA
:10259000FF7606EA02263543056070BD21B1028848
:1025A00042F00202028004E002884FF6FD731A40F6
:1025B0000280704721B1028842F00402028004E0E8
:1025C00002884FF6FB731A400280704721B182885F
:1025D00042F08002828004E082884FF67F731A40C6
:1025E0008280704702884FF6F7731A400280028893
:1025F0000A430280704782884FF68F731A408280A8
:1026000082880A438280704702894FF6F8731A4025
:10261000028102890A430281704702894FF67F7363
:102620001A40028102890A430281704781847047FF
:102630008185704781867047018770478187704721
:10264000A0F84010704702884FF6FF431A400280FE
:1026500002880A43028070470146888E704701460F
:10266000088F70470146888F70470146B1F84000D7
:1026700070470146888C70470146088D70470246B6
:102680000020138A0B400BB1012000E000207047AE
:10269000CA430282704730B502460020002300245E
:1026A000158A05EA0103958905EA010413B10CB105
:1026B000012000E0002030BDCA43028270470000C4
:1026C00010B50446FB48844209D101218803FFF775
:1026D0009FF800214FF48040FFF79AF832E0F64867
:1026E000844209D101214804FFF79FF800214FF4EB
:1026F0000030FFF79AF825E0F048844209D1012123
:102700008804FFF792F800214FF48020FFF78DF83E
:1027100018E0EB48844209D10121C804FFF785F88D
:1027200000214FF40020FFF780F80BE0E5488442D9
:1027300008D101210805FFF778F800214FF4801037
:10274000FFF773F810BD2DE9F04786B005460E4639
:102750000024A24600BFA1460027B08900B100BFF7
:102760002F462C8A4CF6FF700440F08804432C82DC
:10277000AC894EF6F3100440B08831890843718962
:1027800008430443AC81AC8A4FF6FF400440B08953
:102790000443AC8201A8FEF7B4FFC648874202D1C9
:1027A000DDF810A001E0DDF80CA0A88900F40040DD
:1027B00040B10AEBCA0000EB0A1031684900B0FBD7
:1027C000F1F807E00AEBCA0000EB0A103168890053
:1027D000B0FBF1F86420B8FBF0F00401200964219B
:1027E00001FB1089A88900F4004040B1322000EBC1
:1027F000C900B0FBF1F000F00700044308E032200C
:1028000000EB09106421B0FBF1F000F00F0004436D
:102810002C8106B0BDE8F0874FF41651016000210D
:102820008180C18001810C2141810021818170471B
:1028300010B502460020108A4FF2FF0318400B88A3
:102840004C8823438C882343CC882343184310822D
:1028500010BD0021018041808180C180704721B17D
:10286000828942F40052828104E082894DF6FF732E
:102870001A4082817047F0B50346002400260025E7
:10288000002040F66A17B94200D100BF1846C1F3D4
:10289000421401F01F06012707FA06F5012C01D1A9
:1028A0000C3004E0022C01D1103000E014301AB1D9
:1028B00007682F43076002E00768AF430760F0BD79
:1028C0001AB1838A0B43838202E0838A8B4383821B
:1028D0007047028A4FF6F0731A400282028A0A4356
:1028E0000282704782894FF2FF731A408281828987
:1028F0000A438281704721B1828942F002028281BB
:1029000004E082894FF6FD731A4082817047028A83
:102910004FF6DF731A400282028A0A43028270472E
:1029200021B1028A42F48042028204E0028A4BF61C
:10293000FF731A4002827047C1F308028280704719
:1029400001468888C0F308007047818941F0010181
:1029500081817047028BD2B20283028B42EA01224C
:1029600002837047028B02F47F420283028B0A4388
:102970000283704721B1828A42F02002828204E001
:10298000828A4FF6DF731A408282704721B1828AB1
:1029900042F01002828204E0828A4FF6EF731A40FE
:1029A0008282704721B1828A42F00802828204E06A
:1029B000828A4FF6F7731A408282704721B182896A
:1029C00042F40042828103E08289C2F30E028281D6
:1029D000704721B1828A42F40062828204E0828AD6
:1029E0004FF2FF731A4082827047828A4FF6FB7360
:1029F0001A408282828A0A438282704721B1828A87
:102A000042F00202828204E0828A4FF6FD731A408D
:102A10008282704702460020B1F5007F00D100BFDE
:102A200013880B400BB1012000E00020704701F437
:102A30000072B2F5007F00D100BFCA430280704728
:102A400070B50246002400230025002040F66A16D7
:102A5000B14200D100BFC1F3421501F01F030126AE
:102A600006FA03F3012D02D19689334006E0022DC8
:102A700002D1168A334001E0968A33400C120126B7
:102A800006FA04F41688344013B10CB1012000E0BA
:102A9000002070BD10B50022002340F66A14A14248
:102AA00000D100BF0A1201249440A3B2DC43048089
:102AB00010BD0000003801400044004000480040C4
:102AC000004C00400050004010B58021B94801F092
:102AD00008FC0020B849088010BDB748008808B934
:102AE00001207047B4480088B4490988884203D15E
:102AF0000020B1490880F4E7AF480088AF4908805A
:102B00000120EEE770B504460D4600260DE014F8EE
:102B1000011BAB48FFF710FF00BF4021A848FFF79B
:102B200079FF0028F9D0701C86B2AE42EFDB70BD91
:102B30002DE9F04105460E461446284601F004FCF6
:102B400087B239462846FFF7DDFF0FE0FFF7C5FFE4
:102B500048B93146974801F0DBFB20B1FFF7B4FFDD
:102B60000020BDE8F0810A2001F065FB201EA4F1E1
:102B700001018CB2EAD10120F3E730B589B00546F6
:102B80000C46FFF7A1FF22468EA101A801F0E0FC50
:102B9000C82290A101A8FFF7CBFF18B9214628460B
:102BA000FFF7B0FF09B030BD70B50546002400BF87
:102BB000FFF793FF80B988A17E4801F0A9FB044686
:102BC00054B13A21204601F0B5FB044614B1641C0F
:102BD000204670BD0020FCE7052001F02CFB281EDC
:102BE000A5F101018DB2E3D100BFF2E708B50121E3
:102BF0000820FEF7F3FD10208DF803000220ADF849
:102C0000000003208DF8020069467548FEF72AFB94
:102C1000002202217248FEF7D6FBFA2001F00BFBDE
:102C2000012202216E48FEF7CEFB4FF4FA7001F04C
:102C300002FBFFF749FF6BA001F07AFC03E04FF4C1
:102C4000FA7001F0F8FAC82268A166A0FFF770FFD9
:102C50000028F4D166A001F06BFC03E04FF4FA7099
:102C600001F0E9FAC82261A164A0FFF761FF002822
:102C7000F4D166A001F05CFC03E04FF4FA7001F0BF
:102C8000DAFAC82259A164A0FFF752FF0028F4D154
:102C900065A001F04DFC03E04FF4FA7001F0CBFAAF
:102CA000C82263A164A0FFF743FF0028F4D16CA001
:102CB00001F03EFC03E04FF4FA7001F0BCFAC822C8
:102CC0006AA16CA0FFF734FF0028F4D174A001F0D2
:102CD0002FFC08BD10B586B0044601210420FEF784
:102CE0007DFD01214804FEF786FD18208DF81700B0
:102CF0000420ADF8140003208DF8160005A96D48D6
:102D0000FEF7B0FA04208DF817000820ADF8140083
:102D100003208DF8160005A96648FEF7A3FA019472
:102D20000020ADF810000C20ADF80E000020ADF82A
:102D30000C00ADF80A00ADF8080001A92048FFF723
:102D400002FD01211E48FFF78AFD012240F22551B4
:102D50001B48FFF790FD26208DF8000001208DF81C
:102D6000030000208DF801008DF802006846FEF790
:102D7000B0F906B010BD10B540F225511048FFF76C
:102D80005FFEB0B10C480088802802D300200A49B9
:102D900008800B48001D0088C1B2074802880088DF
:102DA000401C054B18800348815420210448FFF73C
:102DB0003EFE10BD2002002074000020760000209E
:102DC0000044004041542B43495053454E443D2557
:102DD000640D0A003E0000004950442C0000000031
:102DE000000C014041540D0A000000004F4B000050
:102DF00043574D4F44450D0A0000000041542B43FA
:102E0000574D4F44453D310D0A00000041542B43BE
:102E100057444843500D0A0041542B4357444843FC
:102E2000503D312C310D0A0043574A41500D0A00E4
:102E3000474F54204950000041542B43574A4150BA
:102E40003D226D655F636F6D7075746572222C2213
:102E500032393630343933343235220D0A0000002D
:102E600043495053544152540D0A0000434F4E4EB3
:102E70004543540041542B43495053544152543D0F
:102E800022544350222C223138332E3233302E3408
:102E9000302E3339222C363030320D0A000000003B
:102EA0004553503832363620496E6974204F4B0DE9
:102EB0000A0000000008014070B504460E460025D7
:102EC000206898B901202073304601F073FC20601F
:102ED0002068E0B100206060A66003E00020216867
:102EE00048556D1CA068A842F8D810E00220207355
:102EF00003E00020216848556D1CA068A842F8D85E
:102F000000206060A068B04201D20020206070BD47
:102F100010B50446207B012802D1206801F022FC74
:102F2000002020606060A060207310BD0246002376
:102F300001230DE002F07F000870D2092AB1087861
:102F400040F080000870491C01E0184670475B1C87
:102F5000042BEFDD4FF0FF30F8E7F0B504460D46E7
:102F60002646012300201060002114E0775C07F062
:102F70007F07106807FB03001060705C00F08000A2
:102F800008B9481CF0BDDB01B3F5001F02D36FF098
:102F90000100F7E7491CA942E8DB4FF0FF30F1E7F9
:102FA000F8B50446FF2720780511012D01DB0E2D11
:102FB00001DD3846F8BD032D24D1002000906A467B
:102FC0000421601CFFF7C9FF2044461C009802281A
:102FD00003D3207800F0010008B1FF20EAE7707801
:102FE000317840EA0120801C0099884201D9FF20F5
:102FF000E0E7F8A1B01C01F08BF908B10F2700E061
:10300000032700E02F463846D4E72DE9FF4F83B071
:1030100082468B469146159C0025002002900F2782
:103020000190484601F090F90FFA80F8B9F1000FCD
:1030300003D1012007B0BDE8F08F08F10200384449
:1030400087B2109808B145F00205129878B145F0A2
:103050000405129801F078F9C0B20290139801F0BB
:1030600073F901460298001D0844384487B211984C
:1030700020B1012804D0022808D104E000BF07E0F5
:1030800045F00C0504E045F0140501E00220D1E70D
:1030900000BF149808B145F02405BAF1000F02D022
:1030A000BBF1000F01D10320C4E745F0C005504635
:1030B00001F04AF90646584601F046F93044001D31
:1030C000384487B239462046FFF7F6FE206808B933
:1030D0000420AFE73946206801F003F91021626847
:1030E000501C606020688154D4E90023D118781FF7
:1030F000FFF71CFF00B201900198002804DA204677
:10310000FFF706FF052095E76168019808446060B5
:1031100000216268501C606020688154042162684C
:10312000501C6060206881544D216268501C6060B2
:103130002068815451216268501C6060206881546D
:1031400054216268501C6060206881546268501C81
:1031500060602068815404216268501C60602068AF
:1031600081546168481C6060206845540698010AD3
:103170006268501C6060206881540698C1B2626821
:10318000501C606020688154C8F307216268501C9D
:103190006060206881546268501C6060206800F89C
:1031A0000280D4E9001288184246494601F0D3F85B
:1031B00060684044606005F00400B8B300261398CE
:1031C00008B985A01390129801F0BEF886B2310AB2
:1031D0006268501C6060206881546268501C6060A6
:1031E00020688654D4E9001288183246129901F0FA
:1031F000B2F8606830446060139801F0A5F886B2B8
:10320000310A6268501C6060206881546268501CFA
:10321000606020688654D4E90012881832461399F9
:1032200001F099F860683044606000BF05F08000EC
:10323000C8B1504601F088F886B2310A6268501C65
:103240006060206881546268501C60602068865409
:10325000D4E9001288183246514601F07CF86068C3
:103260003044606000BF05F04000C8B1584601F02E
:103270006BF886B2310A6268501C60602068815425
:103280006268501C606020688654D4E90012881877
:103290003246594601F05FF860683044606000BF14
:1032A0000020C7E610B5044602212046FFF704FEC1
:1032B000206808B9012010BDE0216268501C6060E0
:1032C0002068815400216268501C6060206881542D
:1032D0000020F0E701464878022801D0012070471D
:1032E000887810B18878012801D1C878F7E7FF20E5
:1032F000F5E72DE9FF4F83B0834690469946139C2E
:10330000002600250020029001900027BBF1000F4D
:1033100003D1012007B0BDE8F08F00250AE0049832
:10332000405D232803D00498405D2B2801D1022062
:10333000F0E76D1C0498405D0028F0D147F030079D
:10334000119808B147F0010705EB0900861C109899
:1033500020B1012804D002280AD105E000BF09E00D
:1033600047F00207B61C05E047F00407B61C01E071
:103370000320CFE700BF98F80000022822D14FF0C9
:10338000000A00BF50460AF1010A18F800007D2823
:10339000F8D1AAF1030A0AF1070002900298A9EBFA
:1033A000000AF01CA0EB0A012046FFF785FD20680B
:1033B00008B90420AEE7F21CA2EB0A01206800F075
:1033C00090FF0FE0F11C2046FFF776FD206828B93A
:1033D00004209FE72464700000000000F11C2068B6
:1033E00000F07FFF6168481C606020684754D4E9A2
:1033F000000281183046FFF799FD019001980028DE
:1034000004DA2046FFF784FD052083E76168019810
:1034100008446060C5F307216268501C6060206842
:1034200081546268501C606020688554D4E90012A1
:1034300088182A46049900F08EFF6068284460606E
:10344000109860B14FEA1B216268501C60602068D0
:1034500081546268501C6060206800F802B0B8F1C6
:10346000000F19D098F8000002280BD1D4E90012FF
:1034700088184146029A00F01BFF616802980844D0
:10348000606009E0D4E9001288184A46414600F01D
:103490000FFF60684844606000203BE72DE9FF4172
:1034A00007460D4690461E460A9C01200021CDE9A4
:1034B0000001EB1C0A46AFF2E401CDE902040A2048
:1034C000FFF717FF88B96168481C606020684654A0
:1034D000C5F307216268501C6060206881546268EF
:1034E000501C60602068855403E0012004B0BDE8F2
:1034F000F0810020FAE72DE9F04F85B080460D46B7
:103500009146012004900027002600244FF0000A75
:10351000404600F019FF00F10D0B584601F04AF942
:1035200007461FB9049805B0BDE8F08F4246FEA1DA
:10353000384601F00DF8384600F006FFC6B2F01D1F
:1035400000EB050AAAEB050001F034F9044624B9A2
:10355000384601F007F90498E5E7022020700020C2
:103560006070A67032463946E01C00F0A1FE290EBC
:10357000F01C2154C5F30741301D2154C5F3072128
:10358000701D2154B01D255401200021CDE90001FA
:1035900053462246AFF2C411CDE902090A20FFF7D3
:1035A000A8FE08B900200490384601F0DBF8204658
:1035B00001F0D8F80498B6E72DE9F84380460C46A8
:1035C00015461E462F2108F1060000F0B3FE0746FF
:1035D0000020009017B90120BDE8F8837F1C6A46DF
:1035E000042108F10100FFF7B8FC252001F0E2F802
:1035F0002060206808B90220EEE72521206800F04D
:1036000070FE24223946206800F052FE24370098CC
:103610002C3830803188481C01F0CCF828602868AC
:1036200020B9206801F09EF80320D5E73288511CAC
:10363000286800F056FE32883946286800F038FEC7
:103640000020C9E72DE9FF5F07460D469046384642
:1036500000F07AFE86B2284600F076FE1FFA80FA65
:103660004FF00009B01D01F0A5F804461CB9012077
:1036700004B0BDE8F09FB11D204600F032FEAEA0C0
:10368000016821608088A08032463946204600F0DB
:1036900062FE284600F058FE83460120002100917A
:1036A0005B462A46CDE90208019121460A20FFF730
:1036B00020FE10B94FF0000901E04FF0010920464B
:1036C00001F050F84846D3E72DE9FF5F80461746E2
:1036D00099460E9C0026B246B3460025B8F1000F6D
:1036E00003D1012004B0BDE8F09F0BE057F825009E
:1036F00008B90220F6E757F8250000F025FE064439
:10370000681CC5B24D45F1DB09EB4900801C00EB9C
:10371000060A0AF105012046FFF7CEFB206808B92A
:103720000320DFE782216268501C606020688154BA
:10373000D4E9000281185046FFF7F8FB0FFA80FB2E
:10374000BBF1000F04DA2046FFF7E2FB0420C9E7D3
:103750006068584460604FEA18216268501C6060DD
:10376000206881546268501C6060206800F8028004
:10377000002524E057F8250000F0E6FD0646C6F3D4
:1037800007216268501C6060206881546268501C88
:10379000606020688654D4E90023D01857F82510BB
:1037A000324600F0D8FD6068304460600198C1B2D4
:1037B0006268501C606020688154681CC5B24D4529
:1037C000D8DB00208EE70146FF208A78A2B9CA78AC
:1037D000142A11D10A7932B1012A05D0022A04D063
:1037E000802A06D103E000BF00BF002003E00120D3
:1037F00001E0022000BF00BF70472DE9F05F804666
:103800000F4691461C460026B246B3460025B8F145
:10381000000F02D10120BDE8F09F0BE057F8250012
:1038200008B90220F7E757F8250000F08DFD06449F
:10383000681CC5B24D45F1DB022000EB490000EBEE
:10384000060A0AF105012046FFF736FB206808B991
:103850000320E0E7A2216268501C60602068815468
:10386000D4E9000281185046FFF760FB0FFA80FB95
:10387000BBF1000F04DA2046FFF74AFB0420CAE739
:103880006068584460604FEA18216268501C6060AC
:10389000206881546268501C6060206800F80280D3
:1038A00000251DE057F8250000F04EFD0646C6F342
:1038B00007216268501C6060206881546268501C57
:1038C000606020688654D4E90023D01857F825108A
:1038D000324600F040FD606830446060681CC5B24C
:1038E0004D45DFDB002096E7014601208A781AB9B2
:1038F000CA781E2A00D1002070472DE9FC5F81465E
:103900000D4614461E46DDE90C8B99F8000000F0C8
:103910000F0A002001900AF008000090CAF341004D
:103920008BF8000001AA0BE07B2264735F696422BC
:103930003A222573227D000024637273702F0000E9
:10394000042109F10100FFF708FB4844471C0198D6
:10395000022802D30AF0010010B1FF20BDE8FC9F4D
:103960007878397840EA012020802088801C0199ED
:10397000884201D9FF20F1E7AFF2A851B81C00F04E
:10398000C7FC08B10F20E9E79BF8000020B101282F
:103990003DD0022877D13BE0009808B1FF20DDE759
:1039A0002188481C00F006FF2860286808B9FF201D
:1039B000D4E72288511C286800F093FC2288B91CA7
:1039C000286800F075FC0198801E2188401AA8F82C
:1039D0000000B8F80010481C00F0ECFE30603068C1
:1039E00020B9286800F0BEFEFF20B7E7B8F8002035
:1039F000511C306800F075FCB8F80020B4F800C025
:103A0000BB1C0CEB0301306800F052FC4FE000BF20
:103A10002088801C0199884201D9FF209EE72088D8
:103A2000C01C395C2088801C385C41EA00210E985B
:103A300001800E9808B9FF2090E72188481C00F00B
:103A4000B9FE2860286808B9FF2087E72288511C42
:103A5000286800F046FC2288B91C286800F028FC81
:103A60000198001F2188401AA8F80000B8F800103B
:103A7000481C00F09FFE3060306828B9286800F0CC
:103A800071FEFF206AE710E0B8F80020511C306892
:103A900000F027FCB8F80020B4F800C03B1D0CEB88
:103AA0000301306800F004FC01E0FF2056E700BF8E
:103AB0002B21284600F03EFC20B92321284600F0A7
:103AC00039FC08B1FF2049E7002047E770B50546FB
:103AD0000C4604212046FFF7EFF9206808B90120C1
:103AE00070BD40216268501C6060206881540221D2
:103AF0006268501C60602068815429126268501C02
:103B00006060206881546268501C60602068855441
:103B10000020E5E701464878022801D001207047DF
:103B2000887820B9C8780A2801D10020F7E7012059
:103B3000F5E770B505460C4604212046FFF7BCF9B1
:103B4000206808B9012070BD50216268501C606077
:103B50002068815402216268501C60602068815492
:103B600029126268501C6060206881546268501C91
:103B70006060206885540020E5E701464878022807
:103B800001D001207047887820B9C8780A2801D16F
:103B90000020F7E70120F5E770B505460C46042143
:103BA0002046FFF789F9206808B9012070BD62211D
:103BB0006268501C60602068815402216268501C59
:103BC00060602068815429126268501C606020681F
:103BD00081546268501C6060206885540020E5E7CD
:103BE00002465078022801D0012070479078B0EB4F
:103BF000112F05D1D078CBB2984201D10020F4E743
:103C00000120F2E770B505460C4604212046FFF777
:103C100053F9206808B9012070BD70216268501CFA
:103C200060602068815402216268501C60602068D6
:103C3000815429126268501C606020688154626857
:103C4000501C6060206885540020E5E701464878F4
:103C5000022801D001207047887820B9C8780A2846
:103C600001D10020F7E70120F5E710B50446022155
:103C70002046FFF721F9206808B9012010BDC021B6
:103C80006268501C60602068815400216268501C8A
:103C90006060206881540020F0E7000030B58BB0F0
:103CA00000200790089009900A900125B9A3BCA2B2
:103CB000BDA1BFA000F03CFC07A800210291039128
:103CC000CDE9041000912B02B2A20191B4A1B6A0DB
:103CD000FFF79BF900283FD1089A91B20798FEF7A9
:103CE0004CFFFA20FEF760FF0446002C30D020463F
:103CF000FFF756F902282BD12046FFF7EBFA0628EA
:103D000021D2DFE800F0030C1014181CB4A000F05E
:103D10000FFC00254FF4FA7000F08DFA17E0B5A003
:103D200000F006FC13E0BAA000F002FC0FE0C1A016
:103D300000F0FEFB0BE0C7A000F0FAFB07E0CEA00E
:103D400000F0F6FB03E0D7A000F0F2FB00BF00BFDD
:103D500007A8FFF7DDF802E0D9A000F0E9FB28464C
:103D60000BB030BD10B588B004462021684600F085
:103D7000B8FADCA1204600F002FB2021684600F0E2
:103D8000B0FAD948D9A10268684600F0E1FB69465B
:103D9000204600F0B1FA2021684600F0A2FAD84887
:103DA000D8A10268684600F0D3FB6946204600F0BF
:103DB000A3FA2021684600F094FAD748D7A10268F8
:103DC000684600F0C5FB6946204600F095FA2021C0
:103DD000684600F086FAD448D4A10268684600F02C
:103DE000B7FB6946204600F087FA2021684600F0BC
:103DF00078FAD148D1A10268684600F0A9FB69466B
:103E0000204600F079FA2021684600F06AFACE4890
:103E1000CEA10268684600F09BFB6946204600F090
:103E20006BFA204600F090FAC0B208B010BD30B571
:103E3000A5B00020219022902390249000240025FA
:103E4000802101A800F04DFA01A8FFF78BFF04467E
:103E5000002C20D021A805230022214600904DA04F
:103E6000FFF71CFBA0B908E001A8415D229A501C95
:103E7000229021988154681C05B2A542F4DB229A55
:103E800091B22198FEF779FE21A8FFF741F802E0F0
:103E9000B1A000F04DFB25B030BD2DE9F0418AB056
:103EA00080460020069007900890099005900490A5
:103EB000039000250026002400274046FFF770F8F5
:103EC0000546042D22D00F2D26D103AB05AA04A947
:103ED0004046FFF771FB0646BEB9BDF80C30A6A000
:103EE000DDE9041200F024FB06AADDE90401FFF776
:103EF000A9FB50B9A9A000F01BFB079A91B2069844
:103F0000FEF73BFE06A8FFF703F808E04046FFF780
:103F100001FE00B903E000BF4FF0FF3600BF00BF55
:103F2000FEF7D2FD701C10B90AB0BDE8F0813A214D
:103F3000059800F0FFF90446FCB1701CE8B1641C60
:103F400005E014F8012B38467F1C0DF8002020787E
:103F5000302802DB20783928F3DD00200DF8070037
:103F6000684600F015FA074692A1059800F0D0F9CE
:103F700018B991A1059800F0CBF90F2D01D0032DB0
:103F800005D1049800F0EEFB059800F0EBFB00BFB4
:103F9000CAE7000031303634323931303434000071
:103FA0003132333435360000353838343238000099
:103FB0004F6E654E65745F4465764C696E6B0D0A95
:103FC00050524F49443A2025732C09415549463AED
:103FD0002025732C0944455649443A25730D0A009F
:103FE000546970733A09C1ACBDD3B3C9B9A60D0AFF
:103FF000000000005741524E3A09C1ACBDD3CAA7D8
:10400000B0DCA3BAD0ADD2E9B4EDCEF30D0A000016
:104010005741524E3A09C1ACBDD3CAA7B0DCA3BACE
:10402000B7C7B7A8B5C4636C69656E7469640D0AD7
:10403000000000005741524E3A09C1ACBDD3CAA797
:10404000B0DCA3BAB7FECEF1C6F7CAA7B0DC0D0A42
:10405000000000005741524E3A09C1ACBDD3CAA777
:10406000B0DCA3BAD3C3BBA7C3FBBBF2C3DCC2EBB8
:10407000B4EDCEF30D0A00005741524E3A09C1ACDF
:10408000BDD3CAA7B0DCA3BAB7C7B7A8C1B4BDD364
:1040900028B1C8C8E7746F6B656EB7C7B7A8290D9C
:1040A0000A0000004552523A09C1ACBDD3CAA7B0BC
:1040B000DCA3BACEB4D6AAB4EDCEF30D0A0000004C
:1040C0005741524E3A094D5154545F5061636B65EC
:1040D00074436F6E6E656374204661696C65640D30
:1040E0000A0000002C3B00000400002074656D7085
:1040F00065726174757265312C25643B00000000A7
:104100000800002074656D706572617475726532A7
:104110002C25643B000000000C000020736D6F67CD
:10412000312C25643B00000010000020736D6F6788
:10413000322C25643B000000140000206669726583
:10414000312C25643B000000180000206669726570
:10415000322C25643B0000005741524E3A09454439
:10416000505F4E6577427566666572204661696C80
:1041700065640D0A00000000636D6469643A2025DF
:10418000732C207265713A2025732C207265715F43
:104190006C656E3A2025640D0A0000005469707346
:1041A0003A0953656E6420436D64526573700D0A5D
:1041B0000000000066616E002020200010B56FF046
:1041C0000400FCF7D0FF2E4800682E49B0FBF1F048
:1041D0002D4908700846007800EB4001C1EBC01083
:1041E0004FF6FF7101EAC0002849088010BD014662
:1041F000254A12784A434FF0E0235A6100229A611F
:104200001A46126942F001021A6100BF4FF0E02223
:10421000106900F001021AB100F48032002AF5D0D2
:104220004FF0E022126922F001024FF0E0231A6100
:1042300000229A6170470146144A12884A434FF09F
:10424000E0235A6100229A611A46126942F0010283
:104250001A6100BF4FF0E022106900F001021AB1AC
:1042600000F48032002AF5D04FF0E022126922F0EB
:1042700001024FF0E0231A6100229A6170470000AA
:104280004C00002000127A00780000207A00002004
:1042900000BF704700BF054A128802F04002002AA2
:1042A000F9D0C2B2014B1B1D1A8070470038014083
:1042B00040EA01039B0703D009E008C9121F08C0A8
:1042C000042AFAD203E011F8013B00F8013B521E28
:1042D000F9D27047D2B201E000F8012B491EFBD29F
:1042E00070470022F6E710B513460A460446194601
:1042F000FFF7F0FF204610BD421E12F8013F002BD1
:10430000FBD111F8013B02F8013B002BF9D17047BA
:1043100030B505462A460B4612F8010B13F8014B3F
:1043200008B1A042F8D01CB1002802D06D1CF1E702
:10433000284630BDCAB2401E10F8011F8A4202D082
:104340000029F9D100207047421C10F8011B0029F8
:10435000FBD1801A704710B5044600E0401C03787A
:10436000002BFBD100E0401C521E04D311F8013B8E
:104370000370002BF7D100210170204610BD0346C9
:1043800011F8012B00F8012B002AF9D118467047CB
:1043900070B5064600F0F0F8046805460A220021D0
:1043A000304600F018F82C6070BD30B50B46014661
:1043B00000202022012409E021FA02F59D4205D3C4
:1043C00003FA02F5491B04FA02F52844151EA2F16E
:1043D0000102F1DC30BD2DE9F04791460F468046E1
:1043E0000446002614F8015B2DB100F03FF8006888
:1043F000405DC007F6D12B2D02D02D2D18D0641EA4
:104400004A463946204600F035F827B13968A142BE
:1044100001D1C7F8008071054FF002040BD540426E
:10442000002803DD00F0A8F80460A007BDE8F087CD
:1044300046F48066E4E70028F8DA00F09DF80460AE
:104440006FF00040F2E70000064C074D06E0E06820
:1044500040F0010394E8070098471034AC42F6D3CB
:10446000FBF77AFEA8480008C848000800487047D3
:10447000A44800082DE9F05F824600780027154621
:104480008B460AF10104B946302801D09DB113E0F2
:1044900014F8010B0127782803D0582801D045B122
:1044A0000AE00DB1102D07D10027102514F8010BDB
:1044B00002E0082500E00A250026B0460EE005FBD4
:1044C000080005FB06F1012701EB10461FFA80F8F2
:1044D000B6F5803F00D3B94614F8010B294600F029
:1044E00018F80028EBDABBF1000F05D00FB1641EFD
:1044F00000E05446CBF80040B9F1000F06D000F0C0
:104500003BF802210160C81EBDE8F09F48EA064062
:10451000FAE73A2800D2303820F02002412A01D3AD
:10452000A2F13700884201D34FF0FF3070470000FE
:104530000FB4054B10B503A9044A029800F030F8F7
:1045400010BC5DF814FB0000954200087C000020C0
:104550000FB4084B10B504A902AA039800F020F884
:10456000044602A9002000F0F7F8204610BC5DF8D0
:1045700014FB000059470008004870478C000020D9
:1045800002E008C8121F08C1002AFAD1704770471C
:10459000002001E001C1121F002AFBD1704700007A
:1045A0002DE9FF4F8BB09A460F460546002606E0E0
:1045B00025280BD052460D9990476D1C761C287803
:1045C0000028F5D10FB03046BDE8F08F0024A0469A
:1045D0000122604900E0044315F8013F203B02FA44
:1045E00003F00842F7D128782E2817D115F8010FCB
:1045F00044F004042A280ED06FF02F022878A0F18E
:10460000300109290AD808EB880102EB410100EBCF
:1046100001086D1CF2E757F8048B6D1C2878692897
:104620003ED006DC0028CDD063280BD0642804D10E
:1046300036E0732810D075284BD052460D9990471C
:10464000761C85E017F8040B8DF8000000208DF82B
:104650000100E946012003E057F8049B4FF0FF30CA
:1046600061074FF0000401D40AE0641C44450DDAF0
:104670008442FADB19F804100029F6D106E0641C24
:104680008442FCDB19F804100029F8D1264404E028
:1046900019F8010B52460D999047641EF8D257E065
:1046A00001CF4FF00A0B002802DA40422D2102E030
:1046B000210504D52B218DF82410012103E0E10709
:1046C00005D02021F7E70DF1200908910CE0002129
:1046D000F9E701CF4FF00A0BF9E75946FFF765FEFE
:1046E00001F1300209F8012D0028F6D1ADEB0900E7
:1046F00000F1200B600701D44FF00108D84502DD1E
:10470000A8EB0B0000E000208046002406E009A88A
:104710005246005D0D999047641C761C08988442AF
:10472000F5DB04E0302052460D999047761CB8F135
:104730000001A8F10108F5DC05E019F8010B52466B
:104740000D999047761CBBF10001ABF1010BF4DC35
:104750006D1C34E7092801000A68531C0B601070B7
:104760007047000010B5002821D0114B0022001F17
:10477000196803E0814203D80A4649680029F9D143
:1047800052B11368841A9C4204D100681844106026
:10479000104602E0506000E0186039B102680B1A60
:1047A000934203D10B681A4402604968416010BD0E
:1047B00084000020F0B50B30154D20F007010024D7
:1047C000144A0FE003688B420BD38B4205D95E1A63
:1047D00043184768C3E9006700E04368136002C0FC
:1047E00004E0021D10680028ECD12046002802D108
:1047F000286808B10020F0BD064A07481060074A43
:10480000121A22F00702C0E9002401202860D7E72D
:104810008800002084000020A4020020A0040020C2
:1048200000404040404040404040414141414140C3
:104830004040404040404040404040404040404078
:104840004005020202020202020202020202020207
:10485000022020202020202020202002020202020C
:104860000202909090909090101010101010101064
:104870001010101010101010101010100202020270
:1048800002028888888888880808080808080808B4
:1048900008080808080808080808080802020202B0
:1048A0004000000021480008C8480008000000201F
:1048B0009000000080450008584900089000002042
:1048C00010080000904500080000000000000000F3
:1048D00000000000000000000000000000000000D8
:1048E000000000002D0000003C000000000000005F
:1048F00000000000000000000000000000000000B8
:104900000000000000000000000030313233343578
:104910003637383900A24A040000000000000000C9
:104920000102030406070809000000000102030455
:10493000010203040607080902040608000000003B
:104940000000000000000000000000000000000067
:0849500000000000000000005F
:04000005080001519D
:00000001FF
